ACNI279FLIGHT:1
HFDTE110623
HFFXA005
HFPLTPILOT:Bob Fletcher
HFCM2CREW:
HFGTYGLIDERTYPE:ASG 29
HFGIDGLIDERID:90
HFDTM100GPSDATUM:WGS84
HFRFWFIRMWAREVERSION:1.2
HFRHWHARDWAREVERSION:1.2
HFFTYFRTYPE:ClearNav Instr., ClearNav II
HFGPS:UBLOX,NEO-6G,16Ch,50000 
HFPRSPRESSALTSENSOR:Intersema,MS5540C,20000
HFCIDCOMPETITIONID:90
I033638FXA3941ENL4244GSP
J020810WDI1115WVE
C110623150202000000000102
C0000000N00000000ETAKEOFF
C4225570N07147630WSTERLING    
C4331467N07256950WRutland
C4411700N07145050WFranconia   
C4225570N07147630WSTERLING    
C0000000N00000000ELANDING
B1524184225409N07147432WA0014600107001000000
B1524194225409N07147432WA0014600107001000000
B1524204225409N07147432WA0014500107001000000
B1524214225409N07147432WA0014600107001000000
B1524224225409N07147432WA0014500107001000000
B1524224225409N07147432WA0014600107001000000
B1524234225409N07147432WA0014600107001000000
B1524234225409N07147432WA0014500107001000000
B1524244225409N07147432WA0014500107001000000
B1524254225409N07147432WA0014500107001000000
B1524264225409N07147432WA0014500107001000000
B1524264225409N07147432WA0014500107001000000
B1524274225409N07147432WA0014500107001000000
B1524274225409N07147432WA0014600107001000000
B1524284225409N07147432WA0014600107001000000
B1524294225409N07147432WA0014600107001000000
B1524304225409N07147432WA0014600107001000000
B1524314225409N07147432WA0014600107001000004
B1524314225409N07147432WA0014600107001000004
B1524324225410N07147433WA0014600107001000017
B1524334225413N07147437WA0014600107001000028
B1524344225417N07147441WA0014600107001000033
B1524354225421N07147446WA0014600107001000041
B1524364225426N07147452WA0014600107001010052
B1524364225426N07147452WA0014600107001020052
LCNI152436EVT:ENDBASELINE
LCNI152432EVT:TAKEOFF
F1524370103061114171924
B1524374225432N07147460WA0014600107001020058
B1524384225439N07147468WA0014600107001040063
B1524394225447N07147477WA0014600107001040072
B1524404225455N07147488WA0014600107001048079
B1524414225464N07147499WA0014600108001051084
B1524424225474N07147511WA0014700108001042090
B1524434225485N07147524WA0014700108001036097
B1524444225496N07147537WA0014700108001034101
B1524454225508N07147551WA0014700109001027105
B1524464225520N07147565WA0014800110001016111
B1524474225533N07147580WA0014800111001003114
B1524484225546N07147596WA0014900112001000116
B1524494225559N07147611WA0015000114001000119
B1524504225573N07147627WA0015200116001000123
B1524514225587N07147643WA0015300118001000125
B1524524225602N07147660WA0015500120001000125
B1524534225616N07147676WA0015700124001000125
B1524544225631N07147692WA0016000127001000125
B1524554225645N07147708WA0016300132001000123
B1524564225659N07147723WA0016700137001000121
B1524574225673N07147739WA0017100144001000121
B1524584225687N07147754WA0017600149001000118
B1524594225701N07147769WA0018100155001000114
B1525004225714N07147783WA0018700161001000113
B1525014225727N07147797WA0019300167001000114
B1525024225740N07147812WA0019800172001000111
B1525034225753N07147825WA0020300176001000110
B1525044225767N07147839WA0020800180001000111
B1525054225780N07147852WA0021300185001000111
B1525064225794N07147865WA0021700188001000113
B1525074225808N07147878WA0022100191001000116
B1525084225822N07147892WA0022400193001000117
B1525094225837N07147906WA0022700195001000117
B1525104225851N07147920WA0022900198001000119
B1525114225866N07147934WA0023200200001000120
B1525124225880N07147948WA0023400203001000119
B1525134225894N07147962WA0023700207001000118
B1525144225909N07147976WA0024000211001000119
B1525154225924N07147989WA0024400215001000116
B1525164225938N07148002WA0024800220001000116
B1525174225953N07148014WA0025200224001000115
B1525184225968N07148027WA0025600229001000114
B1525194225982N07148039WA0026000234001000115
B1525204225996N07148052WA0026500240001000116
B1525214226011N07148065WA0027100244001000117
B1525224226026N07148077WA0027500248001000117
B1525234226042N07148090WA0027900250001000120
B1525244226057N07148102WA0028200252001000120
B1525254226072N07148115WA0028500255001000120
B1525254226072N07148115WA0028800255001000120
B1525264226088N07148127WA0028800258001000122
B1525274226104N07148140WA0029100262001000123
B1525284226119N07148154WA0029500266001000124
B1525294226135N07148168WA0029800270001000124
B1525304226151N07148181WA0030100272001000123
B1525314226167N07148193WA0030400276001000123
B1525324226183N07148204WA0030800281001000123
B1525334226200N07148215WA0031200285001000121
B1525344226216N07148226WA0031600290001000121
B1525354226232N07148236WA0032000295001000121
B1525354226232N07148236WA0032500295001000121
B1525364226249N07148247WA0032500300001000121
B1525374226265N07148258WA0033100305001000119
B1525384226281N07148268WA0033500310001000120
B1525394226298N07148278WA0033900314001000121
B1525404226314N07148289WA0034400318001000121
B1525414226330N07148299WA0034700320001000121
B1525424226346N07148310WA0035100324001000120
B1525434226362N07148322WA0035500328001000120
B1525444226378N07148334WA0035800333001000119
B1525454226393N07148346WA0036300338001000119
B1525454226393N07148346WA0036700338001000119
B1525464226410N07148357WA0036700343001000121
B1525474226426N07148367WA0037200349001000122
B1525484226442N07148378WA0037900355001000123
B1525494226459N07148390WA0038400360001000124
B1525504226476N07148401WA0038800364001000126
B1525514226493N07148412WA0039200367001000125
F1525520103061114171924133
B1525524226510N07148423WA0039600373001000125
B1525534226527N07148434WA0040200379001000126
B1525544226544N07148443WA0040700385001000125
B1525554226562N07148453WA0041200390001000125
B1525564226579N07148463WA0041800396001000125
B1525564226579N07148463WA0041800396001000125
B1525574226596N07148473WA0042300401001000125
B1525584226613N07148484WA0043000407001000124
B1525594226630N07148494WA0043500413001000123
B1526004226646N07148505WA0044100420001000123
B1526014226662N07148517WA0044600425001000122
B1526024226679N07148528WA0045200431001000123
B1526034226696N07148538WA0045800437001000124
B1526044226713N07148548WA0046300442001000124
B1526054226730N07148558WA0046800447001000125
B1526064226748N07148568WA0047400451001000127
B1526064226748N07148568WA0047600451001000127
B1526074226766N07148576WA0047700454001000128
B1526084226783N07148587WA0048200458001000129
B1526084226783N07148587WA0048500458001000129
B1526094226801N07148597WA0048700461001000130
B1526104226819N07148608WA0048800464001000130
B1526104226819N07148608WA0049100464001000130
B1526114226837N07148618WA0049100467001000128
B1526124226855N07148627WA0049300471001000127
B1526134226872N07148637WA0049700476001000126
B1526144226890N07148645WA0050000482001000124
B1526154226907N07148655WA0050500488001000123
B1526164226924N07148664WA0051000493001000122
B1526164226924N07148664WA0051500493001000122
B1526174226941N07148673WA0051500498001000119
B1526184226958N07148682WA0052300503001000120
B1526184226958N07148682WA0052500503001000120
B1526194226974N07148691WA0052700505001000120
B1526204226991N07148700WA0052900508001000119
B1526204226991N07148700WA0053200508001000119
B1526214227007N07148710WA0053200511001000119
B1526224227024N07148719WA0053600513001000120
B1526234227041N07148727WA0053800516001000119
B1526244227058N07148736WA0054100519001000121
B1526254227075N07148745WA0054500521001000122
B1526254227075N07148745WA0054500521001000122
B1526264227092N07148755WA0054600523001000122
B1526264227092N07148755WA0054900523001000122
B1526274227109N07148764WA0054900525001000123
B1526284227126N07148773WA0055200528001000124
B1526294227143N07148783WA0055400531001000124
B1526294227143N07148783WA0055400531001000124
B1526304227160N07148793WA0055600534001003125
B1526314227177N07148803WA0056100537001000127
B1526314227177N07148803WA0056200537001000127
B1526324227195N07148813WA0056200539001000128
B1526334227212N07148823WA0056400541001000128
B1526344227230N07148834WA0056600542001000130
B1526354227248N07148844WA0056700543001000131
B1526364227267N07148854WA0056900545001000131
B1526364227267N07148854WA0057100545001000131
B1526374227285N07148863WA0057200547001000131
B1526384227303N07148873WA0057300549001000131
B1526384227303N07148873WA0057500549001000131
B1526394227321N07148883WA0057500552001000131
B1526404227340N07148893WA0057600554001000130
B1526404227340N07148893WA0057900554001000130
B1526414227358N07148902WA0058000556001000130
B1526424227376N07148912WA0058100559001000129
B1526434227394N07148921WA0058300563001000128
B1526444227412N07148931WA0058600568001000127
B1526454227429N07148940WA0059000575001000124
B1526464227446N07148950WA0059800582001000124
B1526474227463N07148960WA0060400588001000125
B1526474227463N07148960WA0060400588001000125
B1526474227463N07148960WA0060700588001000125
B1526484227481N07148969WA0061000592001000125
B1526494227498N07148979WA0061200595001000126
B1526494227498N07148979WA0061700595001000126
B1526504227516N07148989WA0061900600001000128
B1526514227534N07148998WA0062100604001000128
B1526524227551N07149008WA0062500607001000127
B1526534227569N07149018WA0062800609001000127
B1526544227586N07149028WA0063300613001000126
B1526554227604N07149037WA0063600617001000126
B1526564227622N07149046WA0064000621001000125
B1526564227622N07149046WA0064300621001000125
B1526574227639N07149056WA0064300624001000126
B1526584227656N07149065WA0064600626001000125
B1526594227674N07149076WA0064900629001000125
B1527004227691N07149086WA0065100631001000125
B1527004227691N07149086WA0065400631001000125
B1527014227708N07149097WA0065500634001000125
B1527024227725N07149107WA0065600637001000125
B1527034227742N07149117WA0065900639001000126
B1527044227760N07149126WA0066200643001000125
B1527044227760N07149126WA0066500643001000125
B1527054227777N07149135WA0066600647001000125
B1527064227795N07149144WA0067000651001000126
B1527074227812N07149153WA0067400655001000125
B1527074227812N07149153WA0067400655001000125
B1527084227830N07149163WA0067600659001000125
B1527094227847N07149172WA0068100662001000127
B1527104227865N07149182WA0068500665001000125
B1527104227865N07149182WA0068500665001000125
B1527114227882N07149191WA0068800670001000124
B1527114227882N07149191WA0069100670001000124
B1527124227900N07149200WA0069300674001000126
B1527134227917N07149209WA0069500678001000125
B1527144227935N07149219WA0070000682001000124
B1527144227935N07149219WA0070000682001000124
B1527154227952N07149228WA0070200687001000124
B1527164227969N07149237WA0070700692001000124
B1527174227986N07149247WA0071300696001000125
B1527174227986N07149247WA0071300696001000125
B1527184228004N07149256WA0071500700001000126
B1527194228021N07149266WA0071900703001000126
B1527194228021N07149266WA0072500703001000126
B1527204228039N07149276WA0072700707001000127
B1527214228056N07149288WA0072900710001000128
B1527214228056N07149288WA0073200710001000128
B1527224228073N07149299WA0073200714001000127
B1527234228090N07149310WA0073500718001000127
B1527244228108N07149321WA0074000722001000128
B1527254228125N07149332WA0074300726001000128
B1527264228143N07149342WA0074600730001000129
B1527274228160N07149354WA0075100735001000128
B1527284228177N07149366WA0075500740001000128
B1527294228194N07149378WA0075800744001000128
B1527294228194N07149378WA0076400744001000128
B1527304228211N07149390WA0076500748001000129
B1527314228228N07149401WA0076700753001000129
B1527314228228N07149401WA0077100753001000129
B1527324228246N07149413WA0077400758001000128
B1527334228263N07149424WA0077600765001000126
B1527334228263N07149424WA0078100765001000126
B1527344228279N07149436WA0078400774001000125
B1527354228296N07149447WA0078800781001000125
B1527364228313N07149458WA0079400787001000125
B1527374228330N07149469WA0080400792001000127
B1527374228330N07149469WA0080400792001000127
B1527384228347N07149481WA0080700797001000128
B1527394228364N07149494WA0081200801001000128
B1527394228364N07149494WA0081200801001000128
B1527404228380N07149506WA0081700804001000128
B1527414228397N07149519WA0082100809001000126
B1527414228397N07149519WA0082700809001000126
B1527424228413N07149531WA0083000815001000125
B1527434228430N07149544WA0083200819001000125
B1527444228446N07149556WA0083600823001000123
B1527454228462N07149569WA0083900827001000123
B1527464228478N07149581WA0084300830001000124
B1527464228478N07149581WA0084700830001000124
B1527474228494N07149593WA0084700834001000123
B1527484228511N07149604WA0085000837001000123
B1527494228527N07149615WA0085500839001000124
B1527494228527N07149615WA0085500839001000124
B1527504228544N07149627WA0085700841001000125
B1527514228560N07149639WA0086000842001000125
B1527524228577N07149651WA0086200844001000126
B1527534228594N07149664WA0086300846001000127
B1527544228611N07149676WA0086500849001000128
B1527554228628N07149688WA0086700851001000128
B1527564228644N07149701WA0087000853001000129
B1527564228644N07149701WA0087200853001000129
B1527574228660N07149716WA0087300855001000130
B1527584228677N07149730WA0087400858001000130
B1527594228693N07149744WA0087600861001000131
B1528004228710N07149758WA0087900865001000131
B1528004228710N07149758WA0088300865001000131
B1528014228727N07149772WA0088400871001000132
B1528024228743N07149787WA0088900877001005133
B1528024228743N07149787WA0089400877001005133
B1528034228760N07149802WA0089400883001005133
B1528044228777N07149816WA0089900890001012132
B1528044228777N07149816WA0090400890001007132
B1528054228794N07149831WA0090700896001007133
B1528064228811N07149845WA0091000903001001134
B1528064228811N07149845WA0091600903001000134
B1528074228828N07149860WA0091900910001000135
B1528084228845N07149875WA0092300917001000135
B1528094228861N07149890WA0093100923001000134
B1528104228877N07149906WA0093700929001000130
B1528104228877N07149906WA0093900929001000130
B1528114228892N07149920WA0094300938001000119
B1528124228907N07149932WA0095500949001000108
B1528134228922N07149939WA0096300958001000101
B1528134228922N07149939WA0096900958001000101
B1528144228936N07149943WA0097200964001000096
B1528154228950N07149943WA0097500966001000094
B1528164228964N07149942WA0097900967001000094
B1528174228979N07149939WA0098300968001000096
B1528184228993N07149937WA0098500969001000097
B1528194229008N07149938WA0098600971001000097
B1528194229008N07149938WA0098600971001000097
B1528204229022N07149941WA0098700973001000098
B1528204229022N07149941WA0098800973001000098
B1528214229036N07149948WA0098900974001000099
B1528224229049N07149957WA0098900975001000101
B1528234229062N07149969WA0099000975001000103
B1528244229073N07149984WA0099100974001000104
B1528244229073N07149984WA0099100974001000104
B1528254229081N07150001WA0099100974001000105
B1528264229087N07150021WA0099100973001000106
B1528264229087N07150021WA0099100973001000106
B1528274229089N07150043WA0099100974001000108
B1528284229087N07150065WA0099100976001000110
B1528284229087N07150065WA0099300976001000110
B1528294229082N07150086WA0099300978001000111
B1528304229073N07150105WA0099500981001000112
B1528314229061N07150121WA0099600984001000112
B1528324229047N07150134WA0099900986001000112
B1528334229032N07150142WA0100200990001000111
B1528344229015N07150145WA0100400993001000110
B1528344229015N07150145WA0100900993001000110
B1528354228999N07150142WA0100900996001000109
B1528364228984N07150135WA0101100999001000108
B1528364228984N07150135WA0101500999001000108
B1528374228970N07150124WA0101601001001000106
B1528384228958N07150110WA0101701000001000106
B1528384228958N07150110WA0101801000001000106
B1528394228949N07150093WA0101900997001000104
B1528404228941N07150073WA0102000999001000108
B1528414228937N07150052WA0102101000001000109
B1528414228937N07150052WA0102201000001000109
B1528424228935N07150030WA0102201000001000109
B1528434228937N07150008WA0102201001001000108
B1528434228937N07150008WA0102201001001000108
B1528444228942N07149988WA0102301002001000107
B1528454228951N07149970WA0102401004001000105
B1528464228963N07149956WA0102501006001000103
B1528464228963N07149956WA0102501006001000103
B1528474228976N07149946WA0102601008001000102
B1528484228991N07149941WA0102801010001000102
B1528494229006N07149940WA0102901012001000101
B1528504229021N07149943WA0103201015001000101
B1528504229021N07149943WA0103201015001000101
B1528514229035N07149951WA0103301018001000100
B1528524229047N07149962WA0103401020001000099
B1528534229057N07149976WA0103601020001000099
B1528544229064N07149994WA0103701021001000099
B1528554229069N07150013WA0103801021001000101
B1528564229070N07150033WA0103901021001000104
B1528564229070N07150033WA0103901021001000104
B1528574229067N07150054WA0103901022001000107
B1528584229060N07150074WA0104001024001000108
B1528594229051N07150092WA0104101026001000108
B1529004229038N07150106WA0104301030001000106
B1529014229024N07150115WA0104501034001000104
B1529024229010N07150120WA0104801038001000102
B1529024229010N07150120WA0105101038001000102
B1529034228994N07150120WA0105101042001000102
B1529044228979N07150116WA0105401043001000102
B1529054228965N07150107WA0105701044001000105
B1529064228952N07150095WA0105801043001000106
B1529074228941N07150079WA0105801042001000109
B1529084228933N07150060WA0105801042001000111
B1529094228927N07150039WA0105801042001000114
B1529094228927N07150039WA0105701042001000114
B1529104228925N07150016WA0105701041001000115
B1529114228926N07149993WA0105701042001000115
B1529124228930N07149971WA0105701043001000113
B1529134228939N07149951WA0105801046001000111
B1529144228950N07149935WA0106001049001000108
B1529154228964N07149924WA0106401052001000106
B1529164228979N07149919WA0106601055001000104
B1529174228995N07149919WA0106901057001000104
B1529184229010N07149925WA0107101060001000102
B1529194229022N07149936WA0107301062001000101
B1529204229033N07149950WA0107501063001000100
B1529214229040N07149968WA0107701063001000101
B1529214229040N07149968WA0107801063001000101
F152922010306111214171924
B1529224229044N07149987WA0107801063001000102
B1529234229045N07150008WA0107901063001000104
B1529244229041N07150029WA0107801063001000105
B1529254229035N07150048WA0107901065001000106
B1529264229025N07150066WA0107901066001000107
B1529274229012N07150079WA0108101068001000107
B1529284228998N07150088WA0108301070001000107
B1529284228998N07150088WA0108301070001000107
B1529294228982N07150091WA0108401073001000107
B1529304228966N07150088WA0108601076001000108
B1529314228951N07150081WA0108901079001000108
B1529324228937N07150069WA0109101079001000110
B1529334228926N07150053WA0109201079001000111
B1529344228916N07150034WA0109301079001000112
B1529354228910N07150012WA0109301078001000114
B1529364228907N07149990WA0109301078001000114
B1529374228908N07149967WA0109301079001000114
B1529384228911N07149944WA0109401081001000113
B1529394228918N07149923WA0109501082001000111
B1529404228928N07149906WA0109601083001000109
B1529414228940N07149891WA0109701085001000108
B1529424228955N07149881WA0109801086001000107
B1529434228970N07149876WA0109901087001000106
B1529444228986N07149875WA0110101089001000105
B1529454229001N07149881WA0110201092001000103
B1529464229015N07149890WA0110401095001000101
B1529474229027N07149902WA0110601097001000099
B1529484229037N07149916WA0110901098001000099
B1529494229045N07149933WA0111101099001000100
B1529504229051N07149952WA0111201098001000102
B1529514229053N07149972WA0111301098001000104
B1529524229051N07149993WA0111301098001000105
B1529534229046N07150014WA0111401099001000107
B1529544229038N07150032WA0111401100001000108
B1529554229027N07150048WA0111401100001000109
B1529564229014N07150061WA0111501100001000109
B1529574228998N07150069WA0111501102001000109
B1529584228982N07150072WA0111601105001000109
B1529594228966N07150070WA0111801107001000109
B1530004228951N07150063WA0112001109001000110
B1530014228937N07150051WA0112201110001000112
B1530024228925N07150034WA0112401112001000113
B1530034228916N07150015WA0112501112001000114
B1530044228911N07149993WA0112601112001000115
B1530054228909N07149970WA0112601112001000115
B1530064228910N07149947WA0112601112001000116
B1530074228916N07149924WA0112601114001000116
B1530084228925N07149905WA0112701116001000114
B1530094228938N07149889WA0113001119001000111
B1530104228952N07149879WA0113101121001000108
B1530114228967N07149873WA0113301123001000106
B1530124228983N07149873WA0113501124001000104
B1530134228998N07149880WA0113701125001000102
B1530144229010N07149891WA0113801126001000101
B1530154229020N07149907WA0113901126001000101
B1530164229025N07149926WA0114001126001000102
B1530174229027N07149946WA0114001125001000104
B1530184229026N07149968WA0114001124001000107
B1530194229021N07149989WA0114001124001000108
B1530204229013N07150008WA0113901125001000109
B1530214229002N07150024WA0114001127001000108
B1530224228990N07150037WA0114101130001000106
F153023010306111214171924133
B1530234228975N07150046WA0114301133001000105
B1530244228960N07150050WA0114701137001000104
B1530254228945N07150049WA0114901139001000103
B1530264228930N07150044WA0115201142001000104
B1530264228930N07150044WA0115401142001000104
B1530274228916N07150034WA0115401144001000105
B1530284228903N07150020WA0115601146001000107
B1530294228894N07150002WA0115901147001000108
B1530304228889N07149982WA0116001148001000109
B1530314228887N07149960WA0116101148001000109
B1530324228890N07149939WA0116201148001000109
B1530334228897N07149919WA0116201148001000109
B1530344228908N07149903WA0116201149001000108
B1530354228922N07149891WA0116301151001000107
B1530364228937N07149886WA0116401153001000104
B1530374228952N07149887WA0116601154001000101
B1530384228967N07149892WA0116701154001000100
B1530394228979N07149903WA0116701155001000100
B1530404228990N07149918WA0116801154001000102
B1530414228998N07149936WA0116801153001000105
B1530424229001N07149957WA0116701151001000108
B1530434229001N07149979WA0116601150001000110
B1530444228996N07150001WA0116601151001000110
B1530454228987N07150019WA0116601154001000110
B1530464228975N07150034WA0116701158001000108
B1530474228960N07150044WA0117001163001000107
B1530484228945N07150049WA0117401167001000106
B1530494228929N07150049WA0117701169001000107
B1530504228913N07150044WA0117901172001000108
B1530514228899N07150034WA0118201174001000108
B1530524228887N07150020WA0118401176001000110
B1530534228878N07150001WA0118701177001000111
B1530544228872N07149980WA0118901178001000111
B1530554228869N07149958WA0118901179001000111
B1530564228871N07149936WA0119001179001000111
B1530574228876N07149915WA0119101180001000110
B1530584228885N07149897WA0119201180001000109
B1530594228898N07149882WA0119301181001000108
B1531004228912N07149873WA0119401183001000106
B1531014228928N07149870WA0119501185001000104
B1531024228943N07149871WA0119601186001000102
B1531034228958N07149877WA0119801187001000100
B1531044228970N07149888WA0120001189001000099
B1531054228981N07149903WA0120101190001000098
B1531064228988N07149919WA0120201192001000097
B1531074228992N07149938WA0120301192001000097
B1531084228993N07149958WA0120401193001000098
B1531094228991N07149977WA0120501193001000098
B1531104228986N07149996WA0120601194001000099
B1531114228977N07150013WA0120601195001000100
B1531124228965N07150026WA0120701197001000102
B1531134228952N07150036WA0120901200001000103
B1531144228937N07150041WA0121101203001000103
B1531154228921N07150041WA0121301207001000102
B1531164228906N07150036WA0121601209001000102
B1531174228892N07150027WA0121801210001000103
B1531184228880N07150014WA0122001211001000106
B1531194228870N07149997WA0122101212001000107
B1531204228863N07149977WA0122301213001000108
B1531214228859N07149956WA0122401215001000108
B1531224228859N07149935WA0122601216001000106
B1531234228863N07149914WA0122701216001000105
B1531244228870N07149895WA0122701215001000106
B1531244228870N07149895WA0122701215001000106
B1531254228881N07149879WA0122701215001000107
B1531264228893N07149866WA0122801214001000107
B1531274228908N07149858WA0122701215001000106
B1531284228924N07149856WA0122701216001000105
B1531294228939N07149859WA0122801218001000102
B1531304228953N07149867WA0122901220001000099
B1531314228965N07149878WA0123201223001000096
B1531324228974N07149893WA0123301224001000095
B1531334228981N07149910WA0123401225001000094
B1531344228985N07149928WA0123501224001000095
B1531354228986N07149947WA0123501222001000097
B1531364228983N07149967WA0123501222001000100
B1531374228978N07149986WA0123501223001000101
B1531384228970N07150004WA0123501225001000102
B1531394228960N07150019WA0123601227001000103
B1531404228948N07150033WA0123801229001000103
B1531414228935N07150044WA0124001233001000103
B1531424228920N07150050WA0124401235001000104
B1531434228904N07150051WA0124601236001000105
B1531444228889N07150046WA0124701237001000107
B1531454228874N07150037WA0124801237001000109
B1531464228861N07150024WA0124901237001000111
B1531474228850N07150007WA0124901237001000112
B1531474228850N07150007WA0124901237001000112
B1531484228841N07149988WA0124901237001000112
B1531494228836N07149966WA0124901239001000113
B1531504228833N07149944WA0125001240001000113
B1531514228835N07149921WA0125101241001000112
B1531524228839N07149899WA0125301244001000109
B1531534228847N07149880WA0125401246001000105
B1531544228857N07149864WA0125601248001000103
B1531554228869N07149852WA0125801249001000100
B1531564228883N07149845WA0125901250001000100
B1531574228898N07149843WA0126001250001000100
B1531584228913N07149846WA0126101249001000099
B1531594228926N07149854WA0126101249001000097
B1531594228926N07149854WA0126101249001000097
B1532004228938N07149865WA0126101249001000097
B1532014228948N07149879WA0126101249001000096
B1532024228957N07149895WA0126101249001000096
B1532034228962N07149913WA0126101248001000097
B1532044228965N07149932WA0126101248001000098
B1532054228965N07149952WA0126001248001000100
B1532054228965N07149952WA0126101248001000100
B1532064228962N07149972WA0126101249001000102
B1532074228956N07149991WA0126201252001000102
B1532084228948N07150008WA0126301255001000102
B1532094228936N07150022WA0126601257001000103
B1532104228922N07150032WA0126701258001000105
B1532114228907N07150038WA0126901259001000108
B1532124228891N07150040WA0127001261001000108
B1532134228875N07150036WA0127101263001000108
B1532144228860N07150029WA0127301264001000108
B1532154228846N07150017WA0127501265001000108
B1532164228835N07150001WA0127501265001000108
B1532174228825N07149983WA0127501263001000109
B1532184228818N07149963WA0127501263001000111
B1532184228818N07149963WA0127501263001000111
B1532194228814N07149941WA0127501264001000113
B1532204228814N07149918WA0127501266001000112
B1532214228816N07149896WA0127601267001000111
B1532224228823N07149876WA0127701268001000109
B1532234228831N07149857WA0127801269001000106
B1532244228842N07149842WA0128001270001000105
B1532254228855N07149830WA0128001270001000104
B1532264228869N07149822WA0128101270001000102
B1532274228884N07149819WA0128201270001000101
B1532284228899N07149821WA0128201269001000100
B1532294228914N07149828WA0128101267001000101
B1532304228926N07149839WA0128001265001000102
B1532314228937N07149854WA0127901264001000103
B1532324228946N07149871WA0127701265001000102
B1532334228951N07149890WA0127801266001000101
B1532344228954N07149909WA0127901269001000099
B1532354228953N07149929WA0128001271001000099
B1532364228948N07149948WA0128201273001000100
B1532374228940N07149966WA0128301274001000101
B1532384228930N07149981WA0128501275001000103
B1532394228917N07149993WA0128601276001000105
B1532404228902N07150001WA0128701277001000107
B1532414228887N07150005WA0128801278001000107
B1532424228871N07150005WA0128901279001000108
B1532434228855N07150000WA0129001280001000107
B1532444228840N07149992WA0129001281001000107
B1532454228826N07149980WA0129101282001000107
B1532464228815N07149965WA0129201282001000106
B1532474228805N07149948WA0129301281001000106
B1532484228798N07149929WA0129301281001000106
B1532494228793N07149909WA0129301282001000106
B1532494228793N07149909WA0129401282001000106
B1532504228790N07149887WA0129401284001000106
B1532514228789N07149866WA0129401284001000106
B1532524228790N07149844WA0129501285001000107
B1532534228792N07149823WA0129701285001000106
B1532544228798N07149803WA0129701286001000104
B1532554228806N07149786WA0129801286001000104
B1532564228817N07149771WA0129801285001000104
B1532574228830N07149760WA0129701284001000104
B1532584228845N07149754WA0129701283001000105
B1532594228861N07149753WA0129701282001000107
B1533004228877N07149759WA0129601281001000109
B1533014228891N07149769WA0129501281001000109
B1533014228891N07149769WA0129501281001000109
B1533024228903N07149784WA0129501281001000108
B1533034228912N07149802WA0129401281001000105
B1533044228917N07149822WA0129401283001000104
B1533054228918N07149843WA0129501284001000104
B1533064228916N07149863WA0129601287001000103
B1533074228909N07149882WA0129701289001000101
B1533084228899N07149897WA0130001292001000100
B1533094228887N07149909WA0130301294001000101
B1533104228872N07149916WA0130401294001000102
B1533114228857N07149919WA0130501294001000105
F153312010306111214171924
B1533124228841N07149917WA0130501294001000107
B1533134228826N07149910WA0130501294001000109
B1533144228812N07149898WA0130601295001000110
B1533154228801N07149882WA0130601297001000111
B1533164228792N07149862WA0130701298001000112
B1533174228788N07149841WA0130601298001000113
B1533184228786N07149818WA0130701296001000114
B1533194228790N07149795WA0130601295001000116
B1533204228797N07149774WA0130501295001000116
B1533214228807N07149755WA0130401294001000117
B1533224228820N07149739WA0130401295001000116
B1533234228836N07149729WA0130501298001000115
B1533244228853N07149726WA0130801301001000113
B1533254228869N07149728WA0131001305001000110
B1533264228884N07149736WA0131201308001000107
B1533274228897N07149748WA0131501309001000105
B1533284228908N07149764WA0131701309001000102
B1533294228915N07149782WA0131801309001000101
B1533304228919N07149802WA0131901310001000101
B1533314228919N07149822WA0132001311001000100
B1533324228916N07149842WA0132101314001000100
B1533334228909N07149860WA0132201316001000099
B1533344228899N07149875WA0132401318001000100
B1533354228887N07149887WA0132601320001000101
B1533364228873N07149895WA0132801320001000103
B1533374228857N07149898WA0132901321001000104
B1533384228842N07149897WA0132901321001000104
B1533394228827N07149891WA0133001323001000105
B1533404228812N07149882WA0133001323001000104
B1533414228800N07149870WA0133101323001000106
B1533424228789N07149854WA0133101324001000107
B1533434228780N07149835WA0133201325001000108
B1533444228774N07149815WA0133301326001000107
B1533454228772N07149794WA0133301326001000106
B1533464228772N07149773WA0133401326001000106
B1533474228775N07149752WA0133501326001000105
B1533484228782N07149732WA0133601326001000105
B1533494228791N07149715WA0133601326001000104
B1533504228803N07149702WA0133701328001000103
B1533514228817N07149692WA0133801329001000103
B1533524228832N07149688WA0134001331001000103
B1533534228847N07149688WA0134101333001000102
B1533544228862N07149694WA0134301334001000102
B1533554228876N07149703WA0134501336001000101
B1533564228887N07149716WA0134701338001000099
B1533574228896N07149732WA0134801339001000098
B1533584228902N07149750WA0134901339001000097
B1533594228905N07149769WA0134901337001000099
B1534004228905N07149789WA0134901337001000100
B1534004228905N07149789WA0134901337001000100
B1534014228901N07149809WA0134901337001000101
B1534024228893N07149826WA0134901338001000102
B1534034228881N07149840WA0134901340001000104
B1534044228867N07149848WA0135101341001000105
B1534044228867N07149848WA0135101341001000105
B1534054228851N07149852WA0135201342001000107
B1534064228835N07149849WA0135201342001000107
B1534074228820N07149841WA0135301343001000108
B1534084228807N07149828WA0135401345001000108
B1534094228797N07149811WA0135501347001000108
B1534104228790N07149791WA0135701348001000109
B1534114228786N07149770WA0135701347001000111
B1534124228785N07149747WA0135801346001000113
F153413010306111214171924133
B1534134228789N07149724WA0135801347001000113
B1534144228796N07149704WA0135801349001000111
B1534154228805N07149686WA0136101352001000108
B1534164228818N07149672WA0136301355001000106
B1534174228832N07149662WA0136601358001000104
B1534184228847N07149658WA0136901362001000103
B1534194228862N07149659WA0137201364001000102
B1534204228876N07149665WA0137501366001000100
B1534214228889N07149675WA0137701366001000099
B1534224228900N07149690WA0137801367001000099
B1534234228907N07149707WA0137901367001000099
B1534244228912N07149726WA0137901367001000098
B1534254228913N07149745WA0137901367001000097
B1534264228910N07149764WA0137901368001000097
B1534274228904N07149782WA0138001368001000098
B1534284228894N07149797WA0138001369001000100
B1534294228882N07149809WA0138101370001000102
B1534304228867N07149816WA0138201372001000103
B1534314228852N07149819WA0138201372001000104
B1534324228836N07149818WA0138301371001000105
B1534334228821N07149812WA0138301371001000107
B1534344228807N07149802WA0138301372001000108
B1534354228795N07149788WA0138401374001000108
B1534364228785N07149770WA0138501375001000108
B1534374228778N07149750WA0138601376001000108
B1534384228774N07149729WA0138701376001000108
B1534394228773N07149707WA0138701374001000110
B1534404228777N07149685WA0138601373001000111
B1534404228777N07149685WA0138601373001000111
B1534414228784N07149665WA0138601374001000110
B1534424228794N07149648WA0138701377001000107
B1534434228807N07149636WA0138901381001000103
B1534444228821N07149628WA0139101385001000099
B1534454228835N07149626WA0139401389001000097
B1534464228849N07149628WA0139701391001000095
B1534474228863N07149636WA0140101393001000095
B1534484228874N07149647WA0140201393001000095
B1534494228883N07149662WA0140301393001000095
B1534504228889N07149679WA0140301391001000096
B1534514228891N07149698WA0140301390001000097
B1534524228890N07149718WA0140301390001000098
B1534534228884N07149736WA0140301391001000098
B1534544228875N07149752WA0140301392001000098
B1534554228863N07149763WA0140401393001000099
B1534564228849N07149770WA0140401393001000100
B1534574228834N07149771WA0140401393001000101
B1534574228834N07149771WA0140401393001000101
B1534584228819N07149767WA0140401392001000104
B1534594228804N07149757WA0140401392001000108
B1535004228792N07149743WA0140301392001000110
B1535014228782N07149726WA0140301392001000111
B1535024228774N07149706WA0140301393001000111
B1535034228770N07149684WA0140301393001000111
B1535044228770N07149662WA0140401393001000111
B1535054228772N07149639WA0140401393001000110
B1535064228777N07149618WA0140501394001000110
B1535074228785N07149599WA0140501396001000109
B1535084228794N07149581WA0140601397001000107
B1535094228805N07149565WA0140701399001000106
B1535104228817N07149551WA0141001401001000106
B1535114228830N07149540WA0141301405001000104
B1535124228844N07149532WA0141601408001000100
B1535134228859N07149529WA0141801411001000098
B1535144228874N07149532WA0142001411001000097
B1535154228887N07149539WA0142101411001000099
B1535164228900N07149551WA0142201410001000100
B1535174228909N07149566WA0142201411001000100
B1535184228916N07149584WA0142301413001000098
B1535194228918N07149603WA0142401415001000096
B1535194228918N07149603WA0142401415001000096
B1535204228917N07149623WA0142501415001000096
B1535214228913N07149641WA0142501414001000097
F1535220103061114171924133
B1535224228905N07149658WA0142501414001000098
B1535234228894N07149672WA0142601414001000099
B1535244228881N07149682WA0142601415001000100
B1535244228881N07149682WA0142601415001000100
B1535254228867N07149687WA0142601415001000101
B1535264228851N07149688WA0142601415001000103
B1535274228836N07149684WA0142501413001000105
B1535284228821N07149675WA0142501412001000108
B1535294228808N07149663WA0142401412001000110
B1535294228808N07149663WA0142401412001000110
B1535304228796N07149647WA0142401413001000110
B1535314228786N07149630WA0142401415001000110
B1535324228778N07149610WA0142601417001000109
B1535324228778N07149610WA0142701417001000109
B1535334228773N07149590WA0142701419001000107
B1535344228771N07149568WA0142901421001000105
B1535354228772N07149547WA0143001422001000104
B1535364228776N07149527WA0143201424001000103
B1535364228776N07149527WA0143301424001000103
B1535374228782N07149508WA0143301426001000102
B1535384228791N07149492WA0143501428001000101
B1535394228802N07149477WA0143701429001000100
B1535404228814N07149467WA0143901430001000099
B1535414228828N07149460WA0144001430001000099
B1535414228828N07149460WA0144001430001000099
B1535424228843N07149458WA0144001430001000098
B1535434228857N07149461WA0144101431001000098
B1535444228871N07149468WA0144101432001000097
B1535444228871N07149468WA0144101432001000097
B1535454228883N07149479WA0144201432001000096
B1535464228893N07149493WA0144201433001000097
B1535474228900N07149511WA0144301433001000097
B1535484228904N07149529WA0144401434001000097
B1535494228904N07149549WA0144501434001000097
B1535504228900N07149568WA0144501435001000097
B1535514228892N07149585WA0144601436001000098
B1535514228892N07149585WA0144701436001000098
B1535524228881N07149598WA0144701438001000099
B1535534228868N07149608WA0144701438001000100
B1535544228853N07149613WA0144801438001000102
B1535554228838N07149614WA0144801437001000104
B1535554228838N07149614WA0144701437001000104
B1535564228822N07149610WA0144701437001000106
B1535574228808N07149602WA0144701436001000106
B1535574228808N07149602WA0144701436001000106
B1535584228794N07149591WA0144701434001000105
B1535584228794N07149591WA0144701434001000105
B1535594228783N07149576WA0144701430001000105
B1536004228774N07149559WA0144601427001000107
B1536014228767N07149539WA0144601425001000107
B1536024228763N07149517WA0144701428001000108
B1536034228763N07149496WA0144801432001000106
B1536044228765N07149475WA0145001435001000104
B1536054228770N07149455WA0145201437001000102
B1536064228778N07149437WA0145301439001000101
B1536074228787N07149422WA0145501439001000100
B1536084228799N07149409WA0145601440001000099
B1536094228812N07149400WA0145601441001000098
B1536104228826N07149394WA0145701442001000097
B1536114228840N07149391WA0145801443001000096
B1536124228855N07149393WA0145801444001000095
B1536134228868N07149397WA0145801443001000094
B1536144228881N07149406WA0145801442001000094
B1536154228892N07149417WA0145701441001000094
B1536164228901N07149432WA0145701441001000096
B1536174228907N07149449WA0145701443001000096
B1536184228911N07149468WA0145701445001000094
B1536194228912N07149486WA0145801447001000093
B1536204228910N07149505WA0146001449001000092
B1536214228906N07149522WA0146101450001000092
B1536224228899N07149538WA0146201450001000093
F153623010306111214171924133
B1536234228889N07149552WA0146201450001000095
B1536244228877N07149563WA0146201449001000098
B1536254228863N07149569WA0146201449001000100
B1536264228848N07149572WA0146101448001000102
B1536274228833N07149571WA0146101448001000103
B1536284228817N07149566WA0146001448001000104
B1536294228803N07149559WA0145901447001000105
B1536304228789N07149549WA0145901447001000106
B1536314228775N07149538WA0145801448001000106
B1536324228762N07149526WA0145801449001000105
B1536334228749N07149513WA0145901451001000104
B1536344228737N07149500WA0146001454001000102
B1536354228726N07149487WA0146201458001000100
B1536364228715N07149473WA0146401460001000098
B1536374228705N07149459WA0146701462001000096
B1536384228697N07149443WA0146901462001000097
B1536394228690N07149425WA0147001460001000100
B1536394228690N07149425WA0146901460001000100
B1536404228686N07149405WA0146901457001000104
B1536414228684N07149384WA0146801454001000107
B1536424228685N07149362WA0146601453001000110
B1536434228689N07149340WA0146401452001000110
B1536434228689N07149340WA0146301452001000110
B1536444228696N07149320WA0146301453001000107
B1536444228696N07149320WA0146401453001000107
B1536454228705N07149303WA0146401456001000102
B1536464228716N07149290WA0146401458001000099
B1536474228729N07149280WA0146601459001000097
B1536484228743N07149275WA0146701460001000094
B1536494228757N07149272WA0146901462001000093
B1536494228757N07149272WA0147001462001000093
B1536504228771N07149273WA0147001462001000092
B1536514228784N07149276WA0147001462001000093
B1536524228797N07149283WA0147101460001000094
B1536534228810N07149293WA0147001458001000096
B1536534228810N07149293WA0146901458001000096
B1536544228820N07149306WA0146901457001000098
B1536554228829N07149322WA0146901456001000099
B1536564228835N07149340WA0146801456001000098
B1536574228838N07149360WA0146701458001000097
B1536584228837N07149379WA0146801460001000096
B1536594228833N07149397WA0147001463001000095
B1537004228825N07149414WA0147201466001000095
B1537014228815N07149427WA0147401467001000097
B1537024228802N07149436WA0147501467001000099
B1537034228787N07149442WA0147601467001000100
B1537044228772N07149443WA0147701467001000102
B1537054228757N07149441WA0147601467001000103
B1537064228742N07149435WA0147701467001000104
B1537074228728N07149427WA0147701468001000104
B1537084228715N07149416WA0147601467001000104
B1537094228703N07149402WA0147601466001000105
B1537104228693N07149385WA0147501465001000106
B1537114228684N07149367WA0147401464001000107
B1537124228678N07149347WA0147401464001000108
B1537134228674N07149326WA0147301463001000109
B1537144228671N07149304WA0147201463001000109
B1537154228671N07149282WA0147101463001000109
B1537164228672N07149260WA0147101464001000108
B1537174228675N07149239WA0147101464001000106
B1537184228679N07149219WA0147201465001000103
B1537194228686N07149200WA0147201466001000101
B1537204228694N07149184WA0147301466001000099
B1537214228705N07149170WA0147401467001000098
B1537224228717N07149159WA0147501469001000096
B1537234228730N07149151WA0147701471001000094
F153724010306111214171924
B1537244228744N07149146WA0147901472001000094
B1537254228757N07149145WA0148101473001000093
B1537264228771N07149146WA0148201475001000093
B1537274228785N07149150WA0148401476001000093
B1537284228798N07149156WA0148501477001000093
B1537294228810N07149165WA0148701478001000092
B1537304228821N07149177WA0148701479001000091
B1537314228830N07149191WA0148801479001000090
B1537324228836N07149206WA0148901480001000089
B1537334228840N07149223WA0149001480001000088
B1537344228842N07149241WA0149101479001000089
B1537354228844N07149259WA0149001477001000090
B1537364228846N07149277WA0148801474001000093
B1537374228849N07149296WA0148501470001000097
B1537384228852N07149316WA0148201466001000103
B1537394228855N07149338WA0148001466001000107
B1537404228858N07149359WA0147901469001000106
B1537414228860N07149379WA0148001476001000099
B1537424228863N07149398WA0148501483001000091
B1537434228866N07149415WA0148701489001000083
B1537444228868N07149431WA0149401493001000079
B1537454228870N07149446WA0149701492001000079
B1537464228873N07149462WA0149801489001000082
B1537474228875N07149480WA0149601483001000089
B1537484228877N07149498WA0149301477001000096
B1537494228879N07149518WA0149001472001000103
B1537504228882N07149540WA0148701470001000107
B1537514228884N07149561WA0148401471001000106
B1537524228886N07149582WA0148301472001000104
B1537534228888N07149603WA0148201472001000103
B1537544228890N07149624WA0148201472001000103
B1537554228892N07149644WA0148201471001000104
B1537564228894N07149665WA0148201471001000105
B1537574228896N07149687WA0148201471001000106
B1537584228898N07149708WA0148201472001000105
B1537594228901N07149729WA0148201473001000105
B1538004228905N07149749WA0148301473001000104
B1538014228909N07149770WA0148301473001000104
B1538024228914N07149790WA0148301472001000105
B1538034228918N07149810WA0148301471001000107
B1538044228923N07149831WA0148201470001000108
B1538054228927N07149853WA0148001468001000110
B1538064228931N07149875WA0147901466001000111
B1538074228935N07149897WA0147801464001000112
B1538084228938N07149919WA0147601462001000113
B1538094228941N07149942WA0147401460001000114
B1538104228945N07149964WA0147201457001000115
B1538114228949N07149987WA0147001455001000116
B1538124228954N07150010WA0146801453001000117
B1538134228958N07150033WA0146501450001000118
B1538144228963N07150056WA0146301448001000119
B1538154228967N07150080WA0146101447001000120
B1538164228973N07150103WA0145901446001000120
B1538174228978N07150126WA0145901447001000119
B1538184228985N07150149WA0145901449001000118
B1538194228991N07150170WA0145901450001000115
B1538204228998N07150192WA0146001452001000113
B1538214229004N07150213WA0146101454001000111
B1538224229011N07150233WA0146201455001000110
B1538234229018N07150254WA0146301456001000111
B1538244229024N07150275WA0146501456001000113
F153825010306111214171924133
B1538254229032N07150296WA0146501456001000115
B1538264229039N07150317WA0146601458001000116
B1538274229047N07150337WA0146901462001000114
B1538284229056N07150357WA0147201469001000108
B1538294229064N07150375WA0147501476001000103
B1538304229073N07150391WA0148001481001000098
B1538314229081N07150407WA0148501486001000094
B1538324229088N07150423WA0149101489001000091
B1538334229093N07150440WA0149401490001000090
B1538344229096N07150458WA0149701489001000091
B1538354229097N07150476WA0149601487001000094
B1538364229095N07150495WA0149401485001000096
B1538374229089N07150514WA0149201485001000099
B1538384229080N07150530WA0149101485001000101
B1538394229069N07150543WA0149101486001000102
B1538404229055N07150553WA0149201487001000103
B1538414229040N07150558WA0149201487001000104
B1538424229024N07150560WA0149201487001000106
B1538434229009N07150557WA0149201487001000108
B1538444228993N07150549WA0149301487001000109
B1538454228980N07150536WA0149401487001000110
B1538464228970N07150519WA0149401487001000111
B1538474228961N07150500WA0149301486001000112
B1538484228955N07150479WA0149201483001000113
B1538494228951N07150456WA0148901481001000115
B1538504228951N07150433WA0148801478001000117
B1538514228955N07150409WA0148601478001000118
B1538524228961N07150387WA0148501480001000116
B1538534228970N07150367WA0148501483001000113
B1538544228980N07150350WA0148601486001000111
B1538554228992N07150334WA0148801488001000109
B1538564229005N07150320WA0149001491001000108
B1538574229018N07150308WA0149301494001000107
B1538584229032N07150298WA0149601497001000105
B1538594229046N07150291WA0149901501001000104
B1539004229062N07150288WA0150301504001000102
B1539014229077N07150291WA0150601507001000101
B1539024229091N07150299WA0150901509001000100
B1539034229103N07150311WA0151101510001000099
B1539044229112N07150326WA0151301510001000100
B1539054229119N07150344WA0151401509001000101
B1539064229123N07150364WA0151401509001000101
B1539074229122N07150384WA0151401509001000101
B1539084229117N07150403WA0151401511001000100
B1539094229108N07150419WA0151601513001000099
B1539104229097N07150432WA0151601515001000099
B1539114229083N07150440WA0151801517001000099
B1539124229069N07150444WA0151901518001000099
B1539134229054N07150442WA0152101518001000099
B1539144229039N07150437WA0152101518001000101
B1539154229026N07150427WA0152101516001000105
B1539164229014N07150412WA0152101516001000109
B1539174229004N07150394WA0152001517001000111
B1539184228997N07150374WA0151901518001000110
B1539194228993N07150353WA0152001520001000108
B1539204228993N07150331WA0152101521001000107
B1539214228995N07150310WA0152201523001000106
B1539224229001N07150290WA0152401525001000105
B1539234229010N07150273WA0152601527001000103
B1539244229021N07150260WA0152801530001000102
B1539254229035N07150251WA0153001532001000101
B1539264229050N07150246WA0153201535001000100
B1539274229065N07150247WA0153501538001000099
B1539284229079N07150251WA0153801540001000098
B1539294229092N07150260WA0154001542001000096
B1539304229103N07150273WA0154301544001000095
B1539314229111N07150289WA0154501546001000094
B1539324229116N07150306WA0154701546001000093
B1539334229118N07150325WA0154801546001000093
B1539344229117N07150343WA0154901546001000094
B1539354229113N07150362WA0154901546001000095
B1539364229105N07150378WA0154901547001000096
B1539374229095N07150392WA0155001547001000097
B1539384229083N07150403WA0155001547001000098
B1539394229070N07150411WA0155001547001000099
B1539404229055N07150415WA0155101547001000100
B1539414229040N07150415WA0155101546001000101
B1539424229025N07150411WA0155101546001000103
B1539434229011N07150402WA0155001547001000103
B1539444228999N07150390WA0155101549001000102
B1539454228989N07150374WA0155101550001000102
B1539464228982N07150356WA0155201550001000102
B1539464228982N07150356WA0155201550001000102
B1539474228977N07150336WA0155201549001000103
B1539484228975N07150316WA0155201548001000104
B1539494228977N07150295WA0155201548001000105
B1539504228981N07150274WA0155201548001000105
B1539514228989N07150256WA0155201550001000105
F1539520103061112171924133
B1539524229000N07150241WA0155401553001000104
B1539534229013N07150230WA0155601556001000103
B1539544229028N07150223WA0155901560001000100
B1539554229043N07150220WA0156301563001000097
B1539564229057N07150222WA0156601566001000096
B1539574229071N07150226WA0156801568001000094
B1539584229084N07150234WA0157001569001000094
B1539594229095N07150245WA0157101569001000094
B1540004229105N07150259WA0157301569001000095
B1540014229113N07150275WA0157301569001000096
B1540024229119N07150293WA0157301568001000096
B1540034229122N07150311WA0157201569001000095
B1540044229122N07150330WA0157201570001000094
B1540054229119N07150349WA0157301571001000092
B1540064229114N07150366WA0157401572001000091
B1540074229106N07150381WA0157501572001000091
B1540084229095N07150393WA0157501571001000093
B1540094229083N07150403WA0157501568001000096
B1540094229083N07150403WA0157201568001000096
B1540104229070N07150410WA0157201565001000099
B1540114229055N07150414WA0157101564001000101
B1540124229040N07150415WA0156901563001000102
B1540134229024N07150413WA0156801563001000103
B1540144229009N07150408WA0156801564001000103
B1540154228995N07150400WA0156801566001000103
B1540164228981N07150390WA0156901566001000103
B1540174228969N07150378WA0156901567001000103
B1540184228958N07150363WA0157001567001000102
B1540194228948N07150347WA0157001568001000102
B1540204228940N07150330WA0157201568001000102
B1540214228934N07150311WA0157301567001000102
B1540224228930N07150291WA0157301565001000104
B1540234228928N07150270WA0157401563001000106
B1540244228929N07150248WA0157201562001000109
B1540254228933N07150227WA0157201563001000109
B1540264228940N07150207WA0157201565001000107
B1540274228950N07150190WA0157401568001000105
B1540284228962N07150177WA0157501571001000102
B1540294228976N07150168WA0157701575001000099
B1540304228990N07150164WA0158101578001000097
B1540314229004N07150165WA0158301580001000095
B1540324229018N07150170WA0158501580001000095
B1540334229030N07150179WA0158701580001000095
B1540344229041N07150193WA0158701579001000096
B1540354229049N07150209WA0158801578001000097
B1540364229054N07150227WA0158901579001000097
B1540374229056N07150246WA0159001580001000096
B1540384229058N07150265WA0159001581001000094
B1540394229060N07150284WA0159001582001000092
B1540404229062N07150302WA0159001583001000091
B1540414229066N07150320WA0158901581001000092
B1540424229070N07150338WA0158801578001000095
B1540434229075N07150357WA0158601574001000098
B1540444229080N07150376WA0158401569001000102
B1540454229085N07150396WA0158001563001000106
B1540464229091N07150416WA0157601557001000110
B1540464229091N07150416WA0157101557001000110
B1540474229097N07150438WA0157101552001000115
B1540484229103N07150460WA0156401548001000118
B1540494229109N07150483WA0156001544001000122
B1540504229115N07150507WA0155701540001000126
B1540514229121N07150532WA0155201537001000128
B1540524229127N07150557WA0154901535001000130
F154053010306111214171924133
B1540534229133N07150582WA0154701534001000130
B1540544229139N07150607WA0154401533001000131
B1540554229145N07150632WA0154301533001000131
B1540564229151N07150657WA0154301533001000130
B1540574229158N07150682WA0154301535001000129
B1540584229164N07150707WA0154301537001000128
B1540594229171N07150731WA0154401538001000127
B1541004229177N07150756WA0154601539001000126
B1541014229183N07150780WA0154601539001000126
B1541024229189N07150804WA0154601538001000126
B1541034229195N07150828WA0154601537001000126
B1541044229200N07150853WA0154501535001000126
B1541054229206N07150877WA0154401533001000127
B1541064229211N07150902WA0154201530001000128
B1541074229216N07150927WA0154001528001000129
B1541084229220N07150953WA0153901525001000129
B1541094229225N07150978WA0153601523001000130
B1541104229229N07151004WA0153301521001000131
B1541114229234N07151030WA0153001518001000132
B1541124229238N07151056WA0152801516001000134
B1541134229244N07151083WA0152601514001000135
B1541144229249N07151109WA0152401511001000137
B1541154229255N07151136WA0152201509001000139
B1541154229255N07151136WA0152001509001000139
B1541164229260N07151164WA0152001506001000140
B1541174229265N07151191WA0151801504001000141
B1541184229270N07151219WA0151601503001000141
B1541194229275N07151247WA0151501503001000142
B1541204229280N07151275WA0151501503001000141
B1541214229286N07151302WA0151401503001000139
B1541224229291N07151329WA0151301503001000138
B1541234229297N07151356WA0151301502001000137
B1541244229303N07151382WA0151201501001000136
B1541254229309N07151409WA0151001499001000136
B1541264229315N07151435WA0150901497001000137
B1541274229322N07151461WA0150801496001000136
B1541284229328N07151487WA0150701496001000135
B1541294229335N07151513WA0150601495001000135
B1541304229343N07151538WA0150501495001000133
B1541314229350N07151563WA0150501495001000131
B1541324229357N07151588WA0150501496001000129
B1541334229365N07151612WA0150501497001000127
B1541344229372N07151635WA0150601498001000126
B1541354229379N07151659WA0150601498001000125
B1541364229387N07151682WA0150601496001000124
B1541374229394N07151705WA0150501493001000125
B1541384229402N07151728WA0150401490001000127
B1541394229410N07151752WA0150001486001000128
B1541404229418N07151776WA0149801483001000130
B1541414229425N07151800WA0149601482001000130
B1541424229432N07151825WA0149401481001000130
B1541434229439N07151849WA0149201479001000130
B1541444229446N07151874WA0149101478001000131
B1541454229453N07151899WA0149001479001000131
B1541464229460N07151924WA0148901480001000130
B1541474229467N07151948WA0148901480001000128
B1541484229474N07151972WA0148901481001000127
B1541494229482N07151995WA0148901481001000126
B1541504229490N07152018WA0149001482001000124
B1541514229498N07152040WA0149001483001000122
B1541524229506N07152062WA0149101482001000120
B1541534229514N07152083WA0149101481001000119
B1541544229522N07152105WA0149101479001000119
B1541554229531N07152126WA0148901475001000119
B1541564229539N07152147WA0148701471001000121
B1541574229548N07152169WA0148301466001000123
B1541584229558N07152191WA0148001462001000126
B1541594229568N07152213WA0147401457001000129
B1542004229578N07152236WA0147101452001000131
B1542014229588N07152259WA0146701449001000133
B1542024229599N07152282WA0146401447001000135
B1542034229611N07152304WA0146101447001000135
B1542044229623N07152326WA0146001447001000135
B1542054229636N07152347WA0146001445001000136
B1542064229650N07152367WA0146001445001000138
B1542074229664N07152388WA0146001446001000137
B1542084229677N07152409WA0145901447001000136
B1542094229689N07152431WA0145901447001000135
B1542104229702N07152452WA0145901447001000135
B1542104229702N07152452WA0146001447001000135
B1542114229714N07152474WA0146001448001000136
B1542124229726N07152496WA0146001451001000134
B1542134229738N07152517WA0146301457001000129
B1542144229750N07152537WA0146701467001000120
B1542154229760N07152555WA0147401477001000111
B1542164229770N07152572WA0148101484001000105
B1542174229780N07152588WA0148701489001000099
B1542184229790N07152602WA0149401492001000095
B1542194229800N07152615WA0149701492001000093
B1542204229811N07152626WA0149901490001000093
B1542214229823N07152636WA0149901487001000096
B1542224229837N07152645WA0149801484001000101
B1542234229851N07152652WA0149601483001000105
B1542244229867N07152657WA0149501484001000106
B1542254229882N07152661WA0149601486001000105
B1542264229898N07152665WA0149601487001000105
B1542274229913N07152667WA0149701489001000105
B1542284229929N07152670WA0149801489001000104
B1542294229945N07152672WA0149801488001000104
B1542304229960N07152674WA0149801486001000106
B1542314229976N07152675WA0149701482001000109
B1542324229993N07152677WA0149501478001000112
B1542324229993N07152677WA0149401478001000112
B1542334230010N07152680WA0149201477001000115
B1542344230027N07152683WA0149001476001000115
B1542354230044N07152686WA0148801476001000115
B1542354230044N07152686WA0148801476001000115
B1542364230061N07152689WA0148801476001000114
B1542374230078N07152691WA0148701475001000114
B1542384230095N07152693WA0148601474001000114
B1542394230113N07152694WA0148601474001000114
B1542404230130N07152696WA0148401472001000114
B1542414230147N07152697WA0148301470001000116
B1542424230164N07152698WA0148201467001000117
B1542434230182N07152700WA0147901464001000118
B1542434230182N07152700WA0147601464001000118
B1542444230200N07152702WA0147601459001000121
B1542454230218N07152704WA0147201454001000124
B1542464230237N07152706WA0146701449001000127
B1542474230256N07152709WA0146401445001000129
B1542484230276N07152712WA0146201443001000130
B1542494230295N07152716WA0145801443001000128
B1542504230314N07152719WA0145601442001000126
B1542514230332N07152724WA0145501442001000125
B1542514230332N07152724WA0145301442001000125
B1542524230351N07152729WA0145301440001000124
B1542534230369N07152734WA0145201438001000124
B1542544230387N07152740WA0145001436001000124
B1542554230405N07152747WA0144801433001000125
B1542564230423N07152755WA0144701430001000126
B1542564230423N07152755WA0144501430001000126
B1542574230440N07152764WA0144401428001000127
B1542574230440N07152764WA0144101428001000127
B1542584230458N07152774WA0144101425001000128
B1542594230475N07152786WA0144001423001000129
B1542594230475N07152786WA0143801423001000129
B1543004230492N07152799WA0143701422001000130
B1543014230509N07152812WA0143601422001000130
B1543024230525N07152826WA0143601424001000128
B1543024230525N07152826WA0143601424001000128
B1543034230541N07152839WA0143601425001000126
B1543034230541N07152839WA0143701425001000126
B1543044230557N07152853WA0143701427001000124
B1543054230573N07152866WA0143701426001000123
B1543064230588N07152880WA0143701425001000122
B1543064230588N07152880WA0143801425001000122
B1543074230604N07152893WA0143801424001000122
B1543084230619N07152906WA0143701424001000122
B1543084230619N07152906WA0143701424001000122
B1543094230635N07152919WA0143701423001000122
B1543104230651N07152931WA0143601424001000121
B1543114230666N07152944WA0143601425001000120
B1543124230681N07152956WA0143701426001000119
B1543134230696N07152969WA0143801428001000117
B1543134230696N07152969WA0143901428001000117
B1543144230711N07152982WA0143901429001000116
B1543154230726N07152995WA0144001429001000116
B1543154230726N07152995WA0144001429001000116
B1543164230740N07153008WA0144001428001000117
B1543174230755N07153021WA0144001426001000119
B1543184230770N07153033WA0144001423001000121
B1543194230786N07153046WA0143801421001000124
B1543194230786N07153046WA0143501421001000124
B1543204230802N07153059WA0143501419001000125
B1543214230818N07153072WA0143401418001000125
B1543214230818N07153072WA0143301418001000125
B1543224230834N07153085WA0143201418001000124
B1543234230850N07153098WA0143201418001000123
B1543234230850N07153098WA0143101418001000123
B1543244230865N07153111WA0143101419001000122
B1543254230880N07153126WA0143201420001000121
B1543254230880N07153126WA0143201420001000121
B1543264230895N07153140WA0143201420001000119
B1543274230909N07153154WA0143201420001000118
B1543284230924N07153168WA0143201420001000118
B1543294230938N07153181WA0143201420001000118
B1543304230953N07153195WA0143201419001000118
B1543304230953N07153195WA0143201419001000118
B1543314230968N07153208WA0143101417001000119
B1543314230968N07153208WA0143101417001000119
B1543324230983N07153221WA0143101417001000120
B1543334230997N07153235WA0143001416001000120
B1543334230997N07153235WA0142901416001000120
B1543344231012N07153250WA0142901414001000121
B1543354231027N07153264WA0142801412001000122
B1543354231027N07153264WA0142601412001000122
B1543364231041N07153279WA0142601410001000123
B1543374231056N07153294WA0142501409001000123
B1543384231071N07153309WA0142401410001000121
B1543384231071N07153309WA0142401410001000121
B1543394231085N07153323WA0142301410001000119
B1543394231085N07153323WA0142301410001000119
B1543404231100N07153338WA0142301411001000118
B1543414231114N07153351WA0142301411001000117
B1543424231128N07153365WA0142301409001000117
B1543424231128N07153365WA0142201409001000117
B1543434231143N07153378WA0142101407001000118
B1543444231158N07153391WA0142001403001000120
B1543444231158N07153391WA0141701403001000120
B1543454231174N07153404WA0141701400001000122
B1543464231190N07153416WA0141501396001000124
B1543474231206N07153429WA0141201393001000125
B1543474231206N07153429WA0141201393001000125
B1543474231206N07153429WA0140901393001000125
B1543484231222N07153442WA0140801391001000125
B1543494231239N07153455WA0140601389001000126
B1543494231239N07153455WA0140501389001000126
B1543504231255N07153468WA0140501387001000125
B1543514231270N07153482WA0140301386001000125
B1543514231270N07153482WA0140101386001000125
B1543524231286N07153495WA0140101384001000124
B1543534231302N07153508WA0140001383001000124
B1543534231302N07153508WA0139801383001000124
B1543544231318N07153521WA0139701381001000125
B1543554231335N07153532WA0139501380001000125
B1543564231352N07153544WA0139401378001000125
B1543574231368N07153555WA0139301378001000124
B1543584231385N07153565WA0139201377001000123
B1543594231402N07153576WA0139101375001000123
B1544004231419N07153586WA0138901373001000124
B1544014231436N07153596WA0138801371001000124
B1544024231454N07153605WA0138501368001000126
B1544034231471N07153614WA0138401366001000127
B1544044231490N07153622WA0138101364001000128
B1544044231490N07153622WA0137901364001000128
B1544054231508N07153630WA0137901362001000129
B1544064231527N07153637WA0137701358001000130
B1544074231546N07153643WA0137301354001000131
B1544084231565N07153648WA0137001350001000132
B1544094231585N07153652WA0136701346001000134
B1544094231585N07153652WA0136401346001000134
B1544104231605N07153657WA0136401344001000136
B1544114231625N07153662WA0136101344001000135
B1544114231625N07153662WA0136101344001000135
B1544124231645N07153666WA0136101346001000135
B1544134231665N07153670WA0136101350001000133
B1544144231685N07153671WA0136301354001000129
B1544154231704N07153672WA0136501357001000127
B1544154231704N07153672WA0136801357001000127
B1544164231722N07153671WA0137001361001000123
B1544164231722N07153671WA0137301361001000123
B1544174231740N07153669WA0137301366001000118
B1544184231758N07153668WA0137601370001000114
B1544184231758N07153668WA0137901370001000114
B1544194231775N07153667WA0138001373001000112
B1544204231791N07153666WA0138201374001000110
B1544214231808N07153667WA0138401372001000111
B1544214231808N07153667WA0138401372001000111
B1544224231825N07153669WA0138401369001000113
B1544234231842N07153671WA0138301366001000117
B1544234231842N07153671WA0138201366001000117
B1544244231859N07153674WA0138101364001000119
B1544254231877N07153677WA0138101364001000120
B1544264231895N07153679WA0138001367001000117
B1544264231895N07153679WA0138001367001000117
B1544274231912N07153680WA0138101370001000113
B1544274231912N07153680WA0138201370001000113
B1544284231929N07153680WA0138201373001000110
B1544294231945N07153679WA0138401375001000107
B1544304231961N07153678WA0138501374001000106
B1544314231977N07153676WA0138501373001000107
B1544314231977N07153676WA0138501373001000107
F154432010306111214171924
B1544324231993N07153673WA0138501370001000108
B1544334232009N07153671WA0138401365001000110
B1544344232026N07153669WA0138101361001000113
B1544354232043N07153669WA0137901358001000115
B1544364232060N07153670WA0137501355001000117
B1544364232060N07153670WA0137301355001000117
B1544374232078N07153673WA0137201353001000118
B1544384232095N07153676WA0137001351001000119
B1544384232095N07153676WA0136701351001000119
B1544394232113N07153680WA0136701349001000119
B1544404232131N07153683WA0136501348001000119
B1544404232131N07153683WA0136401348001000119
B1544414232149N07153686WA0136401350001000117
B1544424232166N07153689WA0136401351001000114
B1544434232182N07153692WA0136401352001000111
B1544444232199N07153696WA0136301350001000110
B1544444232199N07153696WA0136201350001000110
B1544454232215N07153702WA0136201346001000112
B1544464232231N07153709WA0136001342001000115
B1544464232231N07153709WA0135801342001000115
B1544474232247N07153718WA0135801338001000119
B1544484232264N07153727WA0135601335001000123
B1544484232264N07153727WA0135201335001000123
B1544494232281N07153736WA0135201335001000123
B1544494232281N07153736WA0135101335001000123
B1544504232298N07153746WA0135001336001000122
B1544514232315N07153755WA0135001337001000121
B1544514232315N07153755WA0135001337001000121
B1544524232332N07153764WA0135001338001000119
B1544534232348N07153773WA0135101339001000118
B1544544232365N07153782WA0135201338001000118
B1544544232365N07153782WA0135201338001000118
B1544554232381N07153791WA0135201337001000119
B1544554232381N07153791WA0135101337001000119
B1544564232398N07153799WA0135101335001000120
B1544574232415N07153808WA0135001333001000121
B1544584232432N07153817WA0134901329001000123
B1544594232450N07153825WA0134701326001000124
B1545004232467N07153834WA0134501324001000124
B1545004232467N07153834WA0134201324001000124
B1545014232484N07153843WA0134101322001000123
B1545024232502N07153852WA0134001320001000123
B1545034232519N07153862WA0133801319001000122
B1545044232535N07153871WA0133601316001000122
B1545054232552N07153882WA0133301314001000121
B1545054232552N07153882WA0133301314001000121
B1545064232568N07153892WA0133101312001000121
B1545064232568N07153892WA0132901312001000121
B1545074232585N07153903WA0132901310001000120
B1545084232601N07153914WA0132601307001000120
B1545084232601N07153914WA0132401307001000120
B1545094232617N07153925WA0132401304001000120
B1545104232633N07153936WA0132201302001000120
B1545114232649N07153946WA0132001300001000120
B1545124232665N07153956WA0131801298001000120
B1545134232682N07153966WA0131601296001000119
B1545144232699N07153975WA0131201293001000120
B1545144232699N07153975WA0131201293001000120
B1545154232715N07153983WA0131001291001000119
B1545164232732N07153992WA0130801290001000119
B1545174232749N07154000WA0130701288001000119
B1545184232766N07154008WA0130501285001000119
B1545184232766N07154008WA0130301285001000119
B1545194232782N07154016WA0130201282001000119
B1545204232799N07154024WA0130101279001000119
B1545214232816N07154032WA0129801277001000121
B1545224232833N07154041WA0129601276001000121
B1545224232833N07154041WA0129401276001000121
B1545234232850N07154050WA0129301275001000121
B1545244232867N07154059WA0129201275001000120
B1545244232867N07154059WA0129101275001000120
B1545254232884N07154068WA0129101274001000120
B1545264232901N07154077WA0129001273001000121
B1545274232918N07154085WA0128901271001000121
B1545274232918N07154085WA0128901271001000121
B1545284232935N07154093WA0128801270001000122
B1545284232935N07154093WA0128701270001000122
B1545294232953N07154100WA0128701268001000123
B1545304232970N07154108WA0128601265001000123
B1545314232988N07154114WA0128301262001000124
B1545324233006N07154121WA0128101261001000124
B1545324233006N07154121WA0127901261001000124
F154533010306111214171924133
B1545334233024N07154127WA0127801260001000124
B1545344233042N07154133WA0127701259001000125
B1545344233042N07154133WA0127601259001000125
B1545354233061N07154139WA0127601258001000124
B1545364233079N07154145WA0127501256001000124
B1545364233079N07154145WA0127401256001000124
B1545374233097N07154151WA0127401255001000123
B1545384233114N07154158WA0127301255001000122
B1545384233114N07154158WA0127201255001000122
B1545394233132N07154166WA0127201254001000122
B1545404233149N07154173WA0127201254001000121
B1545414233166N07154182WA0127101253001000120
B1545424233183N07154190WA0127101252001000119
B1545434233200N07154198WA0126901250001000120
B1545444233217N07154206WA0126601245001000121
B1545444233217N07154206WA0126601245001000121
B1545454233234N07154214WA0126301241001000123
B1545454233234N07154214WA0126201241001000123
B1545464233252N07154222WA0126201236001000126
B1545474233270N07154229WA0125801233001000128
B1545474233270N07154229WA0125401233001000128
B1545484233289N07154237WA0125401232001000128
B1545494233307N07154243WA0125201232001000126
B1545504233325N07154250WA0125001232001000125
B1545514233343N07154256WA0125001232001000124
B1545514233343N07154256WA0124901232001000124
B1545524233361N07154262WA0124901231001000123
B1545534233379N07154269WA0124901231001000123
B1545544233397N07154276WA0124901231001000123
B1545554233414N07154283WA0124801231001000123
B1545554233414N07154283WA0124801231001000123
B1545564233432N07154292WA0124801231001000124
B1545574233450N07154300WA0124901232001000125
B1545584233467N07154308WA0125001237001000123
B1545594233484N07154316WA0125401244001000115
B1545594233484N07154316WA0125801244001000115
B1546004233500N07154323WA0126101253001000108
B1546014233515N07154330WA0126401261001000102
B1546024233529N07154335WA0127001266001000099
B1546034233544N07154339WA0127501269001000100
B1546044233559N07154338WA0128001272001000101
B1546044233559N07154338WA0128201272001000101
B1546054233573N07154333WA0128201275001000102
B1546064233587N07154325WA0128401278001000102
B1546064233587N07154325WA0128601278001000102
B1546074233600N07154313WA0128701279001000103
B1546084233610N07154297WA0128801280001000104
B1546084233610N07154297WA0128901280001000104
B1546094233618N07154279WA0129001280001000106
B1546104233623N07154258WA0129101280001000108
B1546114233624N07154236WA0129101280001000110
B1546124233623N07154214WA0129101281001000111
B1546134233618N07154192WA0129101283001000110
B1546144233611N07154173WA0129201286001000107
B1546154233601N07154157WA0129401289001000103
B1546164233589N07154144WA0129601292001000098
B1546174233576N07154135WA0130001295001000094
B1546184233563N07154130WA0130101296001000091
B1546194233550N07154129WA0130301297001000089
B1546194233550N07154129WA0130401297001000089
B1546204233536N07154131WA0130401296001000087
B1546214233524N07154137WA0130401295001000086
B1546224233513N07154146WA0130501294001000086
B1546234233504N07154158WA0130401294001000084
B1546244233497N07154172WA0130401295001000082
B1546254233493N07154187WA0130401296001000080
B1546264233491N07154203WA0130501298001000078
B1546274233492N07154219WA0130601300001000078
B1546284233496N07154234WA0130701301001000077
B1546294233502N07154247WA0130801302001000078
B1546304233510N07154259WA0131001303001000081
B1546314233520N07154270WA0131101304001000084
B1546324233531N07154279WA0131201306001000086
B1546334233543N07154285WA0131401309001000087
B1546344233555N07154290WA0131601312001000086
B1546354233568N07154292WA0131801316001000086
B1546364233581N07154290WA0132101318001000087
B1546364233581N07154290WA0132301318001000087
B1546374233593N07154283WA0132401319001000089
B1546384233604N07154273WA0132501320001000092
B1546394233614N07154259WA0132701319001000096
B1546404233621N07154241WA0132801318001000100
B1546414233624N07154221WA0132801317001000103
F1546420103061114171924133
B1546424233625N07154200WA0132701316001000106
B1546434233621N07154179WA0132601315001000109
B1546444233615N07154158WA0132401315001000110
B1546454233605N07154141WA0132401316001000108
B1546464233593N07154127WA0132501318001000104
B1546474233579N07154119WA0132601321001000099
B1546484233565N07154116WA0132701323001000093
B1546494233551N07154118WA0132901324001000088
B1546504233539N07154125WA0133101325001000086
B1546514233529N07154135WA0133201325001000084
B1546524233521N07154148WA0133301326001000082
B1546534233516N07154162WA0133301327001000081
B1546544233513N07154178WA0133401327001000080
B1546554233513N07154194WA0133501328001000081
B1546564233515N07154211WA0133601329001000083
B1546574233521N07154226WA0133701332001000084
B1546574233521N07154226WA0133701332001000084
B1546584233528N07154240WA0133901335001000084
B1546594233537N07154252WA0134201339001000082
B1547004233546N07154262WA0134501344001000080
B1547014233556N07154270WA0134801347001000078
B1547024233567N07154275WA0135101350001000078
B1547034233579N07154276WA0135401351001000080
B1547044233591N07154274WA0135601350001000084
B1547054233604N07154269WA0135701348001000090
B1547054233604N07154269WA0135601348001000090
B1547064233616N07154259WA0135601346001000097
B1547074233627N07154245WA0135501344001000103
B1547084233636N07154227WA0135401343001000108
B1547094233642N07154207WA0135401345001000110
B1547104233644N07154184WA0135401348001000109
B1547114233643N07154163WA0135601352001000107
B1547124233638N07154142WA0135801356001000104
B1547134233632N07154123WA0136001358001000102
B1547144233623N07154107WA0136301358001000101
B1547154233612N07154093WA0136401358001000100
B1547164233599N07154082WA0136501358001000099
B1547174233585N07154076WA0136501358001000097
B1547184233571N07154075WA0136601359001000094
B1547194233557N07154078WA0136601359001000092
B1547204233545N07154085WA0136701359001000090
B1547214233535N07154097WA0136701360001000089
B1547224233527N07154111WA0136801360001000088
B1547234233522N07154128WA0136901362001000087
B1547244233521N07154145WA0137001365001000086
B1547244233521N07154145WA0137001365001000086
B1547254233523N07154162WA0137101369001000084
B1547264233528N07154178WA0137401373001000082
B1547274233535N07154191WA0137701377001000080
B1547284233544N07154201WA0138001380001000079
B1547294233554N07154209WA0138301383001000079
B1547304233566N07154214WA0138601384001000080
B1547314233578N07154216WA0138901384001000084
B1547324233591N07154214WA0139001383001000088
B1547334233604N07154208WA0139001381001000095
B1547344233617N07154198WA0139001379001000101
B1547354233628N07154184WA0138901379001000105
B1547364233637N07154166WA0138701379001000109
B1547374233644N07154146WA0138701381001000110
B1547384233647N07154124WA0138801383001000110
B1547394233647N07154101WA0138901385001000110
B1547404233644N07154079WA0139001386001000111
B1547414233638N07154059WA0139101388001000110
B1547424233630N07154040WA0139301389001000109
F154743010306111214171924133
B1547434233619N07154023WA0139501390001000107
B1547444233607N07154010WA0139601391001000105
B1547454233593N07153999WA0139701392001000102
B1547464233579N07153993WA0139801393001000098
B1547474233565N07153991WA0139901396001000092
B1547484233551N07153993WA0140001397001000088
B1547494233539N07153998WA0140301398001000086
B1547504233528N07154007WA0140401398001000085
B1547514233519N07154019WA0140501398001000085
B1547524233512N07154034WA0140601397001000084
B1547534233508N07154050WA0140601397001000085
B1547544233507N07154068WA0140601398001000086
B1547554233509N07154085WA0140601401001000086
B1547564233513N07154101WA0140801405001000084
B1547574233518N07154117WA0141001409001000082
B1547584233525N07154131WA0141301413001000080
B1547594233532N07154143WA0141601416001000079
B1548004233542N07154152WA0142001419001000078
B1548014233553N07154159WA0142301420001000080
B1548024233565N07154162WA0142601420001000084
B1548034233578N07154161WA0142701419001000088
B1548044233591N07154156WA0142601417001000094
B1548054233603N07154146WA0142501416001000099
B1548064233614N07154132WA0142401415001000103
B1548074233623N07154114WA0142401416001000106
B1548084233628N07154093WA0142301416001000108
B1548094233629N07154071WA0142401417001000110
B1548104233627N07154049WA0142401419001000110
B1548114233621N07154029WA0142501420001000109
B1548124233612N07154011WA0142601422001000107
B1548134233600N07153996WA0142701422001000107
B1548144233587N07153984WA0142701422001000106
B1548154233572N07153976WA0142801422001000104
B1548164233557N07153973WA0142801422001000101
B1548174233542N07153975WA0142901424001000098
B1548184233529N07153981WA0143001425001000094
B1548194233517N07153992WA0143101427001000090
B1548204233509N07154005WA0143201430001000086
B1548214233503N07154021WA0143401432001000083
B1548224233502N07154037WA0143601434001000081
B1548234233503N07154053WA0143901436001000080
B1548244233508N07154068WA0144101437001000081
B1548254233516N07154081WA0144201439001000082
B1548264233526N07154091WA0144401440001000083
B1548274233537N07154097WA0144501442001000084
B1548284233550N07154100WA0144701443001000087
B1548294233563N07154099WA0144901444001000091
B1548304233577N07154093WA0144901445001000095
B1548314233590N07154083WA0145101445001000100
B1548324233601N07154070WA0145101444001000103
B1548324233601N07154070WA0145101444001000103
B1548334233610N07154052WA0145101444001000106
B1548344233616N07154032WA0145101444001000109
B1548354233619N07154010WA0145001444001000111
B1548364233618N07153987WA0145001445001000113
B1548374233612N07153966WA0145001446001000113
B1548384233604N07153946WA0145101446001000113
B1548394233592N07153930WA0145201447001000111
B1548404233578N07153918WA0145201448001000108
B1548414233563N07153911WA0145301449001000103
B1548424233548N07153908WA0145401451001000098
B1548434233534N07153910WA0145501453001000093
B1548444233521N07153916WA0145701455001000089
B1548454233510N07153925WA0145901456001000086
B1548464233502N07153938WA0146101456001000084
B1548464233502N07153938WA0146201456001000084
B1548474233495N07153952WA0146201456001000082
B1548484233492N07153968WA0146201457001000081
B1548484233492N07153968WA0146301457001000081
B1548494233493N07153984WA0146301456001000082
B1548504233496N07154000WA0146301457001000083
B1548514233503N07154014WA0146401458001000084
B1548524233513N07154026WA0146401460001000086
B1548534233525N07154033WA0146501461001000089
B1548544233538N07154037WA0146701463001000091
B1548554233552N07154037WA0146801466001000093
B1548564233565N07154033WA0147001468001000095
B1548574233578N07154025WA0147201470001000096
B1548584233590N07154013WA0147401471001000099
B1548594233600N07153998WA0147501472001000101
B1549004233608N07153980WA0147701472001000103
B1549014233612N07153960WA0147701472001000105
B1549024233614N07153938WA0147801472001000107
B1549034233612N07153916WA0147801473001000109
B1549044233607N07153896WA0147801473001000109
B1549054233599N07153877WA0147901474001000107
B1549064233589N07153860WA0147901475001000106
B1549074233577N07153847WA0148001476001000104
B1549084233563N07153837WA0148101476001000100
B1549094233549N07153831WA0148101477001000096
B1549104233535N07153830WA0148201476001000094
B1549114233521N07153832WA0148201474001000093
B1549124233508N07153839WA0148101472001000092
B1549134233496N07153849WA0148001471001000092
B1549144233487N07153863WA0147901471001000091
B1549154233479N07153878WA0147901474001000088
B1549164233474N07153893WA0147901479001000083
B1549174233470N07153909WA0148301484001000077
B1549184233468N07153923WA0148601488001000073
B1549194233468N07153938WA0149001492001000070
B1549204233470N07153952WA0149401495001000069
B1549214233472N07153966WA0149701497001000069
B1549224233475N07153979WA0149901499001000070
B1549234233480N07153992WA0150201499001000071
B1549244233487N07154003WA0150301498001000074
B1549254233496N07154012WA0150301496001000080
B1549264233507N07154020WA0150201495001000085
B1549274233520N07154024WA0150101494001000089
B1549284233534N07154025WA0150101493001000094
B1549294233548N07154021WA0150001494001000099
B1549294233548N07154021WA0150001494001000099
B1549304233561N07154012WA0150001495001000102
B1549314233573N07153999WA0150101496001000102
B1549324233583N07153983WA0150201497001000103
B1549334233590N07153964WA0150201498001000104
B1549344233594N07153943WA0150301497001000106
B1549354233595N07153921WA0150301496001000108
B1549364233592N07153900WA0150201496001000108
B1549374233587N07153879WA0150201496001000108
B1549384233579N07153861WA0150101496001000106
B1549394233568N07153845WA0150201497001000103
B1549404233556N07153833WA0150201497001000101
B1549414233542N07153824WA0150201498001000100
B1549424233528N07153817WA0150201498001000099
B1549434233514N07153813WA0150301498001000097
B1549444233500N07153812WA0150401499001000094
B1549454233486N07153813WA0150401500001000091
B1549464233473N07153816WA0150401499001000090
B1549474233460N07153821WA0150501498001000089
B1549484233448N07153829WA0150501497001000089
B1549494233437N07153839WA0150501497001000089
B1549504233427N07153850WA0150501498001000087
B1549514233419N07153863WA0150501500001000083
F154952010306111214171924
B1549524233412N07153877WA0150601503001000081
B1549534233408N07153892WA0150801505001000078
B1549544233405N07153907WA0151001506001000076
B1549554233403N07153922WA0151201508001000074
B1549564233403N07153937WA0151301509001000074
B1549574233405N07153952WA0151501510001000074
B1549584233407N07153967WA0151601512001000074
B1549594233410N07153981WA0151701513001000075
B1550004233414N07153996WA0151801513001000077
B1550014233420N07154010WA0151901513001000078
B1550024233426N07154023WA0151901514001000079
B1550034233433N07154037WA0152001514001000080
B1550044233440N07154050WA0152001515001000081
B1550054233447N07154064WA0152101516001000083
B1550064233453N07154078WA0152201517001000084
B1550074233460N07154093WA0152201518001000084
B1550084233467N07154107WA0152301518001000085
B1550094233472N07154123WA0152301516001000085
B1550104233478N07154139WA0152401514001000088
B1550114233482N07154156WA0152301511001000090
B1550124233487N07154173WA0152301509001000093
B1550134233491N07154192WA0152101507001000095
B1550144233496N07154210WA0152001507001000094
B1550154233501N07154228WA0151901506001000093
B1550164233505N07154245WA0151801506001000092
B1550174233510N07154263WA0151701505001000091
B1550184233515N07154280WA0151601503001000091
B1550194233519N07154298WA0151501499001000092
B1550204233523N07154316WA0151201495001000094
B1550214233528N07154334WA0150901491001000096
B1550224233532N07154353WA0150601487001000098
B1550234233536N07154372WA0150301484001000099
B1550244233541N07154392WA0149901481001000100
B1550254233545N07154411WA0149601478001000101
B1550264233551N07154430WA0149401476001000101
B1550274233556N07154449WA0149301477001000100
B1550274233556N07154449WA0149101477001000100
B1550284233563N07154467WA0149101478001000099
B1550294233571N07154484WA0149101480001000097
B1550304233578N07154501WA0149201482001000096
B1550314233586N07154517WA0149401484001000095
B1550324233593N07154534WA0149501485001000094
B1550324233593N07154534WA0149701485001000094
B1550334233600N07154550WA0149701487001000094
B1550344233608N07154566WA0149801488001000093
B1550354233615N07154582WA0150001491001000093
B1550364233623N07154597WA0150201495001000091
B1550364233623N07154597WA0150401495001000091
B1550374233632N07154612WA0150401497001000090
B1550384233641N07154625WA0150701499001000089
B1550394233649N07154639WA0151001500001000087
B1550404233657N07154653WA0151201499001000087
B1550414233663N07154668WA0151201498001000088
B1550424233670N07154683WA0151201499001000088
B1550434233678N07154698WA0151201501001000086
B1550444233686N07154711WA0151301503001000084
B1550454233694N07154724WA0151501505001000081
B1550464233703N07154735WA0151601506001000080
B1550474233712N07154746WA0151601506001000080
B1550484233721N07154756WA0151601503001000082
B1550494233732N07154765WA0151501500001000087
B1550504233744N07154774WA0151301496001000092
B1550514233757N07154781WA0151001491001000097
B1550524233771N07154788WA0150701488001000102
F1550530306111214171924133
B1550534233786N07154795WA0150401485001000106
B1550544233802N07154800WA0150101483001000108
B1550554233818N07154805WA0149801480001000111
B1550564233834N07154810WA0149501478001000113
B1550574233851N07154814WA0149301475001000115
B1550584233868N07154819WA0149101473001000117
B1550594233886N07154824WA0148901471001000119
B1551004233903N07154828WA0148701470001000120
B1551014233921N07154833WA0148501468001000121
B1551024233939N07154837WA0148301467001000122
B1551034233957N07154842WA0148201466001000122
B1551044233975N07154847WA0148201466001000122
B1551054233993N07154852WA0148101465001000122
B1551064234011N07154857WA0148101465001000122
B1551074234029N07154862WA0148001465001000122
B1551074234029N07154862WA0148001465001000122
B1551084234047N07154867WA0148001464001000122
B1551094234064N07154872WA0148001464001000122
B1551104234082N07154877WA0148001463001000122
B1551114234100N07154882WA0147901463001000123
B1551124234119N07154887WA0147801462001000123
B1551134234137N07154892WA0147801462001000123
B1551144234155N07154896WA0147801462001000123
B1551144234155N07154896WA0147701462001000123
B1551154234173N07154901WA0147701461001000123
B1551164234191N07154906WA0147701461001000123
B1551174234209N07154911WA0147701461001000123
B1551184234227N07154916WA0147701461001000122
B1551194234245N07154921WA0147601461001000122
B1551204234263N07154926WA0147601460001000122
B1551214234281N07154932WA0147501459001000123
B1551224234299N07154937WA0147501458001000123
B1551234234317N07154942WA0147401457001000124
B1551244234335N07154947WA0147401457001000124
B1551254234353N07154952WA0147301456001000124
B1551264234371N07154957WA0147201455001000124
B1551274234390N07154962WA0147201454001000124
B1551284234408N07154967WA0147001453001000124
B1551294234426N07154972WA0146901452001000124
B1551304234444N07154977WA0146801450001000124
B1551314234463N07154982WA0146701448001000125
B1551324234481N07154988WA0146501445001000126
B1551334234499N07154994WA0146301443001000127
B1551344234518N07155001WA0146101440001000128
B1551354234536N07155008WA0145901438001000129
B1551364234555N07155014WA0145601436001000129
B1551374234574N07155022WA0145401434001000129
B1551384234592N07155029WA0145301434001000128
B1551394234610N07155036WA0145101433001000128
B1551404234629N07155044WA0145001432001000127
B1551414234647N07155051WA0144901432001000126
B1551424234665N07155059WA0144901431001000125
B1551434234682N07155067WA0144801431001000124
B1551444234700N07155074WA0144701430001000123
B1551454234718N07155082WA0144601428001000123
B1551464234735N07155089WA0144501427001000123
B1551474234753N07155096WA0144401425001000123
B1551484234771N07155103WA0144301423001000124
B1551494234789N07155110WA0144101421001000124
B1551504234807N07155116WA0143901419001000125
B1551514234825N07155123WA0143701417001000125
B1551524234843N07155129WA0143501415001000126
B1551534234861N07155135WA0143401414001000126
B1551544234880N07155140WA0143201412001000126
B1551554234898N07155145WA0143001411001000126
B1551564234917N07155150WA0142901409001000126
B1551574234936N07155153WA0142701407001000127
B1551584234955N07155157WA0142501405001000127
B1551594234974N07155159WA0142301402001000128
B1552004234993N07155162WA0142101400001000129
B1552014235012N07155163WA0141901398001000129
B1552024235032N07155165WA0141701395001000130
B1552034235051N07155165WA0141501394001000130
B1552044235071N07155166WA0141401393001000130
B1552054235090N07155166WA0141201393001000130
B1552064235110N07155165WA0141101393001000129
B1552074235129N07155165WA0141101394001000128
B1552074235129N07155165WA0141101394001000128
B1552084235148N07155164WA0141101394001000128
B1552094235167N07155163WA0141101393001000127
B1552104235186N07155161WA0141001392001000127
B1552114235206N07155160WA0141001391001000128
F1552120306111214171924
B1552124235225N07155158WA0140901391001000128
B1552134235244N07155156WA0140801390001000128
B1552144235263N07155154WA0140801390001000128
B1552154235282N07155153WA0140701389001000128
B1552164235301N07155151WA0140701388001000129
B1552174235321N07155148WA0140601386001000130
B1552184235340N07155146WA0140401384001000131
B1552194235360N07155143WA0140301383001000132
B1552204235380N07155140WA0140101382001000133
B1552214235399N07155135WA0140001381001000134
B1552224235419N07155131WA0139901381001000134
B1552234235439N07155125WA0139901382001000133
B1552244235458N07155119WA0139901382001000133
B1552254235478N07155113WA0139901381001000133
B1552264235497N07155107WA0139801381001000133
B1552274235516N07155100WA0139801381001000132
B1552284235535N07155094WA0139801381001000132
B1552294235555N07155088WA0139901383001000131
B1552304235573N07155082WA0140001384001000129
B1552314235592N07155076WA0140101385001000127
B1552324235611N07155072WA0140101386001000126
B1552334235629N07155068WA0140201386001000125
B1552344235648N07155065WA0140201386001000125
B1552354235667N07155063WA0140301385001000125
B1552364235686N07155061WA0140201385001000125
B1552374235704N07155058WA0140201387001000124
B1552384235722N07155054WA0140401390001000122
B1552394235740N07155050WA0140501393001000119
B1552394235740N07155050WA0140701393001000119
B1552404235758N07155046WA0140701397001000116
B1552414235774N07155043WA0141001401001000112
B1552424235791N07155040WA0141501404001000108
B1552434235806N07155036WA0141801408001000105
B1552444235822N07155032WA0142101411001000103
B1552454235837N07155029WA0142301414001000100
B1552464235851N07155025WA0142601415001000099
B1552474235866N07155022WA0142701415001000099
B1552484235881N07155018WA0142801415001000099
B1552494235895N07155014WA0142901414001000100
B1552504235910N07155010WA0142801412001000102
B1552514235925N07155007WA0142801411001000103
B1552524235941N07155005WA0142701410001000103
B1552534235956N07155002WA0142601409001000104
B1552544235972N07154999WA0142501409001000103
B1552554235987N07154997WA0142501409001000103
B1552564236002N07154994WA0142401408001000103
B1552574236018N07154992WA0142401407001000103
B1552584236033N07154990WA0142301406001000104
B1552594236049N07154988WA0142201404001000104
B1553004236064N07154987WA0142001403001000104
B1553014236080N07154986WA0141801401001000105
B1553024236096N07154984WA0141701399001000105
B1553034236111N07154982WA0141501396001000107
B1553044236128N07154980WA0141101392001000110
B1553054236144N07154977WA0140801388001000113
B1553064236161N07154975WA0140601385001000115
B1553074236179N07154971WA0140301382001000117
B1553084236196N07154968WA0139901381001000118
B1553094236214N07154964WA0139701379001000119
B1553104236231N07154961WA0139601377001000119
B1553114236249N07154958WA0139401375001000120
B1553124236267N07154955WA0139201374001000120
F1553130306111214171924133
B1553134236285N07154952WA0139101374001000120
B1553144236303N07154949WA0139001373001000120
B1553154236321N07154947WA0138901372001000119
B1553164236338N07154944WA0138901372001000119
B1553174236356N07154941WA0138801372001000119
B1553184236374N07154938WA0138801372001000118
B1553194236391N07154935WA0138701371001000119
B1553204236409N07154933WA0138601370001000119
B1553214236427N07154930WA0138601369001000120
B1553224236445N07154927WA0138501367001000121
B1553234236463N07154925WA0138401366001000122
B1553244236481N07154923WA0138201364001000122
B1553254236500N07154921WA0138101363001000124
B1553264236518N07154919WA0137901360001000125
B1553274236537N07154916WA0137701358001000126
B1553284236556N07154913WA0137501356001000128
B1553294236575N07154911WA0137401355001000128
B1553304236594N07154908WA0137201354001000128
B1553314236613N07154906WA0137101353001000128
B1553324236633N07154905WA0137001352001000128
B1553334236652N07154904WA0136901350001000127
B1553344236671N07154903WA0136701348001000127
B1553354236690N07154902WA0136501346001000127
B1553364236709N07154901WA0136301345001000128
B1553374236728N07154900WA0136201343001000128
B1553384236747N07154898WA0136101342001000129
B1553394236767N07154896WA0136001341001000128
B1553404236786N07154894WA0135801340001000128
B1553414236805N07154892WA0135701339001000127
B1553424236824N07154890WA0135601338001000126
B1553434236842N07154887WA0135501337001000125
B1553444236861N07154884WA0135301336001000124
B1553454236879N07154881WA0135301335001000124
B1553464236898N07154878WA0135101334001000124
B1553474236916N07154875WA0135001332001000123
B1553484236935N07154873WA0134901329001000123
B1553494236953N07154870WA0134701327001000125
B1553504236972N07154867WA0134501325001000126
B1553514236991N07154865WA0134401325001000125
B1553524237009N07154862WA0134301325001000124
B1553534237028N07154859WA0134301325001000123
B1553544237046N07154856WA0134201326001000122
B1553554237064N07154854WA0134301326001000120
B1553564237082N07154852WA0134301326001000119
B1553574237100N07154851WA0134301326001000118
B1553584237117N07154850WA0134301325001000118
B1553594237135N07154850WA0134201325001000118
B1554004237153N07154851WA0134201324001000118
B1554014237170N07154851WA0134201324001000118
B1554024237188N07154852WA0134101324001000118
B1554034237206N07154853WA0134101324001000119
B1554044237223N07154855WA0134101324001000119
B1554054237241N07154858WA0134101324001000118
B1554064237258N07154862WA0134101325001000117
B1554074237275N07154866WA0134201328001000115
B1554084237292N07154870WA0134501332001000111
B1554094237308N07154873WA0134801338001000105
B1554104237323N07154876WA0135301344001000100
B1554114237338N07154878WA0135701348001000095
B1554124237352N07154879WA0136001350001000092
B1554134237365N07154881WA0136201350001000091
F1554140306111214171924
B1554144237379N07154884WA0136301348001000092
B1554154237393N07154887WA0136201344001000095
B1554164237407N07154892WA0136001339001000099
B1554174237421N07154899WA0135601334001000104
B1554184237436N07154908WA0135301330001000108
B1554194237450N07154919WA0135001325001000112
B1554204237464N07154931WA0134601322001000115
B1554214237479N07154944WA0134301319001000116
B1554224237494N07154957WA0134001317001000118
B1554234237508N07154970WA0133701317001000118
B1554244237524N07154983WA0133701318001000118
B1554254237539N07154994WA0133701321001000118
B1554264237555N07155003WA0133801324001000116
B1554274237571N07155012WA0134001327001000114
B1554284237587N07155020WA0134201328001000112
B1554294237603N07155028WA0134301327001000112
B1554304237618N07155037WA0134201325001000114
B1554314237634N07155046WA0134101320001000117
B1554324237651N07155056WA0133701313001000122
B1554334237668N07155066WA0133401309001000128
B1554344237686N07155075WA0133101307001000130
B1554354237705N07155084WA0132801308001000129
B1554364237723N07155093WA0132701310001000127
B1554374237741N07155101WA0132701311001000124
B1554384237758N07155108WA0132701311001000123
B1554394237776N07155116WA0132701310001000123
B1554404237793N07155124WA0132601308001000123
B1554414237811N07155133WA0132501305001000124
B1554424237828N07155141WA0132301302001000126
B1554434237846N07155150WA0132101298001000128
B1554444237864N07155160WA0131901296001000129
B1554454237882N07155169WA0131701293001000130
B1554464237901N07155178WA0131501291001000130
B1554474237919N07155187WA0131301290001000130
B1554484237937N07155196WA0131101290001000130
B1554494237956N07155204WA0131001290001000129
B1554504237974N07155212WA0131001289001000129
B1554514237993N07155219WA0130901288001000128
B1554524238011N07155227WA0130801288001000128
B1554534238029N07155235WA0130801287001000128
B1554544238047N07155244WA0130701286001000128
B1554554238065N07155253WA0130601284001000128
B1554564238083N07155262WA0130501283001000129
B1554574238101N07155272WA0130301280001000129
B1554584238119N07155282WA0130101278001000130
B1554594238137N07155293WA0129801275001000130
B1555004238154N07155305WA0129601272001000131
B1555014238172N07155318WA0129401270001000132
B1555024238189N07155332WA0129201269001000133
B1555034238206N07155345WA0129001268001000133
B1555044238224N07155358WA0129001269001000132
B1555054238241N07155370WA0128901270001000131
B1555064238258N07155383WA0129001270001000130
B1555074238275N07155395WA0129001269001000129
B1555084238293N07155407WA0128901267001000129
B1555094238310N07155418WA0128801265001000129
B1555104238327N07155431WA0128501262001000129
B1555114238344N07155444WA0128301258001000130
B1555124238361N07155458WA0128001255001000132
B1555134238378N07155472WA0127801251001000133
B1555144238395N07155487WA0127301248001000134
F1555150306111214171924133
B1555154238412N07155501WA0127101246001000134
B1555164238429N07155514WA0126801245001000133
B1555174238446N07155527WA0126701245001000131
B1555184238464N07155538WA0126601245001000129
B1555194238481N07155550WA0126501245001000128
B1555204238498N07155561WA0126501244001000128
B1555214238515N07155574WA0126501244001000127
B1555224238532N07155587WA0126401242001000127
B1555234238548N07155600WA0126301241001000128
B1555244238564N07155614WA0126101238001000129
B1555254238581N07155629WA0126001235001000130
B1555264238597N07155643WA0125701231001000133
B1555274238615N07155656WA0125501229001000134
B1555284238633N07155669WA0125301229001000133
B1555294238651N07155679WA0125101229001000132
B1555304238669N07155689WA0125101232001000131
B1555314238688N07155698WA0125301234001000129
B1555324238706N07155706WA0125501237001000127
B1555334238724N07155713WA0125901241001000125
B1555344238741N07155720WA0126301249001000120
B1555354238758N07155727WA0126901259001000113
B1555364238773N07155734WA0127601269001000105
B1555374238788N07155741WA0128501280001000098
B1555384238801N07155747WA0129401288001000094
B1555394238815N07155750WA0130101293001000091
B1555404238828N07155749WA0130501297001000090
B1555414238842N07155745WA0130801299001000090
B1555424238854N07155737WA0131001300001000091
B1555434238865N07155726WA0131101301001000094
B1555444238875N07155711WA0131201300001000097
B1555454238882N07155694WA0131201299001000101
B1555464238887N07155674WA0131201298001000105
B1555474238888N07155652WA0131101298001000109
B1555484238885N07155630WA0131201300001000112
B1555494238878N07155610WA0131401304001000111
B1555504238867N07155593WA0131601309001000108
B1555514238854N07155582WA0132001314001000102
B1555514238854N07155582WA0132301314001000102
B1555524238840N07155576WA0132301318001000096
B1555534238826N07155575WA0132701322001000092
B1555544238813N07155578WA0133001324001000089
B1555554238801N07155586WA0133301324001000087
B1555564238790N07155597WA0133301324001000087
B1555574238782N07155611WA0133301323001000090
B1555584238776N07155628WA0133301323001000093
B1555594238774N07155647WA0133401324001000096
B1556004238774N07155666WA0133501327001000097
B1556014238776N07155685WA0133701331001000095
B1556024238781N07155703WA0134001335001000092
B1556034238787N07155719WA0134301340001000089
B1556044238796N07155733WA0134601344001000086
B1556054238805N07155744WA0135001349001000085
B1556064238816N07155754WA0135501352001000084
B1556064238816N07155754WA0135901352001000084
B1556074238828N07155761WA0135901355001000085
B1556084238840N07155766WA0136201357001000086
B1556094238853N07155768WA0136401358001000088
B1556104238867N07155767WA0136601359001000093
B1556114238881N07155761WA0136701359001000098
B1556124238894N07155752WA0136801360001000099
B1556134238905N07155740WA0136801361001000099
B1556144238914N07155724WA0136901362001000099
B1556154238921N07155706WA0136901362001000099
B1556164238925N07155687WA0136901362001000101
B1556174238927N07155666WA0136901360001000102
B1556184238925N07155645WA0136801359001000105
B1556194238921N07155624WA0136801358001000107
B1556204238914N07155605WA0136701359001000107
B1556214238905N07155587WA0136701360001000108
B1556224238893N07155572WA0136801362001000107
B1556234238879N07155562WA0137001366001000104
B1556244238865N07155557WA0137301372001000098
B1556254238851N07155557WA0137501377001000091
B1556264238838N07155562WA0137901381001000087
B1556274238827N07155571WA0138501384001000085
B1556284238817N07155582WA0138901386001000086
B1556294238809N07155595WA0139101386001000088
B1556304238802N07155611WA0139301386001000090
B1556314238798N07155629WA0139301387001000093
B1556324238797N07155648WA0139401389001000094
B1556334238799N07155667WA0139701393001000094
B1556344238803N07155685WA0140001398001000093
B1556354238811N07155701WA0140401404001000091
B1556354238811N07155701WA0140801404001000091
B1556364238819N07155714WA0141001409001000088
B1556374238830N07155725WA0141101412001000086
B1556384238841N07155732WA0141501413001000086
B1556394238854N07155736WA0141801414001000089
B1556404238868N07155737WA0141901413001000093
B1556414238882N07155733WA0141901413001000097
B1556424238895N07155725WA0141901413001000098
B1556434238907N07155713WA0141901414001000100
B1556444238917N07155697WA0142001414001000102
B1556454238925N07155679WA0142001413001000105
B1556464238929N07155658WA0141901411001000108
B1556474238931N07155636WA0141801410001000111
B1556484238928N07155613WA0141701409001000113
B1556484238928N07155613WA0141601409001000113
