ACNI279FLIGHT:1
HFDTE260523
HFFXA005
HFPLTPILOT:Bob Fletcher
HFCM2CREW:
HFGTYGLIDERTYPE:ASG 29
HFGIDGLIDERID:90
HFDTM100GPSDATUM:WGS84
HFRFWFIRMWAREVERSION:1.2
HFRHWHARDWAREVERSION:1.2
HFFTYFRTYPE:ClearNav Instr., ClearNav II
HFGPS:UBLOX,NEO-6G,16Ch,50000 
HFPRSPRESSALTSENSOR:Intersema,MS5540C,20000
HFCIDCOMPETITIONID:90
I033638FXA3941ENL4244GSP
J020810WDI1115WVE
C260523143222000000000102
C0000000N00000000ETAKEOFF
C4225570N07147630WSTERLING    
C4411700N07145050WFranconia   
C4331467N07256950WRutland
C4225570N07147630WSTERLING    
C0000000N00000000ELANDING
B1438584225409N07147433WA0004700108001000000
B1438594225409N07147433WA0004700108001000000
B1439004225409N07147433WA0004800108001000000
B1439014225409N07147433WA0004800108001000000
B1439024225409N07147433WA0004800108001000001
B1439024225409N07147433WA0004800108001000001
B1439034225409N07147433WA0004800108001000003
B1439044225409N07147433WA0004800108001000002
B1439054225410N07147434WA0004800108001000001
B1439054225410N07147434WA0004800108001000001
B1439064225410N07147434WA0004800108001000000
B1439074225410N07147434WA0004800108001000000
B1439074225410N07147434WA0004800108001000000
B1439084225410N07147434WA0004800108001000000
B1439094225410N07147434WA0004800108001000001
B1439094225410N07147434WA0004800108001000001
B1439104225410N07147434WA0004800108001000008
B1439114225412N07147436WA0004800108001000017
B1439124225414N07147439WA0004800108001000025
B1439134225418N07147443WA0004700108001000033
B1439134225418N07147443WA0004700108001000033
B1439144225422N07147448WA0004800107001004041
B1439144225422N07147448WA0004800107001018041
B1439154225427N07147454WA0004800107001018048
B1439164225433N07147461WA0004800107001033055
LCNI143916EVT:ENDBASELINE
LCNI143911EVT:TAKEOFF
F143917010306071417192130
B1439174225440N07147469WA0004900107001045061
B1439184225447N07147478WA0005000107001052068
B1439194225455N07147488WA0005000107001054074
B1439204225463N07147499WA0005000108001045079
B1439214225472N07147510WA0005100108001045085
B1439224225482N07147522WA0005100108001045089
B1439234225492N07147534WA0005100109001042094
B1439244225503N07147547WA0005200109001045099
B1439254225514N07147561WA0005200109001042103
B1439264225526N07147576WA0005300110001044107
B1439274225539N07147590WA0005400111001043111
B1439284225551N07147605WA0005500111001048116
B1439294225565N07147620WA0005700113001052117
B1439304225578N07147635WA0005700115001052116
B1439304225578N07147635WA0005800115001054116
B1439314225592N07147650WA0005900117001054116
B1439324225605N07147665WA0006200122001063115
B1439334225618N07147680WA0006600125001064116
B1439344225632N07147696WA0006900128001069116
B1439354225645N07147712WA0007200131001069119
B1439364225658N07147728WA0007500132001067121
B1439374225672N07147745WA0007700134001067121
B1439384225685N07147761WA0007800136001064121
B1439394225699N07147777WA0008100140001067119
B1439404225713N07147791WA0008400145001067117
B1439414225727N07147805WA0009000150001071115
B1439424225741N07147818WA0009600155001075113
B1439434225754N07147831WA0010000160001070111
B1439444225767N07147845WA0010400165001069110
B1439454225780N07147860WA0011000170001068109
B1439464225792N07147874WA0011700176001067107
B1439474225804N07147889WA0012000183001068106
B1439484225815N07147903WA0012600187001068104
B1439494225827N07147918WA0013200192001068103
B1439504225838N07147932WA0013700196001064103
B1439514225849N07147947WA0014100200001066100
B1439524225859N07147960WA0014500204001070097
B1439534225869N07147974WA0014900208001069095
B1439544225880N07147987WA0015300211001073093
B1439554225891N07147999WA0015700215001075092
B1439564225901N07148010WA0016200221001073090
B1439574225912N07148020WA0016900228001066089
B1439584225923N07148030WA0017300235001064089
B1439594225935N07148040WA0017800239001064093
B1440004225947N07148051WA0018300241001063096
B1440014225958N07148063WA0018600244001063097
B1440024225970N07148076WA0018900246001060101
B1440024225970N07148076WA0019100246001054101
B1440034225982N07148089WA0019200246001054106
B1440044225994N07148103WA0019300246001052109
B1440054226007N07148118WA0019400248001052109
B1440064226019N07148132WA0019500251001053108
B1440074226032N07148145WA0019800255001055108
B1440084226045N07148158WA0020200260001055108
B1440094226059N07148170WA0020600265001061108
B1440104226072N07148182WA0020900269001066108
B1440114226085N07148194WA0021400274001070107
B1440124226099N07148206WA0021900278001071110
B1440134226114N07148217WA0022400281001062110
B1440144226128N07148226WA0022700287001062110
B1440154226144N07148235WA0023300294001063113
B1440164226160N07148244WA0023900299001061113
B1440174226175N07148253WA0024300304001061110
F1440180102030607081417192130
B1440184226189N07148263WA0024800309001060106
B1440194226203N07148273WA0025400315001064104
B1440204226217N07148282WA0026200323001065106
B1440214226231N07148293WA0026700330001067106
B1440224226245N07148303WA0027400334001069105
B1440234226259N07148314WA0027900337001061105
B1440244226272N07148324WA0028200342001058104
B1440254226286N07148335WA0028700346001061102
B1440264226299N07148344WA0029200352001061099
B1440274226312N07148353WA0029600357001065098
B1440284226325N07148362WA0030100362001064096
B1440294226338N07148370WA0030700367001061094
B1440304226350N07148379WA0031200373001063093
B1440314226363N07148388WA0031800378001061093
B1440324226374N07148398WA0032300385001061092
B1440334226386N07148409WA0033000390001061092
B1440344226397N07148419WA0033300394001061093
B1440354226409N07148429WA0033900397001058094
B1440364226421N07148440WA0034400402001059095
B1440374226433N07148451WA0034800405001061096
B1440384226445N07148461WA0035300409001054097
B1440394226458N07148471WA0035600413001053099
B1440404226471N07148480WA0036000417001054100
B1440414226484N07148489WA0036500423001054099
B1440424226497N07148499WA0036900431001060097
B1440434226510N07148509WA0037600438001060099
B1440444226523N07148518WA0038400444001064101
B1440454226536N07148528WA0038700449001064102
B1440464226550N07148538WA0039300454001061103
B1440474226564N07148546WA0039900460001058103
B1440474226564N07148546WA0040600460001058103
B1440484226578N07148554WA0040600466001058104
B1440494226592N07148564WA0041300473001056103
B1440504226606N07148573WA0042100481001056103
B1440514226620N07148583WA0042700489001058104
B1440524226634N07148593WA0043300495001057105
B1440524226634N07148593WA0044000495001057105
B1440534226648N07148603WA0044000499001057106
B1440544226662N07148612WA0044500504001053108
B1440554226677N07148621WA0045100509001056109
B1440564226692N07148630WA0045500515001061109
B1440574226707N07148640WA0046100520001062110
B1440584226722N07148649WA0046800526001062110
B1440594226737N07148658WA0047400534001058110
B1440594226737N07148658WA0047400534001058110
B1441004226752N07148667WA0047900542001060111
B1441014226768N07148677WA0048800549001058112
B1441024226783N07148686WA0049700557001057114
B1441034226799N07148697WA0050500565001053115
B1441044226814N07148708WA0051000571001057115
B1441054226829N07148718WA0051700577001060113
B1441064226845N07148727WA0052400584001060114
B1441064226845N07148727WA0052400584001066114
B1441074226861N07148736WA0052900590001066113
B1441084226876N07148745WA0053600596001067112
B1441094226892N07148754WA0054500603001069111
B1441104226906N07148764WA0055200611001069109
B1441114226921N07148773WA0056200618001068107
B1441124226935N07148783WA0057000625001071106
B1441124226935N07148783WA0057000625001071106
B1441134226949N07148792WA0057600632001066105
B1441144226964N07148801WA0058300638001061105
B1441154226978N07148811WA0059200645001061102
B1441164226991N07148820WA0059600652001064100
B1441174227004N07148829WA0060300657001065100
B1441184227017N07148838WA0060900663001064097
B1441184227017N07148838WA0060900663001064097
F1441190102030607081417192130133
B1441194227030N07148847WA0061300668001062096
B1441204227043N07148857WA0062000672001060095
B1441214227055N07148867WA0062400676001058095
B1441224227067N07148878WA0062900679001056095
B1441234227079N07148888WA0063200682001057096
B1441234227079N07148888WA0063500682001057096
B1441244227091N07148898WA0063500684001055097
B1441254227103N07148909WA0063700685001055098
B1441264227116N07148920WA0063800686001055099
B1441274227129N07148930WA0064000688001054100
B1441284227142N07148939WA0064100690001057100
B1441294227155N07148949WA0064400692001059101
B1441294227155N07148949WA0064600692001060101
B1441304227169N07148959WA0064600694001060104
B1441314227182N07148971WA0064900696001062106
B1441324227195N07148983WA0065100698001062106
B1441334227208N07148995WA0065300700001062107
B1441344227222N07149006WA0065700703001064105
B1441354227236N07149016WA0066000710001062100
B1441364227249N07149025WA0066500718001061098
B1441374227262N07149034WA0067100726001063099
B1441384227275N07149043WA0067900734001063097
B1441394227288N07149052WA0068400741001061097
B1441404227301N07149062WA0069200749001065099
B1441414227313N07149073WA0070100754001065100
B1441424227326N07149085WA0070800759001062101
B1441424227326N07149085WA0070800759001062101
B1441434227339N07149096WA0071200764001062102
B1441444227351N07149106WA0071700770001063099
B1441454227364N07149116WA0072400777001067099
B1441464227377N07149126WA0072800781001069099
B1441474227390N07149135WA0073300785001065096
B1441474227390N07149135WA0073800785001063096
B1441484227402N07149145WA0073800789001063095
B1441494227415N07149155WA0074400794001063094
B1441504227427N07149164WA0074700798001067092
B1441514227439N07149173WA0075100802001068092
B1441524227451N07149182WA0075400805001066093
B1441534227463N07149191WA0075700806001064094
B1441544227476N07149201WA0075900806001059094
B1441544227476N07149200WA0075900806001059094
B1441554227489N07149209WA0075900806001055095
B1441564227502N07149217WA0076000806001050095
B1441574227514N07149225WA0076100807001053095
B1441584227527N07149234WA0076100808001053096
B1441594227539N07149244WA0076300811001051095
B1442004227551N07149254WA0076600814001052094
B1442004227551N07149254WA0076600814001052094
B1442014227563N07149265WA0076900818001057094
B1442024227574N07149276WA0077100821001058095
B1442034227587N07149286WA0077400822001053093
B1442044227599N07149295WA0077500824001051092
B1442054227611N07149303WA0077700827001054093
B1442054227611N07149303WA0078000827001057093
B1442064227624N07149312WA0078000830001057093
B1442074227636N07149321WA0078200831001057094
B1442084227648N07149331WA0078400831001057096
B1442094227661N07149340WA0078500832001054095
B1442104227673N07149350WA0078600834001051095
B1442114227686N07149359WA0078700836001054096
B1442124227698N07149368WA0078900838001055096
B1442124227698N07149368WA0078900838001055096
B1442134227711N07149378WA0079000839001059095
B1442144227723N07149388WA0079200841001056096
B1442154227735N07149398WA0079300842001054097
B1442164227748N07149408WA0079400842001054097
B1442174227760N07149419WA0079500843001052097
B1442174227760N07149419WA0079600843001051097
B1442184227772N07149430WA0079600844001051098
B1442194227785N07149440WA0079700845001050098
B1442204227797N07149451WA0079800846001048098
B1442214227810N07149461WA0079900847001049099
B1442224227822N07149472WA0080000848001051099
B1442234227835N07149483WA0080100849001048100
B1442244227848N07149492WA0080200850001048099
B1442244227848N07149492WA0080200850001053099
B1442254227861N07149502WA0080300852001053097
B1442264227874N07149511WA0080500856001056096
B1442274227886N07149520WA0080900860001057094
B1442284227898N07149529WA0081100864001059094
B1442294227911N07149538WA0081500866001058095
B1442304227923N07149548WA0081800869001056094
B1442304227923N07149548WA0081800869001056094
B1442314227935N07149558WA0082100872001055094
B1442324227947N07149567WA0082300875001057093
B1442334227959N07149576WA0082700878001057093
B1442344227972N07149585WA0082800881001057092
B1442354227984N07149593WA0083200883001057093
B1442364227997N07149601WA0083500885001056092
B1442364227997N07149601WA0083500885001056092
B1442374228009N07149609WA0083700888001056091
B1442384228022N07149616WA0084000891001057091
B1442394228034N07149624WA0084300894001054090
B1442404228046N07149632WA0084500896001058090
B1442414228058N07149640WA0084800898001058090
B1442424228070N07149649WA0085000899001058090
B1442424228070N07149649WA0085000899001058090
B1442434228082N07149657WA0085100900001058090
B1442444228094N07149665WA0085200901001060091
B1442454228106N07149675WA0085300901001058091
B1442464228118N07149684WA0085400902001054091
B1442474228129N07149694WA0085600904001051090
B1442484228140N07149704WA0085800906001051090
B1442484228140N07149704WA0085800906001051090
B1442494228152N07149713WA0086000909001051089
B1442504228164N07149721WA0086100912001053090
B1442514228176N07149730WA0086400914001054090
B1442524228188N07149739WA0086500916001051091
B1442534228200N07149748WA0086700917001050092
B1442544228211N07149758WA0086900918001048093
B1442554228223N07149768WA0087000918001048094
B1442564228235N07149779WA0087200919001049093
B1442574228247N07149789WA0087200921001050093
B1442584228259N07149799WA0087300923001050094
B1442594228271N07149808WA0087500925001052093
B1443004228282N07149818WA0087700927001053092
B1443014228294N07149828WA0087900929001056092
B1443024228306N07149837WA0088100931001055091
B1443034228318N07149847WA0088300934001054089
B1443044228329N07149856WA0088500937001053090
B1443054228341N07149865WA0088700939001053090
B1443064228353N07149874WA0088900941001054090
B1443074228364N07149883WA0089200943001054089
B1443084228376N07149892WA0089400946001054088
B1443094228387N07149900WA0089600949001058087
B1443104228399N07149909WA0090000952001058088
B1443114228410N07149918WA0090300954001057088
B1443124228422N07149927WA0090400955001058090
B1443134228434N07149936WA0090600955001058092
B1443144228445N07149947WA0090700956001054093
B1443154228457N07149958WA0090800958001052093
B1443164228468N07149968WA0091000961001053094
B1443174228480N07149979WA0091200964001057095
B1443184228492N07149990WA0091500965001058097
B1443184228492N07149990WA0091500965001058097
B1443194228504N07150001WA0091700966001057098
B1443204228516N07150012WA0091800967001057099
B1443214228529N07150024WA0091900966001057100
B1443224228541N07150034WA0091900967001052098
B1443234228554N07150044WA0092000970001048099
B1443244228566N07150055WA0092300973001051098
B1443254228578N07150067WA0092500976001051100
B1443264228590N07150080WA0092700977001048101
B1443274228602N07150092WA0092900977001047102
B1443284228615N07150104WA0092900976001054102
B1443294228627N07150116WA0093000978001058099
B1443294228627N07150116WA0093100978001058099
B1443304228639N07150127WA0093100982001060099
B1443314228651N07150139WA0093300986001060100
B1443324228663N07150150WA0093700989001058098
B1443334228675N07150162WA0094000994001055097
B1443344228687N07150173WA0094600999001056097
B1443354228698N07150186WA0095001005001057097
B1443364228710N07150198WA0095501010001055098
B1443364228710N07150198WA0095501010001055098
B1443374228721N07150211WA0096101014001056100
B1443384228733N07150223WA0096401018001056101
B1443394228746N07150234WA0097001021001056102
B1443404228759N07150245WA0097301026001058104
B1443414228772N07150258WA0097901030001058105
B1443424228785N07150271WA0098501034001058107
B1443424228785N07150271WA0098501034001058107
B1443434228797N07150284WA0098701039001058108
B1443444228810N07150297WA0099201044001056107
B1443454228823N07150309WA0099501051001049103
B1443464228835N07150320WA0100201059001036096
B1443474228847N07150330WA0101101065001036089
B1443484228860N07150335WA0101601071001029084
B1443484228860N07150335WA0101801071001029084
B1443494228872N07150337WA0102201075001023082
B1443504228884N07150335WA0102501079001008081
B1443514228895N07150329WA0102501082001000082
B1443524228905N07150319WA0102701085001000086
B1443534228914N07150305WA0102901087001000092
B1443544228920N07150287WA0103101089001000096
B1443544228920N07150287WA0103201089001000096
B1443554228923N07150268WA0103301089001000101
B1443564228925N07150247WA0103301087001000107
B1443574228922N07150224WA0103301085001000117
B1443584228916N07150201WA0103201085001000124
B1443594228906N07150179WA0103101085001000128
B1444004228894N07150159WA0103001085001000131
B1444014228879N07150141WA0103101085001000133
B1444024228862N07150126WA0103101087001000133
B1444034228844N07150114WA0103201088001000133
B1444044228826N07150104WA0103301089001000133
F1444050102030607081417192130
B1444054228806N07150098WA0103301088001000133
B1444064228786N07150096WA0103201086001000134
B1444074228766N07150097WA0103101085001000133
B1444084228747N07150102WA0103001085001000131
B1444094228728N07150110WA0103001086001000129
B1444104228711N07150122WA0103101088001000125
B1444114228696N07150136WA0103201091001000121
B1444124228683N07150152WA0103501095001000117
B1444124228683N07150152WA0103501095001000117
B1444134228671N07150169WA0103901098001000112
B1444144228662N07150187WA0104301101001000108
B1444154228654N07150206WA0104501105001000104
B1444164228649N07150225WA0104901108001000100
B1444174228644N07150244WA0105101112001000098
B1444184228641N07150263WA0105401115001000096
B1444194228639N07150282WA0105801117001000093
B1444194228639N07150282WA0106101117001000093
B1444204228638N07150301WA0106101120001000089
B1444214228639N07150318WA0106401123001000085
B1444224228643N07150334WA0106601125001000081
B1444234228648N07150348WA0106801125001000078
B1444244228656N07150360WA0107001126001000077
B1444254228666N07150368WA0107101126001000078
B1444264228677N07150372WA0107101127001000080
B1444274228689N07150371WA0107301129001000082
B1444284228701N07150365WA0107401131001000084
B1444294228711N07150354WA0107601133001000088
B1444294228711N07150354WA0107901133001000088
B1444304228719N07150339WA0107901136001000094
B1444314228723N07150320WA0108201138001000100
B1444324228723N07150298WA0108401140001000109
B1444334228719N07150276WA0108501142001000114
B1444344228712N07150254WA0108701144001000119
B1444354228702N07150234WA0108901146001000122
B1444364228690N07150215WA0109101148001000125
B1444374228675N07150199WA0109401150001000127
B1444384228658N07150187WA0109601153001000129
B1444394228640N07150180WA0109901156001000129
B1444404228621N07150177WA0110201160001000126
B1444414228602N07150180WA0110701164001000123
B1444424228585N07150187WA0111101168001000119
B1444434228570N07150198WA0111401171001000115
B1444444228556N07150213WA0111701174001000112
B1444454228546N07150230WA0111901175001000109
B1444464228538N07150249WA0112101176001000105
B1444474228534N07150269WA0112201177001000102
B1444484228532N07150289WA0112301178001000099
B1444494228534N07150308WA0112401179001000095
B1444504228539N07150326WA0112501180001000091
B1444514228547N07150340WA0112601181001000089
B1444524228558N07150351WA0112701183001000087
B1444524228558N07150351WA0112801183001000087
B1444534228570N07150358WA0112801184001000087
B1444544228582N07150359WA0113001187001000087
B1444554228595N07150356WA0113201189001000088
B1444564228607N07150348WA0113401191001000090
B1444574228618N07150336WA0113601194001000093
B1444574228618N07150336WA0113601194001000093
B1444584228626N07150320WA0113901197001000097
B1444594228630N07150301WA0114101199001004103
B1444594228630N07150301WA0114401199001004103
B1445004228632N07150279WA0114401201001004110
B1445014228629N07150257WA0114701203001000116
B1445024228623N07150234WA0114901206001000120
B1445034228614N07150213WA0115201210001000123
B1445044228602N07150194WA0115601212001000124
B1445054228588N07150177WA0115701214001000126
F1445060102030607081417192130133
B1445064228572N07150163WA0115901215001000129
B1445074228554N07150153WA0116101216001000132
B1445084228534N07150147WA0116301219001000133
B1445094228514N07150146WA0116401222001000132
B1445104228495N07150148WA0116801226001000129
B1445114228476N07150154WA0117301232001000125
B1445114228476N07150154WA0117601232001000125
B1445124228459N07150164WA0117801237001000121
B1445134228444N07150177WA0118101241001000115
B1445144228432N07150192WA0118501244001000110
B1445154228422N07150210WA0119001247001000106
B1445164228416N07150229WA0119201250001000102
B1445174228412N07150248WA0119501251001000098
B1445174228412N07150248WA0119601251001000098
B1445184228411N07150268WA0119601252001000096
B1445194228412N07150287WA0119801254001000093
B1445204228417N07150304WA0119901255001000090
B1445214228424N07150319WA0120001256001000088
B1445224228434N07150331WA0120201259001000086
B1445234228445N07150339WA0120501262001000085
B1445244228457N07150343WA0120701266001000083
B1445254228470N07150342WA0121101268001000084
B1445264228482N07150337WA0121301271001000086
B1445274228493N07150327WA0121601274001000087
B1445274228493N07150327WA0121701274001000087
B1445284228502N07150314WA0121901278001000089
B1445294228508N07150297WA0122301281001000093
B1445304228511N07150278WA0122501284001000098
B1445304228511N07150278WA0122701284001000098
B1445314228509N07150258WA0122901287001000104
B1445324228504N07150237WA0123301289001000110
B1445334228495N07150218WA0123501291001000115
B1445344228483N07150201WA0123701293001000119
B1445354228468N07150188WA0124001295001000122
B1445364228451N07150178WA0124101298001000123
B1445374228433N07150173WA0124401301001000123
B1445384228415N07150172WA0124801304001000120
B1445394228397N07150176WA0125001307001000117
B1445404228381N07150183WA0125301310001000114
B1445414228366N07150194WA0125601312001000111
B1445424228353N07150208WA0125801313001000107
B1445434228343N07150224WA0125901314001000104
B1445444228336N07150242WA0126101315001000100
B1445454228332N07150261WA0126201315001000096
B1445464228331N07150280WA0126201316001000094
B1445474228333N07150298WA0126301317001000092
B1445484228337N07150316WA0126401318001000091
B1445484228337N07150316WA0126401318001000091
B1445494228344N07150331WA0126401320001000089
B1445504228354N07150343WA0126701324001000087
B1445514228365N07150352WA0126901327001000085
B1445524228377N07150358WA0127201330001000084
B1445534228389N07150359WA0127401332001000085
B1445534228389N07150359WA0127701332001000085
B1445544228402N07150355WA0127801335001000086
B1445554228413N07150347WA0128001338001000087
B1445564228424N07150337WA0128401341001000089
B1445564228424N07150337WA0128401341001000089
B1445574228433N07150323WA0128701344001000091
B1445584228440N07150307WA0128901346001000095
B1445594228444N07150288WA0129201348001000100
B1446004228444N07150267WA0129401350001000106
B1446004228444N07150267WA0129501350001000106
B1446014228439N07150245WA0129601351001000112
B1446024228430N07150225WA0129801352001000119
B1446034228419N07150207WA0129901353001000124
B1446044228404N07150191WA0130101355001000127
B1446054228387N07150178WA0130301358001000129
B1446064228369N07150170WA0130501360001000129
B1446074228350N07150165WA0130701362001000127
B1446084228331N07150166WA0131001366001000125
B1446094228313N07150172WA0131301370001000123
B1446104228296N07150182WA0131501372001000119
B1446114228283N07150196WA0131801375001000115
B1446114228283N07150196WA0132101375001000115
B1446124228272N07150213WA0132101376001000110
B1446134228264N07150232WA0132301376001000106
B1446144228260N07150253WA0132401377001000102
B1446154228260N07150273WA0132501379001000099
B1446164228263N07150292WA0132601381001000097
B1446174228268N07150310WA0132801383001000094
B1446174228268N07150310WA0133001383001000094
B1446184228275N07150326WA0133001387001000091
B1446194228285N07150338WA0133301390001000087
B1446204228296N07150347WA0133701394001000083
B1446214228307N07150351WA0134001398001000081
B1446224228319N07150350WA0134301401001000081
B1446234228331N07150344WA0134601404001000084
B1446244228341N07150333WA0135001406001000088
B1446244228341N07150333WA0135001406001000088
B1446254228349N07150318WA0135201408001000091
B1446264228355N07150301WA0135401410001000095
B1446274228358N07150282WA0135601411001000101
B1446284228358N07150261WA0135801412001000107
B1446294228355N07150239WA0136001414001000111
B1446294228355N07150239WA0136101414001000111
B1446304228349N07150217WA0136101416001000115
B1446314228340N07150197WA0136401419001000119
B1446324228328N07150179WA0136601421001000123
B1446334228313N07150164WA0137001424001000125
B1446344228296N07150153WA0137301427001000126
B1446354228278N07150146WA0137501430001000125
B1446364228260N07150144WA0137801433001000123
B1446374228241N07150147WA0138001435001000121
B1446384228225N07150155WA0138201437001000119
B1446394228209N07150167WA0138501438001000116
B1446404228197N07150183WA0138701440001000112
B1446414228187N07150201WA0138801442001000107
B1446424228181N07150220WA0138901443001000103
B1446424228181N07150220WA0138901443001000103
B1446434228178N07150240WA0139101443001000100
B1446444228178N07150260WA0139101444001000097
B1446454228182N07150278WA0139201445001000094
B1446464228189N07150294WA0139301447001000089
B1446474228198N07150306WA0139301450001000085
B1446484228209N07150314WA0139701453001000083
B1446494228221N07150316WA0140101456001000082
B1446504228234N07150314WA0140501459001000084
B1446514228245N07150306WA0140801462001000088
B1446514228245N07150306WA0141001462001000088
B1446524228255N07150293WA0141001464001000092
B1446534228262N07150277WA0141201466001000096
B1446544228267N07150258WA0141501468001000101
B1446554228267N07150236WA0141701471001000109
B1446564228263N07150214WA0142101474001000113
B1446574228256N07150193WA0142301479001000116
B1446584228247N07150173WA0142801483001000118
B1446594228235N07150155WA0143001488001000119
B1446594228235N07150155WA0143501488001000119
B1447004228221N07150140WA0143701491001000120
B1447014228206N07150127WA0143801495001000121
B1447024228189N07150117WA0144301498001000120
B1447034228172N07150110WA0144601500001000120
B1447044228154N07150108WA0144901500001000119
B1447054228136N07150110WA0144901501001000119
B1447054228136N07150110WA0145001501001000119
B1447064228119N07150116WA0145001501001000118
B1447074228103N07150126WA0145101502001000117
B1447084228089N07150141WA0145201504001000114
B1447094228078N07150157WA0145301506001000109
B1447104228070N07150176WA0145501507001000105
B1447114228065N07150195WA0145701508001000101
B1447124228064N07150215WA0145701509001000097
B1447124228064N07150215WA0145701509001000097
B1447134228066N07150234WA0145701508001000093
B1447144228071N07150251WA0145801508001000092
B1447154228079N07150266WA0145801508001000091
B1447164228090N07150278WA0145901509001000089
B1447174228101N07150285WA0146001512001000086
B1447184228114N07150286WA0146101515001000084
B1447194228126N07150283WA0146401517001000084
B1447204228138N07150275WA0146601519001000087
B1447214228147N07150262WA0146801520001000091
B1447224228155N07150246WA0146901520001000096
B1447224228155N07150246WA0147001520001000096
B1447234228160N07150227WA0147001521001000101
B1447244228162N07150207WA0147101521001000106
B1447254228159N07150184WA0147301523001000115
B1447264228154N07150162WA0147501526001000119
B1447274228146N07150140WA0147701530001000120
B1447284228138N07150118WA0148101534001000120
B1447294228129N07150098WA0148601539001000119
B1447304228118N07150079WA0149101543001000120
B1447314228104N07150063WA0149501546001000121
B1447324228088N07150051WA0149701548001000123
B1447334228070N07150044WA0149901549001000123
B1447344228052N07150043WA0150001549001000123
B1447354228034N07150047WA0150101549001000123
B1447364228017N07150056WA0150101548001000121
B1447364228017N07150056WA0150101548001000121
B1447374228002N07150069WA0150101548001000119
B1447384227989N07150085WA0150001548001000115
B1447394227981N07150105WA0150101549001000111
B1447404227976N07150126WA0150201552001000105
B1447414227976N07150147WA0150201553001000100
B1447414227976N07150147WA0150401553001000100
B1447424227978N07150166WA0150501554001000094
B1447434227984N07150182WA0150501554001000090
B1447444227993N07150196WA0150501555001000087
F14474501020307081417192130133
B1447454228003N07150206WA0150501555001000086
B1447464228016N07150211WA0150601555001000087
B1447464228016N07150211WA0150701555001000087
B1447474228029N07150210WA0150701556001000089
B1447484228042N07150205WA0150701557001000092
B1447494228054N07150194WA0150801558001000096
B1447504228063N07150180WA0150901560001000100
B1447514228071N07150161WA0151201563001000105
B1447524228075N07150140WA0151301566001000109
B1447534228076N07150118WA0151701570001000112
B1447544228075N07150095WA0152101573001000115
B1447554228071N07150072WA0152301576001000119
B1447564228064N07150049WA0152701578001000123
B1447574228055N07150027WA0152901581001000125
B1447584228043N07150007WA0153201584001000126
B1447594228029N07149990WA0153501587001000127
B1447594228029N07149990WA0153801587001000127
B1448004228014N07149975WA0153801590001000127
B1448014227997N07149963WA0154101592001000127
B1448024227979N07149956WA0154201593001000126
B1448034227960N07149951WA0154401593001000125
B1448044227942N07149951WA0154401593001000125
B1448054227923N07149955WA0154501592001000124
B1448064227905N07149962WA0154501590001000123
B1448074227889N07149974WA0154401589001000122
B1448084227875N07149989WA0154301590001000118
B1448094227864N07150007WA0154301591001000113
B1448104227857N07150027WA0154401592001000107
B1448114227854N07150048WA0154501594001000102
B1448114227854N07150048WA0154801594001000102
B1448124227855N07150068WA0154801597001000096
B1448134227861N07150085WA0155001600001000092
B1448144227869N07150100WA0155301602001000089
B1448144227869N07150100WA0155501602001000089
B1448154227878N07150112WA0155501603001000086
B1448164227890N07150120WA0155601604001000085
B1448174227902N07150124WA0155601603001000086
B1448184227915N07150122WA0155601603001000090
B1448184227915N07150122WA0155601603001000090
B1448194227928N07150116WA0155601603001000094
B1448204227940N07150104WA0155601605001000099
B1448204227940N07150104WA0155601605001000099
B1448214227949N07150088WA0155801608001000103
B1448224227955N07150069WA0156101610001000107
B1448234227957N07150046WA0156301614001000112
B1448244227955N07150024WA0156601617001000115
B1448254227948N07150002WA0156901621001000118
B1448264227939N07149981WA0157301623001000120
B1448274227926N07149964WA0157601625001000121
B1448284227911N07149950WA0157801627001000122
B1448294227894N07149940WA0157901629001000123
B1448304227877N07149934WA0158001630001000122
B1448314227859N07149932WA0158101630001000121
B1448324227841N07149935WA0158101629001000120
B1448334227823N07149942WA0158101628001000119
B1448344227808N07149952WA0158001627001000116
B1448354227794N07149966WA0158001626001000113
B1448364227784N07149984WA0157901626001000109
B1448374227776N07150003WA0157901626001000105
B1448384227772N07150023WA0157901628001000101
B1448394227772N07150043WA0158001630001000096
B1448404227774N07150061WA0158101632001000091
B1448414227780N07150077WA0158401634001000087
B1448414227780N07150077WA0158501634001000087
B1448424227788N07150090WA0158501636001000084
B1448434227798N07150101WA0158901638001000083
B1448444227809N07150108WA0159001640001000082
B1448454227821N07150112WA0159101640001000082
F1448460102030607081417192130133
B1448464227833N07150111WA0159101639001000085
B1448474227846N07150106WA0159101638001000090
B1448474227846N07150106WA0159001638001000090
B1448484227858N07150096WA0159001638001000096
B1448494227867N07150080WA0159101639001000101
B1448504227874N07150061WA0159201643001000107
B1448514227876N07150039WA0159501646001000111
B1448524227875N07150016WA0159801650001000120
B1448534227869N07149994WA0160101653001000119
B1448544227861N07149973WA0160301655001000121
B1448554227849N07149954WA0160601657001000123
B1448564227834N07149938WA0160801659001000125
B1448574227817N07149927WA0161001661001000125
B1448584227800N07149920WA0161301663001000124
B1448594227781N07149917WA0161401664001000123
B1448594227781N07149917WA0161701664001000123
B1449004227763N07149919WA0161701666001000120
B1449014227746N07149924WA0161701667001000116
B1449024227730N07149934WA0161801667001000113
B1449034227716N07149946WA0161801665001000111
B1449044227704N07149961WA0161701663001000110
B1449054227694N07149979WA0161601663001000108
B1449064227688N07149998WA0161601663001000103
B1449074227685N07150018WA0161701665001000099
B1449084227685N07150038WA0161801667001000093
B1449094227688N07150055WA0161901669001000089
B1449104227693N07150071WA0162101671001000084
B1449114227700N07150084WA0162201673001000080
B1449124227709N07150095WA0162501674001000077
B1449134227720N07150101WA0162601676001000076
B1449134227720N07150101WA0162701676001000076
B1449144227731N07150105WA0162801677001000077
B1449154227743N07150105WA0162901677001000078
B1449164227754N07150103WA0163001677001000081
B1449174227767N07150101WA0163001677001000085
B1449184227780N07150099WA0163001678001000087
B1449194227793N07150096WA0163101679001000088
B1449194227793N07150096WA0163101679001000088
B1449204227806N07150094WA0163201681001000088
B1449214227819N07150090WA0163301683001000088
B1449224227832N07150087WA0163601687001000088
B1449234227844N07150082WA0163801690001000087
B1449244227857N07150077WA0164201693001000086
B1449254227869N07150073WA0164601696001000084
B1449264227881N07150068WA0164801699001000083
B1449274227893N07150066WA0165101701001000082
B1449284227905N07150066WA0165401701001000081
B1449294227918N07150069WA0165401700001000082
B1449304227929N07150076WA0165401699001000086
B1449304227929N07150076WA0165501699001000086
B1449314227940N07150087WA0165401696001000090
B1449324227950N07150099WA0165401695001000092
B1449334227962N07150110WA0165101694001000093
B1449344227974N07150119WA0164901693001000094
B1449354227987N07150125WA0164701691001000096
B1449364228001N07150130WA0164501687001000098
B1449374228016N07150132WA0164101684001000100
B1449384228031N07150133WA0163901681001000103
B1449394228047N07150131WA0163701682001000104
B1449404228062N07150128WA0163501682001000102
B1449414228077N07150125WA0163501682001000102
B1449424228092N07150122WA0163401680001000103
B1449424228092N07150122WA0163401680001000103
B1449434228108N07150118WA0163301677001000105
B1449444228124N07150114WA0163201676001000109
B1449454228140N07150109WA0163101676001000109
B1449454228140N07150109WA0163201676001000109
B1449464228155N07150104WA0163201679001000105
B1449474228170N07150098WA0163401684001000101
B1449474228170N07150098WA0163601684001000101
B1449484228184N07150091WA0163601686001000098
B1449494228197N07150082WA0163801687001000097
B1449504228210N07150073WA0164001687001000098
B1449514228222N07150063WA0164101689001000098
B1449524228235N07150053WA0164301691001000097
B1449534228247N07150043WA0164501694001000095
B1449534228247N07150043WA0164601694001000095
B1449544228259N07150034WA0164601695001000093
B1449554228272N07150026WA0164701695001000092
B1449564228285N07150018WA0164801694001000093
B1449574228297N07150010WA0164801695001000092
B1449584228310N07150002WA0164901697001000092
B1449594228321N07149992WA0165001698001000091
B1450004228333N07149983WA0165201699001000090
B1450014228344N07149973WA0165301700001000088
B1450024228356N07149966WA0165401702001000086
B1450034228368N07149959WA0165501703001000084
B1450044228380N07149954WA0165701704001000083
F14500501020306071417192130
B1450054228392N07149948WA0165701706001000083
B1450064228403N07149944WA0165901707001000082
B1450074228415N07149940WA0165901706001000082
B1450084228428N07149936WA0165901706001000084
B1450094228440N07149934WA0166001706001000085
B1450104228453N07149932WA0166101707001000086
B1450114228466N07149931WA0166101710001000085
B1450124228478N07149929WA0166301713001000083
B1450134228491N07149927WA0166501715001000081
B1450144228503N07149926WA0166701717001000080
B1450154228514N07149926WA0166901718001000078
B1450164228526N07149926WA0167101719001000078
B1450174228538N07149927WA0167201719001000078
B1450184228550N07149926WA0167201718001000079
B1450194228562N07149924WA0167201718001000082
B1450204228574N07149920WA0167301719001000085
B1450214228586N07149916WA0167301720001000087
B1450224228599N07149910WA0167401722001000088
B1450234228611N07149904WA0167501723001000088
B1450244228623N07149897WA0167601725001000088
B1450254228635N07149890WA0167901727001000088
B1450264228648N07149883WA0168001729001000086
B1450274228660N07149879WA0168301731001000084
B1450284228672N07149877WA0168401733001000082
B1450294228684N07149880WA0168701735001000081
B1450304228695N07149886WA0168901737001000081
B1450314228705N07149896WA0169101738001000084
B1450324228713N07149909WA0169201739001000088
B1450334228719N07149926WA0169401740001000092
B1450344228721N07149945WA0169601741001000096
B1450354228721N07149965WA0169701743001000101
B1450364228717N07149985WA0169901744001000106
B1450374228709N07150005WA0169901745001000110
B1450384228699N07150023WA0170001745001000115
B1450394228686N07150039WA0170201746001000120
B1450404228671N07150053WA0170101747001000122
B1450414228655N07150065WA0170201748001000126
B1450424228637N07150074WA0170301748001000128
B1450424228637N07150074WA0170301748001000128
B1450434228618N07150080WA0170401748001000130
B1450444228598N07150082WA0170401749001000130
B1450454228579N07150081WA0170601751001000128
B1450464228560N07150076WA0170701755001000126
B1450474228543N07150067WA0170901758001000123
B1450484228527N07150054WA0171101759001000122
B1450494228513N07150039WA0171301760001000120
B1450504228500N07150022WA0171501762001000119
B1450514228489N07150004WA0171601763001000117
B1450524228479N07149984WA0171701763001000115
B1450534228472N07149963WA0171701763001000113
B1450544228468N07149941WA0171701763001000113
B1450554228465N07149919WA0171701763001000112
B1450564228464N07149896WA0171801764001000111
B1450574228465N07149874WA0171801765001000109
B1450584228468N07149852WA0172001767001000106
B1450594228472N07149832WA0172101769001000104
B1450594228472N07149832WA0172301769001000104
B1451004228477N07149812WA0172301771001000103
B1451014228483N07149793WA0172501772001000101
B1451024228491N07149776WA0172601774001000098
B1451034228500N07149760WA0172801775001000096
B1451044228510N07149747WA0173001777001000093
B1451054228520N07149735WA0173101778001000091
B1451064228532N07149725WA0173201779001000090
B1451074228543N07149715WA0173301779001000090
B1451084228555N07149706WA0173401779001000089
B1451094228566N07149697WA0173501779001000089
B1451104228578N07149689WA0173601779001000088
B1451114228591N07149684WA0173501779001000087
B1451124228604N07149681WA0173501779001000085
B1451134228616N07149681WA0173501779001000084
B1451144228629N07149684WA0173401778001000084
B1451154228641N07149689WA0173601777001000084
B1451164228652N07149695WA0173601777001000082
B1451174228664N07149700WA0173601778001000080
B1451184228676N07149701WA0173601779001000078
B1451194228687N07149699WA0173501778001000079
B1451204228698N07149692WA0173301777001000082
B1451214228709N07149682WA0173101774001000088
B1451224228718N07149668WA0173001770001000094
B1451234228725N07149651WA0172601766001000101
B1451244228731N07149631WA0172201762001000107
B1451254228736N07149610WA0171901759001000112
B1451264228740N07149588WA0171601757001000115
B1451274228743N07149564WA0171301755001000118
B1451284228745N07149540WA0171101753001000120
B1451284228745N07149540WA0171101753001000120
B1451294228746N07149515WA0170901751001000122
B1451304228746N07149490WA0170701750001000123
B1451314228745N07149465WA0170601749001000124
B1451324228745N07149440WA0170401748001000124
B1451334228744N07149415WA0170301747001000125
B1451344228743N07149390WA0170101747001000125
B1451354228742N07149365WA0170001746001000125
B1451354228742N07149365WA0170001746001000125
B1451364228741N07149339WA0170001744001000124
B1451374228741N07149314WA0169901743001000124
B1451384228742N07149289WA0169701741001000125
B1451394228742N07149264WA0169501739001000126
B1451404228742N07149238WA0169401738001000126
B1451414228741N07149212WA0169301737001000127
B1451424228740N07149187WA0169101736001000127
B1451434228738N07149161WA0169001735001000127
B1451444228737N07149136WA0168801733001000126
B1451444228737N07149136WA0168601733001000126
B1451454228736N07149110WA0168601732001000125
B1451464228735N07149085WA0168401728001000125
B1451474228736N07149059WA0168201724001000127
B1451474228736N07149059WA0168201724001000127
B1451484228737N07149034WA0167801720001000129
B1451494228739N07149007WA0167501718001000130
B1451504228740N07148981WA0167201717001000129
B1451504228740N07148981WA0167101717001000129
B1451514228741N07148955WA0167101717001000128
B1451524228742N07148929WA0167001715001000127
B1451524228742N07148929WA0166701715001000127
B1451534228743N07148904WA0166701711001000127
B1451544228744N07148878WA0166401705001000128
B1451554228746N07148852WA0165901698001000130
B1451564228748N07148826WA0165201690001000133
B1451574228750N07148799WA0164701683001000137
B1451584228753N07148770WA0164001678001000143
B1451594228754N07148741WA0163301674001000148
B1452004228754N07148710WA0162901671001000151
B1452014228754N07148679WA0162601669001000152
B1452024228753N07148649WA0162301668001000152
B1452034228754N07148618WA0162101667001000150
B1452044228755N07148588WA0162001667001000149
B1452054228756N07148558WA0161901667001000147
B1452064228759N07148528WA0161901666001000146
B1452064228759N07148528WA0161901666001000146
B1452074228762N07148499WA0161901665001000145
B1452084228766N07148470WA0161801665001000144
B1452094228769N07148442WA0161801666001000142
B1452104228773N07148413WA0161801666001000140
B1452114228776N07148385WA0161801667001000140
B1452124228778N07148357WA0161801666001000140
B1452134228779N07148329WA0161701666001000140
B1452144228781N07148301WA0161701665001000141
F14521501020306071417192130133
B1452154228782N07148272WA0161601664001000141
B1452164228783N07148244WA0161501662001000141
B1452174228785N07148215WA0161401660001000140
B1452184228788N07148187WA0161201658001000140
B1452184228788N07148187WA0161201658001000140
B1452194228791N07148159WA0161001655001000140
B1452204228793N07148131WA0160901652001000140
B1452214228796N07148103WA0160601649001000142
B1452224228797N07148074WA0160201646001000143
B1452234228798N07148044WA0159901643001000145
B1452234228798N07148044WA0159501643001000145
B1452244228798N07148015WA0159301639001000146
B1452254228798N07147986WA0159101635001000147
B1452264228798N07147956WA0158701631001000148
B1452274228797N07147926WA0158301628001000148
B1452284228796N07147896WA0157901625001000149
B1452294228795N07147866WA0157601621001000150
B1452294228795N07147866WA0157401621001000150
B1452304228793N07147835WA0157301618001000150
B1452314228791N07147805WA0157101616001000148
B1452324228790N07147775WA0156801615001000146
B1452334228789N07147746WA0156701616001000143
B1452344228789N07147718WA0156601616001000140
B1452354228789N07147689WA0156601615001000138
B1452364228790N07147662WA0156601616001000136
B1452364228790N07147662WA0156601616001000136
B1452374228791N07147634WA0156601617001000134
B1452384228792N07147608WA0156501616001000132
B1452394228793N07147581WA0156501615001000131
B1452404228793N07147554WA0156601616001000131
B1452414228794N07147528WA0156501616001000132
B1452414228794N07147528WA0156501616001000132
B1452424228793N07147501WA0156501615001000133
B1452434228792N07147474WA0156501614001000135
B1452444228791N07147446WA0156401613001000137
B1452444228791N07147446WA0156301613001000137
B1452454228790N07147418WA0156301613001000137
B1452464228789N07147391WA0156301614001000135
B1452464228789N07147391WA0156401614001000135
B1452474228789N07147364WA0156401615001000133
B1452484228790N07147337WA0156501617001000130
B1452494228791N07147311WA0156701621001000126
B1452504228793N07147286WA0156901625001000122
B1452514228794N07147262WA0157401629001000118
B1452524228796N07147239WA0157901632001000112
B1452524228796N07147239WA0158001632001000112
B1452534228798N07147217WA0158001633001000108
B1452544228801N07147196WA0158101634001000106
B1452554228806N07147175WA0158201633001000105
B1452564228811N07147156WA0158201631001000104
B1452574228817N07147136WA0158101628001000103
B1452584228824N07147118WA0157901626001000103
B1452584228824N07147118WA0157901626001000103
B1452594228832N07147100WA0157801625001000104
B1453004228840N07147082WA0157701625001000102
B1453014228848N07147065WA0157801628001000099
B1453014228848N07147065WA0158001628001000099
B1453024228857N07147049WA0158001632001000095
B1453034228866N07147034WA0158201636001000091
B1453044228874N07147020WA0158701641001000089
B1453054228880N07147004WA0159001644001000091
B1453064228885N07146986WA0159401647001000095
B1453074228886N07146966WA0159601649001000102
B1453084228885N07146945WA0159801650001000107
B1453084228885N07146945WA0159801650001000107
B1453094228881N07146923WA0159901650001000113
B1453104228874N07146902WA0160001649001000119
B1453114228864N07146880WA0159901648001000122
B1453124228853N07146860WA0159801646001000125
B1453124228853N07146860WA0159701646001000125
B1453134228841N07146841WA0159601644001000126
B1453144228827N07146823WA0159501642001000130
B1453154228811N07146808WA0159401641001000134
F145316020306071417192130133
B1453164228793N07146795WA0159201640001000137
B1453174228773N07146785WA0159101640001000139
B1453174228773N07146785WA0159001640001000139
B1453184228753N07146777WA0159001639001000139
B1453194228733N07146772WA0158901638001000140
B1453204228712N07146769WA0158801636001000140
B1453214228691N07146769WA0158801636001000139
B1453214228691N07146769WA0158701636001000139
B1453224228670N07146770WA0158601636001000138
B1453234228650N07146773WA0158601636001000135
B1453244228630N07146779WA0158501636001000132
B1453254228611N07146788WA0158401636001000130
B1453264228593N07146798WA0158401635001000128
B1453264228593N07146798WA0158401635001000128
B1453274228576N07146810WA0158301635001000126
B1453284228560N07146823WA0158301634001000125
B1453294228545N07146837WA0158201632001000124
B1453304228531N07146853WA0158201630001000123
B1453304228531N07146853WA0158101630001000123
B1453314228518N07146870WA0158001628001000121
B1453314228518N07146870WA0157801628001000121
B1453324228506N07146889WA0157801627001000119
B1453324228506N07146889WA0157701627001000119
B1453334228496N07146908WA0157701625001000118
B1453344228487N07146929WA0157501623001000117
B1453354228479N07146950WA0157401622001000115
B1453354228479N07146950WA0157401622001000115
B1453354228479N07146950WA0157201622001000115
B1453364228471N07146971WA0157201620001000115
B1453374228464N07146992WA0157101619001000116
B1453384228457N07147014WA0157001618001000116
B1453394228450N07147035WA0156901619001000115
B1453404228444N07147057WA0157001619001000115
B1453404228444N07147057WA0157001619001000115
B1453414228438N07147079WA0157001620001000115
B1453414228438N07147079WA0157001620001000115
B1453424228431N07147100WA0157001620001000116
B1453434228424N07147122WA0157001620001000118
B1453444228414N07147143WA0157001618001000121
B1453444228414N07147143WA0156901618001000121
B1453454228404N07147163WA0156901616001000125
B1453464228392N07147184WA0156701614001000130
B1453464228392N07147184WA0156501614001000130
B1453474228379N07147203WA0156501613001000133
B1453484228364N07147223WA0156501613001000135
B1453484228364N07147223WA0156501613001000135
B1453494228350N07147242WA0156501614001000136
B1453504228335N07147260WA0156501616001000136
B1453504228335N07147260WA0156701616001000136
B1453514228320N07147279WA0156701619001000134
B1453524228304N07147296WA0157101621001000132
B1453534228288N07147311WA0157201623001000132
B1453534228288N07147311WA0157401623001000132
B1453544228270N07147323WA0157401623001000133
B1453554228251N07147332WA0157501624001000135
B1453554228251N07147332WA0157601624001000135
B1453564228231N07147337WA0157601626001000136
B1453574228211N07147338WA0157601627001000137
B1453584228190N07147335WA0157801628001000137
B1453584228190N07147335WA0157901628001000137
B1453594228171N07147326WA0157901629001000134
B1454004228153N07147314WA0157901629001000132
B1454004228153N07147314WA0157901629001000132
B1454014228138N07147298WA0157901627001000130
B1454024228125N07147279WA0157901627001000128
B1454034228114N07147257WA0158001628001000125
B1454044228108N07147234WA0158201632001000118
B1454044228108N07147234WA0158401632001000118
B1454054228106N07147212WA0158501636001000109
B1454064228108N07147191WA0158601638001000101
B1454064228108N07147191WA0158801638001000101
B1454074228113N07147172WA0158801638001000096
B1454084228121N07147157WA0158901637001000093
B1454094228131N07147144WA0158901636001000091
B1454104228142N07147134WA0158801635001000090
B1454114228155N07147128WA0158701634001000089
B1454114228155N07147128WA0158501634001000089
B1454124228168N07147126WA0158501632001000090
B1454134228182N07147128WA0158401631001000091
B1454144228195N07147134WA0158501631001000093
B1454144228195N07147134WA0158501631001000093
B1454144228195N07147134WA0158501631001000093
B1454154228207N07147144WA0158501633001000093
B1454164228217N07147157WA0158601636001000093
F145417010306071417192130133
B1454174228224N07147173WA0158801640001000093
B1454184228230N07147190WA0159001643001000093
B1454184228230N07147190WA0159201643001000093
B1454194228234N07147208WA0159201646001000094
B1454204228235N07147227WA0159501647001000097
B1454204228235N07147227WA0159601647001000097
B1454214228234N07147247WA0159601647001000102
B1454224228229N07147268WA0159701646001000107
B1454234228222N07147288WA0159801645001000113
B1454244228213N07147308WA0159701643001000119
B1454254228201N07147327WA0159501641001000124
B1454264228188N07147345WA0159401639001000128
B1454264228188N07147345WA0159401639001000128
B1454264228188N07147345WA0159101639001000128
B1454274228172N07147362WA0159101635001000135
B1454284228154N07147376WA0158801632001000140
B1454294228135N07147389WA0158501630001000144
B1454294228135N07147389WA0158501630001000144
B1454304228114N07147398WA0158301629001000147
B1454314228092N07147405WA0158301629001000149
B1454324228070N07147406WA0158201630001000148
B1454324228070N07147406WA0158301630001000148
B1454334228048N07147402WA0158301632001000146
B1454344228028N07147392WA0158401633001000142
B1454354228010N07147379WA0158601635001000137
B1454364227994N07147362WA0158701636001000131
B1454374227982N07147342WA0158701635001000127
B1454384227972N07147320WA0158701633001000123
B1454394227966N07147297WA0158601633001000119
B1454394227966N07147297WA0158701633001000119
B1454404227963N07147274WA0158701633001000116
B1454414227963N07147251WA0158701634001000113
B1454424227965N07147229WA0158801636001000108
B1454434227969N07147208WA0158901639001000103
B1454434227969N07147208WA0159201639001000103
B1454444227975N07147190WA0159201642001000097
B1454454227984N07147175WA0159401645001000092
B1454464227994N07147163WA0159701648001000088
B1454474228005N07147154WA0159901650001000086
B1454484228017N07147146WA0160001651001000085
B1454494228029N07147141WA0160101651001000084
B1454504228041N07147140WA0160201652001000083
B1454514228054N07147143WA0160201651001000084
B1454514228054N07147143WA0160201651001000084
B1454524228065N07147149WA0160301650001000085
B1454534228076N07147158WA0160201650001000088
B1454544228086N07147171WA0160301651001000091
B1454554228094N07147186WA0160301652001000092
B1454564228100N07147203WA0160401653001000094
B1454574228104N07147222WA0160501653001000096
B1454584228107N07147241WA0160401652001000099
B1454594228109N07147261WA0160501651001000101
B1455004228111N07147282WA0160401650001000104
B1455004228111N07147282WA0160401650001000104
B1455014228111N07147303WA0160401650001000107
B1455024228109N07147325WA0160301650001000109
B1455024228109N07147325WA0160301650001000109
B1455034228107N07147347WA0160401650001000110
B1455044228105N07147369WA0160301647001000110
B1455044228105N07147369WA0160301647001000110
B1455054228104N07147391WA0160301645001000108
B1455054228104N07147391WA0160001645001000108
B1455064228105N07147413WA0159901643001000106
B1455074228106N07147434WA0159701641001000105
B1455084228109N07147455WA0159501638001000105
B1455094228111N07147476WA0159201634001000106
B1455094228111N07147476WA0158901634001000106
B1455104228114N07147497WA0158701630001000108
B1455114228117N07147519WA0158601625001000110
B1455124228120N07147541WA0158101621001000111
B1455124228120N07147541WA0157701621001000111
B1455134228123N07147563WA0157701618001000110
B1455144228127N07147584WA0157401617001000109
B1455154228131N07147606WA0157101617001000107
B1455164228134N07147627WA0157001616001000107
B1455174228139N07147648WA0156901615001000108
B1455184228143N07147669WA0156701612001000109
B1455184228143N07147669WA0156501612001000109
B1455194228147N07147690WA0156501610001000111
B1455204228152N07147712WA0156301608001000111
B1455214228157N07147733WA0156201607001000110
B1455224228163N07147754WA0155901606001000109
B1455234228169N07147774WA0155801605001000108
B1455244228175N07147794WA0155601603001000107
B1455254228181N07147815WA0155501601001000107
B1455254228181N07147815WA0155401601001000107
B1455264228187N07147835WA0155201598001000107
B1455274228192N07147855WA0154901594001000109
B1455284228197N07147877WA0154601589001000111
B1455294228201N07147899WA0154201584001000114
B1455304228205N07147921WA0153901579001000114
B1455314228210N07147944WA0153401575001000115
B1455324228215N07147966WA0152801572001000116
B1455324228215N07147966WA0152501572001000116
B1455334228220N07147988WA0152401569001000115
B1455344228227N07148010WA0152101566001000114
B1455354228233N07148031WA0151801563001000113
B1455364228240N07148052WA0151601561001000114
B1455374228247N07148073WA0151201559001000114
B1455384228254N07148094WA0151001557001000115
B1455394228261N07148115WA0150801554001000116
B1455404228268N07148137WA0150401551001000118
B1455414228275N07148160WA0150101547001000120
B1455414228275N07148160WA0150101547001000120
B1455424228282N07148182WA0149901545001000122
B1455434228289N07148205WA0149701544001000122
B1455444228296N07148228WA0149501543001000121
B1455454228303N07148250WA0149401543001000121
B1455464228310N07148273WA0149501546001000119
B1455474228316N07148295WA0149601547001000117
B1455484228323N07148317WA0149701549001000114
B1455484228323N07148317WA0149901549001000114
B1455494228329N07148338WA0149901551001000111
B1455504228336N07148358WA0150001552001000108
B1455514228343N07148377WA0150101553001000106
B1455524228350N07148396WA0150101552001000104
B1455534228357N07148415WA0150001551001000104
B1455544228363N07148435WA0149901548001000106
B1455554228369N07148454WA0149801545001000107
B1455564228376N07148474WA0149501542001000108
B1455574228382N07148495WA0149301539001000110
B1455584228388N07148516WA0149101538001000112
B1455594228395N07148536WA0148901538001000111
B1456004228401N07148557WA0148801539001000110
B1456014228407N07148578WA0148801540001000109
B1456024228413N07148598WA0148801540001000107
B1456034228419N07148618WA0148801539001000106
B1456044228424N07148638WA0148801539001000106
B1456054228430N07148658WA0148701538001000105
B1456064228435N07148678WA0148701537001000105
B1456074228441N07148698WA0148501535001000105
B1456084228447N07148718WA0148301532001000106
B1456084228447N07148718WA0148201532001000106
B1456094228454N07148738WA0148201528001000109
B1456104228461N07148758WA0147701522001000112
B1456114228468N07148779WA0147401516001000117
B1456124228476N07148801WA0146801510001000121
B1456134228484N07148823WA0146401507001000124
B1456144228493N07148846WA0145901506001000125
B1456154228500N07148869WA0145701506001000124
B1456164228507N07148892WA0145601507001000121
B1456174228513N07148914WA0145601508001000117
B1456184228519N07148936WA0145601510001000113
B1456194228526N07148957WA0145701512001000109
B1456204228532N07148977WA0145801511001000107
B1456214228538N07148997WA0145701508001000107
B1456224228545N07149017WA0145501504001000108
B1456234228551N07149037WA0145401499001000110
B1456244228557N07149058WA0145001496001000111
B1456254228564N07149079WA0144701494001000111
B1456264228569N07149100WA0144501493001000109
B1456274228575N07149120WA0144401494001000107
B1456284228580N07149141WA0144301494001000105
B1456294228585N07149161WA0144301495001000102
B1456304228589N07149180WA0144401496001000101
B1456314228593N07149200WA0144401496001000099
B1456324228597N07149219WA0144501495001000099
B1456334228602N07149239WA0144401493001000101
B1456344228606N07149258WA0144201490001000103
B1456354228612N07149278WA0144101487001000105
B1456364228618N07149298WA0143801484001000107
B1456374228625N07149318WA0143601481001000109
B1456384228633N07149337WA0143301480001000110
B1456394228641N07149357WA0143001479001000112
B1456404228649N07149377WA0142901479001000112
B1456414228657N07149397WA0142901480001000112
B1456414228657N07149397WA0142901480001000112
B1456424228664N07149417WA0142901481001000111
B1456434228672N07149437WA0143001482001000111
B1456444228679N07149457WA0143101483001000110
B1456454228686N07149477WA0143201484001000109
B1456464228694N07149497WA0143201484001000107
B1456474228701N07149516WA0143201484001000106
B1456484228709N07149534WA0143201482001000105
B1456494228718N07149552WA0143101480001000105
B1456504228727N07149569WA0143001477001000104
B1456514228737N07149586WA0142701474001000105
B1456524228747N07149602WA0142501471001000106
B1456534228757N07149619WA0142301471001000106
B1456544228767N07149635WA0142201472001000103
B1456554228777N07149651WA0142301475001000101
B1456564228786N07149667WA0142501478001000099
B1456574228795N07149682WA0142601482001000096
B1456584228804N07149698WA0143001486001000095
B1456594228812N07149712WA0143401492001000089
B1457004228821N07149725WA0143901498001000084
B1457014228830N07149736WA0144301504001000078
B1457024228838N07149747WA0145101510001000072
B1457034228845N07149757WA0145601515001000069
B1457044228850N07149770WA0146101518001000071
B1457054228852N07149785WA0146401518001000077
B1457064228851N07149801WA0146701519001000084
B1457074228848N07149818WA0146801519001000092
B1457084228841N07149835WA0146901520001000099
B1457094228831N07149851WA0146901521001000105
B1457104228819N07149866WA0147101522001000110
B1457114228804N07149878WA0147201524001000117
B1457124228787N07149886WA0147501526001000122
B1457134228769N07149890WA0147601528001000125
B1457144228750N07149890WA0147901530001000126
B1457154228731N07149886WA0148001533001000126
B1457164228713N07149878WA0148301534001000127
B1457174228697N07149866WA0148301534001000128
B1457184228681N07149850WA0148401532001000129
B1457194228667N07149832WA0148301529001000129
B1457204228655N07149811WA0148101527001000130
B1457214228645N07149789WA0148001525001000127
B1457224228637N07149766WA0147801526001000122
B1457234228632N07149743WA0147801528001000115
B1457244228630N07149721WA0148001531001000108
B1457254228629N07149700WA0148201534001000100
B1457264228631N07149681WA0148501537001000095
B1457274228633N07149662WA0148801540001000090
B1457284228636N07149645WA0149001543001000086
B1457294228640N07149629WA0149301545001000081
B1457294228640N07149629WA0149601545001000081
B1457304228644N07149614WA0149601547001000078
B1457314228650N07149601WA0149901550001000073
B1457324228656N07149590WA0150201552001000066
B1457334228664N07149583WA0150401554001000060
B1457344228672N07149580WA0150501554001000058
B1457354228681N07149582WA0150601553001000061
B1457364228689N07149589WA0150601552001000068
B1457374228696N07149600WA0150601553001000076
B1457384228700N07149615WA0150701556001000080
B1457394228700N07149632WA0150901560001000087
B1457404228697N07149650WA0151101563001000092
B1457414228690N07149667WA0151401564001000099
B1457424228679N07149682WA0151601565001000107
B1457434228666N07149695WA0151701565001000114
B1457444228649N07149705WA0151801565001000121
B1457454228631N07149710WA0151801566001000127
B1457464228612N07149711WA0151801566001000130
B1457474228592N07149708WA0151901567001000133
B1457484228573N07149699WA0152001568001000134
B1457494228555N07149687WA0152101568001000134
B1457504228538N07149672WA0152001568001000133
B1457514228523N07149655WA0152101568001000130
B1457524228510N07149635WA0152201569001000128
B1457534228500N07149614WA0152301571001000123
B1457544228493N07149592WA0152401574001000118
B1457554228486N07149570WA0152501575001000115
B1457564228481N07149548WA0152701575001000113
B1457574228476N07149526WA0152801575001000112
B1457584228473N07149504WA0152901575001000109
B1457594228471N07149483WA0152901575001000104
B1458004228471N07149463WA0152801574001000099
B1458014228472N07149443WA0152601572001000097
B1458024228475N07149424WA0152601570001000096
B1458034228479N07149406WA0152501569001000094
B1458044228483N07149388WA0152301568001000093
B1458054228489N07149371WA0152301568001000091
B1458064228496N07149355WA0152301568001000089
B1458074228504N07149341WA0152201569001000087
B1458084228513N07149328WA0152201569001000085
B1458094228523N07149318WA0152201568001000081
B1458104228533N07149311WA0152101567001000078
B1458114228545N07149307WA0152101567001000077
B1458124228556N07149307WA0152101567001000076
B1458134228567N07149308WA0152201567001000074
B1458144228578N07149311WA0152201567001000074
B1458154228589N07149314WA0152201567001000072
B1458164228599N07149316WA0152201570001000070
B1458174228610N07149317WA0152301572001000068
B1458184228620N07149316WA0152401574001000067
B1458194228630N07149314WA0152601576001000068
B1458204228640N07149312WA0152801579001000068
B1458214228650N07149310WA0153001582001000067
B1458224228659N07149308WA0153201584001000066
B1458234228669N07149306WA0153501585001000065
B1458244228679N07149304WA0153701586001000064
F145825010306071417192130
B1458254228688N07149304WA0153801586001000062
B1458264228697N07149305WA0153801586001000061
B1458274228706N07149307WA0153701585001000061
B1458284228716N07149310WA0153701583001000063
B1458294228725N07149313WA0153501581001000063
B1458294228725N07149313WA0153501581001000063
B1458304228734N07149318WA0153501581001000064
B1458314228742N07149323WA0153501582001000063
B1458314228742N07149323WA0153501582001000063
B1458324228750N07149329WA0153501584001000062
B1458334228757N07149337WA0153501585001000061
B1458344228764N07149345WA0153601586001000060
B1458354228770N07149353WA0153701586001000060
B1458364228777N07149362WA0153701587001000060
B1458374228783N07149371WA0153801587001000059
B1458384228790N07149378WA0153701586001000059
B1458394228797N07149384WA0153701585001000060
B1458404228806N07149389WA0153601584001000064
B1458414228816N07149392WA0153601583001000067
B1458424228826N07149394WA0153601584001000070
B1458434228836N07149394WA0153601586001000070
B1458444228847N07149393WA0153701589001000069
B1458454228857N07149392WA0154001591001000067
B1458464228867N07149390WA0154201594001000066
B1458474228876N07149386WA0154401596001000066
B1458484228885N07149380WA0154601598001000070
B1458494228894N07149371WA0154801598001000077
B1458504228901N07149357WA0154901598001000086
B1458514228906N07149340WA0155001598001000095
B1458524228909N07149320WA0155101599001000103
B1458534228910N07149298WA0155101599001000108
B1458544228908N07149276WA0155201599001000113
B1458554228903N07149254WA0155201600001000117
B1458564228895N07149232WA0155301601001000120
B1458574228885N07149211WA0155401602001000122
B1458584228872N07149193WA0155401603001000124
B1458594228857N07149178WA0155501603001000126
B1459004228841N07149165WA0155501603001000125
B1459014228825N07149154WA0155601604001000124
B1459024228807N07149145WA0155601606001000122
B1459034228790N07149139WA0155701608001000119
B1459044228772N07149136WA0155801609001000117
B1459054228755N07149135WA0155801609001000115
B1459064228738N07149137WA0155901608001000113
B1459074228721N07149141WA0155901606001000112
B1459084228705N07149146WA0155801604001000113
B1459094228688N07149151WA0155501600001000117
B1459104228670N07149156WA0155201595001000121
B1459114228652N07149159WA0154801590001000127
B1459124228633N07149162WA0154401585001000132
B1459134228613N07149164WA0154101582001000135
B1459144228592N07149165WA0153701580001000136
B1459154228572N07149164WA0153501579001000137
B1459164228551N07149163WA0153201577001000138
B1459174228530N07149162WA0153101576001000138
B1459184228510N07149160WA0152901575001000137
B1459194228489N07149160WA0152801574001000136
B1459204228469N07149159WA0152701574001000134
B1459214228449N07149159WA0152701574001000134
B1459224228428N07149159WA0152701575001000134
B1459234228408N07149159WA0152701576001000134
B1459244228388N07149158WA0152801577001000134
B1459254228368N07149157WA0152801578001000134
F145926010306071417192130133
B1459264228348N07149156WA0152901580001000133
B1459274228328N07149155WA0153101581001000133
B1459284228308N07149155WA0153201583001000131
B1459294228289N07149155WA0153401585001000130
B1459304228269N07149155WA0153501586001000129
B1459314228250N07149155WA0153701586001000129
B1459324228231N07149154WA0153701585001000130
B1459334228211N07149154WA0153601584001000131
B1459344228191N07149153WA0153501581001000133
B1459354228171N07149152WA0153301578001000134
B1459364228151N07149152WA0153101576001000135
B1459374228131N07149152WA0153001575001000135
B1459384228110N07149152WA0152801574001000134
B1459394228090N07149152WA0152701573001000133
B1459404228070N07149154WA0152601573001000132
B1459414228051N07149155WA0152601573001000130
B1459414228051N07149155WA0152501573001000130
B1459424228031N07149157WA0152501573001000129
B1459434228012N07149159WA0152401573001000127
B1459444227993N07149162WA0152401573001000127
B1459454227974N07149165WA0152401573001000127
B1459464227955N07149167WA0152401573001000128
B1459474227936N07149169WA0152301572001000129
B1459484227917N07149171WA0152301572001000130
B1459494227897N07149172WA0152301572001000130
B1459504227878N07149172WA0152201571001000129
B1459504227878N07149172WA0152201571001000129
B1459514227858N07149173WA0152201571001000130
B1459524227839N07149174WA0152201570001000131
B1459534227819N07149175WA0152201570001000131
B1459544227800N07149175WA0152101570001000131
B1459554227780N07149176WA0152101569001000132
B1459564227760N07149176WA0152101569001000132
B1459574227740N07149176WA0152001569001000133
B1459584227720N07149176WA0152001569001000134
B1459594227700N07149176WA0152001568001000136
B1500004227679N07149176WA0152001568001000137
B1500014227659N07149174WA0152001569001000136
B1500024227639N07149172WA0152001571001000135
B1500034227619N07149169WA0152101572001000133
B1500044227599N07149166WA0152201574001000132
B1500044227599N07149166WA0152201574001000132
B1500054227579N07149164WA0152301574001000131
B1500064227560N07149163WA0152301573001000131
B1500064227560N07149163WA0152301573001000131
B1500074227540N07149162WA0152301571001000133
B1500084227520N07149161WA0152101568001000135
B1500094227499N07149161WA0151801563001000138
B1500104227478N07149161WA0151401558001000141
B1500114227457N07149161WA0151001554001000144
B1500124227435N07149160WA0150701553001000145
B1500134227413N07149159WA0150501553001000145
B1500144227391N07149158WA0150401553001000144
B1500154227370N07149156WA0150401555001000143
B1500164227349N07149153WA0150401557001000141
B1500174227328N07149149WA0150601559001000139
B1500184227308N07149145WA0150701559001000137
B1500194227288N07149140WA0150801559001000135
B1500194227288N07149140WA0150801559001000135
B1500204227268N07149136WA0150801559001000135
B1500214227248N07149132WA0150901560001000134
B1500224227228N07149129WA0150901559001000133
B1500224227228N07149129WA0150801559001000133
B1500234227208N07149126WA0150801558001000133
B1500244227188N07149125WA0150801556001000133
B1500254227168N07149124WA0150601555001000132
B1500264227148N07149124WA0150501553001000132
B1500274227129N07149125WA0150301552001000132
B1500284227109N07149125WA0150201550001000132
B1500294227089N07149126WA0149901547001000133
B1500304227069N07149127WA0149801545001000136
B1500314227048N07149126WA0149601542001000138
B1500324227027N07149124WA0149301541001000140
B1500334227006N07149119WA0149101540001000142
B1500344226986N07149112WA0149101539001000142
B1500354226965N07149103WA0149001538001000143
B1500364226946N07149091WA0148901537001000143
B1500374226927N07149077WA0148701534001000143
B1500384226909N07149062WA0148501531001000143
B1500394226891N07149047WA0148301529001000143
B1500404226873N07149031WA0148101528001000142
B1500414226855N07149015WA0148001527001000141
B1500424226837N07149000WA0147901527001000140
B1500434226819N07148986WA0147901529001000136
B1500444226802N07148972WA0148001532001000132
B1500454226786N07148957WA0148201535001000127
B1500464226771N07148943WA0148601539001000123
B1500474226756N07148929WA0148801543001000120
B1500484226741N07148915WA0149101545001000118
B1500494226727N07148902WA0149201544001000118
B1500504226712N07148889WA0149301542001000119
B1500514226696N07148877WA0149201541001000121
B1500524226680N07148865WA0149201539001000122
B1500524226680N07148865WA0149101539001000122
B1500534226664N07148853WA0149101538001000123
B1500544226648N07148841WA0148901537001000123
B1500554226631N07148830WA0148701534001000124
B1500564226615N07148818WA0148401531001000125
B1500574226598N07148807WA0148201527001000129
B1500584226580N07148796WA0147901524001000134
B1500594226561N07148784WA0147601522001000137
B1501004226543N07148772WA0147601523001000137
B1501014226525N07148759WA0147701529001000131
B1501024226508N07148747WA0147901535001000126
B1501034226492N07148735WA0148401540001000121
B1501044226476N07148723WA0148701543001000119
B1501054226461N07148713WA0149201545001000118
B1501064226445N07148702WA0149401546001000118
B1501074226429N07148692WA0149601548001000120
B1501084226412N07148682WA0149801549001000120
B1501094226396N07148671WA0150001552001000121
B1501104226380N07148661WA0150201556001000120
B1501114226364N07148649WA0150901561001000120
B1501124226349N07148635WA0151301567001000118
B1501134226338N07148617WA0151801573001000115
B1501144226329N07148597WA0152301578001000111
F1501150103061417192130133
B1501154226324N07148577WA0152801582001000106
B1501154226324N07148577WA0153201582001000106
B1501164226322N07148556WA0153201585001000102
B1501174226323N07148536WA0153601587001000099
B1501184226328N07148517WA0153801587001000096
B1501194226335N07148501WA0153901586001000091
B1501204226344N07148487WA0153901584001000087
B1501214226355N07148478WA0153701583001000083
B1501224226366N07148472WA0153601581001000078
B1501234226377N07148470WA0153501579001000074
B1501244226388N07148473WA0153401577001000072
B1501254226397N07148479WA0153101574001000072
B1501264226405N07148489WA0152801570001000075
B1501274226411N07148503WA0152501567001000079
B1501284226412N07148519WA0152201565001000085
B1501294226411N07148537WA0152001563001000091
B1501304226406N07148555WA0151801562001000096
B1501314226398N07148572WA0151701561001000102
B1501324226387N07148588WA0151501561001000106
B1501334226374N07148601WA0151401561001000110
B1501334226374N07148601WA0151401561001000110
B1501344226359N07148611WA0151401560001000114
B1501354226343N07148619WA0151301560001000118
B1501364226326N07148626WA0151301560001000120
B1501374226308N07148631WA0151401562001000121
B1501384226290N07148635WA0151501566001000119
B1501394226273N07148639WA0152001570001000116
B1501404226256N07148643WA0152301575001000113
B1501414226240N07148648WA0152601579001000109
B1501424226224N07148654WA0153101582001000105
B1501434226209N07148660WA0153401585001000102
B1501444226195N07148666WA0153801588001000101
B1501454226180N07148670WA0154101591001000100
B1501464226165N07148673WA0154201592001000102
B1501474226150N07148672WA0154201591001000106
B1501484226133N07148668WA0154101588001000112
B1501494226117N07148660WA0154001584001000116
B1501504226102N07148649WA0153701581001000120
B1501514226087N07148634WA0153501579001000122
B1501524226075N07148616WA0153401579001000123
B1501534226065N07148595WA0153301583001000120
B1501544226057N07148574WA0153301586001000115
B1501554226053N07148552WA0153401587001000110
B1501564226052N07148530WA0153501587001000107
B1501574226053N07148509WA0153601587001000104
B1501584226056N07148489WA0153601585001000101
B1501594226061N07148470WA0153501584001000098
B1502004226068N07148453WA0153401582001000096
B1502014226076N07148438WA0153301581001000093
B1502024226086N07148425WA0153201581001000089
B1502034226097N07148415WA0153201581001000085
B1502044226108N07148409WA0153201582001000081
B1502054226120N07148404WA0153301584001000077
B1502054226120N07148404WA0153501584001000077
B1502064226131N07148403WA0153501586001000073
B1502074226141N07148404WA0153701589001000069
B1502084226151N07148407WA0154001591001000066
B1502094226160N07148411WA0154101592001000063
B1502104226170N07148415WA0154201593001000063
B1502114226179N07148417WA0154301593001000065
B1502124226189N07148416WA0154301592001000068
B1502134226199N07148414WA0154201590001000073
B1502144226210N07148408WA0154101588001000076
B1502154226220N07148401WA0153801585001000080
B1502164226230N07148391WA0153601582001000084
B1502174226239N07148378WA0153301580001000088
B1502184226247N07148364WA0153101576001000090
B1502194226254N07148348WA0152601570001000094
B1502204226261N07148331WA0152201564001000098
B1502214226267N07148312WA0151701557001000103
B1502224226274N07148292WA0151101551001000108
B1502234226280N07148272WA0150601546001000111
B1502244226287N07148251WA0149901542001000112
B1502254226294N07148230WA0149601539001000112
B1502264226301N07148209WA0149101535001000112
B1502274226307N07148188WA0148801531001000113
B1502284226314N07148167WA0148401527001000115
B1502294226321N07148146WA0148101524001000117
B1502304226328N07148124WA0147901524001000116
B1502314226335N07148103WA0147801525001000113
B1502324226341N07148082WA0147701525001000110
B1502334226348N07148062WA0147601524001000109
B1502344226354N07148042WA0147401521001000109
B1502354226361N07148021WA0147201517001000110
B1502364226368N07148001WA0147001513001000111
B1502374226375N07147980WA0146601510001000113
B1502384226381N07147959WA0146401507001000114
B1502394226387N07147937WA0146201506001000115
B1502404226393N07147915WA0146001506001000114
B1502414226399N07147894WA0145801504001000112
B1502414226399N07147894WA0145601504001000112
B1502424226405N07147873WA0145601501001000113
B1502434226411N07147851WA0145501499001000113
B1502444226417N07147830WA0145301498001000113
B1502454226424N07147809WA0145101497001000113
B1502464226430N07147787WA0145001496001000113
B1502474226437N07147766WA0144901495001000113
B1502484226443N07147745WA0144801494001000113
B1502494226449N07147724WA0144801494001000113
B1502504226456N07147703WA0144801495001000112
B1502514226462N07147682WA0144801495001000111
B1502524226468N07147661WA0144701494001000110
B1502534226474N07147640WA0144601493001000111
B1502544226479N07147619WA0144501491001000111
F1502550103061417192130
B1502554226485N07147598WA0144401489001000112
B1502564226491N07147576WA0144201487001000113
B1502574226496N07147555WA0144101485001000114
B1502584226502N07147533WA0143901483001000113
B1502594226508N07147511WA0143701481001000114
B1503004226513N07147489WA0143401478001000115
B1503014226519N07147467WA0143201476001000115
B1503024226524N07147445WA0143001472001000115
B1503034226531N07147423WA0142601469001000115
B1503044226538N07147402WA0142401466001000116
B1503054226545N07147381WA0142201464001000116
B1503064226553N07147360WA0142001463001000116
B1503074226561N07147339WA0141701461001000116
B1503084226568N07147318WA0141501459001000117
B1503094226576N07147296WA0141301456001000118
B1503104226583N07147274WA0141101455001000118
B1503114226591N07147253WA0140901453001000117
B1503124226598N07147232WA0140701451001000117
B1503134226606N07147210WA0140501449001000117
B1503144226614N07147190WA0140401449001000115
B1503154226622N07147169WA0140301448001000114
B1503164226630N07147149WA0140301448001000114
B1503174226638N07147128WA0140201449001000114
B1503184226645N07147107WA0140201450001000115
B1503194226652N07147085WA0140301450001000114
B1503204226658N07147064WA0140301450001000113
B1503214226665N07147043WA0140301451001000112
B1503224226671N07147022WA0140301451001000111
B1503234226678N07147001WA0140301450001000112
B1503244226684N07146980WA0140301450001000112
B1503254226691N07146960WA0140401451001000112
B1503264226698N07146939WA0140501453001000110
B1503274226705N07146919WA0140601455001000108
B1503284226712N07146900WA0140701457001000107
B1503294226719N07146880WA0140901459001000107
B1503304226726N07146861WA0141001461001000106
B1503314226733N07146841WA0141201462001000105
B1503324226740N07146823WA0141401464001000104
B1503334226747N07146804WA0141501466001000102
B1503334226747N07146804WA0141701466001000102
B1503344226755N07146787WA0141701468001000100
B1503354226762N07146769WA0142001470001000100
B1503364226768N07146750WA0142101472001000101
B1503374226774N07146731WA0142301474001000102
B1503384226779N07146711WA0142601476001000103
B1503394226784N07146691WA0142801479001000103
B1503404226790N07146672WA0143101482001000101
B1503414226796N07146654WA0143301485001000100
B1503414226796N07146654WA0143501485001000100
B1503424226802N07146636WA0143501487001000100
B1503434226809N07146617WA0143901490001000100
B1503444226816N07146599WA0144201493001000099
B1503454226823N07146582WA0144601497001000097
B1503464226832N07146567WA0145001502001000092
B1503474226842N07146555WA0145401507001000087
B1503484226852N07146546WA0145901512001000082
B1503494226864N07146542WA0146301516001000079
B1503504226875N07146541WA0146601519001000078
B1503514226886N07146546WA0147101522001000079
B1503524226896N07146555WA0147501526001000081
B1503534226904N07146568WA0147801532001000083
B1503544226908N07146584WA0148201537001000085
B1503554226910N07146602WA0148901542001000090
F150356010306141719212430133
B1503564226907N07146621WA0149201547001000095
B1503574226902N07146639WA0149801550001000098
B1503584226893N07146655WA0150101552001000104
B1503594226880N07146670WA0150401553001000112
B1504004226865N07146681WA0150601555001000117
B1504014226848N07146690WA0150901557001000120
B1504024226831N07146694WA0151101559001000121
B1504034226812N07146694WA0151201560001000121
B1504044226794N07146690WA0151301561001000122
B1504054226777N07146682WA0151301560001000124
B1504064226761N07146670WA0151401560001000126
B1504074226746N07146653WA0151401560001000126
B1504084226734N07146634WA0151501563001000125
B1504094226724N07146613WA0151701566001000122
B1504104226716N07146591WA0151901570001000119
B1504114226711N07146568WA0152301574001000115
B1504124226711N07146545WA0152701578001000110
B1504134226715N07146524WA0153101582001000105
B1504144226721N07146506WA0153401586001000099
B1504154226730N07146491WA0154001590001000093
B1504164226741N07146480WA0154301593001000088
B1504174226753N07146474WA0154701597001000083
B1504184226765N07146473WA0155001601001000080
B1504194226776N07146479WA0155301605001000079
B1504204226785N07146488WA0155801610001000080
B1504214226792N07146502WA0156301615001000083
B1504224226795N07146519WA0156701618001000087
B1504234226795N07146537WA0157001622001000093
B1504244226791N07146556WA0157501626001000100
B1504254226784N07146574WA0157801628001000105
B1504264226774N07146591WA0158101631001000110
B1504274226760N07146605WA0158401634001000115
B1504284226744N07146615WA0158701636001000120
B1504294226726N07146620WA0158901637001000124
B1504304226707N07146620WA0159101639001000126
B1504314226689N07146615WA0159401642001000126
B1504324226671N07146605WA0159601645001000124
B1504334226656N07146591WA0159901648001000123
B1504344226644N07146573WA0160101650001000120
B1504354226636N07146551WA0160501653001000117
B1504364226632N07146529WA0160801657001000111
B1504374226634N07146507WA0161101660001000105
B1504384226639N07146489WA0161701664001000097
B1504394226649N07146475WA0161901669001000090
B1504404226660N07146465WA0162201673001000083
B1504414226671N07146461WA0162701676001000079
B1504424226682N07146462WA0163001679001000077
B1504434226693N07146469WA0163401682001000078
B1504444226701N07146481WA0163601685001000081
B1504454226706N07146497WA0164001688001000086
B1504464226707N07146515WA0164201690001000092
B1504474226705N07146534WA0164501692001000100
B1504484226698N07146553WA0164701693001000108
B1504494226688N07146571WA0164901694001000114
B1504504226674N07146585WA0165001696001000119
B1504514226657N07146595WA0165201698001000123
B1504524226639N07146600WA0165401701001000125
B1504534226620N07146600WA0165601704001000126
B1504544226601N07146595WA0165901707001000126
B1504554226584N07146585WA0166201709001000125
B1504564226569N07146570WA0166501712001000123
B1504574226556N07146552WA0166801716001000120
B1504584226547N07146532WA0167301719001000116
B1504594226543N07146510WA0167601724001000111
B1505004226543N07146488WA0168001730001000106
B1505014226547N07146468WA0168401736001000102
B1505024226552N07146449WA0169101740001000098
B1505034226560N07146433WA0169401744001000095
B1505044226570N07146419WA0169901746001000091
B1505054226581N07146409WA0170201749001000089
B1505064226593N07146402WA0170501753001000086
B1505074226605N07146401WA0170801757001000082
B1505084226617N07146404WA0171201761001000080
B1505094226627N07146412WA0171501765001000081
B1505104226636N07146424WA0172001768001000082
B1505114226642N07146439WA0172401772001000084
B1505124226645N07146456WA0172701775001000088
B1505134226645N07146474WA0173001778001000093
B1505144226642N07146493WA0173301779001000101
B1505154226634N07146512WA0173401778001000110
B1505164226623N07146530WA0173501778001000118
B1505174226608N07146544WA0173601779001000124
B1505184226590N07146554WA0173701781001000127
B1505194226571N07146558WA0173801783001000128
B1505204226552N07146557WA0174001785001000127
B1505214226534N07146551WA0174201788001000126
B1505224226516N07146542WA0174601791001000124
B1505234226500N07146529WA0174801795001000122
B1505244226486N07146515WA0175201799001000120
B1505254226472N07146499WA0175601802001000119
B1505264226461N07146481WA0176001805001000119
B1505274226451N07146460WA0176301809001000117
B1505284226446N07146438WA0176801815001000111
B1505294226446N07146416WA0177201820001000106
B1505304226451N07146396WA0177601823001000102
B1505314226459N07146379WA0178001826001000098
B1505314226459N07146379WA0178401826001000098
B1505324226470N07146368WA0178401830001000093
B1505334226483N07146362WA0178801835001000088
B1505344226496N07146362WA0179101839001000084
B1505354226507N07146368WA0179601842001000083
B1505364226516N07146380WA0179901846001000085
B1505374226522N07146396WA0180101849001000088
B1505384226524N07146414WA0180401851001000093
B1505394226522N07146433WA0180701852001000099
B1505404226516N07146453WA0180901852001000107
B1505414226506N07146471WA0181001852001000116
B1505424226493N07146487WA0181001854001000120
B1505434226477N07146498WA0181101857001000122
B1505444226459N07146506WA0181501862001000120
B1505444226459N07146506WA0181801862001000120
B1505454226441N07146508WA0181801868001000117
B1505464226424N07146506WA0182101872001000115
B1505474226407N07146501WA0182601873001000116
B1505484226391N07146492WA0182901873001000118
B1505484226391N07146492WA0183101873001000118
B1505494226376N07146479WA0183101873001000120
B1505504226363N07146462WA0183201872001000122
B1505514226352N07146442WA0183201871001000124
B1505524226345N07146419WA0183201869001000124
B1505534226341N07146394WA0183201867001000122
B1505544226343N07146370WA0183201871001000119
B1505554226349N07146348WA0183401879001000110
B1505564226358N07146331WA0184101890001000099
B1505574226369N07146319WA0184701899001000091
B1505584226380N07146309WA0185501906001000085
B1505584226380N07146309WA0186401906001000085
B1505594226392N07146304WA0186401912001000081
B1506004226404N07146302WA0186901916001000078
B1506004226404N07146302WA0187401916001000078
B1506014226415N07146306WA0187501919001000078
B1506024226425N07146314WA0187801921001000079
B1506034226433N07146326WA0187901923001000083
B1506044226439N07146341WA0188201924001000088
B1506054226442N07146359WA0188401925001000093
B1506064226441N07146378WA0188601927001000099
B1506074226436N07146398WA0188701928001000105
B1506084226428N07146417WA0188901930001000109
B1506094226416N07146433WA0189001932001000114
B1506104226401N07146446WA0189301934001000118
B1506114226385N07146455WA0189401935001000121
B1506124226367N07146459WA0189601937001000124
B1506134226348N07146459WA0189801938001000126
B1506144226330N07146452WA0190001941001000126
B1506154226313N07146440WA0190101944001000124
B1506164226299N07146424WA0190501946001000121
B1506174226289N07146404WA0190701949001000118
B1506184226282N07146383WA0190901951001000116
B1506194226278N07146360WA0191201953001000113
B1506204226278N07146338WA0191401957001000108
B1506214226282N07146317WA0191801962001000104
B1506224226288N07146298WA0192301966001000099
B1506234226297N07146284WA0192601970001000094
B1506244226309N07146274WA0193001973001000090
F1506250103061417192130133
B1506254226322N07146270WA0193301974001000090
B1506264226336N07146273WA0193601977001000092
B1506274226348N07146282WA0193801981001000093
B1506284226357N07146296WA0194201985001000095
B1506294226362N07146314WA0194601990001000097
B1506304226364N07146334WA0195001994001000098
B1506314226361N07146354WA0195301997001000102
B1506324226354N07146373WA0195701997001000109
B1506334226342N07146389WA0195901996001000117
B1506344226327N07146402WA0195801995001000124
B1506354226308N07146408WA0195801994001000131
B1506364226288N07146407WA0195701993001000133
B1506374226269N07146398WA0195701994001000132
B1506384226253N07146384WA0195801996001000128
B1506394226241N07146364WA0196002001001000122
B1506404226235N07146343WA0196402006001000114
B1506414226233N07146321WA0196702011001000107
B1506424226236N07146300WA0197102015001000101
B1506434226242N07146282WA0197402019001000096
B1506444226250N07146267WA0197902022001000092
B1506454226261N07146256WA0198102025001000089
B1506464226274N07146250WA0198402029001000086
B1506474226286N07146249WA0199002033001000084
B1506474226286N07146249WA0199502033001000084
B1506484226298N07146253WA0199502038001000083
B1506494226308N07146263WA0199802042001000084
B1506504226316N07146277WA0200202045001000087
B1506514226321N07146293WA0200502048001000091
B1506524226322N07146312WA0200702049001000097
B1506534226320N07146332WA0200902049001000102
B1506544226313N07146352WA0201002050001000108
B1506554226303N07146369WA0201202051001000112
B1506564226289N07146384WA0201302053001000114
B1506574226274N07146394WA0201402055001000116
B1506584226257N07146401WA0201502056001000118
B1506594226239N07146403WA0201602056001000120
B1507004226221N07146402WA0201702057001000121
B1507014226203N07146396WA0201702056001000121
B1507024226187N07146387WA0201802057001000121
B1507034226172N07146373WA0201902058001000120
B1507044226159N07146356WA0202102060001000117
B1507054226151N07146336WA0202202063001000113
B1507064226146N07146314WA0202402065001000110
B1507074226146N07146293WA0202602066001000107
B1507084226150N07146272WA0202802066001000104
B1507094226156N07146253WA0202902067001000104
B1507104226165N07146236WA0203102071001000102
B1507114226175N07146220WA0203402075001000100
B1507124226184N07146205WA0203602082001000095
B1507134226193N07146191WA0204202089001000090
B1507144226202N07146178WA0204702095001000085
B1507154226212N07146168WA0205302101001000079
B1507164226222N07146161WA0206002105001000075
B1507174226233N07146159WA0206402108001000072
B1507184226243N07146162WA0206702109001000074
B1507194226253N07146171WA0206902110001000078
B1507204226260N07146184WA0207002110001000084
B1507214226265N07146200WA0207102110001000091
B1507224226266N07146220WA0207202111001000098
B1507234226263N07146240WA0207302113001000103
B1507244226257N07146259WA0207402115001000109
B1507244226257N07146259WA0207602115001000109
B1507254226246N07146277WA0207702117001000113
F150726010306141719212430133
B1507264226233N07146293WA0207802119001000115
B1507274226218N07146304WA0208002121001000116
B1507284226201N07146311WA0208202123001000116
B1507294226184N07146312WA0208302125001000116
B1507304226167N07146309WA0208502127001000116
B1507314226150N07146303WA0208702127001000116
B1507324226135N07146292WA0208802127001000117
B1507334226121N07146277WA0208902129001000118
B1507344226109N07146259WA0209002131001000116
B1507354226101N07146239WA0209202134001000114
B1507364226096N07146217WA0209602137001000110
B1507364226096N07146217WA0209902137001000110
B1507374226095N07146196WA0210002137001000105
B1507384226096N07146175WA0210102137001000097
B1507394226099N07146157WA0210402136001000096
B1507404226107N07146141WA0210602140001000091
B1507414226117N07146129WA0211002142001000086
B1507424226128N07146121WA0211202145001000082
B1507434226139N07146117WA0211602149001000078
B1507444226151N07146119WA0211802152001000076
B1507454226160N07146127WA0212202156001000076
B1507464226168N07146139WA0212402158001000078
B1507474226173N07146154WA0212702160001000083
B1507484226174N07146172WA0212902162001000090
B1507494226172N07146190WA0212902163001000096
B1507504226166N07146209WA0213102165001000102
B1507514226157N07146226WA0213202168001000108
B1507524226145N07146241WA0213402172001000110
B1507534226131N07146253WA0213602175001000110
B1507544226115N07146261WA0213902178001000112
B1507554226099N07146264WA0214202179001000114
B1507564226082N07146262WA0214302180001000116
B1507574226065N07146255WA0214602180001000118
B1507584226050N07146242WA0214602181001000119
B1507594226037N07146226WA0214802183001000118
B1508004226026N07146207WA0215002187001000115
B1508014226020N07146186WA0215202190001000110
B1508024226017N07146164WA0215402193001000106
B1508034226017N07146143WA0215802195001000102
B1508044226021N07146124WA0215902196001000098
B1508054226028N07146107WA0216102197001000095
B1508054226028N07146107WA0216102197001000095
B1508064226037N07146093WA0216202198001000092
B1508074226049N07146084WA0216402201001000087
B1508084226061N07146079WA0216602203001000083
B1508094226073N07146080WA0216802206001000080
B1508104226084N07146087WA0217002208001000079
B1508114226093N07146097WA0217202210001000080
B1508124226099N07146112WA0217402212001000083
B1508134226101N07146129WA0217502212001000089
B1508144226100N07146148WA0217702212001000097
B1508154226095N07146167WA0217702213001000104
B1508164226085N07146185WA0217802213001000112
B1508174226071N07146199WA0217902216001000118
B1508174226071N07146199WA0218002216001000118
B1508184226055N07146210WA0218002219001000120
B1508194226038N07146216WA0218302222001000122
B1508204226020N07146217WA0218502224001000123
B1508204226020N07146217WA0218702224001000123
B1508214226001N07146213WA0218802225001000123
B1508224225984N07146203WA0218902225001000124
B1508234225969N07146188WA0219002226001000125
B1508234225969N07146188WA0219202226001000125
B1508244225957N07146169WA0219202228001000124
B1508254225948N07146147WA0219402229001000122
B1508264225943N07146124WA0219502232001000118
B1508274225941N07146101WA0219802235001000112
B1508284225943N07146080WA0220002238001000106
B1508294225948N07146060WA0220202240001000100
B1508304225957N07146044WA0220402241001000095
B1508304225957N07146044WA0220502241001000095
B1508314225967N07146032WA0220602243001000090
B1508324225979N07146024WA0220802246001000085
B1508334225991N07146022WA0221002247001000081
B1508344226003N07146024WA0221202249001000079
B1508354226013N07146032WA0221302250001000081
B1508364226021N07146045WA0221402250001000084
B1508374226026N07146061WA0221502251001000088
B1508384226028N07146079WA0221702252001000094
B1508394226025N07146098WA0221702253001000100
B1508404226017N07146117WA0221702254001000107
B1508414226006N07146133WA0221802254001000114
B1508424225991N07146146WA0221902255001000120
B1508434225973N07146155WA0222002255001000127
B1508444225954N07146157WA0222002255001000132
B1508454225934N07146154WA0222102255001000135
B1508464225915N07146144WA0222102254001000136
B1508474225898N07146129WA0222102253001000135
B1508484225885N07146108WA0222102251001000134
B1508494225877N07146084WA0222102252001000132
B1508504225873N07146058WA0222202254001000127
B1508514225875N07146033WA0222402256001000118
B1508524225881N07146012WA0222502259001000109
B1508534225891N07145996WA0222702262001000100
B1508544225903N07145986WA0223002264001000092
F1508550103061417192130133
B1508554225916N07145983WA0223202266001000086
B1508564225929N07145986WA0223402268001000084
B1508574225939N07145995WA0223502269001000084
B1508584225946N07146009WA0223702270001000088
B1508594225949N07146027WA0223802272001000093
B1509004225948N07146046WA0223902275001000099
B1509014225943N07146066WA0224102277001000104
B1509024225934N07146083WA0224302279001000109
B1509034225921N07146098WA0224502281001000114
B1509044225905N07146110WA0224602281001000120
B1509054225888N07146117WA0224702281001000126
B1509064225869N07146119WA0224702281001000130
B1509074225849N07146117WA0224702281001000133
B1509084225829N07146110WA0224702281001000134
B1509094225811N07146098WA0224702281001000134
B1509104225795N07146083WA0224802282001000134
B1509114225781N07146064WA0224902282001000133
B1509124225769N07146042WA0225002282001000130
B1509134225761N07146018WA0225202284001000125
B1509144225757N07145994WA0225502288001000119
B1509154225757N07145971WA0225702291001000112
B1509164225760N07145949WA0225902294001000105
B1509174225766N07145931WA0226202296001000099
B1509184225775N07145915WA0226402298001000092
B1509194225785N07145904WA0226702300001000087
B1509204225797N07145898WA0226902302001000082
B1509214225809N07145896WA0227002304001000079
B1509224225821N07145898WA0227202305001000077
B1509234225831N07145904WA0227302306001000077
B1509244225840N07145914WA0227402307001000077
B1509254225848N07145926WA0227502308001000079
B1509264225852N07145941WA0227502309001000083
B1509274225854N07145958WA0227602311001000088
B1509284225852N07145977WA0227802312001000092
B1509294225848N07145995WA0227902314001000096
B1509304225842N07146013WA0228002314001000100
B1509314225832N07146029WA0228002314001000106
B1509324225820N07146044WA0228002312001000112
B1509334225805N07146056WA0227902310001000120
B1509344225787N07146064WA0227802308001000126
B1509354225768N07146068WA0227502307001000132
B1509364225748N07146067WA0227502307001000135
B1509374225728N07146061WA0227502309001000135
B1509384225710N07146050WA0227602310001000134
B1509394225693N07146036WA0227702312001000132
B1509404225679N07146017WA0227802313001000129
B1509414225669N07145996WA0228002313001000126
B1509424225662N07145972WA0228002313001000122
B1509434225660N07145948WA0228002313001000116
B1509444225663N07145926WA0228102314001000109
B1509454225668N07145906WA0228102315001000102
B1509464225677N07145890WA0228202317001000097
B1509474225687N07145876WA0228302318001000093
B1509484225697N07145865WA0228402320001000089
B1509494225709N07145856WA0228502322001000086
B1509504225720N07145849WA0228702324001000082
B1509514225732N07145844WA0228802325001000080
B1509524225743N07145842WA0228902326001000077
B1509534225755N07145842WA0229002326001000076
B1509544225766N07145845WA0229102326001000075
B1509554225776N07145851WA0229202328001000074
F150956010306141719212430133
B1509564225784N07145861WA0229402330001000073
B1509574225791N07145873WA0229502332001000074
B1509584225794N07145887WA0229702334001000077
B1509594225796N07145903WA0229902336001000080
B1510004225795N07145920WA0230002337001000084
B1510014225791N07145937WA0230102338001000089
B1510024225786N07145953WA0230102337001000093
B1510034225778N07145970WA0230202336001000098
B1510044225769N07145986WA0230202336001000103
B1510054225759N07146002WA0230202337001000106
B1510064225748N07146018WA0230202338001000105
B1510074225738N07146034WA0230202340001000104
B1510084225728N07146050WA0230402341001000101
B1510094225719N07146066WA0230602344001000100
B1510104225709N07146082WA0231002347001000100
B1510114225699N07146098WA0231202351001000102
B1510124225688N07146112WA0231502355001000106
B1510134225675N07146125WA0232002359001000110
B1510144225659N07146135WA0232302362001000115
B1510154225642N07146140WA0232502364001000120
B1510164225624N07146142WA0232802366001000123
B1510174225605N07146139WA0233002367001000125
B1510184225588N07146132WA0233002366001000125
B1510194225571N07146121WA0233002364001000126
B1510204225555N07146107WA0232902361001000126
B1510214225542N07146089WA0232702358001000126
B1510224225531N07146068WA0232602356001000123
B1510234225524N07146046WA0232302354001000120
B1510244225521N07146022WA0232202353001000115
B1510254225521N07146000WA0232002352001000109
B1510264225525N07145980WA0232002352001000101
B1510274225532N07145963WA0231902351001000094
B1510284225542N07145950WA0231802350001000088
B1510294225553N07145942WA0231802350001000082
B1510294225553N07145942WA0231802350001000082
B1510304225565N07145940WA0231802351001000079
B1510314225577N07145942WA0231802352001000075
B1510324225586N07145949WA0231902353001000074
B1510334225594N07145960WA0232002353001000076
B1510344225599N07145975WA0231902352001000082
B1510354225602N07145992WA0231902349001000089
B1510364225601N07146011WA0231702346001000097
B1510374225597N07146031WA0231402342001000106
B1510384225590N07146051WA0231202339001000115
B1510384225590N07146051WA0231002339001000115
B1510394225579N07146070WA0231002340001000124
B1510404225564N07146087WA0230902342001000128
B1510414225547N07146100WA0231002345001000132
B1510424225528N07146109WA0231302349001000133
B1510434225509N07146114WA0231602354001000133
B1510444225489N07146117WA0231902357001000131
B1510454225470N07146118WA0232302360001000130
B1510464225451N07146116WA0232502362001000129
B1510474225432N07146111WA0232802363001000128
B1510484225413N07146104WA0232902363001000127
B1510494225396N07146094WA0233002362001000127
B1510504225379N07146081WA0233002361001000127
B1510514225364N07146065WA0232902360001000128
B1510524225351N07146046WA0232802359001000128
B1510534225339N07146027WA0232802358001000125
B1510544225329N07146005WA0232702356001000124
B1510554225321N07145982WA0232502354001000123
B1510564225316N07145959WA0232302351001000122
F15105701030614171921243013133
B1510574225314N07145935WA0232102350001000119
B1510584225314N07145911WA0231902349001000116
B1510594225316N07145888WA0231802349001000111
B1511004225320N07145867WA0231702349001000105
B1511014225326N07145849WA0231702349001000098
B1511024225333N07145832WA0231702349001000093
B1511034225341N07145817WA0231702350001000089
B1511044225350N07145804WA0231702350001000085
B1511054225360N07145794WA0231802351001000082
B1511064225370N07145786WA0231802353001000080
B1511074225381N07145779WA0231902355001000078
B1511084225392N07145773WA0232002357001000077
B1511094225403N07145769WA0232202358001000074
B1511104225413N07145767WA0232302359001000073
B1511114225424N07145765WA0232402360001000071
B1511124225435N07145766WA0232402359001000070
B1511134225445N07145768WA0232402358001000069
B1511144225455N07145773WA0232302355001000070
B1511154225464N07145780WA0232202353001000073
B1511164225472N07145791WA0232002351001000077
B1511174225479N07145803WA0231802351001000079
B1511184225483N07145819WA0231802352001000082
B1511194225486N07145835WA0231702352001000084
B1511204225487N07145852WA0231802354001000087
B1511214225486N07145870WA0231902356001000088
B1511224225484N07145888WA0232102357001000091
B1511234225480N07145906WA0232202357001000092
B1511244225474N07145923WA0232202356001000096
B1511254225466N07145940WA0232102354001000100
B1511264225455N07145955WA0231902351001000107
B1511274225442N07145970WA0231602347001000113
B1511284225428N07145983WA0231402342001000119
B1511294225411N07145994WA0230902338001000124
B1511304225393N07146003WA0230702335001000126
B1511314225375N07146010WA0230702335001000128
B1511324225356N07146017WA0230302335001000130
B1511334225337N07146024WA0230202334001000132
B1511344225318N07146032WA0230002332001000136
B1511354225299N07146041WA0229802329001000139
B1511364225279N07146051WA0229702328001000143
B1511364225279N07146051WA0229602328001000143
B1511374225259N07146063WA0229502328001000146
B1511384225239N07146075WA0229502329001000146
B1511394225219N07146089WA0229602331001000146
B1511404225200N07146102WA0229802335001000145
B1511414225180N07146115WA0230002339001000144
B1511424225161N07146128WA0230402343001000143
B1511434225141N07146139WA0230602346001000142
B1511444225122N07146151WA0230902348001000142
B1511454225102N07146162WA0231102347001000142
B1511464225083N07146173WA0231102346001000142
B1511464225083N07146173WA0231102346001000142
B1511474225063N07146184WA0231102345001000143
B1511484225043N07146195WA0231102343001000144
