ACNI279FLIGHT:1
HFDTE230723
HFFXA005
HFPLTPILOT:Bob Fletcher
HFCM2CREW:
HFGTYGLIDERTYPE:ASG 29
HFGIDGLIDERID:90
HFDTM100GPSDATUM:WGS84
HFRFWFIRMWAREVERSION:1.2
HFRHWHARDWAREVERSION:1.2
HFFTYFRTYPE:ClearNav Instr., ClearNav II
HFGPS:UBLOX,NEO-6G,16Ch,50000 
HFPRSPRESSALTSENSOR:Intersema,MS5540C,20000
HFCIDCOMPETITIONID:90
I033638FXA3941ENL4244GSP
J020810WDI1115WVE
C110623185425000000000102
C0000000N00000000ETAKEOFF
C4225570N07147630WSTERLING    
C4331467N07256950WRutland
C4411700N07145050WFranconia   
C4225570N07147630WSTERLING    
C0000000N00000000ELANDING
B1639184225407N07147430WA0012700107001000000
B1639194225407N07147430WA0012700107001000000
B1639194225407N07147430WA0012700107001000000
B1639204225407N07147430WA0012700107001000000
B1639214225407N07147430WA0012700107001000000
B1639224225407N07147430WA0012700107001000000
B1639234225407N07147430WA0012700107001000000
B1639244225407N07147430WA0012700107001000000
B1639254225407N07147430WA0012700107001000000
B1639264225407N07147430WA0012700107001000000
B1639264225407N07147430WA0012700107001000000
B1639274225407N07147430WA0012700107001000000
B1639284225407N07147430WA0012700107001000000
B1639284225407N07147430WA0012700107001000000
B1639294225407N07147430WA0012700107001000000
B1639304225408N07147430WA0012700107001000001
B1639314225408N07147431WA0012700107001000010
B1639324225410N07147433WA0012700107001000022
B1639334225413N07147437WA0012800107001000029
B1639344225417N07147441WA0012800107001000035
B1639344225417N07147441WA0012800107001000035
B1639354225421N07147447WA0012800107001000044
B1639364225427N07147453WA0012900107001005054
B1639364225427N07147453WA0012900107001005054
B1639374225434N07147461WA0012900107001026060
LCNI163937EVT:ENDBASELINE
LCNI163932EVT:TAKEOFF
F163938050609111213202529
B1639384225441N07147470WA0012900107001039065
B1639394225449N07147479WA0012900107001039073
B1639404225457N07147489WA0013000108001041080
B1639414225467N07147500WA0013000108001033085
B1639424225477N07147512WA0013000109001030090
B1639434225488N07147524WA0013100109001028096
B1639444225499N07147537WA0013100109001023101
B1639454225511N07147551WA0013000109001024105
B1639464225523N07147565WA0012900110001024108
B1639474225535N07147580WA0012800112001007109
B1639484225547N07147595WA0012900114001000114
B1639494225560N07147611WA0013000115001000118
B1639504225574N07147627WA0013100116001000119
B1639514225587N07147643WA0013300118001000121
B1639524225601N07147659WA0013500121001000125
B1639534225616N07147675WA0013700123001000127
B1639544225630N07147692WA0013900127001000125
B1639554225645N07147708WA0014300131001000124
B1639554225645N07147708WA0014500131001000124
B1639564225659N07147724WA0014500135001000126
B1639574225673N07147741WA0015000139001000125
B1639584225687N07147758WA0015300145001000125
B1639594225701N07147775WA0015700151001000124
B1640004225715N07147791WA0016300157001000122
B1640014225729N07147807WA0017000163001000119
B1640024225743N07147822WA0017400170001000118
B1640034225757N07147836WA0018000175001000120
B1640044225772N07147850WA0018500178001000118
B1640054225785N07147864WA0019000182001000114
B1640064225799N07147878WA0019400189001000114
B1640074225813N07147891WA0019800196001000113
B1640084225826N07147905WA0020600202001000110
B1640094225839N07147918WA0021000206001000110
B1640104225852N07147932WA0021600209001000111
B1640114225866N07147945WA0021900212001000111
B1640124225879N07147959WA0022200216001000111
B1640134225893N07147972WA0022700220001000113
B1640144225907N07147985WA0023200226001000115
B1640154225921N07147998WA0023600232001000115
B1640164225935N07148011WA0024300237001000115
B1640174225949N07148026WA0024700241001000116
B1640184225962N07148041WA0025300246001000116
B1640194225975N07148057WA0025500250001000115
B1640204225988N07148071WA0026000255001000115
B1640214226002N07148085WA0026300260001000117
B1640224226017N07148099WA0026700263001000115
B1640234226031N07148112WA0027100266001000113
B1640244226045N07148124WA0027400270001000113
B1640254226059N07148136WA0027800274001000112
B1640264226073N07148148WA0028200279001000109
B1640274226087N07148160WA0028700284001000107
B1640284226100N07148172WA0029100288001000109
B1640294226114N07148184WA0029600292001000107
B1640304226128N07148195WA0029900297001000106
B1640314226141N07148206WA0030500301001000108
B1640324226155N07148218WA0030800303001000109
B1640324226155N07148218WA0031100303001000109
B1640334226169N07148229WA0031200305001000107
B1640344226183N07148241WA0031400307001000108
B1640354226197N07148252WA0031500309001000110
B1640364226211N07148264WA0031800313001000109
B1640374226224N07148276WA0032000316001000107
B1640384226238N07148288WA0032400319001000108
B1640394226251N07148300WA0032600322001000108
B1640404226265N07148311WA0032900325001000107
B1640414226279N07148322WA0033100328001000107
B1640424226293N07148332WA0033500330001000108
B1640434226308N07148341WA0033700332001000109
B1640444226323N07148351WA0033900334001000110
B1640454226337N07148361WA0034100335001000110
B1640464226352N07148372WA0034300337001000111
B1640474226366N07148383WA0034400339001000111
B1640484226381N07148394WA0034600342001000112
B1640494226396N07148404WA0034800345001000112
B1640504226411N07148415WA0035100348001000111
B1640514226426N07148425WA0035400351001000112
B1640524226440N07148435WA0035800355001000111
B1640534226455N07148446WA0036100358001000111
B1640544226469N07148457WA0036400362001000111
B1640554226484N07148468WA0036700366001000111
B1640564226499N07148479WA0037200370001000110
B1640574226514N07148487WA0037500375001000108
B1640584226529N07148494WA0037900380001000107
B1640594226544N07148500WA0038400385001000107
B1641004226560N07148504WA0039000390001000108
B1641014226576N07148507WA0039400394001000108
B1641024226592N07148506WA0039800399001000109
B1641034226609N07148503WA0040400403001000110
B1641044226625N07148497WA0040800408001000112
B1641054226641N07148488WA0041300412001000114
B1641064226656N07148478WA0041600416001000114
B1641074226670N07148465WA0042000419001000114
B1641084226684N07148451WA0042300423001000116
B1641094226696N07148434WA0042700427001000117
B1641104226707N07148416WA0043100430001000117
B1641114226718N07148397WA0043300433001000118
B1641124226727N07148376WA0043800437001000120
B1641134226735N07148354WA0044100440001000120
B1641144226742N07148331WA0044400443001000121
B1641154226747N07148308WA0044700446001000122
B1641164226751N07148284WA0044900448001000123
B1641174226754N07148259WA0045300452001000123
B1641184226756N07148234WA0045700456001000124
B1641194226756N07148209WA0045900460001000125
B1641204226755N07148183WA0046400464001000126
B1641214226753N07148158WA0046700466001000127
B1641224226750N07148132WA0046900468001000130
B1641234226745N07148106WA0047100470001000132
B1641244226738N07148081WA0047300471001000133
B1641254226731N07148055WA0047400472001000136
B1641264226723N07148030WA0047500473001000137
B1641274226714N07148005WA0047600474001000137
B1641284226704N07147982WA0047800476001000138
B1641294226693N07147956WA0047900478001000139
B1641304226682N07147932WA0048000479001000139
F164131050609111213202529133
B1641314226671N07147909WA0048200482001000139
B1641324226659N07147886WA0048300486001000139
B1641334226647N07147862WA0048700489001000139
B1641344226636N07147839WA0048900492001000138
B1641354226624N07147816WA0049200496001000138
B1641364226612N07147793WA0049600499001000138
B1641374226600N07147770WA0049900503001000137
B1641384226588N07147748WA0050300507001000136
B1641394226576N07147726WA0050700511001000136
B1641404226563N07147704WA0051200516001000136
B1641414226550N07147684WA0051600521001000135
B1641424226536N07147664WA0052100524001000134
B1641434226522N07147645WA0052400529001000133
B1641444226507N07147626WA0052700533001000134
B1641454226492N07147608WA0053200536001000133
B1641464226477N07147591WA0053500539001000132
B1641474226462N07147573WA0053900542001000133
B1641484226447N07147556WA0054100545001000133
B1641494226431N07147539WA0054500549001000132
B1641504226415N07147523WA0054800552001000131
B1641514226400N07147508WA0055200555001000131
B1641524226383N07147492WA0055400559001000130
B1641534226367N07147478WA0055800562001000130
B1641544226351N07147464WA0056200566001000129
B1641554226334N07147451WA0056500569001000127
B1641564226318N07147437WA0056900572001000128
B1641574226301N07147424WA0057100575001000128
B1641584226285N07147410WA0057400577001000128
B1641594226269N07147396WA0057600580001000128
B1642004226253N07147382WA0057900582001000128
B1642014226237N07147368WA0058100585001000129
B1642024226220N07147354WA0058400586001000129
B1642034226204N07147339WA0058600588001000130
B1642044226188N07147325WA0058700591001000130
B1642054226171N07147311WA0058900594001000130
B1642064226154N07147298WA0059200596001000130
B1642074226137N07147284WA0059400598001000132
B1642084226120N07147270WA0059600598001000134
B1642094226103N07147256WA0059700599001000134
B1642104226086N07147241WA0059700599001000135
B1642114226069N07147226WA0059800600001000136
B1642124226052N07147211WA0059900601001000136
B1642134226035N07147195WA0060000602001000135
B1642144226019N07147180WA0060100603001000135
B1642154226002N07147165WA0060200606001000135
B1642164225985N07147149WA0060500608001000135
B1642174225969N07147133WA0060700612001000136
B1642184225952N07147118WA0060900613001000136
B1642194225935N07147102WA0061100614001000137
B1642204225919N07147086WA0061300615001000138
B1642214225902N07147069WA0061500617001000139
B1642224225885N07147052WA0061600619001000140
B1642234225868N07147035WA0061800621001000141
B1642244225852N07147018WA0061900624001000139
B1642254225835N07147001WA0062300629001000137
B1642264225818N07146986WA0062600635001000135
B1642274225801N07146971WA0063200641001000135
B1642284225783N07146957WA0063800646001000135
B1642294225767N07146942WA0064200652001000134
B1642304225750N07146926WA0064900657001000134
B1642304225750N07146926WA0064900657001000134
B1642314225734N07146910WA0065300662001000135
B1642324225718N07146894WA0065900667001000134
B1642334225701N07146879WA0066300673001000133
B1642344225684N07146866WA0066900678001000133
B1642354225666N07146853WA0067300682001000132
B1642354225666N07146853WA0067900682001000132
B1642364225649N07146840WA0068100687001000133
B1642374225631N07146827WA0068400692001000132
B1642384225614N07146813WA0068700697001000133
B1642394225597N07146799WA0069300702001000134
B1642404225580N07146785WA0069700708001000134
B1642414225563N07146770WA0070300713001000136
B1642424225546N07146756WA0070800720001000130
B1642434225529N07146744WA0071500727001000124
B1642444225513N07146733WA0071900732001000118
B1642454225498N07146722WA0072600734001000115
B1642464225483N07146710WA0072800733001000116
B1642474225469N07146697WA0072900733001000117
B1642484225456N07146680WA0072900732001000118
B1642494225445N07146662WA0072900732001000119
B1642504225437N07146640WA0072900732001000120
B1642514225431N07146617WA0072900732001000120
B1642524225429N07146593WA0072900732001000121
B1642534225430N07146569WA0072900732001000120
B1642544225435N07146545WA0072900732001000119
B1642554225444N07146524WA0072900733001000116
B1642564225455N07146507WA0073000733001000112
B1642574225467N07146493WA0073000733001000107
B1642584225481N07146483WA0073100733001000103
B1642594225496N07146478WA0073000732001000099
B1643004225510N07146476WA0072900731001000096
B1643014225524N07146477WA0072800730001000092
B1643024225537N07146483WA0072700728001000090
B1643034225548N07146493WA0072600727001000088
B1643044225558N07146505WA0072500726001000087
B1643054225564N07146521WA0072400726001000087
B1643064225569N07146537WA0072300725001000088
B1643074225571N07146555WA0072200724001000089
B1643084225571N07146573WA0072100724001000092
B1643094225568N07146592WA0072100723001000095
B1643104225564N07146611WA0072000722001000098
B1643114225557N07146629WA0071900722001000100
B1643114225557N07146629WA0071900722001000100
B1643124225550N07146647WA0071900722001000101
B1643134225543N07146665WA0071900723001000101
B1643144225535N07146682WA0072000725001000101
B1643154225528N07146700WA0072200729001000098
B1643164225523N07146718WA0072400731001000095
B1643174225519N07146737WA0072600732001000093
B1643174225519N07146737WA0072800732001000093
B1643184225519N07146755WA0072800733001000093
B1643194225523N07146774WA0072900734001000094
B1643204225530N07146790WA0073000735001000096
B1643214225540N07146804WA0073100737001000100
B1643224225554N07146814WA0073300739001000104
B1643234225569N07146818WA0073400743001000108
B1643244225586N07146817WA0073700746001000110
B1643254225602N07146811WA0074100748001000115
B1643264225617N07146800WA0074300747001000118
B1643274225632N07146784WA0074200745001000123
B1643284225645N07146765WA0074100743001000128
B1643294225655N07146743WA0074000741001000133
B1643304225663N07146718WA0073700741001000136
B1643304225663N07146718WA0073700741001000136
B1643314225668N07146691WA0073700740001000136
B1643324225668N07146664WA0073700742001000137
B1643334225665N07146636WA0073800745001000135
B1643344225659N07146611WA0073900748001000131
B1643354225652N07146587WA0074300752001000127
B1643364225642N07146565WA0074500755001000123
B1643374225630N07146547WA0074800756001000121
B1643384225616N07146532WA0074900756001000119
B1643394225600N07146521WA0075000755001000118
B1643404225583N07146514WA0075000753001000116
B1643414225566N07146511WA0074900752001000115
B1643424225549N07146511WA0074800751001000113
B1643434225533N07146516WA0074700750001000111
B1643444225518N07146525WA0074600751001000108
B1643454225505N07146538WA0074600753001000103
B1643464225495N07146553WA0074700756001000097
B1643474225489N07146570WA0075000760001000090
B1643484225488N07146587WA0075300765001000085
B1643494225490N07146604WA0075800769001000082
B1643504225496N07146618WA0076100772001000082
B1643514225504N07146631WA0076400773001000083
B1643524225515N07146640WA0076700773001000087
B1643534225527N07146646WA0076800773001000092
B1643544225541N07146649WA0076800773001000097
B1643554225556N07146647WA0076800773001000102
B1643564225571N07146640WA0076900774001000105
B1643574225585N07146629WA0077000776001000108
B1643584225596N07146614WA0077200776001000111
B1643594225605N07146594WA0077200776001000115
B1644004225611N07146572WA0077200774001000118
F164401050609111213202529
B1644014225614N07146548WA0077100771001000121
B1644024225614N07146523WA0076900770001000127
B1644034225609N07146498WA0076700770001000128
B1644044225602N07146474WA0076700771001000127
B1644054225592N07146453WA0076700773001000124
B1644064225580N07146435WA0076800775001000120
B1644074225565N07146421WA0077000776001000116
B1644084225550N07146411WA0077100776001000113
B1644094225534N07146406WA0077100776001000109
B1644104225518N07146406WA0077200775001000106
B1644114225503N07146411WA0077200775001000103
B1644114225503N07146411WA0077100775001000103
B1644124225489N07146419WA0077100775001000101
B1644134225476N07146430WA0077100776001000098
B1644144225466N07146443WA0077200778001000094
B1644154225457N07146458WA0077300780001000091
B1644164225451N07146474WA0077500783001000088
B1644174225446N07146490WA0077700785001000086
B1644184225443N07146507WA0077900788001000085
B1644194225442N07146524WA0078200790001000084
B1644204225444N07146540WA0078400793001000083
B1644214225448N07146556WA0078700795002000082
B1644224225455N07146570WA0078900797001000084
B1644234225466N07146580WA0079200799001000088
B1644244225478N07146587WA0079400801001000093
B1644254225493N07146589WA0079600803001000098
B1644264225508N07146586WA0079700806001000103
B1644274225522N07146578WA0080100811001000106
B1644284225534N07146564WA0080300815001000109
B1644294225544N07146546WA0080700818001000111
B1644304225551N07146525WA0081000819001000113
B1644304225551N07146525WA0081000819001000113
B1644314225554N07146503WA0081200821001000113
B1644324225554N07146480WA0081400822001000113
B1644334225549N07146458WA0081500823001000112
B1644344225541N07146439WA0081600823001000111
B1644354225530N07146422WA0081600823001000110
B1644354225530N07146422WA0081700823001000110
B1644364225517N07146409WA0081600821001000110
B1644374225502N07146400WA0081500820001000110
B1644384225486N07146395WA0081400820001000109
B1644384225486N07146395WA0081400820001000109
B1644394225469N07146395WA0081400821001000106
B1644404225454N07146400WA0081400822001000102
B1644414225441N07146409WA0081500825001000097
B1644424225431N07146422WA0081600828001000092
B1644434225424N07146437WA0081800830001000087
B1644444225420N07146453WA0082100834001000084
B1644454225421N07146470WA0082500837001000081
B1644464225426N07146485WA0082800840001000081
B1644474225435N07146496WA0083100843001000083
B1644474225435N07146496WA0083300843001000083
B1644484225446N07146504WA0083300845001000087
B1644494225460N07146508WA0083600846001000093
B1644504225474N07146507WA0083700846001000099
B1644514225489N07146500WA0083800847001000105
B1644524225502N07146488WA0083900848001000112
B1644534225514N07146471WA0084000851001000115
B1644534225514N07146471WA0084200851001000115
B1644544225522N07146450WA0084200853001000118
B1644554225526N07146427WA0084400855001000119
B1644564225526N07146403WA0084600857001000118
B1644564225526N07146403WA0084700857001000118
B1644574225522N07146380WA0084800858001000117
B1644584225516N07146358WA0084900860001000115
B1644594225507N07146338WA0085100861001000113
B1644594225507N07146338WA0085200861001000113
B1645004225496N07146321WA0085200862001000112
B1645014225483N07146307WA0085300862001000111
F16450205060911121315202529133
B1645024225468N07146298WA0085300863001000108
B1645034225452N07146293WA0085400864001000104
B1645044225437N07146294WA0085500866001000099
B1645054225423N07146299WA0085600868001000094
B1645064225412N07146308WA0085800869001000089
B1645074225403N07146321WA0085900872001000084
B1645084225397N07146336WA0086200874001000080
B1645094225396N07146351WA0086400876001000078
B1645104225398N07146367WA0086600879001000077
B1645114225404N07146380WA0086900882001000077
B1645124225413N07146390WA0087100885001000079
B1645134225424N07146398WA0087300885001000083
B1645144225437N07146401WA0087500884001000090
B1645154225451N07146401WA0087500883001000098
B1645164225466N07146396WA0087400881001000106
B1645174225480N07146385WA0087300881001000113
B1645184225493N07146369WA0087300882001000116
B1645194225503N07146349WA0087300883001000118
B1645204225508N07146327WA0087300885001000120
B1645214225510N07146302WA0087500886001000121
B1645224225508N07146278WA0087600888001000120
B1645234225502N07146256WA0087800891001000117
B1645244225493N07146236WA0088000893001000115
B1645244225493N07146236WA0088000893001000115
B1645254225482N07146219WA0088100894001000113
B1645254225482N07146219WA0088200894001000113
B1645264225468N07146205WA0088200894001000111
B1645274225453N07146197WA0088300893001000110
B1645284225437N07146192WA0088300893001000108
B1645294225421N07146193WA0088300893001000104
B1645304225407N07146198WA0088300895001000098
B1645314225394N07146208WA0088500897001000093
B1645324225385N07146221WA0088600900001000089
B1645334225379N07146235WA0088800903001000083
B1645344225376N07146251WA0089000906001000079
B1645354225378N07146267WA0089400908001000077
B1645364225383N07146281WA0089600911001000079
B1645374225391N07146293WA0089900913001000082
B1645384225402N07146301WA0090000914001000085
B1645394225415N07146305WA0090200914001000092
B1645404225430N07146305WA0090200914001000100
B1645414225445N07146299WA0090300915001000105
B1645424225459N07146289WA0090300916001000110
B1645434225471N07146274WA0090400917001000113
B1645444225481N07146255WA0090500918001000116
B1645454225487N07146232WA0090700919001000119
B1645464225489N07146208WA0090800921001000120
B1645464225489N07146208WA0090800921001000120
B1645474225487N07146184WA0090900923001000120
B1645484225480N07146162WA0091000924001000118
B1645494225470N07146143WA0091200925001000116
B1645504225457N07146127WA0091300926001000113
B1645514225442N07146118WA0091400927001000109
B1645524225427N07146114WA0091500929001000102
B1645534225412N07146114WA0091700931001000095
B1645544225399N07146119WA0091900932001000090
B1645554225388N07146129WA0092000933001000087
B1645564225379N07146141WA0092000934001000084
B1645574225373N07146156WA0092100935001000081
B1645584225371N07146171WA0092300937001000079
B1645594225372N07146187WA0092500940001000077
B1646004225375N07146202WA0092700943001000075
B1646014225381N07146215WA0092900945001000074
B1646024225388N07146226WA0093100946001000076
B1646034225398N07146234WA0093200946001000079
B1646044225410N07146239WA0093400946001000085
B1646044225410N07146239WA0093500946001000085
B1646054225423N07146241WA0093500947001000091
B1646064225437N07146239WA0093600949001000096
B1646074225451N07146233WA0093700952001000099
B1646084225464N07146222WA0094000955001000102
B1646094225475N07146208WA0094300958001000104
B1646104225484N07146190WA0094400960001000106
B1646114225490N07146170WA0094600961001000108
B1646124225493N07146148WA0094700960001000112
B1646134225492N07146125WA0094700960001000114
B1646144225487N07146102WA0094800961001000115
B1646154225479N07146082WA0094800961001000113
B1646164225467N07146066WA0094800962001000111
B1646164225467N07146066WA0094900962001000111
B1646174225454N07146053WA0094900962001000108
B1646184225439N07146045WA0094900962001000105
B1646194225424N07146041WA0095000963001000101
B1646204225410N07146043WA0095000963001000096
F164621050911121315202529133
B1646214225396N07146050WA0095000963001000093
B1646224225385N07146060WA0095100962001000090
B1646234225377N07146074WA0095000962001000088
B1646244225372N07146090WA0095000963001000085
B1646254225371N07146107WA0095000963001000083
B1646264225375N07146123WA0095000963001000083
B1646274225382N07146137WA0095000962001000086
B1646284225393N07146147WA0095100962001000092
B1646294225407N07146153WA0095000962001000099
B1646304225422N07146152WA0095000963001000106
B1646314225438N07146146WA0095000964001000112
B1646324225453N07146133WA0095200967001000117
B1646334225465N07146116WA0095400970001000121
B1646344225474N07146094WA0095600972001000123
B1646354225478N07146070WA0095700972001000125
B1646364225478N07146044WA0095800972001000128
B1646374225473N07146019WA0095800972001000128
B1646384225463N07145997WA0095700970001000128
B1646394225450N07145979WA0095700969001000127
B1646404225433N07145967WA0095500967001000125
B1646414225415N07145963WA0095400967001000121
B1646424225398N07145965WA0095400969001000114
B1646434225382N07145973WA0095500972001000106
B1646444225370N07145985WA0095900977001000099
B1646454225361N07146000WA0096100980001000091
B1646464225355N07146016WA0096500982001000085
B1646474225355N07146032WA0096700984001000081
B1646474225355N07146032WA0096900984001000081
B1646484225358N07146048WA0096900986001000081
B1646494225365N07146062WA0097100987001000083
B1646504225376N07146072WA0097300988001000087
B1646514225388N07146078WA0097400988001000092
B1646524225402N07146081WA0097400989001000096
B1646534225417N07146077WA0097500989001000103
B1646544225432N07146069WA0097600991001000110
B1646554225446N07146056WA0097800994001000113
B1646564225458N07146040WA0098100999001000113
B1646574225469N07146023WA0098301004001000112
B1646584225478N07146004WA0098801006001000112
B1646594225486N07145983WA0099001007001000114
B1646594225486N07145983WA0099101007001000114
B1647004225490N07145961WA0099101006001000117
B1647014225491N07145937WA0099101005001000120
B1647024225489N07145912WA0099001003001000122
B1647034225484N07145888WA0098901001001000123
B1647044225476N07145866WA0098701000001000123
B1647054225464N07145847WA0098600999001000120
B1647054225464N07145847WA0098500999001000120
B1647064225450N07145832WA0098500998001000116
B1647074225435N07145822WA0098400997001000111
B1647084225419N07145817WA0098300995001000107
B1647094225404N07145818WA0098100993001000104
B1647104225389N07145823WA0098000992001000101
B1647114225376N07145833WA0097900992001000097
B1647124225366N07145846WA0097800993001000094
B1647134225359N07145862WA0097800994001000090
B1647144225356N07145880WA0097900995001000086
B1647154225356N07145897WA0098000997001000083
B1647164225359N07145913WA0098100998001000083
B1647174225366N07145927WA0098300999001000084
B1647184225376N07145939WA0098400999001000089
B1647194225388N07145948WA0098501000001000095
B1647204225402N07145953WA0098501001001000101
B1647214225418N07145954WA0098601002001000107
F16472205060911121315202529133
B1647224225434N07145950WA0098701004001000112
B1647234225450N07145940WA0099001008001000117
B1647244225464N07145927WA0099301012001000117
B1647254225477N07145911WA0099501014001000118
B1647264225488N07145892WA0099701015001000119
B1647274225498N07145871WA0099901017001000119
B1647284225505N07145850WA0100101019001000118
B1647294225511N07145827WA0100301021001000118
B1647304225513N07145804WA0100401020001000117
B1647314225514N07145780WA0100401018001000118
B1647324225511N07145756WA0100301017001000118
B1647334225505N07145734WA0100201016001000117
B1647344225498N07145713WA0100101016001000115
B1647354225488N07145693WA0100101016001000112
B1647354225488N07145693WA0100101016001000112
B1647364225477N07145677WA0100101015001000110
B1647374225464N07145663WA0100101014001000108
B1647384225450N07145653WA0100001013001000105
B1647394225436N07145646WA0099901011001000102
B1647404225421N07145643WA0099701009001000099
B1647414225406N07145644WA0099601008001000095
B1647414225406N07145644WA0099401008001000095
B1647424225393N07145647WA0099401007001000092
B1647434225380N07145654WA0099401007001000088
B1647444225370N07145663WA0099301006001000083
B1647454225362N07145675WA0099301006001000079
B1647464225357N07145689WA0099301007001000076
B1647474225354N07145704WA0099401009001000073
B1647484225355N07145719WA0099501010001000071
B1647484225355N07145719WA0099501010001000071
B1647494225358N07145732WA0099601010001000071
B1647504225363N07145745WA0099701011001000072
B1647514225370N07145757WA0099701011001000073
B1647524225377N07145768WA0099801012001000076
B1647534225386N07145778WA0099901014001000080
B1647534225386N07145778WA0100001014001000080
B1647544225396N07145787WA0100001016001000081
B1647554225407N07145795WA0100201020001000080
B1647564225418N07145803WA0100601025001000078
B1647574225428N07145810WA0101001029001000075
B1647584225437N07145818WA0101401032001000071
B1647594225444N07145828WA0101601032001000069
B1647594225444N07145828WA0101601032001000069
B1648004225450N07145840WA0101601030001000069
B1648014225453N07145853WA0101501027001000072
B1648024225452N07145868WA0101501026001000075
B1648034225449N07145883WA0101201024001000080
B1648044225442N07145897WA0101101024001000085
B1648054225432N07145908WA0101101025001000089
B1648064225419N07145916WA0101101026001000091
B1648074225406N07145920WA0101001026001000093
B1648084225392N07145919WA0101101025001000097
B1648094225377N07145915WA0100901022001000102
B1648104225362N07145907WA0100801020001000108
B1648114225348N07145895WA0100701019001000114
B1648124225335N07145879WA0100601020001000116
B1648134225324N07145861WA0100601022001000116
B1648144225315N07145841WA0100701025001000116
B1648154225307N07145820WA0101001029001000115
B1648164225302N07145798WA0101201031001000114
B1648174225299N07145775WA0101501033001000115
B1648184225299N07145752WA0101701034001000115
B1648194225302N07145729WA0101901034001000115
B1648204225307N07145707WA0101901034001000115
B1648214225316N07145686WA0102001035001000115
B1648224225326N07145668WA0102001036001000112
F164823050609111315202529133
B1648234225338N07145653WA0102101038001000108
B1648244225352N07145642WA0102201040001000103
B1648254225365N07145635WA0102501042001000098
B1648264225380N07145631WA0102701043001000094
B1648274225393N07145631WA0102901044001000090
B1648284225406N07145635WA0102901045001000086
B1648294225417N07145644WA0103001046001000082
B1648304225426N07145655WA0103101046001000080
B1648314225431N07145670WA0103101045001000080
B1648324225433N07145685WA0103101046001000080
B1648334225432N07145701WA0103101046001000080
B1648344225427N07145716WA0103201048001000080
B1648354225419N07145728WA0103301050001000081
B1648364225408N07145736WA0103501051001000085
B1648374225395N07145741WA0103601051001000089
B1648384225382N07145742WA0103601050001000095
B1648394225367N07145739WA0103601050001000099
B1648404225353N07145732WA0103701051001000103
B1648414225339N07145721WA0103701053001000106
B1648424225327N07145706WA0103801053001000110
B1648434225317N07145689WA0103901053001000113
B1648444225309N07145668WA0103901052001000116
B1648454225303N07145646WA0103901052001000118
B1648464225301N07145622WA0103901053001000119
B1648474225301N07145598WA0103901055001000119
B1648484225305N07145575WA0104101057001000116
B1648494225312N07145553WA0104201058001000113
B1648504225321N07145535WA0104401059001000110
B1648504225321N07145535WA0104401059001000110
B1648514225333N07145520WA0104601061001000106
B1648524225346N07145509WA0104701062001000102
B1648534225361N07145503WA0104701063001000097
B1648534225361N07145503WA0104801063001000097
B1648544225375N07145502WA0104801063001000093
B1648554225388N07145504WA0104901063001000089
B1648564225400N07145511WA0105001063001000084
B1648574225410N07145521WA0104901064001000081
B1648584225417N07145534WA0104901063001000080
B1648594225421N07145549WA0104901061001000081
B1649004225422N07145565WA0104701061001000081
B1649014225420N07145581WA0104701062001000080
B1649024225414N07145596WA0104701063001000081
B1649034225406N07145608WA0104801063001000084
B1649044225395N07145617WA0104801063001000087
B1649054225382N07145622WA0104801064001000091
B1649054225382N07145622WA0104901064001000091
B1649064225368N07145624WA0104901064001000095
B1649074225353N07145622WA0104901066001000098
B1649074225353N07145622WA0105101066001000098
B1649084225339N07145617WA0105101068001000100
B1649094225325N07145610WA0105301070001000101
B1649104225311N07145600WA0105401071001000103
B1649114225299N07145587WA0105501072001000105
B1649124225287N07145572WA0105601072001000108
B1649134225276N07145555WA0105701072001000110
B1649144225268N07145536WA0105701072001000112
B1649154225261N07145515WA0105701071001000114
B1649164225257N07145493WA0105601071001000115
B1649174225255N07145470WA0105601071001000116
B1649184225256N07145446WA0105601071001000116
B1649194225260N07145423WA0105601072001000116
B1649204225267N07145402WA0105701073001000115
B1649214225277N07145383WA0105701074001000112
B1649224225289N07145368WA0105801075001000109
B1649234225302N07145357WA0105901075001000105
F16492405060911121315202529133
B1649244225317N07145350WA0106001075001000102
B1649244225317N07145350WA0106001075001000102
B1649254225332N07145347WA0106001075001000098
B1649254225332N07145347WA0106001075001000098
B1649264225346N07145349WA0106001075001000095
B1649274225359N07145354WA0106001076001000090
B1649284225371N07145362WA0106101077001000085
B1649294225380N07145373WA0106201079001000080
B1649304225386N07145386WA0106301080001000077
B1649314225390N07145401WA0106401081001000076
B1649324225391N07145416WA0106501080001000077
B1649334225388N07145432WA0106501080001000078
B1649344225383N07145446WA0106501081001000080
B1649354225375N07145459WA0106501082001000083
B1649364225365N07145468WA0106701085001000086
B1649374225352N07145474WA0106801087001000089
B1649384225339N07145476WA0107101088001000094
B1649394225324N07145475WA0107201089001000098
B1649404225310N07145469WA0107301089001000104
B1649414225295N07145459WA0107301089001000108
B1649424225283N07145444WA0107301089001000113
B1649434225273N07145426WA0107301089001000117
B1649444225265N07145404WA0107301090001000120
B1649454225261N07145380WA0107301091001000120
B1649464225260N07145356WA0107301091001000120
B1649474225262N07145332WA0107301091001000118
B1649484225268N07145310WA0107401093001000115
B1649494225277N07145291WA0107501095001000110
B1649504225288N07145275WA0107701096001000105
B1649514225301N07145265WA0107801096001000100
B1649514225301N07145265WA0107801096001000100
B1649524225315N07145259WA0107801095001000095
B1649524225315N07145259WA0107901095001000095
B1649534225329N07145258WA0107901094001000091
B1649544225342N07145262WA0107901093001000088
B1649554225354N07145270WA0107801092001000084
B1649564225362N07145282WA0107701092001000080
B1649574225368N07145296WA0107701093001000079
B1649584225370N07145311WA0107701093001000078
B1649594225369N07145327WA0107601092001000079
B1650004225364N07145341WA0107601092001000082
B1650014225355N07145354WA0107601092001000087
B1650014225355N07145354WA0107601092001000087
B1650024225343N07145362WA0107601092001000093
B1650034225328N07145365WA0107601093001000101
B1650044225313N07145363WA0107601093001000108
B1650054225298N07145354WA0107601092001000114
B1650064225284N07145339WA0107601092001000120
B1650074225273N07145320WA0107601092001000122
B1650084225265N07145297WA0107601093001000123
B1650094225261N07145273WA0107701095001000121
B1650104225262N07145249WA0107901097001000118
B1650114225266N07145226WA0108001099001000114
B1650124225274N07145206WA0108201100001000110
B1650134225284N07145190WA0108301101001000106
B1650144225297N07145177WA0108401100001000102
B1650154225311N07145169WA0108301098001000099
B1650164225325N07145166WA0108201096001000097
B1650174225339N07145166WA0108101095001000094
B1650184225353N07145170WA0107901094001000089
B1650184225353N07145170WA0107801094001000089
B1650194225364N07145178WA0107801093001000085
B1650204225372N07145191WA0107701091001000083
B1650214225377N07145207WA0107601089001000083
B1650224225378N07145224WA0107301086001000085
B1650234225374N07145240WA0107101083001000088
B1650244225366N07145255WA0106901083001000093
B1650254225353N07145266WA0106801083001000099
B1650254225353N07145266WA0106801083001000099
B1650264225338N07145270WA0106801085001000105
B1650274225322N07145268WA0106901086001000110
B1650284225306N07145260WA0107001088001000115
B1650294225292N07145247WA0107001088001000118
B1650294225292N07145247WA0107101088001000118
B1650304225279N07145229WA0107101089001000120
B1650314225269N07145209WA0107201090001000122
B1650324225261N07145187WA0107301091001000122
B1650334225254N07145164WA0107401090001000123
B1650344225246N07145141WA0107601090001000124
B1650354225238N07145119WA0107701089001000125
B1650354225238N07145119WA0107701089001000125
B1650364225230N07145096WA0107701089001000125
B1650374225221N07145073WA0107701087001000126
B1650384225212N07145050WA0107601085001000128
B1650384225212N07145050WA0107401085001000128
B1650394225204N07145027WA0107401082001000130
B1650404225196N07145003WA0107201080001000131
B1650404225196N07145003WA0107001080001000131
B1650414225188N07144978WA0107001077001000132
B1650424225180N07144953WA0106701074001000134
B1650434225172N07144928WA0106501071001000137
B1650444225164N07144902WA0106301069001000138
B1650454225155N07144877WA0105901067001000139
B1650464225147N07144851WA0105801065001000140
B1650474225137N07144826WA0105601064001000140
B1650474225137N07144826WA0105401064001000140
B1650484225128N07144800WA0105401063001000140
B1650494225118N07144775WA0105301063001000141
B1650494225118N07144775WA0105301063001000141
B1650504225107N07144750WA0105301063001000141
B1650504225107N07144750WA0105201063001000141
B1650514225097N07144725WA0105201061001000141
B1650524225088N07144700WA0105001058001000142
B1650524225088N07144700WA0104801058001000142
B1650534225078N07144674WA0104701053001000145
B1650544225069N07144647WA0104401048001000147
B1650554225060N07144619WA0104101045001000149
B1650564225052N07144591WA0103801043001000151
B1650564225052N07144591WA0103501043001000151
B1650574225043N07144562WA0103401041001000151
B1650584225035N07144534WA0103301041001000151
B1650584225035N07144534WA0103101041001000151
B1650594225026N07144506WA0103101040001000151
B1651004225017N07144478WA0103101040001000152
B1651014225007N07144450WA0103101041001000151
B1651024224997N07144423WA0103201043001000149
B1651034224987N07144396WA0103301046001000146
B1651044224977N07144370WA0103401050001000143
B1651054224966N07144346WA0103701055001000139
B1651064224956N07144322WA0104201061001000134
B1651074224945N07144299WA0104601067001000130
B1651084224935N07144277WA0105301073001000125
B1651094224926N07144256WA0105801078001000120
B1651094224926N07144256WA0105801078001000120
B1651104224918N07144235WA0106301082001000116
B1651104224918N07144235WA0106701082001000116
B1651114224909N07144215WA0106701084001000115
B1651124224901N07144194WA0106901083001000115
B1651134224894N07144173WA0106901079001000118
B1651144224886N07144151WA0106801074001000124
B1651154224878N07144128WA0106401072001000128
B1651164224869N07144104WA0106201071001000129
B1651174224860N07144081WA0106001070001000129
B1651184224851N07144058WA0105901069001000130
B1651194224840N07144036WA0105701066001000132
B1651194224840N07144036WA0105501066001000132
B1651204224830N07144013WA0105401062001000136
B1651214224819N07143989WA0105301059001000139
B1651214224819N07143989WA0104901059001000139
B1651224224809N07143964WA0104901056001000141
B1651234224799N07143939WA0104701055001000143
B1651244224789N07143913WA0104501053001000143
B1651254224781N07143886WA0104301051001000143
B1651264224772N07143859WA0104101049001000144
B1651274224765N07143832WA0104001048001000144
B1651284224757N07143805WA0103801045001000145
B1651294224750N07143777WA0103601041001000147
B1651304224742N07143749WA0103201036001000149
B1651304224742N07143749WA0103101036001000149
B1651314224733N07143720WA0102701032001000152
B1651324224724N07143692WA0102401029001000153
B1651334224715N07143663WA0102201026001000154
B1651334224715N07143663WA0101801026001000154
B1651344224705N07143635WA0101801025001000154
B1651354224695N07143607WA0101601023001000154
B1651364224685N07143579WA0101401022001000153
B1651374224674N07143552WA0101301021001000151
B1651384224663N07143526WA0101201020001000150
B1651394224652N07143500WA0101001020001000149
B1651394224652N07143500WA0101001020001000149
B1651404224640N07143474WA0101001018001000148
B1651414224629N07143448WA0100801016001000149
B1651424224617N07143422WA0100701014001000149
B1651434224605N07143397WA0100501014001000148
B1651434224605N07143397WA0100401014001000148
B1651444224593N07143372WA0100401014001000146
B1651454224581N07143347WA0100401014001000145
B1651464224570N07143322WA0100401013001000144
B1651474224559N07143297WA0100301013001000143
B1651474224559N07143297WA0100301013001000143
B1651484224549N07143272WA0100301012001000142
B1651494224539N07143246WA0100201011001000142
B1651504224530N07143220WA0100201008001000143
B1651504224530N07143220WA0100001008001000143
B1651514224522N07143194WA0100001006001000144
B1651524224513N07143167WA0099701003001000144
B1651524224513N07143167WA0099601003001000144
B1651534224504N07143140WA0099601001001000144
B1651544224495N07143114WA0099300999001000144
B1651554224484N07143088WA0099100998001000144
B1651564224474N07143063WA0098900998001000143
B1651574224463N07143038WA0098900997001000143
B1651574224463N07143038WA0098900997001000143
B1651584224453N07143013WA0098800996001000143
B1651584224453N07143013WA0098700996001000143
B1651594224443N07142987WA0098700995001000143
B1652004224433N07142962WA0098600993001000144
B1652014224423N07142935WA0098500992001000144
B1652024224415N07142909WA0098300990001000143
B1652034224407N07142882WA0098300989001000143
B1652034224407N07142882WA0098100989001000143
B1652044224399N07142855WA0098100988001000143
B1652054224393N07142827WA0098000986001000143
B1652064224386N07142800WA0097900983001000144
B1652064224386N07142800WA0097700983001000144
B1652074224379N07142772WA0097600981001000145
B1652084224371N07142744WA0097300979001000146
B1652084224371N07142744WA0097100979001000146
B1652094224363N07142717WA0097100979001000146
B1652104224354N07142690WA0097000979001000144
B1652114224345N07142664WA0097000979001000143
B1652114224345N07142664WA0097000979001000143
B1652124224336N07142638WA0097000980001000141
B1652134224327N07142612WA0097000980001000140
B1652134224327N07142612WA0097000980001000140
B1652144224318N07142586WA0097000979001000140
B1652154224310N07142560WA0097000977001000141
B1652164224302N07142533WA0096800974001000143
B1652164224302N07142533WA0096800974001000143
B1652174224294N07142506WA0096700971001000145
B1652174224294N07142506WA0096400971001000145
B1652184224287N07142478WA0096400969001000147
B1652194224280N07142449WA0096200966001000149
B1652204224274N07142420WA0096000964001000150
B1652214224268N07142390WA0095800963001000150
B1652224224262N07142361WA0095600963001000149
B1652234224255N07142333WA0095500965001000146
B1652234224255N07142333WA0095600965001000146
B1652244224248N07142305WA0095600967001000144
B1652254224240N07142278WA0095700969001000142
B1652254224240N07142278WA0095800969001000142
B1652264224233N07142252WA0095800969001000140
B1652264224233N07142252WA0095800969001000140
B1652274224225N07142225WA0095800967001000140
B1652284224217N07142199WA0095800963001000142
B1652294224209N07142172WA0095600959001000144
B1652304224202N07142144WA0095300956001000146
B1652314224196N07142115WA0095000953001000148
B1652324224190N07142086WA0094700952001000147
B1652324224190N07142086WA0094700952001000147
B1652334224184N07142058WA0094500951001000146
B1652344224178N07142030WA0094400951001000145
B1652344224178N07142030WA0094400951001000145
B1652354224172N07142002WA0094400953001000142
B1652364224166N07141974WA0094400954001000140
B1652364224166N07141974WA0094500954001000140
B1652374224161N07141947WA0094500955001000138
B1652384224155N07141921WA0094600956001000136
B1652394224150N07141894WA0094700957001000134
B1652404224146N07141868WA0094800957001000133
B1652404224146N07141868WA0094800957001000133
B1652414224141N07141842WA0094800957001000133
B1652424224136N07141815WA0094800956001000133
B1652424224136N07141815WA0094700956001000133
B1652434224132N07141789WA0094700955001000134
B1652444224127N07141763WA0094700952001000135
B1652454224123N07141736WA0094400948001000137
B1652464224120N07141708WA0094200943001000140
B1652474224116N07141680WA0093800941001000143
B1652474224116N07141680WA0093600941001000143
B1652484224114N07141651WA0093600942001000141
B1652494224111N07141623WA0093600945001000137
B1652504224109N07141596WA0093700948001000133
B1652504224109N07141596WA0093900948001000133
B1652514224106N07141570WA0094000952001000128
B1652524224103N07141545WA0094200955001000125
B1652524224103N07141545WA0094400955001000125
B1652534224099N07141520WA0094400956001000123
B1652544224095N07141496WA0094500956001000121
B1652544224095N07141496WA0094600956001000121
B1652554224090N07141473WA0094600954001000121
B1652564224085N07141449WA0094600950001000123
B1652564224085N07141449WA0094400950001000123
B1652574224078N07141426WA0094400945001000125
B1652584224069N07141403WA0094100938001000128
B1652584224069N07141403WA0093400938001000128
B1652594224058N07141382WA0093400931001000132
B1653004224044N07141361WA0092800924001000136
F165301050611121315202529133
B1653014224029N07141342WA0092000918001000139
B1653024224012N07141326WA0091600913001000141
B1653034223993N07141312WA0091000911001000141
B1653044223974N07141301WA0090800909001000140
B1653054223954N07141292WA0090500907001000139
B1653054223954N07141292WA0090200907001000139
B1653064223934N07141284WA0090100905001000138
B1653074223914N07141278WA0090000904001000136
B1653074223914N07141278WA0089800904001000136
B1653084223894N07141274WA0089800903001000133
B1653094223875N07141272WA0089700901001000132
B1653104223855N07141273WA0089500899001000131
B1653114223836N07141277WA0089400898001000129
B1653114223836N07141277WA0089300898001000129
B1653124223817N07141284WA0089300899001000125
B1653134223800N07141293WA0089300899001000122
B1653144223784N07141303WA0089300899001000120
B1653154223769N07141316WA0089200897001000120
B1653154223769N07141316WA0089100897001000120
B1653164223755N07141332WA0089100895001000120
B1653174223742N07141349WA0088900893001000121
B1653174223742N07141349WA0088800893001000121
B1653184223731N07141368WA0088800892001000121
B1653194223720N07141388WA0088700892001000120
B1653204223711N07141409WA0088600892001000119
B1653204223711N07141409WA0088600892001000119
B1653214223703N07141430WA0088600891001000118
B1653224223695N07141452WA0088500890001000117
B1653234223688N07141473WA0088400888001000118
B1653234223688N07141473WA0088300888001000118
B1653244223681N07141495WA0088300886001000119
B1653254223674N07141518WA0088200885001000119
B1653254223674N07141518WA0088000885001000119
B1653264223668N07141540WA0088000885001000118
B1653274223663N07141563WA0088000886001000117
B1653274223663N07141563WA0088000886001000117
B1653284223659N07141586WA0088000887001000115
B1653294223657N07141609WA0088000886001000114
B1653304223657N07141632WA0088000886001000114
B1653304223657N07141632WA0087900886001000114
B1653314223659N07141655WA0087900885001000113
B1653324223662N07141677WA0087800883001000113
B1653324223662N07141677WA0087700883001000113
B1653334223666N07141700WA0087700883001000113
B1653344223672N07141721WA0087700882001000114
B1653344223672N07141721WA0087600882001000114
B1653354223679N07141742WA0087600882001000113
B1653364223687N07141762WA0087600882001000113
B1653364223687N07141762WA0087600882001000113
B1653374223696N07141782WA0087600883001000112
B1653384223706N07141800WA0087600884001000112
B1653394223715N07141819WA0087700884001000112
B1653394223715N07141819WA0087800884001000112
B1653404223725N07141837WA0087800886001000112
B1653414223735N07141856WA0087900888001000110
B1653414223735N07141856WA0088000888001000110
B1653424223744N07141874WA0088000889001000108
B1653434223753N07141892WA0088100891001000106
B1653444223762N07141910WA0088300893001000103
B1653444223762N07141910WA0088400893001000103
B1653454223770N07141927WA0088500895001000102
B1653464223779N07141943WA0088600896001000100
B1653474223788N07141960WA0088700895001000100
B1653474223788N07141960WA0088700895001000100
B1653474223788N07141960WA0088800895001000100
B1653484223797N07141976WA0088800894001000102
B1653494223806N07141993WA0088800893001000105
B1653504223815N07142010WA0088800894001000105
B1653514223824N07142028WA0088900898001000101
B1653524223832N07142045WA0089100902001000098
B1653524223832N07142045WA0089100902001000098
B1653534223839N07142062WA0089300904001000096
B1653544223843N07142080WA0089500904001000095
B1653544223843N07142080WA0089300904001000095
B1653554223844N07142100WA0089300903001000097
B1653564223842N07142119WA0089200903001000099
B1653574223836N07142138WA0089100903001000101
B1653584223826N07142154WA0089100903001000104
B1653584223826N07142154WA0089100903001000104
B1653594223813N07142166WA0089100905001000106
B1654004223798N07142173WA0089300907001000108
B1654004223798N07142173WA0089400907001000108
B1654014223781N07142173WA0089400909001000112
F16540205060911121315202529133
B1654024223765N07142167WA0089600910001000115
B1654034223750N07142154WA0089600910001000120
B1654044223738N07142136WA0089700909001000124
B1654054223729N07142113WA0089700909001000127
B1654054223729N07142113WA0089700909001000127
B1654064223726N07142088WA0089700908001000130
B1654074223727N07142061WA0089700908001000131
B1654084223733N07142037WA0089700911001000129
B1654094223744N07142016WA0089900915001000122
B1654104223757N07142000WA0090200921001000113
B1654114223772N07141991WA0090600926001000105
B1654124223787N07141988WA0091100929001000098
B1654134223801N07141990WA0091400931001000092
B1654144223813N07141997WA0091700932001000087
B1654154223823N07142008WA0091800932001000085
B1654164223830N07142023WA0091900930001000086
B1654174223833N07142040WA0091800929001000089
B1654184223833N07142058WA0091700928001000091
B1654184223833N07142058WA0091600928001000091
B1654194223829N07142076WA0091600928001000094
B1654204223820N07142092WA0091600928001000097
B1654214223809N07142104WA0091600929001000100
B1654224223795N07142112WA0091700931001000102
B1654234223779N07142114WA0091800932001000106
B1654234223779N07142114WA0091900932001000106
B1654244223763N07142109WA0091900933001000110
B1654244223763N07142109WA0092000933001000110
B1654254223748N07142099WA0092100934001000114
B1654264223735N07142084WA0092200935001000116
B1654274223725N07142064WA0092300936001000118
B1654284223719N07142041WA0092400937001000120
B1654294223717N07142017WA0092400936001000123
B1654304223719N07141992WA0092400936001000124
B1654314223725N07141968WA0092400937001000124
B1654324223735N07141947WA0092500939001000120
B1654334223747N07141931WA0092700943001000113
B1654344223762N07141921WA0093000947001000106
B1654344223762N07141921WA0093000947001000106
B1654354223776N07141916WA0093300951001000098
B1654364223790N07141917WA0093600954001000090
B1654374223802N07141922WA0094000956001000084
B1654374223802N07141922WA0094000956001000084
B1654384223812N07141932WA0094300958001000081
B1654394223820N07141944WA0094400957001000080
B1654404223825N07141959WA0094500956001000081
B1654414223827N07141975WA0094400955001000083
B1654414223827N07141975WA0094400955001000083
B1654424223824N07141992WA0094400955001000085
B1654434223819N07142008WA0094300955001000088
B1654444223809N07142021WA0094300955001000092
B1654444223809N07142021WA0094300955001000092
B1654454223798N07142031WA0094300955001000094
B1654464223784N07142036WA0094400957001000097
B1654464223784N07142036WA0094400957001000097
B1654474223769N07142036WA0094500959001000099
B1654484223754N07142031WA0094600961001000101
B1654494223741N07142022WA0094800962001000104
B1654504223728N07142008WA0094900962001000107
B1654514223718N07141991WA0094900961001000111
B1654524223711N07141970WA0095000961001000116
B1654534223707N07141947WA0095000962001000119
B1654544223707N07141923WA0095000963001000119
B1654554223710N07141899WA0095000964001000118
B1654564223718N07141878WA0095200965001000116
B1654574223729N07141860WA0095300967001000112
B1654584223742N07141847WA0095400969001000105
B1654594223756N07141840WA0095600972001000098
B1655004223770N07141839WA0095900974001000092
B1655014223783N07141842WA0096100975001000087
B1655024223794N07141851WA0096200976001000084
F16550305060911121315202529
B1655034223802N07141863WA0096200975001000083
B1655044223808N07141878WA0096200973001000085
B1655054223810N07141895WA0096100973001000087
B1655064223808N07141913WA0096100973001000088
B1655074223803N07141929WA0096000975001000088
B1655084223794N07141942WA0096100976001000088
B1655094223783N07141952WA0096300977001000091
B1655104223769N07141957WA0096300976001000096
B1655114223755N07141957WA0096300976001000101
B1655124223739N07141952WA0096400975001000106
B1655134223725N07141942WA0096400976001000109
B1655144223712N07141929WA0096300977001000112
B1655154223700N07141912WA0096400978001000114
B1655164223690N07141893WA0096500980001000115
B1655174223682N07141872WA0096700982001000114
B1655184223677N07141850WA0096800985001000113
B1655194223675N07141828WA0097000986001000112
B1655204223677N07141805WA0097200985001000113
B1655214223682N07141783WA0097200984001000114
B1655224223690N07141763WA0097200984001000113
B1655234223701N07141746WA0097200986001000109
B1655244223715N07141735WA0097200987001000105
B1655254223730N07141730WA0097300989001000101
B1655264223744N07141729WA0097400992001000096
B1655274223757N07141734WA0097500994001000089
B1655284223768N07141744WA0097700996001000086
B1655294223776N07141758WA0097700997001000086
B1655304223780N07141774WA0097800997001000086
B1655314223781N07141791WA0097900998001000087
B1655324223777N07141809WA0098000999001000088
B1655334223770N07141824WA0098101000001000090
B1655344223760N07141836WA0098201001001000091
B1655354223748N07141844WA0098301001001000093
B1655364223734N07141848WA0098401002001000097
B1655374223719N07141847WA0098501001001000102
B1655384223703N07141841WA0098501001001000108
B1655394223689N07141832WA0098501002001000112
B1655404223675N07141819WA0098601004001000111
B1655414223663N07141803WA0098801006001000111
B1655424223653N07141786WA0099001008001000110
B1655434223645N07141766WA0099201009001000111
B1655444223641N07141744WA0099301009001000112
B1655454223639N07141722WA0099401008001000112
B1655464223641N07141699WA0099401008001000111
B1655464223641N07141699WA0099401008001000111
B1655474223646N07141678WA0099401010001000107
B1655484223654N07141660WA0099501011001000103
B1655494223664N07141645WA0099601012001000100
B1655504223676N07141633WA0099601012001000097
B1655514223689N07141625WA0099701011001000095
B1655524223703N07141621WA0099701010001000093
B1655534223716N07141621WA0099701010001000092
B1655544223730N07141625WA0099601011001000089
B1655554223741N07141633WA0099701012001000086
B1655564223751N07141644WA0099801013001000084
B1655574223758N07141658WA0099801013001000084
B1655584223763N07141673WA0099901013001000084
B1655594223764N07141690WA0099901014001000085
B1656004223762N07141708WA0099901014001000087
B1656014223756N07141724WA0100001015001000090
B1656024223747N07141737WA0100101017001000092
B1656034223735N07141748WA0100201019001000094
F16560405060911121315202529133
B1656044223722N07141754WA0100401020001000098
B1656054223707N07141755WA0100601022001000103
B1656064223691N07141752WA0100701023001000107
B1656074223676N07141743WA0100801025001000109
B1656084223663N07141731WA0101001027001000109
B1656094223652N07141714WA0101201030001000109
B1656104223643N07141696WA0101501032001000108
B1656114223637N07141676WA0101701033001000107
B1656124223633N07141655WA0101901033001000107
B1656134223632N07141633WA0101901032001000107
B1656144223633N07141612WA0101901031001000107
B1656154223638N07141591WA0101801030001000108
B1656164223645N07141571WA0101801030001000106
B1656174223654N07141554WA0101701030001000104
B1656184223666N07141541WA0101701030001000101
B1656194223678N07141530WA0101701031001000099
B1656204223692N07141524WA0101801031001000096
B1656214223706N07141521WA0101801032001000093
B1656224223720N07141523WA0101801032001000090
B1656234223732N07141529WA0101801033001000087
B1656244223743N07141538WA0101901033001000085
B1656254223752N07141550WA0101901033001000084
B1656264223758N07141565WA0102001033001000084
B1656274223761N07141582WA0101901032001000085
B1656284223760N07141599WA0101901032001000087
B1656294223756N07141616WA0101901033001000090
B1656304223749N07141632WA0101901033001000093
B1656314223739N07141646WA0101901032001000096
B1656324223726N07141656WA0101901033001000101
B1656334223712N07141663WA0101901034001000106
B1656344223695N07141666WA0102001036001000109
B1656354223679N07141663WA0102101039001000111
B1656364223663N07141655WA0102301042001000112
B1656374223649N07141643WA0102601044001000113
B1656384223637N07141627WA0102801046001000113
B1656394223627N07141608WA0103101046001000114
B1656404223620N07141587WA0103201045001000115
B1656414223616N07141564WA0103101043001000117
B1656424223615N07141540WA0103001040001000119
B1656434223618N07141516WA0102801036001000121
B1656444223624N07141493WA0102401033001000122
B1656454223633N07141472WA0102201032001000121
B1656464223645N07141454WA0102001034001000117
B1656474223659N07141441WA0102101037001000111
B1656484223673N07141431WA0102301040001000105
B1656494223688N07141425WA0102501043001000100
B1656504223702N07141423WA0102701045001000095
B1656514223716N07141424WA0103001046001000091
B1656524223729N07141428WA0103101046001000089
B1656534223741N07141435WA0103201045001000088
B1656544223752N07141445WA0103201043001000088
B1656554223762N07141457WA0103201041001000090
B1656564223771N07141470WA0103301040001000092
B1656574223780N07141485WA0103201040001000092
B1656584223787N07141501WA0103301041001000091
B1656594223795N07141516WA0103301042001000090
B1657004223802N07141531WA0103301043001000089
B1657014223809N07141547WA0103401043001000088
B1657024223815N07141562WA0103401042001000089
B1657034223822N07141578WA0103301041001000091
B1657044223829N07141594WA0103101038001000093
B1657054223837N07141610WA0102901034001000097
B1657064223845N07141628WA0102701030001000101
B1657074223852N07141646WA0102401030001000103
B1657084223860N07141664WA0102301031001000103
B1657094223867N07141682WA0102201033001000100
B1657104223875N07141699WA0102301036001000097
B1657114223883N07141715WA0102501039001000093
B1657124223891N07141730WA0102701041001000091
B1657134223898N07141746WA0102901041001000091
B1657144223904N07141762WA0103001039001000092
B1657154223910N07141779WA0102901036001000094
B1657164223915N07141798WA0102701033001000097
B1657174223918N07141817WA0102501030001000098
B1657184223922N07141836WA0102201029001000099
B1657194223925N07141856WA0102101028001000100
B1657204223928N07141876WA0102001028001000101
B1657214223932N07141896WA0101901027001000102
B1657224223937N07141915WA0101801027001000103
B1657234223942N07141935WA0101801028001000103
B1657244223948N07141954WA0101901030001000102
B1657254223954N07141973WA0102001033001000099
B1657264223959N07141991WA0102201037001000095
B1657274223964N07142009WA0102401039001000092
B1657284223968N07142026WA0102801042000000090
B1657294223973N07142043WA0102901043000000088
B1657304223977N07142060WA0103101044000000087
B1657314223983N07142076WA0103501045001000086
B1657324223990N07142090WA0103501045001000088
B1657334224000N07142102WA0103401045001000089
B1657344224011N07142112WA0103201045001000091
B1657354224024N07142118WA0103101045001000093
B1657364224038N07142122WA0103101046001000095
B1657374224053N07142122WA0103101046001000097
B1657384224067N07142118WA0103101047001000099
B1657394224081N07142111WA0103101047001000101
B1657404224094N07142100WA0103201046001000104
B1657414224106N07142086WA0103201045001000107
B1657424224117N07142069WA0103001043001000109
B1657434224125N07142050WA0103001042001000112
B1657444224132N07142029WA0102801041001000113
B1657454224136N07142006WA0102701040001000115
B1657454224136N07142006WA0102601040001000115
B1657464224137N07141983WA0102501039001000115
B1657474224135N07141960WA0102501039001000115
B1657484224130N07141938WA0102401039001000114
B1657494224124N07141916WA0102401038001000114
B1657504224116N07141896WA0102401037001000114
B1657514224105N07141878WA0102301037001000112
B1657524224093N07141862WA0102201037001000110
B1657534224080N07141849WA0102201036001000108
B1657544224066N07141838WA0102201036001000107
B1657554224052N07141830WA0102101034001000106
B1657564224036N07141824WA0102201032001000107
B1657574224021N07141820WA0102101029001000108
B1657584224004N07141817WA0102001026001000110
B1657594223988N07141816WA0101801024001000112
B1658004223971N07141817WA0101701023001000112
F16580105060911121315202529
B1658014223954N07141819WA0101601022001000112
B1658024223938N07141824WA0101501023001000110
B1658034223922N07141830WA0101401023001000110
B1658044223907N07141839WA0101401022001000109
B1658054223892N07141848WA0101401022001000109
B1658064223877N07141859WA0101401022001000109
B1658074223863N07141870WA0101401023001000109
B1658084223849N07141881WA0101501024001000109
B1658094223836N07141893WA0101601027001000106
B1658104223823N07141905WA0101801029001000105
B1658114223809N07141915WA0101901031001000105
B1658124223794N07141923WA0102101032001000106
B1658134223779N07141928WA0102001033001000109
B1658144223762N07141928WA0101901034001000113
B1658154223745N07141923WA0101901035001000116
B1658164223729N07141913WA0101901036001000120
B1658174223715N07141897WA0102001035001000123
B1658184223704N07141877WA0102001035001000125
B1658194223695N07141854WA0102101035001000127
B1658204223691N07141830WA0102101035001000126
B1658214223691N07141805WA0102101037001000124
B1658224223696N07141781WA0102301039001000119
B1658234223705N07141761WA0102501042001000113
B1658244223716N07141746WA0102701044001000107
B1658254223730N07141736WA0102901045001000102
B1658264223745N07141732WA0103001045001000097
B1658274223759N07141733WA0103101044001000094
B1658284223772N07141739WA0103101042001000093
B1658294223783N07141751WA0102901041001000094
B1658304223792N07141766WA0102801040001000094
B1658314223796N07141784WA0102701040001000095
B1658324223797N07141803WA0102701041001000095
B1658334223793N07141821WA0102701043001000095
B1658344223785N07141837WA0102901045001000097
B1658354223774N07141850WA0103001046001000100
B1658364223760N07141859WA0103201048001000103
B1658374223745N07141863WA0103301050001000105
B1658384223729N07141863WA0103401052001000108
B1658394223713N07141858WA0103701054001000111
B1658404223698N07141849WA0103801055001000114
B1658414223683N07141836WA0103901054001000117
B1658424223671N07141818WA0103901054001000121
B1658434223661N07141798WA0103901053001000124
B1658444223654N07141774WA0103901054001000125
B1658454223650N07141750WA0104001055001000125
B1658464223649N07141725WA0104001058001000122
B1658474223652N07141700WA0104201060001000119
B1658484223658N07141678WA0104401061001000117
B1658494223666N07141658WA0104601062001000114
B1658504223678N07141641WA0104701064001000111
B1658514223691N07141628WA0104901066001000107
B1658524223705N07141619WA0105001067001000102
B1658534223719N07141614WA0105101067001000098
B1658544223734N07141614WA0105201067001000095
B1658554223747N07141618WA0105201067001000093
B1658564223759N07141627WA0105201068001000090
B1658574223769N07141639WA0105301069001000086
B1658584223776N07141653WA0105401071001000084
B1658594223779N07141669WA0105601074001000082
B1659004223778N07141686WA0105801075001000082
B1659014223775N07141702WA0105901076001000084
F16590205060911121315202529133
B1659024223768N07141717WA0106001076001000087
B1659034223758N07141729WA0106001076001000090
B1659044223746N07141738WA0106001075001000094
B1659044223746N07141738WA0106001075001000094
B1659054223732N07141744WA0106001075001000099
B1659064223717N07141746WA0106001075001000104
B1659074223701N07141743WA0106001074001000109
B1659084223686N07141735WA0105901074001000114
B1659094223671N07141723WA0106001075001000117
B1659104223658N07141707WA0106001076001000119
B1659114223648N07141687WA0106101077001000119
B1659124223641N07141665WA0106201079001000120
B1659124223641N07141665WA0106301079001000120
B1659134223637N07141641WA0106401080001000119
B1659144223637N07141617WA0106501080001000118
B1659154223641N07141594WA0106501081001000116
B1659164223648N07141573WA0106601081001000115
B1659174223659N07141555WA0106601081001000113
B1659184223672N07141541WA0106601080001000110
B1659194223686N07141532WA0106601081001000106
B1659204223701N07141529WA0106701082001000100
B1659214223716N07141531WA0106801084001000094
B1659224223728N07141537WA0106901085001000089
B1659234223739N07141548WA0107001086001000086
B1659244223746N07141562WA0107101086001000085
B1659254223750N07141579WA0107101087001000086
B1659264223750N07141596WA0107201087001000088
B1659274223746N07141613WA0107101087001000091
B1659284223738N07141629WA0107201088001000093
B1659294223728N07141642WA0107301089001000096
B1659294223728N07141642WA0107401089001000096
B1659304223715N07141651WA0107401091001000098
B1659314223700N07141655WA0107501093001000100
B1659324223685N07141655WA0107701094001000103
B1659334223669N07141650WA0107801095001000106
B1659344223655N07141642WA0107901096001000108
B1659354223641N07141629WA0107901096001000112
B1659364223629N07141613WA0108001096001000115
B1659374223619N07141594WA0108001096001000116
B1659384223612N07141572WA0108101097001000116
B1659394223608N07141549WA0108201098001000116
B1659404223609N07141526WA0108401101001000114
B1659414223612N07141504WA0108601103001000111
B1659424223619N07141484WA0108801103001000109
B1659424223619N07141484WA0108801103001000109
B1659434223628N07141466WA0108801103001000108
B1659444223639N07141450WA0108901101001000107
B1659454223653N07141438WA0108801100001000107
B1659464223667N07141430WA0108601098001000105
B1659474223683N07141426WA0108501098001000103
B1659484223698N07141427WA0108401098001000099
B1659494223712N07141433WA0108501100001000094
B1659504223723N07141443WA0108501101001000091
B1659514223732N07141457WA0108601102001000089
B1659524223738N07141473WA0108701102001000088
B1659534223740N07141490WA0108701103001000088
B1659544223738N07141508WA0108801104001000090
B1659554223733N07141525WA0108901105001000092
B1659564223723N07141539WA0109001105001000096
B1659574223711N07141549WA0109001106001000099
B1659584223697N07141556WA0109101106001000103
B1659594223681N07141558WA0109001106001000107
B1700004223665N07141554WA0109101107001000111
B1700014223649N07141546WA0109201108001000114
B1700024223634N07141533WA0109201108001000117
B1700034223622N07141516WA0109301109001000119
B1700044223612N07141496WA0109401110001000121
B1700054223606N07141473WA0109501111001000121
B1700064223603N07141448WA0109501112001000121
B1700074223604N07141424WA0109601113001000120
B1700084223608N07141401WA0109701114001000118
B1700094223617N07141380WA0109801115001000115
B1700104223628N07141363WA0109901115001000112
B1700114223641N07141350WA0109901115001000108
B1700124223656N07141343WA0109901115001000104
B1700134223671N07141340WA0109901116001000098
B1700144223685N07141343WA0110101118001000092
B1700154223697N07141350WA0110201120001000087
B1700154223697N07141350WA0110201120001000087
B1700164223707N07141360WA0110401122001000084
B1700174223714N07141374WA0110501122001000082
B1700184223719N07141389WA0110601122001000083
B1700194223720N07141406WA0110601123001000083
B1700204223718N07141423WA0110701124001000084
B1700214223713N07141438WA0110801126001000085
B1700224223704N07141452WA0110901127001000087
B1700234223694N07141463WA0111001128001000090
B1700244223682N07141471WA0111101127001000093
B1700254223668N07141476WA0111101127001000096
B1700264223654N07141478WA0111201128001000099
B1700274223639N07141476WA0111201129001000102
B1700284223624N07141470WA0111301130001000105
B1700294223610N07141460WA0111401130001000107
B1700294223610N07141460WA0111401130001000107
B1700304223597N07141446WA0111401131001000110
B1700314223586N07141429WA0111501132001000111
B1700324223577N07141410WA0111601134001000111
B1700334223572N07141389WA0111701136001000109
B1700344223569N07141367WA0111901137001000108
B1700354223570N07141346WA0112001137001000107
B1700354223570N07141346WA0112101137001000107
B1700364223573N07141325WA0112101136001000107
B1700374223580N07141305WA0112001134001000108
B1700384223590N07141288WA0111801132001000108
B1700394223602N07141273WA0111701129001000108
B1700404223616N07141262WA0111401127001000108
B1700414223632N07141256WA0111301125001000108
B1700424223648N07141252WA0111001125001000107
B1700434223664N07141253WA0110901125001000104
B1700444223679N07141257WA0111001128001000099
B1700454223692N07141265WA0111101131001000093
B1700464223702N07141276WA0111401135001000087
B1700474223710N07141289WA0111701137001000082
B1700484223715N07141304WA0111901139001000080
B1700494223716N07141320WA0112201141001000079
B1700504223715N07141336WA0112401143001000079
B1700514223711N07141352WA0112601144001000080
B1700514223711N07141352WA0112701144001000080
B1700524223705N07141366WA0112801145001000082
B1700534223697N07141378WA0112801146001000083
B1700544223687N07141389WA0113001146001000086
B1700554223675N07141397WA0113001146001000089
B1700564223662N07141403WA0113101147001000093
B1700574223648N07141405WA0113101147001000096
B1700584223633N07141406WA0113101148001000098
B1700594223619N07141406WA0113101147001000099
B1700594223619N07141406WA0113101147001000099
B1701004223604N07141406WA0113101146001000101
F1701010506070911121315202529133
B1701014223588N07141407WA0113001145001000103
B1701024223573N07141410WA0112901145001000104
B1701034223557N07141413WA0112901146001000103
B1701044223542N07141417WA0113001149001000101
B1701054223528N07141422WA0113101152001000098
B1701064223514N07141426WA0113401154001000095
B1701064223514N07141426WA0113401154001000095
B1701074223500N07141431WA0113601156001000092
B1701084223487N07141437WA0113801157001000091
B1701094223475N07141445WA0113901158001000090
B1701104223463N07141453WA0114001157001000091
B1701114223451N07141462WA0114001155001000093
B1701114223451N07141462WA0113801155001000093
B1701124223438N07141471WA0113801153001000097
B1701134223425N07141479WA0113701150001000100
B1701144223410N07141486WA0113401147001000105
B1701154223394N07141491WA0113101144001000110
B1701164223378N07141495WA0112801142001000113
B1701174223361N07141498WA0112601140001000114
B1701174223361N07141498WA0112801140001000114
B1701184223344N07141501WA0112801140001000114
B1701194223327N07141504WA0112801140001000114
B1701204223310N07141507WA0112801140001000114
B1701214223293N07141510WA0112801138001000115
B1701224223276N07141514WA0112601136001000116
B1701234223259N07141518WA0112501133001000118
B1701244223241N07141522WA0112201130001000121
B1701254223223N07141528WA0112101129001000123
B1701264223205N07141533WA0112001130001000122
B1701274223187N07141539WA0112001132001000121
B1701284223170N07141543WA0112001133001000119
B1701294223152N07141547WA0112101133001000119
B1701304223134N07141550WA0112101131001000120
B1701314223116N07141554WA0112001128001000123
B1701324223098N07141558WA0111701125001000126
B1701334223079N07141561WA0111601124001000127
B1701344223060N07141564WA0111501125001000126
B1701354223041N07141566WA0111501129001000123
B1701364223023N07141567WA0111701132001000120
B1701374223005N07141567WA0111801134001000118
B1701384222987N07141566WA0112101137001000117
B1701394222970N07141564WA0112301139001000116
B1701404222953N07141562WA0112501139001000116
B1701414222935N07141559WA0112601139001000116
B1701424222918N07141556WA0112701138001000116
B1701434222901N07141554WA0112601138001000114
B1701444222884N07141555WA0112601137001000114
B1701454222867N07141556WA0112601137001000114
B1701464222850N07141558WA0112501137001000114
B1701474222833N07141560WA0112601139001000114
B1701484222816N07141562WA0112701142001000111
B1701494222799N07141563WA0112901145001000108
B1701504222783N07141563WA0113101148001000104
B1701514222768N07141564WA0113301151001000101
B1701524222753N07141564WA0113601153001000099
B1701534222739N07141564WA0113801154001000097
B1701544222724N07141565WA0113901154001000096
B1701554222710N07141566WA0114001154001000096
B1701564222696N07141568WA0114001152001000096
B1701574222681N07141570WA0113901149001000097
B1701584222667N07141573WA0113701145001000101
B1701594222651N07141576WA0113401142001000105
B1702004222636N07141579WA0113301140001000106
B1702014222620N07141584WA0113201139001000105
B1702024222606N07141593WA0113001138001000102
B1702034222595N07141606WA0112801138001000100
B1702044222585N07141622WA0112701138001000098
B1702054222579N07141639WA0112701138001000097
B1702054222579N07141639WA0112701138001000097
B1702064222575N07141658WA0112701138001000096
B1702074222574N07141678WA0112601138001000096
B1702084222575N07141697WA0112601138001000095
B1702084222575N07141697WA0112601138001000095
B1702094222577N07141716WA0112601138001000095
B1702104222581N07141734WA0112601138001000094
B1702114222586N07141752WA0112601138001000094
B1702114222586N07141752WA0112601138001000094
B1702124222592N07141769WA0112501138001000094
B1702134222599N07141786WA0112501136001000094
B1702144222605N07141803WA0112401134001000094
B1702154222611N07141820WA0112301132001000094
B1702164222617N07141837WA0112101129001000095
B1702174222624N07141855WA0111701125001000097
B1702184222630N07141872WA0111301121001000098
B1702194222637N07141891WA0111101117001000101
B1702204222644N07141909WA0110601113001000105
B1702214222652N07141928WA0110401109001000107
B1702224222660N07141947WA0110001108001000109
B1702234222670N07141965WA0109801109001000108
B1702244222680N07141982WA0109801111001000106
B1702244222680N07141982WA0109801111001000106
B1702254222690N07141998WA0109901113001000104
B1702264222699N07142015WA0110201115001000102
B1702274222708N07142032WA0110201115001000102
B1702284222716N07142049WA0110201114001000102
B1702294222724N07142067WA0110201113001000103
B1702304222732N07142085WA0110201113001000102
B1702314222738N07142103WA0110201116001000099
B1702324222743N07142121WA0110401119001000095
B1702334222749N07142139WA0110601122001000091
B1702344222755N07142155WA0110901125001000089
B1702354222760N07142171WA0111101126001000088
B1702354222760N07142171WA0111201126001000088
B1702364222766N07142187WA0111201125001000088
B1702374222771N07142204WA0111201122001000091
B1702384222776N07142221WA0111001116001000095
B1702394222781N07142240WA0110701112001000101
B1702404222786N07142260WA0110301110001000103
B1702414222790N07142280WA0110101111001000102
B1702424222794N07142299WA0110101113001000099
B1702434222798N07142318WA0110101118000000094
B1702444222801N07142336WA0110501122000000090
B1702454222803N07142354WA0110701126000000086
B1702464222805N07142370WA0111201129000000082
B1702474222806N07142387WA0111501130000000081
B1702484222809N07142403WA0111801130000000081
B1702494222814N07142418WA0111701129001000082
B1702504222821N07142431WA0111401127001000083
B1702514222831N07142442WA0111201124001000086
B1702524222843N07142450WA0110901122001000088
B1702534222856N07142455WA0110701121001000092
B1702544222870N07142456WA0110601119001000095
B1702554222884N07142453WA0110401118001000099
B1702564222899N07142446WA0110201116001000104
B1702574222912N07142434WA0110101115001000110
B1702584222925N07142419WA0110001115001000114
B1702594222936N07142400WA0109901115001000117
B1702594222936N07142400WA0109901115001000117
B1703004222944N07142379WA0109901116001000118
B1703014222950N07142357WA0110001119001000118
B1703024222954N07142334WA0110201122001000114
B1703034222957N07142312WA0110501124001000112
B1703044222958N07142289WA0110601125001000110
B1703054222958N07142267WA0110801125001000110
B1703054222958N07142267WA0110901125001000110
B1703064222957N07142245WA0110901126001000109
B1703074222955N07142223WA0110901127001000108
B1703084222953N07142201WA0111001128001000107
B1703094222950N07142180WA0111101128001000106
B1703104222947N07142159WA0111201129001000105
B1703114222945N07142138WA0111301130001000103
B1703124222945N07142118WA0111401130001000103
B1703134222947N07142097WA0111401128001000104
B1703144222952N07142077WA0111201126001000105
B1703154222960N07142058WA0111101123001000107
B1703164222971N07142042WA0110901120001000108
B1703174222984N07142028WA0110601118001000109
B1703184222998N07142018WA0110401118001000107
B1703194223013N07142011WA0110301119001000104
B1703204223028N07142008WA0110401121001000101
B1703214223043N07142007WA0110401123001000097
B1703224223056N07142010WA0110501124001000093
B1703234223069N07142016WA0110701123001000091
B1703234223069N07142016WA0110601123001000091
B1703244223081N07142025WA0110601121001000091
B1703254223091N07142038WA0110401118001000092
B1703264223099N07142053WA0110301116001000094
B1703274223104N07142071WA0110101116001000094
B1703284223105N07142091WA0110101116001000096
B1703294223102N07142110WA0109901114001000098
B1703304223096N07142128WA0109801113001000099
F17033105060911121315202529133
B1703314223087N07142144WA0109701112001000100
B1703324223076N07142157WA0109701111001000101
B1703334223062N07142166WA0109601111001000102
B1703344223047N07142172WA0109601111001000103
B1703354223032N07142174WA0109501110001000105
B1703354223032N07142174WA0109401110001000105
B1703364223016N07142172WA0109401109001000107
B1703374223000N07142167WA0109301108001000109
B1703384222985N07142158WA0109201107001000111
B1703394222971N07142146WA0109201108001000112
B1703404222958N07142131WA0109201108001000113
B1703414222948N07142113WA0109201108001000113
B1703414222948N07142113WA0109201108001000113
B1703424222939N07142093WA0109301108001000113
B1703434222931N07142073WA0109301108001000113
B1703444222926N07142051WA0109301109001000114
B1703454222921N07142029WA0109301109001000114
B1703464222916N07142007WA0109301108001000114
B1703474222910N07141985WA0109201107001000115
B1703474222910N07141985WA0109201107001000115
B1703484222904N07141963WA0109201106001000116
B1703494222897N07141942WA0109101106001000117
B1703504222889N07141921WA0109101107001000116
B1703514222882N07141899WA0109201109001000114
B1703524222875N07141878WA0109301111001000112
B1703534222869N07141858WA0109501113001000111
B1703534222869N07141858WA0109601113001000111
B1703544222863N07141837WA0109601114001000110
B1703554222857N07141816WA0109701115001000111
B1703564222852N07141794WA0109901114001000112
B1703574222848N07141772WA0109901113001000113
B1703584222847N07141749WA0109801112001000113
B1703594222849N07141727WA0109701110001000114
B1703594222849N07141727WA0109601110001000114
B1704004222853N07141704WA0109601107001000115
B1704014222858N07141682WA0109401106001000116
B1704024222865N07141660WA0109301107001000117
B1704034222871N07141638WA0109301108001000116
B1704044222875N07141615WA0109301111001000115
B1704054222878N07141593WA0109501114001000112
B1704064222880N07141571WA0109801117001000109
B1704074222880N07141549WA0110001119001000108
B1704084222877N07141527WA0110201119001000108
B1704094222872N07141506WA0110301119001000109
B1704104222866N07141486WA0110401120001000109
B1704114222858N07141467WA0110401121001000108
B1704114222858N07141467WA0110501121001000108
B1704124222850N07141449WA0110601123001000106
B1704134222840N07141432WA0110701124001000105
B1704144222828N07141418WA0110801124001000104
B1704154222815N07141407WA0110901123001000103
B1704164222801N07141399WA0110801122001000103
B1704164222801N07141399WA0110801122001000103
B1704174222786N07141393WA0110801122001000101
B1704184222771N07141391WA0110701123001000099
B1704194222756N07141393WA0110801124001000096
B1704204222743N07141399WA0110901125001000093
B1704214222731N07141408WA0111001126001000091
B1704224222722N07141421WA0111001125001000090
B1704234222715N07141437WA0111001125001000089
B1704234222715N07141437WA0110901125001000089
B1704244222712N07141454WA0110901124001000089
B1704254222711N07141472WA0110901124001000089
B1704264222715N07141490WA0110901125001000089
B1704274222721N07141505WA0110901126001000089
B1704284222731N07141517WA0111001128001000088
B1704294222743N07141525WA0111101130001000089
B1704304222756N07141528WA0111301131001000090
B1704314222770N07141527WA0111401133001000091
F1704320506070911121315202529133
B1704324222783N07141522WA0111601136001000092
B1704334222795N07141512WA0111801138001000093
B1704344222806N07141500WA0112001139001000096
B1704354222814N07141484WA0112101138001000100
B1704364222820N07141464WA0112101137001000105
B1704374222824N07141443WA0112101136001000109
B1704384222825N07141421WA0112001135001000112
B1704394222823N07141398WA0111901135001000114
B1704404222819N07141376WA0111901136001000114
B1704414222813N07141354WA0111901138001000112
B1704424222806N07141334WA0112101141001000108
B1704424222806N07141334WA0112101141001000108
B1704434222797N07141316WA0112401144001000105
B1704444222787N07141300WA0112601146001000101
B1704454222776N07141287WA0112801146001000100
B1704464222763N07141277WA0112901145001000100
B1704474222749N07141271WA0112801143001000101
B1704484222734N07141268WA0112801142001000101
B1704494222719N07141270WA0112701143001000098
B1704504222705N07141276WA0112701145001000094
B1704514222694N07141285WA0112801146001000090
B1704524222684N07141298WA0113001148001000087
B1704534222678N07141313WA0113101148001000085
B1704544222674N07141329WA0113101148001000083
B1704554222673N07141346WA0113101147001000082
B1704564222675N07141362WA0113101147001000081
B1704574222681N07141377WA0113101148001000080
B1704584222688N07141389WA0113101149001000081
B1704594222698N07141399WA0113201150001000083
B1705004222710N07141406WA0113301151001000084
B1705014222722N07141409WA0113401152001000085
B1705024222735N07141408WA0113501153001000088
B1705034222748N07141402WA0113601154001000091
B1705044222760N07141393WA0113701155001000093
B1705054222772N07141382WA0113801156001000095
B1705064222781N07141367WA0113901158001000097
B1705074222789N07141351WA0114001158001000099
B1705084222795N07141332WA0114101159001000101
B1705094222799N07141312WA0114201159001000104
B1705104222801N07141291WA0114201159001000106
B1705114222801N07141270WA0114201159001000107
B1705124222800N07141248WA0114201160001000107
B1705124222800N07141248WA0114201160001000107
B1705134222796N07141227WA0114301162001000106
B1705144222791N07141207WA0114401162001000105
B1705154222783N07141189WA0114501162001000106
B1705164222773N07141171WA0114501161001000107
B1705174222762N07141156WA0114501160001000108
B1705174222762N07141156WA0114401160001000108
B1705184222749N07141142WA0114401160001000108
B1705194222735N07141132WA0114301160001000106
B1705204222720N07141126WA0114401160001000105
B1705214222704N07141124WA0114401160001000102
B1705224222689N07141126WA0114301161001000099
B1705234222676N07141132WA0114401162001000095
B1705244222664N07141142WA0114401162001000091
B1705254222655N07141155WA0114501163001000088
B1705264222649N07141171WA0114601163001000086
B1705274222645N07141187WA0114601163001000086
B1705284222645N07141205WA0114501162001000086
B1705294222648N07141222WA0114501161001000086
B1705304222654N07141237WA0114401161001000086
B1705314222663N07141250WA0114401161001000087
B1705324222674N07141259WA0114401162001000087
F17053305060711121315202529133
B1705334222687N07141265WA0114501164001000088
B1705344222700N07141267WA0114601166001000090
B1705354222714N07141265WA0114801168001000091
B1705364222727N07141259WA0114901169001000092
B1705374222739N07141250WA0115101171001000094
B1705384222750N07141238WA0115201172001000097
B1705394222760N07141223WA0115301172001000100
B1705404222768N07141206WA0115401173001000102
B1705414222775N07141187WA0115501174001000104
B1705424222780N07141167WA0115601174001000105
B1705434222783N07141146WA0115601175001000106
B1705444222783N07141125WA0115801176001000108
B1705454222781N07141103WA0115801176001000109
B1705464222777N07141082WA0115901177001000109
B1705474222769N07141062WA0115901178001000108
B1705484222759N07141045WA0116001178001000108
B1705494222747N07141030WA0116001177001000108
B1705504222734N07141018WA0116001177001000107
B1705514222719N07141010WA0116001177001000106
B1705524222703N07141007WA0116001177001000104
B1705534222688N07141007WA0116001178001000100
B1705544222674N07141013WA0116001179001000096
B1705544222674N07141013WA0116101179001000096
B1705554222662N07141022WA0116101179001000092
B1705564222652N07141035WA0116101179001000090
B1705564222652N07141035WA0116201179001000090
B1705574222645N07141050WA0116201178001000089
B1705584222641N07141067WA0116201178001000089
B1705584222641N07141067WA0116101178001000089
B1705594222640N07141085WA0116101178001000089
B1705594222640N07141085WA0116001178001000089
B1706004222642N07141103WA0116001179001000088
B1706014222647N07141119WA0116001179001000087
B1706024222655N07141134WA0116001180001000087
B1706024222655N07141134WA0116101180001000087
B1706034222664N07141145WA0116101181001000087
B1706044222676N07141153WA0116201182001000088
B1706054222689N07141157WA0116301184001000089
B1706054222689N07141157WA0116301184001000089
B1706064222703N07141157WA0116401185001000091
B1706064222703N07141157WA0116601185001000091
B1706074222716N07141153WA0116601185001000094
B1706084222729N07141145WA0116601186001000096
B1706084222729N07141145WA0116801186001000096
B1706094222741N07141133WA0116801187001000099
B1706104222752N07141119WA0116801188001000101
B1706114222761N07141102WA0116901189001000103
B1706124222768N07141083WA0117001189001000105
B1706134222772N07141062WA0117101189001000107
B1706144222774N07141040WA0117101190001000110
B1706154222773N07141018WA0117101190001000111
B1706164222769N07140996WA0117201191001000111
B1706174222763N07140975WA0117301192001000111
B1706174222763N07140975WA0117301192001000111
B1706184222753N07140957WA0117301192001000111
B1706194222742N07140941WA0117401193001000109
B1706194222742N07140941WA0117501193001000109
B1706204222728N07140929WA0117601195001000106
B1706214222714N07140920WA0117701197001000103
B1706224222699N07140916WA0117901198001000100
B1706234222685N07140914WA0118001199001000097
B1706244222671N07140917WA0118101200001000094
B1706254222658N07140923WA0118201200001000091
B1706264222646N07140933WA0118201199001000089
B1706274222637N07140946WA0118101197001000088
B1706274222637N07140946WA0118001197001000088
B1706284222630N07140961WA0118001196001000088
B1706294222626N07140978WA0117901194001000089
B1706304222624N07140996WA0117801194001000088
B1706314222625N07141013WA0117701196001000087
B1706324222630N07141030WA0117801197001000086
B1706334222637N07141044WA0117801198001000086
B1706344222646N07141057WA0117901199001000085
B1706354222657N07141066WA0118001201001000085
B1706364222669N07141071WA0118201202001000086
B1706374222682N07141074WA0118301203001000087
B1706384222695N07141072WA0118401203001000090
B1706394222708N07141067WA0118501204001000093
B1706404222721N07141057WA0118601206001000096
B1706414222732N07141044WA0118701207001000098
B1706424222741N07141028WA0118801207001000100
B1706434222748N07141010WA0118901207001000103
B1706444222753N07140990WA0118901207001000106
B1706454222755N07140968WA0118901207001000109
B1706464222754N07140946WA0118901207001000112
B1706464222754N07140946WA0118801207001000112
B1706474222751N07140923WA0118901207001000112
B1706484222745N07140902WA0118901208001000112
B1706494222737N07140883WA0119001210001000110
B1706504222726N07140866WA0119101211001000108
B1706514222714N07140852WA0119201213001000105
B1706524222700N07140842WA0119301214001000102
B1706534222686N07140837WA0119501215001000100
B1706544222671N07140836WA0119601214001000098
B1706554222657N07140840WA0119501213001000096
B1706564222644N07140849WA0119501212001000094
B1706574222633N07140861WA0119401210001000092
B1706584222626N07140876WA0119301209001000091
B1706584222626N07140876WA0119201209001000091
B1706594222621N07140894WA0119201209001000090
B1706594222621N07140894WA0119101209001000090
B1707004222621N07140912WA0119101210001000090
B1707014222623N07140929WA0119101211001000088
B1707024222630N07140945WA0119101212001000087
B1707034222640N07140956WA0119201214001000087
B1707044222652N07140964WA0119301215001000088
B1707054222665N07140966WA0119401215001000091
B1707064222679N07140964WA0119501215001000095
B1707074222693N07140957WA0119501214001000099
B1707084222705N07140946WA0119601213001000105
B1707094222717N07140930WA0119601214001000107
B1707104222725N07140912WA0119701216001000107
F1707110506071112131520252930133
B1707114222732N07140892WA0119901218001000106
B1707124222736N07140871WA0120101221001000105
B1707124222736N07140871WA0120101221001000105
B1707134222739N07140850WA0120201224001000104
B1707144222740N07140829WA0120401225001000104
B1707154222739N07140808WA0120601226001000104
B1707164222736N07140787WA0120701227001000103
B1707174222733N07140767WA0120801227001000103
B1707184222727N07140748WA0120801227001000102
B1707184222727N07140748WA0120901227001000102
B1707194222720N07140730WA0120901227001000103
B1707204222711N07140713WA0120901226001000104
B1707204222711N07140713WA0120901226001000104
B1707204222711N07140713WA0120801226001000104
B1707214222701N07140697WA0120801226001000104
B1707224222690N07140682WA0120801227001000103
B1707234222677N07140670WA0120901229001000100
B1707244222664N07140661WA0121001231001000098
B1707254222650N07140656WA0121301232001000096
B1707264222636N07140655WA0121401233001000095
B1707274222622N07140658WA0121501233001000095
B1707284222609N07140667WA0121601233001000094
B1707294222599N07140680WA0121601235001000093
B1707304222592N07140696WA0121701236001000091
B1707314222589N07140714WA0121801239001000089
B1707324222591N07140731WA0122001242001000086
B1707334222596N07140747WA0122201245001000084
B1707344222604N07140759WA0122501247001000082
B1707354222615N07140767WA0122601248001000081
B1707354222615N07140767WA0122801248001000081
B1707364222627N07140771WA0122801249001000082
B1707374222640N07140770WA0122901248001000087
B1707384222652N07140765WA0122901246001000093
B1707394222665N07140754WA0122801245001000099
B1707404222675N07140739WA0122701246001000102
B1707414222683N07140721WA0122801247001000104
B1707424222690N07140702WA0122801249001000104
B1707434222694N07140682WA0123001250001000103
B1707444222697N07140662WA0123101251001000103
B1707454222698N07140641WA0123201252001000103
B1707464222696N07140620WA0123401253001000103
B1707474222693N07140600WA0123501254001000104
B1707484222687N07140580WA0123601256001000104
B1707494222680N07140562WA0123701259001000103
B1707504222671N07140545WA0123901263001000100
B1707514222662N07140529WA0124101266001000099
B1707524222652N07140515WA0124501268001000098
B1707534222641N07140502WA0124701269001000097
B1707544222629N07140491WA0125001268001000096
B1707554222615N07140484WA0125001266001000098
B1707564222600N07140482WA0124801264001000100
B1707574222585N07140484WA0124701263001000100
B1707584222571N07140491WA0124701263001000100
B1707594222559N07140503WA0124701263001000100
B1708004222550N07140519WA0124601263001000098
B1708004222550N07140519WA0124501263001000098
B1708014222545N07140537WA0124501265001000096
B1708024222543N07140556WA0124701268001000095
B1708034222546N07140575WA0124801271001000093
B1708034222546N07140575WA0125101271001000093
B1708044222552N07140591WA0125101274001000092
B1708054222561N07140605WA0125301276001000093
B1708064222573N07140615WA0125501278001000093
B1708074222587N07140621WA0125701280001000094
B1708084222601N07140621WA0126001283001000096
B1708094222615N07140616WA0126201285001000098
B1708104222628N07140606WA0126401288001000100
B1708114222639N07140593WA0126601290001000102
B1708114222639N07140593WA0126801290001000102
B1708124222648N07140575WA0126801291001000105
B1708134222655N07140556WA0127001291001000107
B1708134222655N07140556WA0127101291001000107
B1708144222658N07140534WA0127101293001000108
B1708154222658N07140513WA0127301295001000109
B1708164222655N07140491WA0127401297001000110
B1708164222655N07140491WA0127401297001000110
B1708174222649N07140470WA0127601299001000110
B1708184222639N07140453WA0127801301001000109
B1708184222639N07140453WA0127801301001000109
B1708194222627N07140439WA0127901302001000107
B1708204222612N07140428WA0128001302001000107
B1708214222597N07140423WA0128101302001000108
B1708224222581N07140421WA0128101302001000109
B1708234222565N07140424WA0128101301001000108
B1708244222550N07140432WA0128001301001000107
B1708254222536N07140444WA0128001302001000106
B1708264222526N07140460WA0128101304001000103
B1708274222519N07140479WA0128201307001000101
B1708284222516N07140498WA0128401309001000099
B1708294222516N07140518WA0128701312001000097
B1708304222520N07140537WA0128901314001000096
B1708304222520N07140537WA0129101314001000096
B1708314222527N07140554WA0129101316001000095
B1708324222536N07140567WA0129301318001000094
B1708334222548N07140577WA0129501320001000094
B1708344222562N07140582WA0129701321001000096
B1708354222577N07140582WA0129801322001000098
B1708364222591N07140576WA0130001323001000101
B1708374222604N07140565WA0130101325001000104
B1708384222616N07140551WA0130201325001000107
B1708394222625N07140532WA0130301325001000112
B1708404222631N07140510WA0130301323001000116
B1708414222633N07140487WA0130301322001000121
B1708424222632N07140462WA0130101321001000125
B1708434222626N07140437WA0130001322001000126
B1708444222616N07140416WA0130101324001000125
B1708454222602N07140399WA0130201327001000124
B1708464222586N07140387WA0130501329001000123
B1708464222586N07140387WA0130601329001000123
B1708474222568N07140382WA0130601332001000120
B1708484222551N07140382WA0130901334001000117
B1708494222534N07140388WA0131001337001000113
B1708504222519N07140399WA0131301340001000110
B1708514222508N07140413WA0131701343001000106
B1708524222499N07140431WA0131801346001000103
B1708534222494N07140450WA0132201350001000098
B1708544222492N07140469WA0132601353001000094
B1708554222495N07140487WA0132901356001000090
B1708564222501N07140503WA0133301358001000089
B1708574222510N07140517WA0133401360001000087
B1708584222521N07140526WA0133601363001000087
B1708594222533N07140532WA0133901365001000087
B1709004222546N07140532WA0134101366001000088
B1709014222559N07140528WA0134201367001000091
B1709024222572N07140520WA0134301367001000095
B1709034222583N07140507WA0134401366001000100
B1709044222592N07140490WA0134401365001000106
B1709054222599N07140471WA0134201364001000110
B1709064222603N07140448WA0134101363001000115
B1709074222604N07140425WA0134101363001000118
B1709084222601N07140401WA0134101365001000118
B1709094222595N07140379WA0134201368001000116
B1709104222585N07140360WA0134501372001000113
B1709114222573N07140344WA0134701376001000111
B1709124222560N07140332WA0135201379001000108
B1709134222545N07140325WA0135501382001000105
B1709144222529N07140322WA0135801384001000102
B1709154222514N07140323WA0136001386001000099
B1709164222500N07140328WA0136201388001000097
B1709174222487N07140337WA0136401390001000095
B1709174222487N07140337WA0136701390001000095
B1709184222476N07140348WA0136701392001000094
B1709194222467N07140362WA0136801394001000092
B1709204222460N07140378WA0137001395001000089
B1709214222456N07140395WA0137101397001000087
B1709224222454N07140412WA0137301398001000084
B1709234222455N07140428WA0137401400001000083
B1709244222458N07140445WA0137501402001000082
B1709254222463N07140459WA0137701403001000082
B1709264222471N07140472WA0137801404001000083
B1709274222481N07140483WA0137901404001000084
B1709284222492N07140491WA0138001405001000085
B1709294222504N07140496WA0138001405001000085
B1709304222517N07140497WA0138101406001000088
B1709314222531N07140495WA0138101406001000091
B1709324222544N07140488WA0138201406001000094
B1709334222556N07140478WA0138201407001000097
B1709344222567N07140465WA0138301408001000099
B1709354222576N07140448WA0138401409001000101
B1709364222582N07140430WA0138501410001000103
B1709374222587N07140410WA0138601410001000105
B1709384222588N07140388WA0138601409001000108
B1709394222588N07140366WA0138501408001000110
B1709404222584N07140344WA0138501408001000112
B1709414222578N07140323WA0138401409001000113
B1709424222569N07140304WA0138501410001000112
B1709434222557N07140288WA0138601411001000111
B1709444222543N07140276WA0138701412001000109
B1709454222528N07140269WA0138801415001000106
B1709464222513N07140266WA0139001416001000104
B1709474222497N07140269WA0139201418001000101
B1709484222483N07140276WA0139301419001000100
B1709494222471N07140286WA0139401420001000099
B1709504222461N07140301WA0139501421001000097
B1709514222453N07140317WA0139601422001000094
B1709524222450N07140335WA0139701423001000092
B1709534222449N07140354WA0139801423001000091
B1709544222453N07140371WA0139801422001000090
B1709554222459N07140387WA0139801422001000090
B1709564222469N07140400WA0139801423001000090
B1709564222469N07140400WA0139801423001000090
B1709574222481N07140408WA0139801424001000091
B1709584222494N07140411WA0139901426001000093
B1709594222508N07140409WA0140001427001000094
B1710004222522N07140403WA0140201428001000096
F1710010506071112131520252930
B1710014222535N07140393WA0140301428001000099
B1710024222546N07140378WA0140301427001000105
B1710034222554N07140359WA0140301426001000110
B1710044222559N07140338WA0140201426001000114
B1710054222561N07140315WA0140101426001000115
B1710054222561N07140315WA0140101426001000115
B1710064222559N07140292WA0140101426001000116
B1710074222554N07140269WA0140101427001000117
B1710084222544N07140249WA0140201428001000116
B1710094222532N07140232WA0140201429001000115
B1710104222518N07140220WA0140301430001000112
B1710114222502N07140214WA0140401432001000109
B1710124222486N07140213WA0140601434001000106
B1710134222471N07140217WA0140701435001000102
B1710144222458N07140227WA0140901437001000099
B1710144222458N07140227WA0141101437001000099
B1710154222447N07140240WA0141101439001000095
B1710164222439N07140256WA0141201441001000092
B1710174222434N07140273WA0141301441001000090
B1710184222433N07140291WA0141401440001000089
B1710194222435N07140308WA0141401439001000088
B1710204222441N07140324WA0141301439001000087
B1710214222449N07140338WA0141301441001000086
B1710214222449N07140338WA0141301441001000086
B1710224222459N07140348WA0141401442001000084
B1710234222471N07140354WA0141501443001000085
B1710244222484N07140355WA0141601444001000088
B1710254222497N07140352WA0141701444001000091
B1710264222510N07140344WA0141701444001000095
B1710274222521N07140331WA0141701443001000101
B1710274222521N07140331WA0141701443001000101
B1710284222531N07140314WA0141701442001000106
B1710284222531N07140314WA0141601442001000106
B1710294222538N07140295WA0141601441001000110
B1710304222542N07140273WA0141501441001000113
B1710304222542N07140273WA0141501441001000113
B1710314222544N07140250WA0141501442001000114
B1710324222543N07140227WA0141601443001000113
B1710334222539N07140205WA0141701445001000113
B1710344222535N07140183WA0141801448001000110
B1710354222529N07140163WA0142001451001000107
B1710354222529N07140163WA0142101451001000107
B1710364222522N07140143WA0142301453001000106
B1710364222522N07140143WA0142601453001000106
B1710374222514N07140125WA0142601454001000104
B1710384222506N07140107WA0142701455001000104
B1710394222497N07140090WA0142901457001000103
B1710404222488N07140073WA0143101459001000103
B1710414222480N07140056WA0143201460001000102
B1710424222473N07140037WA0143401462001000102
B1710434222468N07140018WA0143601462001000102
B1710444222466N07139998WA0143601462001000102
B1710454222465N07139977WA0143601460001000103
B1710464222466N07139956WA0143501458001000106
B1710464222466N07139956WA0143501458001000106
B1710474222468N07139934WA0143401457001000108
B1710474222468N07139934WA0143401457001000108
B1710484222470N07139912WA0143401457001000109
B1710494222470N07139890WA0143401457001000110
B1710494222470N07139890WA0143401457001000110
B1710504222469N07139868WA0143401457001000110
B1710514222466N07139846WA0143401457001000112
B1710524222461N07139824WA0143401458001000112
B1710524222461N07139824WA0143301458001000112
B1710534222456N07139803WA0143301459001000112
B1710544222449N07139782WA0143401460001000111
B1710554222442N07139762WA0143401461001000110
B1710564222434N07139742WA0143601462001000110
B1710574222426N07139723WA0143701462001000110
B1710574222426N07139723WA0143701462001000110
B1710584222417N07139704WA0143701461001000111
B1710594222408N07139684WA0143701460001000113
B1711004222399N07139665WA0143601458001000115
B1711014222390N07139644WA0143401457001000118
B1711024222382N07139623WA0143301457001000120
B1711024222382N07139623WA0143201457001000120
B1711034222373N07139602WA0143101456001000121
B1711044222364N07139580WA0143101454001000122
B1711044222364N07139580WA0143101454001000122
B1711054222356N07139558WA0143101453001000124
B1711054222356N07139558WA0143101453001000124
B1711064222348N07139535WA0143101450001000127
B1711074222341N07139511WA0143101448001000130
B1711084222333N07139486WA0142901446001000132
B1711094222326N07139461WA0142801444001000134
B1711094222326N07139461WA0142601444001000134
B1711104222320N07139435WA0142601442001000135
B1711114222312N07139410WA0142401440001000136
B1711114222312N07139410WA0142201440001000136
B1711124222305N07139384WA0142201438001000137
B1711134222298N07139358WA0142001436001000137
B1711134222298N07139358WA0141701436001000137
B1711144222289N07139333WA0141701434001000136
B1711154222281N07139308WA0141601431001000137
B1711154222281N07139308WA0141301431001000137
B1711164222272N07139283WA0141301428001000138
B1711174222263N07139257WA0141101425001000140
B1711184222254N07139231WA0140801422001000142
B1711184222254N07139231WA0140501422001000142
B1711194222245N07139205WA0140401418001000143
B1711204222238N07139178WA0140101416001000145
B1711214222231N07139150WA0140001414001000145
B1711224222224N07139122WA0139801411001000146
B1711224222224N07139122WA0139401411001000146
B1711234222217N07139094WA0139401409001000147
B1711234222217N07139094WA0139201409001000147
B1711244222209N07139066WA0139201406001000147
B1711254222201N07139039WA0139001405001000146
B1711254222201N07139039WA0138801405001000146
B1711264222192N07139011WA0138801404001000145
B1711274222183N07138985WA0138601403001000144
B1711274222183N07138985WA0138601403001000144
B1711284222174N07138959WA0138601403001000143
B1711294222165N07138932WA0138501402001000143
B1711304222156N07138906WA0138401401001000142
F17113105060711131520252930
B1711314222147N07138880WA0138301400001000142
B1711314222147N07138880WA0138301400001000142
B1711324222139N07138854WA0138301399001000142
B1711334222131N07138827WA0138201398001000142
B1711334222131N07138827WA0138001398001000142
B1711344222124N07138800WA0138001395001000142
