ACNI279FLIGHT:1
HFDTE070523
HFFXA005
HFPLTPILOT:Bob Fletcher
HFCM2CREW:
HFGTYGLIDERTYPE:ASG 29
HFGIDGLIDERID:90
HFDTM100GPSDATUM:WGS84
HFRFWFIRMWAREVERSION:1.2
HFRHWHARDWAREVERSION:1.2
HFFTYFRTYPE:ClearNav Instr., ClearNav II
HFGPS:UBLOX,NEO-6G,16Ch,50000 
HFPRSPRESSALTSENSOR:Intersema,MS5540C,20000
HFCIDCOMPETITIONID:90
I033638FXA3941ENL4244GSP
J020810WDI1115WVE
C070523143047000000000103
C0000000N00000000ETAKEOFF
C4225570N07147630WSTERLING    
C4152467N07101000WTaunton Muni
C4331467N07256950WRutland
C4411517N07145000WFranconia
C4225570N07147630WSTERLING    
C0000000N00000000ELANDING
B1439594225407N07147430WA0013000109001000000
B1440004225407N07147430WA0012900110001000000
B1440014225407N07147430WA0012900110001000000
B1440014225407N07147430WA0012900110001000000
B1440024225407N07147430WA0012900110001000000
B1440034225407N07147430WA0012900110001000001
B1440034225407N07147430WA0012900110001000001
B1440044225408N07147430WA0012900110001000003
B1440054225408N07147430WA0013000110001000002
B1440054225408N07147430WA0013000110001000002
B1440064225408N07147431WA0013000110001000001
B1440074225408N07147431WA0013000110001000001
B1440084225408N07147431WA0013000110001000000
B1440084225408N07147431WA0012900110001000000
B1440094225408N07147431WA0012900110001000000
B1440104225408N07147431WA0012900110001000000
B1440104225408N07147431WA0013000110001000000
B1440114225408N07147431WA0013000110001000004
B1440124225410N07147433WA0013000110001000021
B1440134225413N07147437WA0013000110001000032
B1440134225413N07147437WA0013000110001000032
B1440144225417N07147441WA0013000110001000034
B1440154225421N07147446WA0013000110001004041
B1440164225427N07147453WA0013100110001016054
B1440174225433N07147461WA0013100110001029061
LCNI144017EVT:ENDBASELINE
LCNI144012EVT:TAKEOFF
F1440180107081314172130
B1440184225441N07147469WA0013100110001042063
B1440194225448N07147478WA0013100110001049072
B1440204225457N07147488WA0013200110001048081
B1440214225466N07147500WA0013200111001048084
B1440224225476N07147511WA0013200111001035090
B1440234225486N07147524WA0013300112001029096
B1440234225486N07147524WA0013300112001024096
B1440244225497N07147538WA0013300112001024101
B1440254225509N07147551WA0013400113001018105
B1440264225521N07147566WA0013400114001016109
B1440274225534N07147580WA0013500115001015111
B1440284225546N07147595WA0013600118001013111
B1440284225546N07147595WA0013900118001010111
B1440294225560N07147609WA0013900120001010113
B1440304225573N07147624WA0014100124001013115
B1440314225586N07147638WA0014500127001011114
B1440324225599N07147653WA0014700131001009112
B1440334225612N07147668WA0015100135001009114
B1440344225625N07147683WA0015400139001007113
B1440354225638N07147698WA0016000144001009112
B1440364225650N07147713WA0016300148001006109
B1440374225662N07147728WA0016800153001003109
B1440384225675N07147742WA0017200158001001110
B1440384225675N07147742WA0017700158001000110
B1440394225687N07147756WA0017700162001000109
B1440404225700N07147769WA0018100165001000107
B1440414225713N07147782WA0018500169001000104
B1440424225725N07147795WA0018800174001000104
B1440434225738N07147807WA0019400180001000103
B1440434225738N07147807WA0019800180001000103
B1440444225750N07147819WA0020000185001000101
B1440454225763N07147831WA0020400190001000101
B1440464225775N07147843WA0020900195001000102
B1440474225787N07147855WA0021500200001003102
B1440484225799N07147868WA0021800204001008100
B1440484225799N07147868WA0022300204001011100
B1440494225810N07147881WA0022300208001011100
B1440504225822N07147894WA0022700214001010100
B1440514225834N07147906WA0023300220001015099
B1440524225846N07147918WA0023700226001013102
B1440524225846N07147918WA0024300226001008102
B1440534225859N07147930WA0024300228001008104
B1440534225859N07147930WA0024500228001002104
B1440544225871N07147942WA0024600229001002100
B1440554225884N07147952WA0024800231001001099
B1440564225898N07147960WA0025000235001001099
B1440574225911N07147968WA0025500240001000098
B1440584225925N07147974WA0025800245001000095
B1440584225925N07147974WA0026400245001000095
B1440594225939N07147978WA0026400250001000094
B1441004225953N07147980WA0026800257001000094
B1441014225967N07147981WA0027600263001000094
B1441024225981N07147980WA0028000268001000094
B1441034225995N07147979WA0028600272001000096
B1441034225995N07147979WA0029000272001000096
B1441044226009N07147977WA0029000275001000097
B1441054226024N07147974WA0029300277001000098
B1441064226038N07147970WA0029700281001004097
B1441074226052N07147966WA0030000286001004095
B1441084226066N07147963WA0030700292001010095
B1441084226066N07147963WA0031000292001010095
B1441094226080N07147960WA0031000297001010096
B1441104226094N07147955WA0031700301001004097
B1441114226109N07147950WA0032000305001004101
B1441114226109N07147950WA0032000305001004101
B1441124226123N07147943WA0032500309001005102
B1441134226138N07147937WA0032800314001013100
B1441134226138N07147937WA0033500314001010100
B1441144226152N07147932WA0033500319001010100
B1441154226167N07147927WA0033800324001013100
B1441164226181N07147922WA0034400329001015099
B1441174226195N07147916WA0034700333001010099
B1441184226210N07147911WA0035300338001013100
B1441184226210N07147911WA0035800338001013100
F1441190107081314172130133
B1441194226224N07147907WA0035800345001013097
B1441204226238N07147903WA0036500351001015096
B1441214226253N07147900WA0037000357001015098
B1441224226267N07147897WA0037900364001016097
B1441234226282N07147895WA0038500373001021095
B1441234226282N07147895WA0039400373001024095
B1441244226296N07147894WA0039400381001024097
B1441254226311N07147892WA0040000389001022100
B1441254226311N07147892WA0040500389001019100
B1441264226325N07147888WA0040500395001019099
B1441274226340N07147882WA0041300401001011101
B1441284226354N07147875WA0042000407001008103
B1441284226354N07147875WA0042400407001005103
B1441294226368N07147866WA0042400413001005101
B1441304226381N07147856WA0043300420001004102
B1441314226395N07147846WA0043800427001004106
B1441314226395N07147846WA0044500427001007106
B1441324226409N07147836WA0044500432001010105
B1441334226422N07147825WA0045000438001010104
B1441334226422N07147825WA0045700438001007104
B1441344226436N07147814WA0045700443001007106
B1441354226449N07147802WA0046100450001010105
B1441364226462N07147790WA0046800457001012106
B1441374226476N07147778WA0047300462001010108
B1441384226489N07147765WA0048100467001008110
B1441384226489N07147765WA0048500467001007110
B1441394226503N07147753WA0048500471001007111
B1441404226517N07147741WA0049200476001010111
B1441414226531N07147729WA0049800482001012111
B1441424226546N07147717WA0050600488001012111
B1441434226560N07147705WA0051100494001011112
B1441434226560N07147705WA0051800494001008112
B1441444226573N07147691WA0051800500001008110
B1441454226586N07147678WA0052200507001004111
B1441464226599N07147663WA0052800513001001113
B1441474226612N07147648WA0053400517001001112
B1441484226625N07147634WA0053800522001004111
B1441484226625N07147634WA0054100522001006111
B1441494226638N07147620WA0054100527001006109
B1441504226651N07147607WA0054600534001007107
B1441514226664N07147595WA0055000540001010107
B1441524226677N07147583WA0055400545001010107
B1441534226691N07147572WA0055900548001014105
B1441534226691N07147572WA0056300548001014105
B1441544226704N07147560WA0056300551001015104
B1441554226717N07147549WA0056500555001015103
B1441564226730N07147537WA0057000560001010102
B1441574226742N07147525WA0057300564001005102
B1441584226755N07147513WA0057800569001001102
B1441584226755N07147513WA0058100569001000102
B1441594226767N07147502WA0058100573001000101
B1442004226780N07147490WA0058600576001004102
B1442004226780N07147490WA0058900576001006102
B1442014226793N07147479WA0058900579001006104
B1442024226806N07147467WA0059200580001010105
B1442034226819N07147456WA0059400582001013105
B1442034226819N07147456WA0059600582001010105
B1442044226833N07147444WA0059600584001010106
B1442054226846N07147433WA0059800586001010106
B1442064226860N07147422WA0060000589001006103
B1442074226873N07147411WA0060200592001005102
B1442084226886N07147401WA0060500596001004101
B1442084226886N07147401WA0060900596001000101
B1442094226898N07147390WA0060900600001000098
B1442104226911N07147380WA0061100603001000099
B1442114226924N07147369WA0061500606001000101
B1442124226936N07147358WA0061800608001000101
B1442134226949N07147346WA0062100610001000103
B1442134226949N07147346WA0062400610001000103
B1442144226961N07147333WA0062400613001000102
B1442154226973N07147321WA0062700618001004098
B1442164226985N07147309WA0063200624001002098
B1442174226997N07147297WA0063600630001002100
B1442184227007N07147283WA0064100637001000101
B1442184227007N07147283WA0064900637001001101
B1442194227017N07147266WA0064900644001001102
B1442204227026N07147249WA0065300648001000106
B1442214227034N07147230WA0065900652001000107
B1442224227042N07147212WA0066300655001000109
B1442234227051N07147193WA0066800659001003112
B1442234227051N07147193WA0067200659001008112
B1442244227060N07147174WA0067200661001008111
B1442254227070N07147156WA0067400664001011112
B1442264227080N07147137WA0067800667001010113
B1442274227090N07147118WA0068000672001007114
B1442284227099N07147100WA0068300677001012113
B1442294227110N07147081WA0068900682001012115
B1442294227110N07147081WA0069200682001012115
B1442304227120N07147062WA0069400686001007115
B1442314227129N07147043WA0069700689001007113
B1442324227139N07147024WA0070100693001008115
B1442334227149N07147005WA0070500696001010116
B1442334227149N07147005WA0070700696001016116
B1442344227159N07146986WA0070800699001016115
B1442354227169N07146967WA0071000702001015116
B1442354227169N07146967WA0071200702001021116
B1442364227180N07146947WA0071300705001021116
B1442374227190N07146929WA0071600708001023115
B1442384227200N07146911WA0071800712001020115
B1442384227200N07146911WA0072300712001011115
B1442394227210N07146891WA0072300717001011117
B1442404227219N07146871WA0072600721001011116
B1442414227228N07146850WA0073100725001011117
B1442424227237N07146829WA0073400728001009119
B1442434227245N07146807WA0073700731001004120
B1442434227245N07146807WA0074000731001010120
B1442444227252N07146786WA0074000734001010120
B1442454227261N07146764WA0074300737001014119
B1442464227269N07146743WA0074700740001014117
B1442474227278N07146723WA0074900745001014114
B1442484227286N07146702WA0075400750001006115
B1442484227286N07146702WA0075700750001004115
B1442494227294N07146682WA0075700754001004117
B1442504227303N07146661WA0076100756001005117
B1442514227311N07146641WA0076300758001014117
B1442524227321N07146620WA0076600761001014119
B1442534227330N07146600WA0076800765001020118
B1442534227330N07146600WA0077100765001015118
B1442544227339N07146579WA0077100767001015116
B1442554227348N07146559WA0077300769001012117
B1442564227358N07146539WA0077600771001016119
B1442574227368N07146519WA0077800774001019118
B1442584227377N07146499WA0078100776001015118
B1442584227377N07146499WA0078200776001008118
B1442594227387N07146479WA0078200777001008120
B1443004227396N07146458WA0078400778001007120
B1443014227406N07146437WA0078500779001008121
B1443024227416N07146417WA0078600780001013121
B1443034227426N07146396WA0078800781001020120
B1443034227426N07146396WA0078900781001020120
B1443044227436N07146376WA0078900783001017119
B1443054227446N07146356WA0079000785001017119
B1443064227456N07146336WA0079200787001015120
B1443064227456N07146336WA0079200787001015120
B1443074227466N07146316WA0079400789001013119
B1443084227476N07146296WA0079500791001014120
B1443084227476N07146296WA0079700791001014120
B1443094227486N07146276WA0079800792001014120
B1443104227496N07146256WA0080000795001016119
B1443114227505N07146236WA0080200798001016119
B1443124227515N07146215WA0080500800001014122
B1443134227524N07146194WA0080700801001014122
B1443134227524N07146194WA0080800801001014122
B1443144227534N07146173WA0080800802001014122
B1443154227544N07146152WA0081000803001013124
B1443164227554N07146130WA0081200805001013124
B1443174227564N07146109WA0081400809001015122
B1443184227574N07146089WA0081700814001018121
B1443194227584N07146069WA0082300821001020122
B1443204227594N07146048WA0082700828001014123
B1443214227604N07146026WA0083500834001015123
B1443224227613N07146005WA0084000841001020123
B1443234227623N07145984WA0084900847001023121
B1443234227623N07145984WA0085500847001019121
B1443244227634N07145964WA0085800855001019122
B1443254227645N07145945WA0086400865001023113
B1443264227654N07145927WA0087100876001011105
B1443274227660N07145908WA0088100884001004101
B1443284227663N07145889WA0088800890001004099
B1443284227663N07145889WA0089600890001003099
B1443294227664N07145868WA0089600894001000101
B1443304227661N07145848WA0090000897001000104
B1443314227655N07145828WA0090300899001000104
B1443324227647N07145810WA0090600900001000105
B1443334227636N07145795WA0090900902001000109
B1443334227636N07145795WA0091000902001000109
B1443344227623N07145782WA0091100905001000110
B1443354227609N07145772WA0091200908001000107
B1443354227609N07145772WA0091400908001000107
B1443364227593N07145766WA0091400910001000105
B1443374227578N07145762WA0091500911001000101
B1443384227563N07145763WA0091800912001000099
B1443384227563N07145763WA0091900912001000099
B1443394227549N07145768WA0091900912001000096
B1443404227536N07145776WA0091900911001000094
B1443414227524N07145786WA0091900909001000092
B1443424227514N07145799WA0091800908001000092
B1443424227514N07145799WA0091700908001000092
B1443434227506N07145814WA0091700907001000094
F1443440107081314172130
B1443444227500N07145831WA0091700908001000095
B1443454227497N07145850WA0091800910001000094
B1443464227497N07145869WA0092000912001000093
B1443464227497N07145869WA0092100912001000093
B1443474227498N07145887WA0092100913001000091
B1443484227502N07145905WA0092100912001000091
B1443484227502N07145905WA0092200912001000091
B1443494227507N07145922WA0092200912001000091
B1443504227514N07145938WA0092200913001000091
B1443514227523N07145952WA0092300915001000090
B1443524227533N07145964WA0092400918001000090
B1443534227545N07145973WA0092600921001000089
B1443534227545N07145973WA0092800921001000089
B1443544227557N07145981WA0092900924001000088
B1443554227569N07145988WA0093200927001000088
B1443564227582N07145992WA0093500930001000087
B1443574227595N07145995WA0093800934001000086
B1443584227607N07145996WA0094100938001000085
B1443584227607N07145996WA0094400938001000085
B1443594227620N07145997WA0094400940001000083
B1444004227632N07145996WA0094600940001000083
B1444014227645N07145994WA0094800941001000085
B1444024227658N07145990WA0094900942001000087
B1444034227670N07145985WA0095100944001000089
B1444034227670N07145985WA0095200944001000089
B1444044227683N07145979WA0095200947001000090
B1444054227696N07145973WA0095400950001000089
B1444064227708N07145967WA0095700953001000088
B1444074227721N07145960WA0096000957001000089
B1444074227721N07145960WA0096100957001000089
B1444084227732N07145952WA0096400961001000090
B1444084227732N07145952WA0096800961001000090
B1444094227743N07145940WA0096800964001000096
B1444104227752N07145923WA0097300967001000103
B1444114227758N07145904WA0097500970001000108
B1444114227758N07145904WA0097900970001000108
B1444124227761N07145882WA0097900974001000110
B1444134227760N07145859WA0098100978001000111
B1444134227760N07145859WA0098600978001000111
B1444144227756N07145837WA0098600982001000111
B1444154227749N07145818WA0098800986001000109
B1444164227738N07145801WA0099300990001000107
B1444164227738N07145801WA0099600990001000107
B1444174227726N07145788WA0099600994001000104
B1444184227713N07145778WA0100100999001000101
B1444194227698N07145773WA0100401003001000097
B1444194227698N07145773WA0100401003001000097
B1444204227685N07145772WA0100801006001000091
B1444214227671N07145775WA0101101009001000088
B1444214227671N07145775WA0101501009001000088
B1444224227660N07145782WA0101501012001000086
B1444234227650N07145793WA0101701015001000084
B1444234227650N07145793WA0102101015001000084
B1444244227642N07145806WA0102101018001000084
B1444254227636N07145821WA0102301021001000084
B1444254227636N07145821WA0102701021001000084
B1444264227634N07145838WA0102701024001000083
B1444264227634N07145838WA0103001024001000083
B1444274227634N07145854WA0103101028001000081
B1444284227637N07145870WA0103501032001000079
B1444294227642N07145884WA0103801035001000078
B1444294227642N07145884WA0103801035001000078
B1444304227648N07145897WA0104101038001000077
B1444314227657N07145908WA0104601041001000078
B1444314227657N07145908WA0104801041001000078
B1444324227667N07145917WA0104801044001000079
B1444334227678N07145923WA0105201047001000080
B1444334227678N07145923WA0105501047001000080
B1444344227690N07145926WA0105501049001000083
B1444354227703N07145926WA0105701052001000087
B1444364227716N07145923WA0105901056001000088
B1444374227728N07145917WA0106201060001000088
B1444384227740N07145909WA0106701064001000086
B1444394227750N07145900WA0107001068001000085
B1444394227750N07145900WA0107101068001000085
B1444404227759N07145888WA0107201071001000085
B1444404227759N07145888WA0107601071001000085
B1444414227767N07145874WA0107601073001000088
B1444424227773N07145857WA0107801074001000092
B1444434227777N07145839WA0108101076001000095
B1444444227779N07145820WA0108401079001000098
B1444444227779N07145820WA0108401079001000098
F1444450107081314172130133
B1444454227780N07145800WA0108501081001000100
B1444464227777N07145779WA0108701083001000103
B1444474227772N07145759WA0109001085001000105
B1444484227764N07145741WA0109101086001000106
B1444494227754N07145724WA0109301088001000105
B1444494227754N07145724WA0109301088001000105
B1444494227754N07145724WA0109401088001000105
B1444504227742N07145711WA0109401089001000105
B1444514227728N07145702WA0109601090001000104
B1444514227728N07145702WA0109701090001000104
B1444524227713N07145696WA0109701091001000103
B1444534227698N07145694WA0109801094001000102
B1444544227683N07145696WA0109901097001000098
B1444554227670N07145702WA0110301101001000093
B1444554227670N07145702WA0110601101001000093
B1444564227658N07145710WA0110601106001000088
B1444574227648N07145722WA0111201111001000083
B1444574227648N07145722WA0111601111001000083
B1444584227641N07145735WA0111601115001000079
B1444594227637N07145750WA0112101120001000077
B1444594227637N07145750WA0112501120001000077
B1445004227636N07145765WA0112501124001000076
B1445004227636N07145765WA0113001124001000076
B1445014227637N07145781WA0113201127001000076
B1445024227641N07145795WA0113301130001000077
B1445034227648N07145808WA0113701133001000079
B1445044227657N07145818WA0114001136001000081
B1445054227669N07145826WA0114401139001000085
B1445064227682N07145829WA0114601143001000087
B1445074227695N07145829WA0114901148001000087
B1445084227707N07145824WA0115301152001000086
B1445094227718N07145816WA0115701156001000087
B1445104227728N07145804WA0116101160001000088
B1445104227728N07145804WA0116401160001000088
B1445114227736N07145789WA0116401163001000091
B1445124227741N07145772WA0116801165001000094
B1445134227744N07145753WA0117001168001000098
B1445144227744N07145732WA0117401170001000102
B1445144227744N07145732WA0117401170001000102
B1445154227742N07145712WA0117601171001000105
B1445164227736N07145691WA0117801173001000108
B1445174227729N07145672WA0117901174001000109
B1445184227719N07145655WA0118001175001000110
B1445194227707N07145640WA0118101178001000109
B1445194227707N07145640WA0118101178001000109
B1445204227694N07145628WA0118301182001000106
B1445214227679N07145619WA0118501186001000103
B1445224227665N07145614WA0118901189001000100
B1445234227650N07145612WA0119101193001000097
B1445244227636N07145613WA0119601198001000092
B1445244227636N07145613WA0119601198001000092
B1445254227623N07145617WA0120001202001000089
B1445264227611N07145624WA0120501206001000087
B1445274227601N07145634WA0120901209001000085
B1445284227592N07145648WA0121301212001000085
B1445294227586N07145663WA0121601216001000085
B1445294227586N07145663WA0121601216001000085
B1445304227583N07145679WA0122001219001000085
B1445314227582N07145696WA0122401223001000085
B1445324227585N07145713WA0122801227001000083
B1445334227590N07145728WA0123101233001000082
B1445344227598N07145740WA0123501239001000080
B1445344227598N07145740WA0123701239001000080
B1445354227608N07145750WA0124301245001000078
B1445364227618N07145756WA0124901251001000078
B1445374227630N07145760WA0125401255001000079
B1445384227641N07145760WA0126001260001000079
B1445394227653N07145756WA0126301264001000079
B1445394227653N07145756WA0126501264001000079
B1445404227663N07145749WA0126801268001000079
B1445414227673N07145739WA0127101270001000082
B1445424227680N07145726WA0127501272001000086
B1445434227687N07145709WA0127601273001000091
B1445434227687N07145709WA0127901273001000091
B1445444227691N07145691WA0127901273001000095
B1445454227692N07145671WA0127901273001000101
B1445464227691N07145650WA0128001275001000106
B1445474227687N07145629WA0128101276001000109
B1445484227681N07145608WA0128301278001000111
B1445494227673N07145589WA0128501280001000111
B1445494227673N07145589WA0128501280001000111
B1445504227663N07145572WA0128701283001000109
B1445514227651N07145558WA0128901288001000106
B1445524227637N07145548WA0129301293001000102
B1445534227623N07145543WA0129701299001000096
B1445544227609N07145543WA0130301305001000090
B1445544227609N07145543WA0130301305001000090
B1445554227596N07145547WA0130701309001000086
B1445564227585N07145554WA0131301314001000084
B1445564227585N07145554WA0131801314001000084
B1445574227575N07145565WA0131801317001000082
B1445584227569N07145579WA0132101320001000082
B1445594227564N07145594WA0132501321001000084
B1445594227564N07145594WA0132501321001000084
B1446004227563N07145611WA0132601323001000085
B1446014227565N07145628WA0133001326001000086
B1446024227570N07145644WA0133201332001000084
B1446034227577N07145658WA0133801340001000081
B1446034227577N07145658WA0133801340001000081
B1446044227585N07145669WA0134301347001000079
B1446054227596N07145677WA0135101353001000079
B1446054227596N07145677WA0135701353001000079
B1446064227607N07145681WA0135701358001000079
B1446074227619N07145682WA0136101362001000079
B1446084227631N07145679WA0136401365001000080
B1446094227642N07145672WA0136901367001000082
B1446094227642N07145672WA0136901367001000082
B1446104227652N07145662WA0137101368001000086
B1446114227661N07145649WA0137301369001000089
B1446124227668N07145633WA0137401368001000093
B1446134227674N07145615WA0137401367001000099
B1446134227674N07145615WA0137301367001000099
B1446144227678N07145595WA0137301367001000105
B1446154227680N07145574WA0137401369001000108
B1446164227679N07145552WA0137601373001000109
B1446174227677N07145530WA0137801377001000109
B1446184227672N07145509WA0138101380001000109
B1446194227666N07145489WA0138401383001000107
B1446194227666N07145489WA0138601383001000107
B1446204227657N07145471WA0138801387001000105
B1446214227647N07145456WA0139101391001000103
B1446224227635N07145444WA0139401395001000101
B1446234227622N07145434WA0139701398001000098
B1446234227622N07145434WA0140101398001000098
B1446244227608N07145428WA0140101402001000096
B1446254227594N07145425WA0140601406001000093
B1446264227581N07145426WA0140801410001000091
B1446264227581N07145426WA0141301410001000091
B1446274227567N07145430WA0141501415001000089
B1446284227555N07145436WA0141801419001000087
B1446294227544N07145445WA0142301422001000085
B1446294227544N07145445WA0142301422001000085
B1446304227534N07145456WA0142601424001000086
B1446314227525N07145469WA0142801426001000087
B1446324227519N07145485WA0143201429001000087
B1446324227519N07145485WA0143201429001000087
B1446334227514N07145501WA0143501433001000086
B1446334227514N07145501WA0143801433001000086
B1446344227512N07145518WA0143801438001000084
B1446354227513N07145535WA0144301443001000081
B1446364227516N07145550WA0144901449001000078
B1446374227522N07145564WA0145301455001000076
B1446374227522N07145564WA0145901455001000076
B1446384227529N07145575WA0145901461001000075
B1446394227539N07145584WA0146601467001000075
B1446404227549N07145590WA0147101471001000076
B1446414227561N07145592WA0147401474001000078
B1446424227572N07145591WA0147801478001000079
B1446434227584N07145587WA0148201481001000081
B1446434227584N07145587WA0148501481001000081
B1446444227595N07145579WA0148501483001000085
B1446454227605N07145568WA0148701484001000090
B1446464227615N07145555WA0148801485001000094
B1446474227623N07145538WA0148901486001000099
B1446484227629N07145520WA0149001486001000102
B1446494227633N07145499WA0149101487001000106
B1446494227633N07145499WA0149101487001000106
B1446504227636N07145478WA0149201490001000108
B1446514227636N07145456WA0149501493001000111
B1446524227633N07145433WA0149801497001000113
B1446534227628N07145412WA0150001501001000112
B1446534227628N07145412WA0150201501001000112
B1446544227622N07145391WA0150201503001000111
B1446554227613N07145372WA0150501505001000111
B1446564227602N07145355WA0150601507001000113
B1446574227589N07145340WA0151001511001000115
B1446584227575N07145327WA0151301514001000115
B1446584227575N07145327WA0151701514001000115
B1446594227560N07145317WA0151701519001000114
B1447004227544N07145310WA0152101525001000109
B1447014227529N07145307WA0152601531001000102
B1447014227529N07145307WA0152601531001000102
B1447024227514N07145306WA0153001537001000097
B1447034227500N07145307WA0153701541001000092
F14470401070813141730133
B1447044227486N07145310WA0154201545001000090
B1447054227474N07145316WA0154701547001000088
B1447064227462N07145324WA0155001549001000086
B1447074227452N07145335WA0155401552001000086
B1447084227444N07145348WA0155601556001000085
B1447094227437N07145362WA0155901560001000082
B1447094227437N07145362WA0155901560001000082
B1447104227433N07145378WA0156401564001000080
B1447114227430N07145393WA0156801567001000078
B1447124227430N07145409WA0157101570001000078
B1447134227432N07145424WA0157601574001000079
B1447134227432N07145424WA0158001574001000079
B1447144227437N07145439WA0158001578001000079
B1447154227444N07145452WA0158401583001000079
B1447164227452N07145463WA0158901588001000079
B1447174227463N07145471WA0159201593001000079
B1447184227474N07145476WA0159701599001000080
B1447194227486N07145477WA0160401604001000080
B1447194227486N07145477WA0160401604001000080
B1447204227498N07145474WA0160901609001000081
B1447214227509N07145468WA0161201612001000084
B1447224227520N07145459WA0161601615001000089
B1447234227530N07145446WA0161901617001000093
B1447244227539N07145431WA0162101618001000097
B1447254227546N07145414WA0162201618001000101
B1447264227551N07145394WA0162301618001000106
B1447274227554N07145372WA0162301618001000111
B1447284227554N07145349WA0162401620001000115
B1447294227552N07145326WA0162501622001000118
B1447304227546N07145304WA0162701625001000118
B1447304227546N07145304WA0162701625001000118
B1447314227537N07145283WA0162801627001000118
B1447324227526N07145264WA0163101631001000119
B1447334227514N07145248WA0163501635001000118
B1447344227499N07145235WA0163801640001000116
B1447344227499N07145235WA0163801640001000116
B1447354227484N07145225WA0164101646001000111
B1447364227468N07145220WA0164701651001000108
B1447374227453N07145217WA0165301656001000103
B1447374227453N07145217WA0165901656001000103
B1447384227438N07145219WA0165901660001000099
B1447394227424N07145224WA0166301665001000096
B1447394227424N07145224WA0166301665001000096
B1447404227410N07145231WA0166601668001000094
B1447414227399N07145242WA0167101671001000094
B1447424227388N07145254WA0167501675001000092
B1447434227380N07145269WA0168001679001000090
B1447444227374N07145285WA0168301683001000088
B1447454227370N07145301WA0168801687001000085
B1447464227368N07145318WA0169101691001000082
B1447474227370N07145334WA0169601696001000079
B1447474227370N07145334WA0169601696001000079
B1447484227373N07145349WA0170201701001000077
B1447484227373N07145349WA0170601701001000077
B1447494227378N07145363WA0170601705001000078
B1447504227386N07145375WA0171201711001000077
B1447514227394N07145385WA0171801716001000076
B1447524227404N07145393WA0172101721001000075
B1447534227415N07145397WA0172801726001000075
B1447534227415N07145397WA0173101726001000075
B1447544227427N07145398WA0173201731001000078
B1447554227438N07145396WA0173501734001000081
B1447564227450N07145391WA0173801736001000084
B1447574227462N07145383WA0174001738001000087
B1447584227472N07145373WA0174201738001000090
B1447584227472N07145373WA0174201738001000090
B1447594227482N07145359WA0174201737001000095
B1448004227490N07145343WA0174301736001000100
B1448014227496N07145324WA0174201734001000105
B1448024227501N07145303WA0174101733001000110
B1448034227503N07145280WA0174101733001000115
B1448044227502N07145256WA0174101734001000119
F1448050107081314172130133
B1448054227498N07145232WA0174201737001000122
B1448064227491N07145210WA0174401740001000123
B1448074227481N07145189WA0174601743001000123
B1448084227468N07145172WA0174901747001000123
B1448094227453N07145157WA0175401751001000122
B1448094227453N07145157WA0175401751001000122
B1448104227437N07145147WA0175601756001000119
B1448114227420N07145140WA0176001761001000115
B1448124227404N07145138WA0176501766001000110
B1448134227387N07145139WA0176801770001000107
B1448134227387N07145139WA0177401770001000107
B1448144227372N07145144WA0177401775001000104
B1448154227358N07145153WA0177801780001000101
B1448164227346N07145165WA0178401785001000097
B1448164227346N07145165WA0178901785001000097
B1448174227337N07145179WA0179101790001000093
B1448184227330N07145195WA0179601794001000089
B1448194227326N07145212WA0180101798001000086
B1448194227326N07145212WA0180101798001000086
B1448204227325N07145229WA0180601801001000084
B1448214227327N07145246WA0181001804001000083
B1448224227331N07145261WA0181401809001000083
B1448224227331N07145261WA0181801809001000083
B1448234227337N07145276WA0181801813001000083
B1448234227337N07145276WA0182101813001000083
B1448244227346N07145288WA0182301816001000083
B1448254227356N07145297WA0182501820001000082
B1448264227368N07145303WA0182901824001000082
B1448274227380N07145305WA0183301829001000082
B1448274227380N07145305WA0183601829001000082
B1448284227392N07145304WA0183601832001000084
B1448294227404N07145299WA0183901833001000085
B1448294227404N07145299WA0184001833001000085
B1448304227416N07145292WA0184101833001000088
B1448314227427N07145281WA0184101832001000094
B1448324227436N07145266WA0184101830001000098
B1448334227445N07145249WA0184101829001000102
B1448344227451N07145230WA0184001828001000106
B1448344227451N07145230WA0184001828001000106
B1448354227455N07145209WA0183901827001000108
B1448364227457N07145187WA0183801826001000111
B1448374227456N07145164WA0183701827001000114
B1448384227454N07145141WA0183801828001000116
B1448384227454N07145141WA0183901828001000116
B1448394227450N07145118WA0183901830001000119
B1448404227444N07145095WA0184201833001000119
B1448414227438N07145073WA0184401837001000118
B1448424227430N07145052WA0184601841001000117
B1448434227422N07145031WA0185101845001000117
B1448444227412N07145012WA0185701850001000116
B1448454227400N07144995WA0186001854001000115
B1448464227386N07144982WA0186401859001000113
B1448474227371N07144974WA0186701865001000108
B1448484227355N07144970WA0187101872001000102
B1448494227341N07144971WA0187701878001000097
B1448494227341N07144971WA0187701878001000097
B1448504227327N07144976WA0188201883001000093
B1448514227315N07144984WA0188801888001000089
B1448524227305N07144996WA0189201891001000086
B1448534227298N07145010WA0189701894001000084
B1448544227293N07145026WA0190001896001000083
B1448544227293N07145026WA0190001896001000083
B1448554227292N07145043WA0190401898001000082
B1448564227295N07145059WA0190601900001000082
B1448564227295N07145059WA0190801900001000082
B1448574227300N07145074WA0190901903001000082
B1448584227309N07145085WA0191201907001000083
B1448594227320N07145094WA0191601911001000083
B1448594227320N07145094WA0191601911001000083
B1449004227331N07145098WA0191901915001000081
B1449014227343N07145099WA0192201919001000081
B1449024227355N07145095WA0192601921001000083
B1449034227367N07145087WA0192901923001000086
B1449044227377N07145076WA0193101925001000089
B1449044227377N07145076WA0193101925001000089
B1449054227385N07145062WA0193201926001000093
B1449054227385N07145062WA0193401926001000093
B1449064227392N07145045WA0193401926001000099
B1449074227398N07145026WA0193501927001000103
B1449084227400N07145005WA0193701929001000107
B1449094227401N07144983WA0193801931001000110
B1449094227401N07144983WA0193801931001000110
B1449104227399N07144960WA0194001933001000112
B1449114227394N07144938WA0194201935001000114
B1449124227389N07144916WA0194401939001000116
B1449134227382N07144895WA0194801942001000116
B1449144227373N07144875WA0195101947001000115
B1449144227373N07144875WA0195101947001000115
B1449154227364N07144856WA0195501952001000113
B1449164227353N07144838WA0195901956001000110
B1449174227342N07144823WA0196201960001000109
B1449184227328N07144811WA0196701964001000107
B1449184227328N07144811WA0197001964001000107
B1449194227314N07144802WA0197001968001000104
B1449204227299N07144795WA0197401971001000103
B1449214227284N07144792WA0197701974001000101
B1449224227269N07144792WA0198001976001000100
B1449234227255N07144796WA0198201977001000100
B1449244227241N07144804WA0198401979001000100
B1449244227241N07144804WA0198501979001000100
B1449254227228N07144815WA0198701982001000099
B1449264227218N07144829WA0199001985001000097
B1449274227209N07144844WA0199401988001000095
B1449284227203N07144861WA0199601990001000091
B1449294227199N07144878WA0200001994001000089
B1449294227199N07144878WA0200001994001000089
B1449304227199N07144896WA0200401999001000086
B1449314227203N07144913WA0200802004001000083
B1449324227209N07144927WA0201502010001000081
B1449334227218N07144938WA0201902015001000081
B1449334227218N07144938WA0202502015001000081
B1449344227229N07144945WA0202502020001000083
B1449354227241N07144949WA0202802023001000085
B1449364227254N07144949WA0203202026001000088
B1449374227267N07144945WA0203402027001000091
B1449384227279N07144936WA0203802029001000097
B1449394227290N07144922WA0204002032001000101
B1449394227290N07144922WA0204002032001000101
B1449404227298N07144905WA0204302035001000106
B1449414227304N07144884WA0204602037001000110
B1449424227306N07144861WA0204902040001000114
B1449434227305N07144838WA0205202043001000118
F1449440107081314172130
B1449444227300N07144814WA0205602047001000121
B1449454227293N07144792WA0205802051001000121
B1449464227283N07144772WA0206202055001000121
B1449474227270N07144755WA0206602059001000121
B1449484227255N07144741WA0207102065001000120
B1449494227239N07144732WA0207402070001000117
B1449494227239N07144732WA0207402070001000117
B1449504227222N07144728WA0207902076001000112
B1449514227206N07144728WA0208302080001000108
B1449524227191N07144733WA0208802084001000105
B1449534227177N07144741WA0209102088001000101
B1449544227165N07144753WA0209602093001000095
B1449544227165N07144753WA0209602093001000095
B1449554227156N07144767WA0210102098001000090
B1449564227150N07144783WA0210402102001000086
B1449574227147N07144799WA0211102106001000083
B1449584227148N07144816WA0211402109001000081
B1449594227152N07144831WA0211802114001000079
B1449594227152N07144831WA0211802114001000079
B1450004227159N07144843WA0212202118001000078
B1450014227169N07144852WA0212702121001000080
B1450024227180N07144857WA0212902124001000082
B1450034227193N07144858WA0213302127001000084
B1450044227205N07144855WA0213602129001000088
B1450044227205N07144855WA0213602129001000088
B1450054227217N07144846WA0213802131001000093
B1450064227228N07144834WA0214102134001000098
B1450064227228N07144834WA0214402134001000098
B1450074227237N07144817WA0214402138001000103
B1450084227244N07144798WA0214602141001000106
B1450094227247N07144776WA0215102145001000109
B1450094227247N07144776WA0215402145001000109
B1450104227248N07144754WA0215502148001000113
B1450114227246N07144731WA0215802150001000115
B1450124227239N07144709WA0216002153001000118
B1450124227239N07144709WA0216302153001000118
B1450134227230N07144689WA0216302156001000119
B1450144227217N07144673WA0216602160001000120
B1450154227201N07144661WA0217002165001000119
B1450164227185N07144654WA0217302170001000116
B1450174227168N07144651WA0217702173001000113
B1450184227152N07144653WA0217902176001000110
B1450194227136N07144660WA0218302178001000108
B1450194227136N07144660WA0218602178001000108
B1450204227123N07144672WA0218602181001000105
B1450204227123N07144672WA0218902181001000105
B1450214227112N07144687WA0219002185001000100
B1450224227106N07144704WA0219402191001000093
B1450234227103N07144722WA0219802197001000086
B1450234227103N07144722WA0220402197001000086
B1450244227105N07144738WA0220402204001000081
B1450254227110N07144753WA0220802209001000077
B1450264227117N07144764WA0221402212001000078
B1450274227128N07144772WA0221702214001000080
B1450284227140N07144775WA0222002215001000085
B1450294227153N07144774WA0222202216001000089
B1450304227166N07144767WA0222402217001000095
B1450304227166N07144767WA0222502217001000095
B1450314227178N07144756WA0222602218001000099
B1450324227188N07144740WA0222602220001000106
B1450324227188N07144740WA0222802220001000106
B1450334227195N07144720WA0222802221001000112
B1450344227200N07144698WA0223102224001000117
B1450344227200N07144698WA0223302224001000117
B1450354227202N07144674WA0223302226001000119
B1450364227200N07144650WA0223502228001000121
B1450364227200N07144650WA0223702228001000121
B1450374227194N07144627WA0223802230001000122
B1450384227184N07144605WA0224002233001000125
B1450394227172N07144587WA0224402238001000126
B1450394227172N07144587WA0224602238001000126
B1450404227157N07144571WA0224802243001000124
B1450414227142N07144558WA0225102248001000122
B1450414227142N07144558WA0225402248001000122
B1450424227125N07144548WA0225402253001000119
B1450434227108N07144542WA0225902255001000117
B1450444227091N07144540WA0226102256001000115
B1450444227091N07144540WA0226102256001000115
F1450450107081314172130133
B1450454227073N07144542WA0226302256001000115
B1450454227073N07144542WA0226502256001000115
B1450464227057N07144548WA0226502257001000113
B1450464227057N07144548WA0226802257001000113
B1450474227042N07144559WA0226802260001000109
B1450484227031N07144573WA0227002264001000101
B1450494227023N07144589WA0227402269001000093
B1450494227023N07144589WA0227802269001000093
B1450504227019N07144606WA0228002275001000084
B1450514227020N07144622WA0228402281001000079
B1450524227025N07144636WA0228702285001000079
B1450534227034N07144648WA0229202287001000080
B1450534227034N07144648WA0229202287001000080
B1450544227045N07144655WA0229502289001000084
B1450544227045N07144655WA0229802289001000084
B1450554227057N07144659WA0229802291001000089
B1450564227071N07144658WA0229902291001000095
B1450574227085N07144653WA0230002291001000102
B1450584227099N07144643WA0230002291001000108
B1450594227112N07144628WA0230202293001000114
B1450594227112N07144628WA0230302293001000114
B1451004227122N07144608WA0230302296001000118
B1451014227129N07144586WA0230502299001000120
B1451014227129N07144586WA0230802299001000120
B1451024227133N07144562WA0230802303001000122
B1451034227134N07144537WA0231302309001000122
B1451044227132N07144513WA0231702316001000122
B1451044227132N07144513WA0231702316001000122
B1451054227129N07144489WA0232302322001000121
B1451064227123N07144466WA0232802328001000120
B1451074227114N07144445WA0233302332001000119
B1451084227104N07144425WA0233702336001000120
B1451094227091N07144408WA0234102340001000120
B1451104227077N07144394WA0234402341001000120
B1451114227061N07144384WA0234602342001000119
B1451124227044N07144377WA0234702342001000118
B1451134227026N07144373WA0234702341001000118
B1451134227026N07144373WA0234702341001000118
B1451144227008N07144373WA0234702339001000117
B1451154226991N07144376WA0234602338001000116
B1451164226975N07144383WA0234702338001000113
B1451174226960N07144394WA0234802340001000110
B1451184226947N07144407WA0235102344001000102
B1451184226947N07144407WA0235402344001000102
B1451194226938N07144422WA0235402350001000094
B1451204226932N07144438WA0235802355001000086
B1451214226929N07144454WA0236302360001000080
B1451214226929N07144454WA0236702360001000080
B1451224226930N07144469WA0236902364001000076
B1451234226934N07144483WA0237202367001000074
B1451234226934N07144483WA0237402367001000074
B1451244226941N07144496WA0237402368001000075
B1451254226949N07144505WA0237702369001000079
B1451264226960N07144513WA0237802369001000083
B1451274226973N07144517WA0238002370001000089
B1451284226987N07144517WA0238002371001000095
B1451284226987N07144517WA0238102371001000095
B1451294227002N07144513WA0238102371001000101
B1451304227016N07144504WA0238202373001000106
B1451314227029N07144492WA0238402375001000109
B1451324227040N07144475WA0238502378001000112
B1451334227049N07144456WA0238702381001000115
B1451334227049N07144456WA0239002381001000115
B1451344227056N07144434WA0239002383001000120
B1451354227060N07144410WA0239302386001000122
B1451364227061N07144385WA0239502389001000123
B1451374227060N07144360WA0239802393001000124
B1451384227056N07144336WA0240302397001000124
B1451394227050N07144312WA0240602402001000123
B1451394227050N07144312WA0240602402001000123
B1451404227041N07144291WA0240902406001000122
B1451414227031N07144271WA0241402409001000122
B1451424227018N07144253WA0241602411001000123
B1451434227003N07144239WA0241902413001000121
B1451434227003N07144239WA0242002413001000121
B1451444226987N07144228WA0242002412001000120
B1451454226970N07144220WA0241902410001000119
B1451464226952N07144215WA0241802408001000119
B1451474226934N07144215WA0241702406001000117
B1451484226917N07144218WA0241702406001000114
B1451494226901N07144224WA0241602407001000109
B1451494226901N07144224WA0241602407001000109
B1451504226887N07144233WA0241702409001000101
B1451504226887N07144233WA0242002409001000101
B1451514226876N07144245WA0242002414001000092
B1451524226867N07144257WA0242302421001000082
B1451534226860N07144270WA0242902426001000074
B1451534226860N07144270WA0243402426001000074
B1451544226857N07144284WA0243402431001000067
B1451554226856N07144297WA0243902435001000063
B1451564226857N07144309WA0244102436001000061
B1451574226860N07144320WA0244402435001000062
B1451584226865N07144331WA0244402431001000067
B1451594226873N07144341WA0244202427001000075
B1451594226873N07144341WA0244202427001000075
B1452004226883N07144350WA0244002425001000083
B1452014226895N07144356WA0243902425001000088
B1452024226908N07144359WA0243902428001000092
B1452034226923N07144358WA0243902431001000096
B1452034226923N07144358WA0244002431001000096
B1452044226937N07144353WA0244002432001000100
B1452054226951N07144346WA0244202432001000103
B1452064226966N07144338WA0244202432001000105
B1452074226981N07144330WA0244202430001000107
B1452084226996N07144322WA0244102428001000110
B1452094227011N07144314WA0244002427001000113
B1452094227011N07144314WA0244002427001000113
B1452104227027N07144306WA0243902427001000115
B1452114227044N07144298WA0243902427001000116
B1452124227060N07144291WA0243802427001000117
B1452134227077N07144284WA0243702426001000118
B1452134227077N07144284WA0243502426001000118
B1452144227094N07144278WA0243502423001000121
B1452154227112N07144273WA0243202420001000124
B1452164227131N07144268WA0243002416001000126
B1452174227150N07144264WA0242702413001000129
B1452184227169N07144261WA0242302410001000132
B1452194227189N07144258WA0242102407001000133
B1452204227209N07144256WA0241602401001000134
B1452214227229N07144254WA0241302395001000136
B1452224227250N07144253WA0240702389001000138
B1452234227271N07144251WA0240302385001000140
B1452234227271N07144251WA0239902385001000140
F14522401070813142130
B1452244227292N07144249WA0239902383001000141
B1452254227313N07144246WA0239702382001000141
B1452264227334N07144242WA0239502381001000141
B1452274227355N07144238WA0239302380001000141
B1452284227376N07144234WA0239202378001000141
B1452294227396N07144229WA0239102376001000141
B1452294227396N07144229WA0238902376001000141
B1452304227417N07144225WA0238902373001000142
B1452314227439N07144221WA0238602370001000144
B1452324227460N07144218WA0238402368001000145
B1452334227482N07144215WA0238102365001000146
B1452334227482N07144215WA0237902365001000146
B1452344227504N07144212WA0237802363001000147
B1452354227526N07144209WA0237602361001000148
B1452364227548N07144206WA0237502359001000149
B1452374227571N07144203WA0237302358001000150
B1452384227593N07144199WA0237202356001000151
B1452394227616N07144195WA0237002355001000152
B1452394227616N07144195WA0237002355001000152
B1452404227639N07144190WA0236802352001000154
B1452414227661N07144186WA0236602346001000155
B1452424227685N07144182WA0236302340001000157
B1452434227709N07144179WA0235702335001000160
B1452434227709N07144179WA0235402335001000160
B1452444227733N07144177WA0235202331001000161
B1452454227757N07144175WA0234802327001000163
B1452464227782N07144174WA0234502323001000164
B1452474227806N07144172WA0234002318001000166
B1452484227831N07144171WA0233602313001000168
B1452484227831N07144171WA0233102313001000168
B1452494227857N07144170WA0233102309001000170
B1452504227882N07144169WA0232802306001000171
B1452514227908N07144167WA0232402303001000171
B1452524227934N07144166WA0232202300001000172
B1452534227960N07144165WA0231902298001000172
B1452534227960N07144165WA0231702298001000172
B1452544227985N07144164WA0231702296001000172
B1452554228011N07144163WA0231402294001000172
B1452564228037N07144162WA0231202292001000172
B1452574228063N07144160WA0231102291001000173
B1452584228089N07144159WA0231002292001000173
B1452584228089N07144159WA0231002292001000173
B1452594228115N07144159WA0231002294001000172
B1453004228140N07144159WA0231102296001000171
B1453014228166N07144159WA0231302298001000170
B1453024228191N07144159WA0231402299001000169
B1453034228217N07144159WA0231502300001000168
B1453044228242N07144159WA0231602299001000167
B1453054228267N07144159WA0231502297001000167
B1453064228292N07144159WA0231402294001000167
B1453074228317N07144159WA0231202293001000166
B1453084228342N07144159WA0231102291001000166
B1453084228342N07144159WA0230902291001000166
B1453094228366N07144160WA0230902290001000165
B1453104228391N07144161WA0230802288001000164
B1453114228416N07144162WA0230602286001000164
B1453124228440N07144164WA0230502284001000163
B1453134228464N07144165WA0230302282001000162
B1453134228464N07144165WA0230102282001000162
B1453144228489N07144167WA0230002280001000161
B1453154228513N07144168WA0229902279001000160
B1453164228537N07144170WA0229802278001000158
B1453174228560N07144171WA0229602276001000157
B1453184228583N07144174WA0229402273001000156
B1453184228583N07144174WA0229102273001000156
B1453194228607N07144177WA0229102268001000157
B1453204228630N07144180WA0228802266001000157
B1453214228654N07144185WA0228502264001000157
B1453214228654N07144185WA0228302264001000157
B1453224228677N07144190WA0228302261001000158
B1453234228700N07144195WA0228002259001000158
B1453234228700N07144195WA0227802259001000158
B1453244228724N07144201WA0227802257001000158
F145325010708131417192130
B1453254228747N07144206WA0227602255001000159
B1453264228771N07144210WA0227302253001000159
B1453274228795N07144214WA0227102250001000160
B1453274228795N07144214WA0226902250001000160
B1453284228818N07144218WA0226902248001000160
B1453284228818N07144218WA0226702248001000160
B1453294228842N07144223WA0226702246001000160
B1453304228866N07144227WA0226602245001000161
B1453314228890N07144231WA0226502244001000161
B1453324228914N07144236WA0226402244001000160
B1453334228938N07144240WA0226302245001000159
B1453334228938N07144240WA0226302245001000159
B1453344228961N07144244WA0226302246001000160
B1453354228985N07144247WA0226302246001000157
B1453364229008N07144251WA0226302245001000156
B1453374229031N07144254WA0226202246001000156
B1453384229055N07144257WA0226202245001000156
B1453384229055N07144257WA0226202245001000156
B1453394229078N07144259WA0226202244001000156
B1453404229101N07144262WA0226302245001000156
B1453414229125N07144266WA0226402247001000155
B1453424229148N07144270WA0226402247001000155
B1453434229170N07144274WA0226402247001000155
B1453434229170N07144274WA0226302247001000155
B1453444229194N07144278WA0226302246001000155
B1453454229217N07144282WA0226202244001000155
B1453464229240N07144285WA0226002241001000157
B1453474229263N07144287WA0225902239001000158
B1453484229287N07144289WA0225602236001000160
B1453494229311N07144289WA0225402233001000161
B1453494229311N07144289WA0225302233001000161
B1453504229336N07144289WA0225102230001000162
B1453514229360N07144287WA0225002228001000164
B1453524229385N07144283WA0224802228001000166
B1453534229409N07144276WA0224702228001000167
B1453534229409N07144276WA0224702228001000167
B1453544229433N07144266WA0224702228001000169
B1453554229457N07144254WA0224602229001000170
B1453564229480N07144241WA0224602228001000170
B1453564229480N07144241WA0224502228001000170
B1453574229504N07144227WA0224502227001000171
B1453584229527N07144213WA0224402225001000172
B1453594229551N07144199WA0224302222001000172
B1453594229551N07144199WA0224302222001000172
B1454004229574N07144184WA0224102220001000173
B1454014229598N07144169WA0223802219001000174
B1454024229622N07144154WA0223602218001000174
B1454034229645N07144138WA0223502217001000174
B1454034229645N07144138WA0223302217001000174
B1454044229668N07144122WA0223302215001000174
B1454054229691N07144106WA0223302214001000175
B1454064229714N07144089WA0223202215001000174
B1454074229737N07144072WA0223302216001000173
B1454084229759N07144054WA0223302218001000172
B1454084229759N07144054WA0223402218001000172
B1454094229781N07144035WA0223402221001000169
B1454104229801N07144015WA0223802225001000167
B1454114229821N07143995WA0223902228001000165
B1454124229840N07143975WA0224002226001000164
B1454134229860N07143955WA0224002224001000164
B1454134229860N07143955WA0223902224001000164
B1454144229880N07143934WA0223902223001000164
B1454154229899N07143914WA0223802223001000164
B1454164229919N07143894WA0223702222001000164
B1454174229938N07143873WA0223702221001000165
B1454184229958N07143853WA0223702220001000165
B1454194229978N07143834WA0223702221001000165
B1454194229978N07143834WA0223702221001000165
B1454204230000N07143817WA0223702224001000163
B1454214230021N07143803WA0223902228001000159
B1454224230043N07143791WA0224102233001000154
B1454234230064N07143779WA0224402235001000150
B1454234230064N07143779WA0224502235001000150
B1454244230085N07143769WA0224602236001000147
B1454254230105N07143761WA0224602236001000145
B1454254230105N07143761WA0224702236001000145
F145426010708131417192130133
B1454264230126N07143753WA0224702236001000144
B1454274230147N07143746WA0224702235001000145
B1454274230147N07143746WA0224602235001000145
B1454284230168N07143739WA0224602233001000146
B1454284230168N07143739WA0224502233001000146
B1454294230190N07143731WA0224502231001000147
B1454304230211N07143724WA0224202229001000147
B1454314230232N07143716WA0224102227001000148
B1454324230254N07143709WA0223902224001000148
B1454334230275N07143701WA0223602219001000148
B1454334230275N07143701WA0223302219001000148
B1454344230297N07143694WA0223302215001000149
B1454354230319N07143689WA0222802211001000150
B1454364230341N07143684WA0222502206001000151
B1454374230364N07143680WA0222102202001000152
B1454384230387N07143676WA0221702198001000152
B1454394230410N07143673WA0221402195001000153
B1454404230432N07143670WA0221002194001000152
B1454414230455N07143668WA0220802192001000151
B1454424230477N07143665WA0220602190001000150
B1454434230500N07143663WA0220302188001000150
B1454434230500N07143663WA0220102188001000150
B1454444230522N07143661WA0220002186001000150
B1454454230545N07143658WA0219902182001000151
B1454464230567N07143655WA0219602178001000151
B1454474230590N07143652WA0219302173001000153
B1454484230613N07143650WA0218802169001000154
B1454494230636N07143648WA0218502166001000155
B1454504230659N07143646WA0218002162001000155
B1454514230682N07143643WA0217702158001000155
B1454524230706N07143641WA0217302153001000156
B1454534230729N07143638WA0217002151001000156
B1454534230729N07143638WA0216802151001000156
B1454544230752N07143635WA0216702149001000155
B1454554230775N07143632WA0216602148001000153
B1454564230798N07143629WA0216402148001000151
B1454574230821N07143625WA0216302149001000150
B1454584230843N07143622WA0216302149001000148
B1454584230843N07143622WA0216302149001000148
B1454594230865N07143619WA0216302149001000147
B1455004230887N07143616WA0216302150001000146
B1455014230908N07143612WA0216402151001000145
B1455024230930N07143608WA0216502153001000143
B1455034230951N07143605WA0216602155001000140
B1455034230951N07143605WA0216802155001000140
B1455044230971N07143602WA0216802157001000139
B1455054230992N07143599WA0216902158001000138
B1455064231013N07143596WA0216902156001000138
B1455074231033N07143593WA0216902153001000139
B1455084231054N07143590WA0216702150001000140
B1455084231054N07143590WA0216502150001000140
B1455094231075N07143588WA0216502147001000141
B1455104231096N07143585WA0216302146001000142
B1455114231118N07143582WA0216102146001000142
B1455124231139N07143578WA0215902145001000142
B1455134231160N07143574WA0215902144001000142
B1455134231160N07143574WA0215802144001000142
B1455144231181N07143571WA0215702143001000142
B1455154231202N07143567WA0215602143001000142
B1455164231223N07143563WA0215502142001000142
B1455174231244N07143559WA0215402141001000142
B1455184231266N07143555WA0215302138001000143
B1455184231266N07143555WA0215202138001000143
B1455194231287N07143551WA0215202137001000145
B1455204231309N07143548WA0215102136001000145
B1455214231330N07143546WA0214902137001000144
B1455224231352N07143545WA0214902136001000143
B1455234231374N07143545WA0214802135001000143
B1455234231374N07143545WA0214702135001000143
B1455244231395N07143546WA0214702134001000144
B1455254231417N07143546WA0214602133001000144
B1455264231439N07143546WA0214502131001000145
B1455274231460N07143547WA0214402131001000146
B1455284231482N07143548WA0214402131001000146
B1455284231482N07143548WA0214402131001000146
B1455294231504N07143549WA0214402133001000144
B1455304231525N07143551WA0214402134001000143
B1455314231547N07143554WA0214402133001000142
B1455324231568N07143557WA0214402131001000142
B1455334231589N07143560WA0214302129001000142
B1455334231589N07143560WA0214202129001000142
B1455344231610N07143563WA0214202127001000143
B1455354231632N07143566WA0214002125001000144
B1455364231653N07143568WA0213802123001000146
B1455374231675N07143570WA0213702121001000147
B1455384231697N07143572WA0213502119001000149
B1455394231720N07143572WA0213502119001000150
B1455404231742N07143571WA0213502121001000148
B1455414231764N07143569WA0213602124001000146
B1455424231786N07143566WA0213702127001000145
B1455434231807N07143563WA0213802130001000144
B1455434231807N07143563WA0214102130001000144
F145544010708131417192130
B1455444231828N07143558WA0214102130001000144
B1455454231850N07143552WA0214202129001000145
B1455464231871N07143546WA0214202127001000147
B1455474231892N07143537WA0214102125001000147
B1455484231913N07143528WA0214002124001000149
B1455484231913N07143528WA0214002124001000149
B1455494231934N07143518WA0213902123001000149
B1455504231955N07143508WA0213902125001000148
B1455514231976N07143498WA0214002126001000146
B1455524231996N07143488WA0214102128001000145
B1455534232017N07143477WA0214102128001000145
B1455534232017N07143477WA0214102128001000145
B1455544232037N07143466WA0214102129001000145
B1455554232057N07143455WA0214202129001000146
B1455564232077N07143443WA0214202130001000146
B1455574232097N07143431WA0214302135001000144
B1455584232116N07143418WA0214602141001000140
B1455584232116N07143418WA0215202141001000140
B1455594232134N07143404WA0215202148001000135
B1456004232151N07143390WA0215702154001000131
B1456014232167N07143377WA0216302157001000128
B1456024232183N07143364WA0216602158001000127
B1456024232183N07143364WA0216602158001000127
B1456034232200N07143351WA0216602156001000128
B1456034232200N07143351WA0216602156001000128
B1456044232217N07143338WA0216602153001000131
B1456054232235N07143326WA0216502152001000136
B1456054232235N07143326WA0216502152001000136
B1456064232254N07143314WA0216502154001000138
B1456074232273N07143303WA0216702160001000136
B1456084232291N07143291WA0216902167001000132
B1456084232291N07143291WA0217302167001000132
B1456094232308N07143280WA0217602173001000128
B1456104232325N07143268WA0217802179001000125
B1456114232342N07143257WA0218402184001000123
B1456124232358N07143245WA0218902190001000121
B1456134232373N07143232WA0219402195001000119
B1456134232373N07143232WA0219802195001000119
B1456144232388N07143218WA0219802197001000119
B1456154232403N07143205WA0220302198001000121
B1456164232418N07143191WA0220502199001000122
B1456174232433N07143178WA0220702201001000121
B1456184232448N07143165WA0220902203001000120
B1456184232448N07143165WA0221202203001000120
B1456194232463N07143151WA0221202206001000119
B1456204232478N07143138WA0221402210001000118
B1456214232492N07143124WA0221602214001000116
B1456224232506N07143110WA0222002218001000114
B1456234232520N07143097WA0222302220001000114
B1456234232520N07143097WA0222602220001000114
B1456244232534N07143083WA0222702222001000114
B1456254232547N07143069WA0222902223001000114
B1456264232561N07143056WA0223202226001000113
B1456274232575N07143044WA0223402230001000111
B1456284232589N07143031WA0223602231001000110
B1456284232589N07143031WA0223702231001000110
B1456294232603N07143019WA0223702229001000110
B1456304232617N07143008WA0223602226001000112
B1456314232632N07142996WA0223402221001000116
B1456314232632N07142996WA0223102221001000116
B1456324232648N07142984WA0222902214001000120
B1456334232664N07142972WA0222702208001000126
B1456334232664N07142972WA0222202208001000126
B1456344232681N07142961WA0222202205001000130
B1456354232700N07142951WA0221902203001000133
B1456364232719N07142943WA0221502204001000134
B1456374232738N07142936WA0221402206001000133
B1456384232758N07142930WA0221402209001000132
B1456384232758N07142930WA0221602209001000132
B1456394232777N07142924WA0221602213001000130
B1456404232796N07142919WA0221902217001000129
B1456414232815N07142913WA0222402220001000128
B1456424232833N07142907WA0222702224001000126
B1456434232851N07142901WA0223002227001000124
B1456434232851N07142901WA0223402227001000124
B1456444232869N07142896WA0223402230001000122
B1456454232887N07142891WA0223702231001000121
B1456464232905N07142888WA0223802233001000119
B1456474232923N07142885WA0224002234001000119
B1456484232940N07142882WA0224202234001000119
B1456484232940N07142882WA0224202234001000119
B1456494232958N07142879WA0224202232001000121
B1456504232976N07142875WA0224102230001000123
B1456514232995N07142872WA0224002229001000126
B1456524233014N07142868WA0223902228001000128
B1456534233033N07142865WA0224002230001000129
B1456534233033N07142865WA0224102230001000129
B1456544233052N07142862WA0224202234001000127
B1456554233071N07142859WA0224402240001000125
B1456564233090N07142857WA0224702245001000122
B1456574233108N07142855WA0225202250001000120
B1456584233125N07142852WA0225602252001000119
B1456584233125N07142852WA0226002252001000119
B1456594233143N07142849WA0226102254001000118
B1457004233161N07142845WA0226202254001000119
B1457004233161N07142845WA0226402254001000119
B1457014233178N07142840WA0226402255001000120
B1457024233196N07142834WA0226402255001000122
B1457034233213N07142826WA0226502256001000124
B1457034233213N07142826WA0226602256001000124
B1457044233231N07142816WA0226602257001000126
B1457054233248N07142805WA0226702258001000128
B1457064233265N07142794WA0226802259001000128
B1457064233265N07142794WA0226802259001000128
B1457074233282N07142782WA0226902260001000129
B1457084233300N07142770WA0226902261001000131
B1457084233300N07142770WA0227002261001000131
B1457094233317N07142758WA0227002262001000132
B1457104233335N07142747WA0227102262001000132
B1457114233354N07142736WA0227102262001000132
B1457124233372N07142726WA0227202261001000133
B1457134233390N07142715WA0227102261001000134
B1457134233390N07142715WA0226902261001000134
B1457144233409N07142705WA0226902257001000135
B1457154233428N07142695WA0226502251001000138
B1457164233448N07142685WA0226202243001000143
B1457174233468N07142675WA0225702235001000147
B1457184233490N07142665WA0224802228001000154
B1457184233490N07142665WA0224202228001000154
B1457194233513N07142657WA0224202222001000158
B1457204233536N07142648WA0223802218001000162
B1457214233559N07142639WA0223302215001000164
B1457224233583N07142630WA0223002214001000165
B1457234233607N07142621WA0222702212001000165
B1457234233607N07142621WA0222502212001000165
B1457244233631N07142613WA0222502211001000165
B1457254233655N07142605WA0222402210001000164
B1457264233679N07142597WA0222202208001000164
B1457274233703N07142590WA0222102206001000162
B1457284233727N07142583WA0221802204001000162
B1457284233727N07142583WA0221602204001000162
B1457294233750N07142576WA0221602201001000162
B1457304233774N07142569WA0221402198001000163
B1457314233798N07142562WA0221202196001000163
B1457314233798N07142562WA0220902196001000163
B1457324233822N07142556WA0220802192001000163
B1457334233846N07142550WA0220502189001000164
B1457334233846N07142550WA0220102189001000164
B1457344233871N07142544WA0220102186001000164
B1457354233895N07142537WA0219902183001000164
B1457364233919N07142530WA0219802181001000163
B1457374233943N07142524WA0219602179001000162
B1457384233967N07142517WA0219302177001000162
B1457394233990N07142511WA0219002174001000162
B1457394233990N07142511WA0218802174001000162
B1457404234014N07142504WA0218602170001000162
B1457414234038N07142497WA0218502167001000162
B1457424234062N07142491WA0218202164001000162
B1457434234085N07142485WA0217702161001000161
B1457434234085N07142485WA0217502161001000161
B1457444234109N07142479WA0217302158001000163
B1457454234133N07142473WA0217202155001000163
B1457464234157N07142466WA0216902154001000163
B1457474234181N07142460WA0216702154001000162
B1457484234205N07142454WA0216602154001000161
B1457484234205N07142454WA0216502154001000161
B1457494234229N07142447WA0216502154001000160
B1457504234252N07142441WA0216502154001000159
B1457514234275N07142434WA0216502153001000158
B1457524234298N07142427WA0216402152001000157
B1457534234321N07142420WA0216402152001000156
B1457534234321N07142420WA0216302152001000156
B1457544234343N07142412WA0216302152001000156
B1457554234366N07142404WA0216302151001000155
B1457564234388N07142396WA0216202150001000155
B1457574234411N07142388WA0216202150001000154
B1457584234433N07142380WA0216202150001000153
B1457594234455N07142372WA0216102150001000152
B1457594234455N07142372WA0216102150001000152
B1458004234477N07142365WA0216202151001000150
B1458014234499N07142358WA0216202152001000149
B1458024234521N07142353WA0216202153001000147
B1458034234543N07142347WA0216202153001000146
B1458034234543N07142347WA0216202153001000146
B1458044234564N07142342WA0216202150001000145
B1458054234586N07142337WA0216102146001000146
B1458064234607N07142331WA0215902144001000147
B1458074234629N07142325WA0215602141001000147
B1458084234650N07142319WA0215402139001000146
B1458084234650N07142319WA0215202139001000146
B1458094234672N07142313WA0215202137001000147
B1458104234693N07142306WA0214802135001000147
B1458114234715N07142301WA0214702133001000147
B1458124234737N07142295WA0214402131001000147
B1458134234758N07142289WA0214302130001000147
B1458134234758N07142289WA0214102130001000147
B1458144234780N07142283WA0214102128001000148
B1458154234802N07142278WA0214002126001000149
B1458164234824N07142273WA0213902125001000148
B1458174234846N07142268WA0213802125001000147
B1458184234868N07142263WA0213702126001000146
B1458184234868N07142263WA0213702126001000146
B1458194234889N07142257WA0213702127001000145
B1458204234911N07142252WA0213702128001000145
B1458214234932N07142246WA0213802128001000144
B1458224234953N07142240WA0213902129001000144
B1458234234974N07142233WA0214002129001000143
B1458234234974N07142233WA0214102129001000143
B1458244234994N07142227WA0214102130001000142
B1458254235015N07142220WA0214202132001000140
B1458264235035N07142214WA0214202135001000138
B1458274235056N07142209WA0214402138001000137
B1458274235056N07142209WA0214602138001000137
B1458284235076N07142204WA0214602140001000135
B1458294235096N07142199WA0214802142001000134
B1458294235096N07142199WA0214902142001000134
B1458304235115N07142195WA0215002146001000132
B1458314235135N07142192WA0215402149001000130
B1458324235154N07142189WA0215702153001000127
B1458334235173N07142188WA0216002158001000125
B1458334235173N07142188WA0216402158001000125
F1458340107081314172130
B1458344235191N07142187WA0216402164001000120
B1458354235209N07142187WA0217102169001000116
B1458364235226N07142187WA0217602175001000112
B1458374235242N07142187WA0218102181001000109
B1458374235242N07142187WA0218602181001000109
B1458384235258N07142186WA0218602186001000106
B1458384235258N07142186WA0219302186001000106
B1458394235274N07142185WA0219302191001000102
B1458404235289N07142185WA0219802198001000098
B1458414235303N07142185WA0220502204001000093
B1458424235316N07142186WA0221002211001000088
B1458434235329N07142185WA0221702216001000085
B1458434235329N07142185WA0222202216001000085
B1458444235342N07142185WA0222202220001000083
B1458454235354N07142185WA0222502224001000081
B1458464235366N07142185WA0222902227001000080
B1458474235378N07142185WA0223202230001000080
B1458484235390N07142187WA0223602232001000080
B1458484235390N07142187WA0223902232001000080
B1458494235402N07142190WA0223902233001000081
B1458504235414N07142195WA0224002233001000082
B1458514235425N07142203WA0224202233001000084
B1458524235434N07142213WA0224302233001000085
B1458534235443N07142227WA0224302233001000087
B1458534235443N07142227WA0224402233001000087
B1458544235449N07142242WA0224502234001000089
B1458554235453N07142260WA0224502235001000092
B1458554235453N07142260WA0224702235001000092
B1458564235454N07142279WA0224702237001000094
B1458574235452N07142298WA0224802238001000097
B1458584235447N07142317WA0224902238001000101
B1458584235447N07142317WA0225002238001000101
B1458594235439N07142335WA0225002238001000105
B1459004235429N07142352WA0225102239001000109
B1459014235415N07142365WA0225302241001000113
B1459024235400N07142375WA0225402242001000114
B1459034235383N07142381WA0225502242001000117
B1459034235383N07142381WA0225502242001000117
B1459044235365N07142382WA0225502241001000119
B1459054235347N07142381WA0225402238001000122
B1459064235329N07142375WA0225202235001000127
B1459064235329N07142375WA0225002235001000127
B1459074235311N07142365WA0225002232001000131
B1459084235295N07142350WA0224802229001000134
B1459084235295N07142350WA0224702229001000134
B1459094235280N07142332WA0224702228001000135
B1459104235267N07142310WA0224402227001000134
B1459114235258N07142287WA0224402227001000131
B1459124235252N07142262WA0224402227001000128
B1459134235250N07142236WA0224402228001000125
B1459134235250N07142236WA0224302228001000125
B1459144235253N07142212WA0224302229001000121
B1459154235259N07142189WA0224302230001000117
B1459164235268N07142170WA0224402230001000113
B1459174235280N07142154WA0224402230001000109
B1459184235294N07142144WA0224502231001000107
B1459184235294N07142144WA0224502231001000107
B1459194235309N07142137WA0224502231001000106
B1459204235325N07142135WA0224502232001000107
B1459214235341N07142135WA0224502234001000107
B1459224235357N07142137WA0224602235001000107
B1459234235373N07142140WA0224702237001000107
B1459234235373N07142140WA0224802237001000107
B1459244235389N07142143WA0224802236001000108
B1459254235405N07142146WA0224802234001000110
B1459264235422N07142150WA0224502230001000113
B1459274235439N07142154WA0224302224001000116
B1459284235456N07142158WA0223902218001000121
B1459284235456N07142158WA0223402218001000121
B1459294235475N07142163WA0223402211001000127
B1459304235494N07142168WA0223002207001000131
B1459314235514N07142173WA0222302204001000133
B1459324235533N07142178WA0222102202001000135
B1459334235553N07142183WA0221902203001000136
B1459334235553N07142183WA0221802203001000136
B1459344235573N07142188WA0221802206001000135
F145935010708131417192130
B1459354235593N07142193WA0221902208001000133
B1459364235613N07142198WA0222002210001000132
B1459374235632N07142204WA0222102211001000131
B1459384235651N07142209WA0222102210001000131
B1459384235651N07142209WA0222002210001000131
B1459394235670N07142215WA0222002208001000132
B1459404235690N07142220WA0221902203001000135
B1459414235710N07142225WA0221602196001000138
B1459424235731N07142229WA0220902187001000144
B1459434235753N07142234WA0220402180001000150
B1459434235753N07142234WA0219902180001000150
B1459444235776N07142238WA0219602175001000154
B1459454235799N07142243WA0219202172001000157
B1459464235822N07142247WA0218802170001000158
B1459474235846N07142251WA0218402167001000160
B1459484235870N07142255WA0218202166001000160
B1459484235870N07142255WA0218102166001000160
B1459494235894N07142259WA0218102166001000159
B1459504235917N07142262WA0218002167001000159
B1459514235941N07142265WA0218002167001000159
B1459524235965N07142267WA0218102169001000159
B1459534235989N07142268WA0218202173001000157
B1459534235989N07142268WA0218702173001000157
B1459544236012N07142267WA0218702180001000155
B1459554236035N07142265WA0219102188001000150
B1459564236057N07142261WA0220102201001000143
B1459574236077N07142255WA0221002215001000135
B1459584236096N07142247WA0222002229001000129
B1459584236096N07142247WA0223102229001000129
B1459594236113N07142237WA0223602240001000123
B1500004236129N07142225WA0224602250001000119
B1500014236143N07142211WA0225302258001000117
B1500024236156N07142195WA0226102264001000117
B1500034236167N07142177WA0226702269001000117
B1500034236167N07142177WA0227302269001000117
B1500044236178N07142158WA0227302273001000117
B1500054236187N07142137WA0227802277001000119
B1500064236195N07142116WA0228402281001000119
B1500074236201N07142093WA0228902286001000117
B1500074236201N07142093WA0229002286001000117
B1500084236207N07142071WA0229402290001000115
B1500084236207N07142071WA0229702290001000115
B1500094236213N07142049WA0229702293001000113
B1500104236219N07142028WA0230002295001000112
B1500114236226N07142008WA0230202296001000111
B1500124236235N07141989WA0230402295001000111
B1500134236246N07141972WA0230402295001000110
B1500134236246N07141972WA0230402295001000110
B1500144236258N07141957WA0230402295001000110
B1500154236272N07141945WA0230502294001000109
B1500164236287N07141936WA0230402292001000109
B1500174236303N07141929WA0230202288001000113
B1500184236319N07141922WA0230002283001000117
B1500184236319N07141922WA0229802283001000117
B1500194236337N07141917WA0229802280001000124
B1500204236356N07141912WA0229302278001000128
B1500214236375N07141908WA0229202279001000129
B1500214236375N07141908WA0229102279001000129
B1500224236394N07141905WA0229102280001000128
B1500234236413N07141902WA0229102281001000128
B1500234236413N07141902WA0229202281001000128
B1500244236432N07141899WA0229202282001000128
B1500254236451N07141897WA0229202283001000128
B1500264236470N07141895WA0229302283001000128
B1500274236489N07141894WA0229302281001000128
B1500284236508N07141893WA0229102277001000128
B1500284236508N07141893WA0228802277001000128
B1500294236528N07141891WA0228802269001000130
B1500304236547N07141890WA0228402262001000133
B1500314236568N07141888WA0227702256001000136
B1500324236588N07141885WA0227202252001000138
B1500334236608N07141882WA0226702247001000138
B1500334236608N07141882WA0226302247001000138
B1500344236629N07141879WA0226302243001000139
B1500354236650N07141876WA0225802237001000140
B1500364236671N07141873WA0225302232001000141
B1500374236692N07141871WA0224802227001000143
B1500384236714N07141869WA0224202223001000144
B1500394236735N07141867WA0223802220001000144
B1500404236757N07141865WA0223402218001000144
B1500414236778N07141863WA0223202217001000143
B1500424236800N07141860WA0223102215001000143
B1500434236821N07141856WA0222802213001000144
B1500434236821N07141856WA0222602213001000144
B1500444236842N07141852WA0222602212001000144
B1500454236864N07141848WA0222402211001000143
B1500464236885N07141844WA0222302210001000143
B1500474236906N07141840WA0222202209001000142
B1500484236927N07141836WA0222102208001000142
B1500484236927N07141836WA0221902208001000142
B1500494236948N07141832WA0221902205001000142
B1500504236969N07141828WA0221702200001000143
B1500514236991N07141823WA0221402195001000146
B1500524237012N07141819WA0221102193001000148
B1500534237034N07141813WA0220802194001000147
B1500534237034N07141813WA0220802194001000147
B1500544237056N07141807WA0220802196001000145
B1500554237077N07141801WA0220802200001000142
B1500564237097N07141793WA0221002202001000140
B1500574237117N07141786WA0221302204001000137
B1500584237137N07141779WA0221402204001000136
B1500594237156N07141773WA0221502203001000136
B1501004237176N07141766WA0221402200001000137
B1501014237196N07141760WA0221302197001000139
B1501024237217N07141753WA0221002194001000141
B1501024237217N07141753WA0220902194001000141
B1501034237237N07141745WA0220902191001000142
B1501034237237N07141745WA0220502191001000142
B1501044237258N07141737WA0220502190001000144
B1501054237279N07141728WA0220502190001000145
B1501064237299N07141718WA0220402192001000145
B1501074237319N07141708WA0220502195001000142
B1501074237319N07141708WA0220502195001000142
B1501084237339N07141699WA0220602198001000140
B1501084237339N07141699WA0220802198001000140
B1501094237359N07141690WA0220802201001000138
B1501104237379N07141682WA0221002203001000136
B1501114237398N07141674WA0221302206001000135
B1501124237417N07141666WA0221602209001000134
B1501124237417N07141666WA0221902209001000134
B1501134237436N07141657WA0222002214001000132
B1501144237455N07141648WA0222302218001000130
B1501154237473N07141640WA0222402218001000129
B1501164237492N07141632WA0222502216001000130
B1501174237510N07141624WA0222502213001000133
B1501184237530N07141616WA0222502213001000136
B1501184237530N07141616WA0222602213001000136
B1501194237550N07141609WA0222702218001000134
B1501204237569N07141603WA0222902226001000129
B1501214237587N07141596WA0223602237001000123
B1501224237604N07141590WA0224202246001000117
B1501234237621N07141583WA0224802253001000113
B1501234237621N07141583WA0225702253001000113
B1501244237637N07141578WA0225702258001000109
B1501254237652N07141572WA0226102260001000107
B1501264237668N07141567WA0226602262001000107
B1501274237684N07141563WA0226802261001000109
B1501284237700N07141558WA0227002259001000111
B1501284237700N07141558WA0226902259001000111
B1501294237717N07141553WA0226902258001000114
B1501304237733N07141548WA0226702256001000115
B1501314237751N07141543WA0226502253001000117
B1501324237768N07141537WA0226302250001000119
B1501324237768N07141537WA0226102250001000119
B1501334237786N07141532WA0225802244001000123
B1501334237786N07141532WA0225602244001000123
B1501344237804N07141527WA0225402239001000130
B1501354237824N07141521WA0225102235001000134
B1501364237844N07141515WA0224802233001000138
B1501374237864N07141508WA0224602233001000140
B1501384237885N07141501WA0224502234001000140
B1501384237885N07141501WA0224402234001000140
B1501394237905N07141495WA0224402235001000140
B1501404237926N07141489WA0224402236001000140
B1501414237946N07141484WA0224302236001000139
B1501424237967N07141479WA0224402233001000139
B1501434237987N07141473WA0224202231001000140
B1501434237987N07141473WA0224002231001000140
B1501444238008N07141468WA0224002228001000141
B1501454238029N07141463WA0223702224001000142
B1501464238050N07141458WA0223402222001000143
B1501464238050N07141458WA0223402222001000143
B1501474238072N07141454WA0223202220001000143
B1501484238093N07141450WA0222802218001000144
B1501484238093N07141450WA0222602218001000144
B1501494238114N07141446WA0222502215001000145
B1501504238136N07141442WA0222302212001000147
B1501514238158N07141437WA0222002209001000148
B1501524238180N07141433WA0221702205001000149
B1501534238202N07141430WA0221502203001000150
B1501534238202N07141430WA0221102203001000150
B1501544238225N07141426WA0221102201001000151
B1501554238248N07141422WA0220902199001000152
B1501564238270N07141419WA0220702197001000152
B1501574238293N07141416WA0220502195001000153
B1501584238316N07141413WA0220202193001000153
B1501584238316N07141413WA0220102193001000153
B1501594238339N07141410WA0220102191001000152
B1502004238361N07141409WA0219902188001000152
B1502014238384N07141408WA0219602186001000152
B1502024238407N07141408WA0219402185001000152
B1502034238430N07141408WA0219202182001000152
B1502034238430N07141408WA0219002182001000152
B1502044238453N07141408WA0219002179001000153
B1502054238476N07141408WA0218802175001000153
B1502064238499N07141408WA0218502173001000154
B1502074238522N07141408WA0218302171001000154
B1502074238522N07141408WA0218302171001000154
B1502084238545N07141408WA0218002169001000154
B1502094238568N07141407WA0217802167001000154
B1502094238568N07141407WA0217602167001000154
B1502104238591N07141406WA0217602164001000154
B1502114238614N07141404WA0217402160001000154
B1502124238637N07141403WA0217102156001000155
B1502124238637N07141403WA0217102156001000155
B1502134238660N07141403WA0216802152001000155
B1502134238660N07141403WA0216502152001000155
B1502144238683N07141402WA0216402149001000155
B1502154238707N07141401WA0216102146001000155
B1502164238730N07141400WA0215802145001000154
B1502164238730N07141400WA0215602145001000154
B1502174238753N07141400WA0215502142001000153
B1502184238776N07141400WA0215402139001000152
B1502184238776N07141400WA0215102139001000152
B1502194238799N07141400WA0215102137001000152
B1502204238821N07141401WA0214802134001000151
B1502204238821N07141401WA0214502134001000151
B1502214238844N07141402WA0214502131001000150
B1502224238866N07141403WA0214202129001000149
B1502224238866N07141403WA0214102129001000149
B1502234238888N07141405WA0214002127001000148
B1502234238888N07141405WA0213802127001000148
B1502244238910N07141407WA0213802124001000147
B1502254238932N07141409WA0213602122001000147
B1502254238932N07141409WA0213402122001000147
B1502264238954N07141411WA0213402120001000146
B1502264238954N07141411WA0213102120001000146
B1502274238976N07141414WA0213002116001000146
B1502284238998N07141416WA0212902113001000147
B1502294239020N07141418WA0212402110001000147
B1502294239020N07141418WA0212402110001000147
B1502304239042N07141419WA0212202107001000147
B1502304239042N07141419WA0211902107001000147
B1502314239064N07141421WA0211802105001000147
B1502324239086N07141422WA0211602104001000146
B1502334239108N07141424WA0211402102001000145
B1502334239108N07141424WA0211202102001000145
B1502344239130N07141426WA0211102101001000145
B1502354239151N07141428WA0211102099001000145
B1502354239151N07141428WA0210902099001000145
B1502364239173N07141429WA0210902096001000146
B1502374239195N07141431WA0210702093001000146
B1502374239195N07141431WA0210402093001000146
B1502384239217N07141432WA0210302088001000147
B1502394239239N07141433WA0210002084001000147
B1502404239261N07141434WA0209702081001000147
B1502414239283N07141435WA0209402078001000148
B1502424239305N07141435WA0208802074001000148
B1502424239305N07141435WA0208602074001000148
B1502434239328N07141435WA0208502071001000148
B1502444239350N07141435WA0208202071001000147
B1502454239372N07141435WA0208002070001000146
B1502464239393N07141434WA0207902069001000145
B1502464239393N07141434WA0207802069001000145
B1502474239415N07141433WA0207802069001000144
B1502484239436N07141433WA0207702070001000143
B1502484239436N07141433WA0207602070001000143
B1502494239458N07141432WA0207602069001000142
B1502504239479N07141432WA0207502067001000142
B1502514239501N07141433WA0207502066001000142
B1502514239501N07141433WA0207502066001000142
B1502524239522N07141433WA0207402066001000142
B1502534239543N07141433WA0207302066001000141
B1502534239543N07141433WA0207202066001000141
B1502544239564N07141434WA0207202065001000140
B1502554239585N07141434WA0207202064001000139
B1502564239606N07141434WA0207102064001000139
B1502574239627N07141433WA0207202067001000138
B1502584239647N07141433WA0207302069001000137
B1502584239647N07141433WA0207502069001000137
B1502594239668N07141433WA0207502072001000136
B1503004239688N07141433WA0207702074001000134
B1503004239688N07141433WA0207902074001000134
B1503014239708N07141434WA0207902075001000133
B1503014239708N07141434WA0208102075001000133
B1503024239728N07141435WA0208102076001000132
B1503034239748N07141435WA0208102077001000131
B1503034239748N07141435WA0208302077001000131
B1503044239767N07141435WA0208302079001000131
B1503054239787N07141436WA0208402081001000130
B1503064239806N07141436WA0208502081001000129
B1503074239825N07141437WA0208602081001000128
B1503084239844N07141437WA0208602080001000128
B1503094239864N07141436WA0208702079001000128
B1503094239864N07141436WA0208602079001000128
B1503104239883N07141435WA0208502078001000129
B1503114239902N07141435WA0208502076001000130
B1503124239922N07141434WA0208402073001000131
B1503124239922N07141434WA0208202073001000131
B1503134239942N07141434WA0208102071001000133
B1503144239962N07141434WA0207902068001000135
B1503154239982N07141434WA0207802066001000136
B1503164240003N07141435WA0207602066001000136
B1503164240003N07141435WA0207402066001000136
B1503174240023N07141436WA0207402067001000134
B1503184240043N07141437WA0207402068001000133
B1503184240043N07141437WA0207502068001000133
B1503194240063N07141438WA0207402068001000132
B1503204240082N07141440WA0207402066001000131
B1503204240082N07141440WA0207302066001000131
B1503214240102N07141442WA0207302064001000132
B1503224240122N07141444WA0207002059001000132
B1503234240142N07141446WA0206702054001000134
B1503234240142N07141446WA0206402054001000134
B1503244240162N07141449WA0206202050001000137
B1503254240182N07141451WA0205902046001000138
B1503254240182N07141451WA0205502046001000138
B1503264240203N07141454WA0205502041001000140
B1503274240224N07141456WA0205202037001000142
B1503274240224N07141456WA0204702037001000142
B1503284240246N07141458WA0204702033001000143
B1503294240267N07141460WA0204402030001000143
B1503304240288N07141462WA0204102027001000143
B1503304240288N07141462WA0203602027001000143
B1503314240310N07141464WA0203502024001000143
B1503324240331N07141465WA0203402022001000143
B1503334240352N07141467WA0203002018001000142
B1503334240352N07141467WA0202702018001000142
B1503344240374N07141468WA0202602015001000142
B1503354240395N07141470WA0202402010001000141
B1503354240395N07141470WA0202002010001000141
B1503364240416N07141473WA0202002006001000141
B1503374240437N07141476WA0201802004001000141
B1503384240457N07141480WA0201502002001000140
B1503384240457N07141480WA0201502002001000140
B1503384240457N07141480WA0201202002001000140
B1503394240478N07141484WA0201102000001000139
B1503404240499N07141488WA0201001997001000139
B1503404240499N07141488WA0200701997001000139
B1503414240520N07141491WA0200701995001000139
B1503424240540N07141494WA0200401993001000139
B1503434240561N07141496WA0200201991001000139
B1503434240561N07141496WA0200001991001000139
B1503444240582N07141498WA0199801988001000139
B1503454240603N07141500WA0199801985001000140
B1503454240603N07141500WA0199501985001000140
B1503464240624N07141501WA0199501981001000141
B1503474240645N07141502WA0199301978001000141
B1503484240666N07141502WA0199001975001000142
B1503484240666N07141502WA0198501975001000142
B1503494240687N07141502WA0198501973001000142
B1503504240709N07141503WA0198301971001000142
B1503514240730N07141503WA0198101970001000141
B1503524240751N07141503WA0197901968001000141
B1503524240751N07141503WA0197901968001000141
B1503534240772N07141504WA0197701965001000140
B1503534240772N07141504WA0197501965001000140
B1503544240793N07141505WA0197501963001000141
B1503554240814N07141505WA0197301961001000141
B1503564240835N07141506WA0197101960001000140
B1503574240856N07141506WA0196901959001000139
B1503584240877N07141507WA0196901958001000138
B1503594240897N07141507WA0196901960001000136
B1503594240897N07141507WA0196901960001000136
B1504004240917N07141507WA0197001963001000133
B1504014240937N07141508WA0197001964001000132
B1504024240957N07141508WA0197101964001000131
B1504034240976N07141508WA0197201963001000131
B1504034240976N07141508WA0197101963001000131
B1504044240996N07141509WA0197101960001000132
B1504054241016N07141510WA0197001957001000134
B1504064241036N07141512WA0196801955001000136
B1504074241057N07141513WA0196501952001000137
B1504084241077N07141513WA0196301950001000138
B1504094241098N07141514WA0196201949001000138
B1504094241098N07141514WA0196101949001000138
B1504104241119N07141514WA0196001947001000138
B1504114241139N07141515WA0195701944001000137
B1504124241160N07141516WA0195501941001000137
B1504134241180N07141517WA0195401940001000137
B1504134241180N07141517WA0195201940001000137
B1504144241201N07141518WA0195201939001000136
B1504154241221N07141520WA0195101938001000133
B1504164241241N07141521WA0194901938001000131
B1504174241260N07141522WA0194901938001000129
B1504184241279N07141523WA0194901939001000128
B1504194241298N07141523WA0194801940001000126
B1504194241298N07141523WA0194801940001000126
B1504204241317N07141523WA0194901940001000126
B1504214241336N07141523WA0194901939001000125
B1504224241355N07141523WA0194801939001000125
B1504234241373N07141524WA0194801937001000125
B1504244241392N07141524WA0194601935001000127
B1504244241392N07141524WA0194601935001000127
B1504254241412N07141525WA0194501932001000128
B1504264241431N07141525WA0194201929001000129
B1504264241431N07141525WA0194201929001000129
B1504274241450N07141525WA0194001926001000131
B1504284241470N07141525WA0193701924001000133
B1504294241490N07141526WA0193601923001000134
B1504294241490N07141526WA0193501923001000134
B1504304241511N07141526WA0193401923001000135
B1504314241531N07141527WA0193401924001000134
B1504324241551N07141527WA0193401927001000132
B1504334241570N07141527WA0193601930001000130
B1504344241590N07141527WA0193701931001000129
B1504344241590N07141527WA0193701931001000129
B1504354241609N07141526WA0193801931001000129
F150436010708131417192130
B1504364241628N07141526WA0193901929001000129
B1504374241648N07141525WA0193801927001000131
B1504384241667N07141525WA0193701925001000132
B1504394241687N07141525WA0193601922001000134
B1504394241687N07141525WA0193501922001000134
B1504404241708N07141525WA0193401921001000135
B1504414241728N07141525WA0193301922001000134
B1504424241748N07141526WA0193301924001000133
B1504434241768N07141527WA0193401926001000131
B1504444241787N07141529WA0193601930001000129
B1504444241787N07141529WA0193601930001000129
B1504454241806N07141531WA0193901934001000127
B1504464241825N07141534WA0194101939001000124
B1504474241843N07141535WA0194501945001000120
B1504484241861N07141536WA0195001951001000115
B1504494241878N07141537WA0195701956001000111
B1504494241878N07141537WA0195901956001000111
B1504504241894N07141538WA0196201960001000108
B1504514241910N07141538WA0196501962001000106
B1504524241926N07141537WA0196801963001000106
B1504534241942N07141536WA0197001963001000107
B1504544241958N07141534WA0197101963001000108
B1504544241958N07141534WA0197201963001000108
B1504554241974N07141532WA0197201965001000107
B1504564241990N07141530WA0197301966001000107
B1504574242006N07141528WA0197401967001000106
B1504584242021N07141527WA0197501968001000106
B1504594242037N07141525WA0197601969001000106
B1504594242037N07141525WA0197601969001000106
B1505004242053N07141524WA0197601969001000106
B1505014242069N07141523WA0197701968001000108
B1505024242086N07141522WA0197701969001000111
B1505034242102N07141521WA0197801972001000112
B1505044242119N07141520WA0198101976001000110
B1505044242119N07141520WA0198101976001000110
B1505054242135N07141518WA0198201980001000108
B1505054242135N07141518WA0198601980001000108
B1505064242151N07141516WA0198601981001000106
B1505074242167N07141514WA0198701980001000105
B1505084242183N07141513WA0198801980001000106
B1505094242199N07141512WA0198801980001000106
B1505104242215N07141512WA0198901980001000106
B1505114242230N07141512WA0198901980001000106
B1505124242246N07141512WA0198801979001000105
B1505134242262N07141512WA0198801977001000106
B1505134242262N07141512WA0198501977001000106
B1505144242278N07141512WA0198501973001000108
B1505154242295N07141511WA0198301969001000112
B1505164242312N07141509WA0198101965001000116
B1505174242329N07141507WA0197701962001000119
B1505184242347N07141504WA0197501960001000121
B1505194242365N07141501WA0197301959001000123
B1505204242384N07141497WA0197201961001000123
B1505214242402N07141493WA0197301966001000119
B1505214242402N07141493WA0197501966001000119
B1505224242419N07141488WA0197601973001000114
B1505234242435N07141484WA0198001980001000108
B1505234242435N07141484WA0198601980001000108
B1505244242450N07141479WA0198601986001000104
B1505254242465N07141475WA0199101991001000101
B1505264242480N07141471WA0199501995001000099
B1505274242494N07141467WA0199801998001000099
B1505284242509N07141461WA0200302001001000099
B1505294242523N07141455WA0200702004001000098
B1505294242523N07141455WA0200702004001000098
B1505304242537N07141450WA0200902007001000096
B1505314242550N07141445WA0201402011001000094
B1505324242564N07141439WA0201702015001000092
B1505334242577N07141434WA0201902018001000090
B1505334242577N07141434WA0202302018001000090
B1505344242589N07141428WA0202302020001000089
B1505354242602N07141421WA0202602021001000091
B1505364242614N07141413WA0202702021001000094
B1505374242627N07141403WA0202802021001000098
B1505384242639N07141391WA0202902021001000103
B1505394242650N07141376WA0202902021001000107
B1505394242650N07141376WA0203002021001000107
B1505404242660N07141359WA0203002022001000111
B1505414242668N07141338WA0203102023001000116
B1505424242673N07141315WA0203102023001000120
B1505434242676N07141290WA0203202024001000123
B1505434242676N07141290WA0203302024001000123
B1505444242675N07141265WA0203302027001000125
B1505454242670N07141241WA0203402030001000124
B1505464242663N07141218WA0203702032001000122
B1505474242653N07141197WA0203902034001000120
B1505484242640N07141181WA0204102036001000118
B1505494242625N07141168WA0204302038001000115
B1505494242625N07141168WA0204302038001000115
B1505504242610N07141159WA0204402040001000110
B1505514242594N07141156WA0204702042001000105
B1505524242579N07141158WA0204902045001000099
B1505534242565N07141163WA0205102048001000094
B1505534242565N07141163WA0205302048001000094
F1505540708131417192130
B1505544242553N07141171WA0205302050001000089
B1505554242542N07141180WA0205402051001000086
B1505564242532N07141192WA0205502051001000084
B1505574242525N07141205WA0205602050001000083
B1505584242519N07141220WA0205602049001000082
B1505594242516N07141236WA0205602049001000081
B1505594242516N07141236WA0205602049001000081
B1506004242515N07141252WA0205702050001000080
B1506014242517N07141268WA0205702052001000079
B1506024242520N07141283WA0205902054001000078
B1506034242526N07141297WA0206002056001000079
B1506034242526N07141297WA0206002056001000079
B1506044242533N07141311WA0206102056001000080
B1506044242533N07141311WA0206102056001000080
B1506054242541N07141323WA0206202055001000083
B1506064242549N07141336WA0206202055001000084
B1506074242558N07141348WA0206102052001000086
B1506084242568N07141361WA0206102050001000089
B1506094242578N07141373WA0206002048001000093
B1506094242578N07141373WA0205902048001000093
B1506104242589N07141386WA0205802046001000096
B1506114242600N07141398WA0205702046001000097
B1506124242611N07141411WA0205702047001000097
B1506134242622N07141423WA0205602048001000096
B1506144242634N07141436WA0205702049001000096
B1506144242634N07141436WA0205702049001000096
B1506154242645N07141448WA0205702049001000097
B1506164242657N07141459WA0205802048001000098
B1506174242669N07141470WA0205802048001000099
B1506184242682N07141481WA0205702046001000101
B1506194242695N07141492WA0205502043001000102
B1506194242695N07141492WA0205502043001000102
B1506204242709N07141502WA0205302039001000105
B1506214242723N07141512WA0205002034001000108
B1506224242737N07141522WA0204602031001000110
B1506234242753N07141532WA0204402028001000113
B1506244242769N07141540WA0204102027001000116
B1506244242769N07141540WA0204102027001000116
B1506254242786N07141546WA0203802023001000120
B1506264242804N07141551WA0203502019001000124
B1506274242823N07141555WA0202902013001000128
B1506284242842N07141559WA0202502007001000133
B1506294242862N07141562WA0202102002001000136
B1506294242862N07141562WA0201902002001000136
B1506304242883N07141564WA0201501998001000139
B1506314242904N07141566WA0201201996001000140
B1506324242925N07141567WA0201001995001000141
B1506324242925N07141567WA0200901995001000141
B1506334242946N07141568WA0200701994001000141
B1506334242946N07141568WA0200501994001000141
B1506344242967N07141569WA0200501993001000141
B1506354242988N07141571WA0200301991001000142
B1506364243010N07141573WA0200201989001000142
B1506374243031N07141575WA0199801986001000143
B1506384243053N07141578WA0199701984001000144
B1506394243074N07141581WA0199501981001000144
B1506394243074N07141581WA0199401981001000144
B1506404243096N07141584WA0199201979001000144
B1506414243117N07141588WA0199101978001000144
B1506424243139N07141593WA0198901979001000143
B1506434243160N07141596WA0198901980001000142
B1506434243160N07141596WA0198901980001000142
B1506444243181N07141600WA0198901981001000141
B1506454243202N07141602WA0198901981001000140
B1506464243223N07141604WA0199101983001000139
B1506474243243N07141605WA0199201986001000137
B1506484243264N07141606WA0199401989001000135
B1506494243284N07141606WA0199801993001000133
B1506494243284N07141606WA0199801993001000133
B1506504243303N07141605WA0200001996001000131
B1506514243323N07141605WA0200401998001000129
B1506524243342N07141605WA0200601999001000128
B1506534243361N07141605WA0200801999001000128
B1506544243380N07141603WA0200801997001000129
B1506544243380N07141603WA0200801997001000129
F150655010708131417192130
B1506554243400N07141602WA0200701994001000131
B1506564243420N07141599WA0200501992001000134
B1506574243440N07141596WA0200401990001000136
B1506584243460N07141592WA0200301988001000138
B1506594243481N07141588WA0200201988001000139
B1506594243481N07141588WA0200201988001000139
B1507004243501N07141583WA0200001986001000139
B1507014243521N07141577WA0199801983001000139
B1507014243521N07141577WA0199801983001000139
B1507024243542N07141571WA0199601979001000141
B1507034243563N07141565WA0199301974001000143
B1507034243563N07141565WA0198801974001000143
B1507044243584N07141558WA0198801968001000145
B1507054243605N07141551WA0198401964001000146
B1507064243626N07141544WA0198001960001000145
B1507074243647N07141537WA0197401956001000145
B1507084243668N07141531WA0197101953001000144
B1507094243690N07141525WA0196801951001000144
B1507104243711N07141520WA0196401950001000144
B1507114243732N07141515WA0196201949001000143
B1507124243753N07141510WA0196101948001000143
B1507134243775N07141506WA0195901946001000143
B1507134243775N07141506WA0195901946001000143
B1507144243796N07141502WA0195801946001000142
B1507154243817N07141498WA0195801945001000141
B1507164243838N07141494WA0195701945001000139
B1507174243858N07141491WA0195801947001000136
B1507184243878N07141487WA0195901949001000133
B1507194243897N07141482WA0196001951001000130
B1507194243897N07141482WA0196001951001000130
B1507204243916N07141478WA0196201954001000127
B1507214243935N07141475WA0196301955001000125
B1507224243954N07141472WA0196401956001000123
B1507234243972N07141471WA0196501956001000122
B1507244243990N07141472WA0196601955001000121
B1507244243990N07141472WA0196601955001000121
B1507254244008N07141473WA0196601954001000121
B1507264244026N07141474WA0196501953001000120
B1507274244044N07141475WA0196401950001000121
B1507284244063N07141476WA0196301947001000123
B1507294244081N07141476WA0196101946001000125
B1507294244081N07141476WA0195901946001000125
B1507304244100N07141476WA0195901947001000125
B1507314244119N07141475WA0195901949001000123
B1507324244137N07141475WA0195901951001000121
B1507334244155N07141476WA0196101954001000120
B1507344244173N07141477WA0196201956001000118
B1507344244173N07141477WA0196301956001000118
B1507354244190N07141478WA0196401956001000116
B1507364244208N07141479WA0196601956001000116
B1507374244225N07141482WA0196701958001000117
B1507384244243N07141484WA0197001962001000115
B1507394244260N07141486WA0197301969001000111
B1507404244276N07141486WA0198001977001000105
B1507414244291N07141487WA0198401986001000099
B1507424244305N07141489WA0199101994001000093
B1507434244319N07141489WA0199902002001000090
B1507434244319N07141489WA0200902002001000090
B1507444244332N07141487WA0200902008001000089
B1507454244345N07141483WA0201402013001000093
B1507464244358N07141474WA0202002017001000098
B1507474244370N07141461WA0202402020001000104
B1507484244380N07141444WA0202802023001000108
B1507494244387N07141423WA0203302027001000112
B1507504244390N07141400WA0203602030001000117
B1507514244390N07141375WA0203902033001000123
B1507524244385N07141351WA0204402038001000126
B1507534244377N07141328WA0204802044001000126
B1507544244366N07141308WA0205202050001000124
B1507544244366N07141308WA0205202050001000124
B1507554244352N07141292WA0205602056001000121
B1507564244336N07141280WA0206302060001000119
B1507574244320N07141272WA0206702064001000116
B1507584244303N07141269WA0207002067001000112
B1507584244303N07141269WA0207302067001000112
B1507594244286N07141270WA0207302070001000108
B1508004244271N07141276WA0207802073001000105
B1508014244257N07141286WA0208002076001000101
B1508024244246N07141298WA0208302079001000097
B1508034244237N07141313WA0208802082001000092
B1508034244237N07141313WA0209002082001000092
B1508044244231N07141329WA0209202085001000089
B1508054244227N07141346WA0209302088001000086
B1508064244226N07141363WA0209702092001000082
B1508074244228N07141379WA0210002095001000078
B1508084244232N07141393WA0210302097001000077
B1508094244239N07141406WA0210702101001000076
B1508104244248N07141415WA0210902105001000073
B1508114244258N07141421WA0211402109001000075
B1508124244269N07141423WA0211702112001000078
B1508134244281N07141421WA0212002115001000083
B1508144244293N07141415WA0212302117001000088
B1508144244293N07141415WA0212502117001000088
B1508154244304N07141404WA0212602120001000093
B1508164244314N07141390WA0212802122001000097
B1508174244322N07141373WA0213302125001000101
B1508184244327N07141353WA0213502128001000107
B1508194244329N07141330WA0213702131001000113
B1508194244329N07141330WA0213802131001000113
B1508204244328N07141307WA0214002133001000117
B1508214244324N07141284WA0214202135001000119
B1508224244317N07141261WA0214502137001000122
B1508234244307N07141241WA0214802141001000123
B1508244244295N07141223WA0215102146001000122
B1508244244295N07141223WA0215202146001000122
B1508254244280N07141209WA0215402150001000120
B1508264244263N07141199WA0215702153001000119
B1508274244246N07141194WA0216002156001000118
B1508284244229N07141192WA0216302159001000115
B1508284244229N07141192WA0216302159001000115
B1508294244212N07141195WA0216602162001000112
B1508304244196N07141201WA0217002165001000107
B1508304244196N07141201WA0217502165001000107
B1508314244183N07141212WA0217502169001000100
B1508324244172N07141225WA0217902173001000093
B1508334244165N07141241WA0218202176001000088
F1508340708131417192130133
B1508344244161N07141257WA0218502179001000086
B1508344244161N07141257WA0218502179001000086
B1508354244160N07141274WA0218802180001000083
B1508354244160N07141274WA0219002180001000083
B1508364244161N07141290WA0219002182001000082
B1508374244165N07141306WA0219302184001000081
B1508384244172N07141319WA0219502186001000081
B1508394244181N07141330WA0219602188001000079
B1508394244181N07141330WA0219602188001000079
B1508404244192N07141338WA0220002191001000080
B1508414244204N07141341WA0220202194001000081
B1508424244216N07141340WA0220602197001000085
B1508434244229N07141336WA0220802200001000090
B1508434244229N07141336WA0221002200001000090
B1508444244241N07141327WA0221002203001000096
B1508454244252N07141314WA0221202205001000099
B1508464244262N07141299WA0221502207001000103
B1508474244270N07141281WA0221802208001000107
B1508484244276N07141260WA0222002210001000113
