ACNI279FLIGHT:1
HFDTE060523
HFFXA005
HFPLTPILOT:Bob Fletcher
HFCM2CREW:
HFGTYGLIDERTYPE:ASG 29
HFGIDGLIDERID:90
HFDTM100GPSDATUM:WGS84
HFRFWFIRMWAREVERSION:1.2
HFRHWHARDWAREVERSION:1.2
HFFTYFRTYPE:ClearNav Instr., ClearNav II
HFGPS:UBLOX,NEO-6G,16Ch,50000 
HFPRSPRESSALTSENSOR:Intersema,MS5540C,20000
HFCIDCOMPETITIONID:90
I033638FXA3941ENL4244GSP
J020810WDI1115WVE
C060523141209000000000102
C0000000N00000000ETAKEOFF
C4225570N07147630WSTERLING    
C4346690N07145200WPlymouth NH 
C4225640N07317540WPittsfield  
C4225570N07147630WSTERLING    
C0000000N00000000ELANDING
B1427224225411N07147435WA0006800115001000000
B1427224225411N07147435WA0006900115001000000
B1427234225411N07147435WA0006900115001000000
B1427244225411N07147436WA0006900116001000000
B1427254225411N07147436WA0006900116001000000
B1427264225411N07147436WA0006800116001000000
B1427264225411N07147436WA0006900116001000000
B1427274225411N07147436WA0006900116001000000
B1427284225411N07147436WA0006800117001000000
B1427284225411N07147436WA0006800117001000000
B1427294225411N07147436WA0006800117001000000
B1427304225411N07147436WA0006800117001000000
B1427314225411N07147436WA0006900117001000001
B1427324225411N07147436WA0006900117001000002
B1427334225411N07147437WA0006900116001000005
B1427344225412N07147438WA0006900116001000010
B1427344225412N07147438WA0006900116001000010
B1427354225414N07147439WA0006900116001000018
B1427364225416N07147443WA0006900116001000027
B1427374225420N07147447WA0006900116001000033
B1427374225420N07147447WA0006900116001007033
B1427384225424N07147451WA0006900116001007039
B1427384225424N07147451WA0006900116001021039
B1427394225429N07147457WA0006900116001021047
B1427394225429N07147457WA0007000116001021047
LCNI142739EVT:ENDBASELINE
LCNI142735EVT:TAKEOFF
F142740010708131417213013133
B1427404225435N07147464WA0007000116001028053
B1427414225441N07147472WA0007000116001028059
B1427424225448N07147480WA0007100116001040066
B1427434225456N07147490WA0007100116001039072
B1427444225464N07147500WA0007100116001032078
B1427454225473N07147511WA0007100117001023083
B1427464225483N07147523WA0007200117001021088
B1427474225493N07147535WA0007200117001013093
B1427484225504N07147548WA0007200117001010098
B1427494225515N07147561WA0007400117001007101
B1427504225527N07147574WA0007800118001007105
B1427514225540N07147588WA0008000119001007110
B1427524225552N07147604WA0008300119001007113
B1427534225565N07147619WA0008400120001010115
B1427544225578N07147635WA0008500120001009118
B1427554225592N07147650WA0008700122001010120
B1427564225606N07147665WA0009000124001011121
B1427574225619N07147682WA0009100127001015121
B1427584225633N07147698WA0009500130001015123
B1427594225647N07147715WA0009700134001016121
B1428004225660N07147731WA0010100138001016122
B1428014225674N07147747WA0010500142001017122
B1428024225688N07147763WA0011000148001021122
B1428034225702N07147779WA0011600152001019122
B1428044225715N07147795WA0011900157001019121
B1428054225729N07147811WA0012600163001020119
B1428064225742N07147827WA0013100169001022119
B1428074225756N07147842WA0013800173001022117
B1428084225769N07147857WA0014100178001026114
B1428094225783N07147872WA0014700183001026117
B1428104225797N07147887WA0014800187001025119
B1428114225811N07147901WA0015200191001020117
B1428124225824N07147916WA0015700195001019115
B1428134225838N07147931WA0016000200001019118
B1428144225851N07147947WA0016600204001018120
B1428154225864N07147963WA0016900207001018120
B1428164225877N07147980WA0017400209001021121
B1428174225890N07147997WA0017700213001022117
B1428184225904N07148012WA0018200221001026120
B1428194225918N07148027WA0018600226001026121
B1428204225932N07148042WA0019100230001029115
B1428214225945N07148056WA0019500235001028110
B1428224225957N07148071WA0020100239001026114
B1428234225970N07148087WA0020500242001026114
B1428244225983N07148102WA0021000245001023111
B1428254225994N07148118WA0021200248001021111
B1428264226006N07148134WA0021500250001019115
B1428274226018N07148151WA0021700254001019113
B1428284226029N07148168WA0022100259001023111
B1428294226040N07148185WA0022500264001022112
B1428304226051N07148202WA0023000268001026112
B1428314226062N07148219WA0023400273001022110
B1428324226073N07148236WA0023700277001021108
B1428334226084N07148251WA0024300282001017107
B1428344226095N07148266WA0024600286001014108
B1428354226106N07148282WA0025100290001014106
B1428364226117N07148298WA0025600295001010106
B1428374226128N07148314WA0025900299001011107
B1428384226139N07148330WA0026400304001008106
B1428394226150N07148345WA0026800308001008106
B1428404226161N07148361WA0027200312001008107
F14284101070813141721273013133
B1428414226172N07148376WA0027600316001008108
B1428424226183N07148392WA0028200320001005108
B1428434226195N07148407WA0028400322001008107
B1428444226207N07148421WA0028800324001008107
B1428454226220N07148434WA0028900327001007106
B1428464226234N07148445WA0029300330001011106
B1428474226248N07148454WA0029600335001014107
B1428484226263N07148461WA0030100339001016107
B1428494226279N07148466WA0030300342001016106
B1428494226279N07148466WA0030400342001016106
B1428504226295N07148469WA0030700348001016105
B1428514226310N07148471WA0031100353001014108
B1428524226326N07148471WA0031700357001015106
B1428534226342N07148470WA0032100361001014104
B1428544226358N07148468WA0032500366001012106
B1428554226374N07148464WA0033000371001010106
B1428564226389N07148460WA0033400376001008102
B1428574226404N07148457WA0034000380001005100
B1428584226418N07148453WA0034400386001005100
B1428594226433N07148450WA0035100393001001099
B1429004226448N07148447WA0035500398001000097
B1429014226462N07148443WA0036200403001000098
B1429024226477N07148439WA0036600408001000100
B1429034226491N07148433WA0037100412001002102
B1429044226506N07148427WA0037400416001000102
B1429054226520N07148421WA0037900419001000103
B1429064226535N07148415WA0038200422001000103
B1429074226550N07148409WA0038600425001000104
B1429084226565N07148402WA0038900428001000105
B1429094226580N07148396WA0039300431001000105
B1429104226595N07148389WA0039500433001000106
B1429114226610N07148382WA0039800436001000107
B1429124226626N07148374WA0040100440001000107
B1429134226641N07148369WA0040500444001000107
B1429144226657N07148364WA0040800448001000107
B1429154226672N07148358WA0041200451001000108
B1429164226688N07148353WA0041400454001000108
B1429174226704N07148347WA0041800458001000107
B1429184226719N07148341WA0042100461001000106
B1429194226734N07148335WA0042600466001000106
B1429204226749N07148328WA0042900469001000106
B1429214226764N07148321WA0043200472001000106
B1429224226779N07148314WA0043600476001000107
B1429234226795N07148306WA0044000481001001106
B1429244226809N07148298WA0044500485001001107
B1429254226824N07148290WA0044900488001001110
B1429264226840N07148281WA0045200490001003110
B1429274226855N07148274WA0045400491001001109
B1429284226871N07148267WA0045900494001002108
B1429294226886N07148261WA0046200498001014108
B1429304226902N07148254WA0046400502001019109
B1429314226917N07148247WA0046600503001016109
B1429324226933N07148240WA0046900506001014108
B1429334226948N07148232WA0047100509001013109
B1429344226963N07148223WA0047400512001011110
B1429354226978N07148215WA0047600515001008110
B1429364226994N07148206WA0048000517001009112
B1429374227009N07148197WA0048100520001009112
B1429384227024N07148188WA0048500523001010111
B1429394227040N07148179WA0048800526001011111
B1429404227055N07148171WA0049200531001015110
B1429414227070N07148163WA0049600537001026110
F142942010708131417212730133
B1429424227086N07148153WA0050200543001021113
B1429434227101N07148144WA0050600548001020114
B1429444227117N07148135WA0051200552001015115
B1429454227133N07148125WA0051400553001013116
B1429464227149N07148117WA0051800555001014115
B1429474227165N07148109WA0052000557001012114
B1429484227181N07148101WA0052300560001010113
B1429494227197N07148093WA0052400563001010113
B1429504227212N07148085WA0052700567001009110
B1429514227227N07148076WA0053000571001010110
B1429524227242N07148066WA0053500577001010110
B1429534227258N07148058WA0053800581001010110
B1429544227273N07148050WA0054300585001007110
B1429554227288N07148042WA0054700588001007111
B1429564227304N07148034WA0054900590001005111
B1429574227320N07148027WA0055200593001005110
B1429584227335N07148018WA0055800599001010112
B1429594227351N07148009WA0056000603001008117
B1430004227367N07148001WA0056400606001007116
B1430014227383N07147993WA0056600608001007115
B1430024227400N07147987WA0057000611001004115
B1430034227417N07147980WA0057000614001001116
B1430044227434N07147974WA0057200618001004116
B1430054227450N07147968WA0057500621001004117
B1430064227467N07147961WA0057600624001005117
B1430074227484N07147953WA0058100629001006116
B1430084227500N07147946WA0058400635001005116
B1430094227517N07147939WA0059100639001007116
B1430104227534N07147933WA0059400642001008116
B1430114227551N07147927WA0059800646001012118
B1430124227567N07147920WA0060100649001011117
B1430134227584N07147913WA0060500654001011117
B1430144227601N07147905WA0060900657001010119
B1430154227617N07147898WA0061400661001014115
B1430164227634N07147892WA0061700665001014115
B1430174227651N07147887WA0062000668001010117
B1430184227668N07147880WA0062700671001007116
B1430194227684N07147874WA0063000673001005115
B1430204227701N07147868WA0063500676001007118
B1430214227718N07147861WA0063700679001006118
B1430224227735N07147855WA0064100681001007117
B1430234227753N07147850WA0064400684001007120
B1430244227770N07147845WA0064600684001007120
B1430254227788N07147841WA0064600685001007119
B1430264227805N07147836WA0064700688001008118
B1430274227823N07147831WA0065100694001010116
B1430284227839N07147827WA0065600700001011114
B1430294227856N07147822WA0066000705001011114
B1430304227873N07147817WA0066700712001010113
B1430314227889N07147812WA0067100718001010113
B1430324227905N07147806WA0067800723001008113
B1430334227922N07147800WA0068200728001008112
B1430344227938N07147794WA0068800732001008113
B1430354227954N07147787WA0069200735001007114
B1430364227971N07147781WA0069800741001007115
B1430374227988N07147776WA0070200746001007113
B1430384228004N07147770WA0070800753001013112
B1430394228020N07147765WA0071400760001010112
B1430404228037N07147762WA0072100766001012110
B1430414228053N07147758WA0072500771001011108
B1430424228069N07147755WA0073200775001009111
F14304301070813141721273013133
B1430434228086N07147751WA0073500779001008110
B1430444228102N07147747WA0074000783001009109
B1430454228118N07147744WA0074300787001007110
B1430464228134N07147741WA0074800791001007110
B1430474228151N07147738WA0075200794001007111
B1430484228167N07147736WA0075600796001007111
B1430494228184N07147733WA0075700799001007112
B1430504228201N07147731WA0076100802001004113
B1430514228217N07147728WA0076300805001004112
B1430524228234N07147725WA0076700809001004113
B1430534228251N07147721WA0077000813001004113
B1430534228251N07147721WA0077400813001005113
B1430544228267N07147717WA0077400817001005113
B1430554228284N07147713WA0077800820001006113
B1430564228301N07147708WA0078200824001007113
B1430574228317N07147703WA0078500829001007112
B1430584228333N07147698WA0079100834001007113
B1430594228350N07147693WA0079700839001006112
B1431004228366N07147688WA0080000844001005112
B1431014228383N07147682WA0080400849001005114
B1431024228399N07147677WA0081000853001005114
B1431034228416N07147673WA0081400858001004114
B1431044228433N07147668WA0081900861001005115
B1431054228450N07147664WA0082300864001004115
B1431064228467N07147660WA0082600868001003116
B1431074228484N07147655WA0082900870001004117
B1431084228501N07147650WA0083300874001004118
B1431094228519N07147644WA0083600877001004120
B1431104228536N07147638WA0084000881001007120
B1431114228554N07147632WA0084600887001010121
B1431124228571N07147624WA0085000892001010122
B1431134228588N07147617WA0085300895001010121
B1431144228606N07147610WA0085800899001010121
B1431144228606N07147610WA0086200899001010121
B1431154228624N07147604WA0086200902001010120
B1431164228641N07147598WA0086400906001009120
B1431174228658N07147591WA0086900911001008119
B1431184228675N07147584WA0087200914001007120
B1431194228692N07147577WA0087700917001008119
B1431204228709N07147569WA0087900921001008119
B1431214228726N07147561WA0088400924001007119
B1431224228743N07147553WA0088600926001007117
B1431234228759N07147546WA0088900930001005118
B1431244228776N07147538WA0089200933001006118
B1431244228776N07147538WA0089600933001006118
B1431254228792N07147529WA0089600937001006117
B1431264228809N07147520WA0090000940001006119
B1431274228825N07147511WA0090200943001005118
B1431284228842N07147503WA0090500945001006118
B1431294228859N07147494WA0090700948001004119
B1431304228875N07147486WA0090900949001004119
B1431314228892N07147478WA0091300953001005119
B1431324228909N07147470WA0091500957001004119
B1431334228926N07147462WA0091900961001005120
B1431344228943N07147453WA0092400965001004119
B1431354228959N07147443WA0092700970001004120
B1431364228976N07147434WA0093000973001002120
B1431374228992N07147425WA0093500977001002119
B1431384229009N07147415WA0093800980001001119
B1431394229025N07147406WA0094100983001000119
B1431404229042N07147396WA0094500985001000119
B1431414229058N07147385WA0094800989001001119
B1431424229074N07147374WA0095200992001004119
B1431434229089N07147363WA0095500996001003120
B1431444229105N07147352WA0095901000001005120
B1431454229121N07147340WA0096401005001004121
B1431464229138N07147330WA0096701009001006121
B1431474229155N07147320WA0097101012001005121
B1431484229172N07147311WA0097601017001005118
B1431494229187N07147303WA0098101023001013109
B1431504229201N07147292WA0098801031001013103
B1431514229212N07147279WA0099201037001020101
B1431524229222N07147264WA0099601041001010098
B1431534229231N07147249WA0100001042001000096
B1431544229241N07147235WA0100201042001000092
B1431554229251N07147222WA0100301041001000089
B1431564229262N07147212WA0100201039001000087
B1431574229273N07147203WA0100001036001000087
B1431584229285N07147196WA0099801035001000087
B1431584229285N07147196WA0099701035001000087
B1431594229297N07147190WA0099601033001000088
B1432004229310N07147185WA0099601033001000088
B1432014229323N07147180WA0099501034001000087
B1432024229335N07147176WA0099501035001000085
B1432034229348N07147176WA0099601036001000082
B1432044229360N07147178WA0099701037001000081
B1432054229371N07147185WA0099801038001000081
B1432064229381N07147195WA0099901039001000082
B1432074229388N07147208WA0100001040001000083
B1432084229393N07147224WA0100101040001000086
B1432094229394N07147242WA0100201041001000090
B1432094229394N07147242WA0100301041001000090
B1432104229393N07147260WA0100301042001000095
B1432114229387N07147279WA0100401042001000102
B1432124229379N07147297WA0100501043001000108
B1432134229368N07147314WA0100601043001000114
B1432144229354N07147328WA0100701044001000120
B1432154229337N07147339WA0100801045001000125
F143216010708131417212730133
B1432164229319N07147347WA0100801046001000128
B1432174229300N07147351WA0100901046001000129
B1432184229281N07147350WA0101001047001000131
B1432194229262N07147346WA0101101048001000130
B1432204229243N07147338WA0101101047001000129
B1432204229243N07147338WA0101101047001000129
B1432214229226N07147326WA0101001045001000130
B1432224229210N07147311WA0100901043001000130
B1432234229196N07147293WA0100701040001000129
B1432244229185N07147271WA0100601039001000127
B1432254229178N07147248WA0100401038001000122
B1432264229173N07147225WA0100301037001000116
B1432274229171N07147203WA0100201037001000109
B1432284229171N07147182WA0100201036001000103
B1432294229173N07147161WA0100101035001000100
B1432294229173N07147161WA0099901035001000100
B1432304229176N07147142WA0099901035001000097
B1432314229180N07147124WA0099901036001000094
B1432324229185N07147106WA0099901037001000092
B1432334229191N07147089WA0099901038001000091
B1432344229196N07147073WA0099901038001000091
B1432354229202N07147056WA0100001039001000092
B1432364229208N07147039WA0100101040001000093
B1432374229213N07147021WA0100201042001000094
B1432374229213N07147021WA0100201042001000094
B1432384229217N07147003WA0100401045001000095
B1432394229220N07146984WA0100601047001000096
B1432404229223N07146965WA0100801048001000096
B1432414229226N07146946WA0101101050001000094
B1432414229226N07146946WA0101101050001000094
B1432424229230N07146928WA0101301051001000091
B1432434229235N07146912WA0101301051001000087
B1432444229242N07146898WA0101301051001000081
B1432454229250N07146887WA0101101048001000077
B1432464229260N07146880WA0100801046001000072
B1432474229270N07146878WA0100701046001000068
B1432474229270N07146878WA0100701046001000068
B1432484229280N07146882WA0100601047001000066
B1432494229287N07146891WA0100601047001000068
B1432504229291N07146904WA0100601047001000074
B1432514229292N07146920WA0100501045001000082
B1432524229290N07146937WA0100401043001000092
B1432524229290N07146937WA0100301043001000092
B1432534229283N07146955WA0100301040001000102
B1432544229272N07146971WA0100201040001000110
B1432544229272N07146971WA0100201040001000110
B1432554229258N07146984WA0100201041001000115
B1432564229242N07146993WA0100301044001000119
B1432574229224N07146997WA0100401046001000121
B1432574229224N07146997WA0100601046001000121
B1432584229206N07146997WA0100601047001000124
B1432594229187N07146993WA0100601048001000125
B1432594229187N07146993WA0100701048001000125
B1433004229170N07146985WA0100701048001000127
B1433004229170N07146985WA0100701048001000127
B1433014229152N07146973WA0100701047001000129
B1433024229136N07146958WA0100701047001000129
B1433024229136N07146958WA0100801047001000129
B1433034229122N07146940WA0100801049001000128
B1433044229110N07146920WA0100801050001000126
B1433054229100N07146900WA0100901051001000124
B1433064229090N07146878WA0101001052001000121
B1433074229084N07146856WA0101201053001000115
B1433084229080N07146834WA0101301054001000109
B1433094229079N07146813WA0101301053001000103
B1433094229079N07146813WA0101301053001000103
B1433104229082N07146793WA0101301053001000097
B1433114229087N07146776WA0101301054001000088
B1433114229087N07146776WA0101401054001000088
B1433124229095N07146763WA0101401055001000079
B1433134229104N07146754WA0101401055001000072
B1433144229114N07146750WA0101401054001000069
B1433154229124N07146750WA0101301052001000067
B1433164229133N07146755WA0101201051001000069
B1433164229133N07146755WA0101201051001000069
F14331701070813141721273013133
B1433174229140N07146766WA0101201051001000074
B1433184229145N07146780WA0101301050001000082
B1433184229145N07146780WA0101401050001000082
B1433194229145N07146798WA0101401049001000092
B1433204229140N07146817WA0101301049001000101
B1433204229140N07146817WA0101301049001000101
B1433214229131N07146834WA0101301049001000110
B1433214229131N07146834WA0101201049001000110
B1433224229118N07146849WA0101201049001000117
B1433234229101N07146859WA0101301050001000123
B1433244229083N07146863WA0101401053001000128
B1433254229063N07146861WA0101501055001000131
B1433254229063N07146861WA0101601055001000131
B1433264229045N07146853WA0101601056001000132
B1433274229027N07146840WA0101801057001000130
B1433274229027N07146840WA0101901057001000130
B1433284229013N07146823WA0101901056001000128
B1433294229001N07146803WA0102001056001000125
B1433304228993N07146781WA0102001056001000121
B1433314228987N07146759WA0102001058001000116
B1433314228987N07146759WA0102101058001000116
B1433324228984N07146736WA0102101059001000109
B1433334228984N07146715WA0102201062001000102
B1433344228987N07146696WA0102401063001000093
B1433344228987N07146696WA0102501063001000093
B1433354228993N07146680WA0102501064001000085
B1433364229000N07146666WA0102601065001000080
B1433374229009N07146656WA0102901068001000077
B1433384229019N07146648WA0103001070001000073
B1433384229019N07146648WA0103201070001000073
B1433394229029N07146645WA0103201072001000072
B1433404229040N07146646WA0103301075001000069
B1433404229040N07146646WA0103601075001000069
B1433414229048N07146653WA0103601076001000069
B1433414229048N07146653WA0103801076001000069
B1433424229054N07146665WA0103801078001000073
B1433434229055N07146680WA0104001081001000082
B1433444229050N07146697WA0104201083001000093
B1433454229041N07146713WA0104501084001000105
B1433454229041N07146713WA0104501084001000105
B1433464229028N07146727WA0104601084001000114
B1433464229028N07146727WA0104701084001000114
B1433474229011N07146736WA0104701083001000123
B1433484228993N07146740WA0104701082001000131
B1433494228973N07146738WA0104601081001000135
B1433504228953N07146729WA0104501081001000136
B1433514228936N07146715WA0104601078001000136
B1433514228936N07146715WA0104501078001000136
B1433524228921N07146696WA0104501072001000133
B1433534228911N07146674WA0104501072001000124
B1433544228905N07146652WA0104501073001000115
B1433554228904N07146630WA0104701077001000106
B1433564228907N07146610WA0104901081001000095
B1433574228914N07146594WA0105101085001000085
B1433584228923N07146585WA0105401088001000076
B1433594228934N07146581WA0105601091001000072
B1434004228944N07146584WA0105801093001000072
B1434004228944N07146584WA0105801093001000072
B1434014228953N07146592WA0106001095001000074
B1434024228959N07146605WA0106301097001000078
B1434024228959N07146605WA0106501097001000078
B1434034228960N07146622WA0106601100001000086
B1434044228955N07146640WA0106801103001000097
B1434054228945N07146656WA0107001106001000108
B1434064228931N07146669WA0107201107001000117
B1434074228914N07146678WA0107301106001000125
B1434084228895N07146681WA0107401105001000131
B1434094228875N07146677WA0107301104001000135
B1434104228856N07146667WA0107201101001000138
B1434114228838N07146652WA0107101093001000140
B1434124228823N07146633WA0106901080001000137
B1434134228814N07146610WA0106901081001000124
B1434144228810N07146587WA0106901084001000113
B1434154228812N07146566WA0107101094001000100
B1434154228812N07146566WA0107201094001000100
B1434164228817N07146548WA0107601102001000088
B1434174228826N07146536WA0107901108001000078
B1434184228836N07146530WA0108401112001000071
B1434194228846N07146530WA0108601114001000070
B1434204228856N07146535WA0108901115001000072
B1434214228864N07146545WA0109001115001000076
B1434224228869N07146560WA0109101117001000083
B1434234228869N07146578WA0109201120001000092
B1434244228863N07146596WA0109501125001000100
B1434244228863N07146596WA0109501125001000100
B1434254228853N07146612WA0109701129001000108
B1434264228840N07146625WA0109901133001000114
B1434274228823N07146634WA0110301133001000120
B1434274228823N07146634WA0110401133001000120
B1434284228805N07146637WA0110401132001000126
B1434294228786N07146634WA0110501131001000131
B1434304228767N07146626WA0110401130001000133
B1434314228750N07146612WA0110201129001000132
B1434314228750N07146612WA0110201129001000132
B1434324228735N07146594WA0110101128001000129
B1434334228724N07146573WA0110001128001000125
B1434344228718N07146551WA0110201131001000117
B1434354228716N07146529WA0110301135001000106
B1434364228720N07146509WA0110501139001000096
B1434374228727N07146494WA0110901142001000087
B1434384228738N07146485WA0111101146001000080
B1434394228749N07146482WA0111401150001000076
B1434394228749N07146482WA0111701150001000076
B1434404228760N07146486WA0111801153001000075
B1434414228769N07146496WA0112101157001000076
B1434424228775N07146510WA0112301158001000080
B1434434228776N07146526WA0112601159001000087
B1434444228773N07146545WA0112701161001000097
B1434454228765N07146562WA0112801162001000107
F143446010708131417213013133
B1434464228753N07146578WA0113001164001000115
B1434464228753N07146578WA0113001164001000115
B1434474228738N07146589WA0113101166001000120
B1434484228720N07146596WA0113301167001000124
B1434484228720N07146596WA0113301167001000124
B1434494228701N07146598WA0113401168001000127
B1434504228682N07146595WA0113501169001000129
B1434514228664N07146587WA0113501167001000130
B1434524228647N07146574WA0113301166001000130
B1434534228632N07146557WA0113201167001000130
B1434544228620N07146537WA0113301169001000126
B1434554228613N07146515WA0113301173001000115
B1434564228611N07146493WA0113501177001000104
B1434574228614N07146474WA0113801181001000093
B1434584228620N07146458WA0114201187001000085
B1434594228629N07146448WA0114401190001000077
B1435004228640N07146443WA0114801193001000072
B1435014228650N07146444WA0115101197001000070
B1435024228659N07146451WA0115501200001000073
B1435034228665N07146464WA0115701201001000076
B1435044228667N07146479WA0116101201001000082
B1435054228665N07146497WA0116201202001000091
B1435064228658N07146514WA0116301202001000102
B1435074228647N07146529WA0116401203001000111
B1435084228632N07146540WA0116401203001000118
B1435094228614N07146546WA0116401203001000123
B1435104228595N07146547WA0116401201001000128
B1435114228576N07146541WA0116401198001000132
B1435124228558N07146531WA0116201195001000135
B1435134228541N07146515WA0116201193001000134
B1435144228527N07146496WA0116201194001000129
B1435154228517N07146476WA0116301197001000122
B1435164228510N07146454WA0116501201001000116
B1435174228506N07146432WA0116701203001000111
B1435184228504N07146410WA0117101206001000105
B1435194228506N07146390WA0117301208001000096
B1435204228511N07146373WA0117501209001000087
B1435214228519N07146360WA0117601210001000079
B1435224228528N07146352WA0117701210001000074
B1435234228539N07146348WA0117701211001000070
B1435244228549N07146349WA0117801212001000069
B1435254228559N07146355WA0117801212001000071
B1435264228566N07146366WA0117901214001000078
B1435274228570N07146382WA0118001217001000085
B1435284228570N07146400WA0118301220001000091
B1435294228565N07146418WA0118501223001000099
B1435304228555N07146434WA0118801226001000105
B1435314228542N07146447WA0119101228001000112
B1435314228542N07146447WA0119101228001000112
B1435324228526N07146456WA0119201229001000119
B1435334228507N07146460WA0119301229001000125
B1435334228507N07146460WA0119301229001000125
B1435344228488N07146459WA0119301228001000130
B1435354228469N07146453WA0119301227001000133
B1435364228452N07146440WA0119401228001000132
B1435374228437N07146423WA0119401230001000127
B1435384228427N07146403WA0119601233001000119
B1435394228421N07146382WA0119801236001000109
B1435404228419N07146361WA0120001238001000100
B1435414228420N07146342WA0120201240001000091
B1435414228420N07146342WA0120401240001000091
B1435424228424N07146325WA0120401240001000084
B1435434228432N07146313WA0120401240001000078
B1435444228442N07146305WA0120401240001000074
B1435454228453N07146303WA0120401240001000072
B1435464228463N07146305WA0120401240001000073
F14354701070813141721273013133
B1435474228473N07146312WA0120401241001000075
B1435484228480N07146324WA0120601242001000080
B1435494228484N07146340WA0120801245001000087
B1435504228482N07146359WA0121101249001000095
B1435514228474N07146376WA0121301253001000102
B1435524228463N07146391WA0121801258001000107
B1435534228449N07146402WA0122101260001000112
B1435544228433N07146410WA0122401262001000117
B1435554228415N07146413WA0122601262001000122
B1435564228396N07146411WA0122601262001000126
B1435574228378N07146404WA0122601261001000131
B1435584228360N07146392WA0122601261001000132
B1435594228345N07146376WA0122601262001000129
B1436004228333N07146357WA0122801266001000121
B1436014228326N07146335WA0123001269001000112
B1436024228323N07146314WA0123201271001000102
B1436034228324N07146295WA0123401272001000092
B1436044228329N07146279WA0123601272001000086
B1436054228337N07146266WA0123701272001000080
B1436064228347N07146259WA0123801272001000075
B1436064228347N07146259WA0123701272001000075
B1436074228358N07146258WA0123701272001000074
B1436084228369N07146263WA0123701273001000076
B1436094228378N07146273WA0123701273001000080
B1436104228384N07146287WA0123901274001000086
B1436114228386N07146305WA0124101277001000094
B1436124228382N07146325WA0124301280001000103
B1436134228374N07146344WA0124501283001000111
B1436144228361N07146359WA0124801286001000118
B1436154228344N07146369WA0125001289001000124
B1436164228326N07146374WA0125301292001000129
B1436174228306N07146373WA0125701294001000131
B1436184228287N07146365WA0125801295001000131
B1436194228271N07146351WA0126001296001000129
B1436204228258N07146333WA0126101297001000124
B1436214228249N07146311WA0126301299001000116
B1436224228246N07146289WA0126401301001000106
B1436234228248N07146269WA0126501303001000096
B1436244228253N07146253WA0126701305001000086
B1436244228253N07146253WA0126901305001000086
B1436254228262N07146242WA0126901306001000078
B1436264228272N07146236WA0127001307001000073
B1436274228283N07146238WA0127001307001000073
B1436284228292N07146245WA0127101307001000076
B1436294228299N07146258WA0127201308001000081
B1436304228303N07146274WA0127301309001000089
B1436314228301N07146293WA0127401311001000100
B1436324228294N07146312WA0127601314001000108
B1436334228282N07146329WA0127901317001000114
B1436344228267N07146341WA0128201320001000118
B1436354228250N07146350WA0128301321001000124
B1436364228232N07146353WA0128501322001000129
B1436374228212N07146351WA0128601323001000133
B1436384228193N07146343WA0128701323001000134
B1436394228175N07146330WA0128801323001000133
B1436404228161N07146312WA0128901324001000129
B1436414228150N07146291WA0129001326001000121
B1436424228145N07146269WA0129201329001000111
B1436434228144N07146248WA0129301332001000101
B1436444228148N07146230WA0129501333001000091
B1436454228155N07146215WA0129701334001000083
B1436464228164N07146206WA0129701332001000077
B1436474228176N07146204WA0129701330001000077
B1436484228187N07146208WA0129501326001000082
B1436494228197N07146220WA0129401324001000091
B1436504228203N07146237WA0129301325001000100
B1436514228205N07146258WA0129301328001000109
B1436524228200N07146280WA0129601332001000116
B1436534228189N07146299WA0130001339001000121
B1436544228174N07146313WA0130401346001000122
B1436554228157N07146322WA0131001352001000123
F143656010708131721273013133
B1436564228138N07146327WA0131401356001000125
B1436574228119N07146327WA0132101359001000126
B1436584228101N07146322WA0132201360001000126
B1436594228083N07146314WA0132301360001000127
B1437004228066N07146301WA0132401360001000126
B1437014228052N07146285WA0132501362001000124
B1437024228041N07146265WA0132601364001000118
B1437034228034N07146245WA0132901366001000110
B1437044228030N07146224WA0133001368001000103
B1437054228031N07146204WA0133201370001000095
B1437064228034N07146187WA0133401371001000087
B1437074228041N07146173WA0133501372001000080
B1437084228050N07146163WA0133601373001000075
B1437094228060N07146159WA0133701374001000072
B1437104228070N07146161WA0133801376001000071
B1437114228079N07146169WA0134001378001000073
B1437124228085N07146181WA0134201379001000078
B1437134228088N07146198WA0134401381001000087
B1437144228086N07146216WA0134601383001000095
B1437154228080N07146235WA0134801385001000104
B1437164228070N07146252WA0135001386001000112
B1437174228056N07146266WA0135101388001000118
B1437184228039N07146276WA0135301389001000125
B1437194228021N07146280WA0135401390001000129
B1437204228001N07146279WA0135501390001000131
B1437214227982N07146273WA0135501389001000133
B1437224227963N07146262WA0135501384001000135
B1437234227946N07146247WA0135601373001000136
B1437244227932N07146228WA0135601364001000129
B1437254227924N07146206WA0135901370001000117
B1437254227924N07146206WA0136001370001000117
B1437264227920N07146184WA0136101373001000107
B1437274227921N07146163WA0136201378001000099
B1437284227925N07146145WA0136401383001000090
B1437294227933N07146131WA0136601388001000081
B1437304227942N07146122WA0136901392001000073
B1437314227952N07146118WA0137001396001000069
B1437324227963N07146119WA0137301400001000068
B1437334227972N07146124WA0137501401001000070
B1437344227979N07146135WA0137701403001000077
B1437354227983N07146151WA0137801404001000086
B1437364227983N07146169WA0137901404001000097
B1437374227977N07146189WA0138001406001000108
B1437384227967N07146207WA0138101408001000117
B1437394227953N07146222WA0138301411001000122
B1437404227936N07146232WA0138501414001000126
B1437414227917N07146238WA0138701416001000129
B1437424227898N07146238WA0138901419001000130
B1437434227879N07146233WA0139101421001000130
B1437444227861N07146223WA0139401423001000127
B1437454227847N07146208WA0139601425001000122
B1437464227835N07146189WA0139701426001000116
B1437474227828N07146169WA0139901427001000110
B1437484227825N07146148WA0140001429001000101
B1437494227826N07146129WA0140301432001000091
B1437504227831N07146113WA0140401436001000081
B1437514227838N07146101WA0140601439001000072
B1437524227847N07146093WA0140901442001000066
B1437534227856N07146089WA0141301445001000064
B1437544227866N07146089WA0141401446001000065
B1437554227875N07146094WA0141601447001000066
B1437564227882N07146103WA0141601448001000071
F14375701070813141721273013133
B1437574227887N07146117WA0141801448001000080
B1437584227888N07146134WA0141801449001000090
B1437594227886N07146153WA0141901450001000098
B1437594227886N07146153WA0142001450001000098
B1438004227879N07146172WA0142101452001000106
B1438014227869N07146190WA0142301455001000112
B1438024227855N07146204WA0142401457001000117
B1438034227839N07146215WA0142701458001000120
B1438044227822N07146222WA0142701459001000125
B1438054227803N07146223WA0142801459001000129
B1438064227784N07146218WA0142801459001000130
B1438074227766N07146208WA0142801458001000130
B1438084227750N07146193WA0142901460001000128
B1438094227737N07146175WA0143201462001000123
B1438104227727N07146154WA0143301465001000117
B1438104227727N07146154WA0143401465001000117
B1438114227721N07146133WA0143401466001000111
B1438124227718N07146112WA0143601467001000104
B1438134227718N07146092WA0143901470001000096
B1438144227721N07146074WA0144001473001000090
B1438154227726N07146058WA0144201477001000085
B1438164227732N07146043WA0144401480001000080
B1438174227739N07146031WA0144901484001000074
B1438184227748N07146022WA0145201488001000068
B1438194227757N07146018WA0145401490001000063
B1438204227766N07146018WA0145701492001000062
B1438214227775N07146024WA0145901493001000065
B1438224227782N07146033WA0146201495001000070
B1438234227786N07146046WA0146301497001000075
B1438244227788N07146062WA0146501498001000082
B1438254227787N07146079WA0146601499001000090
B1438264227782N07146097WA0146801499001000099
B1438274227773N07146115WA0146901500001000108
B1438284227760N07146130WA0147001501001000117
B1438294227745N07146142WA0147101501001000124
B1438304227727N07146151WA0147101501001000130
B1438314227707N07146153WA0147201503001000135
B1438324227687N07146150WA0147401504001000136
B1438334227667N07146142WA0147501506001000134
B1438344227650N07146129WA0147701509001000130
B1438354227636N07146112WA0147801511001000125
B1438364227626N07146093WA0148001512001000118
B1438364227626N07146093WA0148201512001000118
B1438374227619N07146071WA0148201512001000111
B1438384227617N07146050WA0148301514001000102
B1438394227620N07146031WA0148401516001000094
B1438404227626N07146015WA0148601519001000085
B1438414227635N07146004WA0148801522001000076
B1438424227645N07145999WA0149101525001000072
B1438434227655N07146001WA0149301527001000072
B1438444227665N07146008WA0149601529001000074
B1438454227672N07146021WA0149801531001000080
B1438464227675N07146037WA0150101534001000087
B1438474227675N07146055WA0150301537001000094
B1438484227670N07146074WA0150701540001000101
B1438494227661N07146091WA0150901543001000108
B1438504227648N07146106WA0151101544001000115
B1438514227632N07146118WA0151201544001000121
B1438524227615N07146126WA0151401545001000127
B1438524227615N07146126WA0151401545001000127
B1438534227596N07146129WA0151501546001000131
B1438544227576N07146129WA0151501546001000133
B1438554227556N07146124WA0151601546001000134
B1438554227556N07146124WA0151701546001000134
B1438564227538N07146114WA0151701547001000133
B1438574227521N07146100WA0151701547001000131
F143858010708131417212730133
B1438584227506N07146083WA0151801548001000129
B1438594227494N07146063WA0151801549001000124
B1439004227486N07146041WA0152001551001000117
B1439014227482N07146019WA0152101554001000109
B1439024227482N07145998WA0152401558001000100
B1439034227485N07145980WA0152701562001000091
B1439044227491N07145964WA0153001566001000081
B1439054227499N07145953WA0153501570001000073
B1439064227508N07145947WA0153701573001000068
B1439074227518N07145944WA0154101575001000066
B1439084227528N07145947WA0154201576001000068
B1439094227536N07145955WA0154401577001000073
B1439104227543N07145968WA0154501577001000081
B1439114227548N07145984WA0154501577001000090
B1439124227549N07146003WA0154601578001000098
B1439134227545N07146023WA0154801580001000107
B1439144227538N07146044WA0155001582001000114
B1439154227526N07146062WA0155201585001000121
B1439164227511N07146077WA0155401586001000127
B1439174227493N07146088WA0155501587001000133
B1439184227474N07146094WA0155701588001000136
B1439194227453N07146095WA0155801588001000139
B1439204227433N07146091WA0155901590001000139
B1439214227413N07146081WA0156001592001000137
B1439224227396N07146068WA0156201595001000133
B1439234227381N07146051WA0156301597001000128
B1439244227368N07146032WA0156501599001000123
B1439244227368N07146032WA0156701599001000123
B1439254227359N07146012WA0156701600001000118
B1439264227352N07145991WA0156901602001000111
B1439274227349N07145970WA0157101605001000104
B1439284227349N07145950WA0157301607001000098
B1439294227352N07145931WA0157501609001000091
B1439304227356N07145914WA0157701611001000085
B1439314227363N07145901WA0157901613001000078
B1439324227371N07145891WA0158101616001000071
B1439334227381N07145886WA0158301619001000067
B1439344227390N07145885WA0158601622001000065
B1439354227400N07145889WA0158801624001000066
B1439364227407N07145898WA0159001626001000069
B1439374227414N07145910WA0159201626001000075
B1439384227418N07145924WA0159301626001000082
B1439394227419N07145942WA0159401625001000093
B1439404227416N07145962WA0159501625001000102
B1439414227410N07145982WA0159601626001000112
B1439424227400N07146002WA0159701628001000118
B1439434227388N07146019WA0159801629001000123
B1439444227372N07146035WA0159901630001000128
B1439454227354N07146046WA0160001631001000134
B1439464227335N07146053WA0160101631001000139
B1439474227314N07146055WA0160201631001000143
B1439484227292N07146052WA0160201631001000145
B1439494227271N07146044WA0160201631001000145
B1439504227252N07146030WA0160301629001000143
B1439514227237N07146011WA0160501631001000137
B1439524227225N07145990WA0160601634001000129
B1439534227217N07145967WA0160701637001000120
B1439544227213N07145944WA0161101640001000111
B1439554227214N07145923WA0161401643001000101
B1439564227217N07145905WA0161801648001000089
B1439574227224N07145890WA0161901650001000080
B1439584227233N07145880WA0162301652001000074
F143959010708131417213013133
B1439594227243N07145875WA0162401653001000070
B1440004227253N07145875WA0162701655001000070
B1440014227263N07145880WA0162801657001000073
B1440024227272N07145889WA0163101659001000076
B1440034227278N07145902WA0163401662001000081
B1440044227282N07145919WA0163601665001000088
B1440054227282N07145937WA0163801667001000095
B1440064227279N07145957WA0164001668001000105
B1440074227271N07145977WA0164201669001000114
B1440084227260N07145995WA0164301669001000122
B1440094227245N07146011WA0164401669001000129
B1440104227227N07146022WA0164501670001000135
B1440114227207N07146027WA0164501672001000138
B1440124227186N07146028WA0164601672001000139
B1440134227166N07146022WA0164701672001000139
B1440144227147N07146011WA0164801673001000137
B1440154227131N07145994WA0164901674001000133
B1440164227119N07145974WA0164901675001000127
B1440174227110N07145952WA0165001676001000121
B1440184227105N07145929WA0165201679001000113
B1440194227105N07145908WA0165601684001000102
B1440204227108N07145890WA0165801689001000088
B1440214227114N07145875WA0166201693001000078
B1440224227122N07145866WA0166401695001000071
B1440234227132N07145862WA0166701696001000068
B1440244227142N07145863WA0166801696001000070
B1440254227152N07145871WA0167001697001000075
B1440264227159N07145883WA0167201699001000081
B1440274227164N07145899WA0167401702001000089
B1440284227164N07145918WA0167601705001000097
B1440294227159N07145938WA0167801707001000107
B1440304227151N07145958WA0168001709001000115
B1440314227138N07145975WA0168301709001000122
B1440324227123N07145989WA0168301710001000128
B1440334227104N07145998WA0168301710001000134
B1440344227084N07146003WA0168401710001000137
B1440354227064N07146003WA0168501710001000139
B1440364227043N07145999WA0168501710001000139
B1440374227024N07145989WA0168501712001000136
B1440384227007N07145975WA0168601714001000131
B1440394226993N07145958WA0168701716001000125
B1440404226982N07145938WA0168801718001000120
B1440414226974N07145918WA0169001719001000113
B1440424226970N07145897WA0169301722001000103
B1440434226970N07145877WA0169501725001000092
B1440444226973N07145861WA0169701728001000082
B1440454226979N07145848WA0169901730001000073
B1440464226987N07145839WA0170101731001000068
B1440474226997N07145835WA0170201730001000067
B1440484227007N07145836WA0170201730001000069
B1440494227016N07145843WA0170301730001000075
B1440504227024N07145855WA0170401731001000082
B1440514227029N07145871WA0170401734001000089
B1440524227029N07145890WA0170701738001000097
B1440534227026N07145910WA0170901742001000104
B1440544227018N07145929WA0171301745001000112
B1440554227006N07145947WA0171501746001000118
B1440564226992N07145961WA0171601746001000125
B1440574226974N07145973WA0171701744001000131
B1440584226955N07145980WA0171701744001000135
B1440594226935N07145984WA0171701745001000137
F1441000107081314172130133
B1441004226914N07145983WA0171701745001000137
B1441014226894N07145978WA0171701746001000136
B1441024226875N07145969WA0171801746001000134
B1441034226857N07145957WA0171901744001000132
B1441044226841N07145942WA0172001741001000131
B1441054226827N07145923WA0172101741001000127
B1441064226816N07145903WA0172101744001000121
B1441074226808N07145883WA0172301747001000112
B1441084226804N07145862WA0172501750001000104
B1441094226802N07145842WA0172701753001000095
B1441104226803N07145824WA0172901755001000086
B1441114226807N07145808WA0173001756001000079
B1441124226814N07145796WA0173201757001000073
B1441134226822N07145788WA0173201757001000068
B1441144226832N07145784WA0173301757001000066
B1441154226842N07145786WA0173301758001000068
B1441164226850N07145794WA0173201758001000074
B1441174226857N07145807WA0173301758001000082
B1441184226860N07145824WA0173301758001000092
B1441194226860N07145844WA0173301758001000102
B1441204226855N07145865WA0173401759001000113
B1441214226845N07145885WA0173501761001000124
B1441224226831N07145903WA0173601763001000131
B1441234226814N07145917WA0173801765001000136
B1441244226795N07145927WA0174001766001000140
B1441254226774N07145934WA0174101767001000144
B1441264226753N07145937WA0174201769001000144
B1441274226731N07145937WA0174301772001000143
B1441284226710N07145936WA0174401774001000142
B1441294226689N07145934WA0174701777001000140
B1441304226668N07145931WA0174901779001000139
B1441314226647N07145927WA0175101780001000139
B1441324226627N07145922WA0175301781001000138
B1441334226607N07145915WA0175401781001000138
B1441344226587N07145907WA0175401781001000138
B1441354226568N07145897WA0175501781001000137
B1441364226549N07145884WA0175501780001000136
B1441374226533N07145868WA0175501781001000133
B1441384226519N07145849WA0175601782001000127
B1441394226509N07145829WA0175601782001000119
B1441404226502N07145808WA0175601782001000112
B1441414226499N07145787WA0175601782001000105
B1441424226499N07145766WA0175601782001000098
B1441434226503N07145748WA0175601783001000090
B1441444226509N07145733WA0175601784001000082
B1441454226517N07145722WA0175701786001000076
B1441464226527N07145715WA0175801787001000071
B1441474226537N07145713WA0176001789001000068
B1441484226547N07145716WA0176201791001000067
B1441494226555N07145724WA0176401793001000070
B1441504226561N07145736WA0176701795001000075
B1441514226567N07145750WA0176901795001000077
B1441524226572N07145764WA0177001796001000076
B1441534226577N07145777WA0176901797001000073
B1441544226584N07145787WA0176901798001000070
B1441554226592N07145796WA0176901798001000069
B1441564226601N07145803WA0176901797001000070
B1441574226611N07145809WA0176801795001000073
B1441584226622N07145815WA0176701792001000077
B1441594226633N07145820WA0176501790001000083
B1442004226645N07145826WA0176401789001000087
B1442014226658N07145832WA0176301790001000089
B1442024226670N07145838WA0176401793001000088
B1442034226683N07145844WA0176601796001000087
B1442044226695N07145849WA0176801798001000086
B1442054226707N07145854WA0177001798001000087
B1442064226720N07145858WA0177001796001000088
B1442074226733N07145862WA0177001794001000091
B1442084226746N07145867WA0176801791001000094
B1442094226760N07145871WA0176701788001000097
B1442104226775N07145876WA0176401785001000101
B1442114226790N07145881WA0176201783001000104
B1442124226805N07145885WA0176001782001000106
B1442134226821N07145890WA0175901782001000107
B1442144226837N07145894WA0175801781001000108
B1442154226852N07145899WA0175901782001000108
B1442164226868N07145904WA0175901782001000108
B1442174226884N07145909WA0175801782001000109
B1442184226900N07145915WA0175801782001000109
B1442194226916N07145920WA0175801778001000111
B1442204226932N07145926WA0175601774001000114
B1442214226949N07145931WA0175201769001000117
B1442224226966N07145938WA0174801766001000119
B1442234226983N07145944WA0174501761001000121
B1442244227001N07145950WA0174201756001000124
B1442254227020N07145956WA0173701752001000127
B1442264227038N07145962WA0173401750001000129
B1442274227057N07145968WA0173301753001000129
B1442274227057N07145968WA0173501753001000129
B1442284227076N07145973WA0173501760001000126
B1442294227094N07145978WA0173901770001000119
B1442304227111N07145981WA0174701783001000112
B1442314227127N07145984WA0175501793001000108
B1442324227143N07145986WA0176501800001000104
B1442334227158N07145988WA0177101804001000102
B1442344227173N07145989WA0177801808001000100
B1442354227188N07145990WA0178201812001000097
B1442364227202N07145990WA0178901819001000094
B1442374227216N07145990WA0179301826001000090
B1442384227229N07145989WA0180001831001000087
B1442394227242N07145989WA0180401835001000085
B1442404227255N07145988WA0180701836001000084
B1442414227267N07145988WA0180801834001000086
B1442424227281N07145988WA0180801832001000090
B1442434227294N07145989WA0180801830001000093
B1442444227309N07145990WA0180601829001000094
B1442454227323N07145991WA0180501829001000095
F1442460107081314172130
B1442464227337N07145991WA0180501830001000095
B1442474227351N07145991WA0180501832001000094
B1442484227365N07145991WA0180701834001000093
B1442494227379N07145991WA0180901837001000092
B1442504227393N07145991WA0181101840001000091
B1442514227407N07145991WA0181301843001000091
B1442524227420N07145990WA0181601846001000090
B1442534227434N07145990WA0181901849001000088
B1442544227447N07145990WA0182401853001000086
B1442554227459N07145991WA0182701858001000083
B1442564227471N07145995WA0183001863001000082
B1442574227482N07146002WA0183501866001000083
B1442584227492N07146013WA0183901870001000085
B1442594227500N07146027WA0184101873001000088
B1443004227506N07146044WA0184501876001000090
B1443014227510N07146061WA0184901879001000092
B1443024227513N07146079WA0185101882001000091
B1443034227516N07146097WA0185501885001000087
B1443044227520N07146113WA0185701888001000085
B1443054227526N07146128WA0185801887001000083
B1443064227534N07146141WA0185801885001000083
B1443074227544N07146151WA0185601881001000085
B1443084227556N07146159WA0185301878001000089
B1443094227569N07146164WA0185001873001000093
B1443104227583N07146168WA0184501866001000098
B1443114227598N07146170WA0184101860001000105
B1443124227614N07146170WA0183401856001000112
B1443134227632N07146169WA0183101854001000116
B1443144227649N07146166WA0182701854001000118
B1443154227667N07146162WA0182701856001000118
B1443164227684N07146158WA0182701859001000117
B1443174227701N07146154WA0182901863001000116
B1443184227718N07146149WA0183101865001000114
B1443194227735N07146146WA0183301866001000115
B1443204227752N07146143WA0183301865001000116
B1443214227770N07146140WA0183301863001000119
B1443224227788N07146137WA0183201859001000124
B1443234227807N07146135WA0183101857001000129
B1443244227827N07146134WA0182901857001000130
B1443254227846N07146133WA0182901860001000130
B1443264227865N07146132WA0183001862001000129
B1443274227885N07146131WA0183101862001000129
B1443284227904N07146131WA0183201860001000131
B1443294227924N07146133WA0183101855001000133
B1443304227944N07146137WA0182801851001000137
B1443314227964N07146144WA0182501849001000140
B1443324227985N07146152WA0182201846001000142
B1443334228005N07146160WA0181901842001000144
B1443344228026N07146170WA0181601838001000147
B1443354228046N07146182WA0181101834001000150
B1443364228067N07146194WA0180801830001000152
B1443374228088N07146208WA0180401826001000154
B1443384228108N07146223WA0180001823001000157
B1443394228129N07146239WA0179701821001000158
B1443404228150N07146254WA0179401818001000159
B1443414228171N07146270WA0179201817001000160
B1443424228192N07146285WA0179101815001000159
B1443434228213N07146301WA0178801812001000159
B1443444228234N07146316WA0178601810001000159
B1443454228255N07146331WA0178401809001000160
B1443464228276N07146346WA0178401809001000160
F1443470107081314172130133
B1443474228298N07146361WA0178301809001000160
B1443484228319N07146375WA0178201808001000160
B1443494228341N07146388WA0178101804001000161
B1443504228363N07146402WA0177901800001000164
B1443514228386N07146417WA0177601796001000166
B1443524228408N07146433WA0177201794001000168
B1443534228430N07146450WA0177101793001000169
B1443544228451N07146468WA0177101795001000167
B1443554228473N07146485WA0177301800001000163
B1443564228493N07146502WA0177501805001000160
B1443574228514N07146518WA0177701808001000158
B1443584228534N07146533WA0177901807001000157
B1443594228555N07146549WA0177801803001000157
B1443594228555N07146549WA0177501803001000157
B1444004228575N07146565WA0177501795001000159
B1444014228597N07146580WA0177201790001000162
B1444024228618N07146595WA0176801788001000163
B1444034228640N07146610WA0176501789001000162
B1444044228662N07146623WA0176401792001000158
B1444054228684N07146634WA0176801799001000152
B1444064228705N07146644WA0177401809001000146
B1444074228725N07146654WA0177901817001000141
B1444084228745N07146663WA0178401824001000138
B1444094228764N07146673WA0179201829001000136
B1444104228783N07146684WA0179701834001000136
B1444114228801N07146696WA0180301838001000134
B1444124228818N07146709WA0180701845001000131
B1444134228834N07146725WA0181601853001000128
B1444144228847N07146742WA0182101862001000124
B1444154228860N07146760WA0182801867001000123
B1444164228873N07146778WA0183101867001000122
B1444174228885N07146796WA0183301862001000123
B1444184228898N07146814WA0183101854001000128
B1444194228912N07146833WA0182401846001000134
B1444204228927N07146853WA0181901837001000140
B1444214228941N07146874WA0181001828001000145
B1444224228956N07146896WA0180201820001000149
B1444234228971N07146919WA0179601813001000153
B1444244228987N07146943WA0178801806001000156
B1444254229002N07146967WA0178201800001000158
B1444264229018N07146991WA0177501795001000160
B1444274229035N07147015WA0176801790001000160
B1444284229051N07147039WA0176501786001000161
B1444294229068N07147063WA0176001782001000161
B1444304229084N07147087WA0175701779001000161
B1444314229100N07147110WA0175201777001000159
B1444324229116N07147134WA0175001777001000157
B1444334229132N07147158WA0174801778001000155
B1444344229147N07147181WA0174801779001000152
B1444354229161N07147205WA0174801779001000150
B1444364229175N07147229WA0174701779001000149
B1444374229189N07147252WA0174701778001000148
B1444384229203N07147276WA0174601777001000147
B1444394229217N07147299WA0174401774001000148
B1444404229231N07147322WA0174201770001000149
B1444414229246N07147345WA0173901767001000150
B1444424229260N07147368WA0173601764001000152
B1444434229275N07147392WA0173401762001000153
B1444444229289N07147416WA0173101759001000153
B1444454229303N07147441WA0173001758001000153
B1444464229317N07147465WA0172801757001000153
B1444474229331N07147490WA0172701756001000152
B1444484229345N07147514WA0172501753001000152
B1444494229360N07147538WA0172301750001000152
B1444504229374N07147562WA0172001746001000154
B1444514229388N07147587WA0171701743001000156
B1444524229402N07147612WA0171601741001000155
B1444534229416N07147638WA0171401744001000154
B1444544229429N07147663WA0171501750001000152
B1444554229442N07147689WA0172001758001000148
B1444564229454N07147713WA0172301767001000142
B1444574229466N07147736WA0173201775001000138
B1444584229477N07147759WA0173701780001000135
B1444594229489N07147781WA0174201781001000134
B1445004229500N07147803WA0174301778001000134
B1445014229510N07147826WA0174201774001000136
B1445024229520N07147851WA0174001770001000140
B1445034229530N07147876WA0173601766001000143
B1445044229540N07147903WA0173401763001000146
B1445054229550N07147929WA0173101762001000147
B1445064229560N07147956WA0173001762001000147
B1445074229571N07147982WA0172901763001000144
B1445084229581N07148007WA0173001765001000142
B1445094229592N07148032WA0173001766001000143
B1445104229601N07148058WA0173101767001000145
B1445114229610N07148085WA0173301769001000145
B1445124229619N07148111WA0173401771001000144
B1445134229629N07148138WA0173501773001000142
B1445144229638N07148163WA0173701775001000141
B1445154229646N07148189WA0173901777001000139
B1445164229655N07148215WA0174001778001000138
B1445174229664N07148240WA0174201780001000137
B1445184229674N07148264WA0174201781001000137
B1445194229683N07148289WA0174301780001000137
B1445204229692N07148314WA0174401781001000137
B1445214229702N07148338WA0174601784001000136
B1445224229712N07148362WA0174801787001000133
B1445224229712N07148362WA0175101787001000133
B1445234229721N07148386WA0175101791001000130
B1445244229729N07148409WA0175301796001000126
B1445254229738N07148431WA0175801800001000121
B1445264229746N07148452WA0176101805001000117
B1445274229756N07148472WA0176601809001000114
B1445284229766N07148490WA0176901811001000112
B1445294229777N07148506WA0177101810001000111
B1445304229790N07148521WA0177101809001000111
B1445314229804N07148533WA0177101806001000111
B1445324229819N07148542WA0176901802001000112
B1445334229835N07148549WA0176701797001000114
B1445344229852N07148554WA0176201792001000117
B1445344229852N07148554WA0176201792001000117
B1445354229870N07148556WA0175701787001000120
B1445364229888N07148558WA0175301783001000123
B1445374229907N07148559WA0174801778001000126
B1445384229926N07148560WA0174201772001000129
B1445394229945N07148561WA0173801765001000132
B1445404229966N07148561WA0173101760001000137
B1445414229987N07148562WA0172701756001000140
B1445424230008N07148563WA0172301754001000141
B1445434230029N07148563WA0172101753001000141
B1445444230050N07148563WA0171901755001000140
B1445454230071N07148563WA0172001757001000138
F1445460107081314172130
B1445464230091N07148563WA0172101760001000136
B1445474230111N07148563WA0172301762001000134
B1445484230131N07148563WA0172501763001000132
B1445494230151N07148562WA0172601764001000132
B1445494230151N07148562WA0172701764001000132
B1445504230171N07148561WA0172701762001000131
B1445514230190N07148560WA0172601760001000132
B1445524230210N07148559WA0172501758001000133
B1445534230230N07148558WA0172401756001000134
B1445544230251N07148557WA0172201754001000135
B1445554230271N07148556WA0172101752001000135
B1445564230291N07148555WA0171801750001000136
B1445574230312N07148554WA0171701748001000137
B1445584230332N07148554WA0171401744001000138
B1445594230353N07148553WA0171001738001000141
B1446004230374N07148552WA0170601730001000144
B1446014230397N07148551WA0170001723001000149
B1446024230419N07148549WA0169601718001000152
B1446034230442N07148545WA0169001714001000154
B1446044230465N07148542WA0168601710001000155
B1446054230488N07148537WA0168101707001000155
B1446064230512N07148532WA0167801705001000155
B1446074230534N07148527WA0167501705001000154
B1446084230557N07148522WA0167401705001000151
B1446094230579N07148517WA0167301706001000148
B1446104230601N07148512WA0167301707001000147
B1446114230622N07148506WA0167301705001000146
B1446124230644N07148501WA0167201702001000146
B1446134230666N07148496WA0167001699001000147
B1446144230687N07148490WA0166801696001000146
B1446154230709N07148485WA0166401693001000145
B1446164230730N07148479WA0166201691001000144
B1446174230751N07148473WA0166001691001000145
B1446184230773N07148467WA0165801691001000143
B1446194230794N07148462WA0165801690001000143
B1446204230815N07148456WA0165601689001000143
B1446214230836N07148452WA0165501685001000144
B1446224230857N07148447WA0165301681001000146
B1446234230879N07148443WA0165101678001000149
B1446244230901N07148438WA0165001679001000148
B1446254230923N07148433WA0165001688001000142
B1446264230943N07148428WA0165601700001000134
B1446274230962N07148422WA0166001713001000128
B1446284230980N07148416WA0167301724001000124
B1446294230998N07148408WA0168001731001000120
B1446304231014N07148401WA0169001738001000116
B1446314231030N07148393WA0169601745001000113
B1446324231046N07148385WA0170401751001000110
B1446334231061N07148378WA0171201759001000107
B1446344231076N07148371WA0172001767001000103
B1446354231090N07148364WA0172601775001000099
B1446364231104N07148357WA0173301783001000093
B1446374231117N07148353WA0174301790001000087
B1446384231130N07148353WA0174801797001000084
B1446394231142N07148357WA0175601801001000083
B1446404231153N07148365WA0176001804001000085
B1446414231162N07148378WA0176701808001000088
B1446424231167N07148394WA0177001811001000093
B1446434231170N07148413WA0177401813001000098
B1446444231168N07148434WA0177601814001000105
B1446454231162N07148454WA0177901815001000113
B1446464231152N07148473WA0178101816001000119
F1446470107081314172130133
B1446474231138N07148489WA0178201817001000123
B1446484231121N07148501WA0178201816001000127
B1446494231102N07148509WA0178401817001000132
B1446504231083N07148512WA0178401818001000133
B1446514231063N07148510WA0178601820001000131
B1446524231044N07148504WA0178601822001000128
B1446534231026N07148496WA0178701822001000127
B1446544231009N07148484WA0178701821001000128
B1446554230993N07148469WA0178601819001000131
B1446564230979N07148451WA0178601818001000131
B1446574230968N07148430WA0178601819001000128
B1446584230959N07148407WA0178701823001000124
B1446594230953N07148384WA0178901827001000119
B1447004230950N07148361WA0179301832001000113
B1447014230949N07148339WA0179601837001000109
B1447024230948N07148317WA0180201842001000107
B1447034230949N07148296WA0180601847001000105
B1447044230951N07148275WA0181001851001000103
B1447054230953N07148255WA0181601856001000098
B1447064230957N07148236WA0182201861001000092
B1447074230963N07148221WA0182501865001000086
B1447084230972N07148209WA0182801868001000081
B1447094230982N07148202WA0183201870001000078
B1447104230994N07148202WA0183501873001000076
B1447114231004N07148208WA0183801875001000079
B1447124231012N07148220WA0184101878001000084
B1447134231016N07148237WA0184301881001000091
B1447144231016N07148257WA0184701884001000098
B1447154231011N07148276WA0184901887001000105
B1447164231002N07148294WA0185201889001000112
B1447174230989N07148310WA0185401890001000119
B1447184230972N07148321WA0185601891001000124
B1447194230954N07148327WA0185801893001000128
B1447204230935N07148327WA0186101896001000130
B1447214230916N07148320WA0186201898001000130
B1447224230899N07148308WA0186601902001000129
B1447234230886N07148290WA0186801905001000125
B1447244230877N07148268WA0187301909001000118
B1447254230874N07148246WA0187801915001000109
B1447264230876N07148225WA0188201921001000099
B1447274230880N07148207WA0188701926001000090
B1447284230888N07148193WA0189101930001000084
B1447294230897N07148183WA0189401934001000079
B1447304230908N07148179WA0190001937001000076
B1447314230919N07148180WA0190301942001000073
B1447324230929N07148185WA0190801947001000073
B1447334230938N07148195WA0191101952001000075
B1447344230943N07148209WA0191601956001000079
B1447354230946N07148225WA0191901959001000084
B1447364230945N07148243WA0192301961001000092
B1447374230940N07148261WA0192501961001000100
B1447384230931N07148279WA0192601960001000111
B1447394230918N07148295WA0192701959001000120
B1447404230902N07148308WA0192701960001000125
B1447414230884N07148316WA0192801962001000127
B1447424230865N07148319WA0192901965001000128
B1447434230846N07148316WA0193201968001000128
B1447444230829N07148307WA0193401970001000125
B1447454230812N07148295WA0193701973001000123
B1447464230799N07148279WA0193801975001000121
B1447474230788N07148260WA0194101977001000118
B1447484230781N07148239WA0194401980001000113
B1447484230781N07148239WA0194801980001000113
B1447494230778N07148217WA0194801985001000106
B1447504230778N07148196WA0195001989001000099
B1447514230782N07148178WA0195501993001000092
B1447524230789N07148163WA0195801997001000085
B1447534230798N07148152WA0196202000001000079
B1447544230809N07148148WA0196602003001000074
B1447554230820N07148149WA0196802006001000073
B1447554230820N07148149WA0197202006001000073
B1447564230829N07148156WA0197202009001000075
B1447574230837N07148167WA0197402010001000081
B1447584230842N07148183WA0197702010001000088
B1447594230842N07148202WA0197902010001000098
B1448004230839N07148222WA0198102011001000106
B1448014230831N07148242WA0198202013001000111
B1448024230820N07148260WA0198402016001000116
B1448034230806N07148275WA0198502019001000119
B1448044230790N07148286WA0198702021001000122
B1448044230790N07148286WA0198802021001000122
B1448054230772N07148292WA0198802022001000125
B1448064230754N07148293WA0199002023001000127
B1448074230735N07148289WA0199002024001000127
B1448084230717N07148280WA0199102024001000127
B1448094230701N07148266WA0199202024001000127
B1448094230701N07148266WA0199302024001000127
B1448104230688N07148248WA0199302025001000124
B1448114230679N07148227WA0199502028001000120
B1448124230674N07148204WA0199702032001000114
B1448134230673N07148182WA0200102039001000107
B1448144230675N07148162WA0200502046001000097
B1448154230679N07148144WA0201102052001000088
B1448164230686N07148130WA0201502056001000079
B1448174230694N07148120WA0202002059001000073
B1448184230704N07148114WA0202202060001000069
B1448194230714N07148113WA0202502061001000068
B1448204230724N07148117WA0202602061001000072
B1448214230733N07148126WA0202802061001000078
B1448224230739N07148140WA0202802062001000084
B1448234230742N07148158WA0203002063001000090
B1448244230742N07148176WA0203102065001000096
B1448254230737N07148196WA0203302067001000102
B1448264230730N07148214WA0203502069001000106
B1448274230720N07148232WA0203702071001000111
B1448284230707N07148247WA0203802073001000115
B1448294230692N07148260WA0204002074001000119
B1448304230675N07148269WA0204002074001000123
B1448314230657N07148274WA0204002073001000127
B1448324230637N07148273WA0204002073001000130
B1448334230618N07148269WA0204002072001000131
B1448344230600N07148258WA0204102071001000131
B1448344230600N07148258WA0204102071001000131
B1448354230585N07148243WA0204102071001000129
B1448364230573N07148223WA0204202070001000127
B1448374230567N07148199WA0204402073001000120
B1448384230568N07148176WA0204702078001000109
B1448394230575N07148157WA0205102085001000096
B1448404230584N07148145WA0205302090001000085
B1448414230595N07148139WA0205702095001000077
B1448414230595N07148139WA0206002095001000077
B1448424230606N07148139WA0206002099001000074
B1448434230616N07148146WA0206302102001000076
B1448444230624N07148157WA0206802104001000079
B1448454230631N07148169WA0207002104001000079
F1448460107081314172130
B1448464230638N07148183WA0207002104001000081
B1448474230645N07148196WA0207002101001000084
B1448484230653N07148211WA0206902098001000088
B1448494230661N07148225WA0206602094001000093
B1448504230669N07148241WA0206402090001000098
B1448514230678N07148258WA0206002086001000102
B1448524230687N07148275WA0205702082001000106
B1448534230697N07148293WA0205302078001000111
B1448544230707N07148312WA0205102075001000116
B1448554230716N07148332WA0204702070001000120
B1448564230727N07148352WA0204402065001000123
B1448574230738N07148373WA0203802059001000127
B1448574230738N07148373WA0203302059001000127
B1448584230750N07148394WA0203302051001000131
B1448594230762N07148415WA0202602042001000136
B1449004230775N07148437WA0202002035001000140
B1449014230789N07148459WA0201202028001000143
B1449024230802N07148482WA0200602020001000146
B1449034230817N07148505WA0199802012001000149
B1449044230832N07148528WA0198902004001000151
B1449054230847N07148550WA0198501998001000153
B1449064230863N07148573WA0197901993001000155
B1449074230880N07148596WA0197201990001000156
B1449084230897N07148618WA0196601987001000157
B1449094230914N07148639WA0196301981001000158
B1449094230914N07148639WA0195801981001002158
B1449104230932N07148661WA0195801975001002160
B1449114230950N07148682WA0195501971001001162
B1449124230969N07148704WA0194901967001005164
B1449134230987N07148726WA0194501963001001166
B1449144231006N07148748WA0194101960001000167
B1449154231024N07148772WA0193901958001000167
B1449164231042N07148796WA0193601956001000168
B1449174231060N07148820WA0193401953001000168
B1449184231077N07148844WA0193101952001000167
B1449194231095N07148868WA0193001952001000166
B1449204231112N07148892WA0193001955001000163
B1449214231129N07148915WA0193001958001000161
B1449224231146N07148939WA0193201960001000159
B1449234231162N07148962WA0193301961001000157
B1449244231178N07148985WA0193401961001000156
B1449254231194N07149008WA0193401960001000155
B1449264231210N07149031WA0193501959001000155
B1449274231226N07149054WA0193401958001000154
B1449284231241N07149077WA0193301957001000153
B1449294231256N07149100WA0193201956001000153
B1449304231271N07149124WA0193101955001000153
B1449314231285N07149148WA0193001954001000153
B1449324231300N07149172WA0192801952001000152
B1449334231314N07149196WA0192701952001000152
B1449344231329N07149220WA0192601952001000152
B1449354231343N07149243WA0192401950001000152
B1449364231358N07149267WA0192201947001000152
B1449374231372N07149291WA0192001944001000153
B1449384231387N07149315WA0191701940001000154
B1449394231403N07149338WA0191601936001000155
B1449404231419N07149360WA0191301935001000154
B1449414231437N07149380WA0191201937001000152
B1449424231455N07149399WA0191201939001000150
B1449434231473N07149416WA0191301940001000148
B1449444231491N07149433WA0191401941001000148
B1449454231510N07149449WA0191301940001000149
B1449464231528N07149466WA0191201936001000150
F1449470107081314172130133
B1449474231547N07149484WA0190901932001000153
B1449484231565N07149502WA0190601927001000155
B1449494231584N07149522WA0190301923001000156
B1449504231602N07149542WA0189801918001000158
B1449514231621N07149562WA0189401914001000160
B1449524231639N07149583WA0189001910001000161
B1449534231658N07149604WA0188701907001000162
B1449544231676N07149625WA0188401905001000162
B1449554231694N07149647WA0188001901001000162
B1449564231713N07149669WA0187801897001000162
B1449574231730N07149691WA0187401894001000162
B1449584231748N07149714WA0187201893001000162
B1449594231766N07149736WA0187001894001000161
B1450004231783N07149759WA0186901896001000159
B1450014231800N07149781WA0187001896001000158
B1450024231817N07149803WA0186901895001000157
B1450034231833N07149826WA0186801892001000158
B1450044231850N07149849WA0186701890001000159
B1450054231866N07149873WA0186601890001000158
B1450064231882N07149896WA0186601892001000157
B1450074231898N07149920WA0186601894001000156
B1450084231914N07149943WA0186801895001000155
B1450094231930N07149966WA0186901897001000154
B1450104231945N07149989WA0187001898001000154
B1450114231960N07150012WA0187101899001000154
B1450124231976N07150036WA0187201900001000153
B1450134231990N07150060WA0187201898001000153
B1450144232005N07150083WA0187101895001000154
B1450154232020N07150108WA0186901891001000155
B1450164232034N07150132WA0186601887001000156
B1450174232049N07150157WA0186301882001000157
B1450184232064N07150181WA0185701877001000158
B1450194232080N07150206WA0185301873001000159
B1450204232096N07150230WA0184901870001000160
B1450214232112N07150255WA0184601868001000160
B1450224232128N07150278WA0184501868001000160
B1450234232145N07150302WA0184401869001000159
B1450244232161N07150325WA0184501872001000157
B1450254232178N07150347WA0184701877001000154
B1450264232194N07150368WA0185001881001000151
B1450274232210N07150390WA0185201885001000150
B1450284232226N07150411WA0185501885001000149
B1450294232242N07150432WA0185701883001000150
B1450304232259N07150453WA0185601878001000151
B1450314232276N07150473WA0185401871001000153
B1450324232294N07150492WA0184901865001000155
B1450334232314N07150509WA0184101858001000157
B1450344232334N07150525WA0183501851001000160
B1450354232356N07150540WA0182701843001000163
B1450364232379N07150552WA0182201838001000165
B1450374232403N07150563WA0181601835001000166
B1450384232427N07150572WA0181401834001000166
B1450394232451N07150579WA0181101834001000165
B1450404232475N07150585WA0181001833001000164
B1450414232499N07150590WA0180901832001000164
B1450424232524N07150595WA0180801832001000163
B1450434232548N07150599WA0180801832001000162
B1450444232572N07150603WA0180701831001000160
B1450454232596N07150608WA0180701832001000159
B1450464232619N07150612WA0180801832001000158
B1450474232643N07150617WA0180801832001000159
B1450484232666N07150622WA0180801832001000159
B1450494232690N07150628WA0180901834001000159
B1450504232713N07150635WA0181001836001000158
B1450514232735N07150644WA0181201838001000156
B1450524232758N07150654WA0181401840001000155
B1450534232779N07150664WA0181601842001000154
B1450544232801N07150676WA0181701844001000152
B1450554232822N07150687WA0181901844001000152
B1450564232843N07150701WA0181901843001000152
B1450574232863N07150716WA0181901842001000154
B1450584232882N07150734WA0181801842001000156
B1450594232900N07150754WA0181701842001000158
B1451004232917N07150776WA0181701842001000159
B1451014232934N07150800WA0181601840001000161
B1451024232950N07150825WA0181501838001000163
B1451034232965N07150851WA0181201836001000164
B1451044232979N07150878WA0181101835001000166
B1451054232994N07150906WA0180801834001000167
F1451060107081314172130
B1451064233008N07150934WA0180601832001000167
B1451074233021N07150962WA0180401830001000167
B1451084233035N07150991WA0180401828001000168
B1451094233048N07151020WA0180201828001000168
B1451104233061N07151049WA0180101827001000167
B1451114233074N07151078WA0180001828001000165
B1451124233086N07151107WA0180001828001000164
B1451134233098N07151136WA0180001828001000162
B1451144233109N07151165WA0179901828001000162
B1451154233120N07151194WA0180001828001000161
B1451164233131N07151223WA0179801826001000161
B1451174233142N07151252WA0179701823001000161
B1451184233153N07151281WA0179501820001000161
B1451194233164N07151310WA0179301819001000161
B1451204233175N07151339WA0179201817001000160
B1451214233187N07151367WA0179001816001000158
B1451224233199N07151395WA0178901815001000157
B1451234233210N07151422WA0178801814001000155
B1451244233222N07151449WA0178701812001000154
B1451254233234N07151476WA0178501811001000154
B1451264233246N07151503WA0178301809001000154
B1451274233257N07151530WA0178201807001000155
B1451284233269N07151557WA0178001806001000155
B1451294233281N07151584WA0177901805001000155
B1451304233293N07151611WA0177801804001000155
B1451314233304N07151639WA0177601802001000155
B1451324233315N07151666WA0177601801001000156
B1451334233326N07151694WA0177601801001000155
B1451344233337N07151722WA0177501802001000154
B1451354233347N07151750WA0177501803001000153
B1451364233358N07151777WA0177501802001000153
B1451374233368N07151805WA0177401800001000153
B1451384233378N07151833WA0177301798001000153
B1451394233388N07151861WA0177201796001000155
B1451404233398N07151890WA0177001794001000156
B1451414233407N07151919WA0176801792001000158
B1451424233417N07151948WA0176701790001000158
B1451434233426N07151978WA0176501788001000158
B1451444233436N07152006WA0176301787001000157
B1451454233447N07152035WA0176201785001000157
B1451464233457N07152064WA0175901784001000158
B1451474233468N07152092WA0175801782001000158
B1451484233479N07152121WA0175701781001000158
B1451494233489N07152149WA0175601782001000157
B1451504233500N07152178WA0175501782001000157
B1451514233511N07152206WA0175501781001000157
B1451524233522N07152234WA0175401779001000158
B1451524233522N07152234WA0175201779001000158
B1451534233532N07152263WA0175201776001000160
B1451544233543N07152293WA0175101772001000163
B1451554233553N07152323WA0174901771001000166
B1451564233563N07152354WA0174901773001000165
B1451574233572N07152385WA0174901777001000161
B1451584233582N07152414WA0175001781001000157
B1451594233592N07152443WA0175201786001000154
B1452004233603N07152470WA0175801792001000148
B1452014233613N07152495WA0176201801001000141
B1452014233613N07152495WA0177001801001000141
B1452024233624N07152520WA0177001810001000135
B1452034233634N07152543WA0177501818001000129
B1452044233644N07152564WA0178101824001000125
B1452054233654N07152585WA0178901828001000122
B1452064233665N07152604WA0179201829001000120
F1452070107081314172130133
B1452074233678N07152620WA0179501830001000119
B1452084233693N07152635WA0179701831001000118
B1452084233693N07152635WA0180001831001000118
B1452094233708N07152647WA0180001832001000116
B1452104233723N07152657WA0180101834001000115
B1452114233739N07152666WA0180201835001000114
B1452124233755N07152674WA0180301835001000114
B1452134233771N07152683WA0180301834001000114
B1452144233787N07152691WA0180301833001000114
B1452154233803N07152698WA0180201829001000115
B1452164233820N07152706WA0179801822001000118
B1452174233837N07152713WA0179401813001000121
B1452184233855N07152719WA0178501803001000127
B1452194233874N07152725WA0178001793001000134
B1452204233894N07152730WA0177001785001000140
B1452214233916N07152734WA0176301778001000146
B1452224233938N07152739WA0175901776001000149
B1452234233960N07152743WA0175301777001000148
B1452244233982N07152748WA0175301781001000145
B1452254234003N07152752WA0175301787001000141
B1452264234024N07152755WA0175801794001000135
B1452274234043N07152756WA0176301803001000128
B1452284234062N07152756WA0177201814001000121
B1452294234079N07152755WA0177901824001000116
B1452304234096N07152755WA0178901831001000111
B1452314234113N07152754WA0179501836001000109
B1452324234129N07152754WA0180301839001000108
B1452334234145N07152755WA0180601838001000108
B1452344234161N07152757WA0181001837001000110
B1452354234177N07152761WA0181201841001000108
B1452364234193N07152765WA0181401848001000103
B1452374234208N07152770WA0182001856001000098
B1452384234221N07152775WA0182501861001000095
B1452394234234N07152783WA0183101865001000093
B1452404234246N07152793WA0183401866001000094
B1452414234257N07152804WA0183801868001000093
B1452424234268N07152816WA0184101870001000091
B1452434234278N07152827WA0184301871001000088
B1452444234289N07152837WA0184401870001000087
B1452454234301N07152844WA0184201866001000088
B1452464234314N07152850WA0183901860001000092
B1452474234328N07152853WA0183501852001000098
B1452484234343N07152854WA0182801844001000105
B1452494234360N07152855WA0182301838001000110
B1452504234377N07152855WA0181501832001000114
B1452514234394N07152855WA0181001825001000118
B1452524234412N07152854WA0180101815001000123
B1452534234431N07152853WA0179501806001000128
B1452544234451N07152852WA0178801797001000132
B1452554234471N07152851WA0177901791001000136
B1452564234492N07152849WA0177401787001000138
B1452574234512N07152846WA0177001785001000139
B1452584234533N07152844WA0176501784001000139
B1452594234554N07152842WA0176301781001000139
B1453004234575N07152840WA0175801775001000140
B1453014234596N07152840WA0175501768001000141
B1453024234617N07152840WA0174801760001000144
B1453034234639N07152842WA0174301754001000146
B1453044234661N07152845WA0173601749001000147
B1453054234683N07152848WA0173201746001000148
B1453064234706N07152851WA0172701743001000149
B1453074234728N07152854WA0172401742001000150
B1453084234750N07152856WA0172201741001000149
B1453094234773N07152856WA0171901740001000148
B1453104234795N07152856WA0171901740001000147
B1453114234817N07152855WA0171801740001000147
B1453124234839N07152853WA0171701738001000147
B1453134234861N07152851WA0171501734001000148
B1453144234883N07152850WA0171301730001000149
B1453154234906N07152848WA0170901726001000151
F1453160107081314172130
B1453164234928N07152847WA0170601722001000153
B1453174234951N07152846WA0170401721001000152
B1453184234974N07152845WA0170201721001000151
B1453194234997N07152845WA0170001720001000149
B1453204235019N07152845WA0169901719001000148
B1453214235041N07152846WA0169801719001000147
B1453224235063N07152848WA0169701717001000148
B1453234235085N07152849WA0169701716001000149
B1453244235108N07152850WA0169601716001000149
B1453254235130N07152850WA0169401714001000150
B1453264235153N07152849WA0169301713001000150
B1453274235175N07152847WA0169201715001000151
B1453284235198N07152844WA0169301717001000151
B1453294235220N07152841WA0169401720001000150
B1453304235242N07152837WA0169601721001000148
B1453314235264N07152833WA0169701722001000147
B1453324235286N07152827WA0170001724001000146
B1453334235307N07152820WA0170201727001000145
B1453344235328N07152813WA0170501730001000143
B1453354235348N07152805WA0170601732001000142
B1453364235369N07152797WA0170701731001000141
B1453374235389N07152789WA0170601728001000142
B1453384235410N07152781WA0170401723001000145
B1453394235431N07152773WA0170301718001000148
B1453404235453N07152765WA0169801715001000149
B1453414235474N07152758WA0169501712001000149
B1453424235496N07152753WA0169201710001000148
B1453434235518N07152748WA0169201711001000148
B1453444235540N07152744WA0169301715001000146
B1453454235561N07152740WA0169501722001000140
B1453464235581N07152733WA0169901731001000134
B1453474235600N07152726WA0170401738001000130
B1453484235618N07152718WA0171001746001000125
B1453494235635N07152709WA0171901754001000120
B1453504235652N07152700WA0172401760001000117
B1453514235668N07152692WA0173001763001000115
B1453524235684N07152683WA0173201763001000114
B1453534235700N07152674WA0173401760001000114
B1453544235716N07152667WA0173201755001000116
B1453554235733N07152660WA0173001750001000118
B1453564235750N07152654WA0172601744001000122
B1453574235768N07152648WA0172201740001000125
B1453584235787N07152641WA0171701738001000127
B1453594235805N07152634WA0171401735001000128
B1454004235824N07152627WA0171301735001000129
B1454014235842N07152619WA0171401739001000129
B1454024235860N07152609WA0171701749001000124
B1454034235876N07152598WA0172301759001000120
B1454044235891N07152586WA0172901768001000117
B1454054235906N07152573WA0173801775001000114
B1454064235920N07152560WA0174201779001000113
B1454074235933N07152546WA0175001784001000113
B1454084235946N07152532WA0175401787001000112
B1454094235959N07152517WA0175701790001000110
B1454104235971N07152503WA0176301793001000107
B1454114235984N07152491WA0176601797001000102
B1454124235997N07152482WA0176901801001000096
B1454134236011N07152476WA0177401805001000089
B1454144236023N07152472WA0177701809001000083
B1454154236035N07152471WA0178101813001000078
B1454164236046N07152470WA0178401817001000074
F1454170107081314172130133
B1454174236057N07152470WA0178801820001000071
B1454184236068N07152471WA0179001821001000068
B1454194236078N07152473WA0179101821001000068
B1454194236078N07152473WA0179101821001000068
B1454204236088N07152476WA0179101819001000069
B1454214236098N07152480WA0179001816001000072
B1454214236098N07152480WA0178801816001000072
B1454224236107N07152488WA0178801811001000077
B1454234236116N07152499WA0178601806001000085
B1454244236125N07152513WA0178001800001000091
B1454254236133N07152529WA0177601794001000097
B1454264236140N07152546WA0177201789001000102
B1454274236146N07152565WA0176501784001000107
B1454284236152N07152586WA0176101777001000112
B1454294236157N07152608WA0175401771001000118
B1454304236161N07152632WA0175001767001000123
B1454314236165N07152657WA0174601762001000126
B1454324236168N07152683WA0174101757001000130
B1454334236171N07152709WA0173501751001000134
B1454344236174N07152737WA0173001744001000137
B1454354236178N07152764WA0172501738001000140
B1454364236183N07152792WA0171901733001000143
B1454374236188N07152821WA0171501729001000144
B1454384236193N07152849WA0171101726001000145
B1454394236198N07152878WA0170501724001000145
B1454404236204N07152906WA0170201722001000144
B1454414236209N07152934WA0170001721001000143
B1454424236214N07152962WA0169801721001000142
B1454434236219N07152990WA0169701721001000140
B1454444236224N07153018WA0169601719001000140
B1454454236228N07153045WA0169501718001000139
B1454464236233N07153073WA0169401715001000140
B1454474236237N07153101WA0169101710001000143
B1454484236241N07153130WA0168801706001000145
B1454494236245N07153159WA0168501701001000147
B1454504236249N07153188WA0167901697001000147
B1454514236255N07153218WA0167501693001000148
B1454524236260N07153247WA0167201690001000149
B1454534236265N07153276WA0166801688001000150
B1454544236270N07153306WA0166601687001000149
B1454554236275N07153335WA0166401687001000148
B1454564236280N07153364WA0166301686001000146
B1454574236286N07153393WA0166201686001000145
B1454584236292N07153421WA0166101683001000145
B1454594236299N07153449WA0165901679001000146
B1455004236306N07153477WA0165601675001000148
B1455014236313N07153506WA0165401671001000151
B1455024236320N07153536WA0164901668001000153
B1455034236326N07153566WA0164701667001000154
B1455044236333N07153595WA0164601666001000153
B1455054236341N07153624WA0164401667001000152
B1455064236349N07153653WA0164401668001000151
B1455074236357N07153682WA0164601671001000149
B1455084236365N07153710WA0164701675001000146
B1455094236373N07153737WA0165101679001000142
B1455104236381N07153763WA0165301683001000139
B1455114236388N07153789WA0165601684001000138
B1455124236396N07153815WA0165601682001000139
B1455134236404N07153842WA0165501678001000141
B1455144236412N07153869WA0165401673001000144
B1455154236420N07153897WA0165201670001000149
B1455154236420N07153897WA0165101670001000149
B1455164236427N07153925WA0165101672001000145
B1455174236435N07153952WA0165201679001000138
B1455184236443N07153977WA0165501685001000134
B1455194236451N07154001WA0165801689001000131
B1455204236459N07154025WA0166101689001000130
B1455214236467N07154049WA0166201686001000129
B1455224236476N07154072WA0166101680001000130
B1455234236485N07154096WA0165501672001000132
B1455244236496N07154119WA0165101666001000134
B1455254236507N07154142WA0164601659001000136
B1455264236519N07154165WA0164101652001000137
B1455274236532N07154187WA0163301646001000138
B1455284236546N07154207WA0162801640001000138
B1455294236560N07154227WA0162101637001000138
B1455304236576N07154246WA0161701633001000137
B1455314236591N07154264WA0161301630001000135
B1455324236608N07154280WA0160801627001000135
B1455334236624N07154296WA0160601625001000134
B1455344236640N07154311WA0160201622001000132
B1455354236657N07154326WA0160001619001000131
B1455364236673N07154341WA0159601616001000130
B1455374236689N07154356WA0159301614001000131
B1455384236705N07154371WA0159101611001000131
B1455394236722N07154387WA0158901608001000132
B1455404236738N07154402WA0158601606001000133
B1455414236755N07154416WA0158501605001000133
B1455424236773N07154428WA0158401604001000132
B1455434236791N07154439WA0158201603001000131
B1455444236809N07154447WA0158001601001000130
B1455454236828N07154453WA0157801600001000129
B1455464236847N07154456WA0157701599001000127
B1455474236866N07154458WA0157601598001000126
B1455484236885N07154460WA0157401596001000124
B1455494236903N07154460WA0157301595001000123
B1455504236921N07154460WA0157201595001000121
B1455514236939N07154460WA0157101596001000119
B1455524236957N07154460WA0157101596001000117
B1455534236974N07154460WA0157101597001000116
B1455544236992N07154459WA0157201597001000116
B1455554237009N07154458WA0157201596001000116
F1455560107081314172130
B1455564237027N07154457WA0157101594001000117
B1455574237044N07154456WA0157101592001000117
B1455584237062N07154454WA0157101593001000117
B1455594237079N07154451WA0157201598001000114
B1456004237095N07154446WA0157401606001000110
B1456014237111N07154439WA0157801613001000106
B1456024237125N07154432WA0158601619001000101
B1456034237139N07154424WA0159101626001000098
B1456044237152N07154416WA0159601632001000094
B1456054237165N07154409WA0160401637001000090
B1456064237177N07154402WA0160901642001000087
B1456074237189N07154396WA0161401646001000084
B1456084237200N07154391WA0162001649001000081
B1456094237212N07154385WA0162301652001000078
B1456104237222N07154379WA0162601656001000077
B1456114237233N07154372WA0163001658001000076
B1456124237242N07154364WA0163101657001000077
B1456134237252N07154356WA0163001652001000079
B1456144237263N07154348WA0162801645001000083
B1456154237275N07154342WA0162301636001000088
B1456164237289N07154337WA0161701627001000095
B1456174237303N07154334WA0160901620001000102
B1456184237319N07154333WA0160401619001000105
B1456194237335N07154333WA0160201624001000101
B1456204237349N07154332WA0160201631001000095
B1456214237363N07154332WA0160601638001000090
B1456224237376N07154332WA0161001642001000086
B1456234237389N07154332WA0161401644001000084
B1456244237402N07154334WA0161501644001000084
B1456254237414N07154338WA0161601642001000084
B1456264237426N07154343WA0161401637001000088
B1456274237439N07154351WA0161201631001000095
B1456284237451N07154361WA0160701626001000100
B1456294237464N07154373WA0160301620001000106
B1456304237478N07154385WA0159801616001000110
B1456314237492N07154398WA0159301614001000112
B1456324237506N07154410WA0159201615001000112
B1456334237521N07154421WA0159101616001000111
B1456344237535N07154431WA0159101617001000109
B1456354237550N07154441WA0159101617001000109
B1456364237565N07154451WA0158901614001000110
B1456374237579N07154462WA0158801608001000113
B1456384237595N07154473WA0158301601001000118
B1456394237610N07154487WA0157901594001000125
B1456404237625N07154502WA0157501589001000130
B1456414237641N07154520WA0157001587001000132
B1456424237655N07154538WA0156801591001000130
B1456434237669N07154556WA0156701595001000127
B1456444237682N07154574WA0156801597001000124
B1456454237695N07154591WA0157101599001000122
B1456454237695N07154591WA0157201599001000122
B1456464237709N07154609WA0157201600001000122
B1456474237721N07154626WA0157201599001000122
B1456484237734N07154644WA0157101596001000124
B1456494237747N07154662WA0157001593001000126
B1456504237761N07154681WA0156701590001000128
B1456514237774N07154699WA0156501586001000130
B1456524237789N07154718WA0156301585001000130
B1456534237803N07154736WA0156101585001000130
B1456544237817N07154753WA0156001586001000128
B1456544237817N07154753WA0156001586001000128
B1456554237832N07154770WA0156001586001000127
B1456564237846N07154787WA0156001585001000126
B1456564237846N07154787WA0155901585001000126
F145657010708131417192130133
B1456574237861N07154803WA0155901583001000126
B1456584237875N07154820WA0155701580001000126
B1456594237890N07154836WA0155601577001000127
B1457004237905N07154852WA0155301575001000127
B1457014237920N07154868WA0155101574001000127
B1457024237936N07154882WA0154801573001000126
B1457024237936N07154882WA0154801573001000126
B1457034237952N07154896WA0154601571001000125
B1457044237968N07154909WA0154501568001000125
B1457044237968N07154909WA0154501568001000125
B1457054237984N07154922WA0154301565001000125
B1457064238000N07154935WA0154001562001000125
B1457074238016N07154948WA0153701558001000126
B1457074238016N07154948WA0153301558001000126
B1457084238033N07154960WA0153201556001000126
B1457094238049N07154973WA0153101553001000127
B1457104238065N07154986WA0152801551001000127
B1457104238065N07154986WA0152801551001000127
B1457114238082N07155000WA0152601549001000127
B1457124238098N07155013WA0152401547001000127
B1457134238115N07155025WA0152001544001000128
B1457134238115N07155025WA0151901544001000128
B1457144238132N07155037WA0151801542001000129
B1457154238149N07155049WA0151701541001000129
B1457164238167N07155061WA0151601540001000129
B1457174238184N07155071WA0151501539001000127
B1457184238201N07155082WA0151401538001000126
B1457194238219N07155091WA0151201536001000125
B1457204238236N07155100WA0151101533001000126
B1457214238254N07155109WA0150801530001000126
B1457224238272N07155117WA0150401526001000127
B1457234238290N07155125WA0150301522001000127
B1457234238290N07155125WA0150101522001000127
B1457244238308N07155134WA0150101522001000125
B1457244238308N07155134WA0149901522001000125
B1457254238325N07155143WA0149901525001000121
B1457264238342N07155150WA0150001528001000118
B1457264238342N07155150WA0150101528001000118
B1457274238359N07155158WA0150101530001000115
B1457284238375N07155165WA0150201529001000115
B1457294238391N07155172WA0150201526001000115
B1457304238408N07155180WA0150001522001000117
B1457304238408N07155180WA0149801522001000117
B1457314238424N07155189WA0149701518001000120
B1457324238441N07155199WA0149501515001000123
B1457334238458N07155210WA0149301514001000124
B1457344238474N07155222WA0149201516001000123
B1457354238490N07155233WA0149201520001000119
B1457354238490N07155233WA0149401520001000119
B1457364238506N07155244WA0149401525001000115
B1457374238522N07155253WA0149601529001000112
B1457384238537N07155261WA0149901531001000111
B1457394238553N07155269WA0150201531001000110
B1457404238568N07155276WA0150301531001000110
B1457414238584N07155282WA0150301529001000112
B1457424238600N07155289WA0150201526001000114
B1457424238600N07155289WA0150101526001000114
B1457434238617N07155295WA0150101524001000118
B1457444238634N07155302WA0149901523001000119
B1457454238651N07155310WA0149801522001000119
B1457464238668N07155319WA0149701523001000119
B1457474238685N07155328WA0149701523001000119
B1457484238701N07155336WA0149701524001000119
B1457494238718N07155343WA0149801526001000118
B1457494238718N07155343WA0149801526001000118
B1457504238736N07155348WA0149901528001000116
B1457514238753N07155351WA0150301532001000114
B1457524238769N07155353WA0150701539001000108
B1457534238785N07155354WA0151201546001000102
B1457544238800N07155353WA0151501551001000099
B1457554238814N07155351WA0152001553001000097
B1457554238814N07155351WA0152101553001000097
B1457564238828N07155347WA0152301554001000097
B1457574238842N07155340WA0152601555001000098
B1457574238842N07155340WA0152801555001000098
B1457584238855N07155330WA0152901558001000100
B1457594238868N07155320WA0153001560001000100
B1457594238868N07155320WA0153401560001000100
B1458004238880N07155308WA0153401564001000100
B1458014238890N07155292WA0153601567001000103
B1458024238897N07155273WA0154001570001000106
B1458034238900N07155252WA0154301574001000109
B1458044238900N07155229WA0154701578001000113
B1458044238900N07155229WA0154901578001000113
B1458054238897N07155207WA0154901582001000115
B1458064238889N07155185WA0155301585001000119
B1458064238889N07155185WA0155501585001000119
B1458074238879N07155165WA0155501587001000123
B1458084238865N07155148WA0155801588001000125
B1458084238865N07155148WA0156001588001000125
B1458094238849N07155134WA0156001589001000128
B1458104238831N07155124WA0156101589001000130
B1458114238812N07155119WA0156201590001000132
B1458124238792N07155119WA0156301591001000133
B1458134238773N07155124WA0156401593001000132
B1458144238755N07155133WA0156601597001000128
B1458144238755N07155133WA0156801597001000128
B1458154238739N07155146WA0156801601001000123
B1458154238739N07155146WA0157101601001000123
B1458164238726N07155162WA0157201605001000116
B1458174238716N07155181WA0157401609001000109
B1458184238709N07155200WA0157701612001000103
B1458184238709N07155200WA0157801612001000103
B1458194238705N07155220WA0157901614001000098
B1458194238705N07155220WA0158201614001000098
B1458204238705N07155239WA0158301615001000093
B1458214238706N07155257WA0158401616001000090
B1458214238706N07155257WA0158701616001000090
B1458224238710N07155274WA0158701617001000086
B1458224238710N07155274WA0158801617001000086
B1458234238716N07155289WA0158901619001000083
B1458244238724N07155302WA0159101620001000080
B1458254238733N07155311WA0159201622001000077
B1458254238733N07155311WA0159401622001000077
B1458264238743N07155317WA0159501624001000076
B1458274238755N07155320WA0159501626001000075
B1458274238755N07155320WA0159701626001000075
B1458284238766N07155318WA0159701628001000076
B1458294238777N07155312WA0159901630001000078
B1458294238777N07155312WA0160101630001000078
B1458304238786N07155303WA0160101632001000082
B1458314238794N07155290WA0160301635001000086
B1458324238801N07155275WA0160601638001000088
B1458324238801N07155275WA0160801638001000088
B1458334238807N07155258WA0160801640001000091
B1458344238810N07155240WA0161101643001000095
B1458354238810N07155220WA0161301645001000101
F145836010708131417192130
B1458364238807N07155199WA0161601647001000107
B1458364238807N07155199WA0161801647001000107
B1458374238801N07155179WA0161801650001000113
B1458384238791N07155160WA0162101652001000115
B1458384238791N07155160WA0162301652001000115
B1458394238778N07155143WA0162301655001000116
B1458404238764N07155130WA0162501657001000117
B1458404238764N07155130WA0162701657001000117
B1458414238748N07155120WA0162701659001000117
B1458424238731N07155115WA0162901661001000117
B1458434238714N07155114WA0163001662001000117
B1458434238714N07155114WA0163101662001000117
B1458444238696N07155116WA0163201662001000117
B1458454238680N07155123WA0163201662001000118
B1458454238680N07155123WA0163201662001000118
B1458464238664N07155133WA0163201662001000119
B1458474238649N07155147WA0163301663001000117
B1458474238649N07155147WA0163401663001000117
B1458484238637N07155164WA0163401666001000113
B1458494238629N07155182WA0163601668001000107
B1458504238623N07155202WA0163801671001000100
B1458504238623N07155202WA0164001671001000100
B1458514238621N07155221WA0164101673001000093
B1458524238622N07155239WA0164201676001000086
B1458524238622N07155239WA0164501676001000086
B1458534238625N07155255WA0164501678001000081
B1458534238625N07155255WA0164701678001000081
B1458544238631N07155269WA0164801680001000076
B1458554238638N07155279WA0165001682001000072
B1458564238647N07155287WA0165101685001000069
B1458574238657N07155291WA0165401686001000067
B1458584238667N07155292WA0165601688001000068
B1458594238677N07155290WA0165701689001000070
B1458594238677N07155290WA0165801689001000070
B1459004238687N07155285WA0165901691001000073
B1459014238696N07155276WA0166001693001000078
B1459014238696N07155276WA0166201693001000078
B1459024238704N07155264WA0166401695001000083
B1459034238710N07155249WA0166501697001000088
B1459044238714N07155231WA0166701699001000093
B1459054238714N07155211WA0166901701001000099
B1459064238710N07155191WA0167101704001000105
B1459074238704N07155171WA0167401706001000109
B1459084238694N07155152WA0167501708001000113
B1459094238681N07155136WA0167801710001000117
B1459104238666N07155124WA0168001711001000119
B1459114238649N07155115WA0168101712001000121
B1459124238631N07155111WA0168201713001000122
B1459134238613N07155111WA0168301714001000122
B1459144238595N07155116WA0168401714001000120
B1459144238595N07155116WA0168401714001000120
B1459154238579N07155124WA0168401714001000119
B1459164238564N07155137WA0168501715001000117
B1459174238550N07155152WA0168501715001000114
B1459184238539N07155169WA0168501716001000111
B1459194238531N07155188WA0168601717001000107
B1459204238526N07155208WA0168701718001000102
B1459214238523N07155228WA0168801720001000095
B1459224238524N07155246WA0169001723001000089
B1459234238527N07155263WA0169201726001000082
B1459244238532N07155277WA0169401728001000077
B1459254238538N07155290WA0169701731001000072
B1459264238545N07155300WA0169901733001000069
B1459274238554N07155308WA0170101735001000068
B1459284238563N07155313WA0170401736001000067
B1459294238573N07155316WA0170501737001000067
B1459294238573N07155316WA0170601737001000067
B1459304238583N07155317WA0170701739001000068
B1459314238593N07155315WA0170901741001000067
B1459324238602N07155310WA0171001744001000068
B1459334238611N07155304WA0171301747001000068
B1459334238611N07155304WA0171301747001000068
B1459344238619N07155295WA0171401749001000070
B1459354238626N07155284WA0171801750001000074
B1459364238631N07155270WA0171901751001000080
B1459374238634N07155253WA0172101750001000086
B1459384238634N07155235WA0172101749001000094
B1459394238632N07155215WA0172101749001000102
B1459404238627N07155194WA0172201750001000109
B1459414238619N07155174WA0172201752001000114
B1459424238608N07155156WA0172401755001000116
B1459434238595N07155140WA0172601758001000117
B1459444238580N07155129WA0172901762001000119
B1459454238562N07155122WA0173101766001000120
B1459464238545N07155119WA0173301768001000119
B1459464238545N07155119WA0173601768001000119
B1459474238527N07155120WA0173701770001000118
B1459484238510N07155124WA0173901772001000116
B1459494238493N07155131WA0174001774001000114
B1459504238478N07155141WA0174201775001000112
B1459514238464N07155154WA0174301777001000111
B1459524238451N07155168WA0174401777001000109
B1459534238441N07155185WA0174601778001000108
B1459544238432N07155202WA0174601777001000105
B1459554238425N07155221WA0174701777001000101
B1459564238421N07155240WA0174701778001000096
B1459574238420N07155259WA0174801778001000090
B1459584238422N07155276WA0174901779001000086
B1459594238426N07155292WA0175001779001000082
B1500004238433N07155306WA0175001780001000079
B1500014238440N07155318WA0175101782001000076
B1500024238449N07155327WA0175201783001000074
B1500034238459N07155335WA0175401785001000070
B1500044238468N07155340WA0175501787001000068
B1500054238478N07155344WA0175601787001000068
B1500064238487N07155348WA0175701785001000069
B1500074238498N07155352WA0175501781001000074
B1500084238509N07155357WA0175201774001000079
B1500094238521N07155361WA0174801765001000086
B1500104238534N07155366WA0174101757001000095
B1500114238548N07155372WA0173501749001000101
B1500124238563N07155377WA0172601741001000108
B1500134238580N07155381WA0172101736001000113
B1500144238597N07155385WA0171501733001000116
B1500154238614N07155388WA0171101732001000117
B1500164238632N07155391WA0170901731001000117
B1500174238649N07155393WA0170701730001000116
B1500184238666N07155396WA0170601728001000115
B1500194238683N07155398WA0170401724001000116
B1500204238701N07155401WA0169901718001000117
B1500214238718N07155404WA0169401709001000120
B1500224238736N07155407WA0168701702001000123
B1500234238755N07155409WA0168201697001000127
B1500244238774N07155410WA0167801695001000128
B1500254238794N07155411WA0167401694001000127
B1500264238813N07155410WA0167201696001000126
B1500274238832N07155409WA0167201699001000125
B1500284238850N07155408WA0167301701001000124
B1500294238869N07155408WA0167401702001000124
B1500304238887N07155408WA0167401701001000124
B1500314238906N07155408WA0167401699001000126
B1500324238925N07155409WA0167301697001000128
B1500334238945N07155410WA0167301695001000131
B1500344238965N07155410WA0167101694001000132
B1500354238984N07155410WA0167101694001000133
B1500364239004N07155409WA0167201696001000133
B1500374239024N07155405WA0167401703001000129
B1500384239042N07155399WA0167701713001000122
B1500394239059N07155393WA0168601723001000115
B1500404239075N07155385WA0169201734001000109
B1500414239089N07155376WA0170601745001000101
B1500424239102N07155368WA0171401756001000094
B1500434239115N07155361WA0172801767001000086
B1500444239127N07155357WA0173501776001000080
B1500454239138N07155357WA0174201784001000077
B1500464239149N07155362WA0175001791001000076
B1500474239158N07155372WA0176001798001000079
B1500484239164N07155386WA0176601805001000083
B1500494239167N07155403WA0177401812001000089
B1500504239166N07155422WA0177901817001000095
B1500514239162N07155441WA0178601822001000101
B1500524239153N07155459WA0179001825001000108
B1500534239142N07155476WA0179401827001000114
B1500544239128N07155490WA0179701828001000120
B1500554239111N07155500WA0179901828001000126
B1500564239092N07155505WA0180101829001000129
B1500574239073N07155505WA0180201830001000131
B1500584239054N07155500WA0180301831001000129
