ACNI279FLIGHT:1
HFDTE040622
HFFXA005
HFPLTPILOT:Bob Fletcher
HFCM2CREW:
HFGTYGLIDERTYPE:ASG 29
HFGIDGLIDERID:90
HFDTM100GPSDATUM:WGS84
HFRFWFIRMWAREVERSION:1.4
HFRHWHARDWAREVERSION:1.0
HFFTYFRTYPE:ClearNav Instr., ClearNav II
HFGPS:UBLOX,NEO-6G,16Ch,50000 
HFPRSPRESSALTSENSOR:Intersema,MS5540C,20000
HFCIDCOMPETITIONID:90
I033638FXA3941ENL4244GSP
J020810WDI1115WVE
C040622145912000000000103
C0000000N00000000ETAKEOFF
C4225570N07147630WSTERLING    
C4352767N07215383WPost Mills
C4138000N07302800WWaterbury   
C4200000N07111800WMansfield   
C4225570N07147630WSTERLING    
C0000000N00000000ELANDING
B1515244225407N07147428WA0017000111001000001
B1515254225407N07147428WA0016900111001000000
B1515264225407N07147428WA0017000111001000000
B1515274225407N07147429WA0017000111001000002
B1515284225408N07147429WA0017000111001000003
B1515284225408N07147429WA0017000111001000003
B1515294225408N07147429WA0017000111001000002
B1515294225408N07147429WA0017000111001000002
B1515304225408N07147429WA0017000111001000001
B1515304225408N07147429WA0017000111001000001
B1515314225408N07147430WA0017000111001000002
B1515324225409N07147430WA0017000111001000003
B1515334225409N07147430WA0017000111001003002
B1515344225409N07147431WA0016900111001006001
B1515354225409N07147431WA0016900111001007003
B1515354225409N07147431WA0017000111001009003
B1515364225410N07147432WA0017000111001009012
B1515374225412N07147435WA0017000111001021023
B1515384225415N07147438WA0017000111001032030
B1515394225419N07147443WA0017000111001044036
B1515394225419N07147443WA0017000111001044036
B1515404225423N07147449WA0017000111001044046
B1515414225429N07147455WA0017000111001055054
B1515414225429N07147455WA0017000111001074054
B1515424225436N07147463WA0017000111001074059
LCNI151542EVT:ENDBASELINE
LCNI151537EVT:TAKEOFF
F1515430103071417192130
B1515434225443N07147471WA0016900111001088066
B1515444225451N07147481WA0016900111001104074
B1515454225459N07147491WA0016900111001114079
B1515454225459N07147491WA0016900111001104079
B1515464225468N07147503WA0016900112001104085
B1515474225478N07147515WA0016900112001104092
B1515484225489N07147528WA0017000112001094097
B1515494225500N07147541WA0017000113001083101
B1515504225511N07147555WA0017000113001075106
B1515514225523N07147570WA0017000113001065111
B1515524225536N07147585WA0017100114001065114
B1515534225549N07147601WA0017100115001063118
B1515544225562N07147617WA0017100116001056123
B1515554225576N07147634WA0017200117001052125
B1515564225591N07147650WA0017300120001049125
B1515574225605N07147666WA0017600122001049127
B1515584225620N07147683WA0017700125001046130
B1515594225635N07147700WA0018000127001045130
B1515594225635N07147700WA0018200127001041130
B1516004225650N07147717WA0018200130001041130
B1516014225665N07147734WA0018500133001042132
B1516024225680N07147751WA0018800137001041132
B1516034225695N07147769WA0019200140001042132
B1516044225710N07147787WA0019400143001042132
B1516054225725N07147804WA0019600145001042133
B1516064225740N07147822WA0019900148001040133
B1516074225755N07147840WA0020200151001038134
B1516084225770N07147858WA0020500154001038134
B1516094225785N07147877WA0020800157001037134
B1516104225799N07147895WA0021100160001039134
B1516114225814N07147913WA0021400163001042135
B1516124225829N07147931WA0021800167001043135
B1516134225844N07147949WA0022100171001043134
B1516144225860N07147967WA0022500174001043134
B1516154225875N07147985WA0022700178001041134
B1516164225890N07148002WA0023200182001042133
B1516164225890N07148002WA0023500182001042133
B1516174225905N07148020WA0023500186001042133
B1516184225920N07148037WA0024000191001040132
B1516194225935N07148055WA0024600197001040132
B1516204225949N07148074WA0025000200001040132
B1516214225963N07148093WA0025300204001039131
B1516224225977N07148111WA0025800209001038130
B1516234225992N07148128WA0026200215001038129
B1516244226007N07148145WA0026800220001036129
B1516254226022N07148161WA0027200225001036129
B1516264226037N07148178WA0027800229001037130
B1516274226052N07148194WA0028100232001037130
B1516284226068N07148210WA0028500235001037130
B1516284226068N07148210WA0028800235001038130
B1516294226083N07148227WA0028800239001038130
B1516304226098N07148243WA0029300243001036129
B1516314226113N07148260WA0029600246001035129
B1516324226127N07148277WA0029900250001036129
B1516334226142N07148294WA0030300253001036128
B1516344226157N07148310WA0030800258001038127
B1516354226172N07148326WA0031100262001038126
B1516364226187N07148342WA0031600266001038124
B1516374226202N07148357WA0031900271001038123
B1516384226216N07148371WA0032200276001036123
B1516394226231N07148386WA0032900281001036124
B1516404226247N07148400WA0033200284001036124
B1516414226262N07148415WA0033600286001034124
B1516424226277N07148429WA0033800288001034124
B1516434226292N07148444WA0034000290001032124
F151644010306071417192130
B1516444226307N07148460WA0034300292001032125
B1516454226321N07148476WA0034600294001030125
B1516454226321N07148476WA0034600294001030125
B1516464226335N07148493WA0034800296001032125
B1516464226335N07148493WA0035000296001031125
B1516474226348N07148511WA0035000300001031123
B1516474226348N07148511WA0035400300001035123
B1516484226359N07148530WA0035400304001035121
B1516494226370N07148550WA0035700309001041120
B1516504226379N07148571WA0036200313001041119
B1516514226388N07148592WA0036500317001041120
B1516524226397N07148613WA0037000320001039122
B1516534226405N07148636WA0037300322001036125
B1516544226412N07148660WA0037600324001036126
B1516544226412N07148660WA0037800324001041126
B1516554226419N07148684WA0037800325001041128
B1516564226426N07148708WA0037900326001041130
B1516574226433N07148733WA0038100329001043133
B1516584226441N07148758WA0038300333001047134
B1516594226449N07148783WA0038600337001049134
B1517004226456N07148808WA0039000340001049133
B1517014226463N07148834WA0039300343001051134
B1517024226470N07148859WA0039500346001047133
B1517034226477N07148884WA0039900349001047133
B1517044226485N07148909WA0040100351001044134
B1517054226492N07148934WA0040500354001044134
B1517064226500N07148960WA0040700357001043134
B1517074226507N07148985WA0041000360001043134
B1517084226514N07149011WA0041300363001043134
B1517094226520N07149036WA0041500367001042135
B1517094226520N07149036WA0041900367001043135
B1517104226527N07149062WA0041900371001043133
B1517114226534N07149087WA0042400375001043132
B1517114226534N07149087WA0042700375001043132
B1517124226541N07149112WA0042700381001043131
B1517134226547N07149137WA0043200385001041131
B1517144226554N07149162WA0043600389001041131
B1517154226559N07149187WA0043900392001039132
B1517154226559N07149188WA0044400392001039132
B1517164226564N07149214WA0044400395001039132
B1517174226568N07149240WA0044700397001039131
B1517184226571N07149266WA0044900400001038130
B1517194226573N07149292WA0045100404001037129
B1517204226573N07149318WA0045600409001040129
B1517214226573N07149344WA0046000414001043126
B1517224226571N07149369WA0046500419001043126
B1517234226568N07149394WA0046900423001043126
B1517244226564N07149419WA0047400428001043122
B1517254226560N07149443WA0047700433001041122
B1517264226555N07149467WA0048300437001041121
B1517274226551N07149490WA0048700443001041116
B1517284226546N07149512WA0049300450001040118
B1517294226541N07149536WA0049800455001039121
B1517304226536N07149559WA0050400459001038121
B1517314226530N07149583WA0050800463001038122
B1517324226524N07149606WA0051300466001038125
B1517334226518N07149630WA0051600469001038125
B1517344226511N07149654WA0052000474001041123
B1517354226503N07149677WA0052400479001042124
B1517364226496N07149700WA0052900484001041123
B1517374226489N07149723WA0053300488001045122
B1517384226482N07149746WA0053800493001045124
B1517394226476N07149770WA0054100496001056125
B1517404226470N07149794WA0054500499001058124
B1517414226466N07149818WA0054900502001058125
B1517424226462N07149843WA0055100505001059127
B1517434226459N07149869WA0055500507001053127
B1517444226457N07149894WA0055700511001049126
F15174501030607081417192130133
B1517454226457N07149920WA0056100516001049126
B1517464226460N07149945WA0056500522001048127
B1517474226463N07149970WA0057200528001048127
B1517484226468N07149995WA0057800533001044127
B1517494226474N07150020WA0058200539001042128
B1517504226482N07150044WA0058800544001042129
B1517514226491N07150067WA0059300549001042130
B1517524226501N07150089WA0059700554001041131
B1517534226512N07150112WA0060300558001040132
B1517534226512N07150112WA0060700558001040132
B1517544226525N07150133WA0060700563001040134
B1517554226538N07150153WA0061200568001040136
B1517554226538N07150153WA0061600568001041136
B1517564226553N07150173WA0061600571001041136
B1517574226568N07150191WA0062000576001042137
B1517584226585N07150208WA0062800579001042140
B1517594226602N07150224WA0063400580001041139
B1517594226602N07150224WA0063600580001040139
B1518004226620N07150239WA0063600581001040137
B1518014226638N07150252WA0063900584001041135
B1518024226656N07150264WA0064200589001041137
B1518034226675N07150274WA0064500593001040135
B1518044226694N07150284WA0065000597001040133
B1518054226712N07150294WA0065200600001039133
B1518064226731N07150304WA0065600602001038132
B1518074226749N07150314WA0066000606001037130
B1518074226749N07150314WA0066300606001038130
B1518084226766N07150325WA0066300611001038128
B1518094226783N07150336WA0066900617001040128
B1518104226801N07150347WA0067200620001039127
B1518114226818N07150358WA0067700624001038126
B1518114226818N07150358WA0068000624001039126
B1518124226834N07150369WA0068000628001039126
B1518134226851N07150381WA0068500633001039125
B1518144226868N07150392WA0068900638001040124
B1518154226885N07150403WA0069400641001039126
B1518164226902N07150414WA0069600644001037128
B1518174226919N07150427WA0069900646001038129
B1518174226919N07150427WA0070300646001037129
B1518184226935N07150441WA0070300648001037128
B1518194226951N07150456WA0070500651001038129
B1518204226966N07150472WA0070900654001038130
B1518214226982N07150488WA0071100657001038129
B1518214226982N07150488WA0071300657001037129
B1518224226998N07150502WA0071300660001037130
B1518234227014N07150517WA0071700664001038129
B1518244227030N07150532WA0071900667001038129
B1518254227046N07150546WA0072300669001038128
B1518264227062N07150560WA0072500672001039127
B1518264227062N07150560WA0072900672001040127
B1518274227078N07150575WA0072900676001040127
B1518284227093N07150590WA0073200680001048128
B1518294227109N07150605WA0073600683001050127
B1518294227109N07150605WA0073800683001053127
B1518304227124N07150621WA0073800686001053127
B1518314227139N07150637WA0074200689001049127
B1518324227154N07150652WA0074400693001046125
B1518334227169N07150666WA0074700696001044125
B1518344227185N07150681WA0075200700001044124
B1518354227200N07150695WA0075500705001041125
B1518364227215N07150710WA0076100709001041127
B1518374227231N07150724WA0076400713001040125
B1518384227246N07150738WA0076800717001039125
B1518394227262N07150752WA0077100720001040125
B1518404227277N07150767WA0077500723001038124
B1518414227292N07150781WA0077700726001039123
B1518424227308N07150796WA0078100730001037124
B1518434227323N07150810WA0078500734001038123
B1518444227338N07150824WA0078700737001036124
B1518454227353N07150839WA0079000741001037125
F151846010307081417192130133
B1518464227369N07150853WA0079500743001037126
B1518474227385N07150867WA0079700746001036126
B1518474227385N07150867WA0080000746001036126
B1518484227401N07150881WA0080000748001036128
B1518494227417N07150896WA0080200750001035127
B1518504227432N07150911WA0080500753001035126
B1518514227447N07150926WA0080800756001038126
B1518524227462N07150941WA0081200762001038124
B1518534227477N07150955WA0081700769001042121
B1518534227477N07150955WA0082300769001040121
B1518544227492N07150969WA0082300775001040121
B1518554227506N07150984WA0082700780001038120
B1518564227520N07151000WA0083300783001038117
B1518574227532N07151016WA0083600787001039119
B1518584227545N07151034WA0084100791001041119
B1518594227556N07151053WA0084400794001041118
B1519004227567N07151072WA0084800798001041120
B1519014227577N07151092WA0085300801001039118
B1519024227587N07151111WA0085700806001047111
B1519034227598N07151126WA0086100811001044106
B1519044227610N07151139WA0086400813001046103
B1519054227624N07151149WA0086700815001035102
B1519054227624N07151149WA0086800815001027102
B1519064227637N07151159WA0086800815001027101
B1519074227650N07151169WA0086800814001022101
B1519084227663N07151181WA0086800812001017102
B1519094227675N07151194WA0086700810001015104
B1519104227685N07151210WA0086400808001013105
B1519114227693N07151228WA0086300807001013104
B1519124227700N07151247WA0086200807001010103
B1519134227705N07151267WA0086100806001009101
B1519144227707N07151287WA0086000804001008100
B1519154227708N07151307WA0085900803001007100
B1519154227708N07151307WA0085800803001006100
B1519164227707N07151327WA0085800802001006099
B1519174227705N07151347WA0085700801001005099
B1519184227703N07151367WA0085600801001005098
B1519194227701N07151386WA0085500799001005099
B1519204227700N07151407WA0085400798001005100
B1519214227698N07151427WA0085300797001003100
B1519224227696N07151447WA0085200796001003100
B1519234227692N07151466WA0085100794001004100
B1519244227687N07151485WA0084900793001004100
B1519254227680N07151503WA0084800791001004101
B1519264227671N07151520WA0084700790001005102
B1519274227661N07151535WA0084500789001005102
B1519284227649N07151549WA0084400787001005103
B1519294227636N07151559WA0084400787001005103
B1519304227622N07151568WA0084300788001005103
B1519314227607N07151574WA0084300788001005103
B1519324227592N07151578WA0084300788001006102
B1519324227592N07151578WA0084400788001006102
B1519334227577N07151578WA0084400788001006102
B1519344227561N07151575WA0084400790001006101
B1519354227547N07151571WA0084500792001006100
B1519354227547N07151571WA0084600792001006100
B1519364227532N07151566WA0084600794001006099
B1519374227518N07151560WA0084800794001005099
B1519384227504N07151552WA0084900793001005100
B1519394227491N07151543WA0084700792001005102
B1519404227478N07151532WA0084700791001005104
B1519414227465N07151518WA0084500789001003107
B1519414227465N07151518WA0084400789001003107
B1519424227453N07151503WA0084400787001003109
B1519434227442N07151486WA0084200785001003112
B1519444227432N07151468WA0084100783001005116
B1519454227423N07151447WA0083800781001005118
B1519454227423N07151447WA0083700781001005118
B1519464227415N07151426WA0083700781001005118
F15194701030607081417192130133
B1519474227407N07151404WA0083600781001005119
B1519474227407N07151404WA0083600781001005119
B1519484227400N07151382WA0083600782001005118
B1519494227394N07151360WA0083500781001005118
B1519494227394N07151360WA0083400781001005118
B1519504227389N07151337WA0083400780001005117
B1519514227386N07151314WA0083400778001005117
B1519524227383N07151290WA0083200777001005117
B1519534227381N07151267WA0083200776001005117
B1519544227379N07151243WA0083100776001005116
B1519554227376N07151220WA0083000776001006115
B1519554227376N07151220WA0083000776001006115
B1519564227373N07151197WA0083000775001006116
B1519574227369N07151174WA0082900773001005118
B1519584227365N07151150WA0082700771001004120
B1519594227360N07151127WA0082600770001005122
B1520004227356N07151102WA0082600771001009122
B1520014227352N07151078WA0082700774001012120
B1520014227352N07151078WA0082900774001020120
B1520024227348N07151055WA0082900776001020118
B1520034227343N07151032WA0083000777001019116
B1520044227337N07151011WA0083200778001019114
B1520054227328N07150991WA0083300780001016112
B1520054227328N07150991WA0083500780001014112
B1520064227318N07150974WA0083500782001014109
B1520074227305N07150960WA0083500783001014107
B1520084227292N07150949WA0083400785001016106
B1520094227277N07150941WA0083400786001017104
B1520104227263N07150935WA0083500787001017102
B1520114227248N07150933WA0083500787001017101
B1520114227248N07150933WA0083500787001014101
B1520124227232N07150933WA0083500785001014101
B1520134227217N07150936WA0083400782001015102
B1520144227203N07150942WA0083200780001023103
B1520154227189N07150950WA0083000778001026103
B1520154227189N07150950WA0082800778001024103
B1520164227175N07150960WA0082800777001024103
B1520174227163N07150973WA0082700775001021102
B1520174227163N07150973WA0082600775001018102
B1520184227152N07150988WA0082600775001018102
B1520194227144N07151005WA0082500775001018102
B1520204227138N07151024WA0082400774001016102
B1520214227134N07151044WA0082400773001016102
B1520224227132N07151064WA0082300772001017101
B1520234227132N07151084WA0082200770001013101
B1520234227132N07151084WA0082100770001011101
B1520244227134N07151105WA0082100768001011103
B1520254227139N07151125WA0082000766001012105
B1520264227147N07151144WA0081900766001011108
B1520274227157N07151161WA0081800767001011110
B1520284227170N07151177WA0081800767001011113
B1520294227184N07151189WA0081800767001011114
B1520304227199N07151200WA0081800768001011116
B1520314227216N07151206WA0081800769001011116
B1520324227233N07151210WA0082000771001011117
B1520334227251N07151210WA0082100772001011116
B1520334227251N07151210WA0082200772001011116
B1520344227268N07151207WA0082200774001011116
B1520354227285N07151203WA0082400775001011114
B1520354227285N07151203WA0082500775001011114
B1520364227302N07151198WA0082500775001011114
B1520374227318N07151191WA0082700774001010113
B1520384227334N07151184WA0082600773001011113
B1520394227350N07151176WA0082400771001010113
B1520404227365N07151166WA0082200769001011113
B1520414227381N07151157WA0082100766001013115
B1520424227396N07151147WA0081900764001013116
B1520434227412N07151136WA0081700763001013117
B1520434227412N07151136WA0081600763001013117
B1520444227427N07151124WA0081600763001013117
B1520454227442N07151111WA0081600764001014116
B1520464227456N07151097WA0081600765001016115
B1520474227470N07151084WA0081600765001016115
F152048010306071417192130133
B1520484227484N07151071WA0081800765001017115
B1520494227499N07151059WA0081800765001016115
B1520504227514N07151046WA0081700765001016115
B1520514227528N07151033WA0081600765001016115
B1520524227542N07151020WA0081700764001016115
B1520534227556N07151006WA0081600764001016115
B1520544227570N07150992WA0081600763001014116
B1520554227583N07150976WA0081500760001011119
B1520564227595N07150958WA0081200758001013122
B1520574227606N07150938WA0081100757001013123
B1520584227616N07150917WA0080900756001011124
B1520594227624N07150894WA0080800756001010123
B1520594227624N07150894WA0080800756001010123
B1521004227629N07150870WA0080800756001010122
B1521014227633N07150846WA0080800756001011122
B1521024227634N07150822WA0080800755001011121
B1521034227633N07150797WA0080800755001013120
B1521044227630N07150774WA0081000755001013118
B1521054227625N07150751WA0081200756001013117
B1521054227625N07150751WA0081400756001011117
B1521064227619N07150729WA0081400757001011116
B1521074227611N07150708WA0081500758001011114
B1521084227603N07150688WA0081600758001010112
B1521094227594N07150669WA0081600759001012110
B1521104227585N07150651WA0081600757001016110
B1521114227575N07150633WA0081400753001019112
B1521114227575N07150633WA0081100753001016112
B1521124227565N07150615WA0081100748001016116
B1521134227553N07150596WA0080800744001014120
B1521144227542N07150578WA0080400741001012122
B1521154227529N07150559WA0080100740001010122
B1521164227517N07150541WA0079900739001010122
B1521174227504N07150524WA0079800737001010122
B1521174227504N07150524WA0079500737001008122
B1521184227490N07150507WA0079500735001008123
B1521194227477N07150490WA0079400735001009124
B1521204227463N07150473WA0079400736001009123
B1521214227449N07150457WA0079500740001009120
B1521224227436N07150441WA0079800745001010116
B1521234227423N07150427WA0080000751001009111
B1521244227409N07150415WA0080600755001008108
B1521254227395N07150404WA0080900757001008107
B1521264227380N07150396WA0081200758001008106
B1521274227366N07150389WA0081500759001009105
B1521284227351N07150381WA0081600760001009106
B1521284227351N07150381WA0081900760001008106
B1521294227337N07150372WA0081900762001008105
B1521304227323N07150360WA0082000763001008106
B1521314227311N07150346WA0082100763001008107
B1521324227300N07150330WA0082000761001008108
B1521334227290N07150313WA0081900759001008110
B1521344227282N07150293WA0081700757001007113
B1521344227282N07150293WA0081700757001007113
B1521354227274N07150272WA0081500754001005116
B1521364227268N07150250WA0081300752001007120
B1521374227264N07150226WA0081100751001008123
B1521384227261N07150201WA0080900750001006125
B1521394227259N07150175WA0080800751001006126
B1521404227257N07150150WA0080800755001006124
B1521414227255N07150126WA0081100761001009121
B1521414227255N07150126WA0081800761001011121
B1521424227254N07150102WA0081800767001011117
B1521434227253N07150079WA0082300774001013111
B1521444227252N07150057WA0082800781001013106
B1521454227249N07150036WA0083300786001012102
B1521464227243N07150017WA0083500788001011100
B1521474227236N07150000WA0083700788001013099
B1521474227236N07150000WA0083800788001011099
B1521484227227N07149984WA0083800786001011099
F15214901030607081417192130133
B1521494227217N07149969WA0083700783001013100
B1521504227206N07149956WA0083500779001013101
B1521514227193N07149944WA0083100776001013101
B1521524227180N07149935WA0082900774001011100
B1521534227165N07149930WA0082600773001011099
B1521544227151N07149929WA0082500772001011099
B1521554227136N07149933WA0082400772001012098
B1521564227122N07149939WA0082400772001011098
B1521574227110N07149949WA0082300772001012098
B1521584227098N07149962WA0082400772001014098
B1521594227089N07149978WA0082400774001021098
B1521594227089N07149978WA0082400774001022098
B1522004227082N07149995WA0082400774001022097
B1522014227078N07150014WA0082500775001017097
B1522024227077N07150033WA0082600775001014097
B1522034227078N07150053WA0082600774001014097
B1522034227078N07150053WA0082600774001014097
B1522044227081N07150072WA0082600774001011099
B1522054227087N07150091WA0082600773001009100
B1522064227096N07150107WA0082500771001009102
B1522074227107N07150122WA0082400771001005103
B1522084227120N07150133WA0082300769001005105
B1522094227135N07150141WA0082200768001005107
B1522104227151N07150146WA0082100767001005108
B1522114227167N07150147WA0082100767001005109
B1522114227167N07150147WA0082000767001004109
B1522124227183N07150145WA0082000768001004109
B1522134227199N07150138WA0082100768001005110
B1522144227214N07150129WA0082100767001005110
B1522154227228N07150117WA0082100767001006111
B1522164227241N07150102WA0082000766001005112
B1522174227253N07150086WA0082000765001008113
B1522184227264N07150069WA0081800765001005112
B1522194227274N07150051WA0081800764001005113
B1522204227282N07150030WA0081800764001005114
B1522214227287N07150009WA0081800764001009115
B1522224227292N07149986WA0081900765001013114
B1522234227296N07149964WA0082000768001014114
B1522244227300N07149942WA0082200770001012113
B1522254227305N07149920WA0082300771001014112
B1522264227312N07149899WA0082400772001014113
B1522274227320N07149879WA0082400771001013115
B1522284227330N07149859WA0082400771001014117
B1522294227342N07149842WA0082300770001011120
B1522304227357N07149826WA0082300769001011124
B1522314227373N07149814WA0082200769001011125
B1522324227391N07149805WA0082200769001010126
B1522334227409N07149800WA0082100769001012125
B1522344227428N07149800WA0082100770001011123
B1522354227446N07149803WA0082200770001011121
B1522354227446N07149803WA0082200770001013121
B1522364227463N07149811WA0082200770001013118
B1522374227478N07149822WA0082300770001013115
B1522374227478N07149822WA0082300770001014115
B1522384227491N07149837WA0082300771001014110
B1522394227501N07149854WA0082300772001014106
B1522404227507N07149872WA0082300772001013101
B1522414227511N07149892WA0082400772001012097
B1522424227511N07149911WA0082400771001011095
B1522434227508N07149930WA0082400770001011093
B1522444227502N07149946WA0082300768001011092
B1522444227502N07149946WA0082200768001011092
B1522454227494N07149961WA0082200765001011092
B1522464227482N07149971WA0081900763001011093
B1522474227469N07149978WA0081700761001012095
B1522474227469N07149978WA0081500761001013095
B1522484227455N07149980WA0081500759001013098
B1522494227440N07149976WA0081400760001013100
F152250010306071417192130133
B1522504227426N07149968WA0081300761001014101
B1522514227414N07149957WA0081300764001013101
B1522524227402N07149944WA0081400767001011101
B1522534227391N07149930WA0081700770001010101
B1522544227380N07149916WA0082100773001011100
B1522554227370N07149901WA0082300775001012098
B1522564227361N07149886WA0082700778001012098
B1522574227353N07149869WA0082900780001013098
B1522584227348N07149850WA0083100781001013101
B1522594227346N07149829WA0083000780001012106
B1522594227346N07149829WA0083000780001012106
B1523004227346N07149807WA0083000778001012112
B1523014227350N07149784WA0082800776001011116
B1523024227357N07149762WA0082700773001010121
B1523034227367N07149741WA0082600773001011123
B1523034227367N07149741WA0082600773001011123
B1523044227378N07149721WA0082500774001011123
B1523054227388N07149701WA0082500775001011120
B1523064227397N07149680WA0082500776001009118
B1523064227397N07149680WA0082500776001011118
B1523074227404N07149659WA0082500775001011116
B1523084227409N07149637WA0082500774001011114
B1523094227412N07149614WA0082500772001012113
B1523104227413N07149591WA0082300770001012112
B1523114227412N07149569WA0082100767001012111
B1523124227409N07149547WA0081900765001014109
B1523134227403N07149527WA0081700762001013107
B1523144227396N07149508WA0081400761001013105
B1523154227387N07149490WA0081300760001011103
B1523154227387N07149490WA0081300760001011103
B1523164227377N07149475WA0081200760001010100
B1523174227366N07149462WA0081100760001009097
B1523184227354N07149451WA0081100758001008095
B1523194227342N07149441WA0081000756001007094
B1523204227329N07149434WA0080800754001008095
B1523214227315N07149427WA0080600752001008097
B1523224227301N07149421WA0080400752001009099
B1523224227301N07149421WA0080400752001008099
B1523234227287N07149416WA0080400752001008099
B1523234227287N07149416WA0080300752001010099
B1523244227272N07149412WA0080300752001010098
B1523254227258N07149408WA0080300752001011098
B1523264227244N07149404WA0080300753001011096
B1523274227230N07149401WA0080300754001011095
B1523284227216N07149397WA0080400755001011093
B1523294227202N07149394WA0080500755001011091
B1523304227189N07149391WA0080500753001010091
B1523314227175N07149388WA0080400750001011093
B1523324227161N07149384WA0080000744001014096
B1523334227147N07149380WA0079800740001014100
B1523334227147N07149380WA0079300740001013100
B1523344227132N07149376WA0079300738001013101
B1523354227117N07149372WA0079100738001013101
B1523354227117N07149372WA0079000738001014101
B1523364227103N07149368WA0079000739001014100
B1523374227088N07149364WA0079000739001013098
B1523384227074N07149361WA0079000738001014096
B1523394227060N07149359WA0078900737001016095
B1523404227046N07149355WA0078700735001015096
B1523414227032N07149351WA0078600734001011096
B1523424227017N07149347WA0078500732001011096
B1523434227003N07149342WA0078400730001011097
B1523434227003N07149342WA0078100730001011097
B1523444226989N07149337WA0078100728001011098
B1523454226975N07149332WA0077900725001013100
B1523464226961N07149325WA0077700722001013102
B1523474226946N07149317WA0077400720001015104
B1523474226946N07149317WA0077300720001016104
B1523484226932N07149308WA0077300720001016105
B1523494226918N07149298WA0077300722001016104
B1523504226905N07149287WA0077700724001013102
B1523504226905N07149287WA0077700724001013102
F15235101030607081417192130133
B1523514226892N07149278WA0077900726001012099
B1523524226879N07149268WA0078100728001009097
B1523534226866N07149259WA0078200727001008096
B1523534226866N07149259WA0078200727001008096
B1523544226853N07149250WA0078200725001008096
B1523554226840N07149242WA0078100723001012096
B1523564226827N07149234WA0077900719001012098
B1523574226814N07149225WA0077500716001014101
B1523584226800N07149214WA0077300711001012105
B1523594226787N07149203WA0076900708001010109
B1524004226773N07149189WA0076600704001008112
B1524014226760N07149175WA0076200701001008113
B1524024226746N07149161WA0076000699001005113
B1524024226746N07149161WA0075800699001005113
B1524034226733N07149148WA0075800698001005112
B1524044226719N07149135WA0075600698001005111
B1524054226705N07149123WA0075500698001005110
B1524054226705N07149123WA0075500698001006110
B1524064226691N07149111WA0075500699001006108
B1524074226678N07149098WA0075500700001006107
B1524084226665N07149085WA0075600702001004106
B1524084226665N07149085WA0075800702001003106
B1524094226653N07149071WA0075800703001003105
B1524104226641N07149058WA0075900705001003104
B1524114226630N07149044WA0076100707001002103
B1524124226618N07149030WA0076200708001000102
B1524134226607N07149016WA0076300708001000102
B1524144226595N07149003WA0076400708001001102
B1524154226584N07148988WA0076400708001003102
B1524164226573N07148974WA0076500708001002103
B1524164226573N07148974WA0076400708001002103
B1524174226562N07148959WA0076400707001002103
B1524174226562N07148959WA0076300707001000103
B1524184226550N07148946WA0076300706001000103
B1524194226538N07148933WA0076200704001000104
B1524204226526N07148920WA0076100702001000105
B1524214226513N07148908WA0076000701001000104
B1524224226500N07148896WA0075900700001000104
B1524234226486N07148886WA0075800699001000104
B1524234226486N07148886WA0075700699001000104
B1524244226472N07148876WA0075700697001000104
B1524254226458N07148867WA0075600696001000104
B1524264226444N07148861WA0075500695001000103
B1524274226429N07148855WA0075300694001000101
B1524284226414N07148853WA0075300693001000100
B1524294226399N07148853WA0075100690001000099
B1524294226399N07148853WA0074900690001000099
B1524304226385N07148855WA0074900688001000099
B1524314226370N07148860WA0074700686001000101
B1524324226356N07148867WA0074600684001000101
B1524334226342N07148875WA0074300681001000102
B1524334226342N07148875WA0074200681001002102
B1524344226328N07148885WA0074200679001002104
B1524354226314N07148895WA0073900677001001105
B1524364226301N07148906WA0073700676001002105
B1524374226288N07148919WA0073600675001002105
B1524384226276N07148931WA0073500675001002104
B1524394226264N07148945WA0073400674001001103
B1524394226264N07148945WA0073300674001002103
B1524404226253N07148959WA0073300673001002103
B1524414226242N07148975WA0073300673001002103
B1524414226242N07148975WA0073200673001002103
B1524424226232N07148990WA0073200672001002103
B1524434226221N07149005WA0073200672001001102
B1524444226210N07149019WA0073000670001000101
B1524454226199N07149034WA0073000668001000102
B1524454226199N07149034WA0073000668001000102
B1524464226188N07149048WA0072700666001000103
B1524474226176N07149062WA0072600664001001104
B1524474226176N07149062WA0072400664001001104
B1524484226164N07149076WA0072400662001001106
B1524494226152N07149090WA0072200660001000106
B1524504226141N07149105WA0072100660001002107
B1524514226129N07149120WA0072100661001002106
B1524524226118N07149134WA0072100664001003103
B1524524226118N07149134WA0072200664001003103
B1524534226107N07149148WA0072200666001003101
B1524544226096N07149162WA0072300666001003099
B1524554226085N07149176WA0072400666001001098
B1524564226074N07149189WA0072300664001000098
B1524574226063N07149201WA0072300661001000100
B1524584226050N07149213WA0072000657001000103
B1524594226037N07149226WA0071800654001000108
B1524594226037N07149226WA0071500654001003108
B1525004226024N07149238WA0071500652001003111
B1525014226010N07149252WA0071400653001006113
B1525024225996N07149265WA0071300655001009112
B1525034225982N07149277WA0071400659001009109
B1525044225968N07149288WA0071700663001009106
B1525054225955N07149299WA0071900666001009102
B1525064225942N07149309WA0072100668001009099
B1525074225929N07149318WA0072400669001008097
B1525084225916N07149327WA0072500669001006096
B1525094225903N07149336WA0072500668001005096
B1525104225891N07149345WA0072400665001005097
B1525114225878N07149355WA0072200661001008100
B1525124225865N07149366WA0072100656001009103
B1525134225852N07149378WA0071700654001011105
B1525144225839N07149390WA0071500653001011104
B1525154225826N07149402WA0071300653001011103
B1525164225814N07149414WA0071300654001011102
B1525174225802N07149427WA0071300655001009102
B1525174225802N07149427WA0071400655001008102
B1525184225790N07149440WA0071400656001008101
B1525194225780N07149455WA0071400656001008101
B1525204225770N07149471WA0071400657001008102
B1525214225761N07149487WA0071500656001009102
B1525224225752N07149503WA0071500657001010101
B1525234225742N07149519WA0071600658001010100
B1525234225742N07149519WA0071700658001009100
B1525244225732N07149534WA0071700660001009097
B1525254225722N07149548WA0071800661001011095
B1525264225712N07149562WA0071800661001010095
B1525274225703N07149576WA0071900661001008095
B1525284225694N07149591WA0071900660001008095
B1525294225685N07149606WA0071900660001011096
B1525304225676N07149622WA0071900659001009096
B1525314225668N07149638WA0071800658001009097
B1525324225662N07149655WA0071700658001005098
B1525334225656N07149674WA0071700657001005099
B1525344225651N07149693WA0071600657001004100
B1525354225648N07149713WA0071600656001002100
B1525364225645N07149733WA0071500656001002101
B1525374225645N07149753WA0071400654001000102
B1525384225645N07149774WA0071300652001000104
B1525394225648N07149795WA0071200651001000106
B1525404225653N07149816WA0071100651001000108
B1525414225660N07149836WA0071200651001000109
B1525414225660N07149836WA0071200651001000109
B1525424225670N07149854WA0071200653001000111
B1525434225681N07149871WA0071300656001003111
B1525444225693N07149886WA0071700660001007109
B1525454225705N07149901WA0072000664001013107
B1525464225716N07149916WA0072300670001014103
B1525474225725N07149932WA0072800675001015099
B1525484225731N07149950WA0073000678001013097
B1525494225735N07149969WA0073100679001011096
B1525504225736N07149988WA0073100680001011096
B1525504225736N07149988WA0073300680001011096
B1525514225733N07150007WA0073300681001011095
B1525524225728N07150025WA0073300680001013095
B1525534225721N07150042WA0073200679001014096
B1525534225721N07150042WA0073100679001015096
B1525544225711N07150056WA0073100677001015097
B1525554225699N07150067WA0073000675001014099
B1525564225685N07150075WA0072800673001014101
B1525574225670N07150078WA0072700673001019101
B1525584225655N07150077WA0072600675001020102
B1525594225640N07150071WA0072700675001020103
B1525594225640N07150071WA0072600675001016103
B1526004225626N07150062WA0072600675001016105
B1526014225613N07150049WA0072700675001016108
B1526024225602N07150032WA0072600674001013112
F152603010306071417192130133
B1526034225594N07150012WA0072600675001013114
B1526034225594N07150012WA0072600675001011114
B1526044225588N07149991WA0072600676001011115
B1526054225585N07149968WA0072700679001011114
B1526064225587N07149945WA0073000681001011113
B1526074225592N07149923WA0073100682001011112
B1526074225592N07149923WA0073400682001012112
B1526084225599N07149903WA0073400683001012111
B1526094225610N07149886WA0073400683001013109
B1526104225621N07149871WA0073500682001011107
B1526114225635N07149859WA0073400680001012106
B1526124225649N07149850WA0073400680001013107
B1526134225665N07149846WA0073300681001013105
B1526144225680N07149844WA0073300683001012101
B1526154225695N07149847WA0073500685001012097
B1526164225708N07149853WA0073600685001012095
B1526174225721N07149861WA0073800686001014094
B1526174225721N07149861WA0073800686001013094
B1526184225733N07149871WA0073800686001013094
B1526194225743N07149884WA0073900688001012094
B1526204225752N07149899WA0074000690001011094
B1526214225759N07149915WA0074100691001011093
B1526224225764N07149932WA0074200692001011092
B1526234225766N07149951WA0074300693001011092
B1526244225765N07149970WA0074300692001011093
B1526244225765N07149970WA0074300692001011093
B1526254225762N07149988WA0074300690001012092
B1526254225762N07149988WA0074100690001014092
B1526264225756N07150005WA0074100687001014093
B1526274225747N07150020WA0073900685001013095
B1526284225736N07150032WA0073600683001011096
B1526294225723N07150040WA0073600683001014096
B1526304225709N07150043WA0073400683001015096
B1526314225695N07150042WA0073400683001015098
B1526324225681N07150036WA0073300684001014099
B1526334225668N07150026WA0073400684001014101
B1526334225668N07150026WA0073500684001016101
B1526344225656N07150012WA0073500684001016103
B1526354225648N07149994WA0073500682001016106
B1526354225648N07149994WA0073400682001016106
B1526364225641N07149974WA0073400681001016111
B1526374225638N07149951WA0073300681001016113
B1526384225637N07149928WA0073300683001015114
B1526394225639N07149905WA0073400686001016113
B1526394225639N07149905WA0073600686001013113
B1526404225644N07149884WA0073600689001013111
B1526414225652N07149864WA0073800690001014109
B1526414225652N07149864WA0074000690001014109
B1526424225662N07149847WA0074000690001014107
B1526434225674N07149833WA0074000689001013107
B1526444225688N07149821WA0074000689001014108
B1526454225702N07149813WA0074000690001013106
B1526464225718N07149808WA0074000691001014104
B1526474225733N07149807WA0074200693001012101
B1526484225748N07149811WA0074400696001012099
B1526494225761N07149819WA0074600698001011096
B1526504225772N07149831WA0074800700001010095
B1526514225781N07149846WA0074900702001008093
B1526524225787N07149862WA0075100704001009090
B1526524225787N07149862WA0075200704001009090
B1526534225790N07149879WA0075300705001009088
B1526544225790N07149897WA0075400706001009088
B1526554225786N07149914WA0075500706001009088
B1526554225786N07149914WA0075500706001010088
B1526564225780N07149930WA0075500705001010088
B1526574225771N07149943WA0075400703001011089
B1526584225760N07149953WA0075200701001011091
B1526594225747N07149960WA0075100699001011092
B1526594225747N07149960WA0075000699001011092
B1527004225734N07149962WA0075000700001011094
B1527004225734N07149962WA0074900700001011094
B1527014225720N07149960WA0074900701001011094
B1527024225706N07149954WA0074900702001012096
B1527034225694N07149944WA0075000701001012098
B1527044225682N07149930WA0075000701001015102
B1527054225674N07149913WA0074900699001015106
B1527064225667N07149892WA0074900698001013111
B1527064225667N07149892WA0074900698001013111
B1527074225664N07149870WA0074900700001013113
B1527084225663N07149847WA0074900702001012113
B1527094225665N07149825WA0075000705001012111
B1527094225665N07149825WA0075200705001011111
B1527104225669N07149803WA0075200707001011109
B1527114225676N07149783WA0075400709001011108
B1527114225676N07149783WA0075700709001011108
B1527124225685N07149765WA0075700709001011107
B1527134225695N07149750WA0075800709001010107
B1527144225708N07149736WA0075800709001010106
B1527154225722N07149726WA0075800709001008104
B1527164225736N07149719WA0075800708001010102
B1527174225751N07149717WA0075700706001010102
B1527174225751N07149717WA0075800706001010102
B1527184225767N07149718WA0075800706001010102
B1527194225781N07149724WA0075800707001011101
B1527204225794N07149734WA0075700708001009099
B1527214225806N07149746WA0075700709001010097
B1527214225806N07149746WA0075800709001010097
B1527224225814N07149761WA0075800709001010096
B1527234225820N07149779WA0075900711001008093
B1527244225822N07149797WA0076000713001008090
B1527244225822N07149797WA0076000713001008090
B1527254225820N07149815WA0076200715001009088
B1527254225820N07149815WA0076400715001010088
B1527264225814N07149830WA0076400717001010086
B1527274225805N07149843WA0076600719001009086
B1527274225805N07149843WA0076700719001009086
B1527284225794N07149852WA0076700718001009087
B1527294225782N07149857WA0076700716001011090
B1527294225782N07149857WA0076500716001013090
B1527304225768N07149857WA0076500714001013094
B1527314225754N07149852WA0076400712001013098
B1527324225741N07149841WA0076300712001012102
B1527334225729N07149827WA0076300712001016107
B1527344225721N07149808WA0076200711001016111
B1527344225721N07149808WA0076100711001017111
B1527354225714N07149787WA0076100710001017115
B1527354225714N07149787WA0076100710001016115
B1527364225712N07149764WA0076000710001016117
B1527374225712N07149740WA0076000710001016118
B1527384225717N07149717WA0076000712001017118
B1527394225724N07149695WA0076100715001016117
B1527404225734N07149676WA0076300716001015113
B1527414225745N07149660WA0076400714001014110
B1527424225758N07149646WA0076300711001012109
F152743010306071417192130
B1527434225773N07149636WA0076100708001011111
B1527444225789N07149629WA0075900706001010113
B1527444225789N07149629WA0075700706001011113
B1527454225806N07149627WA0075700705001011114
B1527464225823N07149628WA0075600706001011113
B1527474225838N07149634WA0075600709001010109
B1527484225853N07149643WA0075700712001009104
B1527494225864N07149656WA0076000716001009100
B1527494225864N07149656WA0076200716001010100
B1527504225873N07149672WA0076200718001010096
B1527514225879N07149689WA0076500720001009092
B1527524225881N07149707WA0076700722001008089
B1527524225881N07149707WA0076800722001008089
B1527534225880N07149725WA0076800724001008086
B1527534225880N07149725WA0077000724001008086
B1527544225876N07149741WA0077000725001008083
B1527554225869N07149754WA0077100727001008082
B1527564225860N07149765WA0077300727001008083
B1527574225849N07149773WA0077400727001008086
B1527584225836N07149776WA0077500727001008090
B1527594225822N07149776WA0077500726001009094
B1528004225808N07149771WA0077400725001010097
B1528004225808N07149771WA0077300725001010097
B1528014225795N07149762WA0077300725001010098
B1528024225782N07149751WA0077300724001011101
B1528034225771N07149737WA0077200723001010104
B1528034225771N07149737WA0077100723001008104
B1528044225761N07149720WA0077100721001008107
B1528044225761N07149720WA0077000721001007107
B1528054225754N07149701WA0077000719001007111
B1528064225748N07149679WA0076800717001008113
B1528074225745N07149656WA0076600716001009116
B1528074225745N07149656WA0076500716001011116
B1528084225744N07149633WA0076500717001011116
B1528094225747N07149610WA0076600718001011115
B1528094225747N07149610WA0076700718001011115
B1528104225752N07149588WA0076700719001011114
B1528114225760N07149567WA0076700718001011112
B1528114225760N07149567WA0076700718001011112
B1528124225769N07149549WA0076700716001011111
B1528134225781N07149533WA0076600713001011111
B1528144225795N07149520WA0076300710001010111
B1528154225810N07149511WA0076100707001010111
B1528164225826N07149505WA0075800705001011110
B1528174225842N07149502WA0075700703001010111
B1528174225842N07149502WA0075400703001010111
B1528184225859N07149502WA0075400701001010110
B1528194225876N07149504WA0075200699001009112
B1528194225876N07149504WA0075000699001008112
B1528204225892N07149508WA0075000698001008113
B1528214225908N07149514WA0074900698001008113
B1528224225924N07149522WA0074800698001008113
B1528224225924N07149522WA0074700698001010113
B1528234225940N07149530WA0074700699001010111
B1528244225955N07149540WA0074800701001012108
B1528254225968N07149550WA0075000704001013104
B1528264225981N07149562WA0075100707001013100
B1528274225992N07149575WA0075400709001011097
B1528274225992N07149575WA0075600709001009097
B1528284226001N07149590WA0075600710001009096
B1528284226001N07149590WA0075900710001009096
B1528294226009N07149607WA0075900711001009094
B1528304226014N07149624WA0076000712001008093
B1528314226015N07149643WA0076100713001008093
B1528324226014N07149662WA0076200714001008092
B1528324226014N07149662WA0076300714001008092
B1528334226008N07149678WA0076300716001008090
B1528344226000N07149692WA0076400719001008088
B1528354225989N07149701WA0076700722001009086
B1528364225977N07149706WA0076900725001009086
B1528374225964N07149704WA0077200728001011087
B1528374225964N07149704WA0077400728001011087
B1528384225951N07149698WA0077400730001011092
B1528394225940N07149685WA0077600731001011096
B1528394225940N07149685WA0077800731001012096
B1528404225932N07149669WA0077800732001012101
B1528404225932N07149669WA0078000732001012101
B1528414225925N07149650WA0078000733001012104
B1528424225923N07149629WA0078200734001013107
B1528424225923N07149629WA0078400734001011107
B1528434225923N07149607WA0078400735001011110
F1528440103061417192130
B1528444225927N07149585WA0078400736001011112
B1528444225927N07149585WA0078500736001010112
B1528454225933N07149564WA0078500737001010113
B1528454225933N07149564WA0078600737001009113
B1528464225943N07149546WA0078700740001009112
B1528474225955N07149530WA0078800743001009110
B1528484225969N07149518WA0079100745001010109
B1528484225969N07149518WA0079300745001009109
B1528494225984N07149511WA0079300747001009107
B1528504226000N07149507WA0079500749001008106
B1528514226016N07149507WA0079600749001007105
B1528524226031N07149511WA0079700748001008106
B1528524226031N07149511WA0079700748001008106
B1528534226046N07149519WA0079700746001008107
B1528544226060N07149530WA0079600745001010108
B1528544226060N07149530WA0079500745001010108
B1528554226073N07149543WA0079500744001010108
B1528554226073N07149543WA0079400744001010108
B1528564226084N07149560WA0079400743001010107
B1528574226092N07149578WA0079300744001011105
B1528574226092N07149578WA0079300744001010105
B1528584226097N07149597WA0079300745001010102
B1528594226099N07149617WA0079300747001009097
B1528594226099N07149617WA0079500747001011097
B1529004226097N07149636WA0079500750001011093
B1529014226092N07149653WA0079700753001011088
B1529024226083N07149666WA0080000758001011084
B1529024226083N07149666WA0080300758001011084
B1529034226073N07149675WA0080300761001011082
B1529044226061N07149679WA0080800763001012082
B1529044226061N07149679WA0080900763001011082
B1529054226049N07149678WA0080900765001011084
B1529064226037N07149672WA0081100766001010089
B1529064226037N07149672WA0081300766001010089
B1529074226026N07149661WA0081300768001010094
B1529084226017N07149645WA0081500770001010099
B1529094226010N07149627WA0081700772001009102
B1529104226007N07149606WA0081900775001009105
B1529114226007N07149585WA0082200777001009107
B1529114226007N07149585WA0082400777001008107
B1529124226010N07149564WA0082400779001008109
B1529134226017N07149543WA0082600780001006110
B1529144226027N07149525WA0082800781001007112
B1529154226039N07149510WA0082800780001006114
B1529154226039N07149510WA0082900780001007114
B1529164226054N07149498WA0082900780001007115
B1529174226070N07149490WA0082900781001009116
B1529174226070N07149490WA0082900781001011116
B1529184226088N07149487WA0082900782001011116
B1529184226088N07149487WA0083000782001011116
B1529194226105N07149490WA0083000783001011114
B1529204226121N07149497WA0083100783001011111
B1529214226135N07149508WA0083200783001008109
B1529224226147N07149522WA0083200783001009107
B1529234226157N07149539WA0083200782001008106
B1529234226157N07149539WA0083100782001008106
B1529244226163N07149559WA0083100782001008105
B1529254226168N07149579WA0083100783001007104
B1529264226171N07149599WA0083100784001006101
B1529274226171N07149619WA0083200786001008097
B1529274226171N07149619WA0083300786001005097
B1529284226167N07149637WA0083300787001005094
B1529294226161N07149654WA0083500790001006091
B1529304226153N07149668WA0083700793001005088
B1529304226153N07149668WA0083900793001005088
B1529314226142N07149678WA0083900797001005086
B1529314226142N07149678WA0084300797001008086
B1529324226130N07149684WA0084300798001008085
B1529334226117N07149686WA0084500799001009087
B1529344226104N07149684WA0084600799001007090
B1529354226091N07149678WA0084700800001007095
B1529364226079N07149667WA0084800802001008099
B1529364226079N07149667WA0085000802001009099
B1529374226068N07149652WA0085000803001009103
B1529384226060N07149634WA0085000804001011107
B1529384226060N07149634WA0085200804001011107
B1529394226055N07149614WA0085200806001011109
B1529404226052N07149592WA0085300808001012111
B1529414226052N07149569WA0085500810001013113
B1529424226056N07149547WA0085800813001012114
B1529434226063N07149525WA0085900814001012115
B1529434226063N07149525WA0085900814001012115
B1529444226072N07149506WA0086100816001012115
F152945010306141719212430
B1529454226084N07149489WA0086300818001011114
B1529454226084N07149489WA0086300818001011114
B1529464226097N07149475WA0086500820001009113
B1529474226112N07149464WA0086700821001008113
B1529474226112N07149464WA0086800821001006113
B1529484226128N07149456WA0086800822001006113
B1529494226145N07149452WA0087000823001005112
B1529494226145N07149452WA0087200823001005112
B1529504226161N07149451WA0087200824001005112
B1529514226178N07149453WA0087200825001007113
B1529514226178N07149453WA0087300825001008113
B1529524226195N07149458WA0087300825001008113
B1529524226195N07149458WA0087300825001008113
B1529534226211N07149465WA0087200824001008112
B1529544226226N07149475WA0087200823001008111
B1529554226239N07149488WA0087200823001010110
B1529554226239N07149488WA0087200823001011110
B1529564226251N07149503WA0087200823001011108
B1529574226261N07149520WA0087200824001009105
B1529574226261N07149520WA0087200824001007105
B1529584226269N07149538WA0087200825001007102
B1529584226269N07149538WA0087200825001007102
B1529594226275N07149556WA0087200826001007100
B1530004226280N07149575WA0087300827001005098
B1530014226284N07149594WA0087400828001005096
B1530024226286N07149613WA0087400829001005094
B1530034226286N07149632WA0087500829001004091
B1530044226284N07149650WA0087600829001005088
B1530054226279N07149666WA0087700829001003087
B1530054226279N07149666WA0087700829001003087
B1530064226272N07149681WA0087700829001003086
B1530074226263N07149693WA0087700830001004085
B1530084226252N07149701WA0087800832001005084
B1530084226252N07149701WA0087900832001004084
B1530094226240N07149706WA0087900834001004085
B1530104226227N07149708WA0088100836001005086
B1530114226214N07149706WA0088100836001004087
B1530124226202N07149700WA0088200835001003089
B1530124226202N07149700WA0088200835001003089
B1530134226190N07149691WA0088300834001004094
B1530144226179N07149678WA0088200834001005098
B1530154226170N07149663WA0088200834001005101
B1530164226162N07149644WA0088200834001008103
B1530174226158N07149624WA0088300835001008107
B1530174226158N07149624WA0088300835001008107
B1530184226157N07149602WA0088400836001008112
B1530194226159N07149579WA0088500839001008117
B1530204226165N07149556WA0088600841001005120
B1530214226174N07149535WA0088800844001005121
B1530224226185N07149515WA0089000846001005121
B1530224226185N07149515WA0089200846001006121
B1530234226198N07149498WA0089200848001006122
B1530244226213N07149485WA0089400851001007121
B1530254226230N07149476WA0089600854001009119
B1530264226247N07149470WA0089900857001011116
B1530274226264N07149468WA0090200859001011114
B1530284226281N07149469WA0090400860001011112
B1530284226281N07149469WA0090600860001011112
B1530294226297N07149474WA0090600860001011111
B1530304226313N07149482WA0090700859001008111
B1530314226327N07149494WA0090800859001010111
B1530324226339N07149509WA0090700859001009109
B1530324226339N07149509WA0090700859001009109
B1530334226349N07149526WA0090600860001008104
B1530344226356N07149544WA0090700861001008100
B1530354226360N07149563WA0090800862001008097
B1530354226360N07149563WA0090900862001006097
B1530364226361N07149582WA0090900863001006093
B1530374226360N07149601WA0090900862001005091
B1530384226356N07149618WA0090900860001007090
B1530394226349N07149634WA0090800858001005089
B1530404226340N07149647WA0090700857001006090
B1530404226340N07149647WA0090600857001006090
B1530414226328N07149656WA0090600858001006090
B1530414226328N07149656WA0090600858001007090
B1530424226315N07149661WA0090600860001007090
B1530434226302N07149663WA0090700863001007089
B1530444226289N07149660WA0090900865001005090
B1530454226276N07149654WA0091100868001008091
B1530454226276N07149654WA0091300868001007091
F153046010306141719212430133
B1530464226264N07149645WA0091300870001007091
B1530474226254N07149633WA0091600871001005093
B1530474226254N07149633WA0091700871001002093
B1530484226244N07149619WA0091700871001002095
B1530494226236N07149603WA0091700871001004098
B1530504226230N07149584WA0091800872001004101
B1530514226226N07149564WA0091900874001004104
B1530524226226N07149543WA0092100877001004107
B1530534226228N07149521WA0092300880001002109
B1530544226233N07149500WA0092500884001004110
B1530554226241N07149480WA0092900886001002111
B1530564226252N07149463WA0093200889001003111
B1530564226252N07149463WA0093500889001005111
B1530574226264N07149448WA0093500891001005111
B1530584226278N07149437WA0093700894001005110
B1530594226294N07149429WA0094000896001005110
B1531004226310N07149424WA0094200898001005109
B1531014226326N07149424WA0094400898001005109
B1531024226343N07149427WA0094500899001005110
B1531034226358N07149433WA0094600898001004109
B1531044226373N07149442WA0094600898001004107
B1531054226386N07149454WA0094600897001004106
B1531064226398N07149469WA0094500896001003105
B1531064226398N07149469WA0094500896001003105
B1531074226407N07149486WA0094400896001004103
B1531084226413N07149505WA0094300896001005100
B1531094226417N07149524WA0094300896001004096
B1531094226417N07149524WA0094300896001004096
B1531104226419N07149543WA0094300896001004093
B1531114226418N07149561WA0094300896001003091
B1531124226414N07149579WA0094200895001003089
B1531124226414N07149579WA0094200895001005089
B1531134226408N07149595WA0094200894001005087
B1531144226400N07149608WA0094200895001006085
B1531154226390N07149618WA0094200896001005084
B1531164226378N07149624WA0094200897001005085
B1531174226365N07149625WA0094300898001004087
B1531184226352N07149622WA0094400898001004089
B1531184226352N07149622WA0094400898001004089
B1531194226340N07149614WA0094400899001005091
B1531204226329N07149603WA0094500899001005093
B1531214226319N07149589WA0094500898001005096
B1531224226311N07149572WA0094400897001005102
B1531234226306N07149552WA0094400897001004106
B1531234226306N07149552WA0094500897001004106
B1531244226304N07149530WA0094500899001004108
B1531254226304N07149508WA0094600902001003111
B1531264226308N07149486WA0094800905001002112
B1531274226316N07149466WA0095100908001002113
B1531274226316N07149466WA0095300908001004113
B1531284226326N07149447WA0095300910001004113
B1531294226338N07149432WA0095600912001005114
B1531304226353N07149420WA0095700913001005114
B1531304226353N07149420WA0095700913001005114
B1531314226369N07149413WA0095900914001004113
B1531324226386N07149409WA0096100915001003112
B1531334226402N07149410WA0096100915001004110
B1531344226418N07149414WA0096200915001004109
B1531354226433N07149422WA0096300915001005107
B1531364226447N07149433WA0096200915001004106
B1531374226459N07149446WA0096200915001005104
B1531384226469N07149462WA0096200914001006102
B1531384226469N07149462WA0096100914001005102
B1531394226478N07149479WA0096100913001005101
B1531404226484N07149497WA0095900910001005100
B1531414226487N07149517WA0095800908001005100
B1531424226487N07149537WA0095600907001005098
B1531434226485N07149556WA0095500906001006095
B1531444226480N07149574WA0095400906001009092
B1531454226472N07149589WA0095300907001012089
B1531464226463N07149601WA0095300907001013087
B1531474226451N07149609WA0095400908001012087
B1531474226451N07149609WA0095500908001011087
B1531484226438N07149612WA0095500910001011089
B1531494226425N07149611WA0095700912001009091
B1531504226411N07149606WA0095800913001008093
B1531504226411N07149606WA0095800913001009093
B1531514226399N07149598WA0095800912001009095
B1531524226386N07149588WA0095900911001008098
F153153010306141719212430
B1531534226376N07149574WA0095900909001009103
B1531534226376N07149574WA0095900909001009103
B1531544226367N07149556WA0095900907001009107
B1531554226361N07149535WA0095600904001011111
B1531564226358N07149512WA0095400903001009115
B1531574226359N07149489WA0095300904001008118
B1531584226362N07149465WA0095500907001008117
B1531594226368N07149443WA0095600911001010115
B1532004226377N07149424WA0096000914001008112
B1532014226388N07149407WA0096500914001008108
B1532024226401N07149393WA0096700915001005112
B1532024226401N07149393WA0097000915001005112
B1532034226416N07149383WA0097000915001005113
B1532044226432N07149376WA0097200917001005113
B1532044226432N07149376WA0097300917001005113
B1532054226449N07149372WA0097300918001005112
B1532054226449N07149372WA0097300918001004112
B1532064226466N07149373WA0097300919001004110
B1532074226482N07149377WA0097300919001004107
B1532084226497N07149385WA0097400920001005105
B1532094226510N07149396WA0097400920001005102
B1532094226510N07149396WA0097500920001003102
B1532104226521N07149410WA0097500921001003098
B1532114226529N07149427WA0097400921001002095
B1532124226534N07149444WA0097400921001002092
B1532134226536N07149462WA0097400919001003090
B1532144226535N07149480WA0097100918001004088
B1532154226532N07149497WA0097000916001005086
B1532154226532N07149497WA0096800916001004086
B1532164226526N07149512WA0096800914001004086
B1532174226518N07149526WA0096700914001005086
B1532174226518N07149526WA0096600914001005086
B1532184226508N07149537WA0096600914001005085
B1532194226497N07149544WA0096600915001005086
B1532194226497N07149544WA0096600915001005086
B1532204226484N07149547WA0096600916001005088
B1532204226484N07149547WA0096600916001006088
B1532214226471N07149545WA0096600917001006092
B1532224226457N07149539WA0096700920001005093
B1532234226445N07149530WA0096900921001006094
B1532244226434N07149519WA0097000922001006095
B1532254226424N07149504WA0097100922001005098
B1532264226416N07149487WA0097200921001005103
B1532274226411N07149467WA0097100919001005107
B1532284226407N07149445WA0097000918001005111
B1532284226407N07149445WA0097000918001005111
B1532294226407N07149422WA0096800917001005115
B1532304226410N07149399WA0096800919001005119
B1532314226416N07149376WA0096900923001005119
B1532314226416N07149376WA0096900923001005119
B1532324226426N07149357WA0097100928001005116
B1532334226439N07149341WA0097500933001005113
B1532334226439N07149341WA0098000933001005113
B1532344226453N07149329WA0098000937001005110
B1532354226468N07149321WA0098300939001004107
B1532364226484N07149317WA0098600940001005105
B1532374226500N07149316WA0098800941001003105
B1532384226515N07149318WA0098900940001004105
B1532394226530N07149324WA0098900940001003103
B1532404226544N07149333WA0098800938001002102
B1532414226557N07149344WA0098700936001000102
B1532424226568N07149358WA0098600935001000100
B1532434226577N07149373WA0098400934001000097
B1532434226577N07149373WA0098300934001003097
B1532444226584N07149390WA0098300934001003093
B1532454226588N07149408WA0098300935001002089
B1532464226590N07149425WA0098200934001002087
B1532474226590N07149442WA0098200934001001085
B1532474226590N07149442WA0098200934001001085
B1532484226589N07149459WA0098200933001001084
B1532484226589N07149459WA0098000933001002084
B1532494226585N07149475WA0098000932001002083
B1532504226581N07149491WA0098300931001003083
B1532514226575N07149506WA0098300930001002085
B1532524226570N07149522WA0098200928001000087
B1532534226565N07149539WA0098100927001001090
B1532534226565N07149539WA0098000927001001090
F153254010306141719212430133
B1532544226561N07149557WA0098000926001001092
B1532554226557N07149575WA0098000927001002092
B1532554226557N07149575WA0098000927001000092
B1532564226553N07149592WA0098000929001000090
B1532574226548N07149609WA0098100932001000088
B1532584226543N07149625WA0098500935001000084
B1532594226539N07149641WA0098700937001000082
B1533004226536N07149657WA0098900938001000082
B1533014226534N07149673WA0099100939001000083
B1533014226534N07149673WA0099200939001000083
B1533024226535N07149690WA0099200939001000086
B1533034226539N07149707WA0099100938001000089
B1533044226544N07149724WA0098900938001003093
B1533044226544N07149724WA0098900938001003093
B1533054226552N07149740WA0098800939001002096
B1533064226562N07149755WA0098800940001003099
B1533064226562N07149755WA0098800940001003099
B1533074226574N07149767WA0098900942001003101
B1533074226574N07149767WA0099000942001004101
B1533084226588N07149777WA0099100945001004102
B1533094226602N07149783WA0099300947001004102
B1533104226617N07149787WA0099400949001003103
B1533114226633N07149788WA0099600951001003103
B1533124226648N07149787WA0099900952001002101
B1533134226663N07149784WA0100000953001003100
B1533134226663N07149784WA0100200953001003100
B1533144226677N07149778WA0100200955001003100
B1533154226691N07149769WA0100300955001003100
B1533154226691N07149769WA0100400955001003100
B1533164226704N07149758WA0100400954001003100
B1533174226715N07149745WA0100400953001003102
B1533184226726N07149730WA0100300952001003103
B1533184226726N07149730WA0100300952001003103
B1533194226735N07149713WA0100100951001002103
B1533194226735N07149713WA0100100951001002103
B1533204226742N07149695WA0100100950001002104
B1533214226747N07149675WA0100000950001003102
B1533224226750N07149655WA0100000950001002101
B1533234226751N07149635WA0099900950001000099
B1533234226751N07149635WA0100000950001000099
B1533244226750N07149615WA0100000950001000097
B1533254226746N07149596WA0100000951001000095
B1533264226741N07149579WA0100100952001000092
B1533274226734N07149563WA0100100952001000088
B1533284226725N07149550WA0100200953001000085
B1533294226716N07149539WA0100200953001000082
B1533304226705N07149531WA0100300953001000080
B1533304226705N07149531WA0100300953001000080
B1533314226694N07149526WA0100300954001000078
B1533314226694N07149526WA0100400954001000078
B1533324226683N07149524WA0100400954001000077
B1533334226671N07149524WA0100400955001001075
B1533344226660N07149526WA0100500956001002075
B1533354226649N07149530WA0100600958001001074
B1533364226639N07149534WA0100700960001000073
B1533374226629N07149540WA0100800961001000071
B1533384226620N07149547WA0101000961001001070
B1533394226611N07149556WA0101000961001000070
B1533404226604N07149566WA0101000960001001072
B1533404226604N07149566WA0101000960001001072
B1533414226598N07149578WA0100900959001002074
B1533424226593N07149592WA0100800958001002077
B1533434226590N07149607WA0100800958001001080
B1533444226589N07149624WA0100700958001001081
B1533454226589N07149640WA0100700958001001082
B1533464226591N07149657WA0100700958001003084
B1533474226594N07149674WA0100700959001002085
B1533474226594N07149674WA0100800959001002085
B1533484226598N07149690WA0100800960001002085
B1533494226603N07149706WA0100900962001000085
B1533504226608N07149722WA0101000963001000085
B1533514226614N07149737WA0101200965001000084
B1533524226621N07149751WA0101400966001000084
B1533534226627N07149766WA0101500967001000084
B1533544226634N07149780WA0101600966001000085
B1533554226640N07149796WA0101500965001000088
B1533564226647N07149812WA0101400964001000091
B1533574226653N07149828WA0101500965001000091
B1533584226658N07149845WA0101500966001000091
B1533584226658N07149845WA0101500966001000091
B1533594226661N07149863WA0101500967001000089
B1534004226661N07149881WA0101600968001000088
B1534004226661N07149881WA0101700968001000088
B1534014226660N07149898WA0101700969001000086
B1534024226655N07149915WA0101800970001000085
B1534024226655N07149915WA0101900970001000085
B1534034226648N07149929WA0101900971001000084
B1534044226639N07149941WA0101900972001000084
B1534054226628N07149949WA0102100973001000085
B1534064226616N07149953WA0102200974001000086
B1534074226603N07149953WA0102300975001000088
B1534084226590N07149950WA0102400976001000091
B1534094226577N07149943WA0102400976001000093
B1534104226565N07149933WA0102400976001000095
B1534114226554N07149920WA0102400974001000097
B1534124226545N07149904WA0102300970001001100
F153413010306141719212430
B1534134226538N07149886WA0102100968001001106
B1534134226538N07149886WA0102000968001002106
B1534144226532N07149865WA0102000967001002110
B1534154226530N07149842WA0101900968001002113
B1534164226531N07149819WA0101900971001000113
B1534174226534N07149797WA0102100975001000111
B1534184226539N07149776WA0102300978001000109
B1534194226545N07149756WA0102600980001000108
B1534204226554N07149737WA0102700980001000107
B1534214226564N07149721WA0102800979001000108
B1534224226576N07149706WA0102800978001000109
B1534234226590N07149694WA0102700978001002109
B1534244226605N07149684WA0102700978001000108
B1534254226620N07149678WA0102600978001000107
B1534264226636N07149674WA0102700978001000107
B1534274226652N07149672WA0102700979001000107
B1534284226668N07149673WA0102700980001000105
B1534284226668N07149673WA0102800980001001105
B1534294226683N07149675WA0102800982001001103
B1534304226698N07149680WA0103000984001000100
B1534314226712N07149686WA0103100986001000097
B1534314226712N07149686WA0103200986001000097
B1534324226725N07149695WA0103200986001000095
B1534334226736N07149706WA0103300986001000094
B1534344226746N07149719WA0103300984001000093
B1534354226755N07149734WA0103200983001003093
B1534354226755N07149734WA0103100983001004093
B1534364226761N07149751WA0103100982001004093
B1534374226765N07149769WA0103100983001003092
B1534384226767N07149787WA0103200986001002089
B1534394226767N07149804WA0103300989001000085
B1534404226764N07149821WA0103500991001000082
B1534414226760N07149836WA0103800993001000081
B1534424226753N07149849WA0103900993001000080
B1534424226753N07149849WA0103900993001000080
B1534434226744N07149860WA0104000993001001079
B1534444226734N07149868WA0104000993001002080
B1534454226722N07149873WA0104000992001002083
B1534464226709N07149875WA0104000991001003086
B1534474226697N07149873WA0103900991001002088
B1534474226697N07149873WA0103900991001002088
B1534484226684N07149868WA0103900992001002089
B1534494226672N07149859WA0104000993001001090
B1534504226661N07149848WA0104200993001000091
B1534514226652N07149835WA0104300994001000092
B1534524226644N07149819WA0104400995001000093
B1534534226638N07149802WA0104500994001000095
B1534534226638N07149802WA0104500994001000095
B1534544226634N07149783WA0104500994001000098
B1534554226632N07149763WA0104500995001000102
B1534564226632N07149742WA0104500995001000105
B1534574226635N07149721WA0104600997001000107
B1534584226639N07149700WA0104700998001000107
B1534594226646N07149680WA0104801000001000106
B1535004226654N07149662WA0104901001001000105
B1535014226664N07149646WA0105001001001000104
B1535024226675N07149631WA0105101001001000103
B1535034226687N07149619WA0105101001001000104
B1535044226701N07149609WA0105101001001000105
B1535054226716N07149601WA0105101002001000106
B1535064226732N07149596WA0105101003001000106
B1535074226747N07149593WA0105201004001000105
B1535084226763N07149593WA0105301006001000103
B1535094226778N07149594WA0105501007001000101
B1535104226793N07149598WA0105601007001000098
B1535114226807N07149602WA0105601006001000097
B1535124226820N07149609WA0105501005001000096
B1535134226833N07149618WA0105501004001000095
F153514010306141719212430133
B1535144226845N07149629WA0105401004001000093
B1535154226856N07149640WA0105301003001000091
B1535164226866N07149652WA0105201001001000092
B1535174226876N07149665WA0105100999001000094
B1535184226887N07149678WA0105000997001000097
B1535194226898N07149691WA0104900994001000099
B1535204226910N07149705WA0104600990001000103
B1535214226922N07149719WA0104300986001000107
B1535224226934N07149733WA0103900982001000110
B1535234226947N07149748WA0103600980001000112
B1535234226947N07149748WA0103300980001000112
B1535244226960N07149762WA0103300978001000114
B1535254226973N07149777WA0103100977001000114
B1535264226986N07149791WA0103000978001000114
B1535274227000N07149805WA0103000979001000113
B1535284227013N07149819WA0103100980001000112
B1535294227027N07149833WA0103200981001000111
B1535304227040N07149846WA0103300983001002110
B1535314227054N07149859WA0103400984001000109
B1535324227067N07149872WA0103500985001000108
B1535334227080N07149884WA0103600985001000108
B1535344227093N07149897WA0103700985001000107
B1535354227106N07149909WA0103700985001000107
B1535364227119N07149922WA0103700985001000106
B1535374227132N07149935WA0103600983001000106
B1535384227144N07149949WA0103500981001000107
B1535394227157N07149963WA0103400979001000109
B1535404227169N07149977WA0103300979001000110
B1535414227182N07149991WA0103200980001000109
B1535424227195N07150004WA0103300981001000108
B1535434227208N07150016WA0103400984001000105
B1535444227221N07150029WA0103500986001000103
B1535454227233N07150041WA0103800988001000101
B1535464227246N07150052WA0104000990001000099
B1535474227258N07150063WA0104100990001000099
B1535484227271N07150073WA0104100989001000099
B1535494227284N07150084WA0104100989001000099
B1535504227296N07150094WA0104100987001000100
B1535514227310N07150104WA0103900984001000102
B1535524227323N07150115WA0103800981001000105
B1535534227337N07150126WA0103500979001000109
B1535544227351N07150138WA0103300977001000109
B1535554227364N07150151WA0103100977001000109
B1535564227376N07150165WA0103000977001000107
B1535574227389N07150178WA0103000978001000106
B1535584227401N07150192WA0103200980001000104
B1535594227413N07150205WA0103300982001000102
B1536004227425N07150217WA0103400983001000101
B1536014227437N07150229WA0103500984001000100
B1536024227449N07150241WA0103500983001000100
B1536034227461N07150254WA0103500981001000101
B1536044227473N07150268WA0103300978001000104
B1536054227484N07150283WA0103100975001000106
B1536064227495N07150299WA0103000974001000108
B1536074227507N07150314WA0102900975001000108
B1536084227519N07150328WA0102900976001000108
B1536084227519N07150328WA0103000976001000108
B1536094227532N07150342WA0103000977001000107
B1536104227544N07150355WA0103100979001000106
B1536114227557N07150368WA0103200981001000104
B1536114227557N07150368WA0103300981001000104
B1536124227569N07150380WA0103300982001000104
B1536134227582N07150393WA0103500983001000103
B1536144227594N07150405WA0103600984001000102
B1536154227606N07150418WA0103700984001000101
B1536164227617N07150432WA0103700983001000101
B1536174227629N07150445WA0103700982001000102
B1536184227641N07150458WA0103600982001000103
B1536194227653N07150471WA0103600981001000104
B1536204227665N07150484WA0103500980001000105
B1536214227678N07150497WA0103400980001000106
B1536224227690N07150510WA0103500981001000105
B1536224227690N07150510WA0103500981001000105
B1536234227703N07150523WA0103500984001000104
B1536244227715N07150535WA0103700987001000101
B1536254227727N07150547WA0103900990001000098
B1536264227738N07150559WA0104200993001000095
B1536274227750N07150570WA0104500996001000092
B1536284227761N07150581WA0104700998001000090
B1536294227771N07150592WA0104900999001000088
B1536304227782N07150603WA0105100999001000088
B1536304227782N07150603WA0105100999001000088
B1536314227792N07150615WA0105100999001000088
B1536324227801N07150627WA0105100997001000088
B1536334227810N07150640WA0105000996001000088
B1536344227819N07150654WA0104900996001000088
B1536354227827N07150667WA0104900995001000088
B1536364227835N07150682WA0104900995001000087
B1536374227841N07150697WA0104800995001000085
B1536384227847N07150712WA0104800995001000083
B1536384227847N07150712WA0104800995001000083
B1536394227852N07150727WA0104800995001000083
B1536404227857N07150743WA0104700994001000083
B1536414227862N07150758WA0104700992001000085
B1536424227868N07150774WA0104600991001000086
B1536434227875N07150789WA0104500990001000087
B1536444227882N07150804WA0104400989001000088
B1536454227889N07150818WA0104300987001000088
B1536464227896N07150834WA0104200986001000090
B1536474227902N07150850WA0104000984001000091
B1536484227908N07150868WA0103900983001000094
B1536494227913N07150885WA0103800983001000095
B1536504227918N07150903WA0103800984001000094
B1536514227924N07150920WA0103800986001000093
B1536524227930N07150937WA0103900987001000091
B1536534227936N07150954WA0104000988001000089
B1536544227942N07150970WA0104200989001000088
B1536554227948N07150986WA0104200990001000089
B1536564227955N07151001WA0104300990001000090
B1536574227962N07151017WA0104300989001000092
B1536584227968N07151033WA0104400990001000091
B1536594227974N07151050WA0104400990001000090
B1537004227978N07151067WA0104500992001000088
B1537014227980N07151085WA0104600993001000085
B1537024227980N07151102WA0104700994001000083
B1537034227978N07151118WA0104800995001000082
B1537044227973N07151134WA0104900997001000082
B1537054227967N07151148WA0105000998001000082
B1537064227960N07151161WA0105100998001000082
B1537074227951N07151174WA0105300997001000084
B1537074227951N07151174WA0105300997001000084
B1537084227942N07151185WA0105300997001000084
B1537094227932N07151196WA0105200997001000084
B1537104227924N07151208WA0105100997001000083
B1537114227916N07151222WA0105000997001000084
B1537124227909N07151236WA0105000996001000084
B1537134227903N07151251WA0104900996001000084
B1537144227899N07151267WA0104800995001000084
B1537154227895N07151283WA0104800995001000083
B1537164227891N07151299WA0104900995001000083
B1537174227889N07151316WA0104800995001000082
B1537184227889N07151333WA0104800995001000082
B1537194227890N07151349WA0104800995001000083
B1537204227893N07151366WA0104700994001000085
B1537214227897N07151382WA0104600993001000087
B1537224227904N07151398WA0104500991001000089
B1537234227911N07151413WA0104400989001000092
B1537244227921N07151427WA0104300987001000096
B1537254227932N07151441WA0104100986001000099
B1537264227944N07151453WA0104000985001000102
B1537274227957N07151465WA0103800984001000105
B1537284227971N07151476WA0103800983001000108
B1537294227985N07151486WA0103700983001000109
B1537304228000N07151495WA0103800986001000109
B1537314228015N07151503WA0103900989001000106
B1537324228030N07151508WA0104200993001000104
B1537334228046N07151510WA0104500996001000104
B1537344228061N07151510WA0104500998001001104
B1537344228061N07151510WA0104600998001001104
B1537354228077N07151505WA0104600998001001106
B1537364228092N07151498WA0104600999001001108
B1537374228107N07151490WA0104600999001002108
B1537384228121N07151480WA0104701000001002108
B1537394228135N07151468WA0104801000001003110
B1537404228148N07151454WA0104801001001002111
B1537414228161N07151439WA0104901002001002112
B1537424228172N07151423WA0105001002001002112
B1537434228183N07151405WA0104901001001001113
B1537444228192N07151385WA0104901000001001113
B1537454228199N07151365WA0104901001001003115
B1537464228205N07151343WA0104901001001002114
B1537474228209N07151320WA0104901000001002115
B1537474228209N07151320WA0104801000001001115
B1537484228210N07151297WA0104800999001001116
B1537494228210N07151273WA0104700999001001116
B1537504228208N07151250WA0104700999001002116
B1537514228204N07151227WA0104801000001002113
B1537524228198N07151206WA0104801000001001111
B1537534228190N07151187WA0104801000001000109
B1537534228190N07151187WA0104901000001000109
B1537544228180N07151169WA0104901001001000106
B1537554228170N07151154WA0105001001001000104
B1537564228158N07151141WA0105001001001000101
B1537574228145N07151130WA0105001002001000099
B1537584228132N07151122WA0105001002001000097
B1537584228132N07151122WA0105001002001000097
B1537594228118N07151117WA0105001001001000095
B1538004228104N07151114WA0105001000001000094
B1538014228090N07151115WA0104900998001000093
B1538024228076N07151118WA0104800997001002092
B1538034228063N07151123WA0104700997001002091
B1538044228050N07151129WA0104700998001003090
B1538054228038N07151137WA0104700998001005088
B1538054228038N07151137WA0104700998001006088
B1538064228026N07151144WA0104700999001006085
B1538074228015N07151152WA0104801001001005083
B1538084228004N07151160WA0104901002001005081
B1538094227994N07151168WA0105001003001003080
B1538104227984N07151176WA0105001004001003079
B1538114227974N07151185WA0105101004001003079
B1538124227964N07151195WA0105101004001003079
B1538134227955N07151205WA0105101004001002079
B1538144227946N07151215WA0105101003001002079
B1538154227936N07151223WA0105001002001002080
B1538164227925N07151231WA0104901001000002082
B1538174227913N07151237WA0104800997000002086
B1538184227900N07151241WA0104700992001002092
B1538194227886N07151244WA0104500988001000096
B1538204227871N07151247WA0104100984001000099
B1538214227856N07151251WA0103700982001000101
B1538224227841N07151253WA0103500979001004102
B1538234227826N07151255WA0103100976001011105
B1538244227810N07151257WA0102900972001011108
B1538254227793N07151257WA0102600969001013110
B1538264227777N07151257WA0102200966001015112
B1538274227760N07151257WA0101800963001023113
B1538284227743N07151257WA0101500959001026113
B1538294227726N07151257WA0101100955001027115
B1538304227708N07151257WA0100800952001030116
B1538314227691N07151258WA0100500950001030117
B1538324227673N07151259WA0100300949001032117
B1538324227673N07151259WA0100300949001032117
B1538334227656N07151260WA0100100947001036116
B1538344227639N07151262WA0099800945001040116
B1538344227639N07151262WA0099700945001040116
B1538354227621N07151264WA0099700943001039115
B1538364227604N07151267WA0099500941001039115
B1538374227587N07151268WA0099300939001041116
B1538384227570N07151270WA0099100937001042116
B1538394227552N07151272WA0098800934001039117
B1538404227535N07151274WA0098600931001042118
B1538414227517N07151277WA0098300928001039118
B1538424227500N07151281WA0098100926001030119
B1538434227482N07151286WA0097900925001023118
B1538444227465N07151290WA0097900927001020116
B1538454227448N07151292WA0097900929001016114
B1538464227431N07151293WA0098100931001013112
B1538474227414N07151291WA0098200932001013111
B1538484227398N07151290WA0098300933001010109
B1538494227382N07151289WA0098300934001006107
B1538504227366N07151289WA0098400935001003106
B1538514227350N07151290WA0098500936001001105
B1538524227334N07151291WA0098500935001000104
B1538534227319N07151292WA0098500935001000104
B1538544227303N07151294WA0098500934001000105
B1538554227287N07151294WA0098400932001000105
B1538564227272N07151295WA0098300931001000105
B1538574227256N07151297WA0098100929001000104
B1538584227240N07151299WA0098000928001000104
B1538594227225N07151303WA0097900926001000104
B1539004227210N07151307WA0097700924001000105
B1539014227194N07151312WA0097500922001000106
B1539024227179N07151317WA0097400922001000106
B1539034227163N07151323WA0097300923001000105
B1539044227149N07151329WA0097400925001000102
B1539054227134N07151336WA0097600928001000099
B1539064227121N07151343WA0097800931001000096
B1539074227108N07151349WA0098000934001000092
B1539084227095N07151356WA0098200936001000090
B1539094227083N07151363WA0098400936001000088
B1539104227071N07151371WA0098500934001000088
B1539114227059N07151380WA0098400932001000089
B1539124227048N07151390WA0098300930001000091
B1539124227048N07151390WA0098200930001000091
B1539134227037N07151401WA0098200930001000092
B1539144227026N07151412WA0098200931001000092
B1539154227015N07151422WA0098300933001000090
B1539164227004N07151433WA0098400936001000087
B1539174226993N07151442WA0098700940001000084
B1539184226983N07151452WA0098900942001000081
B1539194226974N07151462WA0099100944001000079
B1539204226965N07151472WA0099300944001000077
B1539214226957N07151483WA0099400943001000076
B1539214226957N07151483WA0099300943001000076
B1539224226948N07151494WA0099300940001000078
B1539234226939N07151505WA0099000936001000082
B1539244226930N07151516WA0098800930000000087
B1539254226919N07151527WA0098300925000000093
B1539264226908N07151539WA0098000922000000097
B1539274226897N07151552WA0097600920000000097
B1539284226886N07151564WA0097500921000000096
B1539294226876N07151578WA0097400922000000093
B1539304226866N07151591WA0097300922000000091
B1539314226856N07151603WA0097300921000000090
B1539324226846N07151616WA0097100918000004090
B1539334226836N07151628WA0097000915000006093
B1539344226825N07151641WA0096700912000006096
B1539354226814N07151654WA0096500908000002099
B1539364226803N07151668WA0096100906000000103
B1539374226791N07151682WA0095900904000000105
B1539384226779N07151696WA0095700903000000106
B1539394226767N07151710WA0095700904000000105
B1539404226756N07151725WA0095600904000000104
B1539414226744N07151739WA0095600905000000103
B1539414226744N07151739WA0095700905000000103
B1539424226732N07151752WA0095700905000000103
B1539434226720N07151764WA0095700906000000104
B1539444226706N07151775WA0095700904000000105
B1539454226693N07151786WA0095600902000000106
B1539464226679N07151798WA0095500901000000108
B1539474226666N07151812WA0095400901000000107
B1539474226666N07151812WA0095300901000000107
B1539484226654N07151825WA0095300902000000105
B1539494226643N07151839WA0095400903000000103
B1539494226643N07151839WA0095400903000000103
B1539504226632N07151854WA0095400903000000101
B1539514226621N07151867WA0095500905000000099
B1539524226610N07151881WA0095600906000000097
B1539534226599N07151893WA0095600906000000096
B1539534226599N07151893WA0095700906000000096
B1539544226587N07151905WA0095700905000000095
B1539554226576N07151917WA0095600904000000095
B1539564226565N07151928WA0095500902000000096
B1539574226553N07151940WA0095300900000000098
B1539584226541N07151951WA0095100897000000100
B1539594226527N07151961WA0094900893000000104
B1539594226527N07151961WA0094500893000000104
B1540004226513N07151970WA0094500889000000108
B1540014226497N07151979WA0094300886000000111
B1540024226482N07151988WA0094000886000000111
B1540034226467N07151998WA0093900887000000110
B1540034226467N07151998WA0094000887000000110
B1540044226452N07152007WA0094000890000000108
B1540054226438N07152016WA0094300894001000104
B1540054226438N07152016WA0094500894001000104
B1540064226424N07152024WA0094500899001000099
B1540074226411N07152031WA0095000903001000095
B1540084226398N07152039WA0095300906001000092
B1540094226386N07152048WA0095500906001000090
B1540104226375N07152058WA0095700904001000090
B1540114226364N07152070WA0095600902001000092
B1540114226364N07152070WA0095400902001000092
B1540124226356N07152084WA0095400900001000094
B1540134226349N07152102WA0095200898001000096
B1540144226346N07152121WA0095100896001000098
F154015010306141719212430133
B1540154226345N07152140WA0095000896001000100
B1540164226347N07152161WA0094900896001000101
B1540174226353N07152180WA0094900895001000102
B1540184226362N07152197WA0094900895001000103
B1540194226373N07152211WA0094800894001000106
B1540204226387N07152222WA0094700892001000109
B1540204226387N07152222WA0094600892001000109
B1540214226402N07152232WA0094600891001000111
B1540224226418N07152238WA0094500890001000113
B1540234226435N07152242WA0094400890001000114
B1540234226435N07152242WA0094400890001000114
B1540244226452N07152241WA0094400891001000113
B1540254226469N07152237WA0094400891001000113
B1540264226485N07152229WA0094500891001000112
B1540274226500N07152219WA0094400891001000111
B1540284226513N07152206WA0094400891001000110
B1540294226526N07152192WA0094500892001000108
B1540304226537N07152176WA0094600894001000108
B1540314226546N07152158WA0094800896001000106
B1540324226555N07152140WA0094800897001000105
B1540334226562N07152121WA0094900897001000105
B1540344226569N07152102WA0094900895001000105
B1540354226576N07152083WA0094800893001000107
B1540364226582N07152062WA0094700891001000108
B1540374226587N07152041WA0094500888001000109
B1540384226590N07152020WA0094300885001000110
B1540394226593N07151998WA0094100882001000111
B1540404226594N07151975WA0093800879001000112
B1540414226594N07151952WA0093500876001000113
B1540424226592N07151930WA0093100873001000114
B1540434226589N07151907WA0092800870001000115
B1540444226585N07151884WA0092600868001000117
B1540454226580N07151861WA0092400867001000118
B1540464226575N07151838WA0092200866001000118
B1540474226568N07151816WA0092100866001000117
B1540484226561N07151795WA0092100867001000116
B1540494226552N07151775WA0092100867001000115
B1540504226543N07151755WA0092100867001000115
B1540514226534N07151735WA0092100867001000116
B1540524226525N07151715WA0092000866001000117
B1540534226516N07151694WA0092000865001000118
B1540534226516N07151694WA0091900865001000118
B1540544226507N07151674WA0091900864001000118
B1540554226497N07151654WA0091800863001000117
B1540564226486N07151635WA0091700862001000116
B1540574226475N07151617WA0091600861001001116
B1540584226464N07151600WA0091500859001001115
B1540594226452N07151583WA0091400858001008115
B1540594226452N07151583WA0091300858001005115
B1541004226439N07151567WA0091300858001005114
B1541014226426N07151552WA0091200858001003114
B1541024226412N07151539WA0091200858001001113
B1541034226398N07151526WA0091200858001000112
B1541044226383N07151516WA0091200858001000111
B1541054226368N07151509WA0091200858001000110
B1541064226352N07151503WA0091200857001000109
B1541074226336N07151499WA0091200856001000109
B1541084226319N07151496WA0091000854001000109
B1541094226303N07151494WA0090900853001000110
B1541104226287N07151492WA0090800853001000109
B1541114226270N07151491WA0090700853001000109
B1541124226254N07151488WA0090700853001000109
B1541134226238N07151484WA0090700853001000109
B1541144226222N07151479WA0090700853001000109
B1541154226207N07151472WA0090600853001000109
F154116010306141719212430
B1541164226191N07151466WA0090600852001000108
B1541174226175N07151461WA0090600853001000108
B1541184226160N07151455WA0090500852001000107
B1541194226145N07151450WA0090400850001007106
B1541204226129N07151444WA0090300848001016106
B1541214226114N07151439WA0090100847001016106
B1541224226098N07151435WA0090000846001011106
B1541234226082N07151431WA0089900846001011106
B1541244226067N07151428WA0089800845001007105
B1541254226051N07151427WA0089700842001004104
B1541264226035N07151426WA0089500839001007105
B1541274226020N07151427WA0089200837001014106
B1541284226004N07151428WA0089000835001014106
B1541294225988N07151428WA0088800834001008106
B1541304225972N07151427WA0088700833001007105
B1541314225956N07151427WA0088600832001010104
B1541324225941N07151426WA0088500831001017104
B1541334225925N07151425WA0088400830001015104
B1541344225910N07151422WA0088300829001012105
B1541344225910N07151422WA0088100829001012105
B1541354225894N07151418WA0088100826001012107
B1541364225878N07151413WA0087900822001010110
B1541374225862N07151406WA0087500818001006113
B1541384225846N07151399WA0087200815001004116
B1541394225830N07151389WA0086900812001002118
B1541404225814N07151379WA0086600808001000120
B1541414225798N07151367WA0086300805001000122
B1541424225782N07151354WA0086100803001001123
B1541434225766N07151340WA0085700801001003124
B1541444225752N07151325WA0085500798001002125
B1541454225737N07151308WA0085300795001006127
B1541464225723N07151291WA0085000793001006127
B1541474225709N07151273WA0084800792001006127
B1541484225694N07151257WA0084600791001005126
B1541494225680N07151241WA0084400790001005125
B1541504225664N07151227WA0084300789001004123
B1541504225664N07151227WA0084300789001003123
B1541514225649N07151212WA0084300790001003122
B1541524225635N07151198WA0084300791001002119
B1541534225620N07151184WA0084300791001000117
B1541544225607N07151169WA0084400792001000115
B1541554225594N07151155WA0084400791001005114
B1541564225580N07151140WA0084400790001005113
B1541574225567N07151127WA0084300788001003114
B1541584225552N07151114WA0084200786001001114
B1541594225538N07151101WA0084100784001001115
B1542004225523N07151088WA0083900783001000115
B1542014225509N07151075WA0083700782001000116
B1542014225509N07151075WA0083600782001000116
B1542024225495N07151061WA0083600781001000116
B1542034225482N07151046WA0083600781001000116
B1542044225469N07151031WA0083500779001000116
B1542054225456N07151015WA0083300777001000116
B1542064225443N07150999WA0083100774001000117
B1542074225429N07150984WA0082900772001000118
B1542084225416N07150968WA0082700770001000118
B1542094225402N07150953WA0082500769001000118
B1542094225402N07150953WA0082300769001000118
B1542104225388N07150938WA0082300767001000118
B1542114225374N07150923WA0082200767001000119
B1542124225361N07150908WA0082100767001000119
B1542124225361N07150908WA0082100767001000119
B1542134225348N07150892WA0082100767001000119
B1542144225335N07150875WA0082100767001000118
B1542154225322N07150859WA0082000766001000118
B1542164225309N07150842WA0082000764001000118
F154217010306141719212430133
B1542174225296N07150827WA0081800762001000118
B1542184225282N07150812WA0081600759001000119
B1542194225267N07150798WA0081400758001000120
B1542204225252N07150785WA0081200756001000120
B1542214225237N07150772WA0081100755001000119
B1542224225222N07150759WA0081000755001000120
B1542234225207N07150745WA0080900755001000120
B1542244225192N07150730WA0080800754001000121
B1542254225178N07150715WA0080700751001000122
B1542264225163N07150700WA0080500749001000123
B1542274225148N07150686WA0080300746001000125
B1542284225132N07150672WA0080100744001000125
B1542284225132N07150672WA0079900744001000125
B1542294225116N07150658WA0079900743001000124
B1542304225101N07150645WA0079800743001000123
B1542314225085N07150632WA0079700744001000122
B1542324225070N07150619WA0079800745001000119
B1542334225055N07150607WA0079800746001000118
B1542344225040N07150594WA0079900747001000117
B1542344225040N07150594WA0080000747001000117
B1542354225025N07150581WA0080000747001000117
B1542364225010N07150568WA0080100747001000118
B1542374224996N07150554WA0080100747001000119
B1542384224981N07150539WA0080100746001000120
B1542394224967N07150525WA0080100747001000119
B1542404224953N07150512WA0080100749001000116
B1542414224938N07150498WA0080200751001000114
B1542424224924N07150486WA0080400753001000111
B1542434224910N07150474WA0080500755001000110
B1542444224896N07150463WA0080700755001000109
B1542454224882N07150451WA0080800754001000110
B1542464224868N07150439WA0080800754001000112
B1542474224854N07150426WA0080900757001000110
B1542474224854N07150426WA0080900757001000110
B1542484224841N07150413WA0081100760001000106
B1542494224828N07150402WA0081300763001000102
B1542504224816N07150391WA0081500764001000099
B1542514224803N07150382WA0081600764001000097
B1542524224790N07150374WA0081700763001000097
B1542534224776N07150365WA0081700761001000099
B1542534224776N07150365WA0081600761001000099
B1542544224763N07150357WA0081600759001000101
B1542554224749N07150348WA0081400757001000103
B1542564224735N07150339WA0081300757001000103
B1542574224721N07150330WA0081200758001000102
B1542584224707N07150323WA0081200760001000100
B1542584224707N07150323WA0081200760001000100
B1542594224693N07150316WA0081200760001000098
B1543004224679N07150310WA0081300760001000098
B1543014224665N07150305WA0081300759001000098
B1543024224651N07150299WA0081300759001000099
B1543034224636N07150294WA0081300760001000098
B1543044224622N07150289WA0081400762001000096
B1543054224609N07150284WA0081500763001000095
B1543064224595N07150279WA0081600764001000095
B1543064224595N07150279WA0081600764001000095
B1543074224581N07150272WA0081800765001000095
B1543084224568N07150266WA0081900765001000094
B1543094224555N07150261WA0082000764001000092
B1543104224541N07150259WA0081900763001000092
B1543114224527N07150257WA0081800761001000092
B1543124224514N07150256WA0081700761001000091
B1543134224500N07150254WA0081600760001000091
B1543144224487N07150251WA0081500761001000090
B1543154224474N07150246WA0081600763001000090
B1543164224460N07150243WA0081700765001000089
B1543174224447N07150239WA0081900768001000088
B1543184224434N07150237WA0082100770001000087
B1543194224422N07150233WA0082300773001000087
B1543204224409N07150230WA0082600775001000085
B1543214224396N07150228WA0082800775001000084
B1543224224384N07150228WA0082900774001000083
B1543234224372N07150231WA0083000772001000085
B1543244224359N07150235WA0083000770001000087
B1543244224359N07150235WA0082700770001000087
B1543254224346N07150237WA0082700769001000089
B1543264224332N07150238WA0082600770001000089
B1543274224319N07150235WA0082400770001000088
B1543284224307N07150229WA0082300770001000089
B1543294224295N07150220WA0082100769001000091
B1543304224285N07150207WA0081900768001001094
B1543314224276N07150192WA0081800767001000096
B1543324224268N07150175WA0081700767001001099
B1543334224261N07150157WA0081600766001000101
B1543344224257N07150137WA0081500766001000103
B1543354224253N07150117WA0081400766001000104
B1543354224253N07150117WA0081400766001000104
B1543354224253N07150117WA0081400766001000104
B1543364224251N07150096WA0081400765001000106
B1543374224251N07150074WA0081300764001000108
B1543384224253N07150052WA0081300764001000111
B1543394224257N07150030WA0081200764001000113
B1543404224263N07150008WA0081300765001000115
B1543404224263N07150008WA0081300765001000115
B1543414224271N07149987WA0081300766001000116
B1543424224282N07149968WA0081400765001000119
B1543434224294N07149951WA0081400766001000121
B1543444224308N07149935WA0081500768001002121
B1543454224324N07149923WA0081700771001005119
B1543464224340N07149915WA0081900774001004117
B1543474224357N07149911WA0082100777001004115
B1543484224374N07149911WA0082400779001003113
B1543494224391N07149914WA0082600780001004111
B1543504224407N07149920WA0082800780001002110
B1543514224422N07149930WA0082900780001002109
B1543524224435N07149943WA0082900780001001108
B1543534224446N07149958WA0082900781001001106
B1543544224455N07149975WA0082900781001000102
B1543554224461N07149994WA0083000782001000099
B1543564224464N07150013WA0083000781001000096
B1543574224464N07150032WA0083000780001000093
B1543584224461N07150050WA0083000780001000091
B1543594224454N07150066WA0082900779001000089
B1544004224445N07150079WA0082900780001000087
B1544014224434N07150087WA0082900781001000086
B1544024224421N07150091WA0083000782001001086
B1544034224408N07150089WA0083000782001000087
B1544034224408N07150089WA0083000782001000087
B1544044224396N07150084WA0083000781001000089
B1544054224384N07150074WA0083000781001000093
B1544064224374N07150060WA0083000780001001097
B1544074224367N07150043WA0082900780001003100
B1544084224363N07150023WA0083000781001003104
B1544094224362N07150002WA0083000783001003108
B1544094224362N07150002WA0083100783001002108
B1544104224365N07149980WA0083100785001002111
B1544114224371N07149959WA0083300786001002112
B1544124224381N07149940WA0083500787001002113
B1544134224393N07149924WA0083600788001001113
B1544144224407N07149911WA0083800789001002114
B1544154224423N07149902WA0083900790001002114
B1544164224439N07149896WA0084000791001001113
B1544174224456N07149895WA0084100792001000113
B1544184224473N07149898WA0084100791001000113
B1544194224489N07149906WA0084100790001001113
B1544204224503N07149917WA0084000789001001113
B1544214224517N07149931WA0083900789001000113
B1544224224527N07149948WA0083900790001000107
B1544234224535N07149966WA0083900792001000103
B1544244224539N07149986WA0084000793001000097
B1544254224541N07150005WA0084100794001001093
B1544264224539N07150023WA0084200793001001091
B1544274224535N07150040WA0084200793001000089
B1544274224535N07150040WA0084100793001000089
B1544284224528N07150056WA0084100792001000089
B1544294224519N07150069WA0084000791001000088
B1544304224509N07150079WA0084000792001000086
B1544314224496N07150084WA0084000793001000084
B1544314224496N07150084WA0084100793001000084
B1544324224484N07150085WA0084100795001000083
F15443301030614171921243013133
B1544334224472N07150081WA0084100795001000084
B1544334224472N07150081WA0084200795001000084
B1544344224461N07150073WA0084200795001000086
B1544354224451N07150061WA0084300795001000089
B1544364224443N07150046WA0084300794001000092
B1544374224437N07150029WA0084200794001002096
B1544384224435N07150009WA0084200795001003103
B1544394224435N07149987WA0084200798001002109
B1544404224439N07149966WA0084300800001002111
B1544414224446N07149945WA0084300801001000114
B1544424224456N07149926WA0084400802001000115
B1544434224468N07149909WA0084500803001000116
B1544444224483N07149896WA0084700804001001115
B1544454224498N07149887WA0084800806001001115
B1544464224515N07149882WA0084900807001001114
B1544474224532N07149880WA0085100807001001113
B1544484224548N07149883WA0085100806001000112
B1544494224564N07149890WA0085100804001000112
B1544504224579N07149900WA0084900802001001112
B1544504224579N07149900WA0084900802001002112
B1544514224592N07149914WA0084900800001002113
B1544524224603N07149931WA0084700799001002112
B1544534224611N07149950WA0084600798001000109
B1544544224617N07149970WA0084600799001001105
B1544554224618N07149991WA0084500799001000100
B1544564224617N07150010WA0084600800001000095
B1544574224613N07150028WA0084700801001000090
B1544574224613N07150028WA0084800801001001090
B1544584224605N07150043WA0084800802001001085
B1544594224596N07150053WA0084900804001001081
B1545004224585N07150060WA0085100805001001079
B1545014224573N07150061WA0085100806001003078
B1545024224562N07150059WA0085300807001002078
B1545034224551N07150053WA0085300806001002079
B1545044224541N07150043WA0085300806001002084
B1545054224533N07150029WA0085300805001002089
B1545064224527N07150013WA0085200804001001093
B1545074224523N07149994WA0085200803001002097
B1545074224523N07149994WA0085200803001003097
B1545084224522N07149974WA0085200802001003102
B1545094224524N07149953WA0085100801001003107
B1545104224530N07149932WA0085100802001003111
B1545114224538N07149912WA0085100803001003113
B1545124224549N07149894WA0085100804001003114
B1545134224561N07149879WA0085100805001002113
B1545144224576N07149867WA0085200806001002113
B1545154224591N07149858WA0085300807001001113
B1545164224608N07149853WA0085400808001000112
B1545174224624N07149852WA0085500808001000111
B1545174224624N07149852WA0085500808001000111
B1545184224641N07149855WA0085500809001000110
B1545194224656N07149861WA0085700809001000108
B1545194224656N07149861WA0085700809001000108
B1545204224670N07149871WA0085700809001000106
B1545214224683N07149884WA0085700809001000104
B1545214224683N07149884WA0085700809001000104
B1545224224694N07149899WA0085700808001000102
B1545234224703N07149915WA0085600807001000101
B1545244224710N07149933WA0085500804001000100
B1545254224714N07149952WA0085300802001000098
B1545264224716N07149972WA0085100800001000095
B1545274224715N07149991WA0084900799001000092
B1545284224712N07150008WA0084800799001000088
B1545284224712N07150008WA0084700799001000088
B1545294224706N07150024WA0084700798001000085
B1545304224699N07150037WA0084600797001000082
B1545314224690N07150048WA0084500797001000079
B1545324224679N07150055WA0084500797001000077
B1545334224668N07150059WA0084500797001000076
F154534010306141719212430
B1545344224657N07150060WA0084500798001000076
B1545354224645N07150058WA0084500798001000077
B1545354224645N07150058WA0084600798001000077
B1545364224634N07150055WA0084600799001000079
B1545374224623N07150049WA0084600799001000079
B1545384224612N07150042WA0084700799001000079
B1545394224602N07150034WA0084700800001000080
B1545404224592N07150025WA0084700801001001080
B1545414224583N07150014WA0084800801001002083
B1545424224575N07150000WA0084800800001001086
B1545434224569N07149984WA0084600797001000091
B1545444224565N07149966WA0084500795001000098
B1545454224564N07149945WA0084300794001001104
B1545464224566N07149924WA0084300795001000108
B1545474224572N07149903WA0084300798001000111
B1545484224582N07149885WA0084400802001000113
B1545494224594N07149869WA0084500805001000113
B1545504224609N07149856WA0084800809001000116
B1545514224624N07149847WA0084900811001000114
B1545514224624N07149847WA0085000811001001114
B1545524224639N07149841WA0085000808001001109
B1545534224655N07149839WA0084900806001000110
B1545544224672N07149841WA0084800805001000110
B1545554224687N07149847WA0084800804001000110
B1545564224702N07149856WA0084800804001002109
B1545574224715N07149868WA0084700802001002107
B1545574224715N07149868WA0084700802001001107
B1545584224727N07149883WA0084700800001001106
B1545594224736N07149899WA0084500798001001106
B1546004224743N07149918WA0084400796001000104
B1546014224748N07149938WA0084100794001000103
B1546024224751N07149958WA0084000793001000100
B1546034224752N07149978WA0083800791001000098
B1546044224750N07149998WA0083700790001000096
B1546054224746N07150016WA0083600791001000094
B1546064224741N07150034WA0083700792001000091
B1546074224734N07150049WA0083700794001000088
B1546074224734N07150049WA0083900794001000088
B1546084224726N07150063WA0083900795001000085
B1546094224717N07150075WA0084000796001003083
B1546104224708N07150085WA0084100797001004081
B1546114224697N07150094WA0084300799001004079
B1546124224687N07150101WA0084400801001005077
B1546134224676N07150107WA0084600802001003076
B1546144224666N07150112WA0084700803001003075
B1546154224655N07150116WA0084800803001003075
B1546164224644N07150118WA0084900803001003075
B1546174224632N07150118WA0084900803001004077
B1546174224632N07150118WA0084800803001003077
