ACNI279FLIGHT:1
HFDTE290522
HFFXA005
HFPLTPILOT:Bob Fletcher
HFCM2CREW:
HFGTYGLIDERTYPE:ASG 29
HFGIDGLIDERID:90
HFDTM100GPSDATUM:WGS84
HFRFWFIRMWAREVERSION:1.4
HFRHWHARDWAREVERSION:1.0
HFFTYFRTYPE:ClearNav Instr., ClearNav II
HFGPS:UBLOX,NEO-6G,16Ch,50000 
HFPRSPRESSALTSENSOR:Intersema,MS5540C,20000
HFCIDCOMPETITIONID:90
I033638FXA3941ENL4244GSP
J020810WDI1115WVE
C090180152609000000000105
C0000000N00000000ETAKEOFF
C3432750N08029333WStart S     
C3455800N08022200WBrown Field 
C3414683N08014233WBishopville 
C3426950N07953416WDarlington  
C3440467N08040933WKirk Airbase
C3417017N08033900WCamden      
C3436700N08027000WFINISH      
C0000000N00000000ELANDING
B1605564225406N07147427WA0011500107001000000
B1605574225406N07147427WA0011500107001000000
B1605584225406N07147427WA0011500107001000000
B1605594225406N07147427WA0011500107001000000
B1605594225406N07147427WA0011500107001000000
B1606004225406N07147427WA0011500107001000000
B1606014225406N07147427WA0011500107001000000
B1606024225406N07147427WA0011500107001000000
B1606024225406N07147427WA0011500107001000000
B1606034225406N07147427WA0011500107001000000
B1606044225406N07147427WA0011500107001000000
B1606044225406N07147427WA0011500107001000000
B1606054225406N07147427WA0011500107001000000
B1606064225406N07147427WA0011500107001000000
B1606064225406N07147427WA0011500107001000000
B1606074225406N07147427WA0011500107001000001
B1606084225406N07147428WA0011500107001000005
B1606094225407N07147429WA0011500107001000016
B1606094225407N07147429WA0011500107001015016
B1606104225410N07147432WA0011500107001015028
B1606114225414N07147437WA0011500107001032035
B1606124225418N07147442WA0011500107001047042
B1606124225418N07147442WA0011500107001063042
B1606134225424N07147448WA0011500107001063052
B1606144225430N07147456WA0011400107001076061
LCNI160614EVT:ENDBASELINE
LCNI160609EVT:TAKEOFF
F160615010306141719212430
B1606154225437N07147465WA0011400107001088066
B1606164225445N07147474WA0011400107001088074
B1606164225445N07147474WA0011300107001109074
B1606174225454N07147485WA0011300107001109083
B1606184225463N07147497WA0011300108001112089
B1606184225463N07147497WA0011400108001096089
B1606194225474N07147509WA0011400108001096095
B1606204225485N07147523WA0011400108001087102
B1606204225485N07147523WA0011400108001080102
B1606214225496N07147538WA0011400108001080108
B1606224225509N07147553WA0011400109001074113
B1606234225522N07147568WA0011400109001068118
B1606244225536N07147584WA0011500110001058124
B1606254225550N07147601WA0011500112001049127
B1606264225565N07147618WA0011600113001049128
B1606264225565N07147618WA0011800113001044128
B1606274225579N07147635WA0011800116001044130
B1606284225594N07147653WA0012000120001036132
B1606294225609N07147670WA0012200124001032133
B1606304225624N07147687WA0012500128001030131
B1606314225639N07147704WA0012900132001028132
B1606324225654N07147722WA0013300137001028133
B1606334225670N07147739WA0013700141001028134
B1606344225685N07147756WA0014400145001030134
B1606354225701N07147773WA0015000149001028136
B1606364225717N07147791WA0015700153001028137
B1606374225733N07147808WA0016100156001027139
B1606384225749N07147827WA0016500159001028139
B1606394225765N07147845WA0016800162001028139
B1606404225780N07147863WA0017100167001028137
B1606414225796N07147882WA0017700172001028137
B1606424225811N07147900WA0018100177001028136
B1606434225826N07147918WA0018400181001028133
B1606444225841N07147936WA0019000186001027129
B1606454225855N07147953WA0019400192001027128
B1606464225869N07147971WA0019900198001027128
B1606474225884N07147988WA0020500205001027126
B1606474225884N07147988WA0021000205001027126
B1606484225898N07148004WA0021000212001027126
B1606494225913N07148021WA0021900217001027128
B1606504225927N07148038WA0022400224001026128
B1606504225927N07148038WA0023000224001023128
B1606514225942N07148055WA0023000230001023130
B1606524225956N07148073WA0023500234001022131
B1606534225971N07148091WA0024100238001020131
B1606544225985N07148109WA0024400241001020132
B1606554225999N07148128WA0024800246001020133
B1606564226013N07148147WA0025300252001022132
B1606574226027N07148166WA0025700257001024133
B1606584226042N07148185WA0026200261001025132
B1606584226042N07148185WA0026600261001028132
B1606594226056N07148203WA0026600265001028129
B1607004226069N07148221WA0027100272001027130
B1607014226083N07148240WA0027700277001026131
B1607024226097N07148259WA0028200282001027132
B1607034226111N07148278WA0028700288001026131
B1607044226125N07148297WA0029200294001028130
B1607044226125N07148297WA0029800294001028130
B1607054226138N07148315WA0029800298001028129
B1607064226152N07148334WA0030400302001028128
B1607074226165N07148352WA0030800306001028127
B1607084226179N07148371WA0031200310001028129
B1607094226192N07148390WA0031500312001028129
B1607104226205N07148409WA0031800314001027129
B1607114226219N07148428WA0032000316001028131
B1607124226233N07148446WA0032200318001028131
B1607124226233N07148446WA0032400318001029131
B1607134226247N07148465WA0032400321001029132
B1607144226261N07148484WA0032700324001030132
B1607154226274N07148503WA0033000329001030130
B1607164226288N07148523WA0033500334001030131
B1607174226301N07148543WA0033800337001030133
B1607184226315N07148562WA0034300341001033132
B1607194226329N07148581WA0034600344001033135
B1607204226343N07148601WA0035000347001033137
B1607214226357N07148621WA0035200349001030136
B1607224226371N07148642WA0035500351001027135
B1607224226371N07148642WA0035700351001026135
B1607234226384N07148662WA0035700354001026134
B1607244226397N07148683WA0035900358001027132
B1607244226397N07148683WA0036300358001029132
B1607254226409N07148703WA0036300364001029130
B1607264226422N07148723WA0036700371001029128
B1607274226434N07148742WA0037500377001029127
B1607284226447N07148762WA0038000383001028126
B1607294226459N07148780WA0038600388001028123
B1607304226472N07148798WA0039100393001027122
B1607304226472N07148798WA0039600393001026122
B1607314226485N07148815WA0039600398001026122
B1607324226498N07148832WA0040100403001025121
B1607334226512N07148848WA0040700407001024121
B1607344226526N07148864WA0041000410001023122
B1607354226539N07148881WA0041300412001023123
B1607364226553N07148897WA0041500414001026125
B1607374226567N07148915WA0041700415001025126
B1607384226581N07148933WA0041900415001025128
B1607394226594N07148951WA0042000417001025130
B1607404226608N07148970WA0042200419001022131
B1607414226622N07148989WA0042400420001024132
B1607424226636N07149008WA0042500421001029132
B1607424226636N07149008WA0042700421001030132
B1607434226650N07149027WA0042700423001030133
F1607440103141719212430
B1607444226665N07149046WA0042900425001030135
B1607454226680N07149064WA0043100426001030134
B1607454226680N07149064WA0043100426001030134
B1607464226696N07149080WA0043200428001031134
B1607474226713N07149095WA0043300428001032134
B1607484226730N07149109WA0043400430001030134
B1607494226747N07149123WA0043600431001029134
B1607504226765N07149137WA0043700433001027134
B1607514226782N07149150WA0043800434001026133
B1607524226800N07149162WA0043900436001024130
B1607534226817N07149173WA0044200440001025127
B1607544226835N07149183WA0044500445001025127
B1607554226852N07149192WA0044800450001024125
B1607564226870N07149200WA0045300453001024124
B1607574226888N07149207WA0045600457001026122
B1607584226905N07149214WA0046000462001024123
B1607594226923N07149221WA0046400466001022125
B1608004226941N07149228WA0046800468001023126
B1608004226941N07149228WA0047000468001022126
B1608014226960N07149235WA0047000469001022126
B1608024226978N07149242WA0047200471001022128
B1608034226996N07149249WA0047500473001024129
B1608044227015N07149257WA0047700474001024131
B1608054227034N07149264WA0047800474001023133
B1608064227053N07149272WA0047800474001024134
B1608074227073N07149280WA0047900475001026135
B1608084227092N07149287WA0048100478001025133
B1608084227092N07149287WA0048300478001026133
B1608094227111N07149294WA0048300483001026132
B1608104227131N07149301WA0048700487001025133
B1608114227150N07149309WA0049100493001022136
B1608124227170N07149317WA0049500498001022138
B1608134227189N07149327WA0050000501001022139
B1608144227209N07149336WA0050400504001022139
B1608154227229N07149345WA0050400507001024138
B1608164227248N07149354WA0050600510001028136
B1608174227267N07149363WA0050900515001032135
B1608184227286N07149373WA0051400519001031135
B1608194227305N07149383WA0051700522001029133
B1608204227322N07149394WA0052200526001030129
B1608214227339N07149406WA0052600533001031126
B1608224227356N07149418WA0053200544001031123
B1608234227371N07149431WA0054200554001030122
B1608244227386N07149445WA0055000564001030122
B1608254227401N07149460WA0055800572001028122
B1608264227415N07149475WA0056600578001024123
B1608274227429N07149492WA0057300583001024125
B1608284227443N07149510WA0057700585001023128
B1608294227456N07149530WA0058100587001022130
B1608294227456N07149530WA0058300587001020130
B1608304227468N07149550WA0058300588001020132
B1608314227480N07149572WA0058600590001021133
B1608324227491N07149594WA0058900593001022134
B1608324227491N07149594WA0059000593001024134
B1608334227502N07149617WA0059000595001024135
B1608344227512N07149641WA0059300597001024135
B1608354227520N07149666WA0059500600001026135
B1608364227528N07149691WA0059800603001029134
B1608374227535N07149717WA0060000606001029134
B1608384227541N07149743WA0060400610001030135
B1608394227546N07149769WA0060700613001028134
B1608404227552N07149795WA0061000616001027134
B1608414227555N07149822WA0061300619001025133
B1608424227558N07149848WA0061600623001025133
B1608434227560N07149875WA0062000627001025131
B1608444227560N07149901WA0062300631001024131
F160845010306141719212430
B1608454227559N07149928WA0062700635001024130
B1608464227558N07149954WA0063100638001024129
B1608474227555N07149980WA0063500642001025128
B1608484227551N07150005WA0063700646001025128
B1608494227547N07150031WA0064200649001024129
B1608504227541N07150056WA0064600652001022130
B1608514227534N07150081WA0064800655001021131
B1608524227526N07150105WA0065200658001022131
B1608524227526N07150105WA0065500658001022131
B1608534227516N07150128WA0065500660001022132
B1608544227505N07150151WA0065700662001024133
B1608554227493N07150172WA0065900663001022135
B1608564227479N07150192WA0066000664001024136
B1608574227464N07150211WA0066100665001026135
B1608584227448N07150228WA0066300667001028136
B1608594227431N07150243WA0066400668001026137
B1609004227413N07150257WA0066500669001024136
B1609014227395N07150268WA0066600671001022135
B1609024227376N07150277WA0066800673001022134
B1609024227376N07150277WA0067000673001021134
B1609034227356N07150284WA0067000676001021134
B1609044227337N07150288WA0067200678001022133
B1609054227317N07150290WA0067400681001020132
B1609064227297N07150289WA0067700684001021131
B1609074227278N07150287WA0068000687001019130
B1609084227259N07150281WA0068200691001020129
B1609094227240N07150273WA0068600694001020129
B1609104227222N07150264WA0068900697001020129
B1609114227205N07150252WA0069200700001021129
B1609124227188N07150239WA0069500703001021130
B1609134227172N07150224WA0069900706001020130
B1609144227157N07150207WA0070100707001022130
B1609154227143N07150189WA0070300710001023129
B1609164227130N07150170WA0070500715001026129
B1609174227119N07150149WA0070900720001026130
B1609174227119N07150149WA0071500720001025130
B1609184227109N07150126WA0071500725001025130
B1609194227101N07150102WA0072000729001026130
B1609204227093N07150078WA0072300733001026131
B1609214227085N07150053WA0072700739001026132
B1609214227085N07150053WA0073400739001026132
B1609224227077N07150029WA0073400745001026132
B1609234227070N07150004WA0073800752001027133
B1609244227063N07149979WA0074300759001025131
B1609254227056N07149954WA0075000767001031123
B1609264227049N07149933WA0075800777001029115
B1609274227039N07149914WA0076500785001034109
B1609284227027N07149901WA0077400793001027106
B1609294227013N07149892WA0078500798001021104
B1609304226998N07149886WA0079000802001017103
B1609314226983N07149883WA0079200804001017103
B1609324226967N07149884WA0079800806001016104
B1609334226952N07149889WA0080000807001014105
B1609344226937N07149897WA0080200808001009107
B1609354226923N07149908WA0080300807001006110
B1609364226911N07149923WA0080300808001004113
B1609374226900N07149941WA0080400809001003117
B1609384226891N07149962WA0080300809001006120
B1609394226885N07149985WA0080300812001006121
B1609404226882N07150009WA0080400816001006120
B1609414226882N07150033WA0080800820001006117
B1609424226885N07150056WA0081100824001004115
B1609434226891N07150078WA0081500828001003113
B1609444226899N07150098WA0081700831001001111
B1609454226908N07150116WA0082200834001000110
B1609464226920N07150132WA0082400836001000109
B1609474226933N07150145WA0082600837001000108
B1609484226948N07150154WA0082900839001000108
B1609494226963N07150162WA0083100841001000108
B1609504226979N07150166WA0083200843001000106
B1609514226995N07150166WA0083400845001000105
B1609524227010N07150163WA0083600848001000103
B1609534227025N07150157WA0083800851001000101
B1609544227038N07150148WA0084100854001000100
B1609554227050N07150136WA0084400856001000100
B1609554227050N07150136WA0084700856001000100
B1609564227061N07150122WA0084700858001000099
B1609574227070N07150107WA0084900860001000099
B1609584227078N07150089WA0085200862001000099
B1609594227083N07150070WA0085400864001000099
B1610004227086N07150051WA0085500865001000100
B1610004227086N07150051WA0085600865001000100
B1610014227088N07150031WA0085600866001000100
B1610024227089N07150011WA0085800869001000100
B1610034227088N07149990WA0086000873001000099
B1610044227087N07149971WA0086300879001000097
B1610054227085N07149952WA0086700884001000095
B1610064227082N07149933WA0087200888001000094
B1610074227077N07149916WA0087600893001000093
B1610084227069N07149900WA0088300896001000093
B1610094227059N07149887WA0088600899001000094
B1610104227047N07149876WA0089000902001000094
B1610114227034N07149868WA0089400905001000097
B1610114227034N07149868WA0089400905001000097
B1610124227020N07149866WA0089600907001000100
B1610134227004N07149866WA0089900908001000103
B1610144226989N07149871WA0090000909001000104
B1610154226975N07149878WA0090100912001000105
B1610164226961N07149890WA0090300913001000106
B1610174226949N07149904WA0090500914001000108
B1610184226939N07149922WA0090600914001000110
B1610194226932N07149942WA0090600916001000112
B1610204226927N07149964WA0090700918001000113
B1610214226926N07149987WA0090900920001000114
B1610224226928N07150010WA0091100922001002114
B1610234226933N07150032WA0091300924001010114
B1610244226941N07150052WA0091400926001008114
B1610254226951N07150071WA0091800928001007113
B1610264226963N07150086WA0091900933001005110
B1610274226977N07150098WA0092200938001003107
B1610284226991N07150107WA0092600942001003104
B1610294227006N07150111WA0093200946001002103
B1610304227022N07150111WA0093500949001002102
B1610314227036N07150108WA0094000953001001101
B1610324227051N07150102WA0094300956001001099
B1610334227064N07150093WA0094500959001000097
B1610344227075N07150081WA0094800961001000095
B1610354227085N07150067WA0095100962001000094
B1610364227092N07150051WA0095300963001000095
B1610374227096N07150032WA0095500965001000096
B1610384227098N07150013WA0095600969001000096
B1610394227096N07149994WA0095900973001000096
B1610394227096N07149994WA0096200973001002096
B1610404227091N07149975WA0096200977001002095
B1610414227084N07149959WA0096500982001003095
B1610424227075N07149945WA0096900986001001095
B1610434227063N07149933WA0097300989001000096
B1610444227050N07149924WA0097700993001000098
B1610454227036N07149919WA0098300997001000099
B1610464227021N07149917WA0098601000001000100
B1610464227021N07149917WA0098901000001000100
B1610474227006N07149918WA0098901003001000101
B1610484226991N07149923WA0099401006001000102
B1610494226977N07149931WA0099601009001000102
B1610504226964N07149942WA0099801011001000102
B1610514226953N07149956WA0100101014001000102
B1610524226944N07149972WA0100401017001000103
B1610534226937N07149991WA0100601020001000103
B1610544226933N07150011WA0100801023001001102
B1610554226931N07150031WA0101201027001000102
B1610564226931N07150052WA0101501029001000102
B1610574226934N07150072WA0101801032001001102
B1610584226938N07150092WA0102101034001000102
B1610594226944N07150111WA0102301036001000102
B1611004226953N07150128WA0102601039001000101
B1611014226964N07150143WA0102801041001000102
B1611024226976N07150154WA0103001044001000101
B1611034226990N07150163WA0103301047001000100
B1611034226990N07150163WA0103601047001001100
B1611044227004N07150168WA0103601050001001100
B1611054227019N07150169WA0103901053001001100
B1611064227034N07150167WA0104201057001001099
B1611074227048N07150161WA0104501060001001097
B1611084227061N07150152WA0104801063001000094
B1611094227071N07150141WA0105101065001000092
B1611104227080N07150126WA0105301066001000091
B1611114227085N07150109WA0105601067001000091
B1611124227088N07150091WA0105701068001000093
B1611134227087N07150072WA0105901070001000094
B1611134227087N07150072WA0106001070001000094
B1611144227083N07150054WA0106001074001000094
B1611154227077N07150037WA0106301079001000093
B1611164227069N07150022WA0106601084001000093
B1611174227058N07150010WA0107101088001000094
B1611184227045N07150001WA0107501093001000095
B1611194227032N07149994WA0107901096001000096
B1611194227032N07149994WA0108301096001000096
B1611204227017N07149991WA0108301100001000098
B1611214227002N07149991WA0108701103001000099
B1611214227002N07149991WA0109001103001000099
B1611224226988N07149994WA0109001106001000099
B1611234226974N07149999WA0109501109001000098
B1611244226960N07150008WA0109901113001000098
B1611254226949N07150020WA0110201116001000098
B1611264226939N07150035WA0110401119001000098
B1611274226931N07150052WA0110801123001000098
B1611284226925N07150070WA0111101127001000097
B1611294226921N07150088WA0111601130001000096
B1611304226920N07150108WA0111901133001000096
B1611314226921N07150127WA0112201134001001097
B1611324226924N07150147WA0112401134001000098
B1611334226929N07150166WA0112501135001000100
F161134010306141719212430133
B1611344226936N07150184WA0112601136001000102
B1611354226946N07150200WA0112801138001000102
B1611364226957N07150214WA0112901141001000101
B1611374226969N07150225WA0113201144001000098
B1611384226983N07150232WA0113401148001001096
B1611394226997N07150237WA0113701152001000095
B1611394226997N07150237WA0114101152001000095
B1611404227011N07150238WA0114101155001000094
B1611414227025N07150237WA0114401157001000093
B1611424227038N07150232WA0114701158001000092
B1611434227051N07150225WA0114901160001001092
B1611444227063N07150216WA0115001162001003090
B1611454227072N07150203WA0115301164001003088
B1611464227079N07150189WA0115501167001003088
B1611474227084N07150172WA0115801170001002087
B1611484227086N07150155WA0116101174001001086
B1611494227085N07150137WA0116401178001000085
B1611504227082N07150121WA0116801180001002086
B1611504227082N07150121WA0116801180001002086
B1611514227076N07150105WA0117001182001000088
B1611524227069N07150090WA0117301184001000091
B1611534227059N07150076WA0117601188001000093
B1611544227048N07150065WA0117801193001000094
B1611554227035N07150056WA0118401198001000095
B1611554227035N07150056WA0118801198001000095
B1611564227021N07150050WA0118801203001000097
B1611574227007N07150046WA0119201209001000097
B1611574227007N07150046WA0119801209001000097
B1611584226992N07150045WA0119801214001000097
B1611594226978N07150046WA0120201219001000096
B1612004226964N07150051WA0120701223001000095
B1612014226951N07150058WA0121001225001000094
B1612024226939N07150068WA0121401228001000095
B1612034226928N07150081WA0121601229001000097
B1612044226919N07150096WA0121801230001000100
B1612054226910N07150113WA0121901231001000102
B1612054226910N07150113WA0122001231001000102
B1612064226904N07150132WA0122101232001000104
B1612074226899N07150152WA0122301235001000105
B1612084226897N07150174WA0122401237001000106
B1612094226896N07150195WA0122601240001000106
B1612104226898N07150216WA0122901242001000106
B1612114226902N07150237WA0123101245001000105
B1612124226907N07150257WA0123301248001000104
B1612134226914N07150275WA0123701251001000102
B1612144226923N07150292WA0123901254001000101
B1612154226933N07150307WA0124301257001000099
B1612164226945N07150319WA0124501259001000098
B1612174226957N07150329WA0124801261001000098
B1612184226971N07150336WA0125001263001002097
B1612184226971N07150336WA0125201263001002097
B1612194226985N07150339WA0125201265001002096
B1612204226999N07150340WA0125401267001002095
B1612214227013N07150338WA0125501268001000094
B1612224227027N07150332WA0125701268001000093
B1612234227039N07150323WA0125801268001000092
B1612244227050N07150311WA0125901269001001093
B1612254227058N07150296WA0126001271001001094
B1612254227058N07150296WA0126101271001002094
B1612264227063N07150278WA0126101274001002094
B1612274227066N07150260WA0126301277001003094
B1612284227066N07150241WA0126601280001003095
B1612294227063N07150222WA0127001283001002097
B1612304227057N07150203WA0127301286001001098
B1612314227050N07150186WA0127701288001002100
B1612324227041N07150169WA0127901291001001101
B1612324227041N07150169WA0128101291001001101
B1612334227031N07150155WA0128201294001001101
B1612344227019N07150142WA0128401298001001101
F161235010306141719212430
B1612354227005N07150132WA0128801302001001101
B1612364226991N07150126WA0129201306001003103
B1612374226975N07150123WA0129601310001003104
B1612384226959N07150125WA0130001314001002105
B1612394226944N07150130WA0130201317001002105
B1612404226930N07150139WA0130601320001000105
B1612414226917N07150151WA0130901322001000106
B1612424226906N07150166WA0131201324001000107
B1612434226897N07150184WA0131401326001000107
B1612444226890N07150204WA0131601328001000107
B1612454226887N07150225WA0131801330001000107
B1612464226885N07150247WA0132101333001000106
B1612474226886N07150268WA0132301335001000106
B1612484226889N07150289WA0132401337001000106
B1612494226895N07150308WA0132601339001000105
B1612504226904N07150326WA0132801341001000105
B1612504226904N07150326WA0133001341001000105
B1612514226914N07150342WA0133001343001000103
B1612524226926N07150355WA0133201346001000102
B1612534226939N07150365WA0133401348001000100
B1612544226953N07150372WA0133701350001001098
B1612554226968N07150375WA0133901351001000098
B1612554226968N07150375WA0134101351001000098
B1612564226982N07150376WA0134101352001000097
B1612574226996N07150374WA0134201354001000096
B1612584227010N07150369WA0134301355001000096
B1612594227023N07150361WA0134501358001000095
B1613004227035N07150350WA0134801361001000093
B1613014227045N07150338WA0135001365001000092
B1613024227054N07150323WA0135301368001000091
B1613034227060N07150307WA0135701371001000089
B1613044227064N07150290WA0135901373001000088
B1613054227067N07150272WA0136201377001000089
B1613064227068N07150254WA0136701381001003089
B1613074227067N07150236WA0137001385001005089
B1613074227067N07150236WA0137301385001005089
B1613084227065N07150218WA0137301389001005088
B1613094227062N07150201WA0137801394001003089
B1613104227057N07150184WA0138101398001002090
B1613114227051N07150168WA0138501402001002091
B1613124227042N07150153WA0139001405001001093
B1613134227033N07150139WA0139201407001000096
B1613144227021N07150127WA0139501409001000098
B1613154227008N07150117WA0139801411001000101
B1613164226994N07150108WA0139901413001000104
B1613174226979N07150102WA0140201415001000107
B1613184226963N07150098WA0140401418001000109
B1613194226946N07150097WA0140501420001000111
B1613204226929N07150100WA0140901423001000113
B1613214226913N07150104WA0141101426001001113
B1613224226897N07150112WA0141401428001002113
B1613234226882N07150122WA0141501431001002112
B1613244226868N07150135WA0141801435001002112
B1613254226856N07150150WA0142201438001002111
B1613264226845N07150167WA0142401439001001111
B1613274226836N07150186WA0142701440001000111
B1613274226836N07150186WA0142801440001000111
B1613284226828N07150206WA0142801441001000111
B1613294226822N07150227WA0143001443001000111
B1613294226822N07150227WA0143001443001000111
B1613304226819N07150249WA0143001444001000110
B1613314226818N07150271WA0143201446001001109
B1613324226818N07150293WA0143301448001001106
B1613334226821N07150314WA0143501450001000104
B1613344226825N07150334WA0143701452001000103
B1613354226832N07150352WA0143901454001000102
F161336010306141719212430133
B1613364226840N07150369WA0144001456001000100
B1613364226840N07150369WA0144301456001000100
B1613374226850N07150385WA0144301458001000098
B1613384226861N07150397WA0144501459001000098
B1613394226873N07150408WA0144701460001000097
B1613404226887N07150416WA0144801461001000096
B1613414226900N07150421WA0144901462001000095
B1613424226914N07150424WA0145001462001000095
B1613434226929N07150425WA0145101462001000096
B1613444226943N07150423WA0145101462001000097
B1613444226943N07150423WA0145201462001000097
B1613454226957N07150419WA0145201462001000098
B1613464226971N07150411WA0145101462001000098
B1613474226984N07150402WA0145201464001002099
B1613484226996N07150390WA0145201467001005098
B1613494227006N07150377WA0145401470001002096
B1613504227016N07150362WA0145701473001002094
B1613514227024N07150347WA0145901473001011094
B1613524227031N07150330WA0146201474001014096
B1613534227035N07150311WA0146301476001014097
B1613544227038N07150292WA0146501479001022097
B1613554227038N07150272WA0146801484001035096
B1613564227037N07150253WA0147101488001029095
B1613564227037N07150253WA0147501488001019095
B1613574227033N07150234WA0147501492001019095
B1613584227027N07150217WA0147801496001015095
B1613594227019N07150201WA0148101500001011096
B1613594227019N07150201WA0148601500001011096
B1614004227009N07150187WA0148601503001011096
B1614014226998N07150174WA0148901506001008098
B1614024226984N07150165WA0149201509001013100
B1614034226970N07150158WA0149601512001010102
B1614034226970N07150158WA0149801512001010102
B1614044226955N07150154WA0149801515001010104
B1614054226939N07150153WA0150101517001010105
B1614064226923N07150154WA0150401519001008107
B1614074226908N07150157WA0150601520001007108
B1614084226892N07150164WA0150801522001006109
B1614094226877N07150172WA0150901522001006110
B1614094226877N07150172WA0151001522001008110
B1614104226862N07150184WA0151001523001008113
B1614104226862N07150184WA0151101523001006113
B1614114226849N07150198WA0151101524001006113
B1614124226837N07150214WA0151201525001006113
B1614134226826N07150232WA0151301525001005114
B1614144226817N07150251WA0151301525001002114
B1614154226810N07150272WA0151301526001001113
B1614164226804N07150293WA0151401526001000112
B1614174226801N07150315WA0151401527001000110
B1614184226801N07150338WA0151501528001000109
B1614194226803N07150360WA0151501528001000108
B1614204226807N07150380WA0151701530001000107
B1614214226814N07150400WA0151801533001000103
B1614224226821N07150417WA0152001535001000100
B1614234226831N07150433WA0152201537001000098
B1614234226831N07150433WA0152401537001000098
B1614244226842N07150445WA0152401538001000096
B1614254226854N07150455WA0152501539001000094
B1614264226867N07150463WA0152701538001000093
B1614274226880N07150468WA0152701537001000093
B1614284226894N07150470WA0152701536001000094
B1614294226909N07150469WA0152601535001000095
B1614304226923N07150466WA0152501534001000096
B1614314226937N07150460WA0152501535001000097
B1614324226950N07150452WA0152501536001000097
B1614324226950N07150452WA0152601536001000097
B1614334226962N07150440WA0152601538001000097
B1614344226972N07150427WA0152701540001000097
B1614354226981N07150412WA0152901542001000096
B1614364226989N07150396WA0153001545001000095
B1614374226996N07150379WA0153201547001000094
B1614384227002N07150361WA0153501549001000095
B1614384227002N07150361WA0153701549001000095
B1614394227007N07150343WA0153701551001000096
B1614404227012N07150325WA0153901554001000096
B1614414227017N07150307WA0154101556001000096
B1614414227017N07150307WA0154401556001000096
B1614424227022N07150288WA0154401557001000096
B1614434227025N07150269WA0154501560001000096
B1614444227026N07150250WA0154901562001000096
B1614454227025N07150231WA0155101565001000096
B1614464227021N07150212WA0155401569001001097
B1614474227015N07150194WA0155701572001002098
B1614484227007N07150178WA0156001575001003098
B1614494226996N07150163WA0156301579001002099
B1614504226984N07150151WA0156501582001002100
B1614514226971N07150142WA0156901585001003103
B1614524226956N07150136WA0157301588001005104
B1614524226956N07150136WA0157501588001006104
B1614534226940N07150133WA0157501591001006106
B1614544226924N07150134WA0157901594001006107
B1614554226908N07150137WA0158101596001006108
B1614564226893N07150144WA0158401599001005109
B1614574226878N07150154WA0158701600001006110
B1614584226865N07150166WA0158801601001006111
B1614594226852N07150181WA0158901602001006110
B1615004226841N07150198WA0159001603001006110
B1615014226832N07150217WA0159101604001002109
B1615024226825N07150237WA0159101604001001109
B1615034226820N07150257WA0159201604001000109
B1615044226816N07150279WA0159201603001000109
B1615054226815N07150301WA0159201603001000109
B1615064226815N07150323WA0159201602001000109
B1615074226817N07150345WA0159101602001000108
B1615074226817N07150345WA0159001602001000108
B1615084226820N07150366WA0159001601001000107
B1615094226826N07150386WA0159001600001000107
B1615104226835N07150404WA0158901600001000106
B1615114226845N07150421WA0158901601001000106
B1615114226845N07150421WA0158901601001000106
B1615124226857N07150435WA0158901601001000105
B1615134226870N07150447WA0159001602001000104
B1615144226884N07150456WA0159001602001000103
B1615154226898N07150462WA0159001603001000102
B1615164226913N07150466WA0159101604001000102
B1615174226928N07150467WA0159201605001000101
B1615184226943N07150465WA0159401606001000100
B1615194226958N07150460WA0159401608001000100
B1615204226972N07150453WA0159601609001000099
B1615214226985N07150445WA0159701611001000099
B1615224226998N07150434WA0159801612001000098
B1615234227009N07150422WA0160001613001000097
B1615244227019N07150407WA0160101614001000097
B1615254227028N07150392WA0160301615001000096
B1615264227035N07150375WA0160401615001000096
B1615274227041N07150357WA0160401616001000098
B1615284227045N07150338WA0160501618001000099
B1615294227049N07150318WA0160701621001000098
B1615304227051N07150299WA0160901622001000097
B1615314227052N07150279WA0161001622001000098
B1615324227052N07150259WA0161101622001002099
B1615334227050N07150239WA0161101623001001099
B1615344227047N07150220WA0161101624001000097
B1615354227043N07150201WA0161201624001000096
B1615354227043N07150201WA0161201624001000096
B1615364227037N07150183WA0161201623001000097
B1615374227030N07150165WA0161101622001000098
B1615384227022N07150148WA0161101621001000100
B1615394227013N07150132WA0161001622001000101
B1615394227013N07150132WA0161101622001000101
B1615404227002N07150118WA0161101623001000102
B1615414226990N07150104WA0161101624001000103
B1615424226978N07150092WA0161301626001000105
B1615434226964N07150082WA0161401628001002106
B1615444226949N07150073WA0161601632001005107
B1615454226934N07150064WA0161901636001005106
B1615464226920N07150057WA0162401640001006105
B1615474226905N07150051WA0162601643001006105
B1615484226889N07150047WA0163001645001006105
B1615494226873N07150047WA0163101646001006107
B1615504226857N07150051WA0163301647001005109
B1615514226842N07150057WA0163401648001005111
B1615524226826N07150067WA0163601649001006112
B1615534226813N07150080WA0163701651001005112
B1615544226800N07150095WA0163801652001003112
B1615554226789N07150112WA0163901652001002112
B1615564226780N07150131WA0163901652001001111
B1615574226772N07150151WA0163901651001000110
B1615584226767N07150172WA0163901649001000110
B1615594226763N07150194WA0163801647001000111
B1616004226762N07150216WA0163701647001000110
B1616014226761N07150238WA0163501647001000108
B1616024226762N07150259WA0163501648001000105
B1616034226766N07150280WA0163501647001000103
B1616044226772N07150299WA0163501646001000101
B1616054226780N07150316WA0163501646001000100
B1616054226780N07150316WA0163401646001000100
B1616064226789N07150331WA0163401645001000099
B1616074226800N07150345WA0163401644001000098
B1616084226812N07150356WA0163201642001000098
B1616094226826N07150365WA0163101639001000099
B1616104226840N07150371WA0162901638001000099
B1616114226854N07150375WA0162801636001000100
B1616124226869N07150377WA0162601636001000099
B1616134226884N07150375WA0162501635001000099
B1616144226898N07150371WA0162401634001000100
B1616144226898N07150371WA0162301634001000100
B1616154226912N07150364WA0162301634001000100
B1616164226926N07150354WA0162301635001000101
B1616174226938N07150342WA0162301636001000101
B1616174226938N07150342WA0162401636001000101
B1616184226948N07150327WA0162401638001000101
B1616194226958N07150312WA0162601640001000101
B1616194226958N07150312WA0162701640001000101
B1616204226967N07150295WA0162701642001000100
B1616214226973N07150277WA0162801644001000100
B1616224226979N07150258WA0163101645001000100
B1616234226982N07150238WA0163301647001001099
B1616234226982N07150238WA0163501647001002099
B1616244226983N07150218WA0163501649001002099
B1616254226982N07150198WA0163601651001002099
B1616264226980N07150178WA0163801653001002098
B1616274226975N07150159WA0164101655001000099
B1616284226969N07150141WA0164301657001000099
B1616294226961N07150124WA0164301658001000100
B1616294226961N07150124WA0164601658001000100
B1616304226951N07150108WA0164601660001000101
B1616314226941N07150094WA0164801662001000101
B1616324226928N07150082WA0164901664001000102
B1616334226915N07150072WA0165301668001000102
B1616344226900N07150065WA0165401671001003103
B1616354226885N07150060WA0165801675001002104
B1616364226870N07150058WA0166101678001002104
B1616374226854N07150059WA0166401680001003105
B1616384226838N07150062WA0166601681001003106
B1616394226823N07150068WA0166801682001002107
B1616404226808N07150076WA0166901683001000108
B1616414226794N07150086WA0167101684001000108
B1616424226780N07150098WA0167101684001000109
B1616434226767N07150112WA0167201684001000109
B1616444226756N07150127WA0167201684001000108
B1616454226745N07150144WA0167201684001000107
B1616454226745N07150144WA0167201684001000107
B1616464226736N07150161WA0167201683001000107
B1616474226728N07150180WA0167101681001000107
B1616484226720N07150199WA0167001679001000107
B1616494226713N07150218WA0166801677001000107
B1616504226708N07150239WA0166701675001000108
B1616504226708N07150239WA0166701675001000108
B1616514226705N07150260WA0166601674001000107
B1616524226703N07150282WA0166301673001000106
B1616534226703N07150303WA0166201672001000104
B1616544226704N07150324WA0166101670001000103
B1616554226707N07150344WA0165901668001000103
B1616564226711N07150364WA0165801667001000102
B1616574226717N07150383WA0165601666001000100
B1616584226725N07150400WA0165501663001002099
B1616584226725N07150400WA0165301663001003099
B1616594226734N07150416WA0165301661001003099
B1617004226744N07150431WA0165101659001003099
B1617014226756N07150443WA0164901657001002098
B1617014226756N07150443WA0164701657001000098
B1617024226768N07150453WA0164701655001000098
B1617024226768N07150453WA0164501655001000098
B1617034226782N07150460WA0164501654001000098
B1617044226796N07150465WA0164401653001000097
B1617054226811N07150467WA0164301653001000096
B1617064226825N07150465WA0164201653001000094
B1617064226825N07150465WA0164201653001000094
B1617074226838N07150461WA0164201653001000093
B1617084226851N07150454WA0164201652001000093
B1617094226863N07150444WA0164101651001000093
B1617094226863N07150444WA0164001651001000093
B1617104226874N07150433WA0164001649001000096
B1617114226885N07150419WA0163901648001000097
B1617124226894N07150403WA0163901649001000098
B1617134226901N07150386WA0163901651001000098
B1617144226908N07150368WA0164001653001000096
B1617154226912N07150350WA0164201655001000096
B1617164226915N07150331WA0164301657001000096
B1617174226915N07150312WA0164401658001000096
B1617174226915N07150312WA0164701658001000096
B1617184226915N07150292WA0164701660001000097
B1617194226912N07150273WA0164901662001000098
B1617204226907N07150254WA0165001665001000099
B1617214226900N07150236WA0165301667001002100
B1617224226890N07150220WA0165501668001006102
B1617234226879N07150206WA0165601670001006102
B1617244226867N07150193WA0165801673001006101
B1617254226854N07150183WA0166001675001006101
B1617264226840N07150174WA0166201677001006101
B1617274226826N07150167WA0166401678001005102
B1617284226811N07150163WA0166501678001004103
B1617294226796N07150160WA0166501678001001103
B1617304226780N07150159WA0166701678001001104
B1617314226765N07150160WA0166701679001000103
B1617324226749N07150161WA0166701680001000102
B1617334226734N07150165WA0166801679001000102
B1617344226719N07150170WA0166701677001000103
B1617354226704N07150177WA0166601674001000105
B1617354226704N07150177WA0166601674001000105
B1617364226690N07150187WA0166401672001000107
B1617374226676N07150198WA0166201671001000108
B1617384226663N07150211WA0166001669001000108
B1617394226651N07150225WA0165801666001000108
B1617404226639N07150240WA0165601663001000110
B1617414226628N07150257WA0165401661001000111
B1617414226628N07150257WA0165201661001000111
B1617424226617N07150275WA0165201660001000111
B1617434226608N07150293WA0165001659001000109
B1617444226600N07150312WA0164901657001000108
B1617454226594N07150332WA0164701655001000107
B1617454226594N07150332WA0164601655001000107
B1617464226589N07150352WA0164601654001000106
B1617474226585N07150373WA0164401653001000105
B1617484226582N07150394WA0164301652001000103
B1617494226581N07150414WA0164201650001000101
B1617504226582N07150435WA0164101649001000100
B1617504226582N07150435WA0164101649001000100
B1617514226585N07150455WA0164001647001000099
B1617524226589N07150474WA0163801646001000098
B1617524226589N07150474WA0163801646001000098
B1617534226595N07150492WA0163601646001000096
B1617534226595N07150492WA0163601646001000096
F1617540103061417192124133
B1617544226602N07150508WA0163601646001000094
B1617554226611N07150523WA0163701647001000091
B1617564226620N07150536WA0163701647001000088
B1617574226631N07150546WA0163701646001000087
B1617584226642N07150555WA0163601645001000086
B1617584226642N07150555WA0163601645001000086
B1617594226654N07150561WA0163601644001000085
B1618004226667N07150564WA0163501643001000085
B1618004226667N07150564WA0163401643001000085
B1618014226680N07150565WA0163401642001000086
B1618024226692N07150564WA0163301640001000086
B1618024226692N07150564WA0163201640001000086
B1618034226705N07150560WA0163201639001000086
B1618034226705N07150560WA0163001639001000086
B1618044226717N07150554WA0163001639001000086
B1618054226728N07150545WA0162901638001000086
B1618064226738N07150534WA0162801638001000086
B1618064226738N07150534WA0162801638001000086
B1618074226747N07150521WA0162701636001000087
B1618084226754N07150506WA0162601633001000089
B1618094226759N07150489WA0162401629001000093
B1618104226763N07150470WA0162201627001000098
B1618114226765N07150449WA0161901624001000102
B1618114226765N07150449WA0161701624001000102
B1618124226765N07150428WA0161701623001000105
B1618124226765N07150428WA0161501623001000105
B1618134226763N07150407WA0161401623001000106
B1618144226760N07150386WA0161301623001000107
B1618154226754N07150366WA0161301624001000106
B1618164226747N07150347WA0161301625001000105
B1618174226738N07150330WA0161301627001000104
B1618174226738N07150330WA0161401627001000104
B1618184226727N07150314WA0161401627001000104
B1618184226727N07150314WA0161601627001000104
B1618194226715N07150301WA0161701625001000105
B1618204226702N07150289WA0161701623001000108
B1618214226687N07150279WA0161701621001000110
B1618224226672N07150270WA0161601620001000111
B1618224226672N07150270WA0161501620001000111
B1618234226656N07150263WA0161501617001000112
B1618244226640N07150258WA0161301615001000114
B1618254226622N07150256WA0161101612001000116
B1618264226605N07150255WA0160901611001000118
B1618274226587N07150257WA0160701609001000119
B1618274226587N07150257WA0160501609001000119
B1618284226570N07150262WA0160501608001000120
B1618294226552N07150268WA0160301606001000120
B1618294226552N07150268WA0160201606001000120
B1618304226535N07150277WA0160201606001000119
B1618304226535N07150277WA0160101606001000119
B1618314226519N07150287WA0160001606001000118
B1618324226504N07150299WA0160001605001000117
B1618334226490N07150313WA0159901604001000116
B1618334226490N07150313WA0159901604001000116
B1618344226477N07150329WA0159901603001000115
B1618354226466N07150346WA0159701603001000114
B1618354226466N07150346WA0159701603001000114
B1618364226455N07150364WA0159701602001000113
B1618374226447N07150383WA0159601602001000111
B1618384226440N07150404WA0159601602001000109
B1618394226434N07150424WA0159501601001000108
B1618394226434N07150424WA0159501601001000108
B1618404226431N07150446WA0159501599001000106
B1618414226429N07150467WA0159401597001000106
B1618424226430N07150488WA0159201594001000106
B1618424226430N07150488WA0158901594001000106
B1618434226432N07150509WA0158901591001000106
B1618434226432N07150509WA0158701591001000106
B1618444226437N07150530WA0158601587001000107
B1618454226444N07150550WA0158401584001000107
B1618464226453N07150568WA0158001581001000107
B1618464226453N07150568WA0158001581001000107
B1618474226463N07150584WA0157801579001000106
B1618484226474N07150599WA0157501578001000105
B1618494226487N07150611WA0157301576001000105
B1618504226501N07150621WA0157001573001000105
B1618514226516N07150629WA0156801570001000107
B1618514226516N07150629WA0156601570001000107
B1618524226531N07150636WA0156601567001000109
B1618534226547N07150642WA0156301564001000110
B1618544226563N07150649WA0156101562001000112
F161855010306141719212430133
B1618554226579N07150655WA0155801560001000114
B1618564226596N07150660WA0155501557001000115
B1618574226613N07150666WA0155201554001000117
B1618584226630N07150671WA0154901548001000120
B1618594226648N07150675WA0154501542001000125
B1619004226667N07150679WA0154101537001000130
B1619004226667N07150679WA0154101537001000130
B1619014226687N07150683WA0153701535001000133
B1619024226707N07150687WA0153301534001000135
B1619034226727N07150690WA0153001534001006135
B1619044226747N07150694WA0152801535001001135
B1619054226767N07150697WA0152801535001000135
B1619064226787N07150701WA0152701534001000135
B1619064226787N07150701WA0152701534001000135
B1619074226807N07150704WA0152601532001000136
B1619084226827N07150707WA0152601531001000138
B1619094226848N07150710WA0152401530001000140
B1619104226869N07150714WA0152301529001000142
B1619114226890N07150718WA0152201529001000143
B1619124226912N07150723WA0152101528001000144
B1619124226912N07150723WA0152001528001000144
B1619134226933N07150728WA0152001526001000144
B1619144226954N07150732WA0151801522001000145
B1619154226976N07150735WA0151701520001000146
B1619154226976N07150735WA0151501520001000146
B1619164226998N07150738WA0151501519001000145
B1619174227020N07150740WA0151301516001000146
B1619184227041N07150742WA0151001513001000147
B1619194227064N07150744WA0150801510001000148
B1619204227086N07150747WA0150501508001000149
B1619214227108N07150749WA0150201509001000147
B1619224227130N07150751WA0150101510001000145
B1619234227151N07150753WA0150101512001000143
B1619244227172N07150754WA0150201513001000141
B1619254227193N07150754WA0150301515001000138
B1619254227193N07150754WA0150401515001000138
B1619264227214N07150755WA0150401516001000137
B1619274227234N07150755WA0150501516001000135
B1619274227234N07150755WA0150601516001000135
B1619284227254N07150756WA0150601515001000135
B1619294227275N07150756WA0150501513001000135
B1619304227295N07150756WA0150401510001000136
B1619314227316N07150756WA0150201508001000138
B1619324227336N07150756WA0150101507001000138
B1619334227357N07150757WA0150001505001000138
B1619344227378N07150758WA0149801505001000138
B1619354227398N07150759WA0149701503001000138
B1619364227419N07150760WA0149601503001000138
B1619374227440N07150761WA0149501502001000138
B1619374227440N07150761WA0149401502001000138
B1619384227461N07150761WA0149401502001000138
B1619384227461N07150761WA0149301502001000138
B1619394227481N07150762WA0149301501001000137
B1619404227502N07150762WA0149301501001000136
B1619414227522N07150762WA0149201501001000136
B1619414227522N07150762WA0149201501001000136
B1619424227543N07150762WA0149201500001000136
B1619434227563N07150763WA0149101500001000136
B1619434227563N07150763WA0149101500001000136
B1619444227583N07150764WA0149101499001000135
B1619454227603N07150765WA0149101500001000134
B1619464227623N07150767WA0149101501001000133
B1619464227623N07150767WA0149101501001000133
B1619474227643N07150769WA0149101501001000132
B1619484227663N07150771WA0149101501001000132
B1619494227683N07150773WA0149001499001000132
B1619504227703N07150775WA0149001497001000133
B1619514227723N07150778WA0148901494001000134
B1619514227723N07150778WA0148601494001000134
B1619524227743N07150780WA0148601492001000135
B1619534227763N07150783WA0148401490001000136
B1619544227783N07150786WA0148201488001000136
B1619554227803N07150790WA0148001487001000137
B1619564227824N07150794WA0147901486001000137
B1619574227844N07150797WA0147801486001000136
B1619574227844N07150797WA0147701486001000136
B1619584227864N07150801WA0147701487001000136
B1619594227884N07150804WA0147701487001000135
B1620004227904N07150806WA0147701487001000134
B1620014227924N07150809WA0147701487001000133
B1620014227924N07150809WA0147701487001000133
B1620024227944N07150811WA0147701486001000132
B1620034227964N07150813WA0147701485001000131
B1620044227983N07150815WA0147601485001000130
B1620054228003N07150817WA0147601485001000128
B1620064228022N07150819WA0147601485001000126
B1620074228040N07150821WA0147601486001000125
B1620084228059N07150822WA0147601486001000123
B1620094228077N07150824WA0147701485001000123
B1620104228096N07150827WA0147601483001000123
B1620114228114N07150830WA0147401481001000124
B1620124228133N07150832WA0147301479001000125
B1620134228151N07150835WA0147101478001000125
B1620134228151N07150835WA0147001478001000125
B1620144228170N07150837WA0147001476001000127
B1620154228189N07150840WA0146901476001000128
B1620164228208N07150843WA0146801476001000129
B1620164228208N07150843WA0146701476001000129
B1620174228228N07150845WA0146801477001000129
B1620184228247N07150848WA0146801479001000128
B1620194228266N07150851WA0146801481001000127
B1620204228285N07150853WA0147001483001000125
B1620214228303N07150856WA0147101484001000125
B1620224228322N07150858WA0147201483001000127
B1620234228341N07150860WA0147301482001000129
B1620234228341N07150860WA0147301482001000129
B1620244228361N07150862WA0147301481001000132
B1620254228381N07150865WA0147201481001000135
B1620264228401N07150870WA0147201481001000137
B1620274228421N07150875WA0147301483001000137
B1620284228441N07150880WA0147401486001000136
B1620294228461N07150884WA0147501490001000133
B1620304228481N07150889WA0147901493001000131
B1620314228500N07150893WA0148101496001000129
B1620324228519N07150897WA0148401498001000127
B1620324228519N07150897WA0148601498001000127
B1620334228538N07150902WA0148601499001000127
B1620344228556N07150906WA0148801502001000127
B1620354228575N07150911WA0148901504001000126
B1620364228593N07150916WA0149201505001000124
B1620374228612N07150921WA0149401505001000123
B1620374228612N07150921WA0149401505001000123
B1620384228630N07150926WA0149401504001000122
B1620394228648N07150931WA0149401501001000123
B1620404228666N07150937WA0149101497001000126
B1620404228666N07150937WA0149101497001000126
B1620404228666N07150937WA0148701497001000126
B1620414228685N07150943WA0148701491001000130
B1620424228704N07150949WA0148501486001000134
B1620434228724N07150956WA0148001482001000137
B1620434228724N07150956WA0147701482001000137
B1620444228744N07150962WA0147701480001000139
B1620454228764N07150969WA0147301478001000140
B1620464228785N07150975WA0147101476001000140
B1620474228805N07150981WA0146801475001000139
B1620474228805N07150981WA0146701475001000139
B1620484228826N07150987WA0146701474001000139
B1620494228846N07150993WA0146601473001000137
B1620504228865N07151000WA0146501474001000135
B1620514228885N07151006WA0146501475001000133
B1620514228885N07151006WA0146501475001000133
B1620524228904N07151013WA0146501476001000131
B1620534228923N07151019WA0146601478001000128
F162054010306141719212430
B1620544228941N07151026WA0146701480001000125
B1620544228941N07151026WA0146901480001000125
B1620554228959N07151032WA0146901482001000123
B1620564228977N07151039WA0147101483001000121
B1620574228994N07151045WA0147201484001000119
B1620574228994N07151045WA0147301484001000119
B1620584229011N07151052WA0147301484001000119
B1620594229028N07151058WA0147401483001000119
B1621004229045N07151066WA0147301482001000120
B1621014229063N07151073WA0147301479001000121
B1621014229063N07151073WA0147101479001000121
B1621024229080N07151081WA0147101475001000123
B1621034229098N07151088WA0146801471001000126
B1621044229116N07151095WA0146501466001000128
B1621054229135N07151102WA0146101463001000131
B1621054229135N07151102WA0145701463001000131
B1621064229154N07151109WA0145701460001000132
B1621074229174N07151115WA0145501457001000133
B1621084229193N07151123WA0145101455001000134
B1621094229212N07151131WA0144901451001000135
B1621104229232N07151139WA0144701449001000137
B1621114229251N07151148WA0144401448001000138
B1621124229271N07151157WA0144301450001000138
B1621134229291N07151165WA0144401454001000137
B1621144229310N07151173WA0144601460001000134
B1621154229329N07151180WA0144901465001000131
B1621164229348N07151188WA0145201468001000128
B1621174229366N07151195WA0145601471001000128
B1621174229366N07151195WA0145601471001000128
B1621184229384N07151202WA0145901474001000127
B1621194229403N07151209WA0146301477001000127
B1621204229421N07151217WA0146601481001000125
B1621214229439N07151224WA0146901484001000124
B1621224229456N07151232WA0147301488001000122
B1621234229472N07151242WA0147701493001000119
B1621244229488N07151255WA0148101498001000118
B1621254229501N07151269WA0148501504001000115
B1621254229501N07151269WA0148501504001000115
B1621264229513N07151286WA0148901509001000114
B1621274229522N07151305WA0149201514001002113
B1621274229522N07151305WA0149801514001003113
B1621284229528N07151326WA0149801518001003112
B1621294229531N07151349WA0150201522001001111
B1621294229531N07151349WA0150601522001002111
B1621304229532N07151371WA0150601525001002110
B1621304229532N07151371WA0150801525001006110
B1621314229529N07151393WA0150801528001006109
B1621324229524N07151414WA0151101529001008110
B1621334229516N07151433WA0151201529001006111
B1621344229505N07151451WA0151401528001006114
B1621354229492N07151466WA0151401529001004116
B1621364229477N07151479WA0151501531001006118
B1621374229461N07151489WA0151701535001005118
B1621384229444N07151495WA0151901538001002116
B1621394229427N07151497WA0152201541001003114
B1621404229410N07151494WA0152501544001005110
B1621414229395N07151488WA0152701547001005108
B1621424229381N07151478WA0152901549001005105
B1621434229369N07151464WA0153201552001003103
B1621444229360N07151448WA0153501555001003100
B1621444229360N07151448WA0153701555001002100
B1621454229353N07151430WA0153701558001002098
B1621464229350N07151411WA0154201561001003095
B1621464229350N07151411WA0154501561001001095
B1621474229350N07151392WA0154501566001001094
B1621484229354N07151373WA0154801570001002094
B1621494229360N07151357WA0155301574001003094
B1621494229360N07151357WA0155601574001002094
B1621504229370N07151342WA0155601578001002094
B1621514229381N07151330WA0156001582001004094
B1621524229394N07151322WA0156201584001002095
B1621534229408N07151317WA0156401583001001097
B1621544229422N07151315WA0156501583001001101
B1621554229438N07151317WA0156601584001000103
B1621564229453N07151323WA0156701586001000104
B1621574229466N07151332WA0156901590001000104
B1621584229478N07151346WA0157201595001000104
B1621594229487N07151364WA0157501601001000105
B1621594229487N07151364WA0158001601001000105
B1622004229492N07151384WA0158001607001000105
B1622014229495N07151405WA0158601611001000104
B1622014229495N07151405WA0159001611001000104
B1622024229495N07151426WA0159001615001000104
B1622034229491N07151446WA0159301617001000105
F162204010306141719212430133
B1622044229485N07151466WA0159701618001006107
B1622054229475N07151483WA0159901621001006109
B1622064229463N07151498WA0160101624001003110
B1622074229448N07151509WA0160401628001002110
B1622084229433N07151517WA0160801631001005109
B1622094229417N07151520WA0161201634001003107
B1622104229401N07151520WA0161501636001006105
B1622114229386N07151516WA0161701639001006102
B1622114229386N07151516WA0161901639001006102
B1622124229372N07151508WA0161901641001006100
B1622134229360N07151496WA0162101643001007099
B1622144229350N07151482WA0162501645001006096
B1622154229344N07151465WA0162801649001010093
B1622164229341N07151447WA0163101653001010091
B1622174229342N07151428WA0163401656001010090
B1622184229345N07151411WA0163701659001012091
B1622184229345N07151411WA0164001659001011091
B1622194229351N07151394WA0164001662001011092
B1622204229360N07151380WA0164301666001008093
B1622204229360N07151380WA0164701666001008093
B1622214229371N07151368WA0164701670001008093
B1622224229384N07151360WA0165001674001001093
B1622234229397N07151354WA0165501677001000093
B1622244229411N07151352WA0165801678001001095
B1622254229426N07151354WA0165901679001001097
B1622264229439N07151361WA0166101682001000099
B1622274229452N07151371WA0166401686001001099
B1622284229462N07151386WA0166701691001000099
B1622294229469N07151404WA0167001695001000098
B1622304229471N07151423WA0167401700001000098
B1622314229471N07151443WA0167901703001000099
B1622324229466N07151462WA0168201706001000100
B1622334229459N07151480WA0168601707001000102
B1622344229449N07151496WA0168901707001000105
B1622354229437N07151510WA0168901706001000110
B1622364229422N07151522WA0168901706001000112
B1622374229406N07151528WA0168901707001000112
B1622384229390N07151530WA0169001709001000111
B1622394229373N07151527WA0169201711001000109
B1622404229358N07151521WA0169401713001000103
B1622414229345N07151510WA0169601714001000100
B1622424229335N07151495WA0169901714001000097
B1622434229328N07151478WA0170401713001000096
B1622444229326N07151459WA0170701716001000097
B1622444229326N07151459WA0170701716001000097
B1622454229328N07151439WA0171001719001001096
B1622454229328N07151439WA0171301719001002096
B1622464229334N07151421WA0171301721001002097
B1622474229343N07151406WA0171601724001002098
B1622474229343N07151406WA0171801724001003098
B1622484229354N07151393WA0171801727001003098
B1622494229368N07151385WA0172101732001002098
B1622504229382N07151381WA0172501736001002095
B1622514229396N07151382WA0172801741001002094
B1622524229410N07151387WA0173101744001001094
B1622534229422N07151397WA0173501748001002095
B1622544229431N07151411WA0173601751001003096
B1622554229438N07151428WA0173901755001001096
B1622564229441N07151447WA0174101758001000097
B1622574229441N07151467WA0174401759001001100
B1622584229438N07151487WA0174601759001000103
B1622594229431N07151507WA0174701759001002107
B1623004229421N07151524WA0174801759001002110
B1623014229408N07151538WA0174801759001004112
B1623014229408N07151538WA0174801759001004112
B1623024229393N07151549WA0174801760001003113
B1623034229377N07151555WA0174801762001001111
B1623034229377N07151555WA0175001762001000111
B1623044229361N07151556WA0175001765001000109
B1623054229345N07151553WA0175301767001001105
B1623064229331N07151545WA0175501769001001100
B1623074229319N07151534WA0175701770001000097
B1623084229309N07151520WA0176001770001000096
B1623094229301N07151504WA0176201767001000093
B1623104229296N07151487WA0176501766001000093
B1623114229295N07151468WA0176801770001000093
B1623114229295N07151468WA0177401770001000093
B1623124229296N07151449WA0177401776001000092
B1623124229296N07151449WA0177701776001000092
B1623134229300N07151430WA0177701781001000092
B1623144229306N07151413WA0178001785001000092
B1623154229313N07151397WA0178201786001000092
B1623164229323N07151383WA0178401786001000093
B1623164229323N07151383WA0178501786001000093
B1623174229334N07151372WA0178501788001000093
B1623184229347N07151364WA0178701790001000090
B1623194229360N07151360WA0178801793001000088
B1623204229373N07151361WA0178901795001000088
B1623214229385N07151365WA0179001798001000088
B1623224229397N07151375WA0179201799001000089
B1623234229406N07151388WA0179301800001000092
B1623244229413N07151405WA0179401801001000096
B1623254229416N07151424WA0179401801001000100
B1623254229416N07151424WA0179401801001000100
B1623264229415N07151445WA0179501801001000104
B1623274229410N07151465WA0179501802001000107
B1623284229402N07151484WA0179501804001000108
B1623284229402N07151484WA0179601804001000108
B1623294229390N07151499WA0179601805001000109
B1623304229377N07151512WA0179601805001000111
B1623314229361N07151520WA0179601806001000113
B1623324229344N07151523WA0179601806001000113
B1623334229327N07151521WA0179701808001000111
B1623334229327N07151521WA0179901808001000111
B1623344229312N07151513WA0179901810001000107
B1623354229299N07151502WA0180001812001000103
B1623364229289N07151487WA0180101815001008100
B1623374229282N07151469WA0180301816001011098
B1623384229279N07151450WA0180401816001011096
B1623394229280N07151430WA0180501816001011097
B1623404229284N07151411WA0180601816001005098
B1623404229284N07151411WA0180701816001003098
B1623414229291N07151394WA0180701816001003098
B1623424229301N07151379WA0180801816001001097
B1623434229312N07151367WA0180701816001001096
F1623440103061417192130133
B1623444229325N07151358WA0180701817001002098
B1623454229339N07151352WA0180601819001000096
B1623464229353N07151349WA0180701821001000095
B1623474229367N07151350WA0180801824001000092
B1623484229381N07151355WA0181001827001000090
B1623494229393N07151363WA0181301830001000088
B1623504229404N07151372WA0181501833001000087
B1623514229415N07151380WA0181701834001000087
B1623524229427N07151387WA0181801833001000087
B1623524229427N07151387WA0182001833001000087
B1623534229440N07151393WA0182001832001000091
B1623544229454N07151399WA0182201831001000095
B1623554229468N07151404WA0182101829001000099
B1623564229482N07151408WA0182001827001000103
B1623574229498N07151412WA0181801825001000106
B1623584229514N07151416WA0181601823001000110
B1623594229531N07151419WA0181401821001000113
B1624004229548N07151421WA0181201819001000115
B1624014229565N07151424WA0181001816001000117
B1624024229583N07151427WA0180701811001000120
B1624034229601N07151430WA0180401806001000124
B1624044229620N07151434WA0180001802001000129
B1624054229639N07151438WA0179601799001000132
B1624064229659N07151443WA0179201796001000133
B1624074229679N07151447WA0178901794001000135
B1624084229699N07151452WA0178601792001000137
B1624094229719N07151455WA0178301791001000138
B1624104229740N07151459WA0178201789001000139
B1624114229761N07151462WA0178001788001000139
B1624124229782N07151465WA0177701785001000139
B1624134229802N07151468WA0177601784001000140
B1624144229823N07151471WA0177401784001000140
B1624154229844N07151474WA0177401784001000140
B1624164229865N07151477WA0177301782001000140
B1624164229865N07151477WA0177201782001000140
B1624174229886N07151479WA0177201780001000142
B1624184229908N07151482WA0177101779001000144
B1624194229929N07151485WA0177001781001000144
B1624194229929N07151485WA0177001781001000144
B1624204229951N07151487WA0177001781001000144
B1624214229972N07151491WA0177001781001000143
B1624224229993N07151494WA0177001781001000143
B1624234230015N07151498WA0177001780001000142
B1624244230036N07151503WA0176901778001000143
B1624254230057N07151508WA0176801776001000143
B1624264230078N07151513WA0176601774001000144
B1624274230099N07151519WA0176401771001000146
B1624274230099N07151519WA0176201771001000146
B1624284230121N07151524WA0176201770001000146
B1624294230143N07151528WA0176001768001000146
B1624304230164N07151534WA0175901767001000146
B1624314230186N07151539WA0175801768001000145
B1624324230207N07151545WA0175801769001000143
B1624324230207N07151545WA0175801769001000143
B1624334230228N07151551WA0175801771001000141
B1624334230228N07151551WA0175901771001000141
B1624344230248N07151557WA0176001773001000139
B1624354230268N07151564WA0176101774001000137
B1624354230268N07151564WA0176201774001000137
B1624364230288N07151571WA0176201775001000135
B1624374230307N07151578WA0176201774001000134
B1624384230327N07151584WA0176301773001000134
B1624384230327N07151584WA0176201773001000134
B1624394230346N07151591WA0176201769001000135
B1624404230366N07151597WA0176001766001000136
B1624404230366N07151597WA0175801766001000136
B1624414230386N07151603WA0175801764001000136
B1624424230406N07151608WA0175501761001000137
B1624434230427N07151614WA0175201759001000138
B1624444230447N07151620WA0175001757001000139
F162445010306141719212430
B1624454230467N07151625WA0174801755001000140
B1624464230488N07151631WA0174601751001000141
B1624474230509N07151636WA0174301749001000142
B1624484230530N07151641WA0174101749001000142
B1624494230551N07151647WA0173901747001000141
B1624504230571N07151652WA0173801746001000141
B1624514230592N07151657WA0173601744001000141
B1624524230613N07151662WA0173501742001000141
B1624524230613N07151662WA0173501742001000141
B1624534230634N07151667WA0173301741001000141
B1624544230655N07151672WA0173101740001000141
B1624554230676N07151676WA0173001739001000141
B1624564230697N07151681WA0173001740001000141
B1624574230717N07151686WA0173001740001000141
B1624584230738N07151690WA0172901739001000141
B1624594230759N07151695WA0172901739001000141
B1625004230780N07151700WA0172801738001000141
B1625014230801N07151706WA0172701737001000142
B1625024230822N07151711WA0172601735001000143
B1625034230843N07151716WA0172501733001000144
B1625034230843N07151716WA0172401733001000144
B1625044230865N07151722WA0172401733001000147
B1625054230886N07151727WA0172401734001000147
B1625064230908N07151733WA0172401735001000147
B1625074230930N07151738WA0172401735001000148
B1625084230952N07151743WA0172401734001000148
B1625094230974N07151748WA0172301732001000149
B1625104230996N07151753WA0172201731001000150
B1625114231018N07151758WA0172101730001000150
B1625124231040N07151764WA0172001729001000150
B1625134231062N07151769WA0171901727001000150
B1625144231084N07151775WA0171701725001000151
B1625154231107N07151780WA0171601724001000151
B1625164231129N07151785WA0171401723001000151
B1625174231152N07151789WA0171301721001000151
B1625184231174N07151793WA0171201720001000151
B1625194231197N07151797WA0170901718001000152
B1625204231219N07151801WA0170701715001000153
B1625214231242N07151805WA0170601713001000154
B1625224231265N07151810WA0170401710001000155
B1625224231265N07151810WA0170101710001000155
B1625234231288N07151815WA0170101708001000156
B1625244231311N07151821WA0169901707001000156
B1625254231334N07151827WA0169801707001000155
B1625264231357N07151833WA0169701707001000155
B1625274231379N07151839WA0169601705001000155
B1625284231402N07151845WA0169501704001000155
B1625294231425N07151852WA0169401703001000155
B1625304231448N07151858WA0169301701001000155
B1625314231471N07151863WA0169201700001000156
B1625324231494N07151869WA0169001698001000156
B1625334231517N07151874WA0168901696001000157
B1625334231517N07151874WA0168701696001000157
B1625344231540N07151880WA0168701695001000157
B1625354231563N07151886WA0168601696001000156
B1625364231586N07151892WA0168601696001000155
B1625374231609N07151898WA0168601697001000155
B1625384231631N07151905WA0168701699001000152
B1625394231653N07151912WA0168801702001000150
B1625404231675N07151919WA0169001706001000148
B1625414231697N07151926WA0169301710001000146
B1625424231718N07151933WA0169601713001000144
B1625434231739N07151940WA0169901715001000143
B1625444231759N07151947WA0170101714001000143
B1625454231780N07151954WA0170101710001000144
B1625464231801N07151962WA0170001705001000147
B1625464231801N07151962WA0169701705001000147
B1625474231823N07151970WA0169701700001000150
B1625484231845N07151979WA0169101695001000153
B1625494231867N07151987WA0168801691001000156
B1625504231890N07151996WA0168301688001000158
B1625514231913N07152005WA0168001686001000158
B1625514231913N07152005WA0167801686001000158
B1625524231936N07152013WA0167801684001000159
B1625534231959N07152021WA0167601681001000159
B1625544231982N07152029WA0167301679001000159
B1625554232005N07152035WA0167101679001000158
B1625564232028N07152042WA0167001680001000156
B1625574232051N07152047WA0167001681001000154
B1625584232074N07152053WA0167101682001000152
B1625594232096N07152057WA0167201683001000150
B1626004232118N07152061WA0167201684001000149
B1626014232140N07152066WA0167201683001000149
B1626014232140N07152066WA0167201683001000149
B1626024232162N07152071WA0167201683001000150
B1626034232185N07152076WA0167201681001000150
B1626044232207N07152081WA0167101679001000151
B1626054232229N07152087WA0167001677001000152
B1626064232252N07152093WA0166901676001000152
B1626074232274N07152098WA0166801677001000151
B1626084232296N07152104WA0166701679001000149
B1626094232318N07152109WA0166801681001000147
B1626104232339N07152115WA0166901682001000145
B1626114232361N07152121WA0167101683001000144
B1626124232382N07152127WA0167101683001000142
B1626134232402N07152134WA0167201683001000141
B1626144232423N07152140WA0167201682001000141
B1626154232443N07152147WA0167201680001000142
B1626164232464N07152154WA0167101678001000142
B1626164232464N07152154WA0166901678001000142
B1626174232485N07152161WA0166901676001000143
B1626184232506N07152169WA0166701674001000144
B1626184232506N07152169WA0166601674001000144
B1626194232527N07152177WA0166601672001000145
B1626204232548N07152184WA0166401670001000146
B1626214232569N07152192WA0166201668001000146
B1626224232590N07152201WA0166001665001000146
B1626234232611N07152209WA0165701663001000146
B1626244232632N07152218WA0165601661001000146
B1626254232653N07152227WA0165401659001000145
B1626254232653N07152227WA0165101659001000145
B1626264232673N07152235WA0165101658001000145
B1626274232694N07152244WA0165001658001000144
B1626284232715N07152253WA0164901658001000144
B1626294232735N07152263WA0164801657001000144
B1626304232755N07152272WA0164801657001000143
B1626304232755N07152272WA0164701657001000143
B1626314232776N07152281WA0164701656001000143
B1626324232796N07152291WA0164701655001000143
B1626334232816N07152300WA0164601654001000143
B1626344232837N07152309WA0164501652001000144
B1626354232858N07152318WA0164401652001000146
B1626364232878N07152327WA0164301651001000146
B1626374232899N07152336WA0164201650001000147
B1626384232920N07152346WA0164101648001000149
B1626394232942N07152356WA0164001648001000150
B1626404232963N07152367WA0164001648001000150
B1626414232984N07152378WA0163901649001000149
B1626424233004N07152388WA0164001650001000147
B1626434233025N07152398WA0164001651001000145
B1626444233045N07152408WA0164101651001000143
B1626454233066N07152417WA0164001648001000143
B1626464233086N07152426WA0163901645001000144
B1626474233107N07152434WA0163701644001000144
B1626474233107N07152434WA0163601644001000144
B1626484233128N07152442WA0163601643001000144
B1626494233149N07152449WA0163501642001000145
B1626504233170N07152458WA0163301641001000146
B1626514233191N07152467WA0163201640001000147
B1626524233212N07152476WA0163101639001000149
B1626534233233N07152485WA0163101639001000150
B1626544233255N07152494WA0163101642001000147
B1626554233275N07152503WA0163401646001000144
B1626564233296N07152511WA0163501647001000142
B1626574233316N07152519WA0163501646001000142
B1626574233316N07152519WA0163501646001000142
B1626584233337N07152528WA0163501644001000142
B1626594233357N07152537WA0163501642001000143
B1626594233357N07152537WA0163301642001000143
B1627004233377N07152547WA0163301638001000145
B1627014233398N07152557WA0163001633001000148
B1627024233419N07152567WA0162701627001000152
B1627034233441N07152579WA0162201621001000154
B1627044233462N07152591WA0161601613001000157
B1627044233462N07152591WA0160801613001000157
B1627054233484N07152602WA0160801607001000161
B1627064233507N07152614WA0160301603001000162
B1627074233530N07152626WA0159901602001000161
B1627084233552N07152637WA0159601602001000159
B1627094233574N07152648WA0159501602001000156
B1627104233596N07152658WA0159501604001000153
B1627114233618N07152667WA0159501605001000150
B1627124233639N07152676WA0159501605001000148
B1627134233660N07152686WA0159501603001000147
B1627134233660N07152686WA0159401603001000147
B1627144233681N07152695WA0159401600001000147
B1627154233702N07152704WA0159201598001000147
B1627164233723N07152714WA0159101596001000147
B1627174233744N07152722WA0158901594001000146
B1627184233765N07152730WA0158701593001000145
B1627194233786N07152738WA0158601592001000145
B1627204233807N07152746WA0158401588001000146
B1627214233828N07152755WA0158301587001000146
B1627224233849N07152763WA0158101587001000144
B1627234233869N07152772WA0158001588001000143
B1627244233890N07152780WA0158001589001000141
B1627254233910N07152788WA0157901588001000140
B1627254233910N07152788WA0157901588001000140
B1627264233930N07152795WA0157901586001000141
B1627274233951N07152803WA0157701582001000143
B1627284233971N07152811WA0157501578001000145
B1627294233992N07152819WA0157201575001000147
B1627304234014N07152828WA0156901573001000149
B1627314234035N07152837WA0156601571001000150
B1627324234057N07152846WA0156401571001000151
B1627334234078N07152856WA0156301572001000150
B1627344234099N07152865WA0156301573001000149
B1627354234120N07152875WA0156401574001000147
B1627364234141N07152885WA0156501575001000146
B1627374234162N07152894WA0156601576001000146
B1627384234183N07152902WA0156701579001000145
B1627394234203N07152910WA0157001584001000142
B1627404234223N07152917WA0157501593001000132
B1627414234241N07152924WA0158301605001000121
B1627424234258N07152929WA0159101614001000113
B1627434234274N07152935WA0159801619001000109
B1627444234290N07152939WA0160401620001000107
B1627444234290N07152939WA0160701620001000107
B1627454234306N07152945WA0160701619001000108
B1627464234321N07152951WA0160601613001000110
B1627474234338N07152957WA0160301605001000116
B1627474234338N07152957WA0159901605001000116
B1627484234355N07152965WA0159901597001000124
B1627494234373N07152973WA0159301592001000131
B1627504234392N07152982WA0158601588001000135
B1627514234412N07152991WA0158301586001000137
B1627524234431N07153000WA0158101587001000136
B1627524234431N07153000WA0158001587001000136
B1627534234450N07153008WA0158001588001000134
B1627544234470N07153015WA0158001589001000133
B1627554234489N07153023WA0157901590001000132
B1627564234508N07153030WA0157901589001000131
B1627574234527N07153037WA0157901587001000132
B1627584234546N07153045WA0157801584001000134
B1627594234565N07153053WA0157601581001000136
B1628004234585N07153061WA0157301578001000139
B1628014234605N07153070WA0157101576001000141
B1628024234625N07153079WA0156901577001000141
B1628034234645N07153089WA0156901577001000140
B1628034234645N07153089WA0156801577001000140
B1628044234665N07153098WA0156801578001000140
B1628054234684N07153108WA0156801578001000139
B1628064234704N07153118WA0156901579001000139
B1628074234723N07153129WA0156901578001000139
B1628084234742N07153140WA0156901578001000140
B1628094234762N07153150WA0156901579001000140
B1628104234781N07153161WA0157001580001000139
B1628114234801N07153170WA0157101583001000137
B1628124234820N07153179WA0157201584001000135
B1628134234839N07153188WA0157301585001000135
B1628144234859N07153196WA0157401584001000135
B1628154234878N07153204WA0157401583001000136
B1628164234898N07153212WA0157301581001000137
B1628174234917N07153221WA0157201579001000138
B1628184234937N07153231WA0157001576001000140
B1628194234957N07153241WA0156901575001000142
B1628204234976N07153252WA0156701574001000143
B1628214234996N07153263WA0156601573001000143
B1628224235016N07153274WA0156401571001000143
B1628234235035N07153286WA0156301570001000143
B1628244235055N07153298WA0156101568001000144
B1628254235075N07153310WA0155901565001000145
B1628264235095N07153322WA0155701562001000147
B1628274235115N07153335WA0155401560001000148
B1628284235135N07153348WA0155201558001000149
B1628294235155N07153362WA0155001557001000149
B1628304235175N07153376WA0154801554001000151
B1628314235194N07153391WA0154601551001000152
B1628324235214N07153407WA0154401549001000154
B1628334235233N07153424WA0154201548001000154
B1628344235253N07153441WA0154101548001000153
B1628354235272N07153458WA0154001549001000151
B1628364235291N07153475WA0154001550001000150
B1628374235309N07153492WA0154001550001000148
B1628384235327N07153509WA0154001549001000147
B1628394235346N07153525WA0154001548001000147
B1628404235364N07153542WA0153901547001000146
B1628414235382N07153559WA0153801545001000146
B1628424235400N07153576WA0153701545001000145
B1628434235418N07153592WA0153601544001000144
B1628444235436N07153608WA0153501544001000143
B1628454235453N07153624WA0153501542001000143
B1628464235471N07153640WA0153301540001000144
B1628474235490N07153656WA0153101538001000145
B1628474235490N07153656WA0152901538001000145
B1628484235508N07153673WA0152901536001000146
B1628494235526N07153689WA0152801533001000146
B1628504235544N07153706WA0152401529001000147
B1628514235562N07153723WA0152201527001000147
B1628524235580N07153741WA0152001526001000147
B1628534235598N07153758WA0151801525001000147
B1628544235616N07153775WA0151701525001000148
B1628554235634N07153793WA0151701525001000148
B1628564235652N07153810WA0151601524001000146
B1628574235669N07153828WA0151501523001000146
B1628584235687N07153846WA0151401521001000146
B1628594235704N07153864WA0151301518001000147
B1629004235722N07153882WA0151001514001000149
B1629014235740N07153901WA0150801511001000150
B1629024235758N07153919WA0150501509001000150
B1629034235776N07153937WA0150301508001000150
B1629044235794N07153955WA0150201509001000148
B1629054235812N07153972WA0150101509001000146
B1629054235812N07153972WA0150101509001000146
B1629064235829N07153989WA0150101509001000144
B1629074235847N07154006WA0150001507001000143
B1629084235864N07154023WA0149901504001000142
B1629094235881N07154041WA0149701502001000143
B1629104235898N07154059WA0149501500001000143
B1629114235915N07154077WA0149401500001000143
B1629124235932N07154094WA0149301498001000144
B1629134235949N07154113WA0149001496001000144
B1629144235966N07154131WA0148801493001000146
B1629154235983N07154149WA0148501490001000147
B1629164236001N07154168WA0148301486001000150
B1629174236019N07154187WA0148001483001000152
B1629174236019N07154187WA0147601483001000152
B1629184236037N07154205WA0147601481001000154
B1629194236056N07154223WA0147501479001000155
B1629204236075N07154242WA0147301480001000153
B1629204236075N07154242WA0147301480001000153
B1629214236093N07154261WA0147301480001000152
B1629224236110N07154280WA0147301482001000151
B1629234236128N07154300WA0147401484001000149
B1629244236145N07154319WA0147501485001000147
B1629254236161N07154339WA0147601486001000146
B1629264236178N07154358WA0147701488001000145
B1629274236194N07154377WA0147901490001000143
B1629284236210N07154396WA0148001491001000142
B1629294236226N07154415WA0148101491001000141
B1629304236242N07154434WA0148101490001000141
B1629304236242N07154434WA0148101490001000141
B1629314236258N07154453WA0148001488001000140
B1629324236274N07154471WA0147901486001000141
B1629334236291N07154489WA0147901485001000142
B1629344236307N07154507WA0147801485001000142
B1629344236307N07154507WA0147801485001000142
B1629354236323N07154526WA0147801487001000141
B1629364236339N07154544WA0147901491001000139
B1629374236355N07154563WA0148101493001000135
B1629384236370N07154581WA0148201494001000134
B1629394236385N07154598WA0148301493001000133
B1629404236400N07154616WA0148201490001000134
B1629414236416N07154633WA0148101487001000136
B1629424236432N07154651WA0147901484001000139
B1629434236448N07154669WA0147801482001000141
B1629444236464N07154688WA0147501482001000142
B1629454236480N07154707WA0147501483001000142
F162946010306141719212430
B1629464236496N07154726WA0147501484001000141
B1629474236512N07154745WA0147501484001000140
B1629474236512N07154745WA0147401484001000140
B1629484236527N07154764WA0147401483001000140
B1629494236543N07154782WA0147401480001000140
B1629504236559N07154801WA0147201476001000142
B1629514236575N07154820WA0146901473001000144
B1629524236592N07154840WA0146601471001000144
B1629534236608N07154859WA0146401469001000144
B1629544236625N07154877WA0146101467001000144
B1629554236641N07154896WA0146001464001000145
B1629564236658N07154915WA0145601461001000146
B1629574236675N07154934WA0145401457001000147
B1629584236693N07154952WA0145001455001000148
B1629594236711N07154970WA0144901455001000147
B1630004236728N07154988WA0144801456001000145
B1630014236745N07155006WA0144901460001000141
B1630014236745N07155006WA0145101460001000141
B1630024236761N07155023WA0145101465001000136
B1630034236777N07155040WA0145401469001000133
B1630044236792N07155057WA0145601470001000132
B1630054236808N07155074WA0145801468001000133
B1630064236823N07155091WA0145701463001000135
B1630074236839N07155108WA0145501458001000137
B1630084236856N07155126WA0145101454001000139
B1630094236872N07155144WA0144801451001000140
B1630104236888N07155161WA0144401449001000140
B1630114236904N07155179WA0144201448001000138
B1630124236920N07155197WA0144101447001000137
B1630134236937N07155214WA0144001446001000136
B1630134236937N07155214WA0143801446001000136
B1630144236953N07155231WA0143801442001000136
B1630154236969N07155247WA0143501439001000137
B1630164236986N07155264WA0143301436001000137
B1630174237002N07155280WA0143101435001000137
B1630184237019N07155296WA0142801433001000137
B1630194237036N07155312WA0142601429001000138
B1630204237054N07155328WA0142301426001000139
B1630214237071N07155344WA0142001422001000142
B1630224237088N07155361WA0141701419001000144
B1630234237106N07155378WA0141401417001000146
B1630244237124N07155395WA0141201415001000147
B1630254237143N07155411WA0141001414001000146
B1630264237161N07155428WA0140801413001000146
B1630274237179N07155444WA0140601412001000146
B1630284237197N07155461WA0140501410001000146
B1630294237215N07155478WA0140401408001000148
B1630304237233N07155496WA0140201407001000149
B1630314237252N07155512WA0140001405001000150
B1630324237271N07155529WA0139801403001000150
B1630334237290N07155545WA0139701401001000151
B1630344237309N07155562WA0139501398001000151
B1630354237328N07155579WA0139301398001000151
B1630364237346N07155596WA0139301400001000149
B1630374237364N07155613WA0139401402001000146
B1630384237382N07155630WA0139501406001000143
B1630394237399N07155647WA0139701409001000139
B1630404237416N07155662WA0140001412001004137
B1630414237433N07155678WA0140301414001009135
B1630424237449N07155694WA0140501416001005135
B1630424237449N07155694WA0140701416001002135
B1630434237465N07155711WA0140701417001002134
B1630444237481N07155728WA0140801418001007132
B1630454237497N07155743WA0141101422001010128
B1630464237512N07155758WA0141301425001014124
F163047010306141719212430133
B1630474237527N07155772WA0141601429001013121
B1630474237527N07155772WA0141901429001013121
B1630484237542N07155786WA0141901431001013119
B1630494237556N07155801WA0142101432001013117
B1630504237570N07155816WA0142301431001006116
B1630514237583N07155831WA0142301429001000117
B1630524237597N07155846WA0142201427001000119
B1630534237611N07155861WA0142001423001000121
B1630544237625N07155876WA0141701418001000124
B1630554237640N07155892WA0141401414001000126
B1630564237656N07155907WA0141101411001000127
B1630574237671N07155922WA0140801410001000126
B1630584237687N07155935WA0140601410001000124
B1630594237704N07155947WA0140501409001000122
B1631004237720N07155958WA0140401408001000122
B1631004237720N07155958WA0140201408001000122
B1631014237736N07155969WA0140201406001000122
B1631024237753N07155980WA0140001404001000123
B1631034237769N07155992WA0139801401001000124
B1631044237785N07156005WA0139601399001000125
B1631054237801N07156019WA0139501398001000125
B1631064237816N07156033WA0139301396001000126
B1631074237832N07156048WA0139201395001000127
B1631084237848N07156061WA0139001393001000127
B1631094237865N07156073WA0138801392001000127
B1631104237882N07156084WA0138701391001000128
B1631114237900N07156095WA0138601390001000128
B1631124237917N07156105WA0138601390001000128
B1631134237935N07156115WA0138501390001000127
B1631144237952N07156125WA0138501390001000127
B1631154237970N07156135WA0138501391001000125
B1631164237987N07156144WA0138501392001000125
B1631174238005N07156153WA0138501392001000124
B1631184238022N07156162WA0138601393001000123
B1631194238039N07156171WA0138701394001000123
B1631204238057N07156178WA0138801395001000122
B1631214238074N07156186WA0138901396001000122
B1631214238074N07156186WA0139001396001000122
B1631224238091N07156194WA0139001398001000121
B1631234238108N07156204WA0139301402001000122
B1631244238124N07156214WA0139601408001000119
B1631254238140N07156225WA0140301415001000114
B1631264238155N07156235WA0140901423001000108
B1631274238170N07156242WA0141701430001000103
B1631284238185N07156245WA0142001435001000101
B1631294238200N07156245WA0142301438001000100
B1631304238214N07156242WA0142501439001000102
B1631314238229N07156235WA0142701439001000104
B1631324238243N07156225WA0142801440001000105
B1631334238256N07156212WA0142801441001000106
B1631344238266N07156196WA0142901441001000106
B1631354238274N07156178WA0143001442001000107
B1631364238280N07156157WA0143201445001000107
B1631374238282N07156136WA0143301448001000105
B1631384238281N07156115WA0143601452001000104
B1631394238277N07156095WA0143901456001000102
B1631404238270N07156077WA0144301460001000100
B1631414238261N07156061WA0144701465001000099
B1631424238250N07156049WA0145201470001000097
B1631434238237N07156039WA0145701475001000095
B1631444238224N07156033WA0146101479001000094
B1631454238210N07156029WA0146601483001000094
B1631464238196N07156029WA0146901485001000093
B1631464238196N07156029WA0147301485001000093
B1631474238182N07156032WA0147301487001000095
B1631484238168N07156039WA0147401488001000097
B1631494238155N07156048WA0147601491001000097
B1631504238144N07156060WA0147801493001000096
B1631514238134N07156074WA0148001494001000096
B1631524238125N07156089WA0148101494001000097
B1631534238119N07156107WA0148201493001000098
B1631544238114N07156126WA0148101492001000101
B1631554238110N07156147WA0148201494001000102
B1631564238109N07156167WA0148301497001000102
B1631574238108N07156188WA0148601501001000100
B1631584238109N07156208WA0148801504001000098
B1631594238112N07156227WA0149101506001000099
B1632004238117N07156246WA0149301508001000101
B1632014238124N07156265WA0149501510001000104
B1632024238133N07156282WA0149701512001000105
B1632034238145N07156297WA0149901515001000106
B1632044238157N07156310WA0150101518001000106
B1632054238171N07156320WA0150501520001000105
B1632064238186N07156328WA0150701522001000104
B1632074238201N07156332WA0150801522001000104
B1632084238217N07156333WA0151001524001000103
B1632094238232N07156332WA0151201526001000102
B1632094238232N07156332WA0151401526001000102
B1632104238247N07156327WA0151401527001000101
B1632114238261N07156320WA0151501528001000101
B1632124238274N07156309WA0151601528001000101
B1632134238285N07156296WA0151701529001000101
B1632144238295N07156280WA0151801530001000101
B1632144238295N07156280WA0151801530001000101
B1632154238302N07156262WA0151901531001000100
B1632164238308N07156243WA0152001533001000098
B1632174238311N07156224WA0152101534001000097
B1632184238312N07156204WA0152201535001000096
B1632194238312N07156184WA0152401537001000097
B1632194238312N07156184WA0152601537001000097
B1632204238312N07156165WA0152601540001000097
B1632214238311N07156145WA0152701544001000097
B1632224238309N07156126WA0153201549001000096
B1632234238307N07156107WA0153601554001000094
B1632244238303N07156088WA0154001558001000092
B1632254238297N07156072WA0154401562001000092
B1632264238288N07156057WA0154801565001000091
B1632274238278N07156045WA0155101567001000091
B1632284238266N07156037WA0155301569001000092
B1632294238253N07156031WA0155601571001000092
B1632304238239N07156028WA0155801572001000093
B1632314238225N07156030WA0155901572001000095
B1632324238211N07156035WA0156101573001000097
B1632334238198N07156043WA0156101574001000099
B1632344238186N07156056WA0156201574001000101
B1632354238176N07156071WA0156301575001000103
B1632364238168N07156089WA0156401577001000104
B1632374238162N07156109WA0156501580001000103
B1632384238160N07156129WA0156801583001000102
B1632394238160N07156150WA0157001586001000102
B1632404238164N07156170WA0157401590001000103
B1632414238171N07156188WA0157701594001000102
B1632424238181N07156204WA0158101598001000102
B1632434238193N07156217WA0158401601001000102
B1632444238207N07156226WA0158701604001000102
B1632444238207N07156226WA0159001604001000102
B1632454238222N07156232WA0159001606001000103
B1632464238237N07156233WA0159201607001000103
B1632474238253N07156232WA0159501609001000104
B1632484238268N07156226WA0159701611001000104
B1632494238281N07156216WA0159801613001000102
B1632504238293N07156203WA0160001615001000101
B1632514238302N07156186WA0160401618001000100
B1632524238307N07156168WA0160701622001000098
B1632534238310N07156148WA0160901626001000095
F163254010306141719212430
B1632544238309N07156129WA0161301630001000093
B1632554238306N07156111WA0161601634001000092
B1632564238299N07156095WA0162201638001000092
B1632574238291N07156081WA0162401641001000092
B1632584238280N07156069WA0162701643001000093
B1632594238267N07156060WA0162901647001000093
B1633004238254N07156055WA0163301650001000093
B1633014238240N07156054WA0163501652001000094
B1633024238226N07156056WA0163801654001000094
B1633034238212N07156061WA0164101656001000096
B1633034238212N07156061WA0164201656001000096
B1633044238199N07156069WA0164201657001000097
B1633054238188N07156081WA0164401658001000098
B1633064238178N07156096WA0164601660001000099
B1633074238170N07156113WA0164801662001000098
B1633084238164N07156131WA0164901663001000098
B1633094238161N07156151WA0165001665001000099
B1633104238161N07156171WA0165201668001000100
B1633114238163N07156191WA0165501672001000099
B1633124238168N07156210WA0165701676001000099
B1633134238176N07156227WA0166201680001000099
B1633144238186N07156242WA0166401684001000099
B1633154238198N07156254WA0166801687001000099
B1633164238211N07156264WA0167101690001000099
B1633174238225N07156269WA0167301692001000100
B1633184238240N07156272WA0167501693001000101
B1633194238255N07156271WA0167701693001000102
B1633204238270N07156266WA0167801694001000103
B1633204238270N07156266WA0168001694001000103
B1633214238285N07156258WA0168001695001000104
B1633224238298N07156247WA0168001696001000103
B1633234238309N07156233WA0168201697001000102
B1633244238319N07156217WA0168201697001000101
B1633244238319N07156217WA0168301697001000101
B1633254238326N07156198WA0168301698001000102
B1633264238330N07156179WA0168401700001000102
B1633274238332N07156158WA0168501703001000101
B1633284238332N07156138WA0168701707001000099
B1633294238329N07156118WA0169001711001000098
B1633304238324N07156100WA0169601715001000097
B1633314238317N07156083WA0169901719001000096
B1633324238307N07156069WA0170301724001000095
B1633334238296N07156057WA0170701729001000093
B1633344238283N07156049WA0171001733001000092
B1633354238270N07156043WA0171401736001000090
B1633364238257N07156041WA0171801739001000089
B1633374238244N07156042WA0172101740001000089
B1633384238231N07156045WA0172301739001000091
B1633394238218N07156052WA0172401737001000093
B1633404238205N07156061WA0172401735001000097
B1633414238193N07156073WA0172301733001000102
B1633424238182N07156088WA0172201734001000104
B1633434238173N07156105WA0172101736001000102
B1633444238166N07156122WA0172101738001000099
B1633454238160N07156141WA0172201740001000098
B1633464238156N07156160WA0172401743001000098
B1633474238155N07156179WA0172701745001000096
B1633484238155N07156199WA0172901748001000096
B1633494238157N07156218WA0173201751001000095
B1633504238160N07156237WA0173401754001000094
B1633514238164N07156255WA0173601755001000094
B1633524238171N07156272WA0173801756001000096
B1633534238179N07156288WA0174001757001000098
B1633544238188N07156304WA0174201759001000099
F163355010306141719212430133
B1633554238199N07156318WA0174301760001000099
B1633564238211N07156329WA0174401762001000099
B1633564238211N07156329WA0174501762001000099
B1633574238225N07156338WA0174501763001000098
B1633584238239N07156343WA0174701764001000097
B1633594238253N07156346WA0174801765001000097
B1634004238268N07156345WA0174901765001000098
B1634014238282N07156342WA0174901764001000100
B1634024238296N07156335WA0175001765001000101
B1634034238310N07156325WA0175001767001000100
B1634034238310N07156325WA0175101767001000100
B1634044238322N07156314WA0175101768001000099
B1634054238333N07156300WA0175201769001000098
B1634064238341N07156284WA0175301769001000098
B1634074238347N07156266WA0175301769001000098
B1634084238351N07156247WA0175501770001000098
B1634094238353N07156227WA0175501771001000098
B1634104238352N07156207WA0175601772001000098
B1634114238348N07156188WA0175701774001000098
B1634124238343N07156169WA0175901776001000098
B1634134238336N07156151WA0176101777001000098
B1634144238327N07156135WA0176201779001000099
B1634154238317N07156121WA0176401782001000099
B1634164238305N07156109WA0176701785001000099
B1634174238293N07156097WA0177001790001000096
B1634184238281N07156087WA0177301794001000094
B1634194238269N07156078WA0177901797001000092
B1634204238257N07156071WA0178201800001000090
B1634214238244N07156068WA0178401802001000089
B1634224238230N07156068WA0178601802001000090
B1634234238217N07156072WA0178701802001000092
B1634244238204N07156079WA0178701801001000094
B1634254238192N07156089WA0178701800001000096
B1634254238192N07156089WA0178701800001000096
B1634264238181N07156103WA0178701799001000098
B1634274238172N07156118WA0178601798001000099
B1634284238164N07156136WA0178501797001000100
B1634294238158N07156155WA0178501798001000100
B1634304238154N07156174WA0178501799001000100
B1634314238152N07156194WA0178501800001000099
B1634324238153N07156214WA0178501801001000097
B1634334238157N07156233WA0178601801001000097
B1634344238163N07156251WA0178701802001000097
B1634354238171N07156267WA0178901804001000098
B1634364238181N07156282WA0179001807001000098
B1634374238192N07156294WA0179201810001000098
B1634384238205N07156304WA0179301812001000097
B1634394238219N07156312WA0179601813001000098
B1634404238233N07156317WA0179701814001000098
B1634414238247N07156320WA0179801813001000099
B1634424238262N07156319WA0179901812001000100
B1634434238277N07156316WA0179801812001000102
B1634444238292N07156309WA0179801813001000102
B1634454238305N07156299WA0179801813001000102
B1634464238317N07156286WA0179901815001000102
B1634474238328N07156271WA0179901817001000100
B1634484238336N07156255WA0180101817001000099
B1634494238342N07156237WA0180201818001000098
B1634504238346N07156217WA0180301818001000099
B1634504238346N07156217WA0180401818001000099
B1634514238346N07156197WA0180401818001000100
B1634524238342N07156177WA0180401818001000102
B1634534238336N07156158WA0180401819001000103
B1634544238328N07156140WA0180401821001000102
B1634544238328N07156140WA0180701821001000102
B1634554238319N07156124WA0180701826001000100
B1634564238310N07156108WA0181001831001000098
B1634574238301N07156093WA0181301835001000096
B1634584238292N07156078WA0181701840001000094
B1634594238283N07156063WA0182101842001000093
B1635004238273N07156050WA0182601843001000094
B1635014238262N07156039WA0182701842001000095
B1635024238249N07156030WA0182901841001000097
B1635034238235N07156024WA0182801839001000099
B1635044238220N07156021WA0182901837001000099
B1635054238206N07156023WA0182901836001000099
B1635064238191N07156029WA0182801834001000100
B1635074238178N07156039WA0182501832001000101
B1635084238167N07156053WA0182401830001000103
B1635094238158N07156070WA0182301829001000103
B1635094238158N07156070WA0182201829001000103
B1635104238151N07156088WA0182201829001000102
B1635114238147N07156108WA0182101828001000102
B1635124238147N07156129WA0181901826001000102
B1635134238148N07156150WA0181801824001000104
B1635144238151N07156171WA0181601821001005107
B1635154238154N07156192WA0181301818001005110
B1635164238158N07156215WA0181101814001003113
B1635174238162N07156237WA0180601810001003118
B1635184238167N07156261WA0180301806001003122
B1635194238173N07156285WA0180101805001005127
B1635204238180N07156309WA0179901806001006127
B1635214238190N07156331WA0179901809001003126
B1635224238201N07156351WA0179901813001002124
B1635234238214N07156369WA0180201817001000122
B1635244238228N07156386WA0180401819001000120
B1635254238242N07156399WA0180601820001000120
B1635264238258N07156411WA0180801819001000120
B1635274238275N07156421WA0180701817001000122
B1635284238292N07156430WA0180601813001000125
B1635294238310N07156438WA0180301809001003128
B1635304238329N07156445WA0180001803001003133
B1635314238349N07156452WA0179501797001006138
B1635324238369N07156459WA0179001790001006144
B1635334238391N07156466WA0178501785001006149
B1635334238391N07156466WA0178001785001003149
F163534010306141719212430
B1635344238413N07156473WA0178001781001003153
B1635354238436N07156481WA0177401778001002158
B1635364238459N07156489WA0177001776001002161
B1635374238483N07156496WA0176801775001002162
B1635384238507N07156504WA0176501772001001163
B1635394238530N07156511WA0176301768001008164
B1635404238554N07156519WA0176001764001019167
B1635414238579N07156528WA0175601758001020169
B1635424238604N07156537WA0175201753001019173
B1635434238629N07156546WA0174501750001015175
B1635444238654N07156556WA0174301747001017176
B1635444238654N07156556WA0173901747001017176
B1635454238680N07156566WA0173901745001017177
B1635464238705N07156576WA0173701744001017178
B1635474238730N07156587WA0173501745001014177
B1635484238756N07156598WA0173501746001012176
B1635494238781N07156609WA0173401745001009175
B1635504238806N07156618WA0173401744001007174
B1635514238832N07156626WA0173301743001005174
B1635524238857N07156634WA0173201741001005174
B1635534238883N07156641WA0173101739001003174
B1635544238908N07156647WA0172901738001002175
B1635554238934N07156653WA0172801736001002175
B1635564238960N07156658WA0172601735001005174
B1635574238986N07156662WA0172501734001005174
B1635584239012N07156667WA0172301732001005174
B1635594239038N07156672WA0172201729001002175
B1636004239064N07156677WA0171901728001002176
B1636014239090N07156682WA0171801727001003175
B1636024239116N07156687WA0171701727001005175
B1636034239142N07156692WA0171701727001004174
B1636044239168N07156697WA0171701728001005172
B1636054239193N07156702WA0171701729001005171
B1636064239219N07156708WA0171801731001004170
B1636064239219N07156708WA0171901731001004170
B1636074239244N07156713WA0171901732001004169
B1636084239268N07156719WA0172001732001005168
B1636094239293N07156726WA0172001730001003169
B1636104239318N07156733WA0171901729001002170
B1636114239343N07156740WA0171801727001002170
B1636124239368N07156747WA0171601724001001170
B1636134239393N07156755WA0171401721001001171
B1636144239418N07156763WA0171201717001000172
B1636154239443N07156771WA0170901714001000173
B1636164239468N07156780WA0170701713001001173
B1636174239493N07156789WA0170501713001002172
B1636184239518N07156798WA0170301714001003171
B1636194239543N07156808WA0170301714001002170
B1636204239567N07156817WA0170301714001002169
B1636204239567N07156817WA0170301714001003169
B1636214239592N07156827WA0170301714001003168
B1636224239616N07156836WA0170301712001003168
B1636234239640N07156846WA0170201710001003168
B1636234239640N07156846WA0170001710001002168
B1636244239664N07156856WA0170001707001002168
B1636254239688N07156866WA0169801705001002168
B1636264239712N07156877WA0169401703001002169
B1636274239736N07156888WA0169201699001003170
B1636284239761N07156899WA0169001696001001172
B1636294239785N07156910WA0168701694001001172
B1636304239809N07156922WA0168501693001001171
B1636304239809N07156922WA0168401693001000171
B1636314239833N07156933WA0168401694001000170
B1636324239857N07156945WA0168301694001002168
B1636324239857N07156945WA0168301694001000168
B1636334239881N07156955WA0168301693001000168
B1636344239905N07156966WA0168101690001000169
F163635010306141719212430133
B1636354239929N07156977WA0168001687001001170
B1636364239953N07156989WA0167701685001002171
B1636374239977N07157001WA0167601684001002171
B1636384240001N07157012WA0167401682001002171
B1636394240026N07157024WA0167301681001003171
B1636404240050N07157036WA0167201682001003170
B1636414240073N07157047WA0167101682001002168
B1636424240097N07157059WA0167001681001002167
B1636434240120N07157071WA0167001680001001166
B1636444240144N07157083WA0166901678001001165
B1636454240167N07157095WA0166801677001002164
B1636454240167N07157095WA0166701677001001164
B1636464240190N07157107WA0166701677001001164
B1636474240213N07157119WA0166701676001001163
B1636484240236N07157130WA0166601676001000163
B1636494240259N07157140WA0166601676001002163
B1636504240282N07157151WA0166601677001003163
B1636514240305N07157162WA0166601679001002162
B1636524240328N07157173WA0166701682001000161
B1636534240350N07157184WA0167001686001001160
B1636534240350N07157184WA0167301686001001160
B1636544240373N07157195WA0167301692001001156
B1636554240394N07157204WA0167801700001002151
B1636564240416N07157213WA0168401708001002145
B1636574240436N07157221WA0169101717001002140
B1636584240455N07157229WA0169901725001000133
B1636584240455N07157229WA0170601725001001133
B1636594240474N07157237WA0170601732001001128
B1637004240492N07157245WA0171301736001000124
B1637014240510N07157253WA0171901736001000123
B1637024240527N07157261WA0172001732001000125
B1637024240527N07157261WA0171901732001000125
B1637034240545N07157270WA0171901726001000130
B1637044240564N07157279WA0171601720001000136
B1637054240583N07157289WA0171301715001000140
B1637054240583N07157289WA0170901715001000140
B1637064240603N07157300WA0170901712001000143
B1637074240623N07157312WA0170301709001000144
B1637084240643N07157324WA0170001704001000146
B1637094240663N07157336WA0169601700001000147
B1637104240683N07157348WA0169201695001000149
B1637104240683N07157348WA0169201695001000149
B1637114240704N07157359WA0168801691001000151
B1637124240725N07157370WA0168401688001000152
B1637134240747N07157382WA0168001685001000153
B1637144240768N07157393WA0167501681001000154
B1637154240790N07157404WA0167201677001000155
B1637164240812N07157416WA0166901673001000157
B1637174240834N07157427WA0166601670001000158
B1637184240856N07157439WA0166201666001000159
B1637194240879N07157450WA0165901662001000161
B1637204240901N07157462WA0165401660001000162
B1637204240901N07157462WA0165201660001000162
B1637214240924N07157473WA0165201658001000163
B1637224240947N07157486WA0165001655001000164
B1637224240947N07157486WA0164801655001000164
B1637234240970N07157499WA0164801654001000166
B1637244240992N07157512WA0164601655001000165
B1637254241015N07157525WA0164601655001001164
B1637264241038N07157537WA0164501655001003164
B1637274241061N07157549WA0164501656001002163
B1637284241084N07157561WA0164601656001002162
B1637294241106N07157573WA0164501657001001161
B1637304241129N07157585WA0164601657001002161
B1637314241151N07157598WA0164601656001001161
B1637324241173N07157612WA0164501653001002162
B1637324241173N07157612WA0164201653001002162
B1637334241195N07157626WA0164201648001002163
B1637344241217N07157641WA0164001645001003163
B1637354241238N07157656WA0163701643001002161
B1637364241260N07157670WA0163501639001002160
B1637364241260N07157670WA0163101639001003160
B1637374241281N07157685WA0163101635001003159
B1637384241303N07157699WA0162801632001001159
B1637394241324N07157713WA0162501629001001158
B1637394241324N07157713WA0162001629001001158
B1637404241345N07157727WA0162001625001001158
B1637414241366N07157742WA0161701621001001160
B1637424241388N07157756WA0161401617001002162
B1637434241410N07157771WA0161201616001002163
B1637434241410N07157771WA0160901616001001163
B1637444241432N07157786WA0160901615001001163
B1637454241454N07157800WA0160801613001004162
B1637464241476N07157814WA0160501613001004162
