ACAM3BR
HFDTE290622
HFFXA050
HFPLTPILOT:David Sherrill          
HFGTYGLIDERTYPE:ASW-28 (15m 
HFGIDGLIDERID:N128RF      
HFDTM100GPSDATUM:
HFRFWFIRMWAREVERSION:F2.6
HFRHWHARDWAREVERSION:300 Series Version 2
HFFTYFRTYPE:CAMBRIDGE AERO INSTRUMENTS, 302+
HFGPS:GARMIN,LVS-25,12,18000
HFPRSPRESSALTSENSOR:INTERSEMA, MS5534-AP, 20000
I033638FXA3941ENL4247REX
LCAMSBVER:5FWVER:F26300
C290622150957290622000104
C0000000N00000000WTAKEOFF     
C4233240N07145540WS-Fitchburg 
C4233240N07145540WS-Fitchburg 
C4133840N07211820WS-1         
C4158560N07058439WS-2         
C4231615N07146181WS-Fitchburg 
C4233240N07145540WS-Fitchburg 
C0000000N00000000WLANDING     
B1524434225406N07147429WA0005500139000000000000
B1524454225406N07147429WA0005600139000000000000
B1524474225406N07147429WA0005600139000000000000
B1524494225406N07147429WA0005600139000000000000
B1524514225406N07147429WA0005600139000000000000
B1524534225406N07147429WA0005500139000000000000
B1524554225406N07147429WA0005500139000000000000
B1524574225406N07147429WA0005500139000000000000
B1524594225406N07147429WA0005500139000000000000
B1525014225406N07147429WA0005600139000000000000
B1525034225406N07147429WA0005500139000000000000
B1525054225406N07147429WA0005600139000000000000
B1525074225406N07147429WA0005500139000000000000
B1525094225406N07147429WA0005600139000000000000
B1525114225407N07147430WA0005600139000000000000
B1525124225410N07147433WA0005600139000000000000
B1525144225418N07147443WA0005600139000000000000
B1525164225428N07147458WA0005700139000000000000
B1525184225442N07147475WA0005600140000000000000
B1525204225459N07147495WA0005600140000000000000
B1525224225480N07147520WA0005600141000000000000
B1525244225502N07147547WA0005700141000000000000
B1525264225527N07147576WA0005600142000000000000
B1525284225553N07147606WA0005900146000000000000
B1525304225580N07147637WA0006300153000000000000
B1525324225606N07147668WA0006900159000000000000
B1525344225635N07147698WA0007500166000000000000
B1525364225662N07147728WA0008200175000000000000
B1525384225689N07147759WA0009200184000000000000
B1525404225715N07147789WA0010100194000000000000
B1525424225743N07147820WA0010600203000000000000
B1525444225769N07147850WA0011800211000000000000
B1525464225796N07147880WA0012200222000000000000
B1525484225822N07147911WA0013200232000000000000
B1525504225847N07147944WA0014100242000000000000
B1525524225871N07147976WA0015000250000000000000
B1525544225899N07148008WA0015800256000000000000
B1525564225925N07148039WA0016300261000000000000
B1525584225952N07148071WA0016800266000000000000
B1526004225977N07148104WA0017300271000000000000
B1526024226003N07148138WA0018100277000000000000
B1526044226029N07148170WA0018900288000000000000
B1526064226051N07148204WA0019400298000000000000
B1526084226074N07148236WA0020800307000000000000
B1526104226099N07148269WA0021500314000000000000
B1526124226125N07148301WA0022200318000000000000
B1526144226151N07148333WA0022400325000000000000
B1526164226175N07148365WA0023400331000000000000
B1526184226201N07148398WA0024000337000000000000
B1526204226227N07148434WA0024200343000000000000
B1526224226252N07148472WA0024800354000000000000
B1526244226278N07148507WA0025900366000000000000
B1526264226303N07148542WA0027000377000000000000
B1526284226329N07148574WA0028800391000000000000
B1526304226354N07148606WA0029400403000000000000
B1526324226380N07148635WA0030500413000000000000
B1526344226406N07148667WA0031400420000000000000
B1526364226432N07148697WA0032100428000000000000
B1526384226458N07148728WA0033400437000000000000
B1526404226482N07148759WA0034000449000000000000
B1526424226507N07148790WA0035000455000000000000
B1526444226534N07148820WA0035600457000000000000
B1526464226562N07148850WA0035800460000000000000
B1526484226588N07148882WA0035900464000000000000
B1526504226614N07148915WA0036400473000000000000
B1526524226640N07148946WA0037300483000000000000
B1526544226666N07148977WA0038200492000000000000
B1526564226693N07149007WA0039100499000000000000
B1526584226720N07149037WA0040100505000000000000
B1527004226746N07149068WA0040400512000000000000
B1527024226772N07149101WA0041100519000000000000
B1527044226798N07149131WA0041900527000000000000
B1527064226825N07149159WA0042600537000000000000
B1527084226853N07149188WA0043500545000000000000
B1527104226880N07149214WA0044300555000000000000
B1527124226907N07149241WA0045300564000000000000
B1527144226936N07149267WA0046000569000000000000
B1527164226963N07149296WA0046700575000000000000
B1527184226993N07149324WA0047200580000000000000
B1527204227023N07149352WA0047700585000000000000
B1527224227056N07149376WA0048400591000000000000
B1527244227088N07149400WA0048800598000000000000
B1527264227122N07149418WA0049500608000000000000
B1527284227158N07149432WA0050400616000000000000
B1527304227197N07149441WA0051100623000000000000
B1527324227236N07149444WA0051800629000000000000
B1527344227277N07149438WA0052300635000000000000
B1527364227316N07149423WA0053100643000000000000
B1527384227355N07149405WA0053900653000000000000
B1527404227391N07149380WA0054800661000000000000
B1527424227427N07149350WA0055700668000000000000
B1527444227462N07149315WA0056300673000000000000
B1527464227494N07149274WA0056800680000000000000
B1527484227521N07149228WA0057600687000000000000
B1527504227542N07149176WA0058200694000000000000
B1527524227557N07149122WA0058900699000000000000
B1527544227569N07149064WA0059300703000000000000
B1527564227574N07149006WA0059700708000000000000
B1527584227576N07148947WA0060400713000000000000
B1528004227573N07148889WA0061000719000000000000
B1528024227570N07148829WA0061600725000000000000
B1528044227569N07148771WA0062300733000000000000
B1528064227569N07148711WA0062900739000000000000
B1528084227568N07148652WA0063200744000000000000
B1528104227566N07148590WA0063700751000000000000
B1528124227564N07148531WA0064400759000000000000
B1528144227561N07148472WA0065300767000000000000
B1528164227557N07148412WA0066000773000000000000
B1528184227552N07148352WA0066600778000000000000
B1528204227548N07148292WA0067200786000000000000
B1528224227544N07148232WA0068000796000000000000
B1528244227540N07148173WA0069000806000000000000
B1528264227537N07148114WA0069900814000000000000
B1528284227531N07148056WA0070700821000000000000
B1528304227526N07147996WA0071500828000000000000
B1528324227520N07147937WA0072200835000000000000
B1528344227514N07147878WA0072800842000000000000
B1528364227508N07147819WA0073700852000000000000
B1528384227501N07147762WA0074800865000000000000
B1528404227495N07147709WA0075600883000000000000
B1528424227488N07147655WA0077200896000000000000
B1528444227482N07147602WA0078600906000000000000
B1528464227477N07147549WA0079700917000000000000
B1528484227472N07147494WA0080800926000000000000
B1528504227460N07147447WA0081700934000000000000
B1528524227443N07147408WA0082500941000000000000
B1528544227421N07147377WA0083100945000000000000
B1528564227396N07147355WA0083700950000000000000
B1528584227370N07147347WA0084200952000000000000
B1529004227344N07147346WA0084500953000000000000
B1529024227321N07147354WA0084700954000000000000
B1529044227301N07147372WA0084700955000000000000
B1529064227287N07147395WA0084700955000000000000
B1529084227279N07147423WA0084700955000000000000
B1529104227278N07147451WA0084800955000000000000
B1529124227283N07147482WA0084800955000000000000
B1529144227292N07147512WA0084900957000000000000
B1529164227303N07147542WA0084900960000000000000
B1529184227314N07147571WA0085300964000000000000
B1529204227331N07147593WA0085700967000000000000
B1529224227353N07147606WA0086000971000000000000
B1529244227379N07147608WA0086400973000000000000
B1529264227405N07147601WA0086500973000000000000
B1529284227433N07147584WA0086500971000000000000
B1529304227457N07147554WA0086400970000000000000
B1529324227477N07147519WA0086300970000000000000
B1529344227490N07147478WA0086400973000000000000
B1529364227492N07147437WA0086700976000000000000
B1529384227486N07147397WA0087000976000000000000
B1529404227470N07147361WA0086900974000000000000
B1529424227448N07147333WA0086900976000000000000
B1529444227422N07147315WA0087000977000000000000
B1529464227395N07147300WA0087000978000000000000
B1529484227368N07147286WA0087200981000000000000
B1529504227340N07147278WA0087300986000000000000
B1529524227318N07147283WA0087700990000000000000
B1529544227301N07147302WA0088200989000000000000
B1529564227295N07147329WA0088100984000000000000
B1529584227296N07147361WA0087700978000000000000
B1530004227310N07147390WA0087400979000000000000
B1530024227331N07147415WA0087300984000000000000
B1530044227353N07147436WA0087600990000000000000
B1530064227375N07147456WA0088000994000000000000
B1530084227400N07147471WA0088500999000000000000
B1530104227426N07147472WA0089001003000000000000
B1530124227452N07147459WA0089401003000000000000
B1530144227473N07147433WA0089501000000000000000
B1530164227487N07147395WA0089200999000000000000
B1530184227491N07147352WA0089000997000000000000
B1530204227481N07147312WA0088900998000000000000
B1530224227461N07147281WA0089001000000000000000
B1530244227434N07147264WA0089001001000000000000
B1530264227405N07147264WA0089101001000000000000
B1530284227379N07147273WA0089201003000000000000
B1530304227356N07147291WA0089401006000000000000
B1530324227340N07147319WA0089601008000000000000
B1530344227330N07147350WA0089901011000000000000
B1530364227323N07147382WA0090101014000000000000
B1530384227327N07147415WA0090601019000000000000
B1530404227343N07147439WA0090901021000000000000
B1530424227366N07147452WA0091301021000000000000
B1530444227395N07147451WA0091401019000000000000
B1530464227423N07147433WA0091401018000000000000
B1530484227446N07147399WA0091201017000000000000
B1530504227457N07147356WA0091101019000000000000
B1530524227459N07147311WA0091401022000000000000
B1530544227453N07147265WA0091701025000000000000
B1530564227442N07147224WA0091901027000000000000
B1530584227418N07147191WA0092001028000000000000
B1531004227391N07147170WA0092201028000000000000
B1531024227360N07147165WA0092201028000000000000
B1531044227331N07147174WA0092201032000000000000
B1531064227308N07147195WA0092501036000000000000
B1531084227292N07147222WA0092901042000000000000
B1531104227284N07147254WA0093301044000000000000
B1531124227288N07147285WA0093501043000000000000
B1531144227304N07147309WA0093401040000000000000
B1531164227330N07147320WA0093201040000000000000
B1531184227358N07147315WA0093201042000000000000
B1531204227384N07147293WA0093301044000000000000
B1531224227403N07147257WA0093401044000000000000
B1531244227410N07147215WA0093501044000000000000
B1531264227409N07147169WA0093501046000000000000
B1531284227405N07147125WA0093801050000000000000
B1531304227399N07147082WA0094101055000000000000
B1531324227391N07147040WA0094601059000000000000
B1531344227381N07147001WA0095101062000000000000
B1531364227362N07146971WA0095201061000000000000
B1531384227338N07146957WA0095101057000000000000
B1531404227310N07146958WA0095001057000000000000
B1531424227290N07146977WA0094801057000000000000
B1531444227280N07147004WA0094601053000000000000
B1531464227283N07147036WA0094501048000000000000
B1531484227300N07147062WA0094101046000000000000
B1531504227326N07147079WA0093901050000000000000
B1531524227353N07147092WA0094001053000000000000
B1531544227381N07147108WA0094401058000000000000
B1531564227407N07147122WA0094901063000000000000
B1531584227434N07147135WA0095201064000000000000
B1532004227465N07147135WA0095401066000000000000
B1532024227494N07147117WA0095501065000000000000
B1532044227514N07147083WA0095701068000000000000
B1532064227522N07147040WA0095801069000000000000
B1532084227516N07146996WA0095801067000000000000
B1532104227495N07146961WA0095801066000000000000
B1532124227468N07146943WA0095801068000000000000
B1532144227439N07146942WA0096001071000000000000
B1532164227414N07146956WA0096301073000000000000
B1532184227399N07146982WA0096401071000000000000
B1532204227394N07147017WA0096301070000000000000
B1532224227401N07147053WA0096301075000000000000
B1532244227413N07147087WA0096601078000000000000
B1532264227433N07147113WA0097001082000000000000
B1532284227459N07147121WA0097501086000000000000
B1532304227486N07147105WA0097801083000000000000
B1532324227505N07147070WA0097701079000000000000
B1532344227508N07147023WA0097501079000000000000
B1532364227492N07146984WA0097301083000000000000
B1532384227468N07146961WA0097601087000000000000
B1532404227440N07146957WA0098001091000000000000
B1532424227414N07146964WA0098501095000000000000
B1532444227392N07146977WA0098901098000000000000
B1532464227375N07146999WA0099101099000000000000
B1532484227370N07147027WA0099001096000000000000
B1532504227382N07147056WA0098801092000000000000
B1532524227404N07147074WA0098601093000000000000
B1532544227431N07147082WA0098601095000000000000
B1532564227459N07147088WA0098601095000000000000
B1532584227486N07147092WA0098301090000000000000
B1533004227514N07147095WA0097601081000000000000
B1533024227548N07147098WA0096601071000000000000
B1533044227583N07147100WA0095901063000000000000
B1533064227620N07147105WA0095501059000000000000
B1533084227657N07147111WA0094901051000000000000
B1533104227696N07147117WA0094401048000000000000
B1533124227737N07147124WA0094101049000000000000
B1533144227774N07147130WA0094101050000000000000
B1533164227813N07147135WA0094301051000000000000
B1533184227851N07147140WA0094301051000000000000
B1533204227888N07147147WA0094301049000000000000
B1533224227925N07147152WA0094101047000000000000
B1533244227964N07147157WA0093801044000000000000
B1533264228002N07147163WA0093601043000000000000
B1533284228040N07147169WA0093501042000000000000
B1533304228077N07147176WA0093301039000000000000
B1533324228116N07147185WA0093001036000000000000
B1533344228155N07147192WA0092601032000000000000
B1533364228194N07147203WA0092401029000000000000
B1533384228235N07147215WA0092101026000000000000
B1533404228274N07147228WA0091901025000000000000
B1533424228313N07147241WA0091901026000000000000
B1533444228350N07147254WA0091901025000000000000
B1533464228389N07147267WA0091801023000000000000
B1533484228427N07147278WA0091501020000000000000
B1533504228466N07147289WA0091001016000000000000
B1533524228506N07147296WA0090801013000000000000
B1533544228545N07147304WA0090501011000000000000
B1533564228584N07147312WA0090301008000000000000
B1533584228625N07147320WA0089901003000000000000
B1534004228665N07147328WA0089500998000000000000
B1534024228705N07147335WA0089000992000000000000
B1534044228746N07147343WA0088400988000000000000
B1534064228787N07147351WA0088100986000000000000
B1534084228829N07147361WA0088000985000000000000
B1534104228869N07147371WA0087900983000000000000
B1534124228908N07147381WA0087700981000000000000
B1534144228948N07147391WA0087500978000000000000
B1534164228990N07147400WA0087100975000000000000
B1534184229032N07147408WA0086700971000000000000
B1534204229073N07147416WA0086400967000000000000
B1534224229116N07147424WA0086000961000000000000
B1534244229160N07147433WA0085500956000000000000
B1534264229204N07147442WA0085000952000000000000
B1534284229250N07147451WA0084600947000000000000
B1534304229295N07147459WA0084000941000000000000
B1534324229341N07147467WA0083600940000000000000
B1534344229385N07147476WA0083600940000000000000
B1534364229427N07147484WA0083800944000000000000
B1534384229467N07147491WA0084000946000000000000
B1534404229506N07147498WA0084200946000000000000
B1534424229544N07147504WA0084100944000000000000
B1534444229581N07147511WA0083900940000000000000
B1534464229619N07147517WA0083400934000000000000
B1534484229658N07147524WA0082800929000000000000
B1534504229697N07147530WA0082400923000000000000
B1534524229737N07147537WA0081900917000000000000
B1534544229779N07147543WA0081200913000000000000
B1534564229819N07147550WA0080700909000000000000
B1534584229861N07147556WA0080300905000000000000
B1535004229903N07147562WA0079900900000000000000
B1535024229945N07147567WA0079400896000000000000
B1535044229988N07147572WA0079300895000000000000
B1535064230030N07147576WA0079100893000000000000
B1535084230072N07147580WA0078800888000000000000
B1535104230113N07147585WA0078400884000000000000
B1535124230155N07147590WA0077900879000000000000
B1535144230195N07147594WA0077500876000000000000
B1535164230237N07147599WA0077100873000000000000
B1535184230277N07147603WA0077000871000000000000
B1535204230317N07147608WA0076700867000000000000
B1535224230358N07147614WA0076400862000000000000
B1535244230399N07147618WA0075700851000000000000
B1535264230442N07147620WA0074600841000000000000
B1535284230488N07147625WA0073800835000000000000
B1535304230533N07147631WA0073100829000000000000
B1535324230579N07147636WA0072400820000000000000
B1535344230625N07147641WA0071500806000000000000
B1535364230675N07147647WA0070200791000000000000
B1535384230727N07147654WA0069100785000000000000
B1535404230776N07147663WA0068900790000000000000
B1535424230823N07147675WA0069300795000000000000
B1535444230867N07147684WA0069600796000000000000
B1535464230911N07147693WA0069800798000000000000
B1535484230953N07147702WA0070100805000000000000
B1535504230992N07147711WA0070900816000000000000
B1535524231028N07147719WA0071700822000000000000
B1535544231063N07147725WA0072300828000000000000
B1535564231099N07147732WA0072600829000000000000
B1535584231135N07147735WA0072900831000000000000
B1536004231170N07147722WA0073200835000000000000
B1536024231199N07147696WA0073400837000000000000
B1536044231218N07147655WA0073600835000000000000
B1536064231225N07147610WA0073500830000000000000
B1536084231217N07147567WA0073000823000000000000
B1536104231197N07147537WA0072400815000000000000
B1536124231171N07147525WA0071700811000000000000
B1536144231147N07147533WA0071300812000000000000
B1536164231128N07147550WA0071300816000000000000
B1536184231112N07147569WA0071300814000000000000
B1536204231096N07147593WA0071300812000000000000
B1536224231083N07147619WA0071200812000000000000
B1536244231074N07147650WA0071300815000000000000
B1536264231074N07147683WA0071700820000000000000
B1536284231082N07147715WA0072000822000000000000
B1536304231097N07147746WA0072200822000000000000
B1536324231118N07147774WA0072100820000000000000
B1536344231148N07147793WA0072100819000000000000
B1536364231182N07147805WA0071800813000000000000
B1536384231217N07147811WA0071300809000000000000
B1536404231255N07147815WA0070800804000000000000
B1536424231294N07147818WA0070500800000000000000
B1536444231334N07147819WA0070200799000000000000
B1536464231373N07147819WA0070200802000000000000
B1536484231412N07147819WA0070500808000000000000
B1536504231451N07147819WA0071100815000000000000
B1536524231489N07147818WA0071700818000000000000
B1536544231524N07147798WA0072100821000000000000
B1536564231547N07147759WA0072200825000000000000
B1536584231554N07147712WA0072400825000000000000
B1537004231541N07147672WA0072200821000000000000
B1537024231516N07147653WA0071900819000000000000
B1537044231491N07147663WA0071700815000000000000
B1537064231482N07147694WA0071500818000000000000
B1537084231490N07147729WA0071600824000000000000
B1537104231509N07147759WA0072000828000000000000
B1537124231533N07147785WA0072200830000000000000
B1537144231560N07147805WA0072500831000000000000
B1537164231594N07147803WA0072800836000000000000
B1537184231622N07147780WA0073200836000000000000
B1537204231642N07147741WA0073100830000000000000
B1537224231646N07147696WA0072500822000000000000
B1537244231633N07147655WA0071900819000000000000
B1537264231611N07147632WA0071700820000000000000
B1537284231587N07147625WA0071700819000000000000
B1537304231567N07147637WA0071600819000000000000
B1537324231554N07147662WA0071600818000000000000
B1537344231544N07147692WA0071600820000000000000
B1537364231538N07147723WA0071600823000000000000
B1537384231533N07147755WA0071800823000000000000
B1537404231537N07147789WA0072000829000000000000
B1537424231550N07147822WA0072600838000000000000
B1537444231573N07147841WA0073500842000000000000
B1537464231604N07147848WA0073900834000000000000
B1537484231638N07147831WA0073300826000000000000
B1537504231661N07147790WA0072600822000000000000
B1537524231665N07147742WA0072200823000000000000
B1537544231654N07147702WA0072100824000000000000
B1537564231632N07147681WA0072100821000000000000
B1537584231608N07147683WA0071900818000000000000
B1538004231591N07147701WA0071600816000000000000
B1538024231585N07147729WA0071400817000000000000
B1538044231581N07147761WA0071600824000000000000
B1538064231578N07147792WA0071900827000000000000
B1538084231583N07147823WA0072200827000000000000
B1538104231600N07147850WA0072200825000000000000
B1538124231628N07147870WA0071900822000000000000
B1538144231660N07147880WA0071700820000000000000
B1538164231695N07147881WA0071500820000000000000
B1538184231730N07147880WA0071600824000000000000
B1538204231765N07147879WA0071800830000000000000
B1538224231798N07147883WA0072400835000000000000
B1538244231830N07147889WA0072900836000000000000
B1538264231856N07147909WA0073200839000000000000
B1538284231871N07147940WA0073400840000000000000
B1538304231867N07147974WA0073400838000000000000
B1538324231847N07147996WA0073400837000000000000
B1538344231820N07147997WA0073300840000000000000
B1538364231794N07147972WA0073600848000000000000
B1538384231780N07147932WA0074200853000000000000
B1538404231782N07147884WA0074700854000000000000
B1538424231802N07147842WA0075000854000000000000
B1538444231833N07147820WA0075000855000000000000
B1538464231867N07147815WA0075100860000000000000
B1538484231895N07147827WA0075500864000000000000
B1538504231914N07147853WA0075800864000000000000
B1538524231918N07147887WA0075800861000000000000
B1538544231905N07147915WA0075600857000000000000
B1538564231879N07147926WA0075300858000000000000
B1538584231851N07147907WA0075500863000000000000
B1539004231833N07147870WA0076000869000000000000
B1539024231828N07147823WA0076600875000000000000
B1539044231837N07147777WA0077000876000000000000
B1539064231859N07147741WA0077300878000000000000
B1539084231890N07147727WA0077500880000000000000
B1539104231920N07147732WA0077800883000000000000
B1539124231944N07147753WA0077900885000000000000
B1539144231953N07147783WA0078000885000000000000
B1539164231947N07147813WA0078000883000000000000
B1539184231928N07147831WA0077900881000000000000
B1539204231902N07147828WA0077900882000000000000
B1539224231877N07147806WA0077800884000000000000
B1539244231860N07147767WA0077900888000000000000
B1539264231855N07147719WA0078200893000000000000
B1539284231860N07147672WA0078700896000000000000
B1539304231876N07147631WA0079000898000000000000
B1539324231903N07147601WA0079300900000000000000
B1539344231936N07147588WA0079500902000000000000
B1539364231970N07147576WA0079700904000000000000
B1539384232002N07147573WA0080000907000000000000
B1539404232028N07147588WA0080200908000000000000
B1539424232044N07147618WA0080300905000000000000
B1539444232041N07147651WA0080000903000000000000
B1539464232023N07147675WA0079800904000000000000
B1539484231997N07147685WA0079800904000000000000
B1539504231970N07147684WA0079900906000000000000
B1539524231945N07147660WA0080000907000000000000
B1539544231928N07147621WA0080000905000000000000
B1539564231924N07147571WA0079800902000000000000
B1539584231936N07147520WA0079800907000000000000
B1540004231960N07147481WA0080400916000000000000
B1540024231990N07147458WA0080700919000000000000
B1540044232024N07147454WA0081100920000000000000
B1540064232054N07147468WA0081100920000000000000
B1540084232075N07147497WA0081100922000000000000
B1540104232084N07147532WA0081500925000000000000
B1540124232080N07147564WA0081800927000000000000
B1540144232064N07147589WA0082100928000000000000
B1540164232040N07147598WA0082200927000000000000
B1540184232012N07147586WA0082100927000000000000
B1540204231990N07147556WA0082100928000000000000
B1540224231979N07147514WA0082300932000000000000
B1540244231980N07147467WA0082500934000000000000
B1540264231993N07147421WA0082600935000000000000
B1540284232015N07147385WA0082800937000000000000
B1540304232045N07147360WA0083200942000000000000
B1540324232076N07147347WA0083700945000000000000
B1540344232107N07147341WA0084000948000000000000
B1540364232136N07147351WA0084200949000000000000
B1540384232157N07147376WA0084300948000000000000
B1540404232163N07147408WA0084200944000000000000
B1540424232157N07147439WA0083900943000000000000
B1540444232140N07147462WA0083700945000000000000
B1540464232114N07147463WA0083900945000000000000
B1540484232088N07147445WA0084000945000000000000
B1540504232070N07147410WA0083800945000000000000
B1540524232063N07147364WA0083900948000000000000
B1540544232072N07147319WA0084200952000000000000
B1540564232093N07147282WA0084400955000000000000
B1540584232122N07147260WA0084700957000000000000
B1541004232154N07147257WA0085100960000000000000
B1541024232181N07147270WA0085300963000000000000
B1541044232201N07147293WA0085600963000000000000
B1541064232207N07147324WA0085400956000000000000
B1541084232201N07147355WA0084900953000000000000
B1541104232180N07147376WA0084700954000000000000
B1541124232154N07147376WA0084900956000000000000
B1541144232129N07147355WA0084900957000000000000
B1541164232114N07147317WA0085100957000000000000
B1541184232111N07147272WA0085100959000000000000
B1541204232120N07147226WA0085200965000000000000
B1541224232137N07147187WA0085700971000000000000
B1541244232161N07147155WA0086200976000000000000
B1541264232187N07147131WA0086700978000000000000
B1541284232218N07147129WA0086900975000000000000
B1541304232244N07147147WA0086800973000000000000
B1541324232253N07147178WA0086600970000000000000
B1541344232244N07147209WA0086200968000000000000
B1541364232222N07147226WA0086000967000000000000
B1541384232194N07147221WA0086000967000000000000
B1541404232171N07147195WA0086000967000000000000
B1541424232157N07147153WA0086000970000000000000
B1541444232155N07147107WA0086100974000000000000
B1541464232159N07147060WA0086400976000000000000
B1541484232167N07147012WA0086600976000000000000
B1541504232179N07146965WA0086800977000000000000
B1541524232201N07146929WA0087000980000000000000
B1541544232232N07146912WA0087300980000000000000
B1541564232263N07146919WA0087300979000000000000
B1541584232285N07146942WA0087200979000000000000
B1542004232291N07146974WA0087000975000000000000
B1542024232279N07147003WA0086800967000000000000
B1542044232254N07147014WA0086000967000000000000
B1542064232227N07147003WA0086000973000000000000
B1542084232209N07146969WA0086400981000000000000
B1542104232201N07146927WA0087100987000000000000
B1542124232204N07146884WA0087700988000000000000
B1542144232220N07146843WA0088000987000000000000
B1542164232248N07146813WA0087900985000000000000
B1542184232282N07146804WA0087800987000000000000
B1542204232310N07146817WA0087900989000000000000
B1542224232326N07146844WA0088000988000000000000
B1542244232323N07146874WA0087900983000000000000
B1542264232305N07146895WA0087600979000000000000
B1542284232279N07146897WA0087300983000000000000
B1542304232256N07146878WA0087500990000000000000
B1542324232237N07146845WA0088200994000000000000
B1542344232227N07146806WA0088500995000000000000
B1542364232223N07146763WA0088700996000000000000
B1542384232233N07146719WA0088900999000000000000
B1542404232256N07146683WA0089000998000000000000
B1542424232287N07146663WA0089000997000000000000
B1542444232319N07146667WA0089000999000000000000
B1542464232343N07146688WA0089201000000000000000
B1542484232350N07146718WA0089100999000000000000
B1542504232343N07146745WA0089000995000000000000
B1542524232321N07146758WA0088500988000000000000
B1542544232293N07146748WA0088000987000000000000
B1542564232272N07146717WA0088000995000000000000
B1542584232266N07146674WA0088601006000000000000
B1543004232271N07146631WA0089501009000000000000
B1543024232289N07146591WA0090001006000000000000
B1543044232317N07146562WA0089701002000000000000
B1543064232352N07146553WA0089401002000000000000
B1543084232383N07146562WA0089401003000000000000
B1543104232402N07146587WA0089401004000000000000
B1543124232405N07146617WA0089401003000000000000
B1543144232393N07146640WA0089401001000000000000
B1543164232371N07146646WA0089100998000000000000
B1543184232348N07146628WA0088900998000000000000
B1543204232334N07146591WA0088901002000000000000
B1543224232323N07146549WA0089001001000000000000
B1543244232318N07146503WA0089000999000000000000
B1543264232318N07146455WA0089001002000000000000
B1543284232324N07146405WA0089201005000000000000
B1543304232336N07146355WA0089801011000000000000
B1543324232352N07146307WA0090401016000000000000
B1543344232375N07146267WA0091101026000000000000
B1543364232408N07146247WA0092101034000000000000
B1543384232440N07146251WA0092901038000000000000
B1543404232464N07146275WA0093001037000000000000
B1543424232469N07146306WA0093001035000000000000
B1543444232456N07146329WA0092801034000000000000
B1543464232432N07146329WA0092701033000000000000
B1543484232409N07146305WA0092501032000000000000
B1543504232396N07146263WA0092401032000000000000
B1543524232396N07146214WA0092701040000000000000
B1543544232408N07146168WA0093601052000000000000
B1543564232423N07146128WA0094501060000000000000
B1543584232444N07146091WA0095001064000000000000
B1544004232474N07146069WA0095501065000000000000
B1544024232506N07146071WA0095601065000000000000
B1544044232531N07146093WA0095701071000000000000
B1544064232540N07146123WA0096101074000000000000
B1544084232530N07146147WA0096401075000000000000
B1544104232509N07146155WA0096601078000000000000
B1544124232488N07146138WA0096801080000000000000
B1544144232473N07146104WA0097001084000000000000
B1544164232470N07146060WA0097401090000000000000
B1544184232482N07146017WA0097801093000000000000
B1544204232505N07145981WA0098301096000000000000
B1544224232536N07145961WA0098501099000000000000
B1544244232569N07145963WA0098801102000000000000
B1544264232594N07145982WA0099201104000000000000
B1544284232608N07146009WA0099501108000000000000
B1544304232607N07146038WA0099701110000000000000
B1544324232592N07146055WA0099901112000000000000
B1544344232570N07146054WA0100101111000000000000
B1544364232549N07146032WA0100101111000000000000
B1544384232538N07145991WA0100101111000000000000
B1544404232542N07145944WA0100101116000000000000
B1544424232558N07145902WA0100701125000000000000
B1544444232582N07145865WA0101301130000000000000
B1544464232612N07145843WA0101801131000000000000
B1544484232644N07145843WA0101801128000000000000
B1544504232668N07145866WA0101701129000000000000
B1544524232672N07145898WA0101801133000000000000
B1544544232661N07145921WA0102301136000000000000
B1544564232640N07145926WA0102601137000000000000
B1544584232617N07145909WA0102501135000000000000
B1545004232600N07145872WA0102301132000000000000
B1545024232595N07145822WA0102201137000000000000
B1545044232597N07145772WA0102501144000000000000
B1545064232608N07145723WA0103001147000000000000
B1545084232629N07145684WA0103301151000000000000
B1545104232660N07145666WA0103701151000000000000
B1545124232691N07145675WA0103801149000000000000
B1545144232711N07145705WA0103701150000000000000
B1545164232712N07145738WA0103801154000000000000
B1545184232695N07145759WA0104201157000000000000
B1545204232672N07145755WA0104501162000000000000
B1545224232652N07145726WA0104901167000000000000
B1545244232648N07145684WA0105301170000000000000
B1545264232659N07145642WA0105501170000000000000
B1545284232682N07145609WA0105601166000000000000
B1545304232716N07145596WA0105301161000000000000
B1545324232747N07145606WA0105001165000000000000
B1545344232766N07145632WA0105101168000000000000
B1545364232768N07145664WA0105401171000000000000
B1545384232753N07145684WA0105801175000000000000
B1545404232730N07145683WA0106301177000000000000
B1545424232708N07145660WA0106501179000000000000
B1545444232692N07145623WA0106501179000000000000
B1545464232685N07145580WA0106601179000000000000
B1545484232694N07145536WA0106601178000000000000
B1545504232718N07145501WA0106401175000000000000
B1545524232751N07145487WA0106301179000000000000
B1545544232781N07145492WA0106601182000000000000
B1545564232804N07145509WA0106701178000000000000
B1545584232826N07145532WA0106601174000000000000
B1546004232850N07145554WA0106201172000000000000
B1546024232878N07145570WA0106201175000000000000
B1546044232909N07145580WA0106601177000000000000
B1546064232941N07145590WA0106901179000000000000
B1546084232972N07145597WA0107001181000000000000
B1546104233004N07145605WA0107101182000000000000
B1546124233036N07145613WA0107201185000000000000
B1546144233067N07145619WA0107301187000000000000
B1546164233097N07145627WA0107601189000000000000
B1546184233125N07145634WA0107901190000000000000
B1546204233155N07145642WA0107901188000000000000
B1546224233185N07145652WA0107901188000000000000
B1546244233216N07145662WA0107901190000000000000
B1546264233246N07145673WA0107901191000000000000
B1546284233277N07145683WA0108101192000000000000
B1546304233306N07145696WA0108201193000000000000
B1546324233335N07145710WA0108401193000000000000
B1546344233364N07145723WA0108501196000000000000
B1546364233394N07145736WA0108801201000000000000
B1546384233424N07145749WA0109201205000000000000
B1546404233453N07145764WA0109801208000000000000
B1546424233484N07145775WA0110201214000000000000
B1546444233515N07145773WA0110501219000000000000
B1546464233545N07145755WA0110901223000000000000
B1546484233570N07145722WA0111201228000000000000
B1546504233588N07145682WA0111701234000000000000
B1546524233591N07145639WA0112401240000000000000
B1546544233582N07145600WA0113101245000000000000
B1546564233561N07145574WA0113601250000000000000
B1546584233537N07145565WA0114101256000000000000
B1547004233515N07145573WA0114601263000000000000
B1547024233501N07145595WA0115101266000000000000
B1547044233500N07145627WA0115501270000000000000
B1547064233511N07145658WA0115801276000000000000
B1547084233535N07145682WA0116401280000000000000
B1547104233567N07145691WA0116901284000000000000
B1547124233601N07145683WA0117301288000000000000
B1547144233631N07145656WA0117901298000000000000
B1547164233650N07145618WA0118701309000000000000
B1547184233660N07145577WA0119801316000000000000
B1547204233657N07145536WA0120401319000000000000
B1547224233644N07145502WA0120701323000000000000
B1547244233622N07145483WA0121001327000000000000
B1547264233597N07145483WA0121401333000000000000
B1547284233579N07145500WA0122001340000000000000
B1547304233570N07145526WA0122601346000000000000
B1547324233572N07145557WA0123301351000000000000
B1547344233589N07145584WA0123801354000000000000
B1547364233618N07145600WA0124001356000000000000
B1547384233652N07145600WA0124301363000000000000
B1547404233684N07145580WA0125001371000000000000
B1547424233708N07145547WA0125801379000000000000
B1547444233718N07145506WA0126701386000000000000
B1547464233714N07145466WA0127401391000000000000
B1547484233700N07145434WA0127901396000000000000
B1547504233678N07145415WA0128301399000000000000
B1547524233653N07145413WA0128601403000000000000
B1547544233632N07145428WA0129101410000000000000
B1547564233621N07145454WA0129901419000000000000
B1547584233622N07145484WA0130601427000000000000
B1548004233636N07145513WA0130901430000000000000
B1548024233662N07145531WA0131301430000000000000
B1548044233696N07145532WA0131501433000000000000
B1548064233728N07145514WA0131701441000000000000
B1548084233753N07145482WA0132501450000000000000
B1548104233766N07145441WA0133301457000000000000
B1548124233766N07145400WA0134101464000000000000
B1548144233753N07145365WA0134801471000000000000
B1548164233734N07145341WA0135401476000000000000
B1548184233710N07145335WA0135801478000000000000
B1548204233688N07145346WA0136101479000000000000
B1548224233675N07145372WA0136301486000000000000
B1548244233675N07145406WA0136901494000000000000
B1548264233689N07145436WA0137701501000000000000
B1548284233714N07145456WA0138301505000000000000
B1548304233747N07145460WA0138901509000000000000
B1548324233778N07145447WA0139401514000000000000
B1548344233804N07145417WA0140001520000000000000
B1548364233817N07145376WA0140501526000000000000
B1548384233814N07145335WA0140801532000000000000
B1548404233800N07145301WA0141401540000000000000
B1548424233779N07145283WA0142001549000000000000
B1548444233756N07145281WA0142901554000000000000
B1548464233738N07145298WA0143401557000000000000
B1548484233726N07145326WA0143701561000000000000
B1548504233725N07145359WA0144201570000000000000
B1548524233735N07145389WA0145201580000000000000
B1548544233758N07145409WA0146001584000000000000
B1548564233788N07145418WA0146401586000000000000
B1548584233821N07145409WA0146701589000000000000
B1549004233848N07145382WA0147201596000000000000
B1549024233862N07145344WA0147901602000000000000
B1549044233864N07145302WA0148301605000000000000
B1549064233851N07145266WA0148701610000000000000
B1549084233830N07145244WA0149201617000000000000
B1549104233805N07145236WA0149801624000000000000
B1549124233780N07145241WA0150401629000000000000
B1549144233758N07145253WA0151001633000000000000
B1549164233738N07145266WA0151501638000000000000
B1549184233715N07145281WA0152001643000000000000
B1549204233696N07145300WA0152301648000000000000
B1549224233678N07145320WA0152701652000000000000
B1549244233658N07145343WA0153101657000000000000
B1549264233640N07145365WA0153601662000000000000
B1549284233622N07145385WA0154001665000000000000
B1549304233604N07145409WA0154301667000000000000
B1549324233585N07145432WA0154301667000000000000
B1549344233567N07145457WA0154301663000000000000
B1549364233548N07145483WA0154001655000000000000
B1549384233524N07145512WA0153201647000000000000
B1549404233501N07145541WA0152601643000000000000
B1549424233478N07145574WA0152101641000000000000
B1549444233454N07145605WA0152001641000000000000
B1549464233431N07145638WA0152001642000000000000
B1549484233410N07145670WA0152001641000000000000
B1549504233389N07145705WA0151801638000000000000
B1549524233367N07145739WA0151501635000000000000
B1549544233341N07145766WA0151301633000000000000
B1549564233310N07145787WA0151301634000000000000
B1549584233279N07145803WA0151501637000000000000
B1550004233247N07145818WA0151601640000000000000
B1550024233218N07145837WA0151901643000000000000
B1550044233190N07145856WA0152101645000000000000
B1550064233163N07145876WA0152401647000000000000
B1550084233136N07145895WA0152501648000000000000
B1550104233111N07145915WA0152501646000000000000
B1550124233084N07145934WA0152401642000000000000
B1550144233056N07145955WA0151801634000000000000
B1550164233026N07145978WA0151201628000000000000
B1550184232997N07146003WA0150601625000000000000
B1550204232967N07146026WA0150401623000000000000
B1550224232937N07146048WA0150001620000000000000
B1550244232906N07146069WA0149801620000000000000
B1550264232876N07146091WA0149701619000000000000
B1550284232846N07146113WA0149601615000000000000
B1550304232816N07146137WA0149301611000000000000
B1550324232785N07146159WA0149001610000000000000
B1550344232756N07146182WA0148801607000000000000
B1550364232726N07146207WA0148701606000000000000
B1550384232695N07146230WA0148701608000000000000
B1550404232666N07146253WA0148901612000000000000
B1550424232639N07146277WA0149201614000000000000
B1550444232612N07146305WA0149401615000000000000
B1550464232586N07146332WA0149601617000000000000
B1550484232558N07146359WA0149601620000000000000
B1550504232532N07146388WA0149701620000000000000
B1550524232506N07146416WA0149701619000000000000
B1550544232480N07146445WA0149601615000000000000
B1550564232454N07146475WA0149301610000000000000
B1550584232428N07146506WA0148701603000000000000
B1551004232404N07146540WA0148101597000000000000
B1551024232378N07146575WA0147401591000000000000
B1551044232352N07146613WA0146801582000000000000
B1551064232326N07146652WA0145801569000000000000
B1551084232298N07146693WA0144901563000000000000
B1551104232271N07146735WA0144601562000000000000
B1551124232243N07146778WA0144401565000000000000
B1551144232215N07146819WA0144801572000000000000
B1551164232189N07146858WA0145501582000000000000
B1551184232166N07146896WA0146501596000000000000
B1551204232145N07146927WA0147701609000000000000
B1551224232124N07146956WA0148701608000000000000
B1551244232102N07146986WA0148801597000000000000
B1551264232080N07147017WA0147601589000000000000
B1551284232055N07147049WA0147201583000000000000
B1551304232032N07147085WA0146701582000000000000
B1551324232009N07147120WA0146601581000000000000
B1551344231984N07147155WA0146601582000000000000
B1551364231959N07147189WA0146701586000000000000
B1551384231937N07147222WA0146901591000000000000
B1551404231916N07147259WA0147301592000000000000
B1551424231897N07147296WA0147401592000000000000
B1551444231877N07147335WA0147401592000000000000
B1551464231859N07147376WA0147301590000000000000
B1551484231841N07147419WA0147101588000000000000
B1551504231821N07147460WA0146801589000000000000
B1551524231802N07147502WA0147301595000000000000
B1551544231784N07147542WA0147901600000000000000
B1551564231767N07147584WA0148101604000000000000
B1551584231751N07147625WA0148501609000000000000
B1552004231736N07147667WA0149101617000000000000
B1552024231723N07147709WA0149701625000000000000
B1552044231708N07147750WA0150501632000000000000
B1552064231695N07147792WA0151101636000000000000
B1552084231682N07147832WA0151601639000000000000
B1552104231668N07147874WA0151801639000000000000
B1552124231655N07147918WA0151801636000000000000
B1552144231642N07147963WA0151801640000000000000
B1552164231629N07148009WA0152101646000000000000
B1552184231615N07148053WA0152601650000000000000
B1552204231599N07148096WA0153001654000000000000
B1552224231583N07148141WA0153301655000000000000
B1552244231568N07148187WA0153601658000000000000
B1552264231551N07148232WA0153901662000000000000
B1552284231533N07148277WA0154401670000000000000
B1552304231517N07148321WA0154701671000000000000
B1552324231500N07148365WA0154801671000000000000
B1552344231486N07148412WA0154901670000000000000
B1552364231470N07148461WA0154901670000000000000
B1552384231453N07148509WA0154801672000000000000
B1552404231437N07148557WA0155101676000000000000
B1552424231420N07148603WA0155401680000000000000
B1552444231404N07148648WA0155701679000000000000
B1552464231390N07148694WA0155701676000000000000
B1552484231375N07148741WA0155201671000000000000
B1552504231361N07148790WA0154901669000000000000
B1552524231348N07148837WA0154701669000000000000
B1552544231334N07148884WA0154701672000000000000
B1552564231321N07148928WA0154901674000000000000
B1552584231308N07148971WA0155001674000000000000
B1553004231294N07149015WA0155101673000000000000
B1553024231281N07149059WA0154901670000000000000
B1553044231268N07149103WA0154701664000000000000
B1553064231255N07149149WA0154301661000000000000
B1553084231243N07149196WA0153901658000000000000
B1553104231230N07149243WA0153701657000000000000
B1553124231219N07149289WA0153501655000000000000
B1553144231208N07149336WA0153301653000000000000
B1553164231196N07149380WA0153101650000000000000
B1553184231183N07149426WA0152701644000000000000
B1553204231171N07149473WA0152101638000000000000
B1553224231160N07149519WA0151501632000000000000
B1553244231147N07149568WA0150901626000000000000
B1553264231134N07149616WA0150301618000000000000
B1553284231118N07149664WA0149701614000000000000
B1553304231105N07149713WA0149501612000000000000
B1553324231092N07149764WA0149301611000000000000
B1553344231080N07149813WA0149101611000000000000
B1553364231067N07149860WA0149201614000000000000
B1553384231054N07149904WA0149401616000000000000
B1553404231040N07149946WA0149501617000000000000
B1553424231027N07149987WA0149501615000000000000
B1553444231013N07150029WA0149401613000000000000
B1553464230998N07150069WA0149101609000000000000
B1553484230983N07150111WA0148601602000000000000
B1553504230969N07150153WA0148101598000000000000
B1553524230953N07150195WA0147801595000000000000
B1553544230937N07150237WA0147601594000000000000
B1553564230920N07150279WA0147501594000000000000
B1553584230904N07150320WA0147401593000000000000
B1554004230887N07150362WA0147201591000000000000
B1554024230870N07150405WA0147001592000000000000
B1554044230853N07150446WA0147101592000000000000
B1554064230837N07150489WA0147101592000000000000
B1554084230820N07150531WA0147101591000000000000
B1554104230802N07150574WA0147001593000000000000
B1554124230784N07150618WA0147301596000000000000
B1554144230766N07150662WA0147601601000000000000
B1554164230749N07150706WA0148001605000000000000
B1554184230731N07150751WA0148401607000000000000
B1554204230714N07150796WA0148601608000000000000
B1554224230696N07150840WA0148701610000000000000
B1554244230679N07150886WA0149001615000000000000
B1554264230662N07150930WA0149301617000000000000
B1554284230645N07150974WA0149501616000000000000
B1554304230628N07151018WA0149201611000000000000
B1554324230611N07151063WA0148801608000000000000
B1554344230595N07151109WA0148601607000000000000
B1554364230579N07151156WA0148601606000000000000
B1554384230562N07151202WA0148601606000000000000
B1554404230546N07151247WA0148601610000000000000
B1554424230530N07151290WA0148901614000000000000
B1554444230516N07151333WA0149201615000000000000
B1554464230502N07151375WA0149201614000000000000
B1554484230488N07151417WA0149201614000000000000
B1554504230472N07151460WA0149201616000000000000
B1554524230458N07151502WA0149401618000000000000
B1554544230443N07151544WA0149601620000000000000
B1554564230429N07151584WA0149601623000000000000
B1554584230415N07151623WA0149901625000000000000
B1555004230399N07151661WA0150101626000000000000
B1555024230385N07151700WA0150401630000000000000
B1555044230369N07151740WA0150601630000000000000
B1555064230354N07151780WA0150501626000000000000
B1555084230337N07151823WA0150101622000000000000
B1555104230322N07151867WA0149901621000000000000
B1555124230307N07151911WA0149801620000000000000
B1555144230291N07151954WA0149701618000000000000
B1555164230274N07151997WA0149501616000000000000
B1555184230256N07152040WA0149401617000000000000
B1555204230238N07152084WA0149501619000000000000
B1555224230220N07152129WA0149701621000000000000
B1555244230203N07152171WA0149901625000000000000
B1555264230186N07152214WA0150401633000000000000
B1555284230169N07152255WA0151001638000000000000
B1555304230152N07152295WA0151601642000000000000
B1555324230137N07152334WA0151901644000000000000
B1555344230121N07152373WA0152101643000000000000
B1555364230104N07152413WA0152101642000000000000
B1555384230088N07152454WA0151901641000000000000
B1555404230074N07152495WA0151601638000000000000
B1555424230057N07152537WA0151301632000000000000
B1555444230040N07152581WA0150801629000000000000
B1555464230023N07152626WA0150801635000000000000
B1555484230008N07152672WA0151401643000000000000
B1555504229992N07152715WA0152301651000000000000
B1555524229977N07152758WA0152801653000000000000
B1555544229961N07152801WA0153001654000000000000
B1555564229947N07152844WA0153201657000000000000
B1555584229932N07152886WA0153501661000000000000
B1556004229918N07152928WA0154001665000000000000
B1556024229904N07152970WA0154401670000000000000
B1556044229891N07153011WA0154801675000000000000
B1556064229877N07153052WA0155301680000000000000
B1556084229864N07153091WA0155801686000000000000
B1556104229849N07153130WA0156501691000000000000
B1556124229836N07153169WA0156801693000000000000
B1556144229823N07153208WA0157001693000000000000
B1556164229813N07153248WA0156901689000000000000
B1556184229802N07153289WA0156401681000000000000
B1556204229795N07153334WA0155601676000000000000
B1556224229788N07153379WA0155101673000000000000
B1556244229786N07153426WA0154801667000000000000
B1556264229784N07153475WA0154401657000000000000
B1556284229782N07153527WA0153501650000000000000
B1556304229780N07153581WA0152801644000000000000
B1556324229778N07153635WA0152201641000000000000
B1556344229773N07153687WA0151901641000000000000
B1556364229766N07153739WA0152101645000000000000
B1556384229760N07153787WA0152401648000000000000
B1556404229753N07153834WA0152501647000000000000
B1556424229743N07153881WA0152401644000000000000
B1556444229732N07153928WA0152301643000000000000
B1556464229721N07153975WA0152201645000000000000
B1556484229708N07154020WA0152401648000000000000
B1556504229696N07154066WA0152701651000000000000
B1556524229684N07154108WA0152801653000000000000
B1556544229670N07154151WA0153001653000000000000
B1556564229654N07154192WA0153101654000000000000
B1556584229637N07154231WA0153201653000000000000
B1557004229622N07154271WA0153101651000000000000
B1557024229605N07154311WA0153001649000000000000
B1557044229587N07154352WA0152801647000000000000
B1557064229568N07154393WA0152601645000000000000
B1557084229550N07154432WA0152301644000000000000
B1557104229533N07154471WA0152101643000000000000
B1557124229515N07154510WA0151901641000000000000
B1557144229496N07154548WA0151901641000000000000
B1557164229477N07154586WA0152001642000000000000
B1557184229458N07154623WA0152001642000000000000
B1557204229441N07154662WA0151901640000000000000
B1557224229422N07154700WA0151901639000000000000
B1557244229403N07154738WA0151701638000000000000
B1557264229384N07154775WA0151501635000000000000
B1557284229364N07154814WA0151201632000000000000
B1557304229344N07154852WA0150901628000000000000
B1557324229324N07154891WA0150501625000000000000
B1557344229303N07154930WA0150201621000000000000
B1557364229282N07154969WA0149901615000000000000
B1557384229262N07155008WA0149501613000000000000
B1557404229241N07155046WA0149301614000000000000
B1557424229219N07155082WA0149401615000000000000
B1557444229199N07155119WA0149401613000000000000
B1557464229178N07155156WA0149201611000000000000
B1557484229159N07155194WA0149201613000000000000
B1557504229141N07155233WA0149301616000000000000
B1557524229123N07155273WA0149701623000000000000
B1557544229104N07155310WA0150201627000000000000
B1557564229085N07155347WA0150401627000000000000
B1557584229068N07155385WA0150401623000000000000
B1558004229048N07155423WA0150101619000000000000
B1558024229030N07155460WA0149701615000000000000
B1558044229011N07155498WA0149201606000000000000
B1558064228993N07155538WA0148401598000000000000
B1558084228972N07155579WA0147701596000000000000
B1558104228951N07155619WA0147401593000000000000
B1558124228930N07155662WA0147401594000000000000
B1558144228909N07155706WA0147401598000000000000
B1558164228889N07155749WA0147901605000000000000
B1558184228869N07155791WA0148601610000000000000
B1558204228850N07155832WA0148801611000000000000
B1558224228829N07155873WA0149001614000000000000
B1558244228809N07155913WA0149301617000000000000
B1558264228790N07155952WA0149601618000000000000
B1558284228770N07155992WA0149701619000000000000
B1558304228751N07156031WA0149801618000000000000
B1558324228729N07156070WA0149701615000000000000
B1558344228707N07156107WA0149501613000000000000
B1558364228683N07156143WA0149301612000000000000
B1558384228660N07156179WA0149101609000000000000
B1558404228635N07156213WA0148801605000000000000
B1558424228609N07156247WA0148501602000000000000
B1558444228584N07156279WA0148001596000000000000
B1558464228558N07156315WA0147501587000000000000
B1558484228532N07156351WA0146701577000000000000
B1558504228504N07156387WA0145601565000000000000
B1558524228474N07156425WA0144601558000000000000
B1558544228441N07156460WA0144001559000000000000
B1558564228408N07156491WA0144001560000000000000
B1558584228374N07156521WA0144001560000000000000
B1559004228340N07156551WA0143901556000000000000
B1559024228305N07156577WA0143701553000000000000
B1559044228271N07156604WA0143401552000000000000
B1559064228237N07156630WA0143301552000000000000
B1559084228203N07156655WA0143301554000000000000
B1559104228170N07156679WA0143501555000000000000
B1559124228138N07156701WA0143501554000000000000
B1559144228106N07156721WA0143301551000000000000
B1559164228073N07156741WA0143001550000000000000
B1559184228041N07156760WA0143101552000000000000
B1559204228008N07156777WA0143401555000000000000
B1559224227977N07156794WA0143801558000000000000
B1559244227947N07156812WA0144101562000000000000
B1559264227917N07156829WA0144201564000000000000
B1559284227886N07156845WA0144301565000000000000
B1559304227856N07156861WA0144401565000000000000
B1559324227825N07156876WA0144401564000000000000
B1559344227794N07156893WA0144401562000000000000
B1559364227763N07156913WA0144301562000000000000
B1559384227733N07156932WA0144301565000000000000
B1559404227703N07156950WA0144401565000000000000
B1559424227672N07156970WA0144401563000000000000
B1559444227642N07156989WA0144201561000000000000
B1559464227611N07157010WA0144101559000000000000
B1559484227579N07157032WA0144001559000000000000
B1559504227548N07157052WA0144001562000000000000
B1559524227516N07157071WA0144201564000000000000
B1559544227485N07157091WA0144401566000000000000
B1559564227453N07157109WA0144401565000000000000
B1559584227422N07157128WA0144301562000000000000
B1600004227391N07157150WA0144201560000000000000
B1600024227360N07157170WA0144001558000000000000
B1600044227327N07157188WA0143901556000000000000
B1600064227296N07157208WA0143601552000000000000
B1600084227264N07157227WA0143201547000000000000
B1600104227231N07157245WA0142801543000000000000
B1600124227199N07157264WA0142401540000000000000
B1600144227165N07157282WA0142101538000000000000
B1600164227132N07157301WA0141901536000000000000
B1600184227098N07157321WA0141601533000000000000
B1600204227065N07157339WA0141501529000000000000
B1600224227032N07157358WA0141201527000000000000
B1600244226998N07157378WA0141101532000000000000
B1600264226965N07157397WA0141601540000000000000
B1600284226933N07157416WA0142801552000000000000
B1600304226903N07157430WA0143401566000000000000
B1600324226876N07157443WA0145201578000000000000
B1600344226850N07157456WA0146401589000000000000
B1600364226824N07157468WA0147101593000000000000
B1600384226802N07157487WA0147601597000000000000
B1600404226790N07157518WA0147801604000000000000
B1600424226790N07157552WA0148501612000000000000
B1600444226805N07157583WA0149201617000000000000
B1600464226831N07157605WA0149701618000000000000
B1600484226863N07157613WA0149801617000000000000
B1600504226898N07157602WA0149801617000000000000
B1600524226929N07157568WA0149801617000000000000
B1600544226949N07157521WA0149701616000000000000
B1600564226954N07157469WA0149601613000000000000
B1600584226945N07157420WA0149401609000000000000
B1601004226924N07157379WA0149101609000000000000
B1601024226897N07157351WA0149101614000000000000
B1601044226868N07157326WA0149301619000000000000
B1601064226840N07157305WA0149901623000000000000
B1601084226810N07157293WA0150301627000000000000
B1601104226781N07157291WA0150601629000000000000
B1601124226753N07157295WA0150701630000000000000
B1601144226725N07157306WA0150701629000000000000
B1601164226702N07157323WA0150801630000000000000
B1601184226680N07157345WA0150801632000000000000
B1601204226659N07157370WA0151201634000000000000
B1601224226643N07157399WA0151701639000000000000
B1601244226640N07157434WA0151901643000000000000
B1601264226653N07157468WA0152301648000000000000
B1601284226679N07157486WA0152901653000000000000
B1601304226711N07157481WA0153301656000000000000
B1601324226741N07157451WA0153501657000000000000
B1601344226758N07157404WA0153601659000000000000
B1601364226757N07157352WA0153801661000000000000
B1601384226741N07157310WA0154101663000000000000
B1601404226715N07157288WA0154401667000000000000
B1601424226688N07157284WA0154701673000000000000
B1601444226666N07157292WA0155101677000000000000
B1601464226653N07157313WA0155501679000000000000
B1601484226651N07157342WA0155701679000000000000
B1601504226666N07157368WA0155701676000000000000
B1601524226693N07157379WA0155601678000000000000
B1601544226724N07157369WA0155601680000000000000
B1601564226751N07157338WA0155701682000000000000
B1601584226767N07157292WA0155901682000000000000
B1602004226770N07157240WA0156001682000000000000
B1602024226757N07157195WA0156101683000000000000
B1602044226733N07157161WA0156201686000000000000
B1602064226707N07157139WA0156401685000000000000
B1602084226679N07157131WA0156401685000000000000
B1602104226651N07157135WA0156401683000000000000
B1602124226629N07157153WA0156001675000000000000
B1602144226611N07157182WA0155401670000000000000
B1602164226598N07157215WA0155001670000000000000
B1602184226584N07157251WA0154901672000000000000
B1602204226568N07157283WA0155001676000000000000
B1602224226552N07157316WA0155301681000000000000
B1602244226538N07157348WA0155701685000000000000
B1602264226524N07157379WA0156301689000000000000
B1602284226510N07157410WA0156601692000000000000
B1602304226493N07157439WA0157001695000000000000
B1602324226476N07157468WA0157301697000000000000
B1602344226459N07157496WA0157401697000000000000
B1602364226441N07157525WA0157301695000000000000
B1602384226422N07157556WA0157201694000000000000
B1602404226404N07157587WA0157201696000000000000
B1602424226385N07157620WA0157401698000000000000
B1602444226367N07157650WA0157701700000000000000
B1602464226350N07157681WA0157901700000000000000
B1602484226333N07157712WA0157801700000000000000
B1602504226315N07157743WA0157601698000000000000
B1602524226296N07157774WA0157401695000000000000
B1602544226278N07157807WA0157201693000000000000
B1602564226260N07157839WA0156901689000000000000
B1602584226240N07157873WA0156501680000000000000
B1603004226220N07157910WA0155601672000000000000
B1603024226199N07157947WA0155101671000000000000
B1603044226179N07157985WA0155001677000000000000
B1603064226160N07158023WA0155301680000000000000
B1603084226140N07158059WA0155601682000000000000
B1603104226121N07158096WA0155801684000000000000
B1603124226101N07158131WA0156201687000000000000
B1603144226082N07158164WA0156501689000000000000
B1603164226060N07158197WA0156701691000000000000
B1603184226038N07158229WA0156901693000000000000
B1603204226016N07158261WA0157101696000000000000
B1603224225995N07158292WA0157301696000000000000
B1603244225974N07158322WA0157301694000000000000
B1603264225951N07158350WA0157001691000000000000
B1603284225927N07158379WA0156701690000000000000
B1603304225902N07158406WA0156701691000000000000
B1603324225879N07158431WA0157101695000000000000
B1603344225857N07158458WA0157201695000000000000
B1603364225837N07158488WA0157101690000000000000
B1603384225819N07158522WA0156501681000000000000
B1603404225801N07158558WA0155601672000000000000
B1603424225784N07158599WA0155001668000000000000
B1603444225766N07158639WA0154601665000000000000
B1603464225749N07158679WA0154201660000000000000
B1603484225731N07158718WA0153701657000000000000
B1603504225711N07158757WA0153501656000000000000
B1603524225693N07158796WA0153401655000000000000
B1603544225675N07158834WA0153201652000000000000
B1603564225655N07158873WA0152801648000000000000
B1603584225639N07158911WA0152501644000000000000
B1604004225622N07158951WA0151901640000000000000
B1604024225605N07158991WA0151501634000000000000
B1604044225589N07159032WA0150901630000000000000
B1604064225574N07159072WA0150301623000000000000
B1604084225558N07159113WA0149701613000000000000
B1604104225542N07159156WA0149201604000000000000
B1604124225528N07159202WA0148301597000000000000
B1604144225512N07159247WA0147601587000000000000
B1604164225496N07159294WA0146601574000000000000
B1604184225479N07159342WA0145501566000000000000
B1604204225464N07159392WA0144901569000000000000
B1604224225451N07159440WA0145001574000000000000
B1604244225441N07159488WA0145501576000000000000
B1604264225434N07159536WA0145701580000000000000
B1604284225427N07159584WA0146001581000000000000
B1604304225420N07159632WA0146201582000000000000
B1604324225412N07159680WA0146301584000000000000
B1604344225405N07159727WA0146801595000000000000
B1604364225399N07159770WA0148001612000000000000
B1604384225397N07159809WA0149401623000000000000
B1604404225405N07159847WA0150501631000000000000
B1604424225425N07159874WA0151301637000000000000
B1604444225454N07159890WA0151801638000000000000
B1604464225488N07159886WA0151901634000000000000
B1604484225520N07159861WA0151501629000000000000
B1604504225544N07159817WA0151001629000000000000
B1604524225553N07159765WA0151101633000000000000
B1604544225546N07159718WA0151501635000000000000
B1604564225527N07159680WA0151701636000000000000
B1604584225502N07159653WA0152101644000000000000
B1605004225477N07159627WA0152701651000000000000
B1605024225454N07159604WA0153101656000000000000
B1605044225428N07159596WA0153701659000000000000
B1605064225405N07159607WA0153901660000000000000
B1605084225390N07159632WA0154101662000000000000
B1605104225388N07159666WA0154201661000000000000
B1605124225399N07159698WA0154101659000000000000
B1605144225425N07159719WA0154001662000000000000
B1605164225458N07159724WA0154201665000000000000
B1605184225492N07159709WA0154501668000000000000
B1605204225520N07159679WA0154701673000000000000
B1605224225540N07159640WA0155001675000000000000
B1605244225550N07159594WA0155201676000000000000
B1605264225549N07159546WA0155501679000000000000
B1605284225538N07159503WA0156001684000000000000
B1605304225519N07159470WA0156401688000000000000
B1605324225494N07159449WA0156901692000000000000
B1605344225468N07159441WA0157301696000000000000
B1605364225442N07159441WA0157601699000000000000
B1605384225416N07159444WA0158001699000000000000
B1605404225394N07159454WA0158001697000000000000
B1605424225381N07159480WA0157701695000000000000
B1605444225380N07159514WA0157301690000000000000
B1605464225395N07159544WA0157101689000000000000
B1605484225424N07159559WA0156901690000000000000
B1605504225458N07159558WA0156901689000000000000
B1605524225493N07159553WA0156901689000000000000
B1605544225529N07159545WA0156601688000000000000
B1605564225564N07159532WA0156801689000000000000
B1605584225596N07159505WA0157101697000000000000
B1606004225620N07159467WA0157601701000000000000
B1606024225639N07159422WA0158201703000000000000
B1606044225645N07159371WA0158301703000000000000
B1606064225645N07159319WA0158301702000000000000
B1606084225636N07159268WA0158301703000000000000
B1606104225618N07159227WA0158401710000000000000
B1606124225593N07159195WA0158901715000000000000
B1606144225567N07159171WA0159401718000000000000
B1606164225538N07159151WA0159701719000000000000
B1606184225510N07159137WA0159701717000000000000
B1606204225479N07159132WA0159201708000000000000
B1606224225444N07159132WA0158501699000000000000
B1606244225406N07159132WA0157801697000000000000
B1606264225368N07159134WA0157601698000000000000
B1606284225330N07159137WA0157801699000000000000
B1606304225294N07159139WA0157901700000000000000
B1606324225256N07159142WA0157801696000000000000
B1606344225219N07159145WA0157601692000000000000
B1606364225181N07159146WA0157101688000000000000
B1606384225143N07159147WA0156601684000000000000
B1606404225106N07159150WA0156101680000000000000
B1606424225068N07159154WA0155801677000000000000
B1606444225030N07159158WA0155501674000000000000
B1606464224992N07159160WA0155201669000000000000
B1606484224955N07159163WA0154701664000000000000
B1606504224916N07159165WA0154201660000000000000
B1606524224877N07159167WA0153801657000000000000
B1606544224838N07159168WA0153601655000000000000
B1606564224799N07159167WA0153501655000000000000
B1606584224760N07159165WA0153601657000000000000
B1607004224722N07159160WA0153801661000000000000
B1607024224684N07159155WA0154301667000000000000
B1607044224649N07159150WA0154501668000000000000
B1607064224613N07159143WA0154701667000000000000
B1607084224578N07159141WA0154601667000000000000
B1607104224544N07159139WA0154501665000000000000
B1607124224509N07159138WA0154301662000000000000
B1607144224474N07159139WA0154001657000000000000
B1607164224439N07159141WA0153401649000000000000
B1607184224401N07159143WA0152701641000000000000
B1607204224362N07159145WA0152001636000000000000
B1607224224322N07159149WA0151601637000000000000
B1607244224283N07159155WA0151901645000000000000
B1607264224246N07159162WA0152701656000000000000
B1607284224212N07159168WA0153601663000000000000
B1607304224180N07159173WA0154301669000000000000
B1607324224149N07159177WA0154901674000000000000
B1607344224119N07159181WA0155101670000000000000
B1607364224088N07159185WA0154701665000000000000
B1607384224056N07159193WA0154101656000000000000
B1607404224023N07159201WA0153301649000000000000
B1607424223988N07159210WA0152501642000000000000
B1607444223952N07159217WA0151801632000000000000
B1607464223916N07159227WA0150901626000000000000
B1607484223878N07159234WA0150301621000000000000
B1607504223839N07159243WA0149701615000000000000
B1607524223799N07159251WA0149401608000000000000
B1607544223759N07159259WA0148801601000000000000
B1607564223717N07159267WA0148201595000000000000
B1607584223674N07159273WA0147601591000000000000
B1608004223633N07159279WA0147401592000000000000
B1608024223591N07159285WA0147301593000000000000
B1608044223549N07159289WA0147401592000000000000
B1608064223509N07159293WA0147101587000000000000
B1608084223469N07159297WA0146601580000000000000
B1608104223427N07159299WA0146001574000000000000
B1608124223384N07159302WA0145501570000000000000
B1608144223343N07159305WA0145001568000000000000
B1608164223301N07159307WA0145001568000000000000
B1608184223261N07159308WA0145001572000000000000
B1608204223222N07159310WA0145401575000000000000
B1608224223185N07159312WA0145501574000000000000
B1608244223149N07159314WA0145301571000000000000
B1608264223113N07159315WA0145301571000000000000
B1608284223079N07159315WA0145201571000000000000
B1608304223046N07159315WA0145201571000000000000
B1608324223013N07159315WA0145001569000000000000
B1608344222980N07159315WA0145001567000000000000
B1608364222948N07159314WA0144701565000000000000
B1608384222915N07159315WA0144501563000000000000
B1608404222881N07159316WA0144301563000000000000
B1608424222847N07159318WA0144301561000000000000
B1608444222815N07159320WA0144201560000000000000
B1608464222781N07159323WA0144201563000000000000
B1608484222746N07159323WA0144401565000000000000
B1608504222712N07159319WA0144401565000000000000
B1608524222678N07159310WA0144401564000000000000
B1608544222645N07159301WA0144301561000000000000
B1608564222610N07159292WA0144101557000000000000
B1608584222573N07159282WA0143701553000000000000
B1609004222534N07159273WA0143201550000000000000
B1609024222496N07159263WA0143001547000000000000
B1609044222457N07159253WA0142901548000000000000
B1609064222418N07159242WA0142901550000000000000
B1609084222381N07159233WA0143001551000000000000
B1609104222344N07159224WA0143201554000000000000
B1609124222308N07159216WA0143401557000000000000
B1609144222272N07159208WA0143701559000000000000
B1609164222236N07159199WA0143901560000000000000
B1609184222203N07159191WA0144201562000000000000
B1609204222169N07159190WA0144401565000000000000
B1609224222138N07159191WA0144501569000000000000
B1609244222106N07159197WA0144801568000000000000
B1609264222075N07159202WA0144501563000000000000
B1609284222043N07159208WA0144101555000000000000
B1609304222008N07159211WA0143301546000000000000
B1609324221970N07159214WA0142401535000000000000
B1609344221930N07159214WA0141601527000000000000
B1609364221888N07159203WA0141101527000000000000
B1609384221850N07159181WA0140901525000000000000
B1609404221817N07159146WA0140501519000000000000
B1609424221785N07159104WA0140001513000000000000
B1609444221755N07159061WA0139601515000000000000
B1609464221727N07159019WA0139801517000000000000
B1609484221700N07158977WA0139901517000000000000
B1609504221671N07158938WA0140001516000000000000
B1609524221642N07158903WA0140001516000000000000
B1609544221610N07158876WA0139901514000000000000
B1609564221575N07158863WA0139301503000000000000
B1609584221537N07158866WA0138401491000000000000
B1610004221499N07158883WA0137401486000000000000
B1610024221463N07158903WA0136701481000000000000
B1610044221427N07158924WA0136201476000000000000
B1610064221389N07158944WA0135601471000000000000
B1610084221352N07158965WA0135101467000000000000
B1610104221315N07158986WA0134801465000000000000
B1610124221278N07159006WA0134501463000000000000
B1610144221242N07159025WA0134401463000000000000
B1610164221207N07159043WA0134601469000000000000
B1610184221173N07159061WA0135201474000000000000
B1610204221142N07159078WA0135501475000000000000
B1610224221111N07159097WA0135501475000000000000
B1610244221079N07159115WA0135401471000000000000
B1610264221050N07159136WA0135101468000000000000
B1610284221020N07159156WA0134901468000000000000
B1610304220988N07159176WA0134901469000000000000
B1610324220956N07159194WA0134901469000000000000
B1610344220925N07159212WA0134901466000000000000
B1610364220891N07159232WA0134601461000000000000
B1610384220857N07159253WA0134201459000000000000
B1610404220822N07159273WA0134101459000000000000
B1610424220788N07159294WA0134001457000000000000
B1610444220753N07159315WA0133901453000000000000
B1610464220717N07159337WA0133501449000000000000
B1610484220682N07159359WA0133101448000000000000
B1610504220647N07159380WA0132901446000000000000
B1610524220611N07159401WA0132601442000000000000
B1610544220578N07159423WA0132201437000000000000
B1610564220544N07159445WA0131701431000000000000
B1610584220510N07159467WA0131201425000000000000
B1611004220476N07159492WA0130801422000000000000
B1611024220442N07159516WA0130601421000000000000
B1611044220410N07159540WA0130401419000000000000
B1611064220379N07159566WA0130201415000000000000
B1611084220348N07159592WA0129801412000000000000
B1611104220318N07159618WA0129501409000000000000
B1611124220288N07159645WA0129201403000000000000
B1611144220258N07159672WA0128701398000000000000
B1611164220228N07159700WA0128201393000000000000
B1611184220198N07159728WA0127701389000000000000
B1611204220167N07159756WA0127101383000000000000
B1611224220137N07159784WA0126601378000000000000
B1611244220106N07159815WA0126001373000000000000
B1611264220075N07159845WA0125801373000000000000
B1611284220043N07159875WA0125801375000000000000
B1611304220013N07159904WA0125901377000000000000
B1611324219985N07159935WA0126101379000000000000
B1611344219959N07159966WA0126301379000000000000
B1611364219935N07200001WA0126301379000000000000
B1611384219916N07200039WA0126301380000000000000
B1611404219899N07200081WA0126301379000000000000
B1611424219885N07200122WA0126201375000000000000
B1611444219870N07200165WA0125801371000000000000
B1611464219854N07200208WA0125401369000000000000
B1611484219837N07200250WA0125201368000000000000
B1611504219820N07200293WA0125201369000000000000
B1611524219803N07200334WA0125201369000000000000
B1611544219783N07200374WA0125401371000000000000
B1611564219763N07200413WA0125401372000000000000
B1611584219742N07200452WA0125501372000000000000
B1612004219721N07200493WA0125601374000000000000
B1612024219700N07200530WA0125701376000000000000
B1612044219681N07200568WA0126301384000000000000
B1612064219661N07200602WA0127201398000000000000
B1612084219644N07200634WA0128401406000000000000
B1612104219627N07200664WA0129101409000000000000
B1612124219612N07200696WA0129401411000000000000
B1612144219597N07200727WA0129601415000000000000
B1612164219582N07200758WA0129901419000000000000
B1612184219568N07200788WA0130201421000000000000
B1612204219555N07200818WA0130601423000000000000
B1612224219539N07200848WA0130701423000000000000
B1612244219525N07200879WA0130601420000000000000
B1612264219508N07200909WA0130501420000000000000
B1612284219491N07200940WA0130501423000000000000
B1612304219477N07200970WA0130801427000000000000
B1612324219460N07200997WA0131001428000000000000
B1612344219439N07201022WA0131101426000000000000
B1612364219417N07201045WA0131001425000000000000
B1612384219393N07201069WA0130901424000000000000
B1612404219371N07201091WA0130801425000000000000
B1612424219347N07201112WA0130901426000000000000
B1612444219323N07201134WA0130901426000000000000
B1612464219301N07201156WA0131101429000000000000
B1612484219278N07201178WA0131301429000000000000
B1612504219253N07201200WA0131301430000000000000
B1612524219228N07201223WA0131401431000000000000
B1612544219202N07201247WA0131501432000000000000
B1612564219178N07201270WA0131601435000000000000
B1612584219153N07201295WA0131801439000000000000
B1613004219128N07201318WA0132201441000000000000
B1613024219103N07201335WA0132401443000000000000
B1613044219076N07201351WA0132201439000000000000
B1613064219049N07201368WA0132001432000000000000
B1613084219022N07201388WA0131501430000000000000
B1613104218993N07201409WA0131301431000000000000
B1613124218964N07201427WA0131501434000000000000
B1613144218937N07201447WA0131801438000000000000
B1613164218911N07201466WA0132101441000000000000
B1613184218886N07201486WA0132301443000000000000
B1613204218862N07201500WA0132401443000000000000
B1613224218833N07201505WA0132301440000000000000
B1613244218802N07201505WA0131701427000000000000
B1613264218768N07201504WA0130701415000000000000
B1613284218730N07201500WA0130001414000000000000
B1613304218693N07201495WA0129901415000000000000
B1613324218655N07201491WA0130001417000000000000
B1613344218619N07201485WA0130001415000000000000
B1613364218582N07201479WA0129901415000000000000
B1613384218548N07201476WA0129801415000000000000
B1613404218513N07201474WA0129801412000000000000
B1613424218479N07201474WA0129601408000000000000
B1613444218446N07201474WA0129001401000000000000
B1613464218409N07201477WA0128501395000000000000
B1613484218373N07201481WA0127801390000000000000
B1613504218336N07201485WA0127401387000000000000
B1613524218300N07201490WA0127001384000000000000
B1613544218265N07201495WA0126901383000000000000
B1613564218229N07201499WA0126701380000000000000
B1613584218193N07201503WA0126401379000000000000
B1614004218158N07201507WA0126201379000000000000
B1614024218123N07201509WA0126201378000000000000
B1614044218088N07201512WA0126201377000000000000
B1614064218054N07201515WA0126101376000000000000
B1614084218021N07201516WA0125901374000000000000
B1614104217987N07201518WA0125701372000000000000
B1614124217953N07201522WA0125501371000000000000
B1614144217919N07201526WA0125401372000000000000
B1614164217885N07201530WA0125601374000000000000
B1614184217852N07201534WA0125801377000000000000
B1614204217819N07201539WA0126101380000000000000
B1614224217787N07201543WA0126401384000000000000
B1614244217754N07201547WA0126701386000000000000
B1614264217722N07201551WA0126801386000000000000
B1614284217689N07201556WA0126901386000000000000
B1614304217655N07201560WA0126901386000000000000
B1614324217623N07201561WA0126901386000000000000
B1614344217589N07201563WA0127001387000000000000
B1614364217555N07201564WA0127101387000000000000
B1614384217520N07201567WA0127301388000000000000
B1614404217486N07201568WA0127401391000000000000
B1614424217451N07201570WA0127601395000000000000
B1614444217417N07201574WA0128001398000000000000
B1614464217384N07201578WA0128401400000000000000
B1614484217352N07201589WA0128501402000000000000
B1614504217330N07201613WA0128901411000000000000
B1614524217321N07201647WA0129501415000000000000
B1614544217325N07201684WA0129701413000000000000
B1614564217346N07201712WA0129701411000000000000
B1614584217378N07201725WA0129601414000000000000
B1615004217413N07201719WA0129801418000000000000
B1615024217446N07201694WA0130101420000000000000
B1615044217472N07201659WA0130401422000000000000
B1615064217493N07201617WA0130601425000000000000
B1615084217510N07201573WA0130901429000000000000
B1615104217521N07201528WA0131301433000000000000
B1615124217528N07201479WA0131601433000000000000
B1615144217517N07201435WA0131701435000000000000
B1615164217494N07201407WA0131901436000000000000
B1615184217467N07201399WA0131901434000000000000
B1615204217442N07201413WA0131701430000000000000
B1615224217426N07201444WA0131301427000000000000
B1615244217416N07201482WA0131201427000000000000
B1615264217413N07201520WA0131601437000000000000
B1615284217425N07201550WA0132401448000000000000
B1615304217449N07201565WA0133201452000000000000
B1615324217477N07201564WA0133501448000000000000
B1615344217506N07201542WA0133101441000000000000
B1615364217527N07201500WA0132601440000000000000
B1615384217530N07201451WA0132701447000000000000
B1615404217521N07201407WA0133401456000000000000
B1615424217503N07201373WA0133801460000000000000
B1615444217478N07201355WA0134401461000000000000
B1615464217452N07201357WA0134501460000000000000
B1615484217430N07201377WA0134401459000000000000
B1615504217419N07201409WA0134301460000000000000
B1615524217417N07201446WA0134401465000000000000
B1615544217424N07201479WA0134801467000000000000
B1615564217441N07201507WA0135001470000000000000
B1615584217468N07201520WA0135201471000000000000
B1616004217499N07201513WA0135301470000000000000
B1616024217527N07201485WA0135101468000000000000
B1616044217543N07201442WA0135001468000000000000
B1616064217545N07201395WA0135101470000000000000
B1616084217528N07201356WA0135201472000000000000
B1616104217503N07201335WA0135401473000000000000
B1616124217477N07201334WA0135301470000000000000
B1616144217456N07201355WA0135001465000000000000
B1616164217450N07201390WA0134601462000000000000
B1616184217462N07201425WA0134401462000000000000
B1616204217486N07201448WA0134601465000000000000
B1616224217517N07201459WA0134901470000000000000
B1616244217547N07201463WA0135001470000000000000
B1616264217580N07201456WA0135101470000000000000
B1616284217607N07201431WA0135101471000000000000
B1616304217625N07201390WA0135101471000000000000
B1616324217629N07201343WA0135101469000000000000
B1616344217623N07201297WA0135101469000000000000
B1616364217611N07201255WA0135201474000000000000
B1616384217597N07201214WA0135601480000000000000
B1616404217582N07201177WA0136001481000000000000
B1616424217563N07201141WA0136201479000000000000
B1616444217536N07201126WA0136101480000000000000
B1616464217510N07201135WA0136201483000000000000
B1616484217495N07201164WA0136401486000000000000
B1616504217497N07201197WA0136601487000000000000
B1616524217512N07201227WA0136701486000000000000
B1616544217541N07201240WA0136801487000000000000
B1616564217573N07201231WA0136801488000000000000
B1616584217601N07201201WA0136901491000000000000
B1617004217615N07201158WA0137001490000000000000
B1617024217616N07201112WA0137001488000000000000
B1617044217611N07201063WA0136701484000000000000
B1617064217599N07201018WA0136501483000000000000
B1617084217581N07200976WA0136401486000000000000
B1617104217559N07200941WA0136801494000000000000
B1617124217537N07200911WA0137501501000000000000
B1617144217510N07200889WA0138201506000000000000
B1617164217480N07200889WA0138801513000000000000
B1617184217459N07200911WA0139601523000000000000
B1617204217450N07200944WA0140501531000000000000
B1617224217455N07200979WA0141401537000000000000
B1617244217476N07201006WA0142101540000000000000
B1617264217507N07201013WA0142401543000000000000
B1617284217537N07201000WA0142801548000000000000
B1617304217558N07200967WA0143201551000000000000
B1617324217566N07200926WA0143301551000000000000
B1617344217560N07200883WA0143501553000000000000
B1617364217541N07200848WA0143701557000000000000
B1617384217515N07200826WA0144201560000000000000
B1617404217485N07200822WA0144601568000000000000
B1617424217459N07200839WA0145301576000000000000
B1617444217446N07200872WA0145901579000000000000
B1617464217451N07200914WA0146401584000000000000
B1617484217475N07200945WA0147101594000000000000
B1617504217506N07200954WA0147901602000000000000
B1617524217537N07200940WA0148501607000000000000
B1617544217558N07200905WA0149101611000000000000
B1617564217566N07200859WA0149201616000000000000
B1617584217562N07200815WA0149701618000000000000
B1618004217546N07200777WA0150101621000000000000
B1618024217521N07200750WA0150401627000000000000
B1618044217494N07200737WA0150801634000000015000
B1618064217467N07200745WA0151401641000000015000
B1618084217449N07200772WA0152101647000000015000
B1618104217443N07200809WA0152801650000000015000
B1618124217454N07200846WA0153101651000000000000
B1618144217481N07200870WA0153401656000000000000
B1618164217515N07200872WA0154001665000000000000
B1618184217545N07200854WA0154701674000000000000
B1618204217564N07200819WA0155401676000000000000
B1618224217571N07200775WA0155601675000000000000
B1618244217563N07200731WA0155601676000000000000
B1618264217540N07200701WA0155601677000000000000
B1618284217508N07200693WA0155801679000000015000
B1618304217481N07200709WA0156201687000000015000
B1618324217460N07200737WA0156801693000000015000
B1618344217450N07200774WA0157501700000000015000
B1618364217454N07200814WA0158101703000000000000
B1618384217473N07200848WA0158601708000000000000
B1618404217502N07200868WA0159001714000000000000
B1618424217536N07200870WA0159401721000000000000
B1618444217567N07200850WA0160001725000000000000
B1618464217588N07200814WA0160401724000000000000
B1618484217595N07200767WA0160501727000000000000
B1618504217588N07200723WA0160701731000000000000
B1618524217568N07200689WA0161101736000000000000
B1618544217542N07200673WA0161701740000000015000
B1618564217514N07200677WA0162201745000000015000
B1618584217493N07200699WA0162501752000000015000
B1619004217481N07200731WA0163101756000000015000
B1619024217484N07200767WA0163701762000000000000
B1619044217497N07200798WA0164601770000000000000
B1619064217521N07200818WA0165201775000000000000
B1619084217551N07200820WA0165701777000000000000
B1619104217581N07200805WA0165701774000000000000
B1619124217603N07200768WA0165401770000000000000
B1619144217611N07200719WA0165201772000000000000
B1619164217602N07200672WA0165301774000000000000
B1619184217579N07200638WA0165601779000000000000
B1619204217550N07200616WA0165801784000000000000
B1619224217517N07200603WA0166201787000000000000
B1619244217485N07200598WA0166501788000000000000
B1619264217451N07200597WA0166501784000000000000
B1619284217415N07200599WA0166301783000000000000
B1619304217377N07200605WA0166201783000000000000
B1619324217338N07200612WA0166201783000000000000
B1619344217299N07200620WA0166201785000000000000
B1619364217260N07200629WA0166301786000000000000
B1619384217220N07200640WA0166501788000000000000
B1619404217181N07200653WA0166501791000000000000
B1619424217142N07200663WA0166801795000000000000
B1619444217101N07200668WA0167201800000000000000
B1619464217062N07200667WA0167601801000000000000
B1619484217022N07200663WA0167901804000000000000
B1619504216983N07200655WA0168301809000000000000
B1619524216944N07200645WA0168501805000000000000
B1619544216904N07200636WA0168101798000000000000
B1619564216862N07200625WA0167301792000000000000
B1619584216821N07200616WA0166901790000000000000
B1620004216778N07200606WA0166801788000000000000
B1620024216735N07200592WA0166701786000000000000
B1620044216691N07200576WA0166501784000000000000
B1620064216646N07200559WA0166301785000000000000
B1620084216604N07200542WA0166401787000000000000
B1620104216558N07200525WA0166501790000000000000
B1620124216514N07200507WA0166701792000000000000
B1620144216470N07200491WA0166901795000000000000
B1620164216427N07200477WA0167001795000000000000
B1620184216384N07200464WA0166901791000000000000
B1620204216340N07200452WA0166701788000000000000
B1620224216297N07200439WA0166601785000000000000
B1620244216254N07200426WA0166201782000000000000
B1620264216211N07200413WA0165801778000000000000
B1620284216167N07200398WA0165201772000000000000
B1620304216124N07200384WA0164601765000000000000
B1620324216078N07200369WA0163901758000000000000
B1620344216034N07200355WA0163201752000000000000
B1620364215989N07200339WA0162701746000000000000
B1620384215943N07200322WA0162301743000000000000
B1620404215898N07200303WA0161901741000000000000
B1620424215852N07200283WA0161801740000000000000
B1620444215808N07200261WA0161801739000000000000
B1620464215765N07200241WA0161701737000000000000
B1620484215721N07200220WA0161401736000000000000
B1620504215679N07200202WA0161301735000000000000
B1620524215636N07200182WA0161301735000000000000
B1620544215595N07200166WA0161201734000000000000
B1620564215552N07200152WA0161001731000000000000
B1620584215510N07200140WA0160701729000000000000
B1621004215469N07200131WA0160401726000000000000
B1621024215427N07200124WA0160201723000000000000
B1621044215387N07200114WA0159901721000000000000
B1621064215346N07200107WA0159801719000000000000
B1621084215306N07200099WA0159501717000000000000
B1621104215266N07200090WA0159301715000000000000
B1621124215227N07200079WA0159301713000000000000
B1621144215187N07200069WA0159001710000000000000
B1621164215148N07200060WA0158701706000000000000
B1621184215109N07200051WA0158401703000000000000
B1621204215070N07200036WA0158001700000000000000
B1621224215032N07200017WA0157601694000000000000
B1621244214993N07159994WA0156901687000000000000
B1621264214954N07159969WA0156301679000000000000
B1621284214914N07159944WA0155601673000000000000
B1621304214873N07159917WA0155101669000000000000
B1621324214834N07159886WA0154701667000000000000
B1621344214795N07159854WA0154501666000000000000
B1621364214758N07159823WA0154501667000000000000
B1621384214720N07159793WA0154401665000000000000
B1621404214681N07159763WA0154001660000000000000
B1621424214642N07159734WA0153501654000000000000
B1621444214602N07159704WA0153001651000000000000
B1621464214561N07159675WA0152701648000000000000
B1621484214521N07159646WA0152401647000000000000
B1621504214479N07159618WA0152501647000000000000
B1621524214439N07159592WA0152401648000000000000
B1621544214400N07159568WA0152501650000000000000
B1621564214360N07159548WA0152701651000000000000
B1621584214321N07159528WA0152801652000000000000
B1622004214282N07159509WA0152801650000000000000
B1622024214243N07159489WA0152501646000000000000
B1622044214204N07159470WA0152101642000000000000
B1622064214163N07159450WA0151801639000000000000
B1622084214123N07159432WA0151501637000000000000
B1622104214084N07159415WA0151401635000000000000
B1622124214044N07159398WA0151201634000000000000
B1622144214004N07159381WA0151101632000000000000
B1622164213963N07159364WA0150901630000000000000
B1622184213924N07159347WA0150801629000000000000
B1622204213884N07159329WA0150801627000000000000
B1622224213844N07159312WA0150601625000000000000
B1622244213802N07159297WA0150401622000000000000
B1622264213762N07159282WA0150001619000000000000
B1622284213721N07159268WA0149701617000000000000
B1622304213681N07159253WA0149601614000000000000
B1622324213642N07159238WA0149301612000000000000
B1622344213602N07159224WA0149101609000000000000
B1622364213562N07159210WA0148801605000000000000
B1622384213521N07159197WA0148401600000000000000
B1622404213481N07159184WA0148001595000000000000
B1622424213439N07159172WA0147401591000000000000
B1622444213399N07159163WA0147001588000000000000
B1622464213357N07159154WA0146701584000000000000
B1622484213316N07159147WA0146501582000000000000
B1622504213276N07159142WA0146101579000000000000
B1622524213234N07159137WA0145901578000000000000
B1622544213194N07159130WA0145801579000000000000
B1622564213153N07159123WA0145901580000000000000
B1622584213114N07159113WA0145901580000000000000
B1623004213075N07159104WA0145901580000000000000
B1623024213036N07159097WA0145901580000000000000
B1623044212997N07159087WA0145901578000000000000
B1623064212958N07159078WA0145701574000000000000
B1623084212919N07159068WA0145401571000000000000
B1623104212879N07159059WA0145201569000000000000
B1623124212840N07159050WA0144901567000000000000
B1623144212801N07159042WA0144601565000000000000
B1623164212762N07159033WA0144401562000000000000
B1623184212722N07159022WA0144201558000000000000
B1623204212681N07159012WA0143801554000000000000
B1623224212641N07159000WA0143701553000000000000
B1623244212600N07158989WA0143501552000000000000
B1623264212559N07158974WA0143401552000000000000
B1623284212519N07158960WA0143301552000000000000
B1623304212480N07158947WA0143401553000000000000
B1623324212441N07158934WA0143501552000000000000
B1623344212403N07158921WA0143501551000000000000
B1623364212366N07158907WA0143201549000000000000
B1623384212328N07158892WA0143001547000000000000
B1623404212290N07158876WA0142801544000000000000
B1623424212252N07158859WA0142401538000000000000
B1623444212213N07158842WA0141801531000000000000
B1623464212173N07158824WA0141301526000000000000
B1623484212134N07158805WA0140801524000000000000
B1623504212094N07158788WA0140601525000000000000
B1623524212055N07158772WA0140501524000000000000
B1623544212017N07158756WA0140401521000000000000
B1623564211979N07158742WA0140101517000000000000
B1623584211940N07158727WA0139701511000000000000
B1624004211903N07158714WA0139201505000000000000
B1624024211864N07158700WA0138601500000000000000
B1624044211823N07158688WA0138201496000000000000
B1624064211784N07158675WA0137801496000000000000
B1624084211744N07158665WA0137701497000000000000
B1624104211706N07158656WA0137801499000000000000
B1624124211667N07158647WA0138001502000000000000
B1624144211631N07158638WA0138201503000000000000
B1624164211595N07158630WA0138401500000000000000
B1624184211557N07158622WA0138201497000000000000
B1624204211521N07158614WA0137801494000000000000
B1624224211483N07158612WA0137501493000000000000
B1624244211446N07158613WA0137401492000000000000
B1624264211410N07158617WA0137201489000000000000
B1624284211374N07158622WA0137001485000000000000
B1624304211337N07158627WA0136601482000000000000
B1624324211300N07158634WA0136401482000000000000
B1624344211266N07158648WA0136401482000000000000
B1624364211232N07158666WA0136301481000000000000
B1624384211202N07158688WA0136201481000000000000
B1624404211171N07158709WA0136201480000000000000
B1624424211141N07158731WA0136001477000000000000
B1624444211111N07158755WA0135801474000000000000
B1624464211080N07158779WA0135601471000000000000
B1624484211050N07158803WA0135201469000000000000
B1624504211020N07158826WA0135001466000000000000
B1624524210990N07158850WA0134701463000000000000
B1624544210962N07158877WA0134501461000000000000
B1624564210933N07158904WA0134301460000000000000
B1624584210904N07158931WA0134201459000000000000
B1625004210874N07158957WA0134101458000000000000
B1625024210846N07158985WA0134101460000000000000
B1625044210819N07159012WA0134401464000000000000
B1625064210791N07159035WA0134601465000000000000
B1625084210764N07159059WA0134701468000000000000
B1625104210738N07159081WA0134901468000000000000
B1625124210712N07159100WA0135101470000000000000
B1625144210685N07159119WA0135301473000000000000
B1625164210657N07159136WA0135501473000000000000
B1625184210630N07159154WA0135501471000000000000
B1625204210607N07159180WA0135101461000000000000
B1625224210588N07159219WA0134301449000000000000
B1625244210577N07159266WA0133201443000000000000
B1625264210566N07159316WA0132701443000000000000
B1625284210561N07159368WA0132901454000000000000
B1625304210557N07159416WA0134001467000000000000
B1625324210553N07159462WA0135301474000000000000
B1625344210557N07159506WA0136201481000000000000
B1625364210577N07159540WA0136701486000000000000
B1625384210607N07159561WA0137201485000000000000
B1625404210643N07159557WA0137401490000000000000
B1625424210673N07159528WA0137701495000000000000
B1625444210691N07159484WA0138101497000000000000
B1625464210694N07159435WA0138401501000000000000
B1625484210683N07159389WA0138801507000000000000
B1625504210668N07159349WA0139401514000000000000
B1625524210643N07159321WA0140101520000000000000
B1625544210614N07159315WA0140401522000000000000
B1625564210591N07159333WA0140501522000000000000
B1625584210579N07159367WA0140701526000000000000
B1626004210587N07159402WA0140901530000000000000
B1626024210611N07159425WA0141301531000000000000
B1626044210643N07159427WA0141501533000000000000
B1626064210673N07159403WA0141601538000000000000
B1626084210692N07159363WA0142001541000000000000
B1626104210696N07159316WA0142401541000000000000
B1626124210681N07159273WA0142501546000000000000
B1626144210653N07159250WA0142901553000000000000
B1626164210625N07159251WA0143501559000000015000
B1626184210607N07159275WA0144101561000000015000
B1626204210604N07159308WA0144401558000000015000
B1626224210620N07159340WA0144301556000000015000
B1626244210650N07159353WA0144101558000000000000
B1626264210682N07159340WA0144201564000000000000
B1626284210705N07159305WA0144601569000000000000
B1626304210715N07159258WA0145001570000000000000
B1626324210705N07159211WA0145201575000000000000
B1626344210685N07159176WA0145701581000000000000
B1626364210657N07159154WA0146201583000000000000
B1626384210629N07159145WA0146301582000000015000
B1626404210605N07159162WA0146301580000000015000
B1626424210600N07159198WA0146101575000000015000
B1626444210617N07159234WA0145801575000000015000
B1626464210648N07159247WA0145801581000000015000
B1626484210681N07159234WA0146301586000000000000
B1626504210705N07159201WA0146701591000000000000
B1626524210716N07159155WA0147101593000000015000
B1626544210707N07159110WA0147401596000000015000
B1626564210686N07159078WA0147601599000000015000
B1626584210659N07159069WA0147801601000000015000
B1627004210634N07159080WA0148101602000000015000
B1627024210620N07159108WA0148301599000000015000
B1627044210617N07159145WA0148201598000000015000
B1627064210617N07159182WA0148001597000000000000
B1627084210617N07159221WA0147701596000000000000
B1627104210617N07159262WA0147601591000000000000
B1627124210622N07159303WA0147101586000000000000
B1627144210630N07159345WA0146501582000000000000
B1627164210638N07159388WA0145901571000000000000
B1627184210646N07159435WA0144901556000000000000
B1627204210652N07159487WA0143501546000000000000
B1627224210660N07159540WA0142601540000000000000
B1627244210668N07159593WA0142201538000000000000
B1627264210677N07159646WA0142101540000000000000
B1627284210686N07159697WA0142401545000000000000
B1627304210695N07159748WA0142801550000000000000
B1627324210708N07159795WA0143301556000000000000
B1627344210724N07159836WA0144101564000000000000
B1627364210744N07159875WA0144801572000000000000
B1627384210765N07159909WA0145401580000000000000
B1627404210786N07159940WA0146101584000000000000
B1627424210811N07159968WA0146501585000000000000
B1627444210845N07159983WA0146501582000000000000
B1627464210881N07159979WA0146301580000000000000
B1627484210915N07159958WA0146401586000000000000
B1627504210938N07159922WA0146801591000000000000
B1627524210950N07159877WA0147201592000000000000
B1627544210950N07159828WA0147301592000000000000
B1627564210937N07159788WA0147201591000000000000
B1627584210911N07159762WA0147301592000000000000
B1628004210884N07159752WA0147401596000000000000
B1628024210855N07159750WA0147701594000000000000
B1628044210828N07159763WA0147701592000000000000
B1628064210806N07159788WA0147601595000000000000
B1628084210783N07159815WA0147601597000000000000
B1628104210760N07159840WA0147801600000000000000
B1628124210738N07159864WA0148001600000000000000
B1628144210716N07159891WA0148201602000000000000
B1628164210694N07159919WA0148501607000000000000
B1628184210673N07159947WA0149001616000000000000
B1628204210653N07159974WA0149701621000000000000
B1628224210631N07159996WA0150301622000000000000
B1628244210604N07200003WA0150601626000000000000
B1628264210577N07159988WA0150801626000000000000
B1628284210555N07159956WA0150801626000000000000
B1628304210542N07159913WA0150701625000000000000
B1628324210539N07159866WA0150601622000000000000
B1628344210546N07159818WA0150101613000000000000
B1628364210570N07159779WA0149601605000000000000
B1628384210607N07159763WA0148901601000000000000
B1628404210640N07159774WA0148501606000000000000
B1628424210660N07159802WA0148701611000000000000
B1628444210664N07159838WA0149101612000000000000
B1628464210656N07159869WA0149201612000000000000
B1628484210640N07159897WA0149201608000000000000
B1628504210621N07159927WA0148601603000000000000
B1628524210600N07159956WA0147901598000000000000
B1628544210578N07159983WA0147601598000000000000
B1628564210555N07200009WA0147601598000000000000
B1628584210533N07200033WA0147601597000000000000
B1629004210510N07200057WA0147501595000000000000
B1629024210488N07200085WA0147301594000000000000
B1629044210468N07200114WA0147201594000000000000
B1629064210448N07200146WA0147201595000000000000
B1629084210431N07200178WA0147301596000000000000
B1629104210413N07200209WA0147401597000000000000
B1629124210395N07200241WA0147301594000000000000
B1629144210378N07200273WA0146801587000000000000
B1629164210358N07200307WA0146001576000000000000
B1629184210338N07200341WA0145201568000000000000
B1629204210314N07200376WA0144701566000000000000
B1629224210292N07200410WA0144501565000000000000
B1629244210271N07200445WA0144601564000000000000
B1629264210250N07200480WA0144401563000000000000
B1629284210230N07200514WA0144401562000000000000
B1629304210208N07200549WA0144201559000000000000
B1629324210187N07200584WA0144101562000000000000
B1629344210166N07200619WA0144401565000000000000
B1629364210145N07200654WA0144701569000000000000
B1629384210127N07200690WA0145301580000000000000
B1629404210110N07200722WA0146101586000000000000
B1629424210085N07200745WA0146901594000000000000
B1629444210055N07200750WA0147601603000000000000
B1629464210027N07200733WA0148601611000000000000
B1629484210010N07200693WA0149401617000000000000
B1629504210010N07200646WA0150001623000000000000
B1629524210028N07200607WA0150601628000000000000
B1629544210058N07200588WA0151001630000000000000
B1629564210087N07200593WA0151401634000000000000
B1629584210104N07200615WA0151801637000000000000
B1630004210106N07200646WA0151801633000000000000
B1630024210091N07200675WA0151501632000000000000
B1630044210063N07200689WA0151601636000000000000
B1630064210032N07200683WA0151801645000000000000
B1630084210006N07200662WA0152401654000000000000
B1630104209985N07200631WA0153101656000000000000
B1630124209976N07200588WA0153401651000000000000
B1630144209985N07200540WA0153101648000000000000
B1630164210009N07200502WA0152701649000000000000
B1630184210040N07200484WA0152701651000000000000
B1630204210072N07200486WA0153001653000000000000
B1630224210096N07200508WA0153401659000000000000
B1630244210106N07200540WA0153901665000000000000
B1630264210109N07200573WA0154401669000000000000
B1630284210102N07200606WA0154901673000000000000
B1630304210087N07200632WA0155301676000000000000
B1630324210061N07200641WA0155701677000000000000
B1630344210032N07200624WA0155901677000000000000
B1630364210013N07200586WA0156001681000000000000
B1630384210006N07200542WA0156201686000000000000
B1630404210015N07200499WA0156501686000000000000
B1630424210039N07200465WA0156501683000000000000
B1630444210070N07200451WA0156401682000000000000
B1630464210102N07200459WA0156301684000000000000
B1630484210124N07200486WA0156601692000000000000
B1630504210130N07200520WA0157401701000000000000
B1630524210119N07200550WA0158101707000000000000
B1630544210098N07200568WA0158801712000000000000
B1630564210074N07200569WA0159401718000000000000
B1630584210049N07200554WA0159701722000000000000
B1631004210031N07200524WA0160201719000000000000
B1631024210023N07200482WA0160101715000000000000
B1631044210031N07200437WA0159601710000000000000
B1631064210054N07200400WA0159101708000000000000
B1631084210087N07200384WA0158901713000000000000
B1631104210118N07200387WA0159301723000000000000
B1631124210143N07200406WA0160201730000000000000
B1631144210163N07200425WA0160801734000000000000
B1631164210172N07200455WA0161101734000000000000
B1631184210165N07200485WA0161101734000000000000
B1631204210141N07200502WA0161201738000000000000
B1631224210114N07200498WA0161601744000000000000
B1631244210089N07200476WA0162301749000000000000
B1631264210075N07200439WA0162801752000000000000
B1631284210072N07200398WA0163101754000000000000
B1631304210085N07200358WA0163201752000000000000
B1631324210110N07200328WA0163001749000000000000
B1631344210144N07200316WA0162701750000000000000
B1631364210176N07200321WA0162901754000000000000
B1631384210204N07200333WA0163401760000000000000
B1631404210223N07200359WA0163701763000000000000
B1631424210228N07200393WA0163801764000000000000
B1631444210222N07200426WA0164001767000000000000
B1631464210204N07200451WA0164401774000000000000
B1631484210178N07200460WA0165201779000000000000
B1631504210150N07200449WA0165801782000000000000
B1631524210128N07200419WA0166001786000000000000
B1631544210120N07200377WA0166501792000000000000
B1631564210128N07200335WA0167001796000000000000
B1631584210149N07200302WA0167401796000000000000
B1632004210178N07200282WA0167501796000000000000
B1632024210209N07200283WA0167601797000000000000
B1632044210232N07200307WA0167701799000000000000
B1632064210239N07200341WA0167901803000000000000
B1632084210230N07200372WA0168101809000000000000
B1632104210209N07200387WA0168701815000000000000
B1632124210183N07200394WA0169201816000000000000
B1632144210157N07200387WA0169401815000000000000
