ANKL0ZH
HFDTE310721
HFFXA050
HFPLTPILOT:Nelson Howe
HFGTYGLIDERTYPE:Discus 2b
HFGIDGLIDERID:1X       .
HFDTM100GPSDATUM:
HFRFWFIRMWAREVERSION:40 2011-6-17
HFRHWHARDWAREVERSION: NKL ClearNav V1.0
HFFTYFRTYPE:Nielsen Kellerman, ClearNav-IGC
HFGPS:UBLOX,LEA-4H-0-000-1,16Ch,18000 
HFPRSPRESSALTSENSOR:Intersema,MS5534B,20000 
I033638FXA3941ENL4247REX
C310721145317000000000103
C0000000N00000000WTAKEOFF     
C4225500N07147470WSterlingStrt
C4335517N07145082WNewfoundVal
C4322132N07240449WSmith
C4206049N07202299WSouthbridge
C4225500N07147470WSterling
C0000000N00000000WLANDING     
B1537474225410N07147431WA0015000145002032002008
B1537484225410N07147431WA0015000145002027002008
B1537494225410N07147431WA0015000145002018002008
B1537504225410N07147431WA0015000145002013002008
B1537514225410N07147431WA0015000145002004002008
B1537524225410N07147431WA0015000145002000002008
B1537534225410N07147431WA0015000145002000002008
B1537544225410N07147431WA0015100145002000002008
B1537554225410N07147430WA0014900145002000002008
B1537564225410N07147430WA0014900145002000002008
B1537574225410N07147430WA0015000145002000002008
B1537584225410N07147430WA0014900145002000002008
B1537594225410N07147430WA0014900145002000002008
B1538004225410N07147430WA0015000145002000002008
B1538014225410N07147430WA0014900145002000002008
B1538024225410N07147430WA0015100145002000002008
B1538034225410N07147430WA0015000145002004002008
B1538044225410N07147430WA0015000145002011002008
B1538054225410N07147430WA0015000145002013002008
B1538064225410N07147430WA0015000146002009002008
B1538074225410N07147430WA0015000146002002002008
B1538084225410N07147430WA0015000146002000002008
B1538094225410N07147430WA0015000146002000002008
B1538104225410N07147430WA0014900146002000002008
B1538114225410N07147430WA0014900146002000002008
B1538124225410N07147430WA0014900146002000002008
B1538134225410N07147430WA0014900146002004002008
B1538144225410N07147430WA0014900145002009002008
B1538154225410N07147430WA0015000145002009002008
B1538164225410N07147430WA0014900145002013002008
B1538174225410N07147430WA0015000145002022002008
B1538184225410N07147430WA0015000145002032002008
B1538194225410N07147430WA0015000145002039002008
B1538204225410N07147430WA0014900145002039002008
B1538214225410N07147430WA0014900145002029002008
B1538224225410N07147430WA0014900145002020002008
B1538234225410N07147430WA0014900145002013002008
B1538244225410N07147430WA0014900144002013002008
B1538254225410N07147430WA0014900144002015002008
B1538264225410N07147430WA0014900144002020002008
B1538274225410N07147430WA0014900144002020002008
B1538284225410N07147430WA0014900144002020002008
B1538294225410N07147430WA0015000145002025002008
B1538304225410N07147430WA0014900145002027002008
B1538314225410N07147430WA0014900145002034002008
B1538324225410N07147431WA0015000145002030002008
B1538334225410N07147431WA0014900145002020002008
B1538344225410N07147431WA0014900145002011002008
B1538354225410N07147431WA0014900145002002002008
B1538364225410N07147431WA0014900145002000002008
B1538374225410N07147431WA0014900145002000002008
B1538384225410N07147431WA0015000145002000002008
B1538394225410N07147431WA0014900145002000002008
B1538404225410N07147431WA0014900145002000002008
B1538414225410N07147431WA0014900145002000002008
B1538424225410N07147431WA0015000145002000002008
B1538434225410N07147431WA0014900145002000002008
B1538444225410N07147431WA0014900145002000002008
B1538454225410N07147431WA0015000145002000002008
B1538464225410N07147431WA0015000145002000002008
B1538474225410N07147431WA0015000145002000002008
B1538484225410N07147431WA0015000145002000002008
B1538494225410N07147431WA0015000146002000002008
B1538504225410N07147431WA0014900146002000002008
B1538514225410N07147431WA0015000146002000002008
B1538524225410N07147430WA0014900146002000002008
B1538534225410N07147430WA0014900146002000002008
B1538544225410N07147430WA0014900146002000002008
B1538554225410N07147430WA0014900146002000002008
B1538564225410N07147430WA0014900146002000002008
B1538574225410N07147430WA0015000146002000002008
B1538584225410N07147430WA0015000146002000002008
B1538594225410N07147430WA0015000146002000002008
B1539004225410N07147430WA0014900146002000002008
B1539014225410N07147430WA0015000146002000002008
B1539024225410N07147430WA0014900146002000002008
B1539034225410N07147430WA0015000146002000002008
B1539044225410N07147430WA0014900146002000002008
B1539054225410N07147430WA0014900146002000002008
B1539064225410N07147430WA0015000146002000002008
B1539074225410N07147430WA0015000146002000002008
B1539084225410N07147430WA0014900146002000002008
B1539094225410N07147430WA0015000146002000002008
B1539104225410N07147430WA0014900146002000002008
B1539114225410N07147430WA0015000146002000002008
B1539124225410N07147430WA0015000146002000002008
B1539134225410N07147430WA0015000146002000002008
B1539144225410N07147430WA0015000146002000002008
B1539154225410N07147430WA0015000146002000002008
B1539164225410N07147430WA0015000146002000002008
B1539174225410N07147430WA0015000146002000002008
B1539184225410N07147430WA0014900146002000002008
B1539194225410N07147430WA0014900145002000002008
B1539204225410N07147430WA0015000145002000002008
B1539214225410N07147430WA0015000145002000002008
B1539224225410N07147430WA0015000145002000002008
B1539234225410N07147430WA0015000145002000002008
B1539244225410N07147430WA0015000145002000002008
B1539254225410N07147430WA0015000145002000002008
B1539264225410N07147430WA0015000145002000002008
B1539274225410N07147430WA0015000145002000002008
B1539284225410N07147430WA0015000145002000002008
B1539294225410N07147430WA0015000145002000002008
B1539304225410N07147430WA0015000145002000002008
B1539314225410N07147430WA0015000144002000002008
B1539324225410N07147430WA0015100144002000002008
B1539334225411N07147430WA0015000144002000002008
B1539344225411N07147430WA0015000144002000002008
B1539354225411N07147430WA0015000144002000002008
B1539364225411N07147431WA0015000144002000002008
B1539374225411N07147431WA0015100144002000002008
B1539384225411N07147431WA0015100144002000002008
B1539394225411N07147431WA0015000144002000002008
B1539404225411N07147431WA0015000144002000003008
B1539414225411N07147431WA0015000144002000003008
B1539424225411N07147431WA0015000144002000003008
B1539434225411N07147431WA0014900144002000003008
B1539444225411N07147431WA0014900144002002003008
B1539454225411N07147431WA0015100144002002003008
B1539464225412N07147432WA0015000144002000003008
B1539474225414N07147434WA0015000144002000003000
F153947021706045125441920124609
B1539494225420N07147442WA0015000144002011003000
B1539514225431N07147455WA0014900144002027003000
B1539534225444N07147472WA0015000144002085003000
B1539554225461N07147492WA0014900145002132003000
B1539574225480N07147516WA0015100145002107003000
B1539594225502N07147543WA0015300146002079003000
B1540014225526N07147571WA0015400148002060003000
B1540034225552N07147601WA0015800151002046003000
B1540054225580N07147630WA0016200154002041003000
B1540074225609N07147660WA0017000160002036003000
B1540094225636N07147692WA0017900169002032003000
F1540090217060451441920124609
B1540114225662N07147723WA0018900179002029003000
B1540134225688N07147754WA0019900189002032003000
B1540154225713N07147785WA0020800200002037003000
B1540174225739N07147812WA0021900211002037003000
B1540194225765N07147838WA0023100221002032003000
B1540214225788N07147863WA0024200233002029003000
B1540234225807N07147893WA0025600245002032003000
B1540254225826N07147925WA0026500256002029003000
F154025021706045125441920124609
B1540274225848N07147955WA0027600267002029003000
B1540294225873N07147984WA0028200276002029003000
B1540314225898N07148014WA0029000281002029003000
B1540334225922N07148046WA0029700289002034003000
F1540340217060451441920124609
B1540354225947N07148074WA0030700298002034003000
B1540374225972N07148099WA0031900310002034003000
B1540394225998N07148123WA0032700320002034003000
B1540414226020N07148151WA0033700330002029003000
B1540434226039N07148181WA0034700342002027003000
B1540454226058N07148211WA0035400349002027003000
F154045021706045125441920124609
B1540474226080N07148240WA0035600354002027003000
B1540494226105N07148266WA0036200357002027003000
B1540514226131N07148290WA0037400365002027003000
B1540534226155N07148317WA0037800375002027003000
B1540554226177N07148346WA0038700381002024003000
B1540574226199N07148376WA0039500389002020003000
B1540594226221N07148405WA0040500398002020003000
B1541014226244N07148433WA0041300409002022003000
B1541034226267N07148460WA0042000416002018003000
B1541054226289N07148489WA0042800423002015003000
B1541074226309N07148519WA0043600431002018003000
B1541094226330N07148548WA0044400439002018003000
B1541114226351N07148576WA0045200448002018003000
F1541120217060451441920124609
B1541134226371N07148604WA0046200457002015003000
B1541154226391N07148631WA0047100466002013003000
B1541174226411N07148658WA0047900475002013003000
B1541194226431N07148685WA0048200481002015003000
B1541214226453N07148711WA0048900486002015003000
B1541234226475N07148738WA0049100491002015003000
F154124021706045125441920124609
B1541254226497N07148764WA0049600494002018003000
F1541260217060451441920124609
B1541274226518N07148791WA0050000498002018003000
F154127021706045125441920124609
B1541294226538N07148820WA0050400503002018003000
B1541314226558N07148848WA0050700506002015003000
B1541334226579N07148875WA0051000509002015003000
B1541354226599N07148901WA0051400512002015003000
B1541374226619N07148929WA0052200517002011003000
B1541394226639N07148956WA0053000526002015003000
F1541390217060451441920124609
B1541414226660N07148981WA0053400534002020003000
B1541434226680N07149006WA0053900537002015003000
B1541454226702N07149030WA0054100541002013003000
B1541474226723N07149054WA0054600545002013003000
F154148021706045125441920124609
B1541494226744N07149080WA0054900548002011003000
B1541514226764N07149108WA0055200550002009003000
B1541534226786N07149135WA0055400552002011003000
B1541554226807N07149163WA0055600555002015003000
B1541574226828N07149192WA0056200559002020003000
B1541594226851N07149217WA0056700565002020003000
B1542014226875N07149238WA0057100570002018003000
B1542034226900N07149259WA0057600574002015003000
B1542054226925N07149279WA0058400579002011003000
B1542074226950N07149298WA0058700585002009003000
B1542094226976N07149314WA0059100590002009003000
B1542114227003N07149331WA0059800594002011003000
B1542134227029N07149350WA0060400601002015003000
B1542154227055N07149368WA0061200608002020003000
B1542174227083N07149380WA0061800615002020003000
B1542194227112N07149392WA0062400622002015003000
B1542214227138N07149409WA0062900628002015003000
B1542234227163N07149429WA0063900634002018003000
B1542254227188N07149446WA0064600642002018003000
B1542274227215N07149460WA0065300650002013003000
B1542294227241N07149475WA0065800657002009003000
B1542314227266N07149492WA0066400662002015003000
B1542334227291N07149509WA0067400670002020003000
B1542354227316N07149525WA0067800675002018003000
B1542374227344N07149537WA0068200680002018003000
B1542394227372N07149550WA0069000685002018003000
B1542414227397N07149567WA0069200692002020003000
B1542434227421N07149586WA0070000697002024003000
B1542454227447N07149602WA0070400703002027003000
B1542474227473N07149615WA0071200709002027003000
B1542494227498N07149633WA0071600715002027003000
B1542514227522N07149654WA0072300721002032003000
B1542534227545N07149675WA0072900729002037003000
B1542554227568N07149697WA0073400734002032003000
B1542574227588N07149722WA0074200740002027003000
F1542570217060451441920124609
B1542594227603N07149752WA0075000747002027003000
F154259021706045125441920124609
B1543014227612N07149785WA0075400755002022003000
B1543034227614N07149820WA0075400758002022003000
B1543054227614N07149854WA0074900756002024003000
B1543074227615N07149886WA0074500753002022003000
B1543094227623N07149913WA0074100749002050003000
B1543114227638N07149934WA0073600745002093003000
B1543134227657N07149949WA0073400740002083003000
B1543154227679N07149957WA0073100735002050003000
B1543174227703N07149957WA0072700732002034003000
B1543194227728N07149949WA0072000727002029003000
B1543214227753N07149937WA0071600721002027003000
B1543234227779N07149920WA0071100717002022003000
B1543254227804N07149902WA0070200710002015003000
B1543274227830N07149881WA0069300701002004003000
B1543294227857N07149859WA0068700693002000003000
B1543314227885N07149835WA0068100688002011003000
B1543334227913N07149811WA0067900685002036003000
B1543354227941N07149788WA0067600682002058003000
B1543374227969N07149764WA0067200678002062003000
B1543394227997N07149742WA0066800674002057003000
B1543414228025N07149720WA0066500671002046003000
B1543434228053N07149698WA0066300668002037003000
B1543454228081N07149677WA0065900666002041003000
B1543474228108N07149655WA0065400661002053003000
B1543494228136N07149633WA0065000656002053003000
B1543514228163N07149610WA0064700653002043003000
B1543534228191N07149587WA0064300649002046003000
B1543554228219N07149563WA0063500642002057003000
B1543574228249N07149539WA0062900636002065003000
B1543594228280N07149514WA0062900633002053003000
B1544014228310N07149490WA0063000634002036003000
B1544034228340N07149465WA0063200636002032003000
B1544054228368N07149440WA0062900636002032003000
B1544074228396N07149416WA0062800635002029003000
B1544094228423N07149393WA0062800633002029003000
B1544114228451N07149372WA0062800632002027003000
B1544134228478N07149352WA0062300630002022003000
B1544154228506N07149334WA0062400628002039003000
B1544174228534N07149316WA0062400629002064003000
B1544194228561N07149299WA0062300627002074003000
B1544214228589N07149284WA0062200627002081003000
B1544234228616N07149270WA0061900626002097003000
B1544254228644N07149257WA0062500626002097003000
B1544274228673N07149245WA0062800630002062003000
B1544294228701N07149235WA0062500631002027003000
B1544314228729N07149238WA0062700632002013003000
B1544334228745N07149261WA0062600632002020003000
B1544354228743N07149293WA0062200630003048003000
F1544360217060451254419201209
B1544374228723N07149320WA0061600624003055003000
B1544394228691N07149330WA0061200618003046003000
B1544414228656N07149320WA0061200615003055003000
B1544434228621N07149295WA0061000615002069003000
B1544454228591N07149260WA0061000614002067003000
B1544474228567N07149216WA0061000613002072003000
B1544494228556N07149164WA0061100614002074003000
B1544514228559N07149113WA0061400616002067003000
B1544534228576N07149071WA0061600618002064003000
B1544554228601N07149046WA0061900621002046003000
B1544574228630N07149047WA0062200624003039003000
B1544594228647N07149073WA0062200626003041004000
B1545014228643N07149109WA0062400626003025003000
B1545034228616N07149132WA0062400627002013003000
F15450402170604254419201209
B1545054228581N07149120WA0063000630003022004000
F154505021706042519201209
B1545074228557N07149078WA0063700636003022003000
F1545080217060425192012
B1545094228555N07149031WA0064000641003013004000
F154510021706042509192012
B1545114228574N07148998WA0063900642002025003000
B1545134228603N07148991WA0064100642003029003000
B1545154228627N07149007WA0063900643003013004000
B1545174228631N07149044WA0064100644002000003000
B1545194228610N07149071WA0064500647002000003000
B1545214228574N07149072WA0065300651003011004000
B1545234228543N07149042WA0065700657003015004000
B1545254228528N07148994WA0065700659003002004000
B1545274228537N07148947WA0065400658002000003000
B1545294228563N07148920WA0065500656003006004000
B1545314228595N07148923WA0065600656003011004000
B1545334228610N07148955WA0066000660003004004000
B1545354228595N07148991WA0066500665002002003000
F1545350217060409192012
B1545374228561N07148999WA0066700667003000004000
B1545394228527N07148969WA0066900667003000004000
F154540021706042509192012
B1545414228515N07148916WA0067200670002002003000
F1545410217060425192012
B1545434228531N07148870WA0067600675002025003000
F154543021706040925192012
B1545454228561N07148851WA0067700678003043004000
B1545474228592N07148860WA0067800679003041004000
B1545494228608N07148895WA0068100683003036004000
B1545514228599N07148936WA0068700688002032003000
B1545534228569N07148962WA0068800691003025004000
F1545540217060409192012
B1545554228530N07148954WA0069000691004020004000
B1545574228498N07148911WA0069400694004009004000
F154557021706040925192012
B1545594228490N07148853WA0070000702002002003000
F1546000217060409251912
B1546014228508N07148806WA0070700709003018004000
F154601021706040925201912
B1546034228540N07148788WA0071200714003057004000
B1546054228570N07148798WA0071300717003062004000
B1546074228585N07148830WA0071800720003039004000
B1546094228578N07148869WA0071900722002029003000
F1546100217060409201912
B1546114228548N07148893WA0072200724002039004000
B1546134228510N07148891WA0072400726003044004000
B1546154228475N07148860WA0072800727003027004000
F154615021706040925201912
B1546174228459N07148808WA0073000731003011004000
B1546194228469N07148758WA0073100734003004004000
B1546214228498N07148734WA0073400735003020004000
B1546234228530N07148740WA0073500736003060004000
B1546254228553N07148767WA0073900741003064004000
B1546274228558N07148808WA0074300747002046004000
B1546294228541N07148844WA0074800752002046004000
F1546290217060409201912
B1546314228508N07148854WA0075000755003060004000
B1546334228474N07148832WA0075200755003076004000
F154634021706040925201912
B1546354228451N07148787WA0075300757003064004000
B1546374228450N07148733WA0075600760002036003000
B1546394228466N07148688WA0075900763002015003000
B1546414228493N07148663WA0076300766003027004000
B1546434228523N07148666WA0076500768003060004000
B1546454228544N07148693WA0076900772003055004000
B1546474228545N07148732WA0076800773002032004000
F1546480217060409201912
B1546494228524N07148763WA0076500771002032004000
B1546514228489N07148768WA0076500769003055004000
B1546534228454N07148743WA0076400767003097004000
F154654021706040925201912
B1546554228430N07148696WA0076500768003102004000
B1546574228422N07148640WA0076600770002062004000
B1546594228432N07148588WA0077000773002034004000
B1547014228460N07148558WA0077600778003036004000
B1547034228494N07148559WA0077900782003032004000
F1547040217060925201912
B1547054228516N07148587WA0078400786003011004000
B1547074228517N07148628WA0078600790003002004000
F1547080217060409201912
B1547094228493N07148659WA0078500791003009004000
B1547114228455N07148662WA0078900792003051004000
B1547134228419N07148631WA0079400796003076004000
F154713021706040925201912
B1547154228400N07148579WA0079900802002050004000
B1547174228405N07148527WA0080400808003027004000
B1547194228430N07148495WA0080900812003032004000
B1547214228461N07148494WA0080800814003046004000
B1547234228482N07148523WA0080900816003048004000
B1547254228482N07148563WA0081300820002032004000
B1547274228460N07148595WA0081600822002013004000
B1547294228424N07148601WA0082200825003034004000
B1547314228389N07148574WA0082300829003057004000
B1547334228366N07148526WA0082200829003036004000
B1547354228361N07148470WA0082300827002018004000
B1547374228379N07148422WA0082400828002015004000
B1547394228410N07148396WA0082700831003039004000
B1547414228444N07148399WA0082700832003074004000
F1547420217060925201912
B1547434228469N07148425WA0082700832003081004000
B1547454228479N07148466WA0082900832003058004000
B1547474228467N07148508WA0082800833003029004000
F154747021706040925201912
B1547494228435N07148530WA0083000835003038004000
B1547514228396N07148522WA0083600837002057004000
B1547534228363N07148487WA0083900842003074004000
B1547554228341N07148437WA0084100843003062004000
B1547574228335N07148380WA0084300844002029004000
B1547594228352N07148332WA0084700848003027004000
B1548014228384N07148307WA0084900850003036004000
B1548034228418N07148305WA0084600850003036004000
F1548040217060925201912
B1548054228444N07148328WA0084600849003062004000
B1548074228450N07148371WA0084800850003088004000
F154807021706040925201912
B1548094228435N07148412WA0085300853002062004000
F1548100217060409201912
B1548114228402N07148422WA0086300862003046004000
B1548134228370N07148394WA0086700868003057004000
F154813021706040925201912
B1548154228356N07148343WA0087000872003064004000
B1548174228363N07148292WA0087000875002045004000
B1548194228389N07148261WA0087000876003029004000
B1548214228421N07148257WA0086900875003053004000
F1548220217060925201912
B1548234228447N07148277WA0086600872003072004000
B1548254228458N07148315WA0086800871003055004000
B1548274228447N07148352WA0087000873002058004000
F154827021706040925201912
B1548294228416N07148367WA0086800873003072004000
B1548314228380N07148355WA0086700872003086004000
B1548334228349N07148320WA0086900871003111004000
B1548354228330N07148270WA0086800871002104004000
B1548374228325N07148213WA0086900872002064004000
B1548394228339N07148162WA0087300874002053004000
B1548414228368N07148131WA0087200877003060004000
B1548434228403N07148122WA0087200875003060004000
B1548454228432N07148140WA0086800874003067004000
F1548450217060925201912
B1548474228448N07148177WA0086700872003067004000
F154848021706040925201912
B1548494228441N07148219WA0086800874003071004000
B1548514228414N07148244WA0087400878003093004000
B1548534228378N07148239WA0087900883003125004000
B1548554228347N07148208WA0088400888003137004000
B1548574228327N07148160WA0088100888002102004000
B1548594228322N07148105WA0088100887002058004000
B1549014228334N07148053WA0087800886002058004000
B1549034228361N07148018WA0088400887002086004000
F1549040217060409251912
B1549054228394N07148009WA0088600889003078004000
F154905021706040925201912
F1549060217060925201912
B1549074228419N07148031WA0088900892003076004000
B1549094228424N07148067WA0089200895003100004000
F154909021706040925201912
B1549114228411N07148101WA0089100897002095004000
F1549110217060409201912
B1549134228384N07148122WA0089100898002074004000
B1549154228350N07148122WA0089200897002074004000
F154915021706040925201912
B1549174228315N07148098WA0089200897003097004000
B1549194228289N07148053WA0089500899003083004000
B1549214228284N07147997WA0089900901003055004000
B1549234228297N07147946WA0090200906002062004000
B1549254228321N07147905WA0089900907003050004000
B1549274228352N07147877WA0089600904003057004000
B1549294228388N07147867WA0089300900003081004000
B1549314228421N07147878WA0089500899003081004000
F1549310217060925201912
F154932021706040925201912
B1549334228444N07147907WA0089300900003095004000
B1549354228456N07147944WA0088800897002107004000
B1549374228456N07147986WA0088100891002107004000
B1549394228442N07148025WA0087800886002121004000
B1549414228416N07148055WA0087000880002114004000
B1549434228384N07148076WA0086300873002076004000
B1549454228346N07148086WA0086200869002074004000
B1549474228307N07148087WA0086200870002102004000
B1549494228267N07148085WA0086400872002128004000
B1549514228227N07148081WA0086500874002128004000
B1549534228188N07148077WA0087200879002125004000
B1549554228150N07148075WA0087800885002125004000
B1549574228113N07148077WA0088100889002088004000
B1549594228080N07148088WA0088200891002048004000
B1550014228053N07148113WA0088400892002036004000
B1550034228038N07148147WA0088500893002050004000
B1550054228037N07148185WA0088400892002074004000
B1550074228052N07148215WA0088200890002093004000
B1550094228077N07148232WA0087900887002102004000
B1550114228108N07148230WA0087400883003104004000
B1550134228137N07148210WA0086900878003109004000
B1550154228164N07148178WA0086800875002128004000
B1550174228186N07148139WA0086300871002144004000
B1550194228204N07148094WA0086300869002149004000
B1550214228216N07148044WA0086400870002149004000
B1550234228224N07147992WA0086200869002123004000
B1550254228227N07147938WA0086100867002109004000
B1550274228216N07147884WA0086600869002116004000
B1550294228191N07147842WA0086500871002116004000
B1550314228157N07147821WA0086800873003118004000
B1550334228124N07147827WA0086900874003128004000
B1550354228098N07147854WA0086700873003128004000
B1550374228085N07147894WA0086800873003109004000
B1550394228088N07147935WA0087200874002086004000
B1550414228107N07147963WA0087100875002074004000
B1550434228138N07147965WA0087500878003064004000
B1550454228166N07147937WA0087900883003043004000
B1550474228178N07147889WA0088000885003046004000
B1550494228171N07147835WA0088100885003083004000
B1550514228148N07147790WA0088200887002083004000
B1550534228115N07147762WA0088600888002048004000
B1550554228079N07147761WA0089400892003048004000
B1550574228052N07147782WA0090600903003074004000
B1550594228039N07147811WA0091400915002086004000
B1551014228038N07147839WA0091200916002076004000
B1551034228049N07147862WA0090900913002053004000
B1551054228071N07147873WA0091000911002037004000
B1551074228097N07147867WA0091100912002034004000
B1551094228122N07147844WA0090700911003018004000
B1551114228138N07147802WA0090300908003025004000
B1551134228138N07147748WA0090200906002069004000
B1551154228123N07147697WA0090000905002090004000
B1551174228094N07147658WA0090500906003067004000
B1551194228058N07147643WA0090800910003060004000
B1551214228025N07147652WA0090800911003090004000
B1551234228001N07147679WA0090600911003123004000
B1551254227989N07147716WA0090600909003142004000
B1551274227987N07147756WA0090400908002137004000
B1551294227993N07147794WA0090600909002116004000
B1551314228004N07147828WA0090800911002099004000
B1551334228021N07147856WA0090900912002100004000
B1551354228044N07147875WA0090800912002109004000
B1551374228071N07147882WA0090700910002118004000
B1551394228098N07147873WA0090700910003121004000
B1551414228123N07147850WA0090400909003132004000
B1551434228143N07147818WA0090200907002153004000
B1551454228159N07147780WA0090300906002160004000
B1551474228172N07147736WA0090100906002151004000
B1551494228182N07147688WA0090100905002121004000
B1551514228188N07147638WA0089900904002100004000
B1551534228185N07147586WA0089600901002118004000
B1551554228169N07147538WA0089900901002144004000
B1551574228140N07147504WA0089900902002137004000
B1551594228106N07147492WA0089800901003111004000
B1552014228078N07147509WA0089700900003107005000
B1552034228067N07147543WA0089400897003128004000
B1552054228072N07147580WA0089100893003151004000
B1552074228090N07147608WA0089200893002156004000
B1552094228116N07147626WA0089200895002132004000
B1552114228146N07147636WA0089200896002104004000
B1552134228177N07147640WA0089100896002099004000
B1552154228210N07147632WA0089200896003099004000
B1552174228240N07147604WA0088800894003104004000
B1552194228257N07147556WA0088600890003125004000
B1552214228257N07147501WA0088200886003140004000
B1552234228244N07147449WA0087900881003128004000
B1552254228222N07147405WA0088000879003095004000
B1552274228193N07147373WA0088100880003065004000
B1552294228162N07147350WA0087600879003065004000
B1552314228129N07147332WA0087800881003069004000
B1552334228095N07147316WA0087600881003076004000
B1552354228061N07147310WA0087600879003107004000
B1552374228028N07147316WA0087600880003137004000
B1552394227999N07147330WA0087800880003146004000
B1552414227974N07147351WA0087700883003132004000
B1552434227953N07147376WA0087400881003130004000
B1552454227933N07147402WA0087400878003148004000
B1552474227914N07147430WA0087300878003158004000
B1552494227895N07147459WA0087300878003146004000
B1552514227878N07147489WA0087300878003135004000
B1552534227863N07147521WA0087500880003135004000
B1552554227850N07147553WA0087300880003104004000
B1552574227840N07147588WA0086600876003071004000
B1552594227838N07147624WA0086200871003093004000
B1553014227845N07147657WA0086100867003114004000
B1553034227862N07147684WA0085600863003102004000
B1553054227884N07147704WA0085000858003095004000
B1553074227906N07147725WA0084500853003116004000
B1553094227928N07147749WA0084000848003142004000
B1553114227948N07147775WA0083600844003149004000
B1553134227968N07147804WA0083300841003153004000
B1553154227987N07147833WA0083000839003165004000
B1553174228006N07147863WA0082800836003177004000
B1553194228024N07147895WA0082300832003181004000
F155319021706040925512019461244
B1553214228041N07147928WA0082000828003179004000
B1553234228057N07147962WA0081600825003160004000
B1553254228073N07147996WA0081400822003135004000
B1553274228088N07148031WA0080900819003123004000
B1553294228103N07148066WA0080600815003135004000
B1553314228117N07148101WA0080100810003156004000
B1553334228129N07148138WA0080100807003163004000
B1553354228135N07148178WA0079600805003142004000
B1553374228138N07148220WA0078800799003111004000
B1553394228138N07148262WA0078200792003095004000
B1553414228136N07148305WA0077700787003088004000
B1553434228134N07148348WA0077300782003095004000
B1553454228131N07148391WA0077100779003111004000
B1553474228130N07148434WA0076500775003132004000
B1553494228128N07148477WA0075900769003151004000
B1553514228123N07148520WA0075600764003156004000
B1553534228116N07148563WA0075500762003134004000
B1553554228105N07148604WA0075300761003111004000
B1553574228094N07148645WA0075000758003109004000
B1553594228082N07148685WA0074700754003107004000
B1554014228070N07148725WA0074200750003090004000
B1554034228056N07148765WA0073400744003083004000
B1554054228042N07148806WA0072900738003104004000
B1554074228026N07148848WA0072500733003123004000
B1554094228009N07148889WA0072100730003114004000
B1554114227991N07148930WA0071900726003104004000
B1554134227972N07148969WA0071300722003111004000
B1554154227952N07149008WA0070800718003100004000
B1554174227932N07149047WA0070100711003078004000
B1554194227911N07149086WA0069700705003067004000
B1554214227888N07149124WA0069400701003057004000
B1554234227863N07149161WA0069000697003079004000
B1554254227834N07149195WA0068900695003111004000
B1554274227806N07149229WA0068900696003116004000
B1554294227778N07149264WA0068800695003095004000
B1554314227751N07149300WA0068400693003067004000
B1554334227725N07149337WA0068200690003069004000
B1554354227700N07149375WA0068000687003078004000
B1554374227675N07149413WA0067900686003069004000
B1554394227648N07149450WA0067500683003081004000
B1554414227621N07149487WA0067300680003105004000
B1554434227593N07149522WA0067000678003112004000
B1554454227563N07149557WA0067000677003107004000
B1554474227533N07149591WA0066900676003088004000
B1554494227500N07149622WA0067300678003076004000
B1554514227461N07149638WA0068300685003060004000
F1554510217060409255120191244
B1554534227422N07149624WA0070000698003036004000
F15545302170604092551201912
F155454021706040925201912
B1554554227397N07149584WA0071100714003022004000
B1554574227392N07149536WA0071400720003015004000
B1554594227405N07149497WA0071500722003009004000
B1555014227429N07149480WA0071600724003011004000
B1555034227454N07149490WA0071900726003048004000
B1555054227467N07149518WA0071900728003062004000
B1555074227464N07149554WA0071800727003048004000
B1555094227445N07149583WA0071600725003046004000
F1555090217060409201912
B1555114227412N07149590WA0071800725003034004000
B1555134227379N07149567WA0072300728003011004000
F155514021706040925201912
B1555154227363N07149519WA0072300729003023004000
B1555174227371N07149471WA0072600732003043004000
B1555194227396N07149444WA0072900734003039004000
B1555214227424N07149450WA0073100737003060004000
F1555210217060925201912
B1555234227438N07149480WA0073200739003081004000
F155524021706040925201912
B1555254227434N07149518WA0072900738003081004000
B1555274227412N07149550WA0072900736003074004000
B1555294227378N07149565WA0072900737003048004000
B1555314227342N07149550WA0073300738003034005000
B1555334227320N07149505WA0073500740003048005000
B1555354227325N07149454WA0074000744003053004000
B1555374227350N07149423WA0074700751003034004000
F1555370217060925201912
B1555394227377N07149425WA0075100757003036004000
B1555414227391N07149454WA0075200760003067004000
B1555434227382N07149489WA0074800757003079004000
F155543021706040925201912
F1555440217060409201912
B1555454227351N07149507WA0075100757003060004000
B1555474227317N07149490WA0075500759003036005000
F155547021706040925201912
B1555494227301N07149445WA0076100763003043004000
B1555514227309N07149400WA0077000771003057005000
B1555534227331N07149373WA0077400779003048004000
F1555540217060925201912
B1555554227354N07149372WA0077500782003062004000
B1555574227369N07149395WA0077100780003095004000
B1555594227368N07149429WA0077100778003111004000
F155600021706040925201912
B1556014227351N07149461WA0077300779003102004000
B1556034227322N07149479WA0077500781003067004000
B1556054227289N07149468WA0077900784003046005000
B1556074227266N07149431WA0078300788003055004000
B1556094227264N07149386WA0077900787003069004000
B1556114227281N07149350WA0078000786003067004000
B1556134227309N07149336WA0077900786003055004000
B1556154227334N07149350WA0077800785003065004000
B1556174227344N07149385WA0078000786003086004000
B1556194227334N07149423WA0078000788003072004000
F1556200217060409201912
B1556214227305N07149441WA0078200789003046004000
B1556234227270N07149427WA0078500790003036005000
B1556254227247N07149384WA0078500790003036005000
F155625021706040925201912
B1556274227248N07149333WA0078500790003065004000
B1556294227269N07149295WA0078200790003069004000
F1556290217060425201912
B1556314227300N07149294WA0078400789003057005000
F15563102170625201912
B1556334227323N07149324WA0078300790003067005000
F1556330217060925201912
B1556354227326N07149368WA0078400790003064005000
B1556374227306N07149406WA0078800791003074004000
F1556370217060409201912
B1556394227270N07149419WA0079300797003074004000
B1556414227232N07149403WA0079900801003064005000
F155642021706040925201912
B1556434227208N07149357WA0080100806003069005000
B1556454227211N07149306WA0079900806003067004000
B1556474227236N07149274WA0080300808003064004000
F1556470217060425201912
B1556494227266N07149275WA0080600812003065005000
F15564902170625201912
B1556514227283N07149305WA0080700815003088005000
F1556510217060925201912
B1556534227278N07149346WA0080800817003095005000
F155653021706040925201912
F1556540217060409201912
B1556554227251N07149371WA0081300820003062005000
B1556574227215N07149366WA0081800824003034005000
B1556594227185N07149334WA0082000826003015005000
F155659021706040925201912
B1557014227174N07149285WA0082200826003023005000
B1557034227184N07149239WA0082200827003055005000
B1557054227209N07149214WA0082600830003069005000
F1557050217060425201912
B1557074227239N07149215WA0082600830003053005000
F15570802170625201912
B1557094227259N07149242WA0082600829003062005000
F1557090217060925201912
B1557114227260N07149282WA0082600829003088005000
F155712021706040925201912
B1557134227242N07149319WA0082700830003081005000
F1557130217060409201912
B1557154227209N07149340WA0083000835003057005000
F155715021706040925201912
B1557174227171N07149332WA0083700840003034005000
B1557194227144N07149294WA0084100844003020005000
B1557214227140N07149245WA0084300848003029005000
B1557234227157N07149209WA0084300850003067005000
B1557254227185N07149196WA0084000848003102005000
B1557274227211N07149210WA0083800845003112005000
F1557270217060925201912
B1557294227225N07149244WA0083400843003118005000
F155730021706040925201912
B1557314227220N07149286WA0083500842003118005000
B1557334227197N07149323WA0083500843003095005000
F1557330217060409201912
B1557354227161N07149341WA0083600843003081005000
B1557374227121N07149329WA0084000845003064005000
F155737021706040925201912
B1557394227093N07149288WA0084500851003046005000
B1557414227088N07149237WA0085100857003032005000
B1557434227107N07149201WA0085500860003034005000
F1557430217060925201912
B1557454227137N07149192WA0085200860003065005000
B1557474227162N07149211WA0085600862003062005000
B1557494227170N07149249WA0085700866003046005000
F155750021706040925201912
B1557514227159N07149290WA0085800867003053005000
B1557534227130N07149316WA0086000868003062005000
B1557554227092N07149315WA0086600871003051005000
B1557574227062N07149281WA0086700874003041005000
B1557594227053N07149232WA0087300878003050005000
B1558014227067N07149191WA0087600882003039005000
B1558034227093N07149173WA0087900886003048005000
F1558030217060425201912
F155804021706040925201912
B1558054227120N07149180WA0087800886003078005000
F1558060217060925201912
B1558074227136N07149208WA0088100887003062005000
B1558094227134N07149247WA0088200890003034005000
F155809021706040925201912
B1558114227112N07149280WA0088500892003024005000
B1558134227076N07149286WA0088900893003029005000
B1558154227042N07149263WA0089100897003043005000
B1558174227020N07149223WA0089200900003046005000
B1558194227013N07149174WA0089200899003032005000
B1558214227024N07149130WA0089100899003027005000
B1558234227050N07149106WA0089600902003034005000
B1558254227078N07149111WA0089700904003041005000
B1558274227096N07149139WA0089900907003034005000
B1558294227094N07149178WA0089900908003015005000
B1558314227069N07149210WA0089800906003011005000
F1558310217060409201912
B1558334227032N07149217WA0090000906003046005000
B1558354226995N07149196WA0090200908003065005000
F155836021706040925201912
B1558374226969N07149153WA0090500910003050005000
B1558394226963N07149102WA0091100916003043005000
B1558414226974N07149058WA0091400921003058005000
B1558434226998N07149029WA0091500922003088005000
B1558454227028N07149023WA0091100920003076005000
F1558460217060925201912
B1558474227053N07149042WA0091300920003048005000
B1558494227064N07149079WA0091700924003036005000
F155850021706040925201912
B1558514227053N07149118WA0092100927003032005000
F1558520217060409201912
B1558534227022N07149142WA0092300931003027005000
B1558554226985N07149139WA0092500933003027005000
F155856021706040925201912
B1558574226954N07149108WA0092600934003039005000
B1558594226936N07149060WA0092300933003032005000
B1559014226938N07149008WA0092300931003036005000
B1559034226959N07148969WA0092900933003072005000
B1559054226988N07148951WA0093300939003074005000
F1559050217060425201912
F155906021706040925201912
B1559074227019N07148950WA0093400940003048005000
B1559094227043N07148969WA0093900944003051005000
B1559114227056N07149003WA0094000948003051005000
B1559134227055N07149042WA0094100949003044005000
B1559154227039N07149080WA0094500951003041005000
B1559174227012N07149108WA0094700954003025005000
B1559194226975N07149121WA0094700957003009005000
B1559214226935N07149116WA0094700956003016005000
B1559234226901N07149086WA0095400960003046005000
B1559254226878N07149042WA0095400963003048005000
B1559274226867N07148992WA0095400963003044005000
B1559294226873N07148943WA0095500964003055005000
B1559314226893N07148904WA0095800965003057005000
B1559334226921N07148882WA0095700967003046005000
F1559340217060425201912
B1559354226952N07148877WA0095700965003041005000
F155935021706040925201912
F15593602170604092505201912
B1559374226979N07148892WA0096100968003057004000
F155937021706092505201912
B1559394226992N07148927WA0096600973003074004000
F15594002170604092505201912
B1559414226987N07148967WA0096900977003071004000
B1559434226966N07149000WA0097000979003060004000
B1559454226934N07149017WA0097300981003062004000
F155945021706040925201912
B1559474226896N07149018WA0096900980003055004000
F15594802170604092505201912
B1559494226857N07149011WA0096800978003027004000
B1559514226817N07149000WA0096700978003032004000
B1559534226779N07148987WA0096000975003074004000
B1559554226740N07148972WA0095800968003114004000
B1559574226703N07148952WA0095500964003137004000
B1559594226665N07148930WA0094900960003142004000
B1600014226628N07148906WA0094200955003118004000
B1600034226590N07148882WA0093300944003093004000
B1600054226551N07148857WA0092400935003093004000
B1600074226511N07148832WA0091800928003095004000
B1600094226470N07148807WA0091100921003083004000
B1600114226429N07148783WA0090400914003074004000
B1600134226386N07148758WA0089700906003076004000
B1600154226344N07148733WA0089000899003069004000
B1600174226301N07148708WA0088400892003043004000
B1600194226257N07148681WA0087900886003034004000
B1600214226214N07148654WA0087400882003046004000
B1600234226171N07148626WA0087100878003050004000
B1600254226127N07148597WA0086600873003052004000
B1600274226083N07148567WA0085900868003074004000
B1600294226039N07148536WA0085500862003072004000
B1600314225995N07148504WA0085100857003050004000
B1600334225951N07148471WA0084700854003064004000
B1600354225907N07148438WA0084500851003067004000
B1600374225863N07148407WA0084000847003041004000
B1600394225818N07148379WA0083600843003020004000
B1600414225772N07148353WA0083300840003009004000
B1600434225726N07148331WA0083100837003002004000
B1600454225679N07148310WA0083400837003009004000
B1600474225634N07148290WA0083100837003025004000
B1600494225589N07148270WA0083500839003025004000
B1600514225547N07148250WA0083900842003025004000
B1600534225507N07148231WA0084300846003041004000
B1600554225469N07148213WA0084500848003060004000
B1600574225431N07148201WA0084400849003090004000
B1600594225393N07148192WA0084600850003107004000
B1601014225356N07148183WA0084800852003104004000
B1601034225320N07148175WA0085000854003095004000
B1601054225283N07148169WA0085200853003097004000
B1601074225245N07148162WA0084600853003100004000
B1601094225207N07148161WA0084200849003076004000
B1601114225168N07148162WA0084000845003062004000
B1601134225128N07148159WA0083800844003053004000
B1601154225089N07148150WA0083500842003074004000
B1601174225049N07148135WA0083000838003120004000
B1601194225010N07148114WA0083000834003158004000
B1601214224972N07148088WA0082700833003158004000
B1601234224936N07148062WA0082600833003137004000
B1601254224900N07148035WA0082500831003146004000
B1601274224864N07148007WA0082300829003172004000
B1601294224830N07147977WA0082000827003200004000
B1601314224798N07147946WA0081800824003211005000
F1601310217060409250520195112
B1601334224766N07147913WA0081400820003181005000
B1601354224734N07147879WA0081100817003155005000
B1601374224702N07147845WA0080800813003165005000
B1601394224670N07147811WA0080200809003160005000
B1601414224637N07147777WA0079800803003130005000
B1601434224605N07147740WA0079200797003116005000
B1601454224573N07147700WA0079100795003144005000
B1601474224542N07147660WA0079200795003172005000
B1601494224511N07147621WA0079400797003172005000
B1601514224481N07147582WA0079600799003142005000
B1601534224451N07147545WA0079400799003132005000
B1601554224421N07147508WA0079300798003165005000
B1601574224391N07147472WA0079300797003188005000
B1601594224361N07147435WA0079300797003181005000
B1602014224332N07147398WA0079300797003130005000
B1602034224303N07147361WA0079100795003078005000
F16020402170604092520195112
B1602054224280N07147319WA0079300796003090005000
B1602074224275N07147273WA0079700799003111005000
B1602094224288N07147234WA0079200798003111005000
F1602090217060409250520195112
B1602114224313N07147214WA0078800794003137005000
B1602134224342N07147218WA0078100789003170005000
F16021302170609250520195112
B1602154224368N07147242WA0077700784003188005000
F1602150217060409250520195112
B1602174224387N07147277WA0077400781003202005000
B1602194224399N07147317WA0077500780003214005000
B1602214224406N07147360WA0077700782003211005000
B1602234224410N07147403WA0078000786003181005000
B1602254224411N07147446WA0077900785003123005000
B1602274224414N07147488WA0077300781003078005000
B1602294224431N07147520WA0077500780003071005000
B1602314224460N07147524WA0077900783003102005000
B1602334224487N07147498WA0078200785003151005000
B1602354224500N07147453WA0078200784003158005000
B1602374224496N07147402WA0078300784003142005000
B1602394224477N07147358WA0079000789003107005000
B1602414224444N07147335WA0079500795003058005000
B1602434224413N07147353WA0079700800003032005000
B1602454224405N07147394WA0080100801003015005000
B1602474224422N07147422WA0079800803003018005000
B1602494224449N07147414WA0079400798003032005000
B1602514224467N07147376WA0079900797003034005000
B1602534224469N07147327WA0080100801003025005000
B1602554224447N07147284WA0080900806003011005000
B1602574224411N07147271WA0081100811003000005000
B1602594224382N07147297WA0081100812003000005000
B1603014224381N07147340WA0081300812003004005000
B1603034224405N07147365WA0081200813003037005000
B1603054224436N07147353WA0081600814003076005000
B1603074224458N07147317WA0081500814003109005000
B1603094224468N07147267WA0081600813003123005000
B1603114224458N07147213WA0081600813003092005000
B1603134224425N07147178WA0081600812003053005000
B1603154224384N07147181WA0081500812003027005000
B1603174224360N07147223WA0081600812003006005000
B1603194224368N07147273WA0081500813003023005000
B1603214224400N07147297WA0082300819003060005000
F16032102170604092505201912
B1603234224436N07147282WA0083000827003060005000
B1603254224458N07147235WA0083700831003057005000
B1603274224454N07147176WA0084700840003055005000
B1603294224427N07147131WA0085700851003034005000
B1603314224388N07147119WA0085900857003020005000
B1603334224359N07147145WA0086000860003013005000
B1603354224354N07147192WA0086400862003006005000
B1603374224375N07147226WA0086600866003000005000
B1603394224408N07147224WA0087400871003000005000
B1603414224434N07147186WA0087400873003006005000
B1603434224435N07147129WA0088100878003015005000
B1603454224412N07147080WA0088700885003006005000
B1603474224375N07147057WA0088900888003006005000
B1603494224337N07147072WA0088700888003013005000
B1603514224318N07147115WA0088800889003011005000
B1603534224325N07147162WA0089600892003016005000
B1603554224355N07147182WA0090800902003043005000
B1603574224388N07147165WA0092000913003041005000
B1603594224408N07147121WA0092700923003013005000
B1604014224402N07147068WA0093200931003004005000
B1604034224374N07147032WA0093800937003000005000
B1604054224338N07147032WA0094200940003000005000
B1604074224316N07147065WA0094900946003000005000
B1604094224319N07147104WA0095400952003000005000
B1604114224343N07147126WA0095500956003000005000
B1604134224373N07147114WA0095800957003000005000
B1604154224393N07147072WA0095900957003002005000
B1604174224386N07147017WA0096100959003044005000
B1604194224358N07146977WA0097100967003062005000
B1604214224321N07146964WA0097800974003055005000
B1604234224289N07146980WA0098500982003046005000
B1604254224270N07147015WA0098800987003020005000
B1604274224271N07147055WA0098700988003004005000
B1604294224292N07147082WA0099000989003000005000
B1604314224324N07147083WA0099100991003000005000
B1604334224350N07147051WA0099200991003000005000
B1604354224360N07146998WA0099000990003002005000
B1604374224343N07146946WA0099200992003034005000
B1604394224306N07146917WA0100100998003097005000
B1604414224267N07146911WA0100801007003118005000
B1604434224230N07146923WA0101301012003083005000
B1604454224206N07146956WA0101301015003071005000
B1604474224202N07146998WA0101701016003107005000
B1604494224217N07147034WA0101901018003112005000
B1604514224246N07147046WA0102201023003076005000
B1604534224276N07147025WA0102201025003064005000
B1604554224293N07146979WA0102201023003062005000
B1604574224288N07146924WA0102201022003041005000
B1604594224260N07146881WA0102501024003027005000
B1605014224220N07146872WA0102301024003011005000
B1605034224189N07146901WA0102301024003023005000
B1605054224181N07146950WA0103001028003076005000
B1605074224195N07146993WA0104401041003114005000
B1605094224223N07147012WA0105201052003095005000
B1605114224252N07146992WA0105701058003076005000
B1605134224265N07146945WA0105901060003092005000
B1605154224254N07146895WA0106401064003078005000
B1605174224224N07146862WA0106801068003043005000
B1605194224189N07146864WA0107201073003022005000
B1605214224166N07146894WA0107401074003036005000
B1605234224164N07146935WA0107801078003083005000
B1605254224180N07146968WA0108301083003081005000
B1605274224209N07146974WA0108401087003043005000
B1605294224236N07146950WA0108501087003025005000
B1605314224248N07146902WA0107901083003032005000
B1605334224237N07146849WA0107701080003057005000
B1605354224204N07146813WA0108001080003057005000
B1605374224165N07146807WA0108701086003048005000
B1605394224132N07146826WA0109001092003072005000
B1605414224108N07146860WA0109501096003109005000
B1605434224097N07146900WA0109501096003142005000
B1605454224103N07146941WA0109901100003135005000
B1605474224119N07146976WA0110301104003085005000
B1605494224140N07147002WA0110301105003048005000
B1605514224168N07147004WA0110801108003055005000
B1605534224193N07146979WA0110701111003102005000
B1605554224209N07146938WA0110601109003135005000
B1605574224216N07146890WA0110201105003153005000
B1605594224208N07146841WA0110301105003174005000
F1606000217060409250520195112
B1606014224184N07146802WA0110101104003188005000
B1606034224150N07146785WA0110201104003184005000
B1606054224114N07146790WA0110601107003135005000
B1606074224084N07146809WA0110501108003097005000
B1606094224066N07146843WA0110801110003125005000
B1606114224062N07146882WA0110901112003142005000
B1606134224071N07146918WA0110901114003125005000
B1606154224089N07146945WA0111201115003109005000
B1606174224114N07146958WA0111101116003109005000
B1606194224141N07146950WA0110701113003135005000
B1606214224164N07146922WA0110101109003135005000
B1606234224172N07146880WA0109501101003095005000
B1606254224159N07146836WA0108901094003053005000
B1606274224128N07146807WA0108601089003053005000
B1606294224093N07146802WA0108301087003090005000
B1606314224057N07146813WA0107901084003128005000
B1606334224024N07146833WA0107801084003142005000
B1606354223993N07146858WA0108101085003146005000
B1606374223965N07146886WA0108301087003169005000
B1606394223940N07146916WA0108201089003191005000
B1606414223919N07146947WA0108001086003198005000
B1606434223907N07146982WA0108001085003193005000
B1606454223906N07147015WA0107701084003181005000
B1606474223914N07147044WA0107201080003151005000
B1606494223928N07147067WA0106501074003123005000
B1606514223947N07147087WA0105701067003142005000
F16065202170604092505201912
B1606534223969N07147105WA0104801058003160005000
B1606554223993N07147124WA0103801049003149005000
B1606574224020N07147144WA0102501036003146005000
B1606594224050N07147164WA0101401025003142005000
B1607014224083N07147184WA0100501016003137005000
B1607034224118N07147203WA0100001009003135005000
B1607054224153N07147220WA0099601004003107005000
B1607074224189N07147235WA0099201001003086005000
B1607094224225N07147250WA0098900997003078005000
B1607114224261N07147264WA0098200992003074005000
B1607134224297N07147277WA0098100987003071005000
B1607154224333N07147290WA0098600989003067005000
B1607174224365N07147302WA0099700997003079005000
B1607194224395N07147314WA0100001004003118005000
F1607190217060409250520195112
F160720021706040925052046195112
B1607214224422N07147325WA0100001007003162005000
B1607234224448N07147336WA0099201003003188005000
B1607254224475N07147347WA0097900992003186005000
B1607274224507N07147359WA0097200981003177005000
B1607294224541N07147371WA0096500974003186005000
B1607314224576N07147383WA0095800967003198005000
B1607334224613N07147395WA0095300961003198005000
B1607354224651N07147407WA0094900957003167005000
B1607374224690N07147419WA0094600954003121005000
B1607394224730N07147432WA0094800953003086005000
B1607414224769N07147444WA0096000961003060005000
B1607434224806N07147455WA0096800971003043005000
B1607454224841N07147467WA0097600979003029005000
B1607474224875N07147479WA0097900984003022005000
B1607494224909N07147490WA0098200987003039005000
B1607514224942N07147501WA0098500990003050005000
B1607534224974N07147515WA0098300991003041005000
B1607554225004N07147532WA0097900988003025005000
B1607574225033N07147550WA0097700984003053005000
B1607594225061N07147567WA0097300981003118005000
B1608014225089N07147583WA0097200979003139005000
B1608034225117N07147598WA0096900976003132005000
B1608054225145N07147612WA0096500972003134005000
B1608074225173N07147628WA0096000968003156005000
B1608094225201N07147646WA0095400962003177005000
B1608114225228N07147668WA0095300958003158005000
B1608134225254N07147693WA0095500960003114005000
B1608154225278N07147720WA0095600961003088005000
B1608174225301N07147747WA0095300960003102005000
B1608194225323N07147776WA0094900958003135005000
B1608214225345N07147806WA0094600954003163005000
B1608234225366N07147836WA0094000950003160005000
B1608254225387N07147867WA0094100948003135005000
B1608274225408N07147898WA0094500949003135005000
B1608294225428N07147927WA0094900954003118005000
B1608314225448N07147955WA0095300958003074005000
B1608334225467N07147982WA0095200959003048005000
B1608354225485N07148009WA0095000958003064005000
B1608374225502N07148037WA0095100957003109005000
B1608394225519N07148065WA0095800960003135005000
B1608414225533N07148093WA0096100966003128005000
B1608434225547N07148120WA0096100968003123005000
B1608454225561N07148146WA0095900967003132005000
B1608474225575N07148172WA0095800966003142005000
B1608494225590N07148198WA0095900965003151005000
B1608514225605N07148223WA0095900967003160005000
B1608534225620N07148248WA0095900967003142005000
B1608554225634N07148272WA0095800966003114005000
B1608574225646N07148300WA0095700964003114005000
B1608594225657N07148329WA0095300962003116005000
B1609014225667N07148361WA0095300960003114005000
B1609034225677N07148393WA0095300959003109005000
B1609054225686N07148425WA0095400959003111005000
B1609074225695N07148457WA0095500961003121005000
B1609094225704N07148490WA0095100959003121005000
B1609114225713N07148523WA0095200957003104005000
B1609134225722N07148558WA0095500959003079005000
B1609154225732N07148594WA0095700962003058005000
B1609174225741N07148630WA0095700963003039005000
B1609194225750N07148667WA0095900964003024005000
B1609214225759N07148703WA0096500967003015005000
B1609234225767N07148739WA0096600971003004005000
B1609254225774N07148775WA0096700972003002005000
B1609274225779N07148811WA0096500972003020005000
B1609294225776N07148848WA0096200970003043005000
B1609314225770N07148886WA0096000967003052005000
B1609334225767N07148925WA0095800966003069005000
B1609354225769N07148962WA0095400963003083005000
B1609374225778N07148997WA0095300960003092005000
B1609394225789N07149032WA0095100958003109005000
B1609414225799N07149066WA0094800956003123005000
B1609434225810N07149100WA0094700954003130005000
B1609454225820N07149134WA0094800954003132005000
B1609474225830N07149167WA0094800954003137005000
B1609494225842N07149198WA0094600954003140005000
B1609514225854N07149227WA0094100950003140005000
B1609534225867N07149258WA0093600945003137005000
B1609554225881N07149289WA0093000939003130005000
B1609574225896N07149322WA0092200932003125005000
B1609594225911N07149356WA0091600925003121005000
B1610014225927N07149390WA0091100919003118005000
B1610034225943N07149425WA0090600914003114005000
B1610054225960N07149461WA0090200910003100005000
B1610074225976N07149497WA0090100908003081005000
B1610094225993N07149532WA0090100907003069005000
B1610114226011N07149565WA0090200908003055005000
B1610134226030N07149597WA0090000906003055005000
B1610154226048N07149629WA0089700904003071005000
B1610174226065N07149662WA0089600902003074005000
B1610194226082N07149696WA0089100900003062005000
B1610214226098N07149729WA0088600895003060005000
B1610234226113N07149762WA0088500892003067005000
B1610254226128N07149795WA0088200890003065005000
B1610274226142N07149827WA0087600885003065005000
B1610294226157N07149861WA0086600877003072005000
B1610314226172N07149897WA0086100870003090005000
B1610334226188N07149934WA0085700865003099005000
B1610354226204N07149971WA0085300861003090005000
B1610374226218N07150009WA0085100858003081005000
B1610394226231N07150048WA0084700854003072005000
B1610414226244N07150087WA0084300851003060005000
B1610434226257N07150124WA0083700846003050005000
B1610454226271N07150162WA0083500842003060005000
B1610474226285N07150199WA0083100838003081005000
B1610494226299N07150235WA0082700835003093005000
B1610514226313N07150270WA0082700833003088005000
B1610534226327N07150305WA0082400832003072005000
B1610554226342N07150338WA0082200829003065005000
B1610574226357N07150372WA0082100827003065005000
B1610594226372N07150405WA0081700825003074005000
B1611014226388N07150437WA0081500821003086005000
B1611034226404N07150469WA0081100819003097005000
B1611054226421N07150500WA0080800816003109005000
B1611074226439N07150532WA0080500812003116005000
B1611094226457N07150564WA0080200808003111005000
B1611114226475N07150595WA0079900805003095005000
B1611134226494N07150625WA0079400802003097005000
B1611154226512N07150656WA0078900797003109005000
B1611174226531N07150687WA0078500793003107005000
B1611194226550N07150719WA0077700787003097005000
B1611214226569N07150750WA0077200780003081005000
B1611234226590N07150781WA0077000776003062005000
B1611254226611N07150813WA0076700773003055005000
B1611274226632N07150846WA0076600772003074005000
B1611294226654N07150879WA0077200774003083005000
B1611314226676N07150911WA0077800781003055005000
B1611334226697N07150942WA0078500787003034005000
B1611354226716N07150971WA0078400791003020005000
B1611374226736N07150999WA0077700787003013005000
B1611394226755N07151027WA0077300781003022005000
B1611414226775N07151054WA0076800776003025005000
B1611434226794N07151082WA0076400772003022005000
B1611454226814N07151111WA0076300768003020005000
B1611474226835N07151141WA0076300768003013005000
B1611494226856N07151171WA0076700770003013005000
B1611514226876N07151201WA0077200774003020005000
B1611534226896N07151229WA0077900781003018005000
B1611554226916N07151256WA0077900783003009005000
B1611574226942N07151269WA0078500787003000005000
B1611594226970N07151260WA0078800791003013005000
B1612014226994N07151233WA0078500791003053005000
B1612034227009N07151193WA0077800785003088005000
B1612054227011N07151147WA0077300779003107005000
B1612074226999N07151103WA0076900774003104005000
B1612094226975N07151069WA0076000767003083005000
B1612114226944N07151050WA0075500761003067005000
B1612134226911N07151043WA0074500753003051005000
B1612154226877N07151046WA0073900743003032005000
B1612174226845N07151059WA0073900740003039005000
B1612194226814N07151078WA0073900741003062005000
B1612214226784N07151098WA0074000743003079005000
B1612234226754N07151120WA0074500747003072005000
B1612254226727N07151144WA0074600751003046005000
B1612274226704N07151174WA0074700751003020005000
B1612294226696N07151213WA0074700751003016005000
B1612314226710N07151247WA0075300755003039005000
B1612334226739N07151257WA0076000761003057005000
B1612354226766N07151236WA0076100765003050005000
B1612374226779N07151193WA0076700770003032005000
B1612394226772N07151146WA0077300775003022005000
B1612414226749N07151112WA0077700780003013005000
B1612434226719N07151099WA0077800782003006005000
B1612454226691N07151107WA0077700782003013005000
B1612474226673N07151133WA0077800782003009005000
B1612494226670N07151168WA0077600782003023005000
B1612514226684N07151197WA0078000782003046005000
B1612534226708N07151210WA0078300785003043005000
B1612554226735N07151205WA0078500789003043005000
B1612574226757N07151178WA0079000793003029005000
B1612594226768N07151137WA0079500797003006005000
B1613014226766N07151091WA0079500799003000005000
B1613034226749N07151049WA0079300798003000005000
B1613054226718N07151026WA0079300798003000005000
B1613074226687N07151031WA0079200796003007005000
B1613094226668N07151061WA0079100796003034005000
B1613114226666N07151099WA0079500797003057005000
B1613134226681N07151129WA0080100803003069005000
B1613154226703N07151144WA0080500808003062005000
B1613174226730N07151139WA0080700811003041005000
B1613194226752N07151112WA0080900814003020005000
B1613214226761N07151069WA0080900814003011005000
B1613234226754N07151020WA0081200814003018005000
B1613254226732N07150980WA0082000820003018005000
B1613274226703N07150957WA0082500828003011005000
B1613294226675N07150951WA0082800831003022005000
B1613314226650N07150962WA0082700832003034005000
B1613334226633N07150987WA0082600831003051005000
B1613354226626N07151020WA0082500830003057005000
B1613374226630N07151054WA0082600830003039005000
B1613394226645N07151081WA0082700831003022005000
B1613414226668N07151094WA0082800833003018005000
B1613434226696N07151086WA0083100834003013005000
B1613454226721N07151061WA0083100836003023005000
B1613474226739N07151022WA0083200836003037005000
B1613494226743N07150973WA0083500838003046005000
B1613514226732N07150926WA0083700840003048005000
B1613534226706N07150893WA0084000843003031005000
B1613554226675N07150884WA0084200846003020005000
B1613574226649N07150902WA0084100847003029005000
B1613594226638N07150936WA0084000846003043005000
B1614014226642N07150971WA0084200846003065005000
B1614034226658N07150998WA0084600849003076005000
B1614054226682N07151011WA0085200853003053005000
B1614074226709N07151009WA0085200855003043005000
B1614094226735N07150987WA0085200856003060005000
B1614114226753N07150950WA0085300857003072005000
B1614134226758N07150904WA0085300858003067005000
B1614154226750N07150858WA0085100856003069005000
B1614174226729N07150821WA0085300856003088005000
B1614194226701N07150799WA0085600858003088005000
B1614214226671N07150790WA0085400858003060005000
B1614234226643N07150798WA0085700860003046005000
B1614254226622N07150820WA0085500861003046005000
B1614274226614N07150853WA0085300858003050005000
B1614294226621N07150887WA0085000854003074005000
B1614314226642N07150911WA0085400855003079005000
B1614334226670N07150920WA0085300856003069005000
B1614354226699N07150907WA0085800858003074005000
B1614374226722N07150874WA0085800861003074005000
B1614394226735N07150831WA0085500860003076005000
B1614414226735N07150782WA0085100857003095005000
B1614434226720N07150736WA0084900853003111005000
B1614454226697N07150697WA0084900852003104005000
B1614474226669N07150667WA0084800852003081005000
B1614494226638N07150643WA0085000853003064005000
B1614514226605N07150631WA0085100855003067005000
B1614534226572N07150634WA0085100855003074005000
B1614554226544N07150656WA0085300856003055005000
B1614574226529N07150690WA0085600859003029005000
B1614594226530N07150728WA0086000862003018005000
B1615014226548N07150756WA0086700867003022005000
B1615034226576N07150765WA0086900872003050005000
B1615054226604N07150753WA0086900872003081005000
B1615074226630N07150726WA0086500870003100005000
B1615094226649N07150687WA0086400867003100005000
B1615114226660N07150640WA0086100865003081005000
B1615134226659N07150589WA0086200864003079005000
B1615154226645N07150543WA0086300864003090005000
B1615174226621N07150509WA0086500867003090005000
B1615194226590N07150491WA0086800869003086005000
F161520021706040925052019511244
B1615214226558N07150490WA0086900870003062005000
B1615234226530N07150506WA0086800872003039005000
B1615254226513N07150538WA0087100872003036005000
B1615274226512N07150576WA0087400874003032005000
B1615294226529N07150607WA0087500877003038005000
B1615314226557N07150620WA0087700878003050005000
B1615334226588N07150610WA0087700880003050005000
B1615354226614N07150577WA0087600878003062005000
B1615374226628N07150531WA0087800879003083005000
B1615394226630N07150480WA0087900880003090005000
B1615414226619N07150433WA0087900880003088005000
B1615434226597N07150394WA0087900882003071005000
B1615454226567N07150371WA0087800881003048005000
B1615474226534N07150370WA0088000881003046005000
B1615494226506N07150389WA0088400885003062005000
B1615514226485N07150418WA0088900889003067005000
B1615534226474N07150452WA0089600896003046005000
B1615554226473N07150487WA0089600899003027005000
F161555021706040925052046195112
B1615574226483N07150518WA0089700900003018005000
B1615594226503N07150539WA0089800900003022005000
B1616014226531N07150546WA0090000903003027005000
B1616034226561N07150536WA0090000904003020005000
B1616054226587N07150508WA0090400905003034005000
B1616074226604N07150466WA0090500908003055005000
B1616094226610N07150418WA0090500908003048005000
B1616114226606N07150369WA0090600908003041005000
B1616134226589N07150325WA0090700909003036005000
B1616154226563N07150295WA0090900912003029005000
B1616174226532N07150284WA0091400915003036005000
B1616194226504N07150294WA0091600919003034005000
B1616214226482N07150319WA0091800920003034005000
B1616234226472N07150353WA0091700921003036005000
B1616254226477N07150388WA0092000924003029005000
B1616274226496N07150414WA0092500927003020005000
B1616294226524N07150422WA0092600930003006005000
B1616314226554N07150411WA0092800932003004005000
B1616334226579N07150382WA0092900934003023005000
B1616354226593N07150340WA0093000934003032005000
B1616374226592N07150293WA0092800933003043005000
B1616394226575N07150251WA0092900933003062005000
B1616414226549N07150224WA0093300935003060005000
B1616434226517N07150216WA0093600938003043005000
B1616454226488N07150225WA0093600939003020005000
B1616474226466N07150249WA0093700941003022005000
B1616494226456N07150283WA0093700942003041005000
B1616514226460N07150319WA0093700942003046005000
B1616534226476N07150350WA0094000943003039005000
B1616554226501N07150368WA0094400946003027005000
B1616574226531N07150368WA0094400949003024005000
B1616594226560N07150352WA0094300949003027005000
B1617014226586N07150320WA0094200947003041005000
B1617034226603N07150277WA0094200946003069005000
B1617054226612N07150229WA0093900944003086005000
B1617074226613N07150180WA0093700942003095005000
B1617094226609N07150131WA0093200937003104005000
B1617114226600N07150083WA0093000934003109005000
B1617134226586N07150036WA0092900933003112005000
B1617154226569N07149991WA0092800932003116005000
B1617174226549N07149948WA0092300930003116005000
B1617194226526N07149908WA0092300927003112005000
B1617214226497N07149876WA0092100925003112005000
B1617234226465N07149859WA0091900924003107005000
B1617254226434N07149860WA0091500922003095005000
B1617274226408N07149879WA0091200917003093005000
B1617294226392N07149911WA0091100914003102005000
B1617314226385N07149950WA0091200914003102005000
B1617334226387N07149989WA0091600918003074005000
B1617354226391N07150029WA0091600919003041005000
B1617374226395N07150068WA0091700922003036005000
B1617394226400N07150106WA0092100924003036005000
B1617414226406N07150144WA0092400927003025005000
B1617434226411N07150183WA0092700930003022005000
B1617454226414N07150222WA0093100934003018005000
B1617474226416N07150262WA0093200937003006005000
B1617494226421N07150301WA0092700933003002005000
B1617514226440N07150330WA0092200927003009005000
B1617534226472N07150332WA0092300926003029005000
B1617554226500N07150303WA0092700929003041005000
B1617574226513N07150257WA0092400930003036005000
B1617594226510N07150207WA0092100927003039005000
B1618014226492N07150162WA0091900925003041005000
B1618034226463N07150130WA0092000924003027005000
B1618054226430N07150114WA0092100924003027005000
B1618074226395N07150114WA0092400927003050005000
B1618094226362N07150127WA0092700930003050005000
B1618114226334N07150152WA0093100933003027005000
B1618134226312N07150186WA0093400937003011005000
B1618154226304N07150226WA0093500940003006005000
B1618174226313N07150263WA0093500940003032005000
B1618194226332N07150291WA0093200939003067005000
B1618214226353N07150317WA0092800934003079005000
B1618234226373N07150344WA0092500930003079005000
B1618254226390N07150375WA0092400930003090005000
B1618274226405N07150408WA0092600930003104005000
B1618294226419N07150442WA0092900933003097005000
B1618314226433N07150476WA0093300937003067005000
B1618334226444N07150511WA0093700941003034005000
B1618354226455N07150547WA0094200946003013005000
B1618374226465N07150582WA0094500950003000005000
B1618394226479N07150616WA0094500951003000005000
B1618414226500N07150641WA0094600950003004005000
B1618434226531N07150644WA0094900952003022005000
B1618454226559N07150619WA0095500958003041005000
B1618474226574N07150574WA0096000964003044005000
B1618494226573N07150524WA0096100966003034005000
B1618514226557N07150480WA0096000966003046005000
B1618534226531N07150448WA0096200966003072005000
B1618554226501N07150429WA0096200966003090005000
B1618574226469N07150421WA0096500968003074005000
B1618594226437N07150421WA0096700970003039005000
B1619014226406N07150431WA0096800970003015005000
B1619034226384N07150459WA0096600970003013005000
B1619054226377N07150497WA0096200967003030005000
B1619074226390N07150533WA0096100963003039005000
B1619094226420N07150548WA0096000963003048005000
B1619114226452N07150539WA0096600967003050005000
B1619134226478N07150509WA0097000972003046005000
B1619154226492N07150464WA0096800973003060005000
B1619174226491N07150413WA0096600971003088005000
B1619194226476N07150366WA0096600970003102005000
B1619214226450N07150328WA0096900971003085005000
B1619234226418N07150305WA0097100975003048005000
B1619254226384N07150296WA0097900979003020005000
B1619274226351N07150305WA0098300985003006005000
B1619294226326N07150330WA0098800989003000005000
B1619314226315N07150366WA0098800992003000005000
B1619334226323N07150401WA0099000992003002005000
B1619354226349N07150418WA0099000994003030005000
B1619374226380N07150410WA0099400995003036005000
B1619394226403N07150377WA0100101001003034005000
B1619414226410N07150330WA0100501006003032005000
B1619434226400N07150281WA0100701010003018005000
B1619454226378N07150242WA0101201014003004005000
B1619474226346N07150225WA0101501017003000005000
B1619494226316N07150239WA0101601020003000005000
B1619514226302N07150274WA0102001024003011005000
B1619534226308N07150310WA0102501027003013005000
B1619554226331N07150332WA0102801031003002005000
B1619574226362N07150328WA0103001033003000005000
B1619594226386N07150296WA0103101035003000005000
B1620014226391N07150246WA0103201036003009005000
B1620034226374N07150200WA0103701040003015005000
B1620054226343N07150172WA0104201045003004005000
B1620074226310N07150172WA0104501048003000005000
B1620094226286N07150197WA0104801052003000005000
B1620114226278N07150235WA0105201056003002005000
B1620134226287N07150270WA0105601060003000005000
B1620154226309N07150293WA0105601062003000005000
B1620174226339N07150294WA0105801062003000005000
B1620194226367N07150267WA0106101064003000005000
B1620214226379N07150222WA0106201067003020005000
B1620234226376N07150170WA0106101067003043005000
B1620254226358N07150124WA0106601068003036005000
B1620274226329N07150090WA0107001073003013005000
B1620294226294N07150079WA0107401078003000005000
B1620314226263N07150093WA0107701082003000005000
B1620334226245N07150127WA0107701083003000005000
B1620354226248N07150166WA0108201085003018005000
B1620374226269N07150194WA0108801090003037005000
B1620394226299N07150204WA0109201095003025005000
B1620414226330N07150193WA0109501100003006005000
B1620434226356N07150162WA0109801103003002005000
B1620454226369N07150116WA0109601103003025005000
B1620474226366N07150065WA0110001103003041005000
B1620494226350N07150017WA0110201107003023005000
B1620514226324N07149980WA0110601110003006005000
B1620534226292N07149960WA0110801112003011005000
B1620554226258N07149957WA0111101115003009005000
B1620574226226N07149968WA0111001116003000005000
B1620594226205N07150000WA0110801116003016005000
B1621014226201N07150040WA0111101116003055005000
B1621034226211N07150078WA0111601120003083005000
B1621054226230N07150107WA0112201125003083005000
B1621074226256N07150127WA0112701131003058005000
B1621094226286N07150134WA0112601133003027005000
B1621114226316N07150119WA0112801134003018005000
B1621134226336N07150078WA0113001136003034005000
B1621154226339N07150026WA0112901135003064005000
B1621174226328N07149975WA0113301137003079005000
B1621194226308N07149930WA0113601141003060005000
B1621214226279N07149899WA0114001144003032005000
B1621234226246N07149888WA0114001146003020005000
B1621254226215N07149901WA0114001146003009005000
B1621274226194N07149933WA0113901145003020005000
B1621294226187N07149974WA0114301146003052005000
B1621314226195N07150014WA0114801151003074005000
B1621334226211N07150047WA0115601157003067005000
B1621354226231N07150076WA0115501161003036005000
B1621374226259N07150090WA0115601162003018005000
B1621394226287N07150071WA0115801164003006005000
F162139021706040925052019511244
B1621414226299N07150025WA0115801164003009005000
B1621434226288N07149975WA0115701164003034005000
B1621454226263N07149936WA0115801164003060005000
B1621474226230N07149910WA0116201165003050005000
B1621494226194N07149898WA0116301168003018005000
B1621514226160N07149906WA0116301169003004005000
B1621534226137N07149937WA0116701171003016005000
B1621554226133N07149980WA0116801173003041005000
B1621574226146N07150018WA0117201176003052005000
B1621594226172N07150040WA0117701180003053005000
B1622014226204N07150042WA0118101186003041005000
B1622034226232N07150023WA0117901186003018005000
B1622054226245N07149978WA0117401182003025005000
B1622074226231N07149928WA0117701180003053005000
B1622094226200N07149893WA0117801182003048005000
B1622114226163N07149882WA0118301186003032005000
B1622134226130N07149897WA0118601190003027005000
B1622154226111N07149932WA0119201194003034005000
B1622174226110N07149973WA0119501198003050005000
B1622194226124N07150006WA0119901202003060005000
B1622214226147N07150027WA0120101205003058005000
B1622234226175N07150032WA0120501208003036005000
B1622254226202N07150021WA0120901212003022005000
B1622274226224N07149993WA0120701213003032005000
B1622294226235N07149952WA0120901212003050005000
B1622314226235N07149906WA0121001214003057005000
B1622334226222N07149863WA0121101216003055005000
B1622354226198N07149830WA0121301217003060005000
B1622374226169N07149811WA0121901221003055005000
B1622394226138N07149806WA0122301226003039005000
B1622414226109N07149813WA0122601230003018005000
B1622434226084N07149830WA0122701232003002005000
B1622454226064N07149856WA0122401232003016005000
B1622474226053N07149888WA0122201229003034005000
B1622494226051N07149923WA0122001227003053005000
B1622514226059N07149956WA0122101227003074005000
B1622534226074N07149984WA0122201229003074005000
B1622554226095N07150004WA0122301229003069005000
B1622574226119N07150015WA0122301230003074005000
B1622594226145N07150017WA0122401231003072005000
B1623014226171N07150009WA0122801233003065005000
B1623034226194N07149989WA0122501234003076005000
B1623054226213N07149958WA0122501232003095005000
B1623074226228N07149920WA0122401231003088005000
B1623094226237N07149878WA0122301230003069005000
F1623100217060409250520191244
B1623114226239N07149832WA0122201230003065005000
B1623134226235N07149785WA0122501231003069005000
B1623154226226N07149739WA0122401232003069005000
B1623174226213N07149695WA0122301231003069005000
B1623194226196N07149653WA0122101229003078005000
B1623214226173N07149617WA0121901226003093005000
B1623234226144N07149591WA0122001227003102005000
B1623254226111N07149578WA0122401229003076005000
B1623274226078N07149576WA0122401230003041005000
B1623294226046N07149584WA0122501231003022005000
B1623314226019N07149605WA0122201231003022005000
B1623334226003N07149640WA0122301231003039005000
B1623354226004N07149679WA0122501232003062005000
B1623374226021N07149710WA0122701234003093005000
B1623394226048N07149724WA0122901236003109005000
B1623414226078N07149716WA0123301237003112005000
B1623434226102N07149688WA0123101239003104005000
B1623454226114N07149647WA0122901238003100005000
B1623474226112N07149601WA0122301233003104005000
B1623494226099N07149555WA0122501231003109005000
B1623514226078N07149514WA0122301231003100005000
F16235202170604092505201912
B1623534226053N07149477WA0122501232003083005000
B1623554226025N07149445WA0122801235003060005000
B1623574225995N07149418WA0122801236003029005000
B1623594225963N07149400WA0122701235003020005000
B1624014225929N07149397WA0122901236003039005000
F1624020217060409250520511912
B1624034225900N07149409WA0123201238003076005000
B1624054225879N07149435WA0123301239003102005000
B1624074225870N07149467WA0123201239003109005000
B1624094225872N07149501WA0123401241003112005000
B1624114225879N07149533WA0123501242003102005000
B1624134225889N07149564WA0123601242003078005000
B1624154225901N07149594WA0123201242003069005000
B1624174225916N07149624WA0123101240003085005000
B1624194225930N07149657WA0122701237003090005000
B1624214225943N07149691WA0122501234003083005000
B1624234225955N07149727WA0122001231003090005000
B1624254225963N07149766WA0121701226003083005000
B1624274225970N07149806WA0121501224003067005000
B1624294225976N07149848WA0121601223003062005000
B1624314225982N07149888WA0121301223003057005000
B1624334225990N07149928WA0120801219003067005000
B1624354225999N07149968WA0120601216003093005000
B1624374226009N07150007WA0120301214003093005000
B1624394226020N07150046WA0119901210003067005000
B1624414226031N07150086WA0119401205003069005000
B1624434226043N07150126WA0118701200003093005000
B1624454226056N07150167WA0118201194003102005000
B1624474226069N07150207WA0117601188003104005000
B1624494226084N07150247WA0117101182003093005000
B1624514226098N07150288WA0116401176003067005000
B1624534226113N07150328WA0115501168003046005000
B1624554226130N07150369WA0115001161003032005000
B1624574226149N07150408WA0114201155003027005000
B1624594226171N07150446WA0113501148003043005000
B1625014226193N07150485WA0113901146003046005000
B1625034226215N07150521WA0114201149003020005000
B1625054226236N07150556WA0113601148003013005000
B1625074226258N07150591WA0113301144003020005000
B1625094226280N07150627WA0113301141003034005000
B1625114226302N07150664WA0113101140003046005000
B1625134226324N07150701WA0113001139003041005000
B1625154226346N07150737WA0113001139003027005000
B1625174226367N07150773WA0112801138003015005000
B1625194226388N07150809WA0113001138003015005000
B1625214226408N07150845WA0113101139003025005000
B1625234226425N07150883WA0113401141003048005000
B1625254226442N07150920WA0113801143003053005000
B1625274226459N07150956WA0114601150003032005000
B1625294226473N07150990WA0114801156003022005000
B1625314226487N07151023WA0114801157003018005000
B1625334226500N07151057WA0114601155003029005000
B1625354226513N07151092WA0114201151003062005000
B1625374226525N07151129WA0113901148003090005000
B1625394226537N07151167WA0113501145003107005000
B1625414226549N07151206WA0113201141003116005000
B1625434226561N07151244WA0112601137003121005000
B1625454226574N07151283WA0112401133003116005000
B1625474226588N07151321WA0111801129003109005000
B1625494226602N07151360WA0111501124003102005000
B1625514226617N07151398WA0111101121003095005000
B1625534226632N07151437WA0110201114003088005000
B1625554226647N07151478WA0109501106003078005000
B1625574226663N07151522WA0108801100003078005000
B1625594226680N07151567WA0108301093003076005000
B1626014226698N07151613WA0107901089003064005000
B1626034226716N07151660WA0107701087003055005000
B1626054226735N07151707WA0108001088003041005000
B1626074226753N07151752WA0108801093003027005000
B1626094226770N07151794WA0109401100003015005000
B1626114226787N07151835WA0109401103003009005000
B1626134226804N07151874WA0108901100003004005000
B1626154226820N07151914WA0108201094003016005000
B1626174226836N07151954WA0107901089003034005000
B1626194226851N07151995WA0107501085003037005000
B1626214226867N07152035WA0107201082003037005000
B1626234226883N07152076WA0106901078003032005000
B1626254226899N07152116WA0106401074003025005000
B1626274226916N07152157WA0106001071003041005000
B1626294226933N07152197WA0105901068003076005000
B1626314226950N07152237WA0105701067003079005000
F162631021706040925052051194612
B1626334226968N07152277WA0105601065003048005000
B1626354226985N07152316WA0105501064003029005000
B1626374227003N07152355WA0105001060003043005000
B1626394227021N07152394WA0104501056003069005000
F1626390217060409250520511912
B1626414227039N07152434WA0104201052003081005000
B1626434227057N07152473WA0104201050003064005000
B1626454227075N07152513WA0103901049003034005000
B1626474227094N07152551WA0103601046003032005000
B1626494227113N07152590WA0103201043003050005000
B1626514227132N07152630WA0102801038003062005000
B1626534227151N07152670WA0102301034003048005000
B1626554227171N07152711WA0101801029003041005000
B1626574227190N07152752WA0101301025003041005000
B1626594227210N07152793WA0100901020003039005000
B1627014227229N07152834WA0100501015003039005000
B1627034227249N07152877WA0100001011003022005000
B1627054227268N07152919WA0099501007003006005000
B1627074227287N07152962WA0099301003003000005000
B1627094227307N07153005WA0099001000003000005000
B1627114227325N07153047WA0098700997003009005000
B1627134227344N07153090WA0098400994003013005000
F162713021706040925052051194612
B1627154227363N07153132WA0098100991003018005000
B1627174227381N07153175WA0097800987003015005000
B1627194227400N07153217WA0097400984003009005000
B1627214227419N07153259WA0097100981003015005000
B1627234227438N07153301WA0097500981003011005000
B1627254227456N07153341WA0097600984003000005000
B1627274227474N07153380WA0097600984003000005000
B1627294227492N07153418WA0097500983003002005000
B1627314227508N07153457WA0097300981003029005000
B1627334227524N07153496WA0097600982003050005000
B1627354227539N07153534WA0097600984003041005000
B1627374227555N07153572WA0097400983003020005000
B1627394227570N07153610WA0097000979003016005000
B1627414227587N07153648WA0096500976003037005000
B1627434227603N07153686WA0096100971003069005000
B1627454227619N07153725WA0095600967003092005000
B1627474227636N07153765WA0095000962003097005000
B1627494227654N07153805WA0094700956003076005000
B1627514227671N07153846WA0094900955003046005000
B1627534227689N07153885WA0095300960003022005000
B1627554227706N07153922WA0095300963003006005000
B1627574227722N07153959WA0094900960003000005000
B1627594227738N07153996WA0094400956003002005000
B1628014227755N07154034WA0094100951003029005000
B1628034227771N07154071WA0093800948003039005000
B1628054227788N07154107WA0093500945003048005000
B1628074227806N07154144WA0092900941003067005000
B1628094227823N07154181WA0092700936003071005000
B1628114227841N07154218WA0092200933003083005000
B1628134227858N07154256WA0092100930003081005000
B1628154227875N07154294WA0091600927003071005000
B1628174227892N07154332WA0091500924003071005000
B1628194227909N07154371WA0091500922003069005000
F1628190217060409250520194612
B1628214227925N07154409WA0091600923003055005000
B1628234227942N07154446WA0091700925003025005000
B1628254227958N07154482WA0091400924003013005000
B1628274227974N07154519WA0091000921003037005000
B1628294227990N07154557WA0090400915003064005000
B1628314228006N07154597WA0089900910003071005000
B1628334228023N07154637WA0089600906003067005000
B1628354228040N07154677WA0089200901003069005000
B1628374228058N07154718WA0088900899003060005000
B1628394228076N07154758WA0088700897003041005000
B1628414228094N07154797WA0088400894003043005000
B1628434228113N07154836WA0088100891003057005000
B1628454228131N07154875WA0087700888003065005000
B1628474228149N07154913WA0086900881003060005000
B1628494228167N07154953WA0086100872003046005000
F162849021706040925052051194612
B1628514228186N07154993WA0085400865003034005000
B1628534228204N07155034WA0084900858003027005000
B1628554228223N07155075WA0084100853003018005000
B1628574228242N07155117WA0083500844003022005000
B1628594228263N07155158WA0083300840003034005000
B1629014228285N07155198WA0083100839003036005000
B1629034228306N07155238WA0083100839003029005000
B1629054228326N07155278WA0083300839003032005000
B1629074228344N07155317WA0083000839003041005000
B1629094228361N07155356WA0082700836003046005000
B1629114228377N07155396WA0082400832003053005000
B1629134228392N07155438WA0082100829003067005000
B1629154228407N07155480WA0082200829003086005000
B1629174228421N07155522WA0081900829003093005000
B1629194228436N07155565WA0082000826003081005000
B1629214228451N07155607WA0083000831003055005000
B1629234228467N07155647WA0083500841003027005000
B1629254228482N07155685WA0084400847003015005000
B1629274228496N07155722WA0084600853003025005000
B1629294228510N07155758WA0085300858003022005000
B1629314228526N07155793WA0085700862003009005000
B1629334228552N07155812WA0086100866003004005000
B1629354228582N07155799WA0086500870003011005000
B1629374228601N07155761WA0086700875003029005000
B1629394228603N07155713WA0086400873003046005000
B1629414228591N07155669WA0086000868003043005000
B1629434228567N07155637WA0085500862003039005000
B1629454228536N07155619WA0085200859003055005000
B1629474228504N07155614WA0085300858003072005000
B1629494228474N07155621WA0085200859003058005000
B1629514228448N07155640WA0085200859003034005000
B1629534228432N07155670WA0084900858003036005000
B1629554228422N07155705WA0084700854003060005000
B1629574228419N07155743WA0084400852003079005000
B1629594228421N07155780WA0084600852003093005000
B1630014228430N07155817WA0084500852003104005000
B1630034228440N07155852WA0084500850003111005000
B1630054228452N07155889WA0084400851003107005000
B1630074228463N07155927WA0084800853003079005000
B1630094228476N07155965WA0084700854003043005000
B1630114228495N07155999WA0084900854003024005000
B1630134228526N07156009WA0085500859003025005000
B1630154228556N07155986WA0086400866003018005000
B1630174228568N07155939WA0086900873003011005000
B1630194228557N07155895WA0087800880003015005000
B1630214228531N07155872WA0087800885003011005000
B1630234228503N07155876WA0087600884003020005000
B1630254228482N07155899WA0087800883003036005000
B1630274228471N07155932WA0087700883003045005000
B1630294228470N07155968WA0087800884003043005000
B1630314228478N07156003WA0088000886003022005000
B1630334228491N07156037WA0088000887003011005000
B1630354228507N07156072WA0088100888003004005000
B1630374228524N07156107WA0088100888003000005000
B1630394228545N07156139WA0088500890003000005000
B1630414228573N07156159WA0089400895003004005000
B1630434228606N07156153WA0090200903003030005000
B1630454228633N07156124WA0091000912003027005000
B1630474228644N07156076WA0091900922003009005000
B1630494228632N07156027WA0092600929003000005000
B1630514228605N07155996WA0093200937003000005000
B1630534228573N07155996WA0093700942003000005000
B1630554228553N07156022WA0093700944003000005000
B1630574228552N07156059WA0093600942003002005000
B1630594228568N07156088WA0093700943003020005000
B1631014228594N07156101WA0094100945003034005000
B1631034228624N07156091WA0094500949003025005000
B1631054228651N07156062WA0094800953003009005000
B1631074228666N07156017WA0095100956003000005000
B1631094228660N07155966WA0095500959003000005000
B1631114228633N07155927WA0095600962003000005000
B1631134228598N07155911WA0096400966003000005000
B1631154228565N07155920WA0096900972003000005000
B1631174228543N07155949WA0097100976003007005000
B1631194228539N07155986WA0097000976003039005000
B1631214228551N07156017WA0097300977003067005000
B1631234228575N07156034WA0097600980003069005000
B1631254228605N07156035WA0097900983003046005000
B1631274228635N07156023WA0097700983003018005000
B1631294228660N07155990WA0097900983003002005000
B1631314228669N07155939WA0098300986003006005000
B1631334228657N07155888WA0099300994003009005000
B1631354228629N07155852WA0100001003003000005000
B1631374228594N07155840WA0100201007003000005000
B1631394228563N07155853WA0100201008003000005000
B1631414228545N07155884WA0100801010003000005000
B1631434228543N07155922WA0101001015003000005000
B1631454228556N07155953WA0100901016003011005000
B1631474228578N07155974WA0101101016003034005000
B1631494228606N07155984WA0101301018003043005000
B1631514228637N07155986WA0101401020003036005000
B1631534228668N07155981WA0101701022003018005000
B1631554228699N07155963WA0101901025003000005000
B1631574228724N07155930WA0102501028003000005000
B1631594228732N07155881WA0102801033003000005000
B1632014228716N07155835WA0103101037003002005000
B1632034228686N07155811WA0103401039003034005000
B1632054228653N07155814WA0103701041003053005000
B1632074228625N07155836WA0103901043003036005000
B1632094228614N07155873WA0104201046003015005000
B1632114228625N07155906WA0104501049003009005000
B1632134228652N07155918WA0104701051003006005000
B1632154228680N07155901WA0105401056003000005000
B1632174228697N07155861WA0105601060003000005000
B1632194228694N07155813WA0105601061003000005000
B1632214228670N07155777WA0105901062003018005000
B1632234228636N07155762WA0106201065003043005000
B1632254228603N07155770WA0106401069003029005000
B1632274228579N07155798WA0106601071003006005000
B1632294228573N07155836WA0106901073003004005000
B1632314228588N07155870WA0106701074003025005000
B1632334228615N07155887WA0106901074003050005000
B1632354228648N07155879WA0107301077003043005000
F163236021706040925052051191244
B1632374228674N07155848WA0107601079003020005000
B1632394228686N07155800WA0107701081003006005000
B1632414228681N07155748WA0108201085003000005000
B1632434228658N07155705WA0108501089003000005000
B1632454228625N07155683WA0109101094003004005000
B1632474228591N07155684WA0109301098003013005000
B1632494228562N07155704WA0109501100003004005000
B1632514228547N07155740WA0109701102003000005000
B1632534228551N07155778WA0109901104003013005000
B1632554228571N07155807WA0110001105003046005000
B1632574228600N07155820WA0109901105003060005000
B1632594228632N07155815WA0110101105003046005000
B1633014228661N07155790WA0110401106003020005000
B1633034228680N07155746WA0110601109003006005000
B1633054228677N07155692WA0111201114003013005000
B1633074228657N07155646WA0111301118003024005000
B1633094228627N07155614WA0111901119003020005000
B1633114228591N07155598WA0112001123003013005000
B1633134228556N07155602WA0112501128003006005000
B1633154228527N07155624WA0113001133003000005000
B1633174228513N07155660WA0113501138003000005000
B1633194228518N07155700WA0113301140003004005000
B1633214228539N07155731WA0113701142003018005000
B1633234228569N07155743WA0113901144003025005000
B1633254228602N07155733WA0114401147003032005000
B1633274228629N07155701WA0114601151003020005000
B1633294228644N07155655WA0115101154003002005000
B1633314228639N07155604WA0116001160003000005000
B1633334228617N07155563WA0116301166003000005000
B1633354228586N07155543WA0116401169003000005000
B1633374228554N07155549WA0116301169003002005000
B1633394228529N07155575WA0116601171003000005000
B1633414228519N07155612WA0116601172003016005000
B1633434228524N07155649WA0116501173003034005000
B1633454228544N07155677WA0116601172003053005000
B1633474228573N07155690WA0117001174003074005000
B1633494228604N07155686WA0117401179003062005000
B1633514228633N07155666WA0117501180003032005000
B1633534228654N07155627WA0117401179003013005000
B1633554228655N07155576WA0117901182003018005000
B1633574228639N07155529WA0117901185003036005000
B1633594228609N07155499WA0118001186003053005000
B1634014228573N07155492WA0118001187003050005000
B1634034228539N07155503WA0118301188003025005000
B1634054228514N07155532WA0118201189003023005000
B1634074228506N07155572WA0118201189003048005000
B1634094228515N07155612WA0118101188003071005000
B1634114228535N07155643WA0118301188003093005000
B1634134228563N07155664WA0118601191003095005000
B1634154228593N07155675WA0118601192003064005000
B1634174228626N07155674WA0118701193003046005000
B1634194228657N07155657WA0118501192003062005000
B1634214228684N07155628WA0118401190003085005000
B1634234228707N07155591WA0117901186003104005000
B1634254228726N07155546WA0117401181003114005000
B1634274228738N07155495WA0117201178003118005000
B1634294228743N07155439WA0117401178003102005000
B1634314228741N07155383WA0117601181003069005000
B1634334228736N07155328WA0118001184003057005000
B1634354228728N07155275WA0117901185003067005000
B1634374228716N07155224WA0117601184003083005000
B1634394228697N07155180WA0117601183003081005000
B1634414228670N07155150WA0117501181003057005000
B1634434228639N07155137WA0118001182003060005000
B1634454228610N07155141WA0117601183003081005000
B1634474228583N07155156WA0117201179003079005000
B1634494228559N07155181WA0116301173003062005000
B1634514228540N07155213WA0116101167003055005000
B1634534228528N07155250WA0116101165003055005000
B1634554228526N07155290WA0116201165003057005000
B1634574228531N07155331WA0115901166003050005000
B1634594228544N07155369WA0116001166003050005000
B1635014228559N07155405WA0116301167003062005000
B1635034228578N07155438WA0116701171003053005000
B1635054228598N07155469WA0117001175003032005000
B1635074228620N07155499WA0116801176003018005000
B1635094228642N07155527WA0117001176003009005000
B1635114228664N07155554WA0117001176003029005000
B1635134228687N07155580WA0117001176003069005000
B1635154228710N07155606WA0117001178003065005000
B1635174228733N07155631WA0117301178003043005000
B1635194228757N07155656WA0117501181003039005000
B1635214228780N07155680WA0117801183003039005000
B1635234228804N07155703WA0117601183003050005000
B1635254228828N07155729WA0117801183003048005000
B1635274228852N07155756WA0118001186003027005000
B1635294228876N07155784WA0118401189003006005000
B1635314228898N07155814WA0118901192003000005000
B1635334228921N07155844WA0119201197003000005000
B1635354228943N07155873WA0119101199003004005000
B1635374228966N07155903WA0118501195003004005000
B1635394228989N07155932WA0117801188003000005000
B1635414229012N07155962WA0117101181003011005000
B1635434229035N07155992WA0116601175003027005000
B1635454229058N07156023WA0116301171003039005000
B1635474229081N07156055WA0116501169003058005000
B1635494229104N07156087WA0117201173003069005000
B1635514229128N07156118WA0117601178003062005000
B1635534229151N07156148WA0117801183003043005000
B1635554229172N07156178WA0118101186003034005000
F163555021706040925052051194612
B1635574229193N07156209WA0118701190003018005000
B1635594229215N07156238WA0118401193003000005000
B1636014229244N07156255WA0118201191003000005000
B1636034229277N07156256WA0118301189003023005000
B1636054229310N07156243WA0119101193003050005000
B1636074229338N07156214WA0120001201003048005000
B1636094229356N07156173WA0120401208003029005000
B1636114229361N07156124WA0120601211003013005000
B1636134229349N07156077WA0120801213003004005000
B1636154229324N07156042WA0121001216003000005000
B1636174229293N07156021WA0120901217003000005000
B1636194229259N07156013WA0120701215003034005000
B1636214229225N07156015WA0120301210003060005000
B1636234229192N07156022WA0120101208003067005000
B1636254229158N07156035WA0120001206003076005000
B1636274229125N07156052WA0120001207003074005000
B1636294229092N07156072WA0120001207003046005000
B1636314229059N07156091WA0120301208003020005000
B1636334229027N07156112WA0120301212003020005000
B1636354228995N07156132WA0120601213003025005000
B1636374228965N07156152WA0120801215003013005000
B1636394228931N07156163WA0121001216003011005000
F163639021706040925052051191244
B1636414228897N07156151WA0121401220003032005000
F16364202170604092505201912
B1636434228870N07156119WA0121401223003050005000
B1636454228852N07156075WA0121101221003069005000
B1636474228847N07156025WA0120801218003090005000
B1636494228855N07155976WA0120001212003095005000
B1636514228875N07155934WA0119601208003097005000
B1636534228902N07155901WA0119101202003097005000
B1636554228934N07155878WA0118801198003090005000
B1636574228968N07155864WA0118301195003090005000
B1636594229004N07155856WA0118401194003081005000
B1637014229039N07155853WA0118101192003060005000
B1637034229073N07155863WA0118101192003062005000
B1637054229103N07155888WA0118601195003081005000
B1637074229124N07155923WA0119201200003078005000
B1637094229142N07155961WA0118901199003053005000
B1637114229159N07155999WA0119101201003041005000
B1637134229175N07156037WA0119601205003050005000
B1637154229192N07156074WA0120201211003036005000
B1637174229208N07156109WA0119801211003011005000
B1637194229233N07156135WA0120301211003004005000
B1637214229264N07156142WA0120801215003006005000
B1637234229294N07156123WA0121301219003006005000
B1637254229312N07156080WA0122201227003002005000
B1637274229308N07156027WA0122301231003000005000
B1637294229283N07155986WA0122901235003000005000
B1637314229249N07155971WA0123401241003002005000
B1637334229219N07155983WA0123701244003030005000
B1637354229197N07156010WA0123501244003032005000
B1637374229186N07156045WA0123501244003031005000
B1637394229188N07156081WA0123501244003057005000
B1637414229199N07156114WA0123901245003074005000
B1637434229214N07156142WA0124001247003055005000
B1637454229232N07156169WA0124101248003020005000
F1637450217060409250520441912
B1637474229256N07156187WA0123901247003013005000
B1637494229285N07156183WA0124401249003025005000
B1637514229309N07156156WA0124701253003046005000
B1637534229323N07156113WA0124801255003055005000
B1637554229324N07156065WA0125201257003036005000
B1637574229309N07156018WA0125601261003018005000
B1637594229282N07155983WA0125901264003002005000
B1638014229247N07155968WA0126701270003000005000
B1638034229214N07155978WA0126801274003000005000
B1638054229192N07156007WA0126801275003004005000
B1638074229187N07156043WA0126701274003027005000
B1638094229200N07156074WA0126701273003046005000
B1638114229224N07156089WA0126801274003060005000
B1638134229253N07156084WA0127301277003043005000
B1638154229278N07156058WA0126601274003027005000
B1638174229289N07156010WA0126401270003029005000
B1638194229279N07155955WA0126201268003020005000
B1638214229249N07155913WA0126601270003004005000
B1638234229209N07155903WA0127301276003000005000
B1638254229174N07155922WA0127901283003009005000
B1638274229154N07155958WA0128201288003037005000
B1638294229151N07155998WA0128201288003069005000
B1638314229158N07156036WA0128201288003081005000
B1638334229173N07156069WA0128501290003067005000
B1638354229194N07156096WA0128701293003043005000
B1638374229220N07156109WA0129301295003025005000
B1638394229250N07156098WA0129601299003011005000
B1638414229269N07156059WA0130201306003000005000
B1638434229272N07156010WA0130601310003000005000
B1638454229256N07155964WA0131001315003002005000
B1638474229226N07155933WA0131301318003009005000
B1638494229191N07155922WA0131601321003011005000
B1638514229159N07155934WA0131701323003006005000
B1638534229138N07155965WA0131701324003002005000
F163854021706040925052044191251
B1638554229135N07156002WA0132301327003000005000
B1638574229147N07156033WA0132701333003009005000
B1638594229168N07156048WA0133001336003027005000
B1639014229194N07156046WA0133201338003020005000
B1639034229218N07156026WA0133801343003002005000
B1639054229233N07155987WA0133701345003000005000
B1639074229229N07155940WA0133901346003000005000
B1639094229207N07155902WA0134201348003002005000
B1639114229174N07155883WA0134401351003015005000
B1639134229140N07155885WA0134401353003024005000
B1639154229110N07155905WA0134401352003032005000
B1639174229090N07155938WA0134601353003027005000
B1639194229082N07155977WA0135101357003011005000
B1639214229086N07156013WA0135401361003002005000
B1639234229102N07156041WA0135901364003000005000
B1639254229128N07156050WA0136201369003000005000
B1639274229155N07156037WA0136401371003004005000
B1639294229175N07156002WA0136501373003009005000
B1639314229180N07155955WA0136701373003000005000
B1639334229165N07155907WA0136601374003000005000
B1639354229135N07155871WA0136701375003000005000
B1639374229096N07155861WA0137001376003000005000
B1639394229062N07155877WA0137301379003000005000
B1639414229045N07155914WA0137801383003000005000
B1639434229049N07155952WA0137801386003000005000
B1639454229071N07155974WA0138201388003013005000
B1639474229101N07155969WA0138701391003013005000
B1639494229126N07155943WA0138501394003000005000
B1639514229141N07155899WA0138701394003000005000
B1639534229141N07155848WA0139201397003000005000
B1639554229128N07155799WA0139401400003004005000
B1639574229101N07155762WA0139801403003020005000
B1639594229066N07155741WA0139901406003032005000
B1640014229030N07155740WA0139801406003048005000
B1640034228996N07155753WA0140001406003041005000
B1640054228967N07155776WA0140201409003034005000
B1640074228946N07155807WA0140801413003046005000
B1640094228935N07155842WA0141101418003041005000
B1640114228936N07155876WA0141401421003043005000
B1640134228949N07155903WA0141501423003050005000
B1640154228971N07155917WA0141801424003043005000
B1640174228996N07155913WA0141901425003050005000
B1640194229018N07155891WA0141901426003053005000
B1640214229034N07155855WA0142001427003034005000
B1640234229039N07155810WA0141601426003020005000
B1640254229029N07155764WA0141501423003034005000
B1640274229005N07155725WA0141601423003057005000
B1640294228972N07155698WA0141501423003069005000
B1640314228936N07155687WA0141501424003083005000
B1640334228899N07155686WA0142001426003079005000
B1640354228864N07155690WA0142401431003050005000
B1640374228830N07155696WA0142501433003025005000
B1640394228797N07155709WA0142801435003009005000
B1640414228771N07155731WA0142501436003004005000
B1640434228755N07155763WA0142701435003027005000
B1640454228754N07155800WA0142601437003058005000
