ACNI279FLIGHT:1
HFDTE170621
HFFXA005
HFPLTPILOT:Bob Fletcher
HFCM2CREW:
HFGTYGLIDERTYPE:ASG 29
HFGIDGLIDERID:90
HFDTM100GPSDATUM:WGS84
HFRFWFIRMWAREVERSION:1.4
HFRHWHARDWAREVERSION:1.0
HFFTYFRTYPE:ClearNav Instr., ClearNav II
HFGPS:UBLOX,NEO-6G,16Ch,50000 
HFPRSPRESSALTSENSOR:Intersema,MS5540C,20000
HFCIDCOMPETITIONID:90
I033638FXA3941ENL4244GSP
J020810WDI1115WVE
C170621141029000000000103
C0000000N00000000ETAKEOFF
C4225570N07147630WSTERLING    
C4152467N07101000WTaunton Muni
C4138000N07302800WWaterbury   
C4303750N07154320WHawthornFthr
C4225570N07147630WSTERLING    
C0000000N00000000ELANDING
B1421514225407N07147429WA0014700105001000000
B1421524225407N07147429WA0014600105001000000
B1421534225407N07147429WA0014700104001000000
B1421544225407N07147429WA0014700104001000000
B1421544225407N07147429WA0014700104001000000
B1421554225407N07147429WA0014700104001000002
B1421554225407N07147429WA0014700104001000002
B1421564225407N07147430WA0014700104001000006
B1421574225408N07147430WA0014700104001009005
B1421574225408N07147430WA0014700104001019005
B1421584225408N07147431WA0014700104001019005
B1421594225409N07147432WA0014700104001028004
B1421594225409N07147432WA0014700104001028004
B1422004225409N07147432WA0014700104001028003
B1422014225410N07147432WA0014700104001026003
B1422024225410N07147433WA0014700104001019002
B1422034225410N07147433WA0014700104001013002
B1422044225411N07147434WA0014700104001014018
B1422054225415N07147439WA0014700104001034042
B1422054225415N07147439WA0014700104001049042
B1422064225420N07147445WA0014700104001049044
B1422074225425N07147451WA0014600104001064044
B1422074225425N07147451WA0014600104001079044
B1422084225430N07147457WA0014600104001079049
B1422094225437N07147465WA0014600104001107065
LCNI142209EVT:ENDBASELINE
LCNI142204EVT:TAKEOFF
F142210010307081314171921222830
B1422124225461N07147494WA0014600104001148076
B1422164225502N07147543WA0014700105001127097
B1422204225549N07147599WA0014900111001107108
B1422244225598N07147657WA0016000125001085109
B1422284225650N07147712WA0017400138001059111
B1422324225701N07147767WA0018700155001077108
B1422364225752N07147820WA0020800176001063108
B1422404225803N07147873WA0022100189001067109
B1422444225855N07147924WA0024000208001079106
B1422484225906N07147972WA0026000228001057105
B1422524225956N07148022WA0028100251001046102
B1422564226008N07148072WA0029800265001044108
B1423004226058N07148128WA0031400283001047110
B1423004226058N07148128WA0031400283001047110
B1423044226108N07148185WA0032400289001069110
B1423044226108N07148185WA0032400289001069110
B1423084226157N07148241WA0033600306001082106
B1423124226207N07148296WA0035000318001067109
B1423124226207N07148296WA0035000318001067109
B1423164226250N07148361WA0035900324001084108
B1423204226285N07148429WA0037600350001076100
B1423244226319N07148499WA0039500363001054107
B1423244226319N07148499WA0039500363001054107
B1423284226351N07148577WA0040500374001074112
B1423324226384N07148656WA0042200396001064112
B1423364226417N07148736WA0044200414001049114
B1423364226417N07148736WA0044200414001049114
B1423404226447N07148817WA0045900431001040112
B1423444226478N07148897WA0047600452001062110
B1423484226506N07148977WA0049800472001046107
B1423524226534N07149057WA0051800491001039109
B1423564226563N07149136WA0053600510001049109
B1424004226595N07149216WA0055300525001040117
B1424044226626N07149299WA0056100534001061113
B1424084226651N07149380WA0058100558001048104
B1424124226674N07149455WA0060500583001041099
B1424164226697N07149531WA0062700604001038105
B1424164226697N07149531WA0063200604001040105
B1424204226717N07149613WA0064600622001043106
B1424244226733N07149695WA0066500639001045097
B1424284226765N07149744WA0067900648001049078
B1424324226815N07149734WA0067200635001057098
B1424364226853N07149662WA0065800621001069123
B1424364226853N07149662WA0065800621001069123
B1424404226849N07149558WA0064700612001098134
B1424444226807N07149467WA0063700602001080135
B1424484226741N07149404WA0063600609001085131
B1424524226674N07149351WA0064500619001065125
B1424564226615N07149290WA0065300620001059128
B1425004226582N07149194WA0064400612001063133
B1425044226589N07149091WA0064500613001067126
B1425084226639N07149021WA0064600615001088120
B1425124226708N07149012WA0064700616001066116
B1425124226708N07149012WA0064700616001060116
F1425160103071314171921222830
B1425164226754N07149069WA0065700630001059101
B1425204226748N07149148WA0066300634001063104
B1425204226748N07149148WA0066400634001073104
B1425244226700N07149204WA0066600636001060114
B1425284226629N07149205WA0066700635001068125
B1425324226564N07149151WA0066400634001074131
B1425364226519N07149066WA0066800637001079129
B1425364226519N07149066WA0066800637001079129
B1425404226502N07148967WA0066600633001085125
B1425404226502N07148967WA0066600633001088125
B1425444226517N07148870WA0066900638001071121
B1425484226560N07148796WA0067000636001068118
B1425524226626N07148789WA0067000640001059112
B1425524226626N07148789WA0067000640001059112
B1425564226667N07148854WA0067300645001065108
B1426004226638N07148927WA0068400656001057108
B1426004226638N07148927WA0068600656001055108
B1426044226574N07148934WA0068900655001077117
B1426084226523N07148868WA0068800656001070121
B1426084226523N07148868WA0068900656001063121
B1426124226525N07148776WA0069500663001063116
B1426164226577N07148719WA0069700665001072112
F142617010307081314171921222830
B1426204226634N07148747WA0070400675001076103
B1426244226647N07148823WA0070900679001063102
B1426244226647N07148823WA0070900679001063102
B1426284226599N07148872WA0071300680001053109
B1426324226537N07148839WA0071200676001042119
B1426364226515N07148749WA0070900676001066119
B1426404226542N07148665WA0071500686001076112
B1426444226596N07148615WA0072400696001077108
B1426484226656N07148611WA0073200703001068098
B1426524226687N07148673WA0073600706001069099
B1426524226687N07148673WA0073600706001069099
B1426564226660N07148744WA0073900708001063106
B1427004226597N07148761WA0073800705001073117
B1427044226537N07148706WA0073400701001076125
B1427084226519N07148611WA0073400705001073123
B1427124226535N07148516WA0074300717001056119
B1427124226535N07148516WA0074300717001056119
B1427164226579N07148451WA0075100721001070107
B1427164226579N07148451WA0075200721001067107
B1427204226634N07148471WA0075900729001055100
B1427244226635N07148551WA0076300734001068110
B1427244226635N07148550WA0076300734001068110
B1427284226575N07148591WA0076600735001054122
B1427324226513N07148539WA0077400748001059124
B1427364226504N07148445WA0078500757001051117
B1427404226547N07148384WA0079400764001065101
B1427444226601N07148405WA0080000770001054100
B1427444226601N07148405WA0080000770001054100
F14274601030713141719212830
B1427484226611N07148482WA0080500777001070103
B1427524226562N07148533WA0081000781001053114
B1427564226493N07148510WA0081200783001068127
B1428004226448N07148428WA0081900791001054127
B1428044226463N07148338WA0083100802001075112
B1428084226521N07148313WA0083700808001065102
B1428084226521N07148313WA0083800808001059102
B1428124226559N07148370WA0084300814001052102
B1428164226534N07148444WA0085000822001049109
B1428204226469N07148455WA0086000835001044116
B1428244226422N07148386WA0087000842001049119
B1428284226431N07148297WA0087400847001041111
B1428324226483N07148261WA0088400857001048095
B1428364226522N07148306WA0089000861001045093
B1428404226506N07148380WA0089100862001049107
B1428444226443N07148403WA0089600872001045118
F142847010307081314171921222830138
B1428484226386N07148348WA0090500878001039120
B1428484226386N07148348WA0090500878001039120
B1428524226376N07148257WA0091100883001049114
B1428524226376N07148257WA0091100883001049114
B1428564226417N07148194WA0091500888001053102
B1429004226469N07148207WA0092600900001063088
B1429004226469N07148207WA0092600900001063088
B1429044226484N07148273WA0093200905001049092
B1429084226445N07148331WA0093300906001087109
B1429124226379N07148321WA0093600909001080120
B1429124226379N07148321WA0093600909001080120
B1429164226339N07148244WA0094100911001098117
B1429204226351N07148154WA0094200914001087111
B1429244226391N07148092WA0095000922001093099
B1429284226445N07148099WA0095300927001083091
B1429324226451N07148171WA0095700927001087105
B1429324226451N07148171WA0095700927001084105
B1429364226395N07148215WA0095900933001069118
B1429404226331N07148173WA0096600939001076123
B1429404226331N07148173WA0096700939001070123
B1429444226315N07148082WA0097300947001056115
F1429480103070814171921222830138
B1429484226356N07148017WA0098100954001049106
B1429484226356N07148017WA0098100954001049106
B1429524226411N07148032WA0098700962001057094
B1429564226416N07148106WA0099500968001073103
B1430004226362N07148151WA0099800973001054115
B1430044226299N07148113WA0100500978001057123
B1430084226285N07148025WA0101300987001054112
B1430124226331N07147970WA0102300997001066100
B1430164226381N07148000WA0102600998001086097
B1430204226380N07148078WA0103001003001067104
B1430244226325N07148119WA0103301006001066113
B1430284226259N07148087WA0103101002001110127
B1430324226221N07148000WA0103501010001077123
B1430364226228N07147909WA0104901023001077111
B1430364226228N07147909WA0105001023001076111
B1430404226279N07147865WA0105701031001063101
B1430444226330N07147896WA0106201035001048095
B1430484226333N07147972WA0106401038001057104
F1430490107081314171921222830138
B1430524226281N07148023WA0106901044001055117
B1430564226213N07148002WA0107501048001063123
B1431004226176N07147922WA0108101057001050116
B1431004226176N07147922WA0108101057001050116
B1431044226197N07147840WA0109001064001058108
B1431084226253N07147822WA0109901074001085096
B1431084226253N07147822WA0110101074001081096
B1431124226286N07147880WA0110401077001073097
B1431124226286N07147880WA0110401077001073097
B1431164226257N07147950WA0110601080001059111
B1431164226257N07147950WA0110601080001060111
B1431204226190N07147957WA0110801081001096123
B1431244226139N07147888WA0110901084001074123
B1431284226150N07147801WA0111901094001065107
B1431324226203N07147776WA0112901103001072094
B1431364226239N07147827WA0113801112001090090
B1431404226220N07147895WA0114301115001088101
B1431444226161N07147925WA0113901110001095116
B1431484226094N07147890WA0113601108001082125
F143150010307081314171921222830138
B1431524226053N07147808WA0114001115001064121
B1431564226036N07147717WA0114701123001059112
B1432004226058N07147637WA0114901120001092107
B1432044226115N07147620WA0114901122001079100
B1432084226143N07147683WA0115701132001098099
B1432124226105N07147748WA0116401140001098117
B1432164226033N07147739WA0117001144001089131
B1432204225985N07147662WA0117801152001082124
B1432204225985N07147662WA0117901152001074124
B1432244225995N07147570WA0118001152001076114
B1432284226051N07147532WA0118101154001082104
B1432324226098N07147576WA0118901159001093101
B1432364226099N07147657WA0119801172001098104
B1432404226047N07147710WA0120601177001071121
B1432444225976N07147679WA0121101181001082134
B1432484225948N07147585WA0121701188001064122
B1432524225979N07147504WA0121701185001065113
B1432564226040N07147498WA0121901189001087102
B1433004226068N07147565WA0122401195001073104
B1433044226035N07147637WA0123501208001062113
F143306010307081314171921222830
B1433084225965N07147644WA0124001208001082129
B1433124225907N07147572WA0124101211001066134
B1433164225912N07147475WA0124701217001055114
B1433204225965N07147436WA0125101218001060100
B1433244226008N07147480WA0125401225001054094
B1433284225993N07147554WA0126101231001055109
B1433324225925N07147570WA0126801238001079126
B1433364225867N07147500WA0127401245001066135
B1433404225859N07147401WA0128301252001062118
B1433444225908N07147350WA0128801255001080101
B1433484225954N07147388WA0129001259001068096
B1433524225938N07147462WA0129701268001060109
B1433564225870N07147473WA0130501276001074129
B1434004225815N07147396WA0131101280001067135
B1434044225827N07147301WA0131701284001065116
F143407010307081314171921222830138
B1434084225884N07147273WA0132101289001059100
B1434124225922N07147328WA0132401292001071102
B1434164225886N07147396WA0133401305001071117
B1434204225812N07147380WA0134001309001086137
B1434244225770N07147289WA0134801319001062131
B1434284225796N07147205WA0135601322001070107
B1434324225853N07147201WA0135801324001068097
B1434364225878N07147266WA0136501335001082095
B1434404225857N07147339WA0137401343001086105
B1434444225791N07147358WA0137801344001071128
B1434444225791N07147358WA0137701344001074128
B1434484225732N07147288WA0137401340001104140
B1434524225719N07147181WA0137901348001071129
B1434564225748N07147091WA0138401354001057117
B1434564225748N07147091WA0138501354001063117
B1435004225798N07147030WA0139001361001095110
B1435044225848N07146974WA0139801370001071110
B1435084225874N07146889WA0140401377001065121
B1435084225874N07146889WA0140701377001055121
B1435124225852N07146793WA0141001381001070129
B1435164225788N07146739WA0140901375001073130
B1435204225716N07146753WA0140601377001082115
B1435244225675N07146816WA0141001381001090097
B1435284225686N07146887WA0141101380001085092
B1435284225686N07146887WA0141101380001086092
B1435324225734N07146923WA0141201384001071094
B1435364225790N07146931WA0141901392001079093
B1435364225790N07146931WA0141901392001079093
B1435404225845N07146930WA0142601399001057094
B1435444225900N07146896WA0142801399001044112
B1435484225926N07146807WA0143501409001060127
B1435524225889N07146718WA0144501416001085131
B1435564225818N07146698WA0145001422001085117
B1436004225775N07146756WA0146401437001092097
B1436044225786N07146828WA0147001441001070095
F1436060107081314171921222830138
B1436084225839N07146857WA0147401445001076102
B1436124225896N07146819WA0147801449001074118
B1436164225920N07146726WA0148301455001074129
B1436204225887N07146633WA0149301466001066130
B1436244225819N07146606WA0150501478001060114
B1436284225771N07146657WA0151301484001062099
B1436324225783N07146728WA0152001492001056094
B1436324225783N07146728WA0152201492001054094
B1436364225837N07146744WA0152901503001049099
B1436404225886N07146688WA0153201500001071122
B1436444225908N07146590WA0153001501001066133
B1436444225908N07146590WA0153101501001066133
B1436484225881N07146490WA0153701511001068134
B1436484225881N07146490WA0153701511001068134
B1436524225813N07146455WA0154901524001071114
B1436564225767N07146503WA0156101534001076095
B1436564225767N07146503WA0156301534001076095
B1437004225778N07146573WA0156701536001098092
B1437044225834N07146590WA0157701551001072106
B1437044225834N07146590WA0158001551001066106
F1437070103070814171921222830
B1437084225886N07146533WA0158601556001064123
B1437124225892N07146430WA0159001562001058136
B1437124225892N07146430WA0159001562001058136
B1437164225840N07146353WA0160001574001063128
B1437204225773N07146355WA0161101583001071106
B1437244225741N07146420WA0161901593001085092
B1437284225760N07146485WA0162301592001084095
B1437324225820N07146498WA0162601599001064110
B1437324225820N07146498WA0162801599001061110
B1437364225874N07146442WA0163101603001063126
B1437404225889N07146340WA0163701609001058135
B1437444225862N07146237WA0164301618001059135
B1437484225801N07146174WA0165201627001052126
B1437524225733N07146180WA0166001634001062108
B1437564225697N07146245WA0166901644001049096
B1438004225711N07146315WA0167801652001070090
B1438044225760N07146343WA0168601660001070096
B1438084225814N07146302WA0168901660001059119
B1438124225839N07146205WA0168701659001074134
F143816010307081314171921222830
B1438164225817N07146101WA0169201667001066135
B1438204225758N07146032WA0169901672001070130
B1438244225688N07146022WA0170801681001071110
B1438284225643N07146072WA0171601689001066097
B1438324225639N07146149WA0172101695001075096
B1438324225639N07146149WA0172101695001075096
B1438364225679N07146199WA0173101707001076094
B1438404225736N07146185WA0173801709001070110
B1438444225777N07146108WA0173701707001065126
B1438484225771N07146004WA0173801709001070135
B1438524225715N07145929WA0174201714001077130
B1438564225644N07145922WA0174801721001068112
B1439004225596N07145971WA0175301727001061095
B1439044225595N07146040WA0175901732001056086
B1439084225635N07146084WA0176501739001049089
B1439124225689N07146068WA0177001742001048105
B1439164225718N07145986WA0176701735001055125
B1439164225718N07145986WA0176501735001076125
F1439170103070813141721222830
B1439204225697N07145886WA0176401734001096134
B1439244225630N07145840WA0176601736001101126
B1439284225564N07145869WA0176601736001091113
B1439284225564N07145869WA0176601736001081113
B1439324225540N07145944WA0177401753001076092
B1439364225554N07146007WA0179101764001066080
B1439404225602N07146026WA0179101760001057093
B1439404225602N07146026WA0179101760001054093
B1439444225649N07145975WA0178801755001071115
B1439484225659N07145880WA0178401752001087124
B1439524225636N07145779WA0177701740001087139
B1439524225636N07145779WA0177501740001075139
B1439564225604N07145673WA0177301742001093140
B1440004225566N07145568WA0176901736001051150
B1440044225517N07145465WA0176701734001030153
B1440084225459N07145364WA0176201729001058159
B1440124225400N07145263WA0176001729001041161
B1440164225345N07145155WA0176001727001038163
F144018010307081314171921222830138
B1440204225292N07145039WA0174801712001063172
B1440244225243N07144918WA0174601720001044168
B1440284225192N07144805WA0176101737001052159
B1440324225144N07144695WA0177601751001068154
B1440364225091N07144597WA0179401767001054148
B1440404225029N07144512WA0180001768001057148
B1440444224967N07144423WA0178601747001030159
B1440484224898N07144319WA0175601709001028184
B1440484224898N07144319WA0175601709001028184
B1440524224816N07144209WA0173001695001020195
B1440564224731N07144111WA0173501711001042180
B1441004224647N07144026WA0174701720001043172
B1441044224565N07143941WA0174901714001026175
B1441084224476N07143859WA0173801703001014183
B1441084224476N07143859WA0173601703001029183
B1441124224389N07143769WA0173701705001046182
B1441164224306N07143678WA0173801707001025177
B1441164224306N07143678WA0173801707001022177
B1441204224235N07143570WA0173101693001018181
B1441244224170N07143446WA0171301678001018191
F1441260103070814171921222830138
B1441284224106N07143319WA0170801677001014188
B1441324224044N07143191WA0169801662001011191
B1441364223987N07143054WA0168201646001011196
B1441404223934N07142911WA0166901636001049198
B1441444223881N07142771WA0166601635001025192
B1441484223837N07142627WA0165801623001022192
B1441484223837N07142627WA0165801623001022192
B1441524223797N07142481WA0165201621001015193
B1441564223756N07142335WA0165201625001024190
B1441564223756N07142335WA0165301625001019190
B1442004223714N07142196WA0165801631001012183
B1442044223677N07142058WA0165901626001010183
B1442084223639N07141917WA0165001618001012185
B1442124223598N07141779WA0164801618001029181
B1442124223598N07141779WA0164801618001029181
B1442164223557N07141644WA0163701598001018185
B1442204223519N07141503WA0162301591001019182
B1442204223519N07141503WA0162201591001015182
B1442244223490N07141364WA0161901588001011175
B1442284223474N07141225WA0161401581001013172
B1442324223467N07141085WA0160301568001008176
F144236010307081314171921222830138
B1442364223462N07140942WA0159401562001007176
B1442404223456N07140801WA0159101558001009175
B1442444223446N07140656WA0158101547001008182
B1442444223446N07140656WA0157901547001008182
B1442484223432N07140509WA0157201539001008184
B1442524223417N07140362WA0156401532001008182
B1442564223402N07140215WA0155301515001008186
B1443004223380N07140067WA0154001507001048185
B1443044223341N07139933WA0154601523001039169
B1443044223341N07139933WA0155001523001039169
B1443084223295N07139816WA0156001531001019162
B1443124223242N07139705WA0155501517001011167
B1443164223184N07139593WA0154201510001008167
B1443204223128N07139483WA0154001508001006164
B1443204223128N07139483WA0153901508001006164
B1443244223077N07139368WA0153201497001005169
B1443284223026N07139252WA0153001502001006163
B1443324222984N07139136WA0153601510001063154
B1443324222984N07139136WA0153901510001052154
B1443364222948N07139027WA0154701518001035145
B1443364222948N07139027WA0154901518001050145
F1443370103070814171921222830138
B1443404222922N07138918WA0155201523001033139
B1443444222904N07138807WA0155101520001055140
B1443444222904N07138807WA0155101520001041140
B1443484222887N07138697WA0155101522001017140
B1443524222862N07138587WA0155101521001005143
B1443564222829N07138481WA0155301523001051141
B1444004222790N07138377WA0154701509001025148
B1444004222790N07138377WA0154201509001020148
B1444044222752N07138264WA0152801491001011158
B1444044222752N07138264WA0152601491001008158
B1444084222711N07138147WA0152001488001008159
B1444124222668N07138033WA0151901488001014157
B1444164222626N07137918WA0151201475001014163
B1444204222579N07137796WA0149001449001011177
B1444244222529N07137669WA0147501443001008176
B1444284222481N07137550WA0148401463001027157
B1444284222481N07137550WA0149101463001025157
B1444324222438N07137444WA0150201474001040146
B1444364222396N07137339WA0149901462001022151
F144438010307081314171921222830138
B1444404222344N07137233WA0147901438001011163
B1444444222284N07137125WA0146501429001008167
B1444484222228N07137014WA0145701423001006165
B1444524222182N07136894WA0144701410001004170
B1444564222150N07136763WA0143701398001008172
B1445004222165N07136633WA0143201398001009157
B1445044222227N07136555WA0143501402001011130
B1445044222227N07136555WA0143501402001009130
B1445084222298N07136561WA0143101394001010121
B1445124222347N07136635WA0142101382001006128
B1445164222384N07136728WA0140601368001006135
B1445204222421N07136826WA0139801363001003136
B1445244222457N07136925WA0139301358001006137
B1445244222457N07136925WA0139301358001006137
B1445284222493N07137019WA0140201376001051121
B1445324222525N07137099WA0141901391001044109
B1445364222556N07137170WA0143201404001049098
B1445364222556N07137170WA0143201404001049098
B1445404222588N07137239WA0143601400001063103
B1445404222588N07137239WA0143601400001067103
B1445444222620N07137313WA0143201397001058110
F144546010307081314171921222830
B1445484222654N07137396WA0142501384001060124
B1445524222693N07137485WA0141501379001036131
B1445564222734N07137578WA0141301378001046135
B1446004222776N07137673WA0141401381001051136
B1446004222776N07137673WA0141401381001051136
B1446044222819N07137770WA0141301376001062144
B1446084222862N07137866WA0142101394001068132
B1446124222900N07137951WA0144201417001067114
B1446124222900N07137951WA0144201417001067114
B1446164222937N07138025WA0145501423001052109
B1446204222974N07138100WA0145801424001022113
B1446244223009N07138180WA0145901426001029115
B1446244223009N07138180WA0145901426001029115
B1446284223042N07138261WA0146401433001042113
B1446324223077N07138339WA0147001438001050113
B1446324223077N07138339WA0147001438001050113
B1446364223113N07138420WA0147201436001053122
B1446404223150N07138501WA0147901445001061116
B1446444223187N07138584WA0147901443001073119
F144647010307081314171921222830133
B1446484223226N07138667WA0147101430001050125
B1446524223270N07138755WA0145401412001025138
B1446564223308N07138856WA0144401406001047140
B1447004223342N07138960WA0143801400001043141
B1447004223342N07138960WA0143801400001043141
B1447044223375N07139064WA0143101391001021139
B1447084223407N07139171WA0141601374001021146
B1447124223441N07139281WA0140701367001015147
B1447124223441N07139281WA0140701367001015147
B1447164223479N07139389WA0140001361001011147
B1447204223526N07139491WA0139301354001032149
B1447244223584N07139583WA0138601348001041148
B1447284223643N07139673WA0137801338001025148
B1447284223643N07139673WA0137501338001021148
B1447324223700N07139764WA0137001331001014148
B1447364223759N07139857WA0135501313001011154
B1447364223759N07139857WA0135501313001011154
B1447404223817N07139952WA0134901313001017147
B1447444223871N07140043WA0134901312001014142
B1447444223871N07140043WA0134901312001014142
B1447484223927N07140132WA0134201305001010145
B1447484223927N07140132WA0134201305001010145
B1447524223984N07140218WA0133901301001012142
B1447524223984N07140218WA0133901301001012142
B1447564224039N07140307WA0133001290001016144
B1448004224089N07140404WA0131601274001019147
B1448004224089N07140404WA0131601274001019147
B1448044224136N07140501WA0131501286001017135
B1448084224175N07140588WA0133601308001021119
B1448084224175N07140588WA0133601308001021119
B1448124224213N07140669WA0134201307001041120
B1448124224213N07140669WA0134201307001041120
B1448164224261N07140735WA0134701315001052108
B1448164224261N07140735WA0134701315001052108
B1448204224316N07140770WA0135901324001063099
B1448244224372N07140785WA0135801317001025094
B1448284224407N07140843WA0134401298001022103
B1448324224401N07140937WA0131101265001013132
F1448360103071314171921222830133
B1448364224363N07141042WA0128501240001033153
B1448364224363N07141042WA0128501240001033153
B1448404224312N07141143WA0128001248001014147
B1448444224268N07141243WA0128601250001008142
B1448484224236N07141349WA0128101244001036141
B1448484224236N07141349WA0128101244001036141
B1448524224217N07141458WA0127501234001020138
B1448564224208N07141568WA0126501228001016135
B1448564224208N07141568WA0126301228001015135
B1449004224204N07141676WA0125901221001011132
B1449004224204N07141676WA0125901221001011132
B1449044224198N07141785WA0125501219001014139
B1449084224180N07141889WA0126901247001049119
B1449124224166N07141975WA0129801270001062098
B1449124224166N07141975WA0129801270001062098
B1449164224186N07142038WA0131401282001061084
B1449204224238N07142045WA0131701277001075101
B1449244224283N07141980WA0131201274001076121
B1449284224285N07141879WA0131701287001066130
B1449324224245N07141789WA0132601295001052134
B1449364224169N07141761WA0133601309001073130
F144937010307081314171921222830133
B1449404224111N07141814WA0133901304001051114
B1449404224111N07141814WA0133901304001051114
B1449444224108N07141894WA0134001309001057096
B1449484224157N07141927WA0134601313001054099
B1449484224157N07141927WA0134701313001061099
B1449524224211N07141881WA0134601311001069122
B1449564224232N07141786WA0135301325001059126
B1450004224210N07141690WA0136601337001050129
B1450044224143N07141639WA0137301343001054130
B1450084224076N07141668WA0138101353001060111
B1450124224060N07141741WA0139001359001065088
B1450164224100N07141783WA0139001356001061094
B1450164224100N07141783WA0139001356001074094
B1450204224156N07141748WA0138901356001061114
B1450244224188N07141665WA0139601365001046121
B1450244224188N07141665WA0139601365001046121
B1450284224161N07141572WA0140301371001043133
B1450284224161N07141572WA0140501371001057133
B1450324224088N07141540WA0140801372001068128
B1450364224027N07141584WA0141101381001060106
B1450404224024N07141655WA0142301393001048083
B1450444224067N07141683WA0142501389001057092
F1450460103070814171921222830
B1450484224115N07141638WA0142701394001067108
B1450524224121N07141547WA0143301398001059123
B1450564224074N07141466WA0143401397001091133
B1451004223998N07141442WA0143201397001070127
B1451044223929N07141471WA0143701407001065117
B1451084223883N07141532WA0144701415001062098
B1451124223893N07141599WA0144801413001053088
B1451164223946N07141612WA0144601408001070103
B1451204223988N07141543WA0144701410001062122
B1451244223986N07141441WA0145201418001064131
B1451284223949N07141349WA0146201428001049128
B1451324223878N07141319WA0146201435001059128
B1451364223814N07141361WA0146401446001066112
B1451404223802N07141433WA0147201454001068082
B1451444223842N07141465WA0147601453001057088
B1451444223842N07141465WA0147401453001060088
F145147010714171921222830133
B1451484223893N07141427WA0147201446001064115
B1451524223906N07141331WA0147701454001050127
B1451564223876N07141236WA0148501458001062132
B1451564223876N07141236WA0148501458001059132
B1452004223813N07141175WA0148701460001074127
B1452004223813N07141175WA0148701460001074127
B1452044223742N07141139WA0148901459001063129
B1452084223668N07141105WA0148901458001055129
B1452124223595N07141071WA0149101461001049127
B1452164223522N07141037WA0148601450001032134
B1452204223443N07141003WA0147901445001010139
B1452244223363N07140969WA0147701441001004141
B1452284223284N07140921WA0146801431001002149
B1452324223203N07140864WA0145801420001002153
B1452364223116N07140818WA0144501404001022160
B1452404223020N07140796WA0143401395001036163
B1452444222924N07140797WA0142801393001021157
F145248010307081417192122283013138
B1452484222834N07140820WA0142401389001011149
B1452524222753N07140867WA0141801384001009145
B1452564222680N07140928WA0141601383001018140
B1453004222622N07140999WA0142801404001049122
B1453044222576N07141071WA0144201413001055115
B1453044222576N07141071WA0144401413001054115
B1453084222537N07141143WA0145201424001054107
B1453124222503N07141213WA0145801424001064104
B1453164222477N07141293WA0144801409001020109
B1453204222468N07141382WA0143201396001011114
B1453244222469N07141473WA0142401389001020113
B1453284222473N07141566WA0141601380001008117
B1453324222479N07141662WA0141201380001002119
B1453364222494N07141755WA0141301381001014117
B1453404222515N07141846WA0141101377001021119
B1453444222543N07141934WA0141401385001017115
B1453484222569N07142018WA0141801385001034110
B1453524222594N07142100WA0141301374001027113
B1453524222594N07142100WA0140901374001032113
B1453564222616N07142193WA0139701358001017127
B1454004222636N07142290WA0140001375001013116
B1454044222661N07142371WA0142101393001041103
B1454084222680N07142449WA0142801397001063101
B1454124222694N07142528WA0142701392001054102
B1454164222711N07142612WA0142101387001013108
B1454204222722N07142698WA0142101390001005108
B1454244222737N07142779WA0142501394001043101
B1454244222737N07142779WA0142501394001043101
B1454284222763N07142854WA0142201386001023104
B1454324222793N07142932WA0141401378001030110
B1454364222831N07143000WA0141501384001026103
B1454404222875N07143058WA0141501381001028105
B1454444222923N07143111WA0141301381001036103
B1454444222923N07143111WA0141301381001026103
B1454484222974N07143160WA0140901373001045106
B1454524223027N07143211WA0140001364001018108
B1454564223084N07143265WA0137801333001008126
B1455004223148N07143325WA0135901324001004129
B1455044223210N07143382WA0135801326001000122
B1455084223269N07143439WA0135701321001005121
B1455124223328N07143497WA0134801309001002123
B1455164223383N07143565WA0133501297001002126
B1455204223438N07143636WA0132601290001006127
B1455244223496N07143706WA0132001282001007130
B1455284223536N07143795WA0131401273001008134
B1455324223526N07143906WA0130101263001008147
B1455364223488N07144015WA0129101256001018146
B1455404223450N07144118WA0128501247001011141
B1455444223409N07144218WA0127701242001006142
B1455484223360N07144310WA0128101252001028136
B1455524223304N07144384WA0129701270001054126
B1455564223253N07144452WA0130701276001018117
B1456004223225N07144536WA0131101280001039111
B1456004223225N07144536WA0131101280001039111
B1456044223206N07144617WA0132601300001043097
B1456084223211N07144688WA0133701305001035085
B1456124223256N07144719WA0134001304001049096
F1456160103070814171921222830138
B1456164223310N07144673WA0133601298001048126
B1456204223324N07144564WA0133001302001065148
B1456244223281N07144468WA0132501299001083143
B1456244223281N07144468WA0132601299001077143
B1456284223219N07144393WA0133501313001056135
B1456284223219N07144393WA0133801313001056135
B1456324223177N07144304WA0134801323001050131
B1456324223177N07144304WA0135001323001051131
B1456364223192N07144206WA0135101321001061124
B1456404223248N07144158WA0134801316001061104
B1456444223294N07144188WA0134901319001086083
B1456484223299N07144253WA0135201323001066085
B1456524223292N07144316WA0136301337001062073
B1456524223292N07144316WA0136501337001067073
B1456564223272N07144372WA0137101340001049088
B1456564223272N07144372WA0137101340001044088
B1457004223217N07144404WA0136701327001054110
B1457044223162N07144445WA0135401317001098103
B1457084223152N07144521WA0134801311001105098
B1457124223191N07144586WA0134001304001098111
B1457124223191N07144586WA0134001304001098111
B1457164223251N07144634WA0133301299001076119
F145717010307081417192122283013138
B1457204223312N07144671WA0133901312001077104
B1457244223372N07144702WA0134401309001019108
B1457244223372N07144702WA0134301309001019108
B1457284223433N07144742WA0133401296001010117
B1457324223487N07144798WA0133101300001019111
B1457324223487N07144798WA0133301300001025111
B1457364223535N07144855WA0133801308001049104
B1457404223586N07144907WA0134001304001033110
B1457444223643N07144953WA0133901306001082109
B1457444223643N07144953WA0133901306001086109
B1457484223697N07144994WA0134401316001061099
B1457524223746N07145038WA0135301324001059095
B1457564223790N07145080WA0136101328001062087
B1458004223836N07145119WA0135601318001052100
B1458044223899N07145132WA0135501324001045109
B1458084223963N07145113WA0136501337001036110
B1458124224019N07145061WA0137401341001039122
B1458164224038N07144960WA0137201335001052138
B1458164224038N07144960WA0137101335001055138
F1458180103070814171921222830138
B1458204223995N07144868WA0137201338001077131
B1458244223927N07144853WA0137801345001076106
B1458284223885N07144904WA0138101350001078091
B1458324223868N07144970WA0138701361001057083
B1458324223868N07144970WA0139001361001051083
B1458364223876N07145031WA0139901370001069079
B1458404223925N07145055WA0139701359001094102
B1458444223974N07144993WA0138801353001095130
B1458484223970N07144884WA0138101348001105141
B1458524223912N07144812WA0138001350001099126
B1458564223845N07144813WA0139001366001070104
B1459004223786N07144831WA0140301376001051102
B1459044223723N07144803WA0140401370001056123
B1459084223683N07144716WA0139701363001046133
B1459124223689N07144612WA0139801370001071126
B1459164223730N07144536WA0140401374001075109
F1459190103070814171921222830
B1459204223786N07144520WA0140401371001052089
B1459244223828N07144560WA0139901362001054091
B1459284223869N07144618WA0139201360001055101
B1459324223907N07144673WA0140101375001044087
B1459364223940N07144725WA0140601370001050087
B1459364223940N07144725WA0140601370001050087
B1459404223977N07144783WA0139301354001019100
B1459444224018N07144851WA0137501332001008117
B1459484224063N07144930WA0135601315001006127
B1459524224113N07145010WA0134201302001003133
B1459564224166N07145093WA0133101296001004134
B1500004224219N07145175WA0132901294001005133
B1500044224270N07145256WA0132801293001004132
B1500084224321N07145339WA0132601291001003132
B1500124224363N07145428WA0132001280001002133
B1500164224396N07145529WA0130901270001003136
B1500164224396N07145529WA0130901270001003136
B1500204224429N07145628WA0130201265001004133
B1500244224460N07145727WA0129601261001005132
B1500284224484N07145825WA0129901268001011123
B1500324224504N07145920WA0130101264001006122
B1500364224523N07146018WA0129201253001004125
B1500404224540N07146115WA0128301244001002124
B1500444224559N07146214WA0127001228001006127
B1500484224585N07146314WA0124901206001017134
B1500524224617N07146414WA0123301194001017134
B1500564224655N07146511WA0122101184001008133
B1501004224693N07146606WA0121101169001004136
B1501044224729N07146707WA0119701156001008140
B1501084224770N07146804WA0118901153001002136
B1501084224770N07146804WA0118801153001002136
B1501124224810N07146898WA0118701152001005132
B1501164224856N07146983WA0119401169001011124
B1501164224856N07146983WA0119901169001010124
B1501204224900N07147054WA0121901192001047105
B1501244224910N07147129WA0123401209001046094
F15012601030714171921222830
B1501284224871N07147183WA0123901208001046104
B1501324224803N07147179WA0123501205001058121
B1501324224803N07147179WA0123401205001079121
B1501364224745N07147117WA0123201207001087126
B1501404224703N07147035WA0124201220001062117
B1501404224703N07147035WA0124601220001063117
B1501444224707N07146946WA0125101221001068119
B1501484224766N07146897WA0124801220001068114
B1501524224821N07146927WA0125701233001066092
B1501564224834N07146995WA0126601241001052089
B1501564224834N07146995WA0126701241001062089
B1502004224809N07147058WA0127401249001048098
B1502044224750N07147076WA0127701249001058111
B1502044224750N07147076WA0127701249001058111
B1502044224750N07147076WA0127701249001058111
B1502084224695N07147027WA0127901252001064113
B1502124224683N07146940WA0128101254001074111
B1502124224683N07146940WA0128301254001066111
B1502164224723N07146875WA0128601259001084104
B1502204224780N07146878WA0129101261001085095
B1502204224780N07146878WA0129101261001085095
B1502244224817N07146932WA0129301271001066089
F1502270103070814171921222830
B1502284224831N07146997WA0130401279001052085
B1502284224831N07146997WA0130501279001047085
B1502324224800N07147056WA0130801279001039100
B1502364224736N07147062WA0130601277001071116
B1502404224680N07147004WA0130301273001066122
B1502444224675N07146911WA0130301276001065116
B1502444224675N07146911WA0130301276001061116
B1502484224717N07146843WA0130701279001065108
B1502524224778N07146821WA0130501278001062106
B1502564224832N07146851WA0131201290001056093
B1503004224854N07146913WA0131601289001067091
B1503044224825N07146977WA0131901289001051102
B1503084224760N07146984WA0132001287001052121
B1503124224703N07146920WA0132101289001056127
B1503164224669N07146830WA0132201295001068121
B1503204224655N07146739WA0133001302001060113
B1503244224684N07146657WA0132701292001096118
B1503284224745N07146624WA0132301293001115105
B1503324224786N07146667WA0132901302001082085
B1503324224786N07146667WA0133101302001074085
B1503364224769N07146732WA0133501304001082097
B1503404224706N07146750WA0133501305001062120
B1503444224653N07146687WA0134101311001052124
B1503484224658N07146591WA0134001307001052122
B1503484224658N07146591WA0134001307001060122
B1503524224715N07146542WA0133901308001095109
F150356010307081417192122283013138
B1503564224777N07146552WA0134001310001075102
B1504004224813N07146606WA0134701320001054090
B1504044224791N07146673WA0134901317001065105
B1504044224791N07146673WA0134901317001065105
B1504084224725N07146682WA0134701315001093124
B1504084224725N07146682WA0134701315001093124
B1504124224673N07146612WA0134901319001076127
B1504124224673N07146612WA0135101319001065127
B1504164224684N07146520WA0135701327001061112
B1504204224736N07146477WA0136201330001070099
B1504204224736N07146477WA0136201330001071099
B1504244224790N07146482WA0136701342001055084
B1504244224790N07146482WA0136701342001055084
B1504284224837N07146495WA0137501345001052076
B1504324224885N07146517WA0136701324001078096
B1504364224935N07146562WA0135601326001051097
B1504404224975N07146609WA0136601341001057083
B1504404224975N07146609WA0137101341001049083
B1504444225012N07146650WA0137901353001051075
B1504484225043N07146693WA0138801357001049075
B1504524225070N07146743WA0139301362001044076
B1504564225106N07146781WA0139901364001059078
F1504570103070814171921222830138
B1505004225142N07146825WA0139401354001053087
B1505004225142N07146825WA0139401354001053087
B1505044225186N07146869WA0138701352001057094
B1505084225236N07146906WA0138401350001028098
B1505124225291N07146938WA0138701356001032100
B1505124225291N07146938WA0138701356001032100
B1505164225344N07146970WA0139501366001050093
B1505204225387N07147013WA0140301374001045085
B1505244225424N07147061WA0140601371001060089
B1505244225424N07147061WA0140601371001060089
B1505284225462N07147116WA0140201365001070095
B1505324225503N07147171WA0139701363001043096
B1505364225541N07147224WA0140201375001054083
B1505404225569N07147273WA0141301382001025073
B1505444225604N07147318WA0140701364001074092
B1505484225663N07147341WA0139101351001049112
B1505524225728N07147342WA0138801351001087103
B1505564225779N07147386WA0138301347001068101
F1505580103070814171921222830133
B1506004225817N07147447WA0138101346001107098
B1506044225856N07147512WA0137101331001063108
B1506044225856N07147512WA0136901331001048108
B1506084225893N07147585WA0136401329001021108
B1506124225926N07147661WA0136201326001006110
B1506124225926N07147661WA0136201326001006110
B1506164225938N07147750WA0135901324001012115
B1506204225948N07147841WA0135601321001006112
B1506244225958N07147928WA0135601319001002109
B1506244225958N07147928WA0135601319001002109
B1506284225936N07148014WA0134601306001020119
B1506324225892N07148096WA0133201289001027132
B1506364225830N07148169WA0131401276001012140
B1506364225830N07148169WA0131401276001012140
B1506404225768N07148246WA0130701271001008140
B1506444225709N07148322WA0130501272001002133
B1506484225653N07148396WA0130501271001041130
B1506484225653N07148396WA0130501271001041130
B1506524225593N07148463WA0130701277001035126
B1506564225537N07148519WA0132001293001054111
F1506590103070814171921222830
B1507004225484N07148573WA0132301286001021112
B1507044225436N07148641WA0131301274001003120
B1507084225392N07148714WA0131101277001000113
B1507124225354N07148787WA0130801270001031111
B1507164225318N07148869WA0129201249001079125
B1507204225286N07148967WA0127301232001063136
B1507284225239N07149179WA0125801221001014136
B1507324225222N07149285WA0125301219001030129
B1507364225209N07149384WA0125101215001011121
B1507364225209N07149384WA0125101215001011121
B1507404225197N07149479WA0124401204001003121
B1507444225181N07149576WA0123101190001002123
B1507484225164N07149673WA0121801177001006124
B1507524225146N07149771WA0120601165001003124
B1507564225134N07149867WA0119901162001002116
B1508004225127N07149958WA0119601160001002110
B1508044225119N07150045WA0119201152001058108
F15080601030714171921222830
B1508084225110N07150136WA0118001140001042117
B1508124225100N07150229WA0117801146001032116
B1508164225095N07150319WA0118701157001065108
B1508204225091N07150404WA0119701168001072101
B1508244225083N07150480WA0121001182001071088
B1508244225083N07150480WA0121001182001071088
B1508284225095N07150542WA0121801184001068080
B1508324225143N07150559WA0121501178001108098
B1508364225190N07150502WA0120801167001115117
B1508404225187N07150400WA0119701158001092137
B1508444225131N07150316WA0118901152001077139
B1508444225131N07150316WA0118801152001089139
B1508484225062N07150258WA0119301165001090129
B1508524224994N07150215WA0120601175001079124
B1508524224994N07150215WA0120601175001079124
B1508564224927N07150177WA0121601185001065118
B1509004224883N07150103WA0122201189001048123
B1509044224889N07150007WA0122801200001045120
B1509044224889N07150007WA0122801200001045120
F1509070103070814171921222830
B1509084224940N07149952WA0124301216001059104
B1509124224992N07149976WA0125401225001073092
B1509164224999N07150045WA0126001228001057092
B1509164224999N07150045WA0126001228001053092
B1509204224951N07150093WA0126401235001077112
B1509244224882N07150092WA0126601235001071119
B1509284224816N07150053WA0126801237001072124
B1509324224765N07149977WA0126801238001050129
B1509364224736N07149880WA0127501251001068128
B1509404224733N07149782WA0129301271001060119
B1509444224781N07149725WA0130301280001036102
B1509484224826N07149756WA0131601294001032086
B1509524224811N07149822WA0132901305001057097
B1509564224752N07149841WA0134201321001065111
B1510004224691N07149792WA0135501333001060126
B1510004224691N07149792WA0135501333001060126
B1510044224671N07149696WA0137001349001039126
B1510084224708N07149618WA0138501362001023109
B1510124224762N07149621WA0139701375001035085
B1510164224766N07149684WA0141001384001036091
B1510204224713N07149720WA0141801394001044112
B1510244224657N07149668WA0143501413001045119
B1510284224650N07149577WA0145201430001028113
B1510324224692N07149516WA0146301437001067098
B1510324224692N07149516WA0146501437001074098
B1510364224739N07149531WA0147301450001043077
B1510404224734N07149592WA0148201454001043092
B1510444224678N07149622WA0148501461001054111
F1510460103060814171921222830
B1510484224623N07149570WA0150201479001055120
B1510524224614N07149476WA0151701493001041116
B1510564224656N07149416WA0152901503001060095
B1511004224700N07149433WA0153701513001058076
B1511044224698N07149494WA0154301516001056089
B1511044224698N07149494WA0154401516001062089
B1511084224646N07149529WA0154601518001056108
B1511124224581N07149513WA0155801539001068113
B1511164224527N07149454WA0157701556001039123
B1511204224518N07149356WA0158901565001017124
B1511244224566N07149293WA0159901575001039104
B1511284224609N07149319WA0161201589001034078
B1511324224595N07149381WA0162101597001036096
B1511324224595N07149381WA0162401597001041096
B1511364224534N07149395WA0163401614001054116
B1511404224486N07149324WA0165201628001046127
B1511444224496N07149227WA0166201636001060120
F1511470103070814171921222830
B1511484224549N07149187WA0167301648001047089
B1511524224579N07149229WA0168501656001049079
B1511564224551N07149289WA0168601659001042105
B1512004224485N07149301WA0169601675001047120
B1512044224421N07149253WA0171401693001031128
B1512084224401N07149155WA0172801704001022128
B1512124224443N07149088WA0174201717001044097
B1512164224486N07149106WA0175201725001050076
B1512204224477N07149167WA0175701730001038098
B1512244224414N07149196WA0176301741001043121
B1512284224341N07149175WA0178001759001029130
B1512324224297N07149090WA0179501769001029133
B1512364224322N07149002WA0180401778001023107
B1512404224373N07148994WA0181301788001044078
B1512444224387N07149050WA0181901791001041088
F151248010306070814171921222830
B1512484224337N07149098WA0182101796001054117
B1512524224265N07149089WA0183601816001073127
B1512564224213N07149014WA0184701819001049135
B1513004224219N07148915WA0185101823001052112
B1513044224266N07148885WA0186701835001053076
B1513084224297N07148922WA0187101834001052078
B1513124224280N07148988WA0187401842001068100
B1513164224219N07149011WA0188701859001059118
B1513204224157N07148959WA0190001867001077132
B1513244224136N07148860WA0190301864001049126
B1513284224167N07148781WA0190101864001054101
B1513324224215N07148773WA0190301867001071075
B1513364224233N07148825WA0190601868001073084
B1513404224200N07148889WA0190601872001064108
B1513444224141N07148930WA0191701885001067114
B1513484224071N07148924WA0192501892001068129
F1513490103070814171921222830
B1513524224018N07148847WA0193001893001063131
B1513564224016N07148750WA0193101896001076112
B1514004224054N07148692WA0192701888001100090
B1514004224054N07148692WA0192501888001112090
B1514044224104N07148679WA0192201887001102084
B1514044224104N07148679WA0192301887001093084
B1514084224153N07148671WA0192801896001073084
B1514124224204N07148649WA0192701890001067093
B1514164224261N07148634WA0192101883001062100
B1514204224325N07148622WA0190601865001031119
B1514244224402N07148608WA0189001853001011134
B1514284224481N07148589WA0188401852001030135
B1514324224559N07148569WA0188301850001050133
B1514364224639N07148552WA0187801844001055134
B1514404224718N07148537WA0187401840001017134
B1514404224718N07148537WA0187401840001017134
B1514444224798N07148521WA0186701832001039137
B1514484224880N07148503WA0185701821001021141
F151450010306070814171921222830
B1514524224963N07148482WA0185101816001011141
B1514564225046N07148462WA0184401811001007141
B1515004225130N07148439WA0183701802001007143
B1515044225215N07148417WA0182801791001005147
B1515044225215N07148417WA0182501791001006147
B1515084225302N07148397WA0181701781001007148
B1515124225390N07148380WA0180901772001002150
B1515164225478N07148366WA0180101764001011149
B1515204225566N07148354WA0179601763001012143
B1515244225651N07148342WA0178801749001010143
B1515284225738N07148327WA0177001731001019149
B1515324225826N07148298WA0176001725001023151
B1515364225912N07148262WA0175901729001011146
B1515404225997N07148235WA0175901727001005147
B1515444226085N07148225WA0175801727001026144
B1515484226169N07148234WA0175601725001025140
B1515524226251N07148257WA0175401721001012138
B1515564226331N07148287WA0174501710001006140
B1516004226413N07148320WA0173401697001004144
B1516044226496N07148355WA0172201687001004149
B1516084226582N07148385WA0171701684001006147
B1516124226668N07148417WA0171301682001004148
B1516164226751N07148448WA0171301679001019143
B1516204226834N07148480WA0170501671001008142
B1516244226915N07148507WA0170201668001005139
F1516260103060814171921222830
B1516284226997N07148534WA0169401660001002142
B1516324227079N07148562WA0168901658001016138
B1516364227157N07148590WA0168901655001019133
B1516364227157N07148590WA0168901655001019133
B1516404227235N07148614WA0167801641001017134
B1516444227314N07148637WA0166601628001022138
B1516484227396N07148665WA0165601620001024142
B1516524227477N07148694WA0165101619001010141
B1516564227560N07148719WA0164801613001005144
B1517004227645N07148745WA0164301611001012145
B1517044227730N07148768WA0163901606001022144
B1517084227813N07148791WA0163601603001011141
B1517124227897N07148814WA0163201599001008143
B1517164227978N07148840WA0163501605001004138
B1517204228057N07148862WA0164301617001067131
B1517244228130N07148880WA0166601643001062113
B1517244228130N07148880WA0166601643001062113
F151727010306070814171921222830
B1517284228190N07148893WA0169001668001059092
B1517324228244N07148905WA0169501656001025097
B1517364228310N07148924WA0167501634001008121
B1517404228384N07148940WA0165901620001000127
B1517404228384N07148940WA0165301620001000127
B1517444228461N07148962WA0164301605001000134
B1517484228538N07148988WA0163401600001057131
B1517524228613N07149011WA0163401603001026127
B1517564228687N07149031WA0163501601001031125
B1518004228762N07149050WA0162901592001028129
B1518044228838N07149068WA0161901583001013131
B1518084228916N07149086WA0160701571001005133
B1518124228994N07149106WA0159901564001004130
B1518164229069N07149124WA0159701566001002125
B1518164229069N07149124WA0159701566001002125
B1518204229144N07149138WA0159601564001001125
B1518244229218N07149150WA0159201556001008127
F1518280103060814171921222830
B1518284229295N07149161WA0158301547001003132
B1518284229295N07149161WA0158201547001003132
B1518324229373N07149170WA0158201550001004127
B1518364229449N07149185WA0158001545001005129
B1518404229526N07149200WA0157201538001014131
B1518444229603N07149216WA0156701533001005131
B1518484229680N07149235WA0156801536001003129
B1518484229680N07149235WA0156801536001003129
B1518524229755N07149251WA0157301544001040124
B1518564229827N07149265WA0157901548001038119
B1519004229897N07149282WA0157701541001018121
B1519044229971N07149297WA0156901533001005128
B1519084230046N07149313WA0157101540001002123
B1519124230119N07149328WA0156601526001006125
B1519164230196N07149347WA0155001513001002133
B1519204230275N07149369WA0153901502001001137
B1519244230356N07149392WA0153001493001000139
B1519244230356N07149392WA0153001493001000139
B1519284230438N07149417WA0152401489001003141
B1519324230520N07149444WA0152101487001002141
B1519364230601N07149467WA0152001485001003138
B1519404230684N07149488WA0151301475001001142
B1519444230768N07149508WA0150401469001000142
F151946010306070814171921222830
B1519484230852N07149526WA0149901463001001142
B1519524230937N07149545WA0149001450001000147
B1519564231024N07149565WA0148301448001008146
B1520004231110N07149585WA0147901444001016144
B1520044231195N07149608WA0147301435001007145
B1520084231281N07149634WA0146401430001017147
B1520124231361N07149661WA0147301447001047127
B1520164231430N07149680WA0148701458001032113
B1520204231499N07149700WA0148001439001012122
B1520244231575N07149725WA0146001421001003135
B1520284231657N07149746WA0144901414001000138
B1520324231737N07149766WA0144701412001000135
B1520324231737N07149766WA0144501412001000135
B1520364231817N07149790WA0143801399001000139
B1520404231900N07149821WA0142601389001000145
B1520444231983N07149849WA0142101388001023138
F1520470103060714171921222830
B1520484232059N07149873WA0142701394001009125
B1520524232134N07149897WA0141801375001003133
B1520564232215N07149919WA0139601356001002140
B1521004232299N07149941WA0138201341001003145
B1521044232385N07149958WA0137001330001006144
B1521044232385N07149958WA0136701330001006144
B1521084232472N07149966WA0135601313001008147
B1521124232562N07149949WA0133601292001008157
B1521164232655N07149911WA0131501272001032163
B1521204232747N07149871WA0130201264001017161
B1521244232837N07149829WA0129801264001008157
B1521244232837N07149829WA0129801264001008157
B1521284232926N07149787WA0129401259001012156
B1521284232926N07149787WA0129301259001011156
B1521324233012N07149739WA0129201259001011155
B1521364233095N07149686WA0129801276001022147
B1521404233165N07149630WA0132301305001040131
B1521444233227N07149572WA0134401315001048118
F15214801030614171921222830
B1521484233291N07149551WA0134601310001019107
B1521524233354N07149564WA0133701300001003108
B1521524233354N07149564WA0133501300001023108
B1521564233422N07149572WA0132701287001079122
B1522004233493N07149524WA0131401274001049145
B1522044233555N07149434WA0130201263001036154
B1522084233610N07149345WA0130801282001019136
B1522124233653N07149253WA0131501278001003136
B1522124233653N07149253WA0131501278001003136
B1522164233657N07149138WA0130401259001000153
B1522164233657N07149138WA0130001259001000153
B1522204233605N07149035WA0128901251001001155
B1522204233605N07149035WA0128701251001001155
B1522244233529N07148967WA0128601250001030149
B1522284233452N07148913WA0128801255001059142
B1522324233378N07148858WA0128901252001028144
B1522364233296N07148815WA0127901239001040149
B1522364233296N07148815WA0127901239001040149
B1522404233211N07148789WA0128001250001014139
B1522444233131N07148776WA0128801256001020133
B1522444233131N07148776WA0129001256001024133
B1522484233053N07148763WA0129201257001020130
B1522484233053N07148763WA0129201257001020130
B1522524232974N07148745WA0129001250001005138
B1522524232974N07148745WA0128901250001002138
B1522564232894N07148721WA0129401263001025129
B1523004232820N07148719WA0130701273001047122
B1523044232752N07148678WA0131601287001047134
B1523084232728N07148576WA0132601299001046132
B1523124232764N07148493WA0133201302001052117
B1523124232764N07148493WA0133201302001052117
B1523164232823N07148485WA0133701309001068092
B1523204232848N07148541WA0134001311001075085
B1523244232823N07148601WA0134601320001064091
B1523244232823N07148601WA0134601320001064091
F1523260103061417192122242830
B1523284232772N07148636WA0135201326001064103
B1523324232709N07148625WA0136301340001065116
B1523364232669N07148542WA0137101343001086131
B1523404232691N07148448WA0137701351001063118
B1523404232691N07148448WA0137901351001059118
B1523444232749N07148422WA0138401354001060095
B1523484232784N07148471WA0138601359001066088
B1523524232770N07148538WA0139401369001045095
B1523564232711N07148560WA0140201378001047114
B1524004232654N07148505WA0141201388001069126
B1524004232654N07148505WA0141201388001069126
B1524044232639N07148404WA0141701391001046130
B1524084232676N07148318WA0142301397001060116
B1524124232735N07148297WA0143001401001065095
B1524164232775N07148338WA0143401409001074083
B1524204232782N07148401WA0144301419001058079
B1524244232761N07148456WA0145301427001066075
B1524244232761N07148456WA0145301427001066075
F152427010306141719212224283013138
B1524284232754N07148515WA0145701429001089075
B1524324232768N07148573WA0146201436001072078
B1524364232792N07148627WA0147001445001049077
B1524404232817N07148680WA0147801453001040077
B1524444232850N07148723WA0148801461001046082
B1524484232905N07148721WA0148901457001054106
B1524484232905N07148721WA0148901457001054106
B1524524232951N07148652WA0148401453001051125
B1524524232951N07148652WA0148401453001044125
B1524564232944N07148558WA0148801462001055115
B1525004232890N07148506WA0149101463001077112
B1525004232890N07148506WA0149101463001077112
B1525004232890N07148506WA0149001463001072112
B1525044232828N07148519WA0149001470001055098
B1525084232782N07148559WA0150201479001045089
B1525084232782N07148559WA0150301479001046089
B1525124232755N07148618WA0150601481001056085
B1525164232762N07148685WA0150801482001073085
B1525204232799N07148727WA0151201485001066085
B1525244232854N07148715WA0151401485001085104
F15252801030614171921242830138
B1525284232897N07148644WA0151301483001065122
B1525324232896N07148545WA0151201480001082128
B1525364232846N07148465WA0150501469001106133
B1525404232775N07148447WA0150801476001072112
B1525404232775N07148447WA0150801476001072112
B1525444232729N07148498WA0151901486001071096
B1525484232718N07148575WA0152001481001055101
B1525484232718N07148575WA0152001481001055101
B1525524232721N07148655WA0152101488001063096
B1525564232732N07148730WA0152901498001070091
B1526004232740N07148799WA0154001509001072085
B1526004232740N07148799WA0154001509001072085
B1526044232744N07148867WA0154901518001052081
B1526044232744N07148867WA0154901518001052081
B1526084232746N07148931WA0155601520001040080
B1526124232746N07148997WA0155401515001029084
B1526164232747N07149069WA0154701505001051096
B1526204232751N07149154WA0153901501001073109
B1526244232756N07149242WA0153601498001057109
B1526244232756N07149242WA0153601498001057109
B1526284232760N07149331WA0153101491001014110
F152629010306141719212224283013138
B1526324232765N07149420WA0152901491001005109
B1526364232769N07149506WA0153301499001044103
B1526364232769N07149506WA0153301499001044103
B1526404232769N07149588WA0153601496001042103
B1526444232762N07149673WA0153401497001090106
B1526484232749N07149755WA0154301513001048099
B1526484232749N07149755WA0154301513001048099
B1526524232740N07149828WA0156201538001049084
B1526564232729N07149891WA0158301549001042079
B1527004232696N07149948WA0158101540001037096
B1527004232696N07149948WA0158101540001037096
B1527044232675N07150014WA0157801537001067087
B1527084232708N07150064WA0157101529001059091
B1527124232764N07150066WA0156401527001075096
B1527164232819N07150053WA0157001540001055088
B1527164232819N07150053WA0157301540001057088
B1527204232868N07150048WA0158101550001056081
B1527244232918N07150027WA0157801537001023103
B1527244232918N07150027WA0157801537001023103
B1527284232951N07149940WA0156401521001052140
F1527300103061417192122242830
B1527324232933N07149827WA0156301534001067144
B1527324232933N07149827WA0156601534001062144
B1527364232890N07149729WA0157801554001055132
B1527364232890N07149729WA0158101554001055132
B1527404232861N07149636WA0159701567001061126
B1527444232883N07149541WA0160201575001059123
B1527444232883N07149541WA0160401575001052123
B1527484232942N07149501WA0161501588001046104
B1527484232942N07149501WA0161501588001046104
B1527524232987N07149542WA0162401595001064093
B1527564232976N07149618WA0162701594001070108
B1528004232914N07149655WA0162801598001073122
B1528044232843N07149626WA0163601611001059129
B1528084232802N07149539WA0164801620001073130
B1528124232815N07149441WA0165901630001062121
B1528164232871N07149398WA0167101645001047101
B1528204232916N07149437WA0168301653001052091
B1528204232916N07149437WA0168501653001052091
B1528244232906N07149510WA0168501653001062105
B1528284232844N07149537WA0169001659001061121
F1528310103061417192122242830138
B1528324232789N07149471WA0169701667001047131
B1528364232792N07149370WA0170101669001047124
B1528404232848N07149326WA0170901679001056100
B1528404232848N07149326WA0170901679001056100
B1528444232888N07149366WA0171901690001044082
B1528484232877N07149435WA0171801681001053103
B1528524232816N07149468WA0171301681001093121
B1528564232747N07149428WA0171601686001097130
B1529004232709N07149335WA0172601699001062132
B1529044232706N07149233WA0173601710001077122
B1529084232753N07149172WA0174701719001096103
B1529124232803N07149197WA0175601725001081090
B1529164232798N07149267WA0176101727001058099
B1529204232739N07149299WA0175901725001068118
B1529244232669N07149263WA0175801728001077130
B1529284232612N07149191WA0176701737001063132
F15293201030614171921222830138
B1529324232607N07149090WA0177301743001063122
B1529364232656N07149035WA0177901747001060104
B1529404232705N07149060WA0178601756001050088
B1529404232705N07149060WA0178701756001048088
B1529444232701N07149129WA0179101759001043098
B1529484232642N07149159WA0179201760001052120
B1529484232642N07149159WA0179301760001051120
B1529524232575N07149113WA0180001771001059132
B1529564232544N07149014WA0180201773001054134
B1530004232567N07148921WA0180801780001057114
B1530044232622N07148886WA0181401784001061095
B1530044232622N07148886WA0181401784001080095
B1530084232664N07148924WA0181901786001074087
B1530124232664N07148994WA0182201787001074092
B1530164232622N07149048WA0182201785001068109
B1530204232552N07149041WA0182501793001060125
B1530244232489N07148987WA0183401804001047124
B1530244232489N07148987WA0183401804001047124
B1530284232448N07148905WA0184301810001039124
B1530324232443N07148807WA0184401809001030121
F1530360103061417192122242830138
B1530364232470N07148722WA0184401811001030109
B1530364232470N07148722WA0184401811001030109
B1530404232512N07148659WA0184501811001057102
B1530444232563N07148613WA0184201807001051104
B1530484232618N07148568WA0183901804001073109
B1530524232678N07148535WA0183501799001032111
B1530564232745N07148506WA0182301784001017120
B1531004232818N07148490WA0180601765001020129
B1531044232897N07148481WA0178901751001007134
B1531084232978N07148474WA0177901742001007136
B1531124233059N07148473WA0177701746001003132
B1531164233136N07148476WA0178501757001028125
B1531204233210N07148477WA0179001758001012125
B1531244233287N07148479WA0178401748001003131
B1531284233366N07148482WA0178001748001002131
B1531324233440N07148496WA0178701759001032117
B1531364233503N07148524WA0179501763001042110
B1531404233563N07148560WA0179601765001031107
B1531444233619N07148595WA0180201772001005100
B1531484233671N07148624WA0181101782001000090
B1531524233722N07148656WA0181001774001031099
B1531564233778N07148689WA0180601775001036101
B1532004233832N07148720WA0181001779001052096
B1532044233881N07148764WA0180701770001016102
B1532084233934N07148809WA0180201769001008104
B1532124233988N07148854WA0179801762001050108
B1532164234043N07148906WA0178901751001018117
B1532204234100N07148965WA0177901743001003122
B1532244234164N07149015WA0177201734001001126
B1532244234164N07149015WA0177101734001001126
B1532284234239N07149050WA0175701720001000134
B1532324234316N07149081WA0174501708001001136
B1532364234396N07149113WA0173501696001000140
B1532404234477N07149144WA0172601693001000139
B1532444234555N07149176WA0172601695001001135
F1532460103061417192122242830
B1532484234632N07149207WA0172701694001000131
B1532524234706N07149239WA0172101683001000132
B1532564234782N07149270WA0171101674001000132
B1533004234857N07149302WA0170201665001002132
B1533044234934N07149332WA0169401657001000132
B1533084235011N07149360WA0168401647001001134
B1533124235087N07149389WA0167901646001009129
B1533164235160N07149415WA0168101649001044122
B1533204235231N07149437WA0168101645001015122
B1533244235305N07149458WA0167301637001008130
B1533284235379N07149477WA0167401642001009124
B1533324235450N07149496WA0167901651001028115
B1533364235518N07149516WA0168201644001035118
B1533404235588N07149544WA0166901631001012126
B1533404235588N07149544WA0166701631001009126
B1533444235662N07149573WA0166101626001005128
B1533484235735N07149600WA0166201631001001125
B1533524235807N07149624WA0166901640001028121
B1533564235874N07149641WA0168001653001043108
B1533564235874N07149641WA0168301653001049108
B1534004235931N07149671WA0169101663001045098
B1534044235981N07149710WA0169501660001026096
B1534084236029N07149757WA0169001654001002100
B1534084236029N07149757WA0169001654001002100
B1534124236069N07149819WA0168501649001000104
B1534164236106N07149886WA0168201647001000101
B1534204236152N07149936WA0168001645001000099
B1534204236152N07149936WA0167901645001000099
B1534244236212N07149962WA0167001628001001110
B1534284236277N07149930WA0165701607001025135
B1534324236313N07149826WA0163901599001014145
B1534364236330N07149713WA0163601602001008139
B1534404236354N07149606WA0163401595001036139
B1534444236396N07149515WA0163501609001052123
B1534484236435N07149439WA0165201625001053105
B1534524236482N07149390WA0166001630001050097
B1534564236529N07149346WA0166801639001034095
B1535004236571N07149295WA0167501644001035095
B1535044236609N07149236WA0167501642001070097
B1535084236650N07149173WA0166301617001024109
B1535124236700N07149103WA0163501590001028128
B1535164236757N07149024WA0161301572001038140
B1535204236818N07148945WA0160001563001014142
B1535244236881N07148870WA0159401560001003137
B1535284236947N07148804WA0158501544001000140
B1535324237013N07148734WA0157301536001000138
B1535364237073N07148654WA0156101523001014143
B1535404237129N07148561WA0154801509001005148
B1535444237185N07148473WA0154101509001000138
B1535484237240N07148393WA0154101506001000132
B1535524237295N07148316WA0153701499001073132
B1535564237344N07148230WA0152301481001048136
B1536004237395N07148139WA0150401461001030143
B1536044237443N07148043WA0149301459001026141
B1536084237492N07147959WA0150001468001051124
B1536124237558N07147933WA0150801475001060110
B1536164237620N07147951WA0150701468001067106
B1536204237675N07147997WA0149101447001073110
B1536244237732N07148051WA0146901425001039125
B1536284237795N07148107WA0145901429001034118
B1536324237853N07148150WA0147701452001033104
B1536364237903N07148196WA0149301465001047099
B1536404237948N07148236WA0151601488001026083
B1536444238003N07148229WA0151501481001038110
F15364601030614171921222830
B1536484238036N07148142WA0151501491002040133
B1536524238005N07148048WA0152901502001037127
B1536564237939N07148025WA0153401506001053109
B1537004237897N07148073WA0154601521001040084
B1537044237908N07148129WA0155801529001040075
B1537084237958N07148135WA0155901529001067095
B1537084237958N07148135WA0155901529001080095
B1537124238001N07148076WA0156301535001065117
B1537164237998N07147979WA0157101542001042124
B1537204237948N07147906WA0157201541001078125
B1537244237880N07147896WA0157401544001075107
B1537284237831N07147939WA0158401560001048090
B1537324237815N07148002WA0159601568001042084
B1537364237846N07148054WA0160201574001083090
B1537404237901N07148044WA0160801580001064105
B1537444237931N07147963WA0161201582001054127
B1537484237905N07147864WA0161601586001044133
B1537524237839N07147813WA0161801589001058123
F1537560103061417192122242830
B1537564237771N07147821WA0161901588001094108
B1538004237724N07147875WA0162301595001102101
B1538044237700N07147945WA0163501613001062089
B1538084237710N07148008WA0164701618001078083
B1538084237710N07148008WA0164801618001078083
B1538124237761N07148016WA0164901620001056100
B1538124237761N07148016WA0164901620001056100
B1538164237796N07147945WA0165501629001044114
B1538204237788N07147851WA0165901629001085121
B1538244237744N07147771WA0165801630001073125
B1538244237744N07147771WA0165801630001073125
B1538284237677N07147732WA0166301637001088122
B1538324237607N07147728WA0167501655001093112
B1538364237550N07147757WA0169001663001051096
B1538404237534N07147822WA0169101658001052084
B1538444237573N07147859WA0169001661001064090
B1538484237620N07147815WA0169601670001074109
B1538524237624N07147723WA0170401679001067122
B1538564237572N07147653WA0171401691001063126
B1539004237502N07147638WA0172801702001052114
B1539004237502N07147638WA0173001702001059114
B1539044237453N07147683WA0173201702001052092
B1539044237453N07147683WA0173201702001052092
F15390601030614171921222428
B1539084237457N07147744WA0173201701001079077
B1539124237504N07147755WA0173301703001072092
B1539164237546N07147699WA0173701709001071107
B1539204237558N07147611WA0174401720001058114
B1539244237537N07147523WA0175801733001040121
B1539284237475N07147472WA0176601739001078125
B1539284237475N07147472WA0176601739001078125
B1539324237411N07147495WA0178101755001038097
B1539364237400N07147556WA0179101756001043075
B1539404237439N07147588WA0178501746001077090
B1539444237489N07147548WA0178401753002070103
B1539484237506N07147466WA0179601765001059114
B1539484237506N07147466WA0179601765001059114
B1539524237477N07147375WA0180101767001061128
B1539564237415N07147322WA0181201783001052122
B1540004237356N07147353WA0182501797001019097
B1540044237354N07147418WA0183501801001034081
B1540044237354N07147418WA0183501801001048081
F15400701031417192122242830
B1540084237399N07147445WA0183501802001057091
B1540084237399N07147445WA0183501802001057091
B1540124237446N07147405WA0184301814001066101
B1540164237453N07147319WA0185001814001068120
B1540204237415N07147229WA0184901819001070130
B1540204237415N07147229WA0185201819001069130
B1540244237353N07147170WA0186301839001038122
B1540284237287N07147169WA0187501843001049109
B1540324237251N07147230WA0187901846001039091
B1540364237270N07147290WA0188201850001061082
B1540404237320N07147294WA0188901857001072093
B1540444237359N07147235WA0189401864001063106
B1540484237372N07147145WA0190001868001063121
B1540484237372N07147145WA0190001868001063121
B1540524237340N07147053WA0190301873001052129
B1540564237277N07147006WA0191501887001055118
B1541004237217N07147032WA0192101890001060100
B1541044237203N07147099WA0192501893001066084
F1541080103061417192122242830
B1541084237237N07147143WA0193001899001045084
B1541124237287N07147119WA0193401902001048103
B1541164237304N07147033WA0193601904001066122
B1541204237270N07146940WA0194201914001057129
B1541244237210N07146887WA0195101921001054116
B1541244237210N07146887WA0195201921001054116
B1541284237149N07146905WA0195601922001076100
B1541324237127N07146968WA0195801926001093080
B1541364237144N07147022WA0196301934001094071
B1541404237185N07147043WA0196801936001077075
B1541444237229N07147018WA0196901934001073093
B1541484237255N07146939WA0196101921001102126
B1541484237255N07146939WA0196101921001102126
B1541524237235N07146836WA0195601926001074130
B1541564237178N07146778WA0196801939001056114
B1542004237116N07146784WA0197001930001057106
B1542004237116N07146784WA0197001930001057106
B1542044237090N07146853WA0196301927001085092
B1542084237117N07146908WA0196801935001082082
B1542124237164N07146926WA0197201939001077082
B1542164237214N07146935WA0197001931001079089
B1542204237273N07146928WA0195401908001105108
B1542244237342N07146908WA0192901885001084127
B1542284237420N07146883WA0191201873001035138
B1542324237501N07146857WA0190301868001013140
B1542364237581N07146832WA0190201872001006134
B1542404237659N07146809WA0190401872001001132
B1542444237738N07146784WA0189801863001000138
B1542444237738N07146784WA0189801863001000138
B1542484237820N07146758WA0189201860001000141
B1542524237899N07146726WA0189901876001033134
B1542564237968N07146686WA0191901898001054117
B1543004238031N07146664WA0193901919001048099
B1543044238086N07146662WA0196001939001044086
B1543084238136N07146663WA0197401946001062083
B1543124238188N07146667WA0197301938001056091
B1543164238248N07146676WA0195101910001020111
B1543204238318N07146687WA0193101893001001122
B1543244238393N07146698WA0191401876001000127
B1543284238469N07146716WA0190101864001001132
B1543324238547N07146738WA0189601866001001131
B1543364238622N07146760WA0190201875001026125
B1543404238694N07146781WA0190801877001027124
B1543444238768N07146808WA0190701877001024129
B1543484238842N07146833WA0191401884001055126
B1543484238842N07146833WA0191401884001053126
B1543524238913N07146864WA0191501883001058125
B1543564238984N07146896WA0191701888001054124
B1544004239055N07146920WA0192201892001046121
B1544044239127N07146944WA0192001883001074126
B1544084239203N07146968WA0191201879001025131
B1544124239278N07146993WA0191401885001010128
B1544124239278N07146993WA0191401885001010128
B1544164239352N07147021WA0192101891001000127
B1544204239426N07147048WA0192101888001036130
B1544244239504N07147072WA0191701883001041134
B1544284239583N07147091WA0191601884001038133
B1544324239663N07147112WA0190501863001016140
B1544364239748N07147134WA0188601848001011146
B1544364239748N07147134WA0188601848001011146
B1544404239834N07147149WA0187801842001006146
B1544444239920N07147167WA0187101835001002145
B1544484240006N07147187WA0186601832001005143
B1544524240090N07147203WA0186301828001001142
B1544564240176N07147215WA0185601821001008143
B1545004240261N07147225WA0185201819001005142
B1545044240347N07147234WA0184901815001004143
B1545044240347N07147234WA0184801815001004143
B1545084240433N07147240WA0184301809001002144
B1545084240433N07147240WA0184301809001003144
B1545124240519N07147244WA0183901806001002144
B1545164240606N07147245WA0183401798001001146
B1545204240695N07147243WA0182501790001002149
B1545244240784N07147242WA0181901784001002149
B1545284240874N07147236WA0180901773001003154
B1545324240969N07147230WA0179901764001009159
B1545364241063N07147225WA0179601764001019154
B1545404241156N07147224WA0179001756001016157
B1545444241250N07147227WA0178601753001012154
B1545484241339N07147223WA0178901760001052145
B1545524241421N07147215WA0180001772001039132
B1545564241501N07147202WA0179401755001017140
B1546004241585N07147184WA0178301748001008140
B1546044241669N07147168WA0177401738001003143
B1546084241755N07147155WA0176301726001002147
B1546084241755N07147155WA0176001726001012147
F1546090103061417192122242830
B1546124241844N07147142WA0175701724001028152
B1546164241929N07147119WA0177201747001058138
B1546204242003N07147094WA0179501777001053118
B1546244242068N07147077WA0181501789001055105
B1546284242134N07147060WA0180601762001028122
B1546324242212N07147040WA0178201744001023137
B1546364242293N07147018WA0176901733001007141
B1546404242377N07146993WA0175501717001002147
B1546444242467N07146967WA0173701699001005154
B1546484242556N07146938WA0172401689001002151
B1546524242642N07146910WA0172201691001004144
B1546564242726N07146880WA0171701681001002148
B1547004242813N07146850WA0171301683001001150
B1547044242898N07146819WA0172301702001021139
B1547084242972N07146790WA0174801726001035123
B1547124243038N07146758WA0176401737001053113
B1547164243105N07146729WA0175701717001050126
B1547164243105N07146729WA0175201717001053126
B1547204243184N07146701WA0173601698001025141
B1547244243267N07146677WA0172301687001028141
B1547284243351N07146649WA0171201677001012145
B1547324243434N07146618WA0170401672001003143
B1547324243434N07146618WA0170301672001002143
B1547364243516N07146584WA0169901667001000143
B1547404243598N07146546WA0169301663001004143
B1547444243679N07146509WA0169001657001001143
B1547484243761N07146475WA0168101648001000143
B1547524243844N07146441WA0167401643001000144
B1547564243925N07146404WA0167601648001018138
B1548004244001N07146362WA0167801647001003138
B1548044244078N07146322WA0168001652001041133
B1548084244153N07146285WA0167801642001015136
B1548124244230N07146249WA0166901637001003135
B1548164244307N07146212WA0166101627001001137
B1548204244384N07146175WA0166101634001023132
B1548244244456N07146142WA0166901644001010125
B1548284244528N07146107WA0167001639001000129
B1548324244603N07146073WA0166001625001001136
B1548324244603N07146073WA0166001625001001136
B1548364244680N07146038WA0165201620001000135
B1548404244758N07146007WA0164901618001014134
B1548444244834N07145975WA0164401612001023134
B1548484244912N07145944WA0163601601001004137
B1548524244992N07145914WA0162701594001000139
B1548564245072N07145882WA0162001588001000140
B1549004245153N07145850WA0161301579001000143
B1549044245237N07145820WA0160501573001000144
B1549084245321N07145789WA0159901566001002146
B1549124245405N07145761WA0159501565001032143
B1549164245488N07145735WA0159501565001018139
B1549204245569N07145710WA0159001556001007140
B1549244245653N07145688WA0158001548001002141
B1549284245734N07145666WA0157701546001002137
B1549324245814N07145648WA0157301540001002132
B1549364245894N07145631WA0155601519001001141
B1549404245979N07145612WA0154401509001001142
B1549444246062N07145593WA0153501502001001139
B1549484246144N07145575WA0152901496001002139
B1549524246227N07145555WA0151801482001008142
B1549564246309N07145534WA0151501485001007134
B1550004246386N07145511WA0151601484001003133
B1550044246463N07145481WA0151701489001003133
B1550084246538N07145452WA0152901505001009123
B1550124246600N07145421WA0155101539001059096
B1550164246645N07145373WA0158001553001056105
B1550164246645N07145373WA0158201553001061105
B1550204246657N07145278WA0157901546001048134
B1550244246616N07145183WA0158001551001074137
B1550284246547N07145138WA0159301567001068118
B1550324246487N07145161WA0160001570001051100
F15503601030614171921222428
B1550364246471N07145224WA0160601575001052078
B1550404246509N07145264WA0160301570001059093
B1550404246509N07145264WA0160301570001059093
B1550444246565N07145241WA0161101588001062104
B1550484246596N07145162WA0162301592001057123
B1550524246575N07145060WA0162501593001088137
B1550524246575N07145060WA0162601593001079137
B1550564246509N07145009WA0163601607001074119
B1551004246459N07145049WA0164501616001065089
B1551044246471N07145107WA0165301624001059077
B1551084246523N07145106WA0166001630001068103
B1551124246557N07145028WA0166501632001060126
B1551164246527N07144933WA0166801635001069132
B1551204246459N07144899WA0167401646001074112
B1551244246405N07144925WA0168201650001070087
B1551284246395N07144988WA0168101646001073079
B1551324246424N07145037WA0168501657001080079
B1551364246469N07145057WA0169601666001072077
F1551370103061417192122242830
B1551404246515N07145056WA0169801664001080082
B1551444246569N07145034WA0167901630001107108
B1551484246640N07145009WA0164401593001068134
B1551524246723N07144985WA0161701572001025145
B1551564246807N07144960WA0160201563001011142
B1552004246891N07144936WA0158901549001005143
B1552044246974N07144920WA0157901542001003138
B1552084247055N07144905WA0157401540001002134
B1552124247137N07144892WA0156301523001002141
B1552164247223N07144880WA0154901513001002145
B1552204247308N07144866WA0154601515001023140
B1552244247391N07144847WA0154401509001008139
B1552284247472N07144825WA0153801502001004140
B1552324247554N07144797WA0152901493001003140
B1552364247637N07144773WA0151901481001002145
B1552404247723N07144753WA0151201477001003146
B1552444247809N07144733WA0151201483001026141
B1552484247891N07144713WA0151601484001014138
B1552524247972N07144693WA0152101496001017134
B1552564248046N07144667WA0153601507001030126
B1553004248120N07144645WA0153901507001008126
B1553044248194N07144625WA0154301517001021121
B1553084248263N07144606WA0155601528001045119
B1553124248328N07144585WA0157401553001058100
B1553164248379N07144569WA0159501567001049081
B1553204248430N07144557WA0159801565001055094
B1553244248481N07144521WA0160501581001046093
F15532601061417192122242830
B1553284248524N07144477WA0161701584001051094
B1553324248567N07144421WA0160701563001038104
B1553324248567N07144421WA0160101563001050104
B1553364248625N07144381WA0158201534001073117
B1553404248699N07144342WA0155301509001035143
B1553444248779N07144302WA0154101506001024140
B1553484248861N07144265WA0152501482001011152
B1553524248952N07144227WA0150601465001017161
B1553564249041N07144187WA0150401472001020155
B1554004249127N07144146WA0151001480001007148
B1554044249211N07144109WA0150801471001014149
B1554084249298N07144074WA0150201469001010149
B1554124249381N07144043WA0151001486001035136
B1554164249451N07144011WA0153601515001039114
B1554204249515N07143982WA0154101503001036115
B1554244249582N07143955WA0153201500001014115
F1554270103061417192122242830
B1554284249646N07143926WA0152701491001013113
B1554324249712N07143904WA0152801499001040112
B1554364249774N07143879WA0153901516001049102
B1554364249774N07143879WA0153901516001045102
B1554404249828N07143870WA0156001539001054081
B1554444249858N07143915WA0157001543001053086
B1554444249858N07143915WA0157001543001053086
B1554484249838N07143988WA0157101544001045111
B1554524249771N07144013WA0157501548001052125
B1554564249706N07143965WA0157801548001058127
B1555004249675N07143874WA0157401540001078124
B1555004249675N07143874WA0157101540001093124
B1555044249675N07143772WA0156401535001099125
B1555084249696N07143681WA0157401554001063108
B1555124249737N07143623WA0158601559001074095
B1555164249787N07143627WA0159501570001071085
B1555204249804N07143691WA0160401578001075095
B1555244249766N07143760WA0160901579001051121
B1555244249766N07143760WA0160901579001051121
B1555284249691N07143778WA0161101584001048132
B1555324249615N07143747WA0161701588001039134
F15553601030614171921222830
B1555364249556N07143673WA0161601584001085136
B1555404249532N07143571WA0161501586001072129
B1555444249540N07143471WA0162301600001067117
B1555484249566N07143390WA0163801611001068100
B1555524249614N07143358WA0163901606001059087
B1555564249655N07143394WA0163901611001059086
B1556004249650N07143466WA0164701620001056102
B1556044249596N07143517WA0165801633001059117
B1556084249523N07143508WA0166501636001068131
B1556124249460N07143444WA0167101643001053133
B1556164249423N07143349WA0167601648001064131
B1556204249412N07143247WA0168701661001052123
B1556244249431N07143158WA0168901657001048110
B1556244249431N07143158WA0168901657001048110
B1556244249431N07143158WA0168801657001045110
B1556284249482N07143121WA0168701657001049088
B1556324249518N07143161WA0169301665001065081
B1556324249518N07143161WA0169301665001065081
B1556364249512N07143230WA0169801669001062096
F1556370103061417192122242830
B1556404249460N07143281WA0170301674001065122
B1556444249385N07143285WA0171301689001052127
B1556484249310N07143260WA0172201692001048133
B1556524249245N07143191WA0171901686001063143
B1556524249245N07143191WA0171701686001057143
B1556564249209N07143089WA0171701687001069137
B1557004249217N07142991WA0172301698001052107
B1557044249255N07142943WA0173301704001043078
B1557084249296N07142949WA0173601708001068066
B1557124249305N07143002WA0174101712001066083
B1557164249258N07143051WA0174701718001054118
B1557164249258N07143051WA0174701718001054118
B1557204249183N07143039WA0175201721001045136
B1557244249120N07142968WA0175301721001058139
B1557284249100N07142866WA0175101720001066125
B1557284249100N07142866WA0175301720001071125
B1557324249127N07142785WA0175801724001060100
B1557364249175N07142742WA0175901723001048097
B1557364249175N07142742WA0175901723001048097
B1557364249175N07142742WA0175801723001048097
B1557404249230N07142707WA0175301712001054108
B1557444249291N07142673WA0175101720001017108
B1557484249353N07142642WA0175101715001017113
B1557524249420N07142614WA0174601713001032119
B1557564249489N07142584WA0174501713001039123
B1558004249562N07142548WA0173901699001030134
B1558044249639N07142510WA0172501689001020139
F15580601061417192122242830
B1558084249718N07142467WA0171901687001008144
B1558124249797N07142416WA0171701686001008145
B1558164249869N07142360WA0172801704001030132
B1558204249936N07142305WA0173401703001008134
B1558244250001N07142247WA0173801710001018127
B1558284250065N07142187WA0173701706001012132
B1558324250125N07142129WA0174701729001028112
B1558364250176N07142075WA0176001728001032110
B1558404250236N07142020WA0174801712001017126
B1558444250299N07141962WA0174001706001003130
B1558484250364N07141899WA0173201697001000135
B1558484250364N07141899WA0173101697001000135
B1558524250433N07141837WA0172301689001019139
B1558564250500N07141776WA0172501699001030132
B1559004250568N07141716WA0172601694001015138
B1559004250568N07141716WA0172501694001012138
B1559044250637N07141652WA0172201689001005142
F1559070103061417192122242830
B1559084250710N07141588WA0171501680001000147
B1559124250785N07141520WA0170001661001001155
B1559124250785N07141520WA0170001661001001155
B1559164250865N07141447WA0168201644001001164
B1559164250865N07141447WA0167801644001001164
B1559204250943N07141368WA0167101639001003162
B1559244251021N07141291WA0166601632001001160
B1559284251098N07141212WA0165501620001005160
B1559324251172N07141135WA0165301625001040150
B1559364251241N07141058WA0165101618001012148
B1559404251311N07140982WA0164001604001007151
B1559444251383N07140905WA0162801592001004155
B1559484251452N07140821WA0162201591001005152
B1559524251516N07140736WA0162101590001001149
B1559564251576N07140644WA0161601580001000153
B1600004251634N07140550WA0161301581001034149
B1600044251686N07140457WA0162201595001033136
B1600084251730N07140367WA0162801594001014133
B1600124251771N07140278WA0163001600001028124
B1600164251807N07140194WA0163201599001005118
B1600204251843N07140108WA0162601586001025127
B1600244251879N07140012WA0161401579001027134
B1600284251909N07139912WA0161301581001008131
B1600324251938N07139813WA0161401585001039128
B1600364251962N07139726WA0163501616001052103
B1600404251984N07139653WA0165801634001044092
B1600444252018N07139597WA0166601632001043089
B1600484252063N07139556WA0166201626001034093
B1600524252114N07139530WA0166301637001054090
B1600564252161N07139494WA0168101652001044091
B1601004252210N07139465WA0168601654001045090
B1601044252255N07139492WA0169401665001070082
B1601084252256N07139556WA0170501673001057088
B1601124252202N07139587WA0171001677001077113
F16011601030614171921222830
B1601164252140N07139539WA0171301680001060127
B1601204252117N07139445WA0171901692001048117
B1601244252148N07139374WA0173101702001046095
B1601284252196N07139377WA0174001709001045080
B1601324252205N07139435WA0174901719001070084
B1601364252155N07139470WA0175701723001060112
B1601404252096N07139420WA0176301730001057123
B1601444252097N07139330WA0177001737001051106
B1601484252146N07139296WA0177501742001067088
B1601524252180N07139341WA0178101750001049083
B1601564252155N07139398WA0178901753001054099
B1602004252090N07139392WA0178801750001044124
B1602044252047N07139311WA0179001757001056122
B1602084252054N07139220WA0179801769001053108
B1602124252099N07139171WA0181101783001065091
B1602164252151N07139163WA0182701796001057087
F1602170103061417192122242830
B1602204252205N07139152WA0183101797001055095
B1602244252263N07139160WA0182401783001063102
B1602284252326N07139190WA0180601761001025118
B1602324252394N07139226WA0178701745001012125
B1602364252465N07139273WA0176701720001007138
B1602404252537N07139334WA0174201697001007144
B1602444252610N07139395WA0173101691001018141
B1602444252610N07139395WA0172801691001018141
B1602484252685N07139448WA0172101679001014144
B1602524252764N07139500WA0170401661001012149
B1602564252846N07139548WA0169001650001011148
B1603004252928N07139595WA0168001639001010149
B1603044253009N07139644WA0167001634001011146
B1603084253088N07139694WA0166601627001015145
B1603124253168N07139743WA0165301613001023149
B1603164253248N07139793WA0164601608001028145
B1603204253325N07139844WA0164001605001017143
B1603244253401N07139893WA0163901603001036138
B1603284253478N07139939WA0163101591001017141
B1603324253556N07139987WA0162101583001011142
B1603364253633N07140034WA0161101571001009142
B1603404253711N07140082WA0159901558001012143
B1603444253786N07140135WA0159401561001014139
B1603444253786N07140135WA0159401561001011139
B1603484253860N07140185WA0159801567001006136
B1603484253860N07140185WA0159801567001006136
B1603524253932N07140234WA0159701559001032134
B1603564254007N07140278WA0158401544001033138
B1604004254085N07140318WA0157201534001037137
B1604004254085N07140318WA0157201534001037137
B1604044254162N07140355WA0156001519001034138
B1604084254241N07140392WA0154501505001037140
B1604084254241N07140392WA0154101505001038140
B1604124254321N07140427WA0153101491001043140
B1604164254402N07140459WA0151901481001042138
B1604204254481N07140492WA0150901471001042137
B1604244254559N07140521WA0150101462001035135
B1604244254559N07140521WA0150101462001035135
B1604284254638N07140546WA0149001450001034136
B1604324254719N07140567WA0147601436001034137
B1604364254800N07140586WA0146301424001033139
B1604364254800N07140586WA0146301424001033139
B1604404254884N07140604WA0145301416001035140
B1604444254968N07140617WA0144601407001034142
B1604484255052N07140630WA0143701399001032142
B1604524255138N07140640WA0143001393001036143
B1604564255222N07140645WA0142401387001035141
B1605004255307N07140648WA0142001385001035138
B1605044255389N07140651WA0141401372001031140
B1605084255474N07140654WA0140401370001032140
B1605124255555N07140656WA0140801378001042131
B1605124255555N07140656WA0140801378001042131
B1605164255631N07140657WA0141401382001038126
B1605204255702N07140651WA0142701401001060111
B1605244255767N07140637WA0144001413001041107
B1605284255822N07140618WA0146101440001048088
B1605324255872N07140599WA0148101455001059084
B1605364255919N07140582WA0149401471001072077
B1605404255961N07140595WA0150401480001054070
B1605444255974N07140647WA0151601491001036078
B1605484255934N07140695WA0152301493001047108
B1605524255862N07140685WA0152201491001065133
B1605564255808N07140606WA0152501497001059133
B1606004255803N07140504WA0153001500001055120
B1606044255843N07140438WA0153901514001048095
B1606084255892N07140412WA0155201529001042084
B1606124255939N07140410WA0157101547001079072
B1606124255939N07140410WA0157101547001079072
B1606164255969N07140448WA0157801547001076079
B1606204255953N07140516WA0158001552001068106
B1606244255887N07140530WA0159401568001063124
B1606284255830N07140461WA0160201572001055133
B1606324255829N07140360WA0160701577001061120
B1606364255876N07140306WA0161701591001048092
B1606364255876N07140306WA0161701591001048092
B1606404255920N07140324WA0163301607001068075
B1606444255928N07140387WA0163801607001049094
B1606484255880N07140434WA0164801623001072112
B1606524255812N07140403WA0165601625001052134
B1606564255770N07140309WA0165601628001049135
B1607004255786N07140214WA0166701640001040108
B1607044255836N07140183WA0167801652001050085
B1607084255872N07140222WA0168901662001067081
B1607124255869N07140290WA0169701670001058090
B1607164255825N07140345WA0170301674001052113
F1607180103061417192122242830
B1607204255752N07140334WA0171201685001049132
B1607204255752N07140334WA0171401685001058132
B1607244255701N07140256WA0172301696001066129
B1607284255704N07140159WA0172601696001037115
B1607284255704N07140159WA0172601696001048115
B1607324255751N07140110WA0173001704001044087
B1607364255793N07140136WA0173901712001045080
B1607364255793N07140136WA0173901712001045080
B1607404255811N07140197WA0174401720001049085
B1607444255786N07140266WA0174601717001049112
B1607484255715N07140287WA0174701716001070134
B1607524255653N07140222WA0175301720001077130
B1607564255650N07140123WA0175401718001097118
B1607564255650N07140123WA0175401718001088118
B1608004255698N07140074WA0175301719001068091
B1608044255744N07140102WA0175301717001068088
B1608084255781N07140158WA0174901717001071093
B1608124255813N07140216WA0175701730001059085
B1608124255813N07140216WA0176001730001057085
B1608164255844N07140270WA0176601739001070084
B1608164255844N07140270WA0176901739001069084
B1608204255872N07140327WA0177201742001055084
B1608244255902N07140382WA0178101754001064082
B1608284255935N07140427WA0179601771001044075
B1608324255962N07140473WA0181601788001023075
F16083601030614171922242830
B1608364255946N07140538WA0182001783001047102
B1608404255882N07140563WA0181801781001061123
B1608404255882N07140563WA0181801781001061123
B1608444255814N07140513WA0182201788001111135
B1608484255780N07140416WA0182601793001076127
B1608524255805N07140340WA0183801809001083087
B1608524255805N07140340WA0184101809001072087
B1608564255851N07140331WA0184901816001058077
B1609004255896N07140343WA0185701829001059075
B1609004255896N07140343WA0185901829001054075
B1609044255941N07140361WA0186001823001047087
B1609044255941N07140361WA0186001823001047087
B1609084255996N07140383WA0184301798001037104
B1609084255996N07140383WA0183501798001027104
B1609124256061N07140413WA0180501756001020124
B1609164256138N07140450WA0177201728001044140
B1609204256217N07140490WA0175301718001017141
B1609244256296N07140530WA0174701712001015140
B1609284256374N07140574WA0173801703001013142
B1609324256453N07140618WA0172801692001008145
B1609364256535N07140662WA0171801681001008146
F1609370103061417192122242830
B1609404256614N07140706WA0171001674001039141
B1609444256693N07140748WA0169901662001017142
B1609484256774N07140787WA0168701648001014144
B1609524256859N07140822WA0167001629001011151
B1609564256945N07140859WA0165401615001010150
B1610004257031N07140894WA0164201605001015148
B1610044257116N07140928WA0163101592001015148
B1610084257204N07140957WA0161701578001015154
B1610124257291N07140984WA0161701587001008145
B1610164257375N07141014WA0161501578001006144
B1610204257457N07141052WA0160101563001010145
B1610244257537N07141094WA0159201556001008142
B1610284257617N07141134WA0158201545001006141
B1610324257696N07141172WA0157001533001012141
B1610364257777N07141208WA0155801518001008142
B1610404257857N07141251WA0153901499001009145
B1610444257941N07141291WA0152001478001011152
B1610484258027N07141326WA0150601468001011149
B1610524258113N07141361WA0148701446001008152
B1610564258202N07141400WA0147001430001009158
B1611004258292N07141439WA0145801418001011155
B1611044258374N07141498WA0144501403001020155
B1611084258441N07141566WA0146101435001026129
B1611124258490N07141640WA0148101452001015119
B1611164258530N07141715WA0149301464001023110
B1611204258584N07141759WA0150601479001039099
B1611244258637N07141782WA0151601486001053089
B1611284258688N07141801WA0151201475001037093
B1611324258749N07141824WA0149101450001062113
B1611364258819N07141847WA0146801427001032126
B1611404258892N07141869WA0145601418001009127
B1611444258971N07141883WA0143901398001004136
B1611484259052N07141898WA0142301388001002136
B1611524259132N07141910WA0141801382001000133
B1611564259212N07141930WA0140301366001002137
B1612004259291N07141954WA0139701363001000133
B1612044259371N07141981WA0137701330001033147
B1612084259455N07142013WA0136701339001020139
B1612124259533N07142034WA0137901350001008131
B1612164259610N07142051WA0138501356001042125
B1612204259683N07142055WA0139501365001037121
B1612244259755N07142054WA0140701383001060111
B1612284259818N07142041WA0142401393001063111
B1612324259860N07141964WA0142701391001067129
B1612364259849N07141858WA0142501389001103135
B1612404259791N07141792WA0142601395001088118
B1612444259730N07141799WA0143101400001078096
B1612484259685N07141840WA0143801408001060086
B1612524259646N07141881WA0144901420001063080
B1612564259595N07141896WA0145901425001067103
B1613004259538N07141841WA0145201413001067132
B1613044259517N07141736WA0144501408001100138
B1613084259548N07141637WA0144301409001082128
B1613124259605N07141581WA0144701415001078109
B1613164259664N07141571WA0145101419001066092
B1613204259711N07141590WA0145901432001049074
B1613244259737N07141635WA0146401429001068075
F16132601030614192122242830
B1613284259738N07141700WA0145901425001077081
B1613324259736N07141769WA0145401413001088090
B1613364259728N07141849WA0144001403001056103
B1613404259720N07141930WA0144001407001045098
B1613444259713N07142009WA0144001404001053100
B1613484259714N07142093WA0143601401001023103
B1613524259719N07142173WA0144101411001054097
B1613564259718N07142250WA0145101425001047089
B1614004259717N07142317WA0147101440001048077
B1614044259744N07142372WA0147201438001051097
B1614084259806N07142384WA0147101446001055113
B1614124259861N07142317WA0148101456001071138
B1614164259853N07142209WA0148901461001065132
B1614204259797N07142152WA0149201462001062110
B1614244259740N07142168WA0149801472001055087
F1614270103061417192122242830
B1614284259717N07142223WA0150501475001048082
B1614324259743N07142284WA0150401475001040097
B1614364259799N07142308WA0151601492001042099
B1614404259853N07142262WA0152801499001047119
B1614444259863N07142162WA0153201501001050129
B1614484259818N07142090WA0153201503001075108
B1614524259765N07142101WA0153401504001071086
B1614564259751N07142164WA0153401504001085087
B1615004259778N07142227WA0153901513001075088
B1615044259815N07142272WA0155301529001050077
B1615084259860N07142290WA0156101529001055094
B1615124259917N07142244WA0155501526001066128
B1615164259933N07142141WA0155501525001060135
B1615204259892N07142054WA0155201524001059123
B1615244259828N07142039WA0155201524001093102
B1615284259784N07142081WA0156101536001060081
B1615324259769N07142141WA0156201533001076081
B1615364259793N07142203WA0155801530001067095
B1615404259846N07142238WA0156001533001077107
B1615444259911N07142238WA0157101540001073110
B1615484259974N07142218WA0157701548001056104
B1615524300035N07142199WA0156901530001034112
B1615564300105N07142173WA0153901499001020130
B1616004300187N07142144WA0151101472001011147
B1616044300271N07142113WA0150601476001007142
B1616084300355N07142086WA0150401470002003147
B1616124300442N07142052WA0149001453002003154
B1616124300442N07142052WA0149001453002003154
B1616164300531N07142016WA0147501437002001158
B1616164300531N07142016WA0147501437002001158
B1616164300531N07142016WA0147101437002002158
B1616204300624N07141976WA0145701421002005163
B1616244300711N07141941WA0146101444001011138
B1616284300781N07141907WA0148201474001020112
B1616324300839N07141873WA0150801488001036104
B1616364300892N07141830WA0152401503001045102
B1616404300940N07141780WA0154001517001063099
B1616444300989N07141744WA0155101525001058090
B1616444300989N07141744WA0155201525001053090
B1616484301039N07141759WA0155701531001055090
B1616524301056N07141831WA0155901535001089101
B1616564301016N07141896WA0156501539001068114
B1616564301016N07141896WA0156601539001068114
B1617004300947N07141890WA0157101547001052123
B1617044300904N07141812WA0158001557001051121
B1617084300905N07141719WA0158901566001048108
B1617124300943N07141665WA0160201581001058084
B1617164300987N07141681WA0161601589001080080
B1617164300987N07141681WA0161701589001084080
B1617204300996N07141747WA0162101595001060093
B1617244300955N07141802WA0163001603001047105
B1617244300955N07141802WA0163101603001045105
B1617284300888N07141791WA0163301606001040121
B1617324300847N07141715WA0163901609001043116
F16173601030614171921222830
B1617364300859N07141630WA0164401616001059099
B1617404300904N07141603WA0165301627001049081
B1617404300904N07141603WA0165601627001063081
B1617444300934N07141651WA0166201633001048088
B1617484300907N07141716WA0166901642001057104
B1617524300843N07141716WA0168001652001057114
B1617564300797N07141646WA0168201652001054119
B1618004300800N07141557WA0168601658001063102
B1618044300841N07141507WA0169401668001049086
B1618084300888N07141505WA0170801681001071075
B1618084300888N07141505WA0171001681001064075
B1618124300914N07141556WA0171301683001050086
B1618164300892N07141624WA0171601687001043101
B1618204300830N07141649WA0172001692001055117
B1618244300767N07141606WA0172601699001052122
B1618244300767N07141606WA0172801699001051122
B1618284300746N07141519WA0173401707001048108
B1618324300771N07141446WA0173801709001051095
B1618324300771N07141446WA0173901709001059095
B1618364300819N07141419WA0174801723001048079
F1618370103061417192122242830
B1618404300858N07141440WA0175901731001046073
B1618404300858N07141440WA0175901731001046073
B1618444300863N07141505WA0175901726001050095
B1618484300817N07141559WA0175901731001072110
B1618484300817N07141559WA0176101731001063110
B1618524300751N07141545WA0176601736001067122
B1618564300712N07141464WA0177001741001068116
B1619004300732N07141385WA0178101754001055095
B1619044300777N07141362WA0178901759001044078
B1619044300777N07141362WA0179001759001044078
B1619084300810N07141405WA0179201761001053082
B1619124300798N07141473WA0179301760001082100
B1619164300739N07141500WA0179601763001066114
B1619164300739N07141500WA0179601763001067114
B1619204300684N07141437WA0179301751001091133
B1619244300701N07141347WA0179201755001073107
B1619284300755N07141326WA0179801765001049090
B1619284300755N07141326WA0179901765001063090
B1619324300810N07141340WA0179901759001073099
B1619364300871N07141359WA0179501761001077106
B1619404300930N07141373WA0180601776001051097
B1619444300987N07141387WA0181401780001055097
B1619484301047N07141404WA0181301778001053105
B1619484301047N07141404WA0181401778001051105
B1619524301105N07141421WA0182101791001049097
B1619564301162N07141435WA0182701793001054097
B1620004301219N07141457WA0182501787001041101
B1620004301219N07141457WA0182501787001041101
B1620044301281N07141483WA0181201770001062115
B1620084301350N07141510WA0180001761001054123
B1620124301423N07141532WA0179301755001022125
B1620164301497N07141555WA0178501742001006131
B1620204301574N07141586WA0177301736001002134
B1620244301652N07141617WA0176501724001001137
B1620284301733N07141647WA0174901708001003141
B1620284301733N07141647WA0174901708001003141
B1620324301814N07141679WA0173901699001005141
B1620364301895N07141703WA0173501701001002137
B1620364301895N07141703WA0173601701001003137
B1620404301975N07141725WA0173601700001003136
B1620444302057N07141740WA0173401699001001141
