ACNI279FLIGHT:1
HFDTE060521
HFFXA005
HFPLTPILOT:Bob Fletcher
HFCM2CREW:
HFGTYGLIDERTYPE:ASG 29
HFGIDGLIDERID:90
HFDTM100GPSDATUM:WGS84
HFRFWFIRMWAREVERSION:1.3
HFRHWHARDWAREVERSION:1.0
HFFTYFRTYPE:ClearNav Instr., ClearNav II
HFGPS:UBLOX,NEO-6G,16Ch,50000 
HFPRSPRESSALTSENSOR:Intersema,MS5540C,20000
HFCIDCOMPETITIONID:90
I033638FXA3941ENL4244GSP
C060521144840000000000102
C0000000N00000000ETAKEOFF
C4225500N07147467WSterling
C4320617N07231033WSpringfield
C4144660N07210820WWindham     
C4225500N07147467WSterling
C0000000N00000000ELANDING
B1510114225407N07147428WA0016700107000000000
B1510124225407N07147428WA0016700107000000000
B1510134225407N07147428WA0016700107000000000
B1510144225407N07147428WA0016700107000000000
B1510154225407N07147428WA0016600107000000001
B1510164225408N07147429WA0016600107000000003
B1510174225408N07147429WA0016700107000000002
B1510184225408N07147429WA0016700107000000001
B1510194225408N07147429WA0016600107000000000
B1510204225408N07147429WA0016600107000000000
B1510214225408N07147429WA0016700108000000000
B1510224225408N07147429WA0016700108000000000
B1510234225408N07147429WA0016700108000003000
B1510244225408N07147429WA0016700108000013000
B1510254225408N07147429WA0016700108000015000
B1510264225408N07147429WA0016700108000009000
B1510274225408N07147429WA0016600108000005000
B1510284225408N07147430WA0016600108000005007
B1510294225410N07147431WA0016600108000007018
B1510304225412N07147435WA0016600108000015026
B1510314225416N07147439WA0016800108000028031
B1510324225420N07147443WA0016800108000035038
B1510334225424N07147449WA0017000108000049047
B1510344225430N07147456WA0017000108000062053
B1510354225436N07147463WA0017200108000062057
LCNI151035EVT:ENDBASELINE
LCNI151029EVT:TAKEOFF
F15103601070809141621273013138
B1510374225450N07147481WA0017200109000052071
B1510414225487N07147525WA0017600110000050090
B1510454225531N07147576WA0018400118000052100
B1510494225577N07147627WA0020300134000061092
B1510534225621N07147673WA0022000155000060088
B1510574225661N07147721WA0023500168000080089
B1511014225702N07147768WA0024400188000073089
B1511054225745N07147808WA0026300202000065090
B1511094225785N07147859WA0028300218000068092
B1511134225826N07147907WA0029400238000060087
B1511174225863N07147952WA0031400258000053082
B1511214225898N07147995WA0033300276000055077
B1511254225927N07148040WA0035100296000065071
B1511294225952N07148086WA0037300318000052071
B1511334225982N07148131WA0039400329000047078
B1511374226013N07148181WA0040300342000054081
B1511414226043N07148231WA0042400365000052078
B1511454226072N07148278WA0044500384000046077
B1511494226101N07148327WA0046200398000057079
B1511534226130N07148377WA0047800412000062079
B1511574226159N07148428WA0049100427000066080
B1512014226175N07148490WA0050800447000054083
B1512054226176N07148558WA0052800466000044084
B1512094226172N07148627WA0054700484000041087
B1512134226160N07148699WA0056700504000043095
B1512174226143N07148775WA0058700518000041098
B1512214226132N07148850WA0059700526000045091
B1512254226126N07148924WA0060500538000049093
B1512294226118N07149000WA0061700548000060097
B1512334226112N07149078WA0062500554000055098
B1512374226108N07149156WA0063200564000052096
B1512414226104N07149234WA0064500580000062096
B1512454226101N07149311WA0066600599000047095
B1512494226103N07149386WA0068800623000040093
B1512534226106N07149464WA0071000641000036100
B1512574226108N07149547WA0072900665000039101
B1513014226114N07149625WA0076700697000049092
B1513054226131N07149681WA0079500720000070064
B1513094226174N07149668WA0080000722000054098
B1513134226201N07149577WA0079500716000045140
B1513174226180N07149464WA0079400717000049148
B1513214226115N07149392WA0079800719001043136
B1513254226041N07149384WA0079300718000043115
B1513294225978N07149414WA0079900728000037111
B1513334225917N07149451WA0081000734000049119
B1513374225834N07149450WA0080800730000049158
B1513414225760N07149368WA0080800737000065159
B1513454225757N07149258WA0083000760000052126
B1513494225805N07149206WA0084600777000038090
B1513534225839N07149246WA0085400796000032088
B1513574225814N07149317WA0087300808000051119
B1514014225735N07149345WA0088400810000049153
B1514054225655N07149282WA0088900826000049155
F151409010708091416212730138
B1514094225632N07149175WA0091200841000049129
B1514134225669N07149103WA0092300858000046098
B1514174225718N07149103WA0094400873000027078
B1514214225730N07149163WA0095700885000038099
B1514254225683N07149228WA0097100890000046129
B1514294225597N07149251WA0096600889000043160
B1514334225508N07149201WA0097900904000048161
B1514374225446N07149109WA0099500921000038149
B1514414225416N07149001WA0100800935000048135
B1514454225433N07148910WA0102600946000049104
B1514494225479N07148876WA0101800935000048086
B1514534225519N07148913WA0102100946000043083
B1514574225522N07148979WA0104300968000042101
B1515014225457N07149022WA0106100970000035146
B1515054225369N07148972WA0105300969000039171
B1515094225334N07148849WA0105400975001049150
F15151001070809141621273013138
B1515134225380N07148781WA0108001008001060097
B1515174225421N07148805WA0110301024001041079
B1515214225391N07148869WA0111701037001048121
B1515254225311N07148875WA0112501044000043148
B1515294225245N07148793WA0113001049000042151
B1515334225245N07148687WA0114401067000038119
B1515374225290N07148634WA0115501077000038093
B1515414225331N07148662WA0116601086000041082
B1515454225307N07148733WA0118001098000036116
B1515494225232N07148757WA0118101089000038148
B1515534225152N07148696WA0116901093000048159
B1515574225113N07148585WA0117901110000039147
B1516014225119N07148480WA0119801125000040117
B1516054225169N07148435WA0121001122000043095
B1516094225201N07148480WA0122001138000043087
F15161101070809142127283013138
B1516134225159N07148537WA0123801152000041124
B1516174225078N07148522WA0124101158000038154
B1516214225025N07148427WA0125701173000032141
B1516254225035N07148326WA0126501178000032118
B1516294225084N07148277WA0126501180000030094
B1516334225133N07148300WA0126501181000036087
B1516374225129N07148370WA0127701189000047101
B1516414225071N07148428WA0126901173000042140
B1516454224984N07148432WA0126001173000040154
B1516494224914N07148353WA0126201177000040155
B1516534224895N07148235WA0126601182000043147
B1516574224916N07148129WA0128501194000043123
B1517014224967N07148086WA0128901204000040090
B1517054225004N07148125WA0129201204000037086
B1517094224969N07148188WA0129801209000036124
F15171201070809162127283013138
B1517134224887N07148186WA0129501204000037153
B1517174224820N07148102WA0130201216000036152
B1517214224797N07147994WA0131101226000035131
B1517254224828N07147914WA0132301236000032101
B1517294224880N07147909WA0132601236000038085
B1517334224900N07147972WA0132301233000033097
B1517374224866N07148052WA0131101220000038136
B1517414224805N07148124WA0130501217000039132
B1517454224757N07148212WA0128401190000036141
B1517494224721N07148319WA0127101180000045143
B1517534224697N07148426WA0127401185000053134
B1517574224676N07148529WA0127601186000045130
B1518014224656N07148631WA0127101169000035134
B1518054224636N07148741WA0125001140000031144
B1518094224617N07148852WA0122201133000030137
F1518130107080914162127283013138
B1518134224601N07148958WA0122401129000035132
B1518174224584N07149064WA0121001112000039134
B1518214224568N07149170WA0119301094000034137
B1518254224546N07149280WA0117301074000038142
B1518294224519N07149387WA0115701070000030137
B1518334224495N07149494WA0114701056000054139
B1518374224467N07149600WA0113501046000052140
B1518414224435N07149706WA0112701040000036139
B1518454224404N07149810WA0112401042000034138
B1518494224373N07149910WA0114201063000037130
B1518534224343N07150000WA0116701091000057112
B1518574224326N07150079WA0118201100000044096
B1519014224342N07150149WA0118101095000033093
B1519054224391N07150190WA0118301099000036099
B1519094224446N07150208WA0119601115000036093
B1519134224497N07150212WA0121301133000037082
B1519174224547N07150212WA0122001136000035086
B1519214224601N07150219WA0121901137000033093
B1519254224654N07150233WA0122201137000027089
B1519294224705N07150263WA0121501122000030098
B1519334224759N07150299WA0120601118000030102
B1519374224816N07150340WA0119701113000036113
B1519414224872N07150380WA0120901137000040099
B1519454224922N07150427WA0121901130000043103
B1519494224968N07150475WA0122001137000025095
B1519534225016N07150527WA0121301123000040109
B1519574225065N07150578WA0122401145000038095
B1520014225108N07150618WA0124301162000036081
B1520054225150N07150654WA0124401153000028093
F152009010708091416212728301313138
B1520094225197N07150694WA0124201169000032089
B1520134225244N07150726WA0125601176000029087
B1520174225294N07150754WA0126101184000027089
B1520214225341N07150775WA0127601199000022078
B1520254225381N07150803WA0128501201000024076
B1520294225428N07150815WA0128401194000026088
B1520334225485N07150796WA0127401184000027099
B1520374225534N07150826WA0127601185000040095
B1520414225547N07150907WA0127301191000043111
B1520454225532N07150996WA0128201204000046116
B1520494225472N07151059WA0129801205000046140
B1520534225383N07151078WA0128801191000045162
B1520574225284N07151067WA0127301187000043165
B1521014225195N07151011WA0127201179000038168
B1521054225136N07150902WA0125901164000043164
B1521094225113N07150784WA0124901173000047141
B1521134225098N07150675WA0125701165000033135
B1521174225105N07150563WA0124001149000032143
B1521214225127N07150451WA0123001148000037145
B1521254225149N07150339WA0123901165000034141
B1521294225145N07150222WA0124801168000036150
B1521334225094N07150125WA0125501168000036147
B1521374225015N07150086WA0125001159000045137
B1521414224945N07150113WA0124601167000041112
B1521454224899N07150167WA0125501178000038097
F1521490107081416212728301313138
B1521494224886N07150226WA0127101193000040069
B1521534224927N07150235WA0127601193000031093
B1521574224956N07150154WA0127801194000036132
B1522014224926N07150055WA0128001197000040137
B1522054224857N07150021WA0128601205000041115
B1522094224805N07150057WA0129201208000034089
B1522134224805N07150119WA0129401210000032079
B1522174224851N07150127WA0129801211000038099
B1522214224881N07150043WA0129701210000038137
B1522254224845N07149939WA0129901209000031146
B1522294224771N07149900WA0129901217000040122
B1522334224709N07149926WA0130501223000035102
B1522374224671N07149983WA0131201232000036087
B1522414224662N07150043WA0132501239000036069
B1522454224696N07150075WA0131801226000038086
B1522494224746N07150032WA0130801218000051123
F1522500107080914162127283013138
B1522534224747N07149928WA0131001225000039136
B1522574224690N07149853WA0130901220000038132
B1523014224622N07149858WA0130801223000038099
B1523054224604N07149914WA0131201228000033069
B1523094224619N07149966WA0130801217000040074
B1523134224635N07150029WA0129201198000043090
B1523174224656N07150101WA0127301184000024097
B1523214224669N07150179WA0126501175000021099
B1523254224678N07150253WA0126201176000016091
B1523294224689N07150327WA0124901153000015096
B1523334224705N07150406WA0122401135000021103
B1523374224716N07150489WA0121501127000029105
B1523414224721N07150575WA0120601116000023111
B1523454224712N07150670WA0118901098000021126
B1523494224679N07150767WA0117801092000037133
F152351010708091416212728301313138
B1523534224641N07150860WA0117701091000032130
B1523574224596N07150948WA0116801080000028135
B1524014224549N07151035WA0116201077000025131
B1524054224494N07151114WA0115601074000022137
B1524094224429N07151183WA0116001079000026137
B1524134224367N07151247WA0117301095000038123
B1524174224308N07151302WA0118501105000043119
B1524214224244N07151350WA0118701102000033122
B1524254224214N07151424WA0118701104000033096
B1524294224254N07151463WA0118801106000039094
B1524334224310N07151429WA0118501094000040112
B1524374224351N07151347WA0117501091000050138
B1524414224335N07151233WA0117201088000049150
B1524454224277N07151135WA0117001092000042154
B1524494224213N07151053WA0118001111000037142
B1524534224146N07150986WA0119801128000033134
B1524574224080N07150995WA0122101139000032102
B1525014224066N07151065WA0121901134000033094
B1525054224114N07151100WA0121801133000048107
B1525094224163N07151034WA0122701149000043135
B1525134224151N07150924WA0124401164000036145
B1525174224088N07150857WA0126201183000027127
F1525190107080914212728301313138
B1525214224024N07150875WA0127201189000038104
B1525254224007N07150946WA0127401189000036093
B1525294224048N07150989WA0128101197000045094
B1525334224101N07150952WA0128901205000040119
B1525374224111N07150850WA0129301206000036141
B1525414224060N07150751WA0128701204000036153
B1525454223983N07150698WA0130201225000030137
B1525494223913N07150707WA0131601231000036108
B1525534223892N07150777WA0131801233000038091
B1525574223935N07150818WA0131901234000032102
B1526014223983N07150761WA0132901247000040126
B1526054223965N07150660WA0134001257000032138
B1526094223895N07150617WA0135001266000043123
B1526134223839N07150660WA0135401265000038104
B1526174223846N07150733WA0135101261000031098
F15262001070809131416212730138
B1526214223904N07150745WA0135201269000032108
B1526254223930N07150660WA0136901285000028131
B1526294223881N07150574WA0137601289000030142
B1526334223805N07150577WA0138001294000032119
B1526374223788N07150649WA0138801302000034087
B1526414223834N07150674WA0138701299000036100
B1526454223870N07150599WA0139301310000033133
B1526494223833N07150504WA0140901326000049136
B1526534223761N07150492WA0141801332000044115
B1526574223727N07150556WA0141901331000032092
B1527014223756N07150608WA0141701333000026083
B1527054223802N07150577WA0142601340000027109
B1527094223803N07150478WA0143201343000032140
B1527134223745N07150396WA0143501355000041138
B1527174223673N07150375WA0145401370000035113
F152721010708091314162127283013138
B1527214223628N07150424WA0145501364000034094
B1527254223643N07150487WA0144901359000038086
B1527294223692N07150486WA0145301369000034093
B1527334223715N07150406WA0145901374000032126
B1527374223677N07150314WA0146501379000031137
B1527414223604N07150280WA0147801393000049120
B1527454223541N07150290WA0148401399000036098
B1527494223504N07150342WA0148701397000033087
B1527534223483N07150409WA0147801389000027094
B1527574223479N07150483WA0147101383000027091
B1528014223492N07150554WA0146901381000033091
B1528054223511N07150623WA0145801367000031093
B1528094223549N07150674WA0145601368000019088
B1528134223598N07150696WA0146201373000019085
B1528174223644N07150681WA0147501390000027082
B1528214223687N07150640WA0147501381000036094
B1528254223739N07150596WA0146401377000029107
B1528294223793N07150551WA0146701382000034107
B1528334223848N07150508WA0147101395000036101
B1528374223894N07150461WA0148401399000027095
B1528414223945N07150418WA0147701371000015109
B1528454224005N07150377WA0145101359000011113
B1528494224066N07150341WA0144401348000016109
B1528534224132N07150326WA0142201318000019117
B1528574224203N07150327WA0139701303000018119
B1529014224273N07150330WA0138801296000017113
B1529054224338N07150336WA0138201287000013110
B1529094224405N07150342WA0136801275000017113
B1529134224473N07150349WA0135701263000015114
B1529174224543N07150350WA0134601256000020115
B1529214224611N07150350WA0133801250000013115
B1529254224681N07150345WA0133401247000011117
B1529294224750N07150334WA0133101244000009117
B1529334224823N07150322WA0132201234000020124
B1529374224893N07150306WA0132401236000023117
B1529414224965N07150283WA0131101215000016130
B1529454225040N07150250WA0129801216000019130
B1529494225108N07150210WA0131301234000015119
B1529534225175N07150170WA0131201220000027124
B1529574225241N07150138WA0131401234000019114
B1530014225303N07150100WA0132401243000028112
B1530054225356N07150056WA0133901262000031095
B1530094225399N07150011WA0135901276000033094
B1530134225409N07149924WA0136201277000028128
B1530174225360N07149839WA0135701275000027139
F1530190107080913142127283013138
B1530214225291N07149839WA0136401280000036100
B1530254225254N07149886WA0136801288000031076
B1530294225246N07149935WA0137601293000039053
B1530334225257N07149972WA0137701293000036051
B1530374225283N07150001WA0137501294000022058
B1530414225310N07150021WA0138801303000021051
B1530454225348N07150000WA0137801286000030096
B1530494225363N07149906WA0137301292000030139
B1530534225311N07149824WA0139301312000031135
B1530574225237N07149816WA0140501322000031111
B1531014225200N07149866WA0140901321000028074
B1531054225218N07149910WA0140601316000035066
B1531094225246N07149948WA0139701305000035073
B1531134225270N07150008WA0137301281000032094
B1531174225295N07150086WA0135301261000026114
F153120010708091314162127283013138
B1531214225320N07150175WA0134801264000030116
B1531254225345N07150240WA0138601316000036074
B1531294225368N07150287WA0140701323000026072
B1531334225391N07150337WA0140901321000028075
B1531374225416N07150399WA0139701310000033093
B1531414225438N07150458WA0141801339000033074
B1531454225455N07150514WA0142901344000031075
B1531494225463N07150571WA0144601370000036069
B1531534225461N07150625WA0145601366000033072
B1531574225473N07150693WA0142901335000028098
B1532014225493N07150766WA0142001338000024091
B1532054225508N07150835WA0141701328000016092
B1532094225529N07150910WA0140201312000014100
B1532134225560N07150979WA0139601310000011100
B1532174225596N07151046WA0139701308000014105
B1532214225635N07151109WA0139901323000040091
B1532254225672N07151154WA0141401328000017084
B1532294225715N07151202WA0140801311000010103
B1532334225767N07151255WA0139301302000013111
B1532374225824N07151299WA0139101308000010110
B1532414225884N07151341WA0139301310000024111
B1532454225940N07151373WA0140501338000032092
B1532494225986N07151393WA0144201361000040073
B1532534226025N07151414WA0145101366000036071
B1532574226069N07151432WA0145401370000028079
B1533014226110N07151451WA0146701384000032067
B1533054226148N07151469WA0146801380000026072
B1533094226192N07151492WA0146201376000022082
B1533134226239N07151508WA0146401379000024080
B1533174226285N07151532WA0146201377000009087
B1533214226335N07151550WA0146901384000019084
B1533254226383N07151561WA0147201387000025077
B1533294226421N07151579WA0147601388000027064
B1533334226441N07151629WA0145601362000026081
B1533374226457N07151706WA0142001329000019111
B1533414226469N07151797WA0141801329000024112
B1533454226479N07151885WA0141801327000016111
B1533494226481N07151978WA0141101322000017116
B1533534226481N07152068WA0141001326000018106
B1533574226484N07152152WA0140801315000011105
B1534014226498N07152234WA0139901306000009102
B1534054226524N07152306WA0139101305000008095
B1534094226549N07152374WA0139201303000011097
B1534134226572N07152449WA0139001297000016102
B1534174226614N07152506WA0138501300000019096
B1534214226662N07152540WA0139201311000021086
B1534254226714N07152546WA0140101310000025088
B1534294226769N07152545WA0139101298000022096
B1534334226828N07152545WA0138401299000025097
B1534374226885N07152545WA0138801305000022096
B1534414226943N07152532WA0139201309000020098
B1534454226995N07152516WA0140401329000026081
B1534494227039N07152489WA0142201334000036092
B1534534227048N07152401WA0142301338000030135
B1534574226994N07152315WA0143101351000031142
F1534590107080913142127283013138
B1535014226917N07152301WA0144101354000036124
B1535054226856N07152340WA0144001357000036103
B1535094226833N07152397WA0145001367000030068
B1535134226855N07152434WA0145201365000030061
B1535174226892N07152405WA0144901358000029100
B1535214226894N07152309WA0144801360000033139
B1535254226834N07152224WA0145301370000032148
B1535294226754N07152185WA0146001377000028134
B1535334226685N07152193WA0146901380000028105
B1535374226653N07152249WA0146601378000024080
B1535414226669N07152303WA0146201374000026071
B1535454226710N07152293WA0146601378000027091
B1535494226718N07152202WA0146401377000032135
B1535534226665N07152112WA0146501378000037150
B1535574226585N07152085WA0146801384000027128
F1536000107080913141621283013138
B1536014226511N07152089WA0147701393000028120
B1536054226438N07152090WA0147801390000032123
B1536094226368N07152114WA0146201373000032123
B1536134226306N07152170WA0145101364000018119
B1536174226258N07152237WA0144501356000024115
B1536214226230N07152317WA0143001340000032106
B1536254226229N07152400WA0142301329000017100
B1536294226256N07152465WA0140701317000030094
B1536334226306N07152510WA0139701298000023105
B1536374226363N07152548WA0138101290000015108
B1536414226421N07152589WA0137501284000014111
B1536454226477N07152640WA0136801278000014114
B1536494226528N07152696WA0136701293000042102
B1536534226566N07152742WA0139201326000041073
B1536574226601N07152782WA0140601310000028086
F153701010708091314162127283013138
B1537014226643N07152831WA0138901304000024094
B1537054226680N07152882WA0139501314000017082
B1537094226713N07152931WA0140001312000028083
B1537134226746N07152986WA0139301304000016093
B1537174226775N07153048WA0139301314000024083
B1537214226800N07153098WA0140701326000013071
B1537254226824N07153148WA0141101325000014074
B1537294226843N07153192WA0141801338000017056
B1537334226866N07153225WA0142101331000027061
B1537374226901N07153259WA0141001321000025080
B1537414226952N07153255WA0140601318000026099
B1537454226998N07153195WA0141501334000039110
B1537494227024N07153107WA0142201332000038129
B1537534227009N07152997WA0141901332000038147
B1537574226941N07152924WA0142501342000041145
B1538014226860N07152907WA0144001359000040129
B1538054226800N07152936WA0145401368000032093
B1538094226791N07152997WA0144701355000033077
B1538134226834N07153015WA0144301357000034091
B1538174226874N07152951WA0145101365000038121
B1538214226870N07152851WA0146301382000036125
B1538254226834N07152762WA0148001391000021130
F1538290107080913142127283013138
B1538294226766N07152720WA0147501386000028125
B1538334226702N07152754WA0147301386000031108
B1538374226685N07152821WA0148201396000032075
B1538414226716N07152847WA0148601402000035074
B1538454226756N07152798WA0148901398000041114
B1538494226754N07152699WA0148801411000036124
B1538534226714N07152612WA0150201414000028133
B1538574226642N07152570WA0149901412000033126
B1539014226576N07152589WA0150101418000030106
B1539054226538N07152643WA0150601421000021084
B1539094226529N07152701WA0151101430000024063
B1539134226548N07152739WA0151801433000027056
B1539174226585N07152740WA0151601427000038078
B1539214226631N07152715WA0151501428000032083
B1539254226678N07152694WA0151301422000021083
B1539294226730N07152683WA0150201408000008095
F153930010708091314162127283013138
B1539334226790N07152670WA0149101401000014106
B1539374226853N07152656WA0148801403000037106
B1539414226914N07152638WA0149501411000042105
B1539454226971N07152606WA0150601424000032096
B1539494227023N07152571WA0151701431000034103
B1539534227069N07152522WA0152401430000035089
B1539574227113N07152539WA0151201417000029082
B1540014227137N07152602WA0149801402000041097
B1540054227150N07152685WA0148001388000038109
B1540094227168N07152770WA0147501391000036107
B1540134227184N07152847WA0148901406000034093
B1540174227200N07152918WA0149601408000025092
B1540214227220N07152988WA0149701412000036089
B1540254227247N07153045WA0151001423000031081
B1540294227279N07153097WA0151501430000028082
B1540334227316N07153139WA0152301434000020083
B1540374227356N07153183WA0152301435000028087
B1540414227400N07153220WA0153001444000031085
B1540454227446N07153254WA0153101441000032092
B1540494227492N07153300WA0153401446000027094
B1540534227537N07153348WA0153301441000028098
B1540574227583N07153391WA0153801452000029088
F15405901070809131416172127283013138
B1541014227625N07153423WA0155501471000037075
B1541054227661N07153457WA0156501478000031074
B1541094227690N07153497WA0158001494000032065
B1541134227713N07153542WA0158701497000026070
B1541174227730N07153602WA0158001489000036088
B1541214227747N07153673WA0158001489000036094
B1541254227774N07153739WA0158101489000039092
B1541294227801N07153803WA0158001487000033090
B1541334227828N07153867WA0157701478000022095
B1541374227855N07153940WA0156301459000015106
B1541414227885N07154016WA0155101458000016104
B1541454227914N07154089WA0155001456000027100
B1541494227942N07154159WA0154701454000019100
B1541534227973N07154234WA0154001437000018111
B1541574228011N07154307WA0152901438000017107
B1542014228050N07154375WA0153001431000017107
B1542054228084N07154453WA0151501413000019115
B1542094228116N07154533WA0150101401000022113
B1542134228151N07154614WA0149001393000016115
B1542174228189N07154694WA0147901380000015120
B1542214228231N07154772WA0146901378000019116
B1542254228285N07154823WA0147401383000023109
B1542294228353N07154828WA0147301381000029120
B1542334228418N07154793WA0147901394000033115
B1542374228477N07154743WA0148901404000022114
B1542414228534N07154695WA0149201401000030113
B1542454228592N07154649WA0148901398000018114
B1542494228650N07154591WA0148001383000017123
B1542534228714N07154539WA0146001361000015126
B1542574228784N07154495WA0143401336000029133
B1543014228862N07154463WA0141501317000032135
B1543054228942N07154445WA0140401317000030132
B1543094229016N07154420WA0141201324000034124
B1543134229088N07154404WA0140901316000025121
B1543174229163N07154417WA0139301301000025129
B1543214229235N07154444WA0140001313000034119
B1543254229297N07154481WA0140601315000033114
B1543294229348N07154542WA0140701320000042112
B1543334229388N07154611WA0141601332000039105
B1543374229423N07154685WA0140301308000027115
B1543414229457N07154771WA0137901292000022120
B1543454229485N07154859WA0137101280000023120
B1543494229510N07154954WA0134901259000022126
B1543534229540N07155043WA0134601261000019117
B1543574229569N07155132WA0133601248000017124
B1544014229592N07155227WA0133401248000024121
B1544054229608N07155322WA0133301234000017122
B1544094229626N07155425WA0131401219000023132
B1544134229631N07155518WA0131501254000036098
B1544174229639N07155588WA0134701270000017083
B1544214229659N07155647WA0135701279000026073
B1544254229689N07155679WA0137201294000026060
B1544294229724N07155693WA0137701285000040069
B1544334229767N07155658WA0136401271000046105
B1544374229795N07155568WA0135001261000047137
B1544414229791N07155452WA0134601271000040147
B1544454229759N07155343WA0136201286000038142
B1544494229701N07155256WA0137301293000032145
B1544534229626N07155211WA0138101300000027133
B1544574229563N07155247WA0138101290000027103
F154459010708091314172127283013138
B1545014229552N07155319WA0136501276000040087
B1545054229569N07155380WA0136301281000034077
B1545094229586N07155438WA0136501277000031082
B1545134229585N07155510WA0135901267000039096
B1545174229580N07155590WA0134201246000038098
B1545214229614N07155634WA0133301248000035084
B1545254229657N07155582WA0133201242000023119
B1545294229673N07155477WA0131501227000017142
B1545334229672N07155360WA0130401218000030145
B1545374229672N07155241WA0129101203000025147
B1545414229674N07155124WA0128501203000023142
B1545454229676N07155015WA0128601208000018130
B1545494229675N07154907WA0128601205000021138
B1545534229658N07154798WA0129001213000015134
B1545574229635N07154697WA0130101221000031130
F15460001070809131416172127283013138
B1546014229593N07154603WA0130301223000011140
B1546054229530N07154522WA0130701228000014147
B1546094229456N07154473WA0132201242000028131
B1546134229390N07154502WA0132701242000030107
B1546174229379N07154570WA0132301237000028083
B1546214229427N07154588WA0132001235000033101
B1546254229473N07154523WA0132401242000033128
B1546294229480N07154420WA0134301265000030129
B1546334229435N07154334WA0135601272000026133
B1546374229363N07154317WA0135201266000025115
B1546414229327N07154371WA0135201271000030078
B1546454229354N07154407WA0135801276000027073
B1546494229396N07154369WA0136801283000025105
B1546534229417N07154284WA0137101302000032114
B1546574229397N07154190WA0139201307000025134
F154701010708091314172127283013138
B1547014229327N07154140WA0139101298000031128
B1547054229274N07154174WA0138101294000032083
B1547094229278N07154228WA0138101299000031065
B1547134229310N07154254WA0139301317000032060
B1547174229347N07154240WA0140601319000030084
B1547214229368N07154161WA0140201311000026128
B1547254229333N07154058WA0139301303000037151
B1547294229257N07154017WA0139301312000028124
B1547334229209N07154052WA0140501318000027073
B1547374229220N07154097WA0140701325000023062
B1547414229257N07154102WA0141601338000017064
B1547454229292N07154083WA0142401341000014063
B1547494229327N07154060WA0142001331000014072
B1547534229371N07154039WA0141401331000021079
B1547574229413N07154009WA0141101319000011079
B1548014229464N07153994WA0138701291000019096
B1548054229523N07153985WA0136901280000010100
B1548094229583N07153971WA0135901270000014104
B1548134229645N07153960WA0134901257000012108
B1548174229709N07153950WA0134001258000011104
B1548214229769N07153934WA0134401255000007100
B1548254229829N07153938WA0133101241000006104
B1548294229891N07153945WA0132901247000009098
B1548334229949N07153943WA0132701237000009100
B1548374230012N07153949WA0131001222000008107
B1548414230073N07153960WA0130601223000006100
B1548454230131N07153977WA0130301218000002100
B1548494230192N07153995WA0129401210000006106
B1548534230255N07154007WA0128901203000006104
B1548574230315N07154021WA0128601202000005102
B1549014230375N07154036WA0128101201000014096
B1549054230429N07154055WA0127701193000015095
F1549090107081314172127283013138
B1549094230489N07154072WA0126301180000016105
B1549134230545N07154092WA0127701201000023086
B1549174230590N07154100WA0128901222000025070
B1549214230630N07154100WA0130701225000015070
B1549254230678N07154096WA0130501221000017087
B1549294230728N07154095WA0131501233000020079
B1549334230772N07154107WA0131601231000016078
B1549374230815N07154129WA0131501248000019073
B1549414230854N07154137WA0134601281000012060
B1549454230891N07154121WA0137501280000023084
B1549494230903N07154035WA0136101277000035130
B1549534230856N07153958WA0136501289000029121
B1549574230792N07153959WA0137801294000021098
B1550014230767N07154017WA0137601290000028084
B1550054230781N07154082WA0138001302000029082
B1550094230811N07154126WA0138901296000031075
B1550134230862N07154108WA0137101279000036103
B1550174230900N07154038WA0135901271000025115
B1550214230904N07153937WA0134701251000015136
B1550254230875N07153829WA0133001250000021141
B1550294230841N07153734WA0134701274000033121
B1550334230796N07153663WA0136801282000029113
B1550374230731N07153661WA0135201267000037110
B1550414230706N07153721WA0135001269000035079
B1550454230745N07153756WA0135201272000035094
F15504901070813141721272830138
B1550494230800N07153710WA0135501280000031122
B1550534230830N07153620WA0137201291000043125
B1550574230805N07153520WA0136601283000044142
B1551014230739N07153466WA0137301297000032119
B1551054230684N07153492WA0138101303000025086
B1551094230681N07153548WA0139301315000026069
B1551134230722N07153565WA0140201320000030088
B1551174230769N07153510WA0140001319000030120
B1551214230773N07153410WA0139201310000037131
B1551254230726N07153328WA0139701313000038126
B1551294230661N07153318WA0139501312000037100
B1551334230621N07153361WA0140101319000032075
B1551374230599N07153407WA0142001339000025064
B1551414230564N07153442WA0142101335000030093
B1551454230495N07153428WA0141001320000037135
B1551494230437N07153344WA0140201315000037149
F1551500107081314172127283013138
B1551534230434N07153228WA0140101312000039138
B1551574230478N07153149WA0139801315000039113
B1552014230533N07153128WA0140401322000032082
B1552054230568N07153162WA0140901330000027070
B1552094230565N07153219WA0141601329000027081
B1552134230547N07153278WA0141201326000035075
B1552174230536N07153341WA0140001296000021091
B1552214230516N07153419WA0137001273000022112
B1552254230487N07153503WA0135301260000019116
B1552294230455N07153590WA0133801248000016121
B1552334230421N07153676WA0133101243000013117
B1552374230391N07153761WA0132201232000010116
B1552414230361N07153848WA0130801215000020121
B1552454230339N07153932WA0130201220000024099
B1552494230335N07154004WA0130701223000014084
B1552534230344N07154073WA0130001207000005090
B1552574230353N07154152WA0127701185000009103
B1553014230365N07154233WA0126301179000011101
B1553054230367N07154316WA0125801172000009106
B1553094230355N07154404WA0124701160000008112
B1553134230342N07154496WA0123401149000008119
B1553174230321N07154590WA0122801147000010123
B1553214230289N07154681WA0122701142000020127
B1553254230239N07154765WA0121501128000014138
B1553294230175N07154843WA0120101113000025148
B1553334230105N07154918WA0118601102000018150
B1553374230028N07154980WA0118301104000015144
B1553414229959N07155046WA0118001097000011142
B1553454229889N07155117WA0116801081000017149
B1553494229821N07155197WA0115301072000014150
B1553534229755N07155278WA0115401075000017144
B1553574229692N07155354WA0116201089000015136
B1554014229639N07155421WA0119401126000024107
B1554054229594N07155470WA0122301146000042092
B1554094229559N07155523WA0121601134000021088
B1554134229532N07155590WA0120001118000021100
B1554174229484N07155650WA0119201109000032124
B1554214229403N07155659WA0118401102000017146
B1554254229321N07155607WA0117601096000008155
B1554294229253N07155522WA0117301091000008155
B1554334229180N07155445WA0116701079000011156
B1554374229100N07155376WA0115301071000017156
B1554414229020N07155321WA0115001074000006146
B1554454228944N07155264WA0115101070000019146
B1554494228889N07155168WA0114201054000030157
B1554534228876N07155041WA0112401039000016159
B1554574228891N07154916WA0111301034000010155
B1555014228916N07154798WA0111301034000005148
B1555054228951N07154691WA0111201039000028141
B1555094228981N07154587WA0111901045000019135
B1555134229002N07154481WA0112201042000016139
B1555174229021N07154373WA0112501050000032132
B1555214229041N07154268WA0112601047000024138
B1555254229058N07154159WA0112501046000021135
B1555294229074N07154049WA0112301044000016143
B1555334229073N07153931WA0112601043000015152
B1555374229033N07153818WA0111801028000008158
B1555414228961N07153731WA0109601009000013166
B1555454228875N07153667WA0109001005000020162
B1555494228785N07153619WA0107900999000011159
B1555534228694N07153574WA0107200991000007167
B1555574228605N07153502WA0106500985000008178
B1556014228521N07153422WA0107000999000028162
B1556054228445N07153352WA0108701013000018146
B1556094228378N07153274WA0108801006000008153
B1556134228316N07153178WA0108001004000005156
B1556174228254N07153091WA0108701010000011146
B1556214228194N07153005WA0108501006000003146
B1556254228130N07152919WA0107400992000010159
B1556294228061N07152830WA0106900992000003155
B1556334227992N07152747WA0106300986000003154
B1556374227919N07152664WA0105000971000013161
B1556414227843N07152585WA0104100967000008160
B1556454227770N07152505WA0104200967000022154
B1556494227694N07152432WA0104300973000025156
F1556510107081314172127283013138
B1556534227622N07152369WA0107201003000060132
B1556574227551N07152357WA0108801015000051111
B1557014227515N07152410WA0109001013000040081
B1557054227543N07152454WA0108601009000027083
B1557094227584N07152405WA0108401011000029124
B1557134227566N07152299WA0108201016000038141
B1557174227500N07152240WA0109401031000035126
B1557214227435N07152242WA0111001049000043094
B1557254227406N07152290WA0112201050000039072
B1557294227422N07152336WA0112001044000033067
B1557334227464N07152313WA0111701044000029095
B1557374227472N07152224WA0111901049000030129
B1557414227426N07152143WA0112501059000029126
B1557454227359N07152121WA0114101065000022108
B1557494227314N07152166WA0114201062000025086
B1557534227325N07152221WA0113701057000029073
B1557574227369N07152210WA0113701061000031090
F15575901070814172127283013138
B1558014227385N07152127WA0114301066000028126
B1558054227351N07152032WA0114801073000031132
B1558094227289N07151977WA0115701080000032120
B1558134227222N07151994WA0115701080000031109
B1558174227187N07152051WA0115801079000036081
B1558214227202N07152098WA0115701078000037061
B1558254227238N07152085WA0115901079000033079
B1558294227272N07152039WA0115701076000032074
B1558334227311N07152049WA0114601063000033073
B1558374227343N07152093WA0113101047000040082
B1558414227380N07152146WA0111201029000033094
B1558454227415N07152206WA0110101018000017096
B1558494227452N07152269WA0108801008000012100
B1558534227490N07152331WA0108001001000010100
B1558574227530N07152393WA0107300992000009104
F1559000107081314172127283013138
B1559014227569N07152456WA0107000995000025096
B1559054227603N07152518WA0107200992000011096
B1559094227635N07152588WA0105800976000006109
B1559134227670N07152662WA0105300975000016107
B1559174227707N07152732WA0105400974000012106
B1559214227735N07152813WA0104700967000015113
B1559254227759N07152897WA0104600968000022110
B1559294227784N07152979WA0104400966000017110
B1559334227815N07153058WA0104400966000019109
B1559374227842N07153136WA0104800971000028102
B1559414227862N07153211WA0105500976000016097
B1559454227881N07153286WA0105600979000025096
B1559494227899N07153360WA0105700979000014099
B1559534227910N07153439WA0106300998000029093
B1559574227902N07153508WA0108801018000029093
F16000101070813141721273013138
B1600014227845N07153540WA0110201025000017120
B1600054227769N07153506WA0110301019000030143
B1600094227709N07153421WA0109801012000040150
B1600134227687N07153309WA0109201015000036135
B1600174227704N07153212WA0109801027000030115
B1600214227746N07153145WA0111001035000046105
B1600254227799N07153115WA0111401035000026089
B1600294227842N07153145WA0111301037000031083
B1600334227837N07153208WA0112501056000044097
B1600374227773N07153219WA0114101073000039126
B1600414227717N07153146WA0115101078000052138
B1600454227724N07153044WA0115501084000038119
B1600494227774N07153008WA0116101092000037085
B1600534227803N07153050WA0116701099000034082
B1600574227765N07153100WA0118401117000042113
B1601014227695N07153069WA0119701126000048134
F1601020107081314172127283013138
B1601054227662N07152972WA0120801135000044132
B1601094227689N07152887WA0122301150000054100
B1601134227735N07152877WA0123301156000048074
B1601174227747N07152931WA0124001163000031087
B1601214227695N07152972WA0125201178000039120
B1601254227621N07152944WA0126201185000025137
B1601294227581N07152848WA0127101193000028141
B1601334227603N07152753WA0128401204000028109
B1601374227653N07152739WA0128901210000028079
B1601414227662N07152794WA0129801220000039086
B1601454227608N07152829WA0130401225000037123
B1601494227535N07152790WA0131101235000044142
B1601534227504N07152686WA0132701249000032139
B1601574227536N07152606WA0134001259000019096
B1602014227577N07152627WA0134501263000036079
F16020301070813141721272830138
B1602054227562N07152689WA0135301272000043097
B1602094227496N07152709WA0135901278000039133
B1602134227429N07152650WA0137701297000036138
B1602174227419N07152548WA0139101308000019120
B1602214227462N07152501WA0139101307000020084
B1602254227492N07152545WA0139001312000026083
B1602294227464N07152604WA0140001324000034105
B1602334227391N07152605WA0141001336000040137
B1602374227342N07152519WA0142601354000036135
B1602414227362N07152430WA0144401364000030102
B1602454227410N07152420WA0145101366000028076
B1602494227419N07152477WA0145301373000022088
B1602534227368N07152519WA0146001382000029119
B1602574227298N07152486WA0147401397000047134
B1603014227282N07152389WA0149001411000020118
F1603040107081314172127283013138
B1603054227327N07152337WA0149701412000025092
B1603094227363N07152373WA0149701414000024082
B1603134227335N07152433WA0150401420000028105
B1603174227265N07152447WA0150201418000028133
B1603214227190N07152415WA0151201440000023126
B1603254227150N07152338WA0153501452000026118
B1603294227171N07152249WA0153701454000036113
B1603334227220N07152221WA0154901469000039079
B1603374227249N07152267WA0155501472000034085
B1603414227221N07152331WA0156301482000036108
B1603454227149N07152342WA0157101486000034133
B1603494227091N07152274WA0158101497000038132
B1603534227096N07152175WA0159001502000036122
B1603574227149N07152128WA0159401511000033096
B1604014227193N07152162WA0160501520000038087
B1604054227191N07152233WA0160901522000032100
B1604094227137N07152283WA0160501517000038121
B1604134227061N07152292WA0160301516000034131
B1604174226985N07152257WA0160101515000030137
B1604214226927N07152184WA0161001530000032129
B1604254226914N07152089WA0162501540000034116
B1604294226950N07152019WA0163001545000041098
B1604334227000N07152020WA0163701552000031081
B1604374227021N07152076WA0164001553000025088
B1604414226991N07152146WA0163301541000029121
B1604454226915N07152170WA0162701538000034141
B1604494226839N07152117WA0163201546000033142
B1604534226779N07152041WA0164501559000028131
B1604574226753N07151947WA0164801561000033123
F16045901070813142127283013138
B1605014226765N07151851WA0164701556000025120
B1605054226812N07151789WA0164501563000032100
B1605094226861N07151798WA0165601575000045081
B1605134226877N07151857WA0166801588000043085
B1605174226844N07151919WA0167501581000027111
B1605214226773N07151932WA0166701577000036131
B1605254226707N07151875WA0166501578000026132
B1605294226671N07151784WA0166901581000022127
B1605334226662N07151683WA0166701580000020122
B1605374226684N07151598WA0167401592000020101
B1605414226724N07151554WA0168201598000022079
B1605454226764N07151564WA0168801603000014065
B1605494226787N07151605WA0169601611000020061
B1605534226813N07151646WA0169601601000027078
B1605574226848N07151701WA0168401591000028096
F1606000107081314172127283013138
B1606014226889N07151761WA0167501580000022103
B1606054226937N07151821WA0166201567000014113
B1606094226991N07151878WA0165301566000014113
B1606134227046N07151926WA0165701570000015108
B1606174227103N07151970WA0165601564000014111
B1606214227164N07152012WA0164901556000011114
B1606254227223N07152051WA0164701564000016103
B1606294227275N07152079WA0166301581000005089
B1606334227326N07152106WA0166601574000000097
B1606374227381N07152142WA0166001575000019103
B1606414227436N07152174WA0167301590000029096
B1606454227490N07152173WA0168701602000029091
B1606494227544N07152150WA0168701595000034098
B1606534227605N07152133WA0167501582000017110
B1606574227673N07152125WA0166801575000012115
F160701010708131417212728301313138
B1607014227743N07152116WA0166401569000011120
B1607054227815N07152103WA0166001569000023119
B1607094227883N07152085WA0166501575000016113
B1607134227947N07152060WA0167201583000028112
B1607174228010N07152030WA0168601599000024107
B1607214228068N07152010WA0170801620000028098
B1607254228125N07151989WA0171901628000026097
B1607294228181N07151965WA0171101616000022100
B1607334228244N07151943WA0168901591000013115
B1607374228314N07151926WA0167601581000011121
B1607414228384N07151906WA0167601586000011118
B1607454228451N07151881WA0168001592000016112
B1607494228517N07151866WA0168401586000008112
B1607534228586N07151864WA0167601579000015117
B1607574228655N07151867WA0167301589000011110
B1608014228712N07151898WA0168501594000028103
F1608020107081314172127283013138
B1608054228756N07151962WA0168201581000021113
B1608094228797N07152038WA0167101576000030117
B1608134228838N07152118WA0166601573000020120
B1608174228875N07152200WA0166801579000020117
B1608214228908N07152283WA0167301580000022115
B1608254228941N07152365WA0166601567000030115
B1608294228974N07152447WA0165501560000018114
B1608334229008N07152520WA0165301568000014103
B1608374229043N07152591WA0165401557000020109
B1608414229077N07152665WA0164901562000011103
B1608454229110N07152732WA0165401564000003098
B1608494229145N07152796WA0165401563000005102
B1608534229180N07152866WA0165301561000008106
B1608574229212N07152944WA0164601551000016113
B1609014229249N07153021WA0163801549000015113
B1609054229290N07153092WA0164101552000014108
B1609094229327N07153165WA0163701545000016110
B1609134229350N07153248WA0163001539000008111
B1609174229366N07153335WA0162901538000020108
B1609214229377N07153418WA0163301546000017101
B1609254229387N07153501WA0163101537000008107
B1609294229397N07153591WA0161601523000007115
B1609334229406N07153682WA0161001520000017110
B1609374229414N07153767WA0161601528000011103
B1609414229423N07153853WA0161001521000011109
B1609454229435N07153936WA0161501531000024101
B1609494229442N07154015WA0162501534000012099
B1609534229450N07154099WA0161301522000005108
B1609574229457N07154189WA0160301513000006115
B1610014229461N07154283WA0159801511000005115
B1610054229462N07154374WA0159801512000005112
B1610094229458N07154465WA0159801510000005113
B1610134229446N07154557WA0159701511000020114
B1610174229434N07154645WA0159901513000020110
B1610214229413N07154733WA0159301505000011116
B1610254229395N07154824WA0158901501000008118
B1610294229372N07154917WA0158501494000014121
B1610334229352N07155009WA0158101497000010117
B1610374229335N07155100WA0158401497000016114
B1610414229320N07155192WA0158101484000011119
B1610454229310N07155292WA0156801480000010130
B1610494229297N07155395WA0157101487000022124
B1610534229287N07155489WA0157901496000029113
B1610574229282N07155579WA0158201491000010113
B1611014229289N07155674WA0157101475000009120
B1611054229306N07155765WA0156001476000016111
B1611094229331N07155845WA0156101470000008105
B1611134229363N07155919WA0155001456000014108
B1611174229393N07155995WA0154101454000014103
B1611214229425N07156066WA0153601445000007104
B1611254229454N07156144WA0152301430000009111
B1611294229472N07156233WA0150901418000011118
B1611334229475N07156332WA0149801410000022125
B1611374229472N07156435WA0149401407000015126
B1611414229465N07156535WA0149301411000015123
B1611454229455N07156633WA0149401407000023121
B1611494229442N07156728WA0149001405000013118
B1611534229431N07156821WA0148701403000013115
B1611574229421N07156914WA0148301395000009115
B1612014229414N07157007WA0147801394000010114
B1612054229407N07157098WA0147901397000020107
B1612094229411N07157181WA0148401401000012101
B1612134229423N07157262WA0148801404000017104
B1612174229432N07157333WA0151601447000025074
B1612214229444N07157379WA0154801465000014058
B1612254229485N07157369WA0154701456000024104
B1612294229502N07157274WA0154901467000028136
B1612334229454N07157189WA0156601485000033128
B1612374229388N07157175WA0157901494000028103
B1612414229348N07157224WA0158501501000027084
B1612454229356N07157281WA0159401509000031069
F16124901070814172127283013138
B1612494229398N07157277WA0159801511000030099
B1612534229423N07157193WA0160501520000025129
B1612574229399N07157094WA0162001536000041129
B1613014229338N07157041WA0162701542000036118
B1613054229275N07157056WA0163101546000025099
B1613094229259N07157117WA0164401559000027071
B1613134229294N07157144WA0164601561000034085
B1613174229331N07157083WA0165101571000030118
B1613214229315N07156988WA0166201583000037125
B1613254229256N07156929WA0167101587000021119
B1613294229191N07156927WA0167401590000030102
B1613334229156N07156974WA0168201605000032070
B1613374229165N07157020WA0169601607000031061
B1613414229206N07157024WA0169301606000036087
B1613454229243N07156968WA0169701619000033100
B1613494229242N07156881WA0170701620000028120
F1613500107081314172127283013138
B1613534229205N07156793WA0170901622000027128
B1613574229146N07156729WA0170901622000029126
B1614014229077N07156714WA0171001621000025112
B1614054229018N07156742WA0171101626000029098
B1614094228970N07156780WA0171801639000028089
B1614134228923N07156813WA0172801643000028090
B1614174228875N07156858WA0172601637000026103
B1614214228832N07156916WA0172101631000021101
B1614254228803N07156987WA0171301625000015099
B1614294228788N07157066WA0170501610000019106
B1614334228780N07157156WA0168701596000008114
B1614374228775N07157249WA0167901587000008115
B1614414228774N07157343WA0166801577000008117
B1614454228774N07157437WA0165901570000010115
B1614494228779N07157528WA0165501567000009112
B1614534228778N07157620WA0165001562000018115
B1614574228774N07157713WA0164801561000011113
B1615014228768N07157805WA0164601558000020117
B1615054228757N07157898WA0164801563000033113
B1615094228747N07157987WA0165001563000027110
B1615134228741N07158075WA0165001563000028109
B1615174228735N07158164WA0165001563000011111
B1615214228728N07158255WA0165001564000011114
B1615254228725N07158345WA0165801572000022109
B1615294228724N07158433WA0165701569000022110
B1615334228724N07158525WA0164601556000012116
B1615374228724N07158621WA0164001547000010119
B1615414228721N07158716WA0163101539000009116
B1615454228720N07158811WA0162201529000009118
B1615494228718N07158908WA0160901514000018121
B1615534228716N07159007WA0159701510000012121
B1615574228717N07159107WA0159501501000021127
B1616014228725N07159208WA0158601508000030118
B1616054228745N07159282WA0161201552000036081
B1616094228769N07159328WA0164701567000031064
B1616134228802N07159367WA0164601544000026088
B1616174228848N07159418WA0162301534000023105
B1616214228899N07159472WA0161801530000016110
B1616254228953N07159524WA0161401525000016111
B1616294229005N07159575WA0161301534000029103
B1616334229051N07159628WA0162301541000024100
B1616374229097N07159684WA0162101524000012110
B1616414229147N07159754WA0160401526000019122
B1616454229190N07159816WA0163601572000021088
B1616494229232N07159842WA0167201588000026080
B1616534229281N07159811WA0167501584000036090
B1616574229321N07159831WA0166801572000043078
B1617014229332N07159902WA0164401542000035104
B1617054229338N07159987WA0162601539000041099
B1617094229356N07200060WA0162701538000023095
B1617134229384N07200132WA0161501525000014105
B1617174229419N07200207WA0160701519000019111
B1617214229451N07200281WA0161001525000015105
B1617254229485N07200352WA0161201524000028105
B1617294229523N07200422WA0161701537000028103
B1617334229560N07200477WA0164401566000034082
B1617374229594N07200520WA0166001573000025078
B1617414229631N07200570WA0164501552000027098
B1617454229681N07200624WA0163201547000032107
B1617494229733N07200669WA0163501551000030103
B1617534229792N07200705WA0163301546000017112
B1617574229854N07200740WA0163501557000029110
B1618014229913N07200778WA0164801565000029108
B1618054229968N07200809WA0166101585000043090
B1618094230016N07200832WA0167401584000030085
B1618134230068N07200862WA0165201554000014106
B1618174230129N07200903WA0162701537000010116
B1618214230189N07200951WA0161701534000012117
B1618254230247N07201000WA0162701550000030108
B1618294230300N07201029WA0165001577000039087
B1618334230349N07201038WA0166801583000039084
B1618374230404N07201057WA0164701551000014106
B1618414230465N07201095WA0162601538000010113
B1618454230525N07201134WA0162201537000017109
B1618494230583N07201175WA0161701530000011110
F1618510107081314172127283013138
B1618534230643N07201215WA0161401530000010112
B1618574230705N07201252WA0161401528000014115
B1619014230766N07201292WA0161601536000033109
B1619054230826N07201329WA0161501528000016111
B1619094230885N07201372WA0160401519000022113
B1619134230945N07201414WA0160501521000017111
B1619174231005N07201452WA0159801513000003111
B1619214231066N07201486WA0159301509000012109
B1619254231125N07201523WA0159001507000008107
B1619294231183N07201560WA0159101507000006106
B1619334231244N07201589WA0158701502000008109
B1619374231305N07201611WA0159301512000024102
B1619414231362N07201633WA0160001527000038093
B1619454231412N07201655WA0161501534000039088
B1619494231466N07201676WA0161301524000026099
B1619534231526N07201698WA0160401516000024106
B1619574231588N07201725WA0159901519000020108
B1620014231649N07201751WA0160401526000025105
B1620054231707N07201773WA0161301538000035096
B1620094231761N07201790WA0162301542000036091
B1620134231812N07201817WA0162401538000016093
B1620174231866N07201850WA0161501526000011105
B1620214231925N07201881WA0160801525000011106
B1620254231987N07201904WA0161401529000018109
B1620294232047N07201941WA0161101525000028111
B1620334232108N07201981WA0160301516000014114
B1620374232172N07202015WA0159501505000009115
B1620414232237N07202049WA0158301494000008117
B1620454232305N07202074WA0157601492000008115
B1620494232371N07202093WA0157501493000006109
B1620534232431N07202121WA0157601492000005106
B1620574232484N07202170WA0157301485000004108
B1621014232521N07202243WA0156701484000028110
B1621054232548N07202321WA0157001489000027105
B1621094232558N07202409WA0156701478000011118
B1621134232553N07202509WA0155601467000012125
B1621174232544N07202609WA0155001466000029121
B1621214232536N07202707WA0154801462000023122
B1621254232528N07202806WA0154301460000015122
B1621294232522N07202902WA0154801465000032117
B1621334232513N07202996WA0155001464000033115
B1621374232503N07203089WA0154601459000020116
B1621414232492N07203182WA0153801452000014116
B1621454232480N07203273WA0154001457000022112
B1621494232465N07203360WA0153701453000016107
B1621534232455N07203446WA0152901443000010108
B1621574232445N07203536WA0151401426000011115
B1622014232439N07203629WA0150201410000021116
B1622054232432N07203719WA0149001404000016108
B1622094232431N07203807WA0147701393000020109
B1622134232432N07203894WA0147101387000015105
B1622174232437N07203979WA0145901373000011108
B1622214232439N07204068WA0144501362000017110
B1622254232441N07204159WA0144201351000022115
B1622294232450N07204253WA0142901345000023116
B1622334232467N07204341WA0142701348000014109
B1622374232484N07204426WA0143001354000021108
B1622414232487N07204508WA0144401381000030090
B1622454232486N07204572WA0147401407000036072
B1622494232481N07204630WA0148701404000025080
B1622534232468N07204698WA0148001396000025091
B1622574232458N07204776WA0147101383000024104
B1623014232451N07204862WA0146001378000013107
B1623054232444N07204949WA0145601375000008109
B1623094232442N07205032WA0145901385000019096
B1623134232454N07205101WA0146901394000030081
B1623174232475N07205158WA0147601395000027080
B1623214232497N07205221WA0146901378000013093
B1623254232515N07205299WA0145001365000007104
B1623294232533N07205380WA0144001355000004105
B1623334232551N07205462WA0143001346000006106
B1623374232564N07205545WA0142501343000007104
B1623414232578N07205629WA0142001336000007106
B1623454232592N07205710WA0141701336000016100
B1623494232604N07205790WA0141601340000010100
F1623520107081314172127283013138
B1623534232621N07205867WA0142601348000022098
B1623574232642N07205938WA0142801353000025094
B1624014232666N07206008WA0143801364000026096
B1624054232686N07206078WA0144901372000037086
B1624094232707N07206134WA0145601377000022077
B1624134232733N07206193WA0144701362000034092
B1624174232765N07206259WA0143401352000013101
B1624214232802N07206325WA0143201355000021100
B1624254232842N07206382WA0144201362000011095
B1624294232879N07206447WA0142801340000007110
B1624334232919N07206523WA0141201332000015115
B1624374232956N07206597WA0141901338000015107
B1624414232990N07206671WA0141101328000006111
B1624454233028N07206749WA0139901317000008116
B1624494233061N07206831WA0139601316000019114
B1624534233087N07206910WA0140401324000021102
B1624574233110N07206989WA0139601315000012108
B1625014233129N07207076WA0139101301000015117
B1625054233153N07207167WA0138001302000023118
B1625094233178N07207254WA0138401305000031114
B1625134233196N07207344WA0138501304000019116
B1625174233206N07207440WA0138001294000013123
B1625214233217N07207540WA0137201292000019124
B1625254233231N07207631WA0138201317000024105
B1625294233248N07207706WA0140301331000032091
B1625334233264N07207773WA0141501343000030082
B1625374233288N07207826WA0142501355000030070
B1625414233313N07207870WA0143301353000028073
B1625454233322N07207935WA0142501334000019097
B1625494233310N07208021WA0140601321000029111
B1625534233293N07208111WA0139301306000026118
B1625574233273N07208204WA0137901295000015119
B1626014233250N07208296WA0136801283000008120
B1626054233225N07208387WA0135701272000007119
B1626094233199N07208478WA0134801259000028123
B1626134233173N07208574WA0133301249000021125
B1626174233150N07208668WA0132801249000014120
B1626214233126N07208760WA0132601241000009121
B1626254233098N07208852WA0131601233000008123
B1626294233072N07208944WA0130901227000011123
B1626334233043N07209039WA0129701208000013129
B1626374233020N07209140WA0128301201000022129
B1626414232996N07209239WA0128001197000024128
B1626454232973N07209334WA0127601202000016118
B1626494232948N07209425WA0127501184000032126
B1626534232918N07209521WA0125801179000019128
B1626574232886N07209617WA0125301169000016133
B1627014232856N07209716WA0124501165000012130
B1627054232832N07209816WA0123701153000011129
B1627094232805N07209917WA0122201140000009134
B1627134232778N07210018WA0121301131000011133
B1627174232747N07210118WA0120401126000011133
B1627214232716N07210220WA0119901116000008139
B1627254232681N07210327WA0118701105000016147
F162729010708131417212227283013138
B1627294232644N07210433WA0118101104000025142
B1627334232613N07210538WA0117901100000020138
B1627374232577N07210641WA0116801087000014144
B1627414232534N07210747WA0116401090000012149
B1627454232483N07210842WA0118001111000022138
B1627494232431N07210914WA0120201137000040110
B1627534232384N07210968WA0121601142000026098
B1627574232362N07211035WA0120701127000026092
B1628014232365N07211115WA0119301118000013101
B1628054232372N07211193WA0119501124000006095
B1628094232382N07211272WA0119301119000022104
B1628134232399N07211345WA0121101147000025083
B1628174232408N07211403WA0124601176000023066
B1628214232435N07211439WA0125501184000026074
B1628254232476N07211400WA0126001188000051105
B1628294232469N07211315WA0126801198000049115
F1628300107081417212227283013138
B1628334232411N07211267WA0127101203000041113
B1628374232353N07211293WA0127601210000033098
B1628414232342N07211352WA0129501231000022070
B1628454232380N07211376WA0131001237000033084
B1628494232416N07211323WA0131701245000030104
B1628534232399N07211238WA0132601250000022119
B1628574232335N07211203WA0133001253000026116
B1629014232286N07211253WA0133401263000036097
B1629054232285N07211319WA0135401284000035075
B1629094232324N07211339WA0136801292000038084
B1629134232357N07211277WA0137301294000043112
B1629174232332N07211191WA0138001304000032120
B1629214232265N07211166WA0138401307000033116
B1629254232218N07211218WA0139101319000028095
B1629294232215N07211282WA0140901338000028071
F162931010708131417212227283013138
B1629334232250N07211306WA0142401346000043075
B1629374232287N07211258WA0142801350000038104
B1629414232278N07211171WA0143601360000030116
B1629454232219N07211127WA0144401365000030115
B1629494232161N07211164WA0144901372000032098
B1629534232165N07211222WA0146401388000048070
B1629574232209N07211218WA0147101391000042093
B1630014232227N07211139WA0147901401000039114
B1630054232182N07211070WA0148701406000034120
B1630094232116N07211078WA0149201412000033108
B1630134232095N07211143WA0150101422000031078
B1630174232134N07211166WA0151201431000033085
B1630214232171N07211110WA0152301442000049107
B1630254232157N07211021WA0152801448000036123
B1630294232093N07210977WA0153501453000029120
B1630334232032N07211008WA0154201462000033102
B1630374232020N07211073WA0155101471000073075
B1630414232056N07211099WA0156301482000054078
B1630454232096N07211052WA0156701490000055102
B1630494232094N07210965WA0157701498000051117
B1630534232042N07210904WA0158301503000043118
B1630574231976N07210915WA0158601505000038107
B1631014231950N07210973WA0159601521000039070
B1631054231977N07211007WA0160701527000040070
B1631094232017N07210974WA0161101532000033095
B1631134232017N07210892WA0161801540000025113
B1631174231969N07210825WA0162301541000021120
B1631214231901N07210817WA0162401545000026111
B1631254231859N07210863WA0163601558000037076
B1631294231869N07210913WA0164101560000028067
B1631334231910N07210916WA0164801569000027077
B1631374231938N07210857WA0165501571000029106
B1631414231918N07210767WA0165501574000032123
B1631454231856N07210723WA0166201578000039118
B1631494231797N07210754WA0166301580000055100
B1631534231786N07210816WA0167101593000047067
B1631574231816N07210843WA0168101599000037065
B1632014231855N07210861WA0168201595000033073
B1632054231892N07210900WA0167301579000032088
B1632094231931N07210953WA0165701569000029094
B1632134231966N07211018WA0164501555000017105
B1632174232007N07211090WA0162801536000014119
B1632214232054N07211163WA0161901533000029119
B1632254232105N07211231WA0161801532000023119
B1632294232158N07211295WA0162101538000021119
B1632334232212N07211361WA0162701539000022122
B1632374232265N07211432WA0161801533000029126
B1632414232316N07211508WA0161701529000020128
B1632454232366N07211589WA0161901536000039129
B1632494232410N07211669WA0163401558000041115
B1632534232441N07211743WA0166301585000031096
B1632574232466N07211811WA0167501592000031095
B1633014232490N07211881WA0167501592000032097
B1633054232514N07211950WA0169001614000032086
B1633094232533N07212005WA0172201644000030067
B1633134232552N07212054WA0173001648000048071
B1633174232572N07212110WA0173301651000032079
B1633214232589N07212167WA0174601664000049072
B1633254232598N07212222WA0175201675000055070
B1633294232605N07212281WA0176801688000028072
B1633334232610N07212339WA0177601699000038071
B1633374232626N07212393WA0178201687000044077
B1633414232655N07212457WA0176001647000017110
B1633454232696N07212539WA0172301624000017128
B1633494232745N07212620WA0170701618000024130
B1633534232797N07212696WA0170701621000036126
B1633574232848N07212770WA0170901622000035124
B1634014232897N07212846WA0170701620000026124
B1634054232947N07212918WA0171001624000036119
B1634094232994N07212991WA0171001622000022120
B1634134233040N07213065WA0171001621000015118
B1634174233086N07213139WA0170601616000014120
B1634214233132N07213215WA0170201617000025121
B1634254233176N07213293WA0170201613000017121
B1634294233220N07213373WA0169401600000014125
F163432010708131417212227283013138
B1634334233264N07213452WA0168701604000022118
B1634374233306N07213529WA0168501594000016121
B1634414233347N07213612WA0167701592000022123
B1634454233389N07213688WA0168501607000028110
B1634494233433N07213749WA0169801615000036102
B1634534233481N07213798WA0170001614000027101
B1634574233531N07213849WA0169601608000014106
B1635014233578N07213908WA0168801599000016110
B1635054233626N07213973WA0167801588000012116
B1635094233683N07214030WA0166501577000009120
B1635134233745N07214081WA0165601567000008123
B1635174233808N07214134WA0164901565000020120
B1635214233864N07214183WA0165801579000019105
B1635254233915N07214230WA0166101573000013106
B1635294233971N07214279WA0164501557000017115
B1635334234031N07214319WA0165401577000023105
B1635374234088N07214354WA0166401578000028107
B1635414234147N07214393WA0166101576000028113
B1635454234207N07214431WA0166701587000028104
B1635494234259N07214472WA0167201589000026101
B1635534234311N07214516WA0167401592000010100
B1635574234349N07214578WA0167301590000023102
B1636014234373N07214656WA0167101586000019107
B1636054234400N07214738WA0166801583000014112
B1636094234429N07214819WA0166701581000014110
B1636134234454N07214902WA0166301578000013112
B1636174234480N07214989WA0166001578000019115
B1636214234506N07215073WA0166201584000037110
B1636254234531N07215152WA0166701587000028105
B1636294234555N07215233WA0166401579000022104
B1636334234581N07215305WA0166001576000013098
B1636374234609N07215380WA0165401566000019109
B1636414234634N07215466WA0164301557000012115
B1636454234660N07215552WA0163701555000019113
B1636494234683N07215637WA0163601551000014112
B1636534234709N07215723WA0163001550000017113
B1636574234739N07215804WA0163101550000031111
B1637014234771N07215883WA0163101548000034112
B1637054234807N07215960WA0162901547000025114
B1637094234846N07216034WA0163201556000032110
B1637134234887N07216100WA0164601568000029105
B1637174234930N07216160WA0165401583000051096
B1637214234972N07216204WA0167401595000027086
B1637254235017N07216249WA0166901581000035100
B1637294235070N07216297WA0165801575000025113
B1637334235130N07216336WA0166501594000043099
B1637374235177N07216350WA0170001635000039071
B1637414235221N07216357WA0171801635000033082
B1637454235270N07216384WA0172001644000030086
B1637494235304N07216430WA0173101651000044077
B1637534235340N07216475WA0172601633000033096
B1637574235403N07216491WA0170601619000036115
B1638014235475N07216500WA0169401608000032124
B1638054235551N07216514WA0168301596000036129
B1638094235628N07216527WA0167501590000028129
B1638134235706N07216535WA0166601582000016132
B1638174235787N07216540WA0166001577000010134
B1638214235866N07216553WA0165401569000027131
B1638254235942N07216567WA0165201572000020125
B1638294236014N07216584WA0165501573000013120
B1638334236086N07216602WA0164401558000013125
B1638374236159N07216623WA0163701556000016121
B1638414236228N07216645WA0163501553000014116
B1638454236295N07216670WA0163501554000026113
B1638494236357N07216688WA0164301564000013101
B1638534236417N07216707WA0164301556000023107
B1638574236480N07216735WA0163501555000024111
B1639014236542N07216760WA0163801560000024106
B1639054236606N07216773WA0164101558000014111
B1639094236676N07216779WA0163801552000010122
B1639134236749N07216782WA0163201552000017122
B1639174236821N07216786WA0163601559000022118
B1639214236892N07216792WA0164201566000027119
B1639254236958N07216793WA0165901595000028097
B1639294237005N07216771WA0169101627000038078
F163933010708131417212227283013138
B1639334237035N07216712WA0171001626000037107
B1639374237039N07216614WA0170501624000029128
B1639414237051N07216514WA0170601622000038121
B1639454237102N07216455WA0170301617000039109
B1639494237163N07216444WA0170401629000036098
B1639534237213N07216433WA0173001665000049072
B1639574237254N07216424WA0175001659000030074
B1640014237306N07216445WA0172001620000037109
B1640054237369N07216489WA0169601612000038122
B1640094237434N07216534WA0169501610000026124
B1640134237500N07216587WA0169101605000036130
B1640174237561N07216638WA0170501628000035111
B1640214237617N07216689WA0170601612000027118
B1640254237673N07216754WA0168901603000033124
B1640294237730N07216821WA0168301596000020128
B1640334237786N07216892WA0167701589000016129
B1640374237841N07216966WA0167201584000029128
F1640390107081314172122283013138
B1640414237889N07217044WA0167201589000031122
B1640454237935N07217117WA0167701593000020118
B1640494237984N07217192WA0167201583000015125
B1640534238033N07217270WA0166501580000017126
B1640574238085N07217346WA0166001575000018128
B1641014238136N07217420WA0166101578000017123
B1641054238179N07217500WA0165601570000024118
B1641094238218N07217574WA0165701575000013107
B1641134238258N07217643WA0165801574000011111
B1641174238297N07217715WA0166501587000025103
B1641214238331N07217774WA0169101614000024082
B1641254238359N07217823WA0170901627000026074
B1641294238382N07217874WA0171101628000014075
B1641334238411N07217928WA0170701614000028092
B1641374238459N07217967WA0169901628000029089
B1641414238509N07217981WA0171701645000029083
B1641454238558N07217992WA0172701638000030087
B1641494238609N07218020WA0171601621000016097
B1641534238664N07218064WA0169601603000009113
B1641574238728N07218100WA0168601602000019115
B1642014238793N07218133WA0168701603000009115
B1642054238856N07218176WA0168601599000026120
B1642094238909N07218217WA0169901638000042086
B1642134238953N07218247WA0172401635000030084
B1642174238995N07218302WA0170101598000039112
F16421901070813141721283013138
B1642214239043N07218376WA0166901578000019125
B1642254239090N07218453WA0166001573000021122
B1642294239139N07218525WA0165301567000014119
B1642334239190N07218596WA0164501552000011124
B1642374239234N07218679WA0163401552000020124
B1642414239276N07218747WA0165201589000030094
B1642454239312N07218795WA0168901617000038077
B1642494239341N07218839WA0171001630000038070
B1642534239379N07218867WA0171101629000035081
B1642574239429N07218869WA0171401634000030081
B1643014239478N07218866WA0171601633000031084
B1643054239529N07218851WA0171701637000031091
B1643094239581N07218822WA0172001638000033097
B1643134239635N07218794WA0172601646000028096
B1643174239687N07218764WA0172901646000037093
F1643200107081314172122283013138
B1643214239739N07218770WA0173201650000032088
B1643254239776N07218818WA0174201664000037082
B1643294239806N07218866WA0175001668000038075
B1643334239838N07218911WA0173901649000022084
B1643374239880N07218970WA0170601611000016116
B1643414239933N07219037WA0169101606000017123
B1643454239987N07219105WA0168701600000015125
B1643494240047N07219171WA0167701590000017133
B1643534240112N07219231WA0167901594000028128
B1643574240177N07219283WA0168001594000018124
B1644014240242N07219332WA0167201585000017125
B1644054240306N07219382WA0166601579000016121
B1644094240367N07219434WA0165801570000019122
B1644134240433N07219481WA0164901560000017125
B1644174240502N07219525WA0164401554000032128
B1644214240573N07219570WA0163601547000022132
B1644254240645N07219609WA0163101547000019127
B1644294240714N07219653WA0163001542000022127
B1644334240780N07219699WA0162601545000026121
B1644374240842N07219746WA0163101549000015117
B1644414240898N07219803WA0163501555000026113
B1644454240945N07219864WA0164501564000026106
B1644494240985N07219933WA0164501555000013112
B1644534241025N07220008WA0163501551000016114
B1644574241068N07220080WA0163501550000010115
B1645014241111N07220154WA0163101544000022116
B1645054241155N07220227WA0162501541000014115
B1645094241195N07220301WA0162601542000019111
B1645134241235N07220374WA0162501544000013113
B1645174241281N07220438WA0163501556000025109
B1645214241323N07220487WA0166101601000026071
B1645254241352N07220513WA0170301625000028054
B1645294241392N07220505WA0170201609000036079
B1645334241438N07220515WA0168601603000039081
B1645374241467N07220570WA0168201595000042091
B1645414241473N07220648WA0167901605000041092
B1645454241481N07220715WA0170501631000043078
B1645494241455N07220772WA0171601630000033100
B1645534241387N07220776WA0171001627000030126
B1645574241330N07220711WA0171401631000032127
B1646014241322N07220615WA0171701636000039119
B1646054241358N07220544WA0172501646000031096
B1646094241406N07220539WA0173401655000031077
B1646134241437N07220580WA0174201665000040070
B1646174241449N07220631WA0176101678000045067
B1646214241420N07220687WA0176001676000037110
B1646254241350N07220693WA0176301681000053128
B1646294241302N07220620WA0177801697000046121
B1646334241308N07220527WA0178901708000042113
B1646374241355N07220476WA0180001718000056093
B1646414241399N07220495WA0180201718000053078
B1646454241401N07220562WA0180501722000037094
B1646494241360N07220622WA0181701735000031104
B1646534241302N07220653WA0182301741000037112
B1646574241238N07220611WA0182401742000040129
F16465901070814172122283013138
B1647014241225N07220519WA0183401767000030110
B1647054241265N07220464WA0185801783000016090
B1647094241311N07220480WA0186901783000031081
B1647134241312N07220548WA0186701784000030093
B1647174241263N07220594WA0186901789000030109
B1647214241199N07220577WA0187701798000028118
B1647254241167N07220495WA0188401807000031116
B1647294241197N07220423WA0189601820000049093
B1647334241243N07220427WA0190801823000056079
B1647374241283N07220469WA0190501813000034092
B1647414241333N07220519WA0189601804000034111
B1647454241389N07220573WA0189101805000041116
B1647494241452N07220618WA0190001815000031119
B1647534241512N07220664WA0190501820000032112
B1647574241566N07220716WA0190301808000020113
F1648000107081314172122283013138
B1648014241616N07220780WA0189101798000019113
B1648054241655N07220851WA0188701799000014108
B1648094241693N07220923WA0188401789000013112
B1648134241729N07221004WA0187001776000014120
B1648174241764N07221088WA0186401776000016115
B1648214241798N07221166WA0186801780000016109
B1648254241834N07221242WA0186501773000011114
B1648294241866N07221326WA0185801767000014117
B1648334241902N07221408WA0185301762000011118
B1648374241944N07221487WA0184601754000014121
B1648414241987N07221566WA0184001753000015121
B1648454242032N07221641WA0184901762000022115
B1648494242078N07221705WA0185501766000029108
B1648534242118N07221765WA0186401775000026095
B1648574242156N07221828WA0185101757000014107
F164901010708131417192122283013138
B1649014242198N07221898WA0184001748000014111
B1649054242238N07221969WA0183801753000014107
B1649094242279N07222032WA0184301754000009104
B1649134242319N07222100WA0183701747000016109
B1649174242355N07222171WA0183901750000016102
B1649214242385N07222244WA0183101741000019105
B1649254242410N07222322WA0182201733000011106
B1649294242432N07222407WA0180401712000022117
B1649334242456N07222500WA0179501704000012121
B1649374242478N07222592WA0179001704000022117
B1649414242501N07222678WA0179001705000028108
B1649454242525N07222757WA0179101707000014101
B1649494242545N07222834WA0178901698000008104
B1649534242560N07222920WA0177701685000007112
B1649574242572N07223011WA0176501678000008116
B1650014242586N07223098WA0176801697000032098
B1650054242607N07223166WA0178501704000014090
B1650094242651N07223215WA0178501693000020106
B1650134242717N07223232WA0177301682000029116
B1650174242788N07223227WA0176201672000036120
B1650214242861N07223222WA0174901658000025125
B1650254242936N07223220WA0173901654000017123
B1650294243008N07223218WA0173701657000014117
B1650334243077N07223216WA0174001657000013115
B1650374243139N07223250WA0173601647000018115
B1650414243172N07223334WA0173201652000029115
B1650454243189N07223422WA0173901659000027112
B1650494243196N07223512WA0174001654000026112
B1650534243196N07223605WA0173101646000018117
B1650574243197N07223701WA0172701649000014115
B1651014243209N07223790WA0174001666000038104
B1651054243222N07223862WA0176201688000040083
B1651094243231N07223921WA0178301708000032069
B1651134243235N07223978WA0179101710000033073
B1651174243245N07224043WA0179001707000024087
B1651214243265N07224102WA0179301715000030075
B1651254243291N07224156WA0179001701000022086
B1651294243325N07224216WA0177201682000022098
B1651334243366N07224279WA0175901672000011104
B1651374243408N07224339WA0175501668000006103
B1651414243451N07224401WA0174501656000008108
B1651454243494N07224471WA0173401646000011113
B1651494243533N07224545WA0173001646000014110
B1651534243570N07224614WA0173401651000010103
B1651574243601N07224686WA0174801664000017100
B1652014243625N07224755WA0176101679000029085
B1652054243650N07224808WA0176701683000017075
B1652094243678N07224859WA0175601669000015083
B1652134243703N07224920WA0175001661000008088
B1652174243725N07224985WA0174401656000005089
B1652214243746N07225058WA0173401639000006103
B1652254243767N07225140WA0172001634000009106
B1652294243789N07225220WA0171701629000008106
B1652334243810N07225303WA0170701616000005111
B1652374243833N07225389WA0169801622000023107
B1652414243859N07225464WA0170901628000015101
B1652454243886N07225541WA0170601615000008110
B1652494243916N07225622WA0169601617000013108
B1652534243949N07225696WA0170001617000011106
B1652574243985N07225768WA0170101622000019105
B1653014244024N07225833WA0171001631000014102
B1653054244063N07225900WA0171401636000032100
B1653094244095N07225943WA0174001673000024063
B1653134244124N07225980WA0175201660000019072
B1653174244155N07226033WA0173301638000016093
B1653214244176N07226111WA0171201621000013111
B1653254244190N07226200WA0170201617000008109
B1653294244202N07226287WA0169501607000006111
B1653334244208N07226383WA0167701584000008125
B1653374244211N07226487WA0165701572000010128
B1653414244211N07226590WA0164901565000011125
B1653454244216N07226691WA0164001556000010122
B1653494244223N07226789WA0163101549000009120
B1653534244234N07226884WA0162901547000007115
B1653574244245N07226977WA0162301538000006117
B1654014244251N07227074WA0161301527000006122
F165402010708131417192122283013138
B1654054244256N07227176WA0159801516000011126
B1654094244267N07227273WA0160001521000011115
B1654134244282N07227361WA0160401523000006111
B1654174244299N07227452WA0159701512000008119
B1654214244318N07227548WA0158901507000008122
B1654254244340N07227641WA0159001512000023117
B1654294244363N07227728WA0159601517000027111
B1654334244386N07227812WA0159801518000030109
B1654374244411N07227894WA0159701517000018109
B1654414244437N07227977WA0159201511000010113
B1654454244462N07228067WA0158001495000013121
B1654494244485N07228161WA0157201490000018121
B1654534244504N07228255WA0157101489000013119
B1654574244523N07228348WA0156501484000022118
B1655014244543N07228439WA0156201482000015116
B1655054244562N07228530WA0155901471000013116
B1655094244584N07228620WA0154501459000013116
B1655134244604N07228711WA0153401449000020118
B1655174244620N07228807WA0152201431000025125
B1655214244642N07228908WA0150301419000033133
B1655254244655N07229015WA0149901423000033131
B1655294244663N07229111WA0151101445000026110
B1655334244674N07229199WA0152801445000016112
B1655374244683N07229284WA0152701463000031091
B1655414244690N07229354WA0154401459000019091
B1655454244696N07229437WA0152701437000012110
B1655494244701N07229531WA0150801422000014118
B1655534244702N07229629WA0149501407000015123
B1655574244704N07229729WA0148001392000016122
B1656014244710N07229829WA0146201374000019127
B1656054244710N07229935WA0144801366000022132
B1656094244710N07230041WA0144501372000017126
B1656134244706N07230142WA0145201376000028123
B1656174244696N07230241WA0145601380000022122
B1656214244684N07230335WA0146201392000029112
B1656254244677N07230418WA0148201416000032095
F1656290107081314171921222830133
B1656294244661N07230489WA0150301436000031089
B1656334244635N07230547WA0152401456000022080
B1656374244622N07230605WA0153401459000033073
B1656414244641N07230653WA0154601475000035067
B1656454244683N07230648WA0155801484000054089
B1656494244707N07230575WA0156901494000054112
B1656534244673N07230497WA0157901503000054118
B1656574244610N07230480WA0158601508000046102
B1657014244566N07230525WA0158501516000043088
B1657054244550N07230585WA0160101531000058070
B1657094244570N07230627WA0160801534000032068
B1657134244613N07230613WA0161101536000030090
B1657174244630N07230536WA0161801542000029111
B1657214244598N07230455WA0162901554000047113
B1657254244544N07230408WA0163901559000039103
B1657294244487N07230415WA0163701555000038096
F165730010708131417192122283013138
B1657334244446N07230466WA0163801563000033087
B1657374244426N07230524WA0165301577000030072
B1657414244433N07230576WA0165901582000031062
B1657454244467N07230590WA0166201585000028071
B1657494244500N07230543WA0166201582000025096
B1657534244498N07230458WA0166101580000023117
B1657574244446N07230385WA0165801576000022130
B1658014244374N07230361WA0166001585000025120
B1658054244306N07230361WA0167001600000027109
B1658094244243N07230366WA0168201603000022102
B1658134244194N07230403WA0167901603000027086
B1658174244183N07230460WA0168201597000027072
B1658214244225N07230487WA0167301586000027092
B1658254244283N07230489WA0166301580000028100
B1658294244346N07230492WA0165601577000024107
B1658334244410N07230494WA0165801580000030107
B1658374244473N07230490WA0166601595000036102
B1658414244532N07230487WA0168201607000032099
B1658454244594N07230482WA0168901614000043102
B1658494244651N07230470WA0170301628000031097
B1658534244714N07230462WA0170401618000036111
B1658574244783N07230460WA0169501614000036117
B1659014244853N07230458WA0169901623000038112
B1659054244918N07230455WA0170501621000032108
B1659094244988N07230451WA0169501618000020120
B1659134245057N07230440WA0170601632000028112
B1659174245124N07230435WA0171401637000026111
B1659214245192N07230431WA0171401632000037116
B1659254245263N07230436WA0170601621000026123
B1659294245338N07230437WA0169401610000012126
B1659334245414N07230439WA0168301601000009128
B1659374245491N07230441WA0167601595000016126
B1659414245564N07230439WA0167501597000016117
B1659454245632N07230437WA0167701597000008110
B1659494245700N07230432WA0166701586000011121
B1659534245768N07230410WA0167401599000011110
B1659574245831N07230402WA0168801615000017098
B1700014245884N07230405WA0170801633000031081
B1700054245929N07230409WA0172001641000037071
B1700094245976N07230416WA0170601620000019088
B1700134246037N07230433WA0167801596000011113
B1700174246105N07230447WA0166601586000006116
B1700214246174N07230460WA0165401574000017118
B1700254246246N07230471WA0164101561000019122
B1700294246319N07230477WA0164001563000016121
B1700334246390N07230485WA0163801553000014118
B1700374246461N07230502WA0162801548000011119
B1700414246530N07230512WA0162701555000017112
B1700454246591N07230525WA0163701566000017096
B1700494246644N07230541WA0164801577000020085
B1700534246694N07230554WA0165301569000017087
B1700574246747N07230569WA0164501576000020088
B1701014246793N07230573WA0166101590000023073
B1701054246842N07230583WA0166201576000019091
B1701094246892N07230593WA0165801593000025078
B1701134246938N07230603WA0167201592000027080
B1701174246988N07230614WA0167001600000027087
B1701214247038N07230598WA0168401615000028089
B1701254247081N07230552WA0169501622000035092
B1701294247110N07230484WA0170701631000031110
B1701334247087N07230399WA0171701642000028115
B1701374247026N07230370WA0172001635000029107
B1701414246983N07230411WA0171201631000034079
B1701454247003N07230459WA0171201634000028072
B1701494247045N07230471WA0171901644000026074
B1701534247090N07230464WA0172601650000033078
B1701574247137N07230447WA0173101656000027081
B1702014247183N07230432WA0174101666000034076
B1702054247227N07230395WA0174601664000031106
B1702094247241N07230301WA0174301661000033130
B1702134247201N07230219WA0175001675000036114
B1702174247141N07230201WA0176001678000029099
B1702214247098N07230244WA0176201686000026083
B1702254247090N07230304WA0177301697000036070
F1702290107081314172122283013138
B1702294247120N07230340WA0178101698000037082
B1702334247172N07230307WA0177801694000036115
B1702374247188N07230209WA0177901696000028133
B1702414247157N07230112WA0178201704000029128
B1702454247100N07230054WA0179501715000027112
B1702494247038N07230055WA0179901718000027099
B1702534246996N07230104WA0180001722000022091
B1702574246978N07230167WA0181101734000028075
B1703014246977N07230222WA0182701745000041063
B1703054246981N07230277WA0181701732000025076
B1703094246994N07230344WA0180501721000008093
B1703134247014N07230421WA0180201713000025104
B1703174247036N07230503WA0179201709000027108
B1703214247056N07230583WA0179601717000019103
B1703254247077N07230667WA0179701706000012116
B1703294247095N07230763WA0178601701000026124
F170330010708131417192122283013138
B1703334247116N07230857WA0178701711000026115
B1703374247136N07230945WA0179501718000025109
B1703414247154N07231027WA0180501721000027105
B1703454247170N07231113WA0180001714000015111
B1703494247187N07231200WA0179701711000010111
B1703534247202N07231288WA0178901704000011111
B1703574247216N07231378WA0178401703000010113
B1704014247233N07231466WA0178601708000020112
B1704054247249N07231552WA0179501723000028104
B1704094247258N07231629WA0181401740000029087
B1704134247260N07231695WA0182801749000024077
B1704174247260N07231757WA0183201750000017079
B1704214247264N07231827WA0182401735000008095
B1704254247279N07231910WA0180701716000006111
B1704294247309N07231992WA0179601717000014110
F17043101070813141719212228301313138
B1704334247352N07232045WA0181601749000031081
B1704374247386N07232071WA0184601772000027056
B1704414247414N07232100WA0185801779000030060
B1704454247432N07232149WA0186901790000026075
B1704494247416N07232214WA0187501790000025104
B1704534247352N07232260WA0187501794000040135
B1704574247278N07232227WA0188901810000053131
B1705014247242N07232138WA0189401807000038125
B1705054247263N07232052WA0189301809000029102
B1705094247312N07232031WA0189701814000030085
B1705134247353N07232071WA0190901828000034086
B1705174247356N07232146WA0191801834000052106
B1705214247303N07232207WA0192201838000036131
B1705254247224N07232192WA0193001847000040137
B1705294247180N07232106WA0194001857000036127
F170532010708131417192122283013138
B1705334247188N07232014WA0194701861000026109
B1705374247231N07231962WA0195201867000024090
B1705414247274N07231988WA0196301881000033082
B1705454247268N07232059WA0197501889000038106
B1705494247206N07232101WA0198101897000039129
B1705534247137N07232058WA0198901903000035132
B1705574247126N07231964WA0199401912000034110
B1706014247168N07231928WA0200401922000041078
B1706054247189N07231982WA0201201926000037095
B1706094247139N07232037WA0201401929000026132
B1706134247067N07231996WA0201801933000030137
B1706174247053N07231899WA0202601950000033111
B1706214247092N07231853WA0204201960001040075
B1706254247123N07231883WA0204801963001028076
B1706294247100N07231948WA0204901958001026113
B1706334247025N07231953WA0204601960000036138
B1706374246983N07231870WA0205201963000035121
B1706414247016N07231805WA0205101960000036089
B1706454247065N07231807WA0205101969000031078
B1706494247112N07231820WA0205501964000027087
B1706534247169N07231847WA0204301952000034112
B1706574247234N07231886WA0203601946000041123
B1707014247299N07231931WA0203201945000033123
B1707054247362N07231982WA0203301950000028122
B1707094247422N07232035WA0204401961000042116
B1707134247480N07232090WA0204601957000026123
B1707174247544N07232146WA0204601959000030129
B1707214247612N07232204WA0204201943000027138
B1707254247681N07232270WA0202701940000026140
B1707294247747N07232334WA0204001954000029131
B1707334247806N07232396WA0205801974000036119
B1707374247863N07232449WA0207001980000037115
B1707414247925N07232504WA0206101963000024134
B1707454247996N07232562WA0204801959000030137
B1707494248061N07232620WA0205601966000037125
B1707534248123N07232682WA0204501948000023133
B1707574248188N07232746WA0203201937000019135
B1708014248254N07232805WA0202701936000029127
B1708054248321N07232852WA0202701936000023124
B1708094248390N07232889WA0202501935000017127
B1708134248463N07232927WA0202001930000019132
B1708174248536N07232964WA0201801930000029127
B1708214248603N07233005WA0201701929000028122
B1708254248670N07233045WA0201701930000020120
B1708294248736N07233082WA0201401926000017121
B1708334248805N07233116WA0201101921000020124
B1708374248875N07233144WA0201001926000020118
B1708414248943N07233166WA0201301926000019116
B1708454249012N07233182WA0201301926000014117
B1708494249082N07233193WA0201201925000013118
B1708534249153N07233204WA0201001922000018120
B1708574249222N07233215WA0201101932000026114
B1709014249290N07233230WA0202101936000023116
B1709054249359N07233253WA0202201939000032117
B1709094249421N07233277WA0203401961000026100
B1709134249472N07233310WA0205401972000022093
B1709174249514N07233358WA0206201976000030091
B1709214249555N07233415WA0205501952000016112
B1709254249596N07233494WA0203501942000026120
B1709294249636N07233573WA0202901942000026116
B1709334249671N07233652WA0203501949000030109
B1709374249702N07233723WA0204601962000035094
B1709414249733N07233789WA0204601945000015101
B1709454249765N07233864WA0202401931000019108
B1709494249795N07233939WA0202501935000025104
B1709534249824N07234018WA0201901928000020110
B1709574249855N07234099WA0201201921000014114
B1710014249889N07234181WA0200801918000012118
B1710054249921N07234270WA0199901912000013124
B1710094249953N07234359WA0200601926000025114
B1710134249981N07234432WA0203301955000027092
B1710174250004N07234498WA0204501954000019093
B1710214250035N07234568WA0203301939000019103
B1710254250069N07234635WA0202701938000018099
B1710294250108N07234701WA0201701922000012109
F171033010708131417192122283013138
B1710334250146N07234778WA0200201910000021115
B1710374250181N07234859WA0199201901000021117
B1710414250223N07234939WA0198101889000029123
B1710454250270N07235012WA0198101896000017117
B1710494250321N07235078WA0198001890000016117
B1710534250380N07235133WA0197301884000015124
B1710574250444N07235176WA0198101897000022113
B1711014250507N07235204WA0198801900000016111
B1711054250573N07235238WA0197801891000029123
B1711094250639N07235274WA0199001907000036116
B1711134250703N07235300WA0199901915000035107
B1711174250766N07235327WA0199701897000018114
B1711214250832N07235362WA0197501877000012124
B1711254250902N07235395WA0196001874000009123
B1711294250970N07235429WA0196101876000014117
B1711334251032N07235473WA0196001869000016119
F17113401030708131417192122283013138
B1711374251092N07235519WA0196001891000033107
B1711414251140N07235563WA0198701921000030086
B1711454251175N07235602WA0201701945000035068
B1711494251207N07235633WA0203401956000028062
B1711534251236N07235665WA0204401957000032069
B1711574251275N07235697WA0204001955000028081
B1712014251322N07235728WA0203901944000029096
B1712054251378N07235755WA0202701942000023099
B1712094251436N07235777WA0202601940000008100
B1712134251495N07235801WA0201701926000016106
B1712174251553N07235831WA0201101928000008100
B1712214251604N07235868WA0201601932000026095
B1712254251649N07235918WA0201401929000012099
B1712294251692N07235971WA0201601928000021092
B1712334251733N07236019WA0200701915000018093
B1712374251763N07236088WA0199201901000024104
B1712414251786N07236167WA0198401896000019104
B1712454251808N07236242WA0198901911000016092
B1712494251827N07236311WA0199701910000011094
B1712534251849N07236391WA0198701896000012113
B1712574251871N07236477WA0198301897000013112
B1713014251890N07236563WA0198701906000022107
B1713054251910N07236642WA0199601913000042100
B1713094251932N07236718WA0199601907000032103
B1713134251956N07236798WA0198901901000041108
B1713174251980N07236878WA0198901905000032104
F1713190103070813141719212228301313138
B1713214252009N07236953WA0199301907000033104
B1713254252037N07237029WA0199301907000024105
B1713294252064N07237108WA0199601913000013105
B1713334252090N07237181WA0200301919000025097
B1713374252118N07237254WA0199101899000012108
B1713414252149N07237338WA0197601886000014117
B1713454252187N07237419WA0197501890000028115
B1713494252228N07237487WA0199501915000033100
B1713534252262N07237547WA0200701935000031086
B1713574252294N07237596WA0202501946000033078
B1714014252326N07237640WA0203301948000026076
B1714054252362N07237681WA0203301934000018084
B1714094252410N07237727WA0201001904000010111
B1714134252469N07237781WA0198301890000011123
B1714174252532N07237833WA0197401891000011121
F17142001030708131417192122283013138
B1714214252596N07237877WA0198001891000018121
B1714254252661N07237911WA0198201905000024111
B1714294252725N07237944WA0198801892000012120
B1714334252797N07237979WA0197001874000011131
B1714374252870N07238015WA0195901874000012128
B1714414252942N07238053WA0196101877000016129
B1714454253013N07238085WA0196601884000035121
B1714494253081N07238113WA0197001888000028117
B1714534253149N07238143WA0196901874000017124
B1714574253224N07238177WA0195301866000017132
B1715014253302N07238202WA0194701861000014135
B1715054253382N07238223WA0194101851000013137
B1715094253464N07238245WA0193101843000014141
B1715134253545N07238273WA0192901842000021137
B1715174253625N07238301WA0192101833000030137
B1715214253699N07238329WA0192301847000035118
B1715254253759N07238353WA0194601864000039097
B1715294253810N07238384WA0195001859000018092
B1715334253861N07238426WA0192901835000016106
B1715374253914N07238480WA0191201825000015112
B1715414253960N07238541WA0191201827000026105
B1715454253980N07238626WA0190701816000016117
B1715494253980N07238724WA0189601809000011121
B1715534253979N07238820WA0189701814000008115
B1715574253980N07238914WA0189501810000008118
B1716014253986N07239011WA0189201808000026118
B1716054253992N07239104WA0189701813000030113
B1716094254003N07239194WA0189801812000019112
B1716134254024N07239283WA0189501813000025112
B1716174254045N07239361WA0191601836000020095
B1716214254061N07239426WA0193401857000033069
B1716254254067N07239474WA0194701861000030060
B1716294254077N07239534WA0192101829000015093
B1716334254109N07239600WA0190901822000009100
B1716374254153N07239657WA0190601826000027100
B1716414254194N07239698WA0192201858000026072
B1716454254226N07239728WA0194701865000025060
F171649010708131417192122283013138
B1716494254260N07239764WA0194201836000024091
B1716534254309N07239813WA0191501819000016107
B1716574254365N07239870WA0189901810000012118
B1717014254420N07239931WA0189201803000012122
B1717054254469N07240007WA0188601800000025124
B1717094254502N07240092WA0189101812000034117
B1717134254510N07240188WA0190001815000016122
B1717174254509N07240288WA0190601836000035115
B1717214254498N07240370WA0193201858000036093
B1717254254493N07240444WA0194301852000012094
B1717294254512N07240517WA0192801833000005100
B1717334254557N07240569WA0191401825000006100
B1717374254609N07240622WA0189801797000011120
B1717414254668N07240676WA0188001794000009118
B1717454254727N07240731WA0187401783000020121
B1717494254785N07240798WA0185101754000028135
B1717534254841N07240875WA0183701759000028124
B1717574254893N07240939WA0184501758000019116
F17175901030708131417192122283013138
B1718014254949N07241001WA0183501750000018118
B1718054255003N07241062WA0182901745000018118
B1718094255066N07241107WA0183001751000025118
B1718134255123N07241145WA0185101780000030093
B1718174255171N07241179WA0186901786000019090
B1718214255219N07241217WA0186401779000022098
B1718254255274N07241251WA0186001779000033098
B1718294255324N07241283WA0186601784000016090
B1718334255376N07241313WA0186301782000019093
B1718374255415N07241356WA0187201791000027081
B1718414255443N07241409WA0187201789000009081
B1718454255481N07241455WA0186801787000019087
B1718494255521N07241501WA0187101789000028089
B1718534255558N07241553WA0187301789000022088
B1718574255597N07241605WA0187101789000031089
B1719014255630N07241663WA0186601779000018096
B1719054255660N07241730WA0186401779000013095
B1719094255687N07241797WA0186601784000016094
B1719134255709N07241867WA0187401794000024089
B1719174255731N07241931WA0188401802000022087
B1719214255753N07241998WA0188901809000018090
B1719254255765N07242070WA0189601809000025099
B1719294255733N07242149WA0188901802000014125
B1719334255660N07242194WA0188801799000025141
B1719374255576N07242177WA0188101794000028145
B1719414255519N07242094WA0187901800000041132
B1719454255510N07241996WA0188601805000039118
B1719494255527N07241905WA0188601803000033114
B1719534255553N07241820WA0188601811000026109
B1719574255576N07241742WA0189701820000037101
B1720014255589N07241655WA0190201820000037116
B1720054255568N07241562WA0190301822000030127
B1720094255502N07241509WA0190101816000029132
B1720134255427N07241516WA0189801816000032119
B1720174255381N07241574WA0190101815000027100
B1720214255385N07241649WA0190301820000039090
B1720254255413N07241702WA0191001825000039078
B1720294255459N07241720WA0190501825000029082
B1720334255510N07241715WA0190801824000025093
B1720374255564N07241675WA0190201815000034111
B1720414255606N07241596WA0189901821000043128
B1720454255584N07241501WA0192101840000041127
B1720494255514N07241476WA0192101834000043124
B1720534255471N07241544WA0191801830000041110
B1720574255490N07241622WA0191901839000044096
B1721014255532N07241669WA0192601845000033091
B1721054255585N07241686WA0193401852000043093
B1721094255636N07241654WA0193901857000031102
B1721134255662N07241574WA0194201855000028121
B1721174255624N07241484WA0193901852000028135
B1721214255551N07241466WA0194101858000031118
B1721254255504N07241520WA0194901866000028097
B1721294255500N07241594WA0195201871000024090
B1721334255524N07241657WA0196001876000026084
B1721374255559N07241702WA0196101876000024081
B1721414255593N07241756WA0194901861000028095
B1721454255629N07241830WA0193401849000028113
B1721494255664N07241896WA0195101870000030089
B1721534255698N07241946WA0196001881000024080
B1721574255732N07242000WA0196201868000026097
B1722014255766N07242056WA0195701891000028074
B1722054255791N07242097WA0198101904000030061
B1722094255821N07242138WA0198501888000036085
B1722134255862N07242182WA0197301889000030086
B1722174255902N07242224WA0197801901000031084
B1722214255935N07242269WA0199101918000030062
B1722254255951N07242303WA0201101929000026046
B1722294255974N07242343WA0200301907000026077
B1722334256009N07242379WA0199701919000026070
B1722374256046N07242416WA0200101899000017091
F172239010708131417192122283013138
B1722414256098N07242465WA0197901890000016112
B1722454256159N07242493WA0198501915000025105
B1722494256214N07242471WA0201901946000030096
B1722534256233N07242396WA0203901956000018108
B1722574256191N07242327WA0204401958000020119
B1723014256126N07242336WA0204801963000025102
B1723054256097N07242398WA0205001964000026090
B1723094256116N07242465WA0205401974000024090
B1723134256160N07242498WA0206701976000026089
B1723174256214N07242463WA0205401962000030115
B1723214256225N07242372WA0206001981000036114
B1723254256193N07242291WA0207501990000031116
B1723294256131N07242262WA0208101997000027107
B1723334256086N07242309WA0208702002000030095
B1723374256097N07242377WA0209902015000027089
F17234001030708131417192122283013138
B1723414256146N07242396WA0210102013000033093
B1723454256185N07242341WA0210202014000030101
B1723494256178N07242258WA0209902009000036109
B1723534256127N07242201WA0209802013000030108
B1723574256070N07242163WA0210002008000032112
B1724014256005N07242139WA0209602009000024107
B1724054255947N07242156WA0209402009000029097
B1724094255912N07242213WA0209502009000020090
B1724134255901N07242278WA0211402033000017072
B1724174255896N07242331WA0211902032000022063
B1724214255896N07242389WA0210002006000026087
B1724254255897N07242470WA0207601987000032105
B1724294255894N07242556WA0206801979000015108
B1724334255890N07242645WA0206401973000013108
B1724374255887N07242730WA0205901970000010103
F1724410103070813141719212228301313138
B1724414255886N07242818WA0205101950000008114
B1724454255889N07242913WA0203201944000022113
B1724494255897N07243004WA0202801935000016113
B1724534255903N07243094WA0201801934000019109
B1724574255910N07243186WA0201301916000022122
B1725014255916N07243285WA0199801918000015118
B1725054255919N07243378WA0200501924000011112
B1725094255923N07243469WA0200701919000017113
B1725134255934N07243556WA0200501920000015104
B1725174255974N07243618WA0200401912000013104
B1725214256017N07243683WA0199201905000021108
B1725254256051N07243755WA0199001903000024101
B1725294256096N07243814WA0198401893000031108
B1725334256147N07243865WA0197801894000030104
B1725374256203N07243898WA0198101897000026101
B1725414256260N07243924WA0198201898000024098
F17254201030708131417192122283013138
B1725454256311N07243960WA0198001892000011096
B1725494256361N07244006WA0196901879000016105
B1725534256412N07244047WA0196501880000012096
B1725574256468N07244075WA0195801870000021103
B1726014256530N07244084WA0195401873000017106
B1726054256593N07244084WA0196001875000023103
B1726094256657N07244094WA0195301872000020108
B1726134256722N07244095WA0194701856000024112
B1726174256789N07244096WA0193301851000020108
B1726214256855N07244090WA0192501834000022118
B1726254256928N07244077WA0190901823000023123
B1726294256997N07244067WA0191601840000022108
B1726334257061N07244056WA0192501841000013111
B1726374257131N07244054WA0192301849000030114
B1726414257189N07244061WA0196001883000052086
B1726454257202N07244119WA0197901896000037093
B1726494257144N07244160WA0197601890000032132
B1726534257068N07244113WA0197101884000036147
B1726574257039N07244007WA0197501894000028134
B1727014257045N07243902WA0199101910000032123
B1727054257080N07243829WA0199901914000030095
B1727094257122N07243856WA0199401906000036090
B1727134257089N07243920WA0199901922000030119
B1727174257014N07243899WA0201401934000029140
B1727214256971N07243804WA0202101942000025137
B1727254256985N07243709WA0202701941000028110
F172729010708131417192122283013138
B1727294257035N07243692WA0202501934000031085
B1727334257043N07243756WA0201701937000027095
B1727374256995N07243808WA0202201947000026113
B1727414256923N07243808WA0203101951000028133
B1727454256871N07243723WA0203001950000035139
B1727494256899N07243639WA0203201950000039105
B1727534256950N07243639WA0203101947000038082
B1727574256980N07243689WA0203401953000026077
B1728014257009N07243740WA0204001959000027081
B1728054257042N07243793WA0204401962000024087
B1728094257077N07243837WA0205701985000022068
B1728134257109N07243866WA0207201982000025069
B1728174257153N07243893WA0206101961000029095
B1728214257219N07243901WA0203901950000033120
B1728254257292N07243896WA0203501948000027125
B1728294257362N07243882WA0204201965000031111
F17283001030708131417192122283013138
B1728334257428N07243862WA0204501959000040117
B1728374257496N07243837WA0204301956000025117
B1728414257569N07243827WA0203501945000022123
B1728454257641N07243827WA0203201946000022118
B1728494257712N07243828WA0202401933000014122
B1728534257787N07243827WA0201201923000014128
B1728574257866N07243807WA0200101913000016136
B1729014257944N07243774WA0199001901000015138
B1729054258025N07243746WA0197501885000015140
B1729094258106N07243722WA0196601880000015134
B1729134258182N07243699WA0196001876000015128
B1729174258257N07243678WA0195401866000013128
