ANKL0ZH
HFDTE230621
HFFXA050
HFPLTPILOT:Nelson Howe
HFGTYGLIDERTYPE:Discus 2b
HFGIDGLIDERID:1X       .
HFDTM100GPSDATUM:
HFRFWFIRMWAREVERSION:40 2011-6-17
HFRHWHARDWAREVERSION: NKL ClearNav V1.0
HFFTYFRTYPE:Nielsen Kellerman, ClearNav-IGC
HFGPS:UBLOX,LEA-4H-0-000-1,16Ch,18000 
HFPRSPRESSALTSENSOR:Intersema,MS5534B,20000 
I033638FXA3941ENL4247REX
C230621144237000000000102
C0000000N00000000WTAKEOFF     
C4225500N07147470WSterlingStrt
C4411749N07144967WFranconia
C4331750N07256966WRutlandStat
C4225500N07147470WSterling
C0000000N00000000WLANDING     
B1510384225410N07147427WA0009600141001027002008
B1510394225410N07147427WA0009600141001034002008
B1510404225410N07147427WA0009500141001034002008
B1510414225410N07147427WA0009600141001032002008
B1510424225410N07147427WA0009600141001029002008
B1510434225410N07147427WA0009600141001024002008
B1510444225410N07147427WA0009500141001024002008
B1510454225410N07147427WA0009600140001027002008
B1510464225410N07147427WA0009500140001029002008
B1510474225410N07147427WA0009600140001032002008
B1510484225410N07147427WA0009600140001027002008
B1510494225410N07147427WA0009600140001020002008
B1510504225410N07147427WA0009700140001013002008
B1510514225410N07147427WA0009700140001006002008
B1510524225410N07147427WA0009500140001004002008
B1510534225410N07147427WA0009600140001002002008
B1510544225409N07147427WA0009600140001000002008
B1510554225409N07147427WA0009600140001002002008
B1510564225409N07147427WA0009600140001002002008
B1510574225409N07147427WA0009600140001002002008
B1510584225409N07147427WA0009700140001004002008
B1510594225409N07147427WA0009600140001004002008
B1511004225409N07147427WA0009700140001006002008
B1511014225409N07147427WA0009700140001011002008
B1511024225409N07147427WA0009700140001011002008
B1511034225409N07147427WA0009600140001011002008
B1511044225409N07147427WA0009700140001011002008
B1511054225409N07147427WA0009700140001009002008
B1511064225409N07147427WA0009700140001004002008
B1511074225409N07147427WA0009700140001000002008
B1511084225409N07147427WA0009700140001000002008
B1511094225409N07147427WA0009700140001000002008
B1511104225409N07147427WA0009600140001002002008
B1511114225409N07147427WA0009600140001006002008
B1511124225409N07147427WA0009700140001011002008
B1511134225409N07147427WA0009600140001013002008
B1511144225409N07147427WA0009700140001015002008
B1511154225409N07147427WA0009700140001018002008
B1511164225409N07147427WA0009700140001020002008
B1511174225410N07147427WA0009700140001022002008
B1511184225410N07147427WA0009600140001027002008
B1511194225410N07147428WA0009600140001032002008
B1511204225410N07147428WA0009600140001036002008
B1511214225410N07147428WA0009700140001039002008
B1511224225410N07147428WA0009700140001032002008
B1511234225410N07147428WA0009700140001027002008
B1511244225410N07147428WA0009700140001018002008
B1511254225410N07147428WA0009700140001011002008
B1511264225410N07147427WA0009600140001009002008
B1511274225410N07147427WA0009600140001006002008
B1511284225410N07147427WA0009600139001002002008
B1511294225410N07147427WA0009600139001000002008
B1511304225410N07147427WA0009600139001000002008
B1511314225410N07147427WA0009700139001000002008
B1511324225410N07147427WA0009700139001002002008
B1511334225410N07147427WA0009600139001002002008
B1511344225410N07147427WA0009600139001000002008
B1511354225410N07147427WA0009600139001000002008
B1511364225410N07147427WA0009600139001000002008
B1511374225410N07147427WA0009600139001000002008
B1511384225410N07147427WA0009600139001002002008
B1511394225410N07147427WA0009600139001000002008
B1511404225410N07147427WA0009600139001000002008
B1511414225410N07147427WA0009600140001000002008
B1511424225410N07147427WA0009600140001006002008
B1511434225410N07147428WA0009600140001015002008
B1511444225410N07147428WA0009600140001018002008
B1511454225410N07147428WA0009600140001015002008
B1511464225410N07147428WA0009600140001013002008
B1511474225410N07147428WA0009600140001011002008
B1511484225410N07147428WA0009600140001013002008
B1511494225410N07147428WA0009700140001020002008
B1511504225410N07147428WA0009700140001020002008
B1511514225410N07147428WA0009700140001020002008
B1511524225410N07147428WA0009700140001022002008
B1511534225410N07147428WA0009700140001020002008
B1511544225410N07147428WA0009700140001018002008
B1511554225410N07147428WA0009700140001018002008
B1511564225410N07147428WA0009700140001018002008
B1511574225410N07147428WA0009700140001018002008
B1511584225409N07147427WA0009600140001020002008
B1511594225409N07147427WA0009700140001020002008
B1512004225409N07147427WA0009600140001020002008
B1512014225409N07147427WA0009600140001020002008
B1512024225409N07147427WA0009700140001020002008
B1512034225409N07147427WA0009700140001018002008
B1512044225409N07147427WA0009700140001018002008
B1512054225409N07147427WA0009600140001020002008
B1512064225409N07147427WA0009600140001022002008
B1512074225409N07147427WA0009700139001027002008
B1512084225409N07147427WA0009600139001027002008
B1512094225409N07147427WA0009600139001024002008
B1512104225409N07147427WA0009700139001024002008
B1512114225409N07147427WA0009600139001024002008
B1512124225410N07147427WA0009600139001027002008
B1512134225410N07147427WA0009600139001032002008
B1512144225410N07147427WA0009600139001034002008
B1512154225410N07147427WA0009600139001039002008
B1512164225410N07147427WA0009600139001039002008
B1512174225410N07147427WA0009600139001039002008
B1512184225410N07147427WA0009600139001039002008
B1512194225410N07147427WA0009600139001039002008
B1512204225410N07147427WA0009700139001041002008
B1512214225410N07147427WA0009600139001043002008
B1512224225410N07147427WA0009600139001050002008
B1512234225410N07147427WA0009700139001055002008
B1512244225410N07147427WA0009600139001062002008
B1512254225410N07147426WA0009600139001072002008
B1512264225410N07147427WA0009500139001076002008
B1512274225410N07147427WA0009600139001079002008
B1512284225410N07147427WA0009600139001079002008
B1512294225410N07147427WA0009600139001076002008
B1512304225410N07147427WA0009500139001074002008
B1512314225410N07147427WA0009600139001067002008
B1512324225410N07147428WA0009600139001055002008
B1512334225410N07147428WA0009500139001046002008
B1512344225409N07147428WA0009600139001036002008
B1512354225410N07147428WA0009600139001034002008
B1512364225410N07147428WA0009600139001034002008
B1512374225411N07147430WA0009700139001029002008
B1512384225413N07147432WA0009500139001025002000
F151238240106171914034651212230
B1512404225419N07147440WA0009500139001022002000
B1512424225429N07147452WA0009600139001032002000
B1512444225442N07147468WA0009600139001107002000
B1512464225457N07147487WA0009600139001160002000
B1512484225476N07147509WA0009600139001130002000
B1512504225497N07147535WA0009500139001109002000
B1512524225520N07147562WA0009600140001097002000
B1512544225546N07147591WA0010200142001081002000
B1512564225573N07147620WA0010600146001067002000
B1512584225601N07147651WA0011000150001062002000
B1513004225629N07147686WA0011300154001057002000
B1513024225658N07147721WA0012000160001055002000
B1513044225688N07147755WA0012500165001057002000
B1513064225719N07147791WA0013400172001060002000
B1513084225750N07147826WA0014400182001062002000
B1513104225780N07147861WA0015600193001065002000
B1513124225809N07147896WA0016700206001065002000
B1513144225837N07147930WA0017800217001062002000
B1513164225864N07147964WA0018700227001057002000
B1513184225891N07147997WA0019600236001057002000
B1513204225920N07148027WA0020600246001062002000
B1513224225948N07148057WA0021800257001065002000
B1513244225978N07148086WA0022700267001062002000
B1513264226009N07148115WA0023300273001057002000
B1513284226041N07148143WA0024400282001060002000
B1513304226072N07148172WA0025400293001065002000
B1513324226101N07148204WA0026100303001065002000
B1513344226128N07148238WA0026800310001062002000
B1513364226156N07148271WA0027700317001062002000
B1513384226185N07148300WA0028700326001062002000
B1513404226214N07148329WA0029900337001060002000
B1513424226241N07148359WA0031000349001060002000
B1513444226268N07148388WA0032000360001060002000
B1513464226295N07148417WA0032700368001057002000
B1513484226322N07148445WA0033800377001057002000
B1513504226349N07148472WA0034800387001057002000
B1513524226376N07148498WA0035900398001055002000
B1513544226402N07148525WA0036900409001052002000
B1513564226427N07148552WA0037800418001050002000
B1513584226453N07148580WA0038500426001048002000
B1514004226480N07148606WA0038900432001046002000
B1514024226508N07148632WA0039400436001043002000
B1514044226536N07148659WA0039700440001046002000
B1514064226564N07148687WA0040400445001048002000
B1514084226594N07148713WA0041300453001048002000
B1514104226623N07148740WA0042000461001050002000
B1514124226651N07148768WA0042700469001048002000
B1514144226679N07148796WA0043200475001046002000
B1514164226708N07148825WA0043700480001046002000
B1514184226738N07148854WA0044000484001048002000
B1514204226767N07148885WA0044300487001048002000
B1514224226796N07148917WA0045100492001048002000
B1514244226825N07148951WA0045700499001057002000
B1514264226853N07148985WA0046700507001062002000
B1514284226879N07149021WA0047700517001060002000
B1514304226903N07149057WA0048600527001055002000
B1514324226925N07149095WA0049400537001050002000
B1514344226946N07149134WA0050400545001048002000
B1514364226967N07149171WA0051300555001048002000
B1514384226987N07149209WA0052200565001050002000
F1514390106171914034651212230
B1514404227007N07149248WA0052700572001050002000
B1514424227027N07149286WA0053400578001048002000
B1514444227049N07149323WA0054200585001046002000
F151445240106171914034651212230
B1514464227073N07149358WA0055500595001046002000
B1514484227098N07149393WA0056300606001046002000
B1514504227121N07149428WA0057100615001048002000
B1514524227145N07149465WA0058000624001050002000
B1514544227168N07149502WA0059100633001050002000
F151455240106171914034644512122
B1514564227192N07149538WA0060400645002048002000
B1514584227215N07149574WA0061600659002048002000
B1515004227239N07149609WA0062800671002052002000
B1515024227263N07149642WA0063600681002052002000
B1515044227288N07149674WA0064600690002048002000
B1515064227314N07149706WA0065600699002046002000
B1515084227339N07149738WA0066600710002046002000
B1515104227364N07149773WA0067700721002046002000
B1515124227387N07149808WA0068900732002046002000
B1515144227410N07149844WA0069800744002053002000
B1515164227432N07149879WA0070700754002062002000
B1515184227454N07149909WA0071500764002065002000
B1515204227478N07149929WA0072400774002083002000
B1515224227504N07149942WA0072600779002093002000
B1515244227531N07149948WA0073000782002067002000
B1515264227558N07149951WA0072600781002053002000
B1515284227583N07149958WA0072100778002069002000
B1515304227603N07149980WA0072200773002081002000
B1515324227613N07150013WA0071400770002079003000
B1515344227613N07150052WA0071400767002069003000
B1515364227605N07150092WA0070900763002069003000
B1515384227590N07150131WA0070100758002093003000
B1515404227569N07150169WA0070000753002100003000
B1515424227542N07150205WA0069500749002076003000
B1515444227511N07150238WA0069600748002046003000
B1515464227477N07150265WA0069800752002032002000
B1515484227438N07150283WA0070900757003032003000
F151549240106171914034451212230
B1515504227398N07150277WA0072300769003025004000
F1515502401171914034451212230
F151551240117191403212230
B1515524227366N07150240WA0073500781005018005000
B1515544227355N07150186WA0074000789004013005000
F15155524010617191403212230
B1515564227365N07150135WA0074700797003009004000
B1515584227390N07150104WA0075400806003020004000
B1516004227421N07150096WA0074900807003055003000
B1516024227449N07150112WA0074900807003072003000
B1516044227465N07150147WA0075100807003064004000
B1516064227466N07150191WA0074900806003081004000
B1516084227449N07150234WA0075400808003097003000
F151609010617191403212230
B1516104227415N07150258WA0075700812002083003000
F1516100117191403212230
B1516124227374N07150251WA0076400818003057004000
B1516144227342N07150211WA0076900824004036005000
F151614240117191403212230
B1516164227332N07150154WA0077300829004020005000
B1516184227347N07150105WA0078000835002009003000
F15161824010617191403212230
B1516204227377N07150086WA0078400841003002003000
B1516224227404N07150104WA0078900846003009004000
B1516244227410N07150143WA0079200849003058004000
B1516264227394N07150183WA0079500850003093003000
B1516284227361N07150207WA0079900854002071003000
B1516304227322N07150205WA0080400860003043004000
B1516324227286N07150175WA0080800863003032004000
F151633240117191403212230
B1516344227267N07150122WA0080900865004022005000
F1516342401171914032122
B1516364227275N07150068WA0081200869002009003000
F151636240117191403302122
B1516384227303N07150036WA0081600873003011004000
F15163824010617191403302122
B1516404227335N07150042WA0082200878003022004000
B1516424227352N07150078WA0082700883003031004000
B1516444227341N07150122WA0083200890003053004000
F151644010617191403302122
B1516464227307N07150143WA0083600894002078003000
B1516484227267N07150130WA0083800896003071004000
B1516504227239N07150084WA0083900898004046005000
F151650240117191403302122
B1516524227235N07150026WA0084000899003032005000
F15165324010617191403302122
B1516544227256N07149982WA0084700904003020004000
B1516564227288N07149975WA0085700911003009004000
B1516584227310N07150004WA0086200919003004004000
B1517004227309N07150048WA0086600923003018004000
F151701010617191403302122
B1517024227283N07150083WA0086600924002046003000
B1517044227244N07150091WA0087000925003050004000
F1517050117191403302122
B1517064227205N07150065WA0087400928003060004000
F151706240117191403302122
B1517084227180N07150015WA0088100935004064005000
F1517082401171914032122
B1517104227178N07149958WA0088700942002041003000
F15171106240117191403302122
B1517124227199N07149915WA0088900948003027004000
B1517144227231N07149903WA0089400952003018004000
B1517164227255N07149926WA0089400954003039004000
B1517184227262N07149968WA0089500956003064004000
B1517204227247N07150014WA0089800958003097004000
B1517224227214N07150046WA0090000961002114003000
B1517244227171N07150049WA0090400963003078004000
B1517264227129N07150022WA0090800966003048004000
B1517284227098N07149971WA0091200970003032004000
B1517304227086N07149909WA0091800975003022004000
B1517324227096N07149853WA0092300980002013003000
B1517344227122N07149818WA0092600985003006004000
B1517364227157N07149816WA0092800988003022004000
B1517384227182N07149844WA0093000990003048004000
B1517404227187N07149889WA0093400993003064004000
B1517424227169N07149935WA0093900995003100004000
F151742060117191403302122
B1517444227131N07149959WA0094300998003114004000
B1517464227087N07149954WA0094601004002078003000
B1517484227047N07149924WA0094901007003074004000
F15174906240117191403302122
B1517504227016N07149877WA0095101009003076004000
B1517524227003N07149817WA0095101010003081004000
B1517544227013N07149761WA0095901012002092003000
B1517564227035N07149721WA0096201017002071003000
B1517584227066N07149695WA0096001019002076003000
B1518004227099N07149685WA0096501022002081003000
B1518024227129N07149693WA0096601024003076003000
B1518044227154N07149720WA0096201022003088004000
B1518064227171N07149756WA0096001019002109003000
B1518084227183N07149798WA0095401016002126003000
B1518104227191N07149845WA0095301012002151003000
B1518124227192N07149894WA0095101010002170003000
B1518144227182N07149945WA0095801013002149003000
B1518164227162N07149992WA0096101018002104003000
B1518184227136N07150035WA0096201020002058003000
B1518204227106N07150073WA0096501022002036003000
B1518224227068N07150101WA0097301027002032003000
F151823240117191403302122
B1518244227024N07150102WA0098001036003029004000
B1518264226983N07150072WA0098301041004053004000
B1518284226955N07150022WA0098001040004086004000
F1518282401171914032122
B1518304226945N07149962WA0097601035004100004000
F15183024011714032122
F1518312401171914032122
B1518324226956N07149908WA0097301030003102004000
F151832240117191403302122
F15183306240117191403302122
B1518344226986N07149872WA0097101031003114004000
B1518364227020N07149860WA0097201030002153003000
B1518384227053N07149872WA0097001030002151003000
B1518404227079N07149900WA0097001029002100003000
B1518424227096N07149940WA0097001030002083003000
B1518444227100N07149988WA0097301031003123004000
B1518464227086N07150037WA0097601034003153004000
B1518484227055N07150077WA0098001037002123003000
B1518504227016N07150105WA0098001037002088003000
B1518524226971N07150110WA0098801040003123004000
B1518544226928N07150082WA0099101047004139004000
B1518564226900N07150030WA0098901048004114004000
F151856240117191403302122
B1518584226895N07149970WA0099101047003100004000
B1519004226915N07149925WA0099201047002114003000
F15190006240117191403302122
B1519024226948N07149907WA0098701048003158004000
B1519044226980N07149914WA0099001048002149003000
B1519064227003N07149945WA0098901049002104003000
B1519084227016N07149986WA0098401048002114003000
B1519104227018N07150034WA0098301045002149003000
B1519124227012N07150085WA0098901046002151003000
B1519144227003N07150134WA0099301052002149003000
B1519164226993N07150181WA0099701055002158003000
B1519184226980N07150226WA0099601057002149003000
B1519204226966N07150269WA0099701056002149003000
B1519224226951N07150312WA0099901057002158003000
B1519244226936N07150354WA0099801058002151003000
B1519264226926N07150396WA0100201060002163003000
B1519284226927N07150436WA0100801064002184003000
B1519304226939N07150470WA0101001066002170003000
B1519324226959N07150495WA0101101069002160003000
B1519344226985N07150513WA0101301071002139003000
B1519364227014N07150524WA0101001071002095003000
B1519384227045N07150525WA0100701066002107003000
B1519404227078N07150517WA0099701058002156003000
B1519424227113N07150504WA0099201053002177003000
B1519444227148N07150492WA0098901049002186003000
B1519464227183N07150481WA0098201046002193003000
B1519484227219N07150472WA0097201037002193003000
B1519504227257N07150464WA0096301027002214003000
B1519524227296N07150460WA0095801020002195003000
B1519544227336N07150461WA0095801017002137003000
B1519564227376N07150466WA0095601017002097003000
B1519584227413N07150474WA0095801018002076003000
B1520004227450N07150484WA0095501017002090003000
B1520024227485N07150496WA0095301014002116003000
B1520044227520N07150511WA0095001012002137003000
B1520064227555N07150527WA0094601010002165003000
B1520084227588N07150544WA0094501007002167003000
B1520104227621N07150564WA0094501005002149003000
B1520124227652N07150587WA0094301004002144003000
B1520144227682N07150613WA0093701000002130003000
B1520164227710N07150643WA0092700991002106003000
B1520184227739N07150677WA0091800983002107003000
B1520204227768N07150713WA0091900978002095003000
B1520224227795N07150751WA0092200981002069003000
B1520244227821N07150789WA0092200983002064003000
B1520264227846N07150825WA0092200983002106003000
B1520284227871N07150860WA0092000982002148003000
B1520304227896N07150895WA0091700978002151003000
B1520324227921N07150928WA0091000973002174003000
F1520320624011719140330512122
B1520344227949N07150959WA0090500967002216003000
B1520364227978N07150990WA0090000963002244003000
F152037062401461719140330512122
B1520384228008N07151020WA0089300956002249003000
B1520404228039N07151051WA0088700949002232003000
B1520424228073N07151081WA0088100944002225003000
B1520444228109N07151110WA0087300937002202003000
B1520464228145N07151138WA0086600928002151003000
B1520484228180N07151169WA0086200924002097003000
B1520504228214N07151199WA0085900920002067003000
B1520524228247N07151229WA0085700917002067003000
B1520544228278N07151259WA0085200913002071003000
B1520564228309N07151290WA0084600907002074003000
B1520584228339N07151322WA0083900900002081003000
B1521004228370N07151352WA0083200891002072003000
B1521024228405N07151379WA0082000882002043003000
B1521044228441N07151403WA0081800877002041003000
B1521064228478N07151426WA0081600874002053003000
B1521084228514N07151451WA0081100870002039003000
B1521104228547N07151480WA0080400864002027003000
B1521124228579N07151514WA0079300856002036003000
B1521144228606N07151554WA0078400846002043003000
B1521164228629N07151600WA0077500837002039003000
B1521184228649N07151650WA0076600828002025003000
B1521204228668N07151701WA0076300822002022003000
B1521224228685N07151751WA0076000819002034003000
B1521244228702N07151800WA0075200813002036003000
B1521264228719N07151849WA0074300804002027003000
B1521284228734N07151900WA0073300794002018003000
B1521304228749N07151952WA0073600788002009003000
B1521324228762N07152003WA0073500791002011003000
B1521344228774N07152052WA0073200790002036003000
B1521364228787N07152100WA0072800786002048003000
B1521384228801N07152147WA0072600782002043003000
B1521404228814N07152194WA0072700782002057003000
B1521424228827N07152239WA0072900783002093003000
B1521444228841N07152283WA0073200785002132003000
B1521464228855N07152326WA0073200786002156003000
B1521484228871N07152367WA0073500788002144003000
B1521504228888N07152407WA0074100792002102003000
B1521524228903N07152447WA0074300798002071003000
B1521544228918N07152486WA0074800801002071003000
B1521564228932N07152526WA0075000804002081003000
B1521584228948N07152564WA0075300807002067003000
B1522004228969N07152598WA0075500809002043003000
B1522024228993N07152627WA0075800812002027003000
B1522044229017N07152656WA0075900814002020003000
B1522064229028N07152695WA0077200820002025003000
B1522084229010N07152731WA0078500831003027003000
F1522080601171914033051212244
F15220906011719140330512122
B1522104228975N07152742WA0078000835003039004000
B1522124228935N07152730WA0077000830003097004000
F152213060117191403302122
B1522144228900N07152694WA0076500822003165004000
F15221406240117191403302122
B1522164228876N07152641WA0075800817003183004000
B1522184228866N07152581WA0075200812003183004000
B1522204228869N07152522WA0075300809002188003000
B1522224228888N07152473WA0075800813002177003000
B1522244228918N07152438WA0076300820002167003000
B1522264228953N07152417WA0076600823002139003000
B1522284228988N07152413WA0076700826002100003000
F152229062417191403302122
B1522304229014N07152437WA0076600828003088004000
F15223006240117191403302122
B1522324229017N07152481WA0076600827003107004000
F152232060117191403302122
B1522344228992N07152513WA0076400827003109004000
B1522364228955N07152509WA0076900827003071004000
B1522384228930N07152468WA0077300827003060004000
F15223806240117191403302122
B1522404228928N07152414WA0077400830003095004000
B1522424228947N07152369WA0077000829002137004000
B1522444228979N07152350WA0077200829003123004000
B1522464229009N07152363WA0077500831003116004000
B1522484229022N07152403WA0077600833003158004000
B1522504229011N07152448WA0078000835003165004000
F152251060117191403302122
B1522524228981N07152474WA0078200837002118004000
B1522544228944N07152465WA0078800839003088004000
B1522564228920N07152425WA0079400844003100005000
F15225606240117191403302122
B1522584228915N07152371WA0079300847003133004000
B1523004228926N07152320WA0079100845003130004000
B1523024228951N07152284WA0079400847002090003000
B1523044228983N07152269WA0079200850002060004000
B1523064229013N07152280WA0079200849002086003000
B1523084229028N07152318WA0079000848003142004000
B1523104229020N07152364WA0079400851003167004000
F152311060117191403302122
B1523124228994N07152401WA0079100851002167003000
B1523144228956N07152421WA0079100849002132003000
B1523164228916N07152414WA0080100852003102004000
B1523184228886N07152372WA0081000862003071004000
F15231806240117191403302122
F1523192401171914032122
B1523204228882N07152316WA0081500868003048004000
F152321062401171914032122
B1523224228905N07152273WA0081000869003055004000
F15232306240130171914032122
B1523244228940N07152266WA0081800871003048004000
B1523264228966N07152291WA0081900877003060004000
B1523284228974N07152333WA0081700878003107004000
B1523304228965N07152378WA0081600875003132004000
B1523324228939N07152414WA0081100871002130004000
B1523344228901N07152428WA0081500872002116004000
B1523364228859N07152415WA0081700874003100004000
B1523384228826N07152374WA0082000875003083005000
B1523404228816N07152315WA0083400882003058005000
B1523424228837N07152266WA0083700890003051004000
F152343062401301719142122
B1523444228872N07152251WA0084000891003083005000
F15234406240130171914032122
B1523464228902N07152272WA0084000896003109005000
B1523484228916N07152315WA0083800898003128004000
B1523504228910N07152363WA0083700898003146004000
B1523524228889N07152405WA0084000899002118004000
F152353060130171914032122
B1523544228855N07152433WA0084300901002079004000
F15235506240130171914032122
B1523564228814N07152437WA0084800905003055004000
B1523584228779N07152403WA0085400911004055005000
F152358062401171914032122
B1524004228765N07152344WA0086900919004064005000
B1524024228776N07152288WA0087400927003048004000
F15240206240130171914032122
B1524044228807N07152256WA0088000936003029004000
B1524064228841N07152262WA0088400943003025004000
F152406062430171914032122
F15240706240130171914032122
B1524084228857N07152296WA0088100940003041004000
B1524104228846N07152338WA0088100936003065004000
F152410060130171914032122
B1524124228815N07152362WA0088100937002083004000
B1524144228778N07152356WA0088800941003107004000
B1524164228746N07152322WA0089900948003095004000
F15241606240130171914032122
B1524184228728N07152271WA0090100954003053004000
B1524204228726N07152216WA0090300957003043004000
B1524224228745N07152170WA0090500960003041004000
F152423062401301719142122
B1524244228778N07152149WA0090400963003027004000
B1524264228811N07152158WA0090000962003029004000
F15242606240130171914032122
B1524284228831N07152194WA0089800959003065004000
B1524304228830N07152242WA0089800957003104004000
B1524324228813N07152288WA0089800958003104004000
B1524344228788N07152328WA0090300962002072004000
B1524364228754N07152354WA0091300968002060004000
B1524384228715N07152348WA0091700976003079004000
F1524382401171914032122
B1524404228686N07152308WA0091800977003088005000
B1524424228676N07152250WA0091700979003067005000
B1524444228690N07152198WA0092400982003039004000
F152444062401171914032122
F1524450624011719142122
B1524464228723N07152177WA0093400988003025004000
F152446062401301719142122
B1524484228752N07152198WA0094000996003011004000
F15244806240130171914032122
F152449062401301719140321
B1524504228758N07152245WA0094901007004002005000
F15245006240130171914032221
F152451060130171914032221
B1524524228736N07152284WA0095301013003004004000
B1524544228698N07152291WA0095701018003011005000
F1524550130171914032221
B1524564228665N07152258WA0095801016004034005000
F152457240130171914032221
B1524584228653N07152201WA0095901015004048005000
B1525004228666N07152147WA0096501020003027004000
F15250006240130171914032221
F152501062401301719142221
B1525024228699N07152115WA0097201030003009005000
B1525044228734N07152121WA0097301036003002005000
B1525064228757N07152157WA0097501037003000005000
F15250606240130171914032221
B1525084228758N07152209WA0098001042003002005000
F152509060130171914032221
B1525104228732N07152253WA0098301045003046004000
B1525124228690N07152272WA0098801050003086004000
B1525144228647N07152258WA0098601052004078005000
F1525140601301714032221
F152515060130171914032221
B1525164228611N07152210WA0098901053004071006000
F15251606240130171914032221
B1525184228592N07152146WA0099601062003053005000
B1525204228595N07152081WA0100501067003027005000
B1525224228619N07152032WA0101201076003011004000
B1525244228655N07152013WA0101801082003015005000
B1525264228689N07152030WA0102001086003020004000
B1525284228705N07152074WA0102601091003011005000
F152528060130171914032221
B1525304228693N07152125WA0103201097003025004000
B1525324228660N07152156WA0103801101003050004000
B1525344228617N07152155WA0104501106003057004000
B1525364228579N07152121WA0105301113003048004000
F15253706240130171914032221
B1525384228553N07152070WA0105701120003027005000
B1525404228546N07152009WA0106201125003011004000
B1525424228563N07151959WA0106801129003004004000
B1525444228595N07151936WA0107001134003002004000
B1525464228628N07151945WA0107601137003027004000
B1525484228650N07151980WA0107601140003044004000
F152549060130171914032221
B1525504228652N07152026WA0107801142003079004000
B1525524228630N07152072WA0107801142003128004000
B1525544228595N07152102WA0108101142003123004000
B1525564228552N07152108WA0108301143003088004000
B1525584228510N07152081WA0109401150003051005000
F15255806240130171914032221
B1526004228488N07152027WA0110601162003029004000
F152600062401171914032221
B1526024228490N07151970WA0110901170003013004000
B1526044228515N07151932WA0111301173003039004000
F15260406240130171914032221
B1526064228549N07151923WA0111601176003062004000
B1526084228578N07151945WA0111901180003048004000
F152608060130171914032221
F1526090601301719140321
B1526104228586N07151990WA0112101182003041004000
F152610060130171914032221
B1526124228570N07152039WA0112301184003055004000
B1526144228536N07152070WA0112301184003095004000
B1526164228492N07152067WA0112401185003121004000
B1526184228449N07152035WA0112401186003095004000
F15261806240130171914032221
B1526204228419N07151982WA0112801189003053005000
B1526224228415N07151919WA0113901197003032004000
B1526244228440N07151877WA0115101209003022004000
B1526264228474N07151872WA0116201220003027005000
B1526284228498N07151898WA0117001232003032005000
F152629060130171914032221
B1526304228500N07151940WA0117201235003029004000
B1526324228481N07151978WA0117601238003034004000
B1526344228449N07151997WA0117501239003051004000
B1526364228411N07151988WA0117301238003086004000
F15263706240130171914032221
B1526384228381N07151948WA0117301236003093005000
F152638062401171914032221
B1526404228373N07151891WA0117701241003067004000
B1526424228387N07151840WA0118301243003062004000
F15264306240130171914032221
B1526444228416N07151813WA0118401248003074004000
B1526464228450N07151814WA0118901252003093004000
B1526484228474N07151842WA0119401256003093004000
F152648060130171914032221
B1526504228479N07151886WA0119401257003074004000
F15265106240130171914032221
B1526524228464N07151931WA0119601256003090004000
B1526544228433N07151961WA0119301254003118004000
B1526564228390N07151968WA0119101251003118004000
B1526584228346N07151954WA0118801249003090004000
B1527004228304N07151926WA0118601247003060004000
F152701240130171914032221
B1527024228270N07151881WA0119501250003043004000
F152703062401171914032221
B1527044228254N07151822WA0120501260003029004000
B1527064228262N07151768WA0121501270003072004000
F15270606240130171914032221
B1527084228285N07151732WA0121701275003118004000
B1527104228316N07151721WA0122001279003104004000
B1527124228344N07151735WA0121801280003116004000
B1527144228360N07151769WA0121701279003179004000
B1527164228358N07151812WA0122001279003195004000
B1527184228341N07151851WA0121901278003170004000
B1527204228312N07151878WA0121401277003156004000
B1527224228275N07151893WA0121201272003170004000
B1527244228234N07151893WA0120401267003209004000
B1527264228194N07151874WA0120901265003197004000
B1527284228158N07151840WA0120801267003135004000
B1527304228130N07151795WA0121001268003093004000
B1527324228112N07151744WA0120801267003111004000
B1527344228110N07151688WA0121201266003116004000
B1527364228122N07151639WA0120701264003088004000
B1527384228146N07151601WA0120701263003081004000
B1527404228177N07151581WA0121401269003076004000
B1527424228209N07151580WA0121601272003083004000
B1527444228240N07151592WA0121401271003095004000
B1527464228269N07151610WA0121601272003067004000
B1527484228299N07151629WA0121001268003048004000
B1527504228334N07151630WA0121801272003083004000
B1527524228366N07151603WA0122401280003130004000
B1527544228384N07151557WA0122801285003132004000
B1527564228383N07151502WA0122801285003130004000
B1527584228360N07151452WA0122401282003135004000
B1528004228323N07151418WA0122001277003118004000
B1528024228279N07151408WA0121301271003128004000
B1528044228238N07151424WA0120801264003142004000
B1528064228208N07151461WA0120901262003156004000
F1528070624013017191403225121
B1528084228196N07151508WA0121301265003176004000
B1528104228202N07151552WA0121301267003172004000
B1528124228225N07151585WA0121701269003144004000
B1528144228256N07151605WA0121801273003104004000
B1528164228291N07151616WA0122101275003062004000
B1528184228328N07151616WA0122301278003060004000
B1528204228365N07151610WA0123201283003090004000
B1528224228402N07151602WA0123301289003081004000
B1528244228437N07151577WA0123601290003043004000
B1528264228452N07151517WA0124401296003046004000
F152826062401301719142221
F15282706240130171914032221
B1528284228443N07151451WA0124801302003048004000
B1528304228414N07151395WA0125101304003057005000
B1528324228369N07151367WA0125501308003097005000
B1528344228322N07151364WA0126301312003095004000
B1528364228280N07151382WA0126001314003069004000
B1528384228256N07151423WA0126401317003062004000
F1528390624013017191403224421
B1528404228253N07151470WA0126801320003074004000
B1528424228269N07151510WA0127101323003116004000
F15284206240130171914032221
B1528444228298N07151537WA0126901324003170004000
B1528464228333N07151550WA0127101325003163004000
B1528484228372N07151548WA0127801331003102004000
B1528504228411N07151532WA0128001337003058004000
B1528524228441N07151491WA0128501340003036004000
B1528544228447N07151430WA0129401346003057004000
B1528564228426N07151374WA0130301354003123004000
B1528584228388N07151340WA0130901360003170004000
B1529004228347N07151334WA0131201364003156004000
B1529024228310N07151351WA0131301366003137004000
B1529044228286N07151385WA0131401366003160004000
B1529064228276N07151428WA0131501368003148004000
B1529084228274N07151472WA0131901368003090004000
B1529104228282N07151515WA0131301366003074004000
B1529124228305N07151547WA0131601369003079004000
F1529120624013017191403225121
B1529144228339N07151560WA0132301374003058004000
B1529164228375N07151547WA0132901382003034004000
B1529184228404N07151506WA0133201387003022004000
B1529204228411N07151447WA0133301388003018004000
B1529224228395N07151389WA0133401388003013004000
B1529244228358N07151350WA0133501388003039005000
B1529264228312N07151341WA0134001391003072004000
B1529284228273N07151363WA0135101399003060004000
B1529304228254N07151405WA0135701408003034004000
B1529324228260N07151450WA0136201413003034004000
B1529344228285N07151477WA0136501417003039004000
B1529364228320N07151474WA0137301422003022005000
B1529384228349N07151437WA0137301426003027005000
B1529404228356N07151379WA0137701428003085004000
B1529424228338N07151324WA0137501429003134004000
B1529444228301N07151289WA0137601430003123005000
B1529464228257N07151284WA0137901430003090005000
B1529484228221N07151314WA0138401434003058005000
B1529504228210N07151362WA0138801439003058004000
B1529524228223N07151406WA0139201443003069004000
B1529544228253N07151428WA0140101449003081005000
B1529564228286N07151420WA0140701458003078005000
B1529584228313N07151382WA0140901463003074005000
B1530004228322N07151328WA0141101465003104004000
B1530024228314N07151271WA0141201465003125004000
B1530044228291N07151220WA0140701462003139004000
B1530064228252N07151189WA0141001462003151005000
B1530084228209N07151185WA0141301464003160005000
B1530104228174N07151208WA0142101470003144005000
B1530124228155N07151247WA0142801477003095004000
B1530144228149N07151290WA0142801480003067004000
B1530164228155N07151332WA0142901482003076004000
B1530184228174N07151367WA0143501486003071004000
B1530204228202N07151389WA0144101491003043004000
B1530224228234N07151400WA0144401497003022004000
B1530244228266N07151406WA0144401500003025004000
B1530264228298N07151410WA0144401499003067004000
B1530284228331N07151412WA0144101498003111004000
B1530304228364N07151417WA0144001497003149004000
F153030062401301719140322514421
B1530324228396N07151427WA0143401495003181004000
B1530344228426N07151443WA0143101490003202004000
B1530364228456N07151464WA0142501484003223004000
B1530384228484N07151488WA0142301480003239004000
B1530404228512N07151514WA0142101479003237004000
B1530424228539N07151541WA0142301481003202004000
B1530444228565N07151567WA0142301482003177004000
B1530464228591N07151592WA0141701479003165004000
B1530484228619N07151617WA0140601470003146004000
B1530504228649N07151643WA0140001460003121004000
B1530524228680N07151670WA0139501455003114004000
B1530544228712N07151698WA0139201452003125004000
B1530564228745N07151727WA0138901448003123004000
B1530584228778N07151755WA0138401444003100004000
B1531004228812N07151782WA0138001441003104004000
B1531024228846N07151809WA0137901438003111004000
B1531044228882N07151832WA0137901438003083004000
B1531064228917N07151853WA0138201440003065004000
B1531084228952N07151874WA0138501442003048004000
B1531104228986N07151895WA0138801445003039004000
B1531124229020N07151914WA0139001449003039004000
B1531144229054N07151932WA0138701448003036004000
B1531164229088N07151949WA0138501445003034004000
B1531184229121N07151965WA0138301443003034004000
B1531204229153N07151982WA0138101440003050004000
B1531224229183N07152005WA0137601437003071004000
B1531244229211N07152032WA0137201431003069004000
B1531264229240N07152062WA0137701431003065004000
B1531284229268N07152092WA0137801434003065004000
B1531304229295N07152125WA0138001438003095004000
B1531324229322N07152157WA0138901443003100004000
B1531344229350N07152187WA0139301449003058004000
B1531364229380N07152209WA0140201457003034004000
B1531384229415N07152205WA0141801467003041005000
B1531404229441N07152167WA0143201481003048004000
B1531424229447N07152113WA0143901491003032005000
B1531444229432N07152060WA0144001495003020005000
B1531464229401N07152020WA0143801493003025005000
B1531484229359N07152002WA0143401489003048004000
B1531504229316N07152005WA0143101486003051004000
B1531524229278N07152028WA0142901484003048004000
B1531544229251N07152066WA0143101484003055004000
B1531564229234N07152112WA0142901484003058004000
B1531584229229N07152160WA0142901485003097004000
B1532004229235N07152207WA0143201485003128004000
B1532024229244N07152251WA0143901489003109004000
B1532044229256N07152294WA0143901492003081004000
B1532064229272N07152332WA0144201495003076004000
B1532084229296N07152359WA0144401498003104004000
B1532104229326N07152371WA0144301499003121004000
B1532124229358N07152371WA0144501500003121004000
B1532144229390N07152367WA0144101500003158004000
B1532164229421N07152360WA0142901492003165004000
B1532184229453N07152352WA0141201477003116004000
B1532204229489N07152341WA0140501466003088004000
B1532224229525N07152330WA0139801458003086004000
B1532244229564N07152319WA0139001451003095004000
B1532264229602N07152308WA0138201445003135004000
B1532284229642N07152299WA0137901438003149004000
B1532304229681N07152291WA0137301434003125004000
B1532324229720N07152283WA0136901430003100004000
B1532344229760N07152275WA0136601427003079004000
B1532364229800N07152267WA0136201423003111004000
B1532384229840N07152260WA0135401417003172004000
B1532404229882N07152253WA0134801411003211004000
B1532424229925N07152247WA0134601407003197004000
B1532444229968N07152241WA0134501406003144004000
B1532464230010N07152235WA0134501406003111004000
B1532484230053N07152230WA0134301405003100004000
B1532504230095N07152227WA0134301404003076004000
B1532524230137N07152226WA0134801406003057004000
B1532544230178N07152225WA0135201411003050004000
B1532564230219N07152225WA0136201418003039004000
B1532584230258N07152225WA0136901427003029004000
B1533004230296N07152225WA0137601434003022004000
B1533024230334N07152227WA0137901438003022004000
B1533044230370N07152236WA0138401442003034004000
B1533064230405N07152248WA0138601446003036004000
B1533084230439N07152262WA0138801447003034004000
B1533104230473N07152276WA0138701448003043004000
B1533124230506N07152291WA0138801446003062004000
B1533144230540N07152306WA0138501446003076004000
B1533164230573N07152323WA0138201443003093004000
B1533184230606N07152340WA0137501438003132004000
B1533204230640N07152360WA0137001432003177004000
B1533224230675N07152380WA0136101425003204004000
B1533244230710N07152403WA0135301417003225004000
B1533264230746N07152426WA0134201408003237004000
B1533284230784N07152452WA0133201395003242004000
B1533304230819N07152483WA0133101391003232004000
B1533324230853N07152516WA0133201391003193004000
B1533344230885N07152549WA0133601393003146004000
B1533364230915N07152581WA0133601396003105004000
B1533384230944N07152613WA0134201399003069004000
B1533404230972N07152644WA0134601403003050004000
B1533424230997N07152676WA0134801406003076004000
B1533444231023N07152708WA0135301409003093004000
B1533464231049N07152739WA0135401412003067004000
B1533484231075N07152770WA0135101411003050004000
B1533504231102N07152800WA0135501413003046004000
B1533524231129N07152830WA0136001417003043004000
B1533544231156N07152859WA0136401419003036004000
B1533564231183N07152888WA0136201421003032004000
B1533584231205N07152922WA0136901422003048004000
B1534004231215N07152966WA0137201426003102004000
B1534024231216N07153014WA0136901428003144004000
B1534044231219N07153061WA0136901427003149004000
B1534064231227N07153107WA0136901426003144004000
B1534084231242N07153149WA0137201428003107004000
B1534104231261N07153191WA0137401430003058004000
B1534124231280N07153232WA0138401436003041004000
B1534144231302N07153269WA0138501442003032004000
B1534164231333N07153288WA0139801449003024004000
B1534184231366N07153274WA0139901456003041004000
B1534204231389N07153233WA0140401458003067004000
B1534224231391N07153176WA0140901463003062004000
B1534244231376N07153119WA0141101464003053004000
B1534264231346N07153072WA0141001463003099004000
B1534284231306N07153039WA0141001463003137004000
B1534304231261N07153027WA0141401465003104004000
B1534324231217N07153034WA0141501467003072004000
B1534344231180N07153062WA0141601470003055004000
B1534364231154N07153104WA0141901472003036004000
B1534384231150N07153151WA0142301474003036004000
B1534404231170N07153186WA0142501476003034004000
B1534424231204N07153190WA0143301482003027005000
B1534444231234N07153160WA0143801489003024004000
B1534464231251N07153109WA0144401495003022004000
B1534484231250N07153051WA0145001500003029004000
B1534504231229N07152998WA0145501506003043004000
B1534524231194N07152962WA0146001509003053004000
B1534544231151N07152946WA0145801510003048004000
B1534564231111N07152962WA0145801510003032004000
B1534584231088N07153004WA0146301511003022004000
B1535004231089N07153050WA0146501515003053004000
B1535024231112N07153079WA0146801518003092004000
B1535044231145N07153077WA0147601523003081005000
B1535064231175N07153050WA0148301531003048004000
B1535084231193N07153005WA0148701537003039004000
B1535104231193N07152952WA0149101541003050004000
B1535124231175N07152901WA0149001544003069004000
B1535144231142N07152864WA0149001542003071004000
B1535164231100N07152849WA0148801541003055004000
B1535184231058N07152858WA0148901540003036004000
B1535204231023N07152888WA0148601537003057004000
B1535224231006N07152935WA0149001539003099004000
B1535244231009N07152981WA0149401544003100004000
B1535264231028N07153015WA0150201550003088004000
B1535284231057N07153030WA0150301554003081004000
B1535304231090N07153022WA0150701558003055004000
B1535324231116N07152989WA0150601559003048004000
B1535344231123N07152936WA0151101562003062004000
B1535364231110N07152881WA0151501566003058004000
B1535384231083N07152833WA0151901569003041004000
B1535404231044N07152799WA0151801569003027004000
B1535424230999N07152792WA0151901570003018005000
B1535444230962N07152818WA0152101572003039004000
B1535464230946N07152863WA0152501575003085004000
B1535484230944N07152911WA0153301580003100004000
B1535504230951N07152954WA0154101588003071004000
B1535524230964N07152991WA0154401594003043004000
B1535544230985N07153020WA0154801599003032004000
B1535564231010N07153039WA0154401599003034004000
B1535584231039N07153050WA0153401593003062004000
B1536004231069N07153057WA0152701583003069004000
B1536024231101N07153061WA0150801571003043004000
B1536044231136N07153056WA0149901558003036004000
B1536064231172N07153041WA0149701552003039004000
B1536084231210N07153022WA0149601552003053004000
B1536104231246N07153000WA0149901553003088004000
B1536124231283N07152977WA0149801554003135004000
B1536144231319N07152954WA0149401552003179004000
B1536164231356N07152932WA0148801549003202004000
B1536184231393N07152912WA0148201543003207004000
B1536204231431N07152894WA0148601541003165004000
B1536224231470N07152877WA0148601543003102004000
B1536244231508N07152864WA0148401543003100004000
B1536264231547N07152855WA0148201541003121004000
B1536284231587N07152848WA0148601542003109004000
B1536304231625N07152842WA0149301548003083004000
B1536324231661N07152838WA0149401552003057004000
B1536344231698N07152835WA0149601553003048004000
B1536364231734N07152835WA0150201557003053004000
B1536384231770N07152834WA0150801564003062004000
B1536404231805N07152833WA0150701566003079004000
B1536424231840N07152831WA0150701565003088004000
B1536444231875N07152831WA0150901567003079004000
B1536464231910N07152831WA0151101570003064004000
B1536484231944N07152832WA0150901569003057004000
B1536504231978N07152834WA0150701566003090004000
B1536524232012N07152838WA0150201563003144004000
B1536544232046N07152843WA0149401557003163004000
B1536564232080N07152850WA0149001551003128004000
B1536584232115N07152859WA0148601548003100004000
F1536590624013017191403225121
B1537004232149N07152869WA0148401545003135004000
B1537024232184N07152878WA0147801541003188004000
B1537044232220N07152884WA0146901534003225004000
B1537064232257N07152883WA0145901524003242004000
B1537084232296N07152874WA0145001514003225004000
B1537104232336N07152863WA0144301506003188004000
B1537124232377N07152852WA0144101502003177004000
B1537144232418N07152841WA0144001500003174004000
B1537164232459N07152831WA0144001500003154004000
B1537184232499N07152823WA0143901500003133004000
B1537204232539N07152814WA0143801499003097004000
B1537224232578N07152807WA0143601498003062004000
B1537244232618N07152803WA0143601496003046004000
F153725062401301719140322514421
B1537264232656N07152802WA0143501495003053004000
B1537284232694N07152808WA0143701497003081004000
B1537304232731N07152815WA0144001499003093004000
B1537324232767N07152824WA0144301502003076004000
B1537344232803N07152832WA0144601505003062004000
B1537364232839N07152841WA0144801507003076004000
B1537384232874N07152851WA0144801508003081004000
B1537404232909N07152862WA0144701508003072004000
B1537424232943N07152876WA0144601506003057004000
B1537444232976N07152892WA0144501506003043004000
B1537464233009N07152910WA0144701507003048004000
B1537484233040N07152930WA0145001509003057004000
B1537504233071N07152951WA0145601513003072004000
B1537524233101N07152972WA0145501515003084004000
B1537544233131N07152993WA0145501514003098004000
B1537564233160N07153015WA0145301513003130004000
B1537584233190N07153038WA0144801510003165004000
B1538004233219N07153062WA0144401505003165004000
B1538024233249N07153088WA0144901506003116004000
B1538044233279N07153113WA0145401510003093004000
B1538064233308N07153138WA0145601514003104004000
B1538084233337N07153164WA0145701515003095004000
B1538104233366N07153191WA0146201518003064004000
B1538124233396N07153217WA0146401523003048004000
B1538144233425N07153243WA0146401523003041004000
B1538164233453N07153268WA0146401524003029004000
B1538184233481N07153292WA0146201522003053004000
B1538204233509N07153316WA0146001520003097004000
B1538224233536N07153340WA0145801517003139004000
B1538244233564N07153364WA0145601516003186004000
B1538264233591N07153389WA0145501513003177004000
B1538284233619N07153414WA0145401512003125004000
B1538304233647N07153441WA0144901510003109004000
B1538324233674N07153468WA0144201505003142004000
B1538344233702N07153496WA0143401496003177004000
B1538364233732N07153525WA0142701489003193004000
B1538384233763N07153555WA0142001482003200004000
B1538404233794N07153587WA0141601476003179004000
B1538424233825N07153621WA0142001476003144004000
B1538444233857N07153654WA0142301479003099004000
B1538464233887N07153686WA0143001486003057004000
B1538484233916N07153717WA0143301490003071004000
B1538504233945N07153747WA0143301491003107004000
B1538524233974N07153778WA0143401492003095004000
B1538544234002N07153809WA0143301492003081004000
B1538564234031N07153842WA0143101492003072004000
B1538584234059N07153875WA0142601488003055004000
B1539004234086N07153909WA0141801480003057004000
B1539024234114N07153944WA0140901471003062004000
B1539044234142N07153981WA0140001463003069004000
B1539064234170N07154021WA0139501457003067004000
B1539084234199N07154062WA0139201452003053004000
B1539104234227N07154103WA0138701448003067004000
B1539124234255N07154147WA0138001443003086004000
B1539144234281N07154194WA0137701437003072004000
B1539164234306N07154244WA0137401434003048004000
B1539184234329N07154296WA0137801435003039004000
B1539204234351N07154347WA0138401441003046004000
B1539224234372N07154400WA0138601445003050004000
B1539244234392N07154453WA0139201450003039004000
B1539264234414N07154501WA0140201455003034004000
B1539284234447N07154531WA0140301461003029004000
B1539304234481N07154554WA0140101460003034004000
B1539324234512N07154584WA0140601461003046004000
B1539344234533N07154624WA0140901464003067004000
B1539364234543N07154672WA0141001467003102004000
B1539384234549N07154722WA0140801468003104004000
B1539404234556N07154772WA0141201469003083004000
B1539424234563N07154822WA0141701473003062004000
B1539444234576N07154869WA0142501478003039004000
B1539464234603N07154901WA0143901487003018004000
B1539484234639N07154898WA0145701504003009004000
B1539504234665N07154861WA0146901520003004004000
B1539524234669N07154808WA0147101527003004004000
B1539544234650N07154760WA0146801524003018004000
B1539564234614N07154731WA0146701521003024004000
B1539584234572N07154730WA0146901521003022004000
B1540004234537N07154756WA0147401523003022004000
B1540024234519N07154799WA0148001530003015004000
B1540044234522N07154845WA0148901536003006004000
B1540064234542N07154879WA0149201543003016004000
B1540084234571N07154894WA0149401547003048004000
B1540104234604N07154885WA0149601550003072004000
B1540124234631N07154853WA0149601551003081004000
B1540144234644N07154804WA0149801552003111004000
B1540164234640N07154749WA0150301555003109004000
B1540184234623N07154697WA0150701558003069004000
B1540204234592N07154657WA0150301557003062004000
B1540224234551N07154644WA0150401556003053004000
B1540244234514N07154663WA0150701557003046004000
B1540264234497N07154707WA0151001561003046004000
B1540284234508N07154750WA0151501566003029004000
B1540304234538N07154772WA0152001572003015004000
B1540324234575N07154762WA0152701578003006004000
B1540344234602N07154721WA0153301583003002004000
B1540364234610N07154665WA0153801589003000004000
B1540384234593N07154612WA0154501595003004004000
B1540404234559N07154579WA0154701598003030004000
B1540424234519N07154574WA0154501597003048004000
B1540444234485N07154598WA0154901599003046004000
B1540464234465N07154638WA0155801606003029004000
B1540484234465N07154682WA0156601614003013004000
B1540504234482N07154715WA0157601621003004004000
B1540524234512N07154728WA0157801629003002004000
B1540544234545N07154714WA0158001632003000004000
B1540564234569N07154674WA0158401635003006004000
B1540584234575N07154621WA0158301635003029004000
B1541004234563N07154568WA0158701637003072004000
B1541024234534N07154527WA0159101641003081004000
B1541044234496N07154508WA0159201644003078004000
B1541064234457N07154515WA0159501645003072004000
B1541084234429N07154546WA0159901649003039004000
B1541104234420N07154587WA0160301653003022004000
B1541124234431N07154625WA0160801658003011004000
B1541144234458N07154646WA0161201663003004004000
B1541164234492N07154642WA0161301666003009004000
B1541184234523N07154613WA0161401666003009004000
B1541204234541N07154565WA0161701668003032004000
B1541224234539N07154509WA0162501673003067004000
B1541244234522N07154459WA0163501682003065004000
B1541264234495N07154420WA0164001690003074004000
B1541284234462N07154393WA0164501694003083004000
B1541304234427N07154379WA0164501697003055004000
B1541324234392N07154381WA0164301697003051004000
B1541344234360N07154395WA0164101695003107004000
B1541364234332N07154419WA0164001693003146004000
B1541384234309N07154449WA0163801691003144004000
B1541404234290N07154483WA0163601688003137004000
B1541424234280N07154524WA0163201686003139004000
B1541444234285N07154566WA0163701688003137004000
B1541464234303N07154600WA0163901692003102004000
B1541484234331N07154621WA0164501697003057004000
B1541504234363N07154627WA0164301699003048004000
B1541524234395N07154607WA0164601700003088004000
B1541544234414N07154561WA0164901702003128004000
B1541564234412N07154506WA0165101704003116004000
B1541584234391N07154458WA0165001704003111004000
B1542004234353N07154432WA0165601706003114004000
B1542024234312N07154431WA0165901712003076004000
B1542044234281N07154458WA0165801713003069004000
B1542064234268N07154500WA0166101713003085004000
B1542084234275N07154543WA0166501715003067004000
B1542104234293N07154577WA0166801720003053004000
B1542124234319N07154601WA0166701721003104004000
B1542144234347N07154618WA0166201719003165004000
B1542164234379N07154630WA0165601714003179004000
B1542184234414N07154638WA0164901708003174004000
B1542204234450N07154646WA0163901699003179004000
B1542224234487N07154655WA0162601688003163004000
B1542244234525N07154664WA0161401676003146004000
B1542264234565N07154675WA0160501667003153004000
B1542284234606N07154687WA0160101660003153004000
B1542304234647N07154701WA0159501654003146004000
B1542324234688N07154716WA0159101651003123004000
B1542344234729N07154733WA0159101650003095004000
B1542364234769N07154751WA0159001649003097004000
B1542384234808N07154769WA0159301651003102004000
B1542404234847N07154785WA0159301652003088004000
B1542424234885N07154802WA0159301652003076004000
B1542444234922N07154818WA0159201652003053004000
B1542464234959N07154835WA0159201652003062004000
B1542484234996N07154851WA0159201651003100004000
B1542504235033N07154868WA0159401652003104004000
B1542524235069N07154884WA0159501653003114004000
B1542544235105N07154901WA0159601654003114004000
B1542564235141N07154919WA0159701657003099004000
B1542584235176N07154937WA0159601656003088004000
B1543004235210N07154957WA0159601655003064004000
B1543024235245N07154976WA0160101657003046004000
B1543044235279N07154993WA0160701663003032004000
B1543064235312N07155009WA0161201668003027004000
B1543084235344N07155025WA0161801673003036004000
B1543104235376N07155042WA0162001678003041004000
B1543124235408N07155059WA0162501682003034004000
B1543144235438N07155076WA0162201682003034004000
B1543164235469N07155092WA0162001679003037004000
B1543184235500N07155109WA0161701677003074004000
B1543204235532N07155128WA0161301674003139004000
B1543224235563N07155150WA0161001670003160004000
B1543244235595N07155175WA0160901669003135004000
B1543264235627N07155199WA0160701668003114004000
B1543284235659N07155224WA0160201663003100004000
B1543304235693N07155248WA0159601657003071004000
B1543324235727N07155273WA0159101653003043004000
B1543344235761N07155300WA0158801648003022004000
B1543364235795N07155330WA0158201644003009004000
B1543384235829N07155360WA0157701639003025004000
B1543404235864N07155391WA0157301634003055004000
B1543424235898N07155422WA0156901630003048004000
B1543444235933N07155453WA0156501626003025004000
B1543464235968N07155485WA0156501624003011004000
B1543484236002N07155517WA0156601625003013004000
B1543504236035N07155548WA0156501625003051004000
B1543524236068N07155578WA0156201623003076004000
B1543544236100N07155608WA0156001620003064004000
B1543564236132N07155638WA0155801617003060004000
B1543584236162N07155668WA0155401615003093004000
B1544004236192N07155698WA0154901611003130004000
B1544024236221N07155728WA0154501606003149004000
B1544044236250N07155759WA0154101602003142004000
B1544064236279N07155791WA0153701597003118004000
B1544084236307N07155822WA0153201592003107004000
B1544104236336N07155853WA0152801588003095004000
B1544124236365N07155884WA0152401584003086004000
B1544144236394N07155914WA0152101581003114004000
B1544164236424N07155943WA0151501576003137004000
B1544184236455N07155972WA0150501568003132004000
B1544204236485N07156003WA0149601559003139004000
B1544224236515N07156034WA0149001551003116004000
B1544244236546N07156066WA0148601546003072004000
B1544264236575N07156101WA0148001541003062004000
B1544284236603N07156141WA0148001537003072004000
B1544304236629N07156180WA0148101539003069004000
B1544324236654N07156218WA0148101540003088004000
B1544344236679N07156256WA0147901539003118004000
B1544364236703N07156293WA0147901539003156004000
B1544384236726N07156330WA0147901539003188004000
B1544404236750N07156366WA0147601537003174004000
B1544424236773N07156401WA0147101533003151004000
B1544444236797N07156436WA0146601527003149004000
B1544464236822N07156473WA0146201523003170004000
B1544484236846N07156510WA0145801519003188004000
B1544504236872N07156547WA0146001518003191004000
B1544524236897N07156583WA0146201520003188004000
B1544544236921N07156619WA0146401522003158004000
B1544564236944N07156655WA0146501523003123004000
B1544584236965N07156691WA0146801526003121004000
B1545004236984N07156729WA0147101529003097004000
B1545024236999N07156770WA0147601532003062004000
B1545044237010N07156813WA0148101538003046004000
B1545064237019N07156855WA0148401542003029004000
B1545084237029N07156895WA0148601542003043004000
B1545104237045N07156930WA0148101541003062004000
B1545124237068N07156954WA0147401537003067004000
B1545144237098N07156964WA0146801530003102004000
B1545164237131N07156965WA0145801522003118004000
B1545184237165N07156965WA0145001513003090004000
B1545204237201N07156966WA0144201505003088004000
B1545224237237N07156969WA0143401498003100004000
B1545244237274N07156975WA0142701490003088004000
B1545264237311N07156983WA0142001483003069004000
B1545284237348N07156993WA0141301477003057004000
B1545304237385N07157005WA0140601470003072004000
B1545324237423N07157017WA0139901462003107004000
B1545344237461N07157032WA0139301456003118004000
B1545364237499N07157048WA0139301454003100004000
B1545384237536N07157065WA0139601455003067004000
B1545404237571N07157085WA0139601456003067004000
B1545424237606N07157106WA0139401456003113004000
B1545444237640N07157127WA0139201453003137004000
B1545464237676N07157148WA0139401454003111004000
B1545484237711N07157169WA0139701456003078004000
B1545504237745N07157191WA0140001459003055004000
B1545524237778N07157213WA0140101461003032004000
B1545544237810N07157236WA0140101462003036004000
B1545564237842N07157260WA0140201462003083004000
B1545584237874N07157284WA0140401464003109004000
B1546004237906N07157307WA0140901467003085004000
B1546024237942N07157321WA0141001469003053004000
B1546044237979N07157321WA0141901475003037004000
B1546064238016N07157307WA0142801484003034004000
B1546084238052N07157285WA0143301491003032004000
B1546104238086N07157260WA0143801496003032004000
B1546124238119N07157232WA0144101499003027004000
B1546144238153N07157206WA0144401502003031004000
B1546164238187N07157183WA0144101502003039004000
B1546184238222N07157160WA0143501498003037004000
B1546204238257N07157139WA0143301493003029004000
B1546224238292N07157119WA0142701490003060004000
B1546244238328N07157099WA0142001485003127004000
B1546264238365N07157080WA0141101475003172004000
B1546284238404N07157062WA0140301466003198004000
B1546304238444N07157045WA0139401459003186004000
B1546324238485N07157026WA0138501449003153004000
B1546344238526N07157007WA0137601441003135004000
B1546364238569N07156989WA0137001433003116004000
B1546384238612N07156972WA0136201425003109004000
B1546404238656N07156958WA0135501419003111004000
B1546424238700N07156945WA0134801411003114004000
B1546444238744N07156933WA0134101405003093004000
B1546464238789N07156920WA0133701398003064004000
B1546484238834N07156909WA0134301401003050004000
B1546504238877N07156897WA0134901406003034004000
B1546524238919N07156887WA0135501412003020004000
B1546544238960N07156878WA0135701414003020004000
B1546564238999N07156869WA0135901418003027004000
B1546584239037N07156861WA0136101420003060004000
B1547004239075N07156856WA0136101421003086004000
B1547024239114N07156855WA0136401423003064004000
B1547044239153N07156857WA0136701426003046004000
B1547064239192N07156863WA0136801427003043004000
B1547084239229N07156872WA0137601432003053004000
B1547104239266N07156883WA0138601441003048004000
B1547124239301N07156896WA0138801447003032004000
B1547144239337N07156902WA0139201451003029004000
B1547164239370N07156882WA0139801453003043004000
B1547184239388N07156837WA0140101457003090004000
B1547204239384N07156783WA0139801457003114004000
B1547224239359N07156738WA0138901449004095004000
B1547244239320N07156717WA0138001440004104004000
F1547250624011719140322514421
B1547264239278N07156723WA0137401431004114004000
F154726062401301719140322514421
B1547284239244N07156753WA0137401427003123004000
B1547304239222N07156794WA0137101425003142004000
B1547324239209N07156839WA0137101424003135004000
B1547344239203N07156887WA0137301426003146004000
B1547364239202N07156933WA0137301426003177004000
B1547384239205N07156980WA0137501430003179004000
B1547404239213N07157025WA0138001433003137004000
B1547424239225N07157067WA0138801440003079004000
B1547444239241N07157105WA0139201445003041004000
B1547464239264N07157134WA0139101446003043004000
B1547484239296N07157134WA0139801448004050004000
B1547504239321N07157100WA0139601451003051004000
B1547524239326N07157044WA0139901451003083004000
B1547544239304N07156994WA0140101454003130004000
B1547564239266N07156965WA0140501457003140004000
B1547584239224N07156959WA0141201461003097004000
B1548004239184N07156975WA0141101463003053004000
B1548024239159N07157013WA0141601465003027004000
B1548044239159N07157058WA0141201467003025004000
B1548064239181N07157089WA0141401465003071004000
B1548084239214N07157090WA0141601467003102004000
B1548104239242N07157058WA0141601469003081004000
B1548124239249N07157003WA0141901470003100004000
B1548144239232N07156949WA0141501469003156004000
B1548164239196N07156914WA0141701468003165004000
B1548184239152N07156907WA0142201472003118004000
B1548204239108N07156917WA0142401475003078004000
B1548224239073N07156947WA0142701477003067004000
B1548244239055N07156991WA0142901481003076004000
B1548264239056N07157037WA0142701480003102004000
B1548284239074N07157073WA0143101483003132004000
B1548304239099N07157098WA0143001486003121004000
B1548324239128N07157114WA0143201486003079004000
B1548344239158N07157123WA0142901486003088004000
B1548364239189N07157129WA0142401483003132004000
B1548384239221N07157135WA0142101479003163004000
B1548404239253N07157142WA0141701474003193004000
B1548424239286N07157149WA0141201470003211004000
B1548444239320N07157156WA0140801467003198004000
B1548464239354N07157164WA0140201463003179004000
B1548484239388N07157172WA0139301456003165004000
B1548504239424N07157181WA0138501449003149004000
B1548524239461N07157189WA0137601441003158004000
B1548544239499N07157195WA0136801431003195004000
B1548564239539N07157201WA0136101424003190004000
B1548584239580N07157208WA0135501418003123004000
B1549004239621N07157217WA0135001413003086004000
B1549024239662N07157227WA0135001409003095004000
B1549044239703N07157237WA0135201411003090004000
B1549064239743N07157245WA0135401414003081004000
B1549084239782N07157253WA0135501415003088004000
B1549104239820N07157261WA0135601417003076004000
B1549124239857N07157268WA0135501417003071004000
B1549144239894N07157275WA0135701418003085004000
B1549164239931N07157282WA0136001420003071004000
B1549184239967N07157290WA0136001422003064004000
B1549204240002N07157296WA0135501419003067004000
B1549224240038N07157304WA0134901413003067004000
B1549244240073N07157312WA0134301407003071004000
B1549264240108N07157322WA0133501400003069004000
B1549284240144N07157336WA0132901391003062004000
B1549304240180N07157353WA0132101384003053004000
B1549324240216N07157371WA0131101376003041004000
B1549344240252N07157391WA0130601369003034004000
B1549364240288N07157414WA0130101364003072004000
B1549384240324N07157438WA0129601358003111004000
B1549404240360N07157463WA0129201354003090004000
B1549424240395N07157489WA0128701351003071004000
B1549444240431N07157515WA0128301347003078004000
B1549464240466N07157541WA0128001342003099004000
B1549484240502N07157568WA0127601338003123004000
B1549504240539N07157595WA0128101340003104004000
B1549524240574N07157621WA0129601351003067004000
B1549544240609N07157645WA0130601364003048004000
B1549564240642N07157668WA0131501372003041004000
B1549584240675N07157690WA0132101379003036004000
B1550004240708N07157708WA0132501385003027004000
B1550024240743N07157702WA0133501389003029004000
B1550044240769N07157663WA0134501398003079004000
B1550064240774N07157610WA0135101405003109004000
B1550084240756N07157558WA0135001408003114004000
B1550104240723N07157519WA0134801406003137004000
B1550124240682N07157497WA0135001404003156004000
B1550144240638N07157494WA0134701403003160004000
B1550164240596N07157506WA0134201400003151004000
B1550184240559N07157533WA0134401399003118004000
B1550204240529N07157569WA0134301402003076004000
B1550224240518N07157613WA0135001404003085004000
B1550244240532N07157647WA0135801410003114004000
B1550264240560N07157657WA0135901414003132004000
B1550284240591N07157639WA0136101416003128004000
B1550304240615N07157603WA0135801416003123004000
B1550324240627N07157551WA0136001413003151004000
B1550344240624N07157494WA0135601412003172004000
B1550364240608N07157439WA0135501410003181004000
B1550384240579N07157391WA0135701410003193004000
B1550404240542N07157354WA0135801411003200004000
B1550424240500N07157331WA0135801412003177004000
B1550444240456N07157322WA0135701413003132004000
B1550464240413N07157327WA0135801413003105004000
B1550484240375N07157350WA0136101414003088004000
B1550504240345N07157386WA0135901415003074004000
B1550524240324N07157429WA0136101416003062004000
B1550544240314N07157476WA0136601420003041004000
B1550564240318N07157522WA0137301426003027004000
B1550584240338N07157554WA0138301434003022004000
B1551004240371N07157561WA0138901441004011005000
B1551024240403N07157539WA0139401447004027004000
B1551044240421N07157492WA0139401448003093004000
B1551064240418N07157436WA0139301448003158004000
B1551084240395N07157389WA0139101446003191004000
B1551104240359N07157356WA0139001443003211004000
B1551124240317N07157341WA0138901442003193004000
B1551144240274N07157343WA0138801442003130004000
B1551164240232N07157360WA0139101442003102004000
B1551184240198N07157392WA0139401446003083004000
B1551204240173N07157432WA0139701450003055004000
B1551224240158N07157477WA0139901453003046004000
B1551244240153N07157524WA0140501457003032004000
B1551264240157N07157569WA0140701463003013004000
B1551284240169N07157611WA0141301467003000004000
B1551304240191N07157641WA0141701470003007004000
B1551324240224N07157643WA0142201475004048005000
B1551344240255N07157612WA0143001481004088005000
B1551364240270N07157558WA0143501487003091004000
B1551384240263N07157499WA0143501489003076004000
B1551404240235N07157451WA0143601489003100004000
B1551424240195N07157431WA0143601489004125004000
B1551444240155N07157444WA0144201492003092004000
B1551464240126N07157478WA0144201494003053004000
B1551484240115N07157522WA0144501497003032004000
B1551504240125N07157560WA0144901500003020004000
B1551524240154N07157574WA0145501506004025005000
B1551544240186N07157554WA0145501509004050005000
B1551564240206N07157504WA0145201506004071004000
B1551584240202N07157442WA0145301504003081004000
B1552004240176N07157387WA0145701507003097004000
B1552024240137N07157355WA0146701513004111004000
B1552044240094N07157352WA0147401523004088004000
B1552064240057N07157372WA0147701528003048004000
B1552084240033N07157408WA0148001532003029004000
B1552104240030N07157450WA0148501535003022004000
B1552124240048N07157479WA0148701538003041004000
B1552144240079N07157484WA0148901541004046005000
B1552164240110N07157459WA0149001543004048005000
B1552184240129N07157409WA0149101544003093004000
B1552204240129N07157350WA0149401546003135004000
B1552224240107N07157297WA0149601547003144004000
B1552244240068N07157268WA0149901549004116005000
B1552264240026N07157267WA0150501554004069004000
B1552284239989N07157287WA0150601556003034004000
B1552304239971N07157327WA0151201561003027004000
B1552324239980N07157363WA0151601565003060004000
B1552344240007N07157375WA0151801568004076005000
B1552364240037N07157356WA0152201571004071005000
B1552384240059N07157313WA0152201573003076004000
B1552404240065N07157258WA0152301574003074004000
B1552424240052N07157202WA0152501575003085004000
B1552444240025N07157155WA0152901578003093004000
B1552464239989N07157121WA0153301581003069004000
B1552484239948N07157103WA0153601586003041004000
B1552504239906N07157103WA0153301586003048004000
B1552524239872N07157127WA0153201585003088004000
B1552544239851N07157167WA0153301584003109004000
B1552564239847N07157211WA0153501585003092004000
B1552584239858N07157251WA0153801588003062004000
B1553004239881N07157282WA0154301593003034004000
B1553024239910N07157301WA0154701597003015004000
B1553044239943N07157310WA0154801600003004004000
B1553064239977N07157316WA0155301604003032004000
B1553084240010N07157321WA0155401608003057004000
B1553104240042N07157327WA0155401610003062004000
B1553124240073N07157333WA0154801607003083004000
B1553144240104N07157341WA0153901600003086004000
B1553164240136N07157351WA0153201592003107004000
B1553184240170N07157362WA0152001583003158004000
B1553204240205N07157376WA0151101573003181004000
B1553224240242N07157391WA0150601566003170004000
B1553244240279N07157406WA0149901560003163004000
B1553264240317N07157422WA0149401554003184004000
B1553284240356N07157438WA0149201552003188004000
B1553304240394N07157457WA0149401552003142004000
B1553324240431N07157476WA0149301553003095004000
B1553344240468N07157495WA0149301553003090004000
B1553364240505N07157515WA0149201553003083004000
B1553384240542N07157536WA0149901553003067004000
B1553404240577N07157559WA0151201565003055004000
B1553424240609N07157580WA0152001577003043004000
B1553444240640N07157603WA0152401582003036004000
B1553464240668N07157629WA0153101587003029004000
B1553484240695N07157656WA0153501594003027004000
B1553504240721N07157682WA0153701597003032004000
B1553524240748N07157708WA0153501596003076004000
B1553544240774N07157736WA0153401592003132004000
B1553564240801N07157766WA0153001590003158004000
B1553584240828N07157797WA0152101585003155004000
B1554004240855N07157829WA0151401577003146004000
B1554024240882N07157863WA0151001570003167004000
B1554044240909N07157898WA0150501566003205004000
B1554064240935N07157936WA0150301563003223004000
B1554084240962N07157974WA0149801560003193004000
B1554104240988N07158013WA0149901558003170004000
B1554124241015N07158052WA0150201559003160004000
B1554144241042N07158091WA0150301562003125004000
B1554164241068N07158129WA0150201562003079004000
B1554184241095N07158166WA0150201562003048004000
B1554204241121N07158203WA0149801559003095004000
B1554224241148N07158240WA0149401556003160004000
B1554244241175N07158276WA0149101552003186004000
B1554264241203N07158313WA0149301551003188004000
B1554284241230N07158349WA0151001559003163004000
B1554304241255N07158382WA0152701577003128004000
B1554324241276N07158413WA0153001588003097004000
B1554344241297N07158443WA0152801587003083004000
B1554364241317N07158475WA0152201584003088004000
B1554384241337N07158506WA0151801579003125004000
B1554404241358N07158538WA0151501574003167004000
B1554424241381N07158568WA0151001570003170004000
B1554444241404N07158597WA0150501566003139004000
B1554464241427N07158627WA0150101562003107004000
B1554484241450N07158658WA0149401556004097005000
B1554504241473N07158690WA0148501549004097005000
B1554524241497N07158723WA0148101543004104005000
B1554544241522N07158757WA0147501537004123005000
B1554564241547N07158791WA0147001532004130005000
B1554584241572N07158826WA0147601531004114005000
B1555004241597N07158860WA0148501540004079005000
B1555024241621N07158891WA0149301548004053005000
B1555044241644N07158920WA0149201552004048005000
B1555064241667N07158948WA0148801550004067005000
B1555084241690N07158977WA0149001548004083005000
B1555104241713N07159005WA0149301550004074005000
B1555124241736N07159033WA0149601554004067005000
B1555144241758N07159061WA0149601555004074005000
B1555164241780N07159089WA0149001551004097005000
B1555184241802N07159119WA0148201544004114005000
B1555204241826N07159152WA0148301540004095005000
B1555224241850N07159186WA0148301541004060005000
B1555244241875N07159220WA0148701543004041005000
B1555264241899N07159254WA0148801546004034005000
B1555284241922N07159288WA0148601547004027005000
B1555304241946N07159322WA0148601545004046005000
B1555324241969N07159357WA0148801545004069005000
B1555344241992N07159392WA0149401548004053005000
B1555364242015N07159427WA0149401553004025005000
B1555384242036N07159464WA0149501554004025005000
B1555404242056N07159502WA0149701555004037005000
B1555424242076N07159540WA0149701556004032005000
B1555444242095N07159579WA0150201558004018005000
B1555464242115N07159617WA0150601562004009005000
B1555484242133N07159654WA0151101568004004005000
B1555504242152N07159689WA0151501572004004005000
B1555524242171N07159723WA0151901576004013005000
B1555544242191N07159755WA0152101579004013005000
B1555564242211N07159788WA0152301581004004005000
B1555584242231N07159821WA0153101585004000005000
B1556004242251N07159856WA0153601591004000005000
B1556024242270N07159891WA0153901596004000005000
B1556044242290N07159926WA0153901597004000005000
B1556064242309N07159961WA0153301595004007005000
B1556084242329N07159998WA0152101585004039005000
B1556104242350N07200036WA0150901572004072005000
B1556124242373N07200076WA0149701561004084005000
B1556144242397N07200117WA0148801550004095005000
B1556164242422N07200161WA0148301544004100005000
B1556184242449N07200206WA0149701544004083005000
B1556204242476N07200248WA0150201558004055005000
B1556224242509N07200267WA0151701568004032005000
B1556244242541N07200240WA0152401576004032005000
B1556264242551N07200185WA0152801579004041005000
B1556284242535N07200133WA0153101581004050005000
B1556304242502N07200095WA0152901579004074005000
B1556324242462N07200076WA0152501576004102005000
B1556344242419N07200077WA0152701574004107005000
B1556364242382N07200098WA0152401576004097005000
B1556384242353N07200131WA0152601578004074005000
B1556404242334N07200174WA0152901581004043005000
B1556424242322N07200219WA0153201584004022005000
B1556444242316N07200265WA0153101586004025005000
B1556464242316N07200310WA0153601587004041005000
B1556484242324N07200351WA0153801593004050005000
B1556504242337N07200389WA0153601593004062005000
B1556524242352N07200425WA0153001589004076005000
B1556544242370N07200459WA0152101582004095005000
B1556564242390N07200493WA0151301574004104005000
B1556584242412N07200527WA0151101569004109005000
B1557004242434N07200560WA0150601565004097005000
B1557024242458N07200593WA0149601558004081005000
B1557044242483N07200626WA0148601547004088005000
B1557064242512N07200656WA0147601537004093005000
B1557084242545N07200683WA0146701528004088005000
B1557104242581N07200707WA0146601524004069005000
B1557124242617N07200728WA0147201527004048005000
B1557144242653N07200748WA0147601533004031005000
B1557164242688N07200766WA0149201541004034005000
B1557184242720N07200781WA0150001555004043005000
B1557204242752N07200795WA0150101560004039005000
B1557224242783N07200808WA0150401562004041005000
B1557244242814N07200823WA0150401563004041005000
B1557264242846N07200841WA0150401563004032005000
B1557284242875N07200863WA0151501568004022005000
B1557304242900N07200893WA0151901575004009005000
B1557324242919N07200931WA0152501580004000005000
F1557320601301719140322514421
B1557344242928N07200974WA0151701579004011005000
F155734062401301719140322514421
B1557364242936N07201016WA0151401574004041005000
B1557384242950N07201054WA0151001570004048005000
B1557404242970N07201087WA0150801567004053005000
B1557424242992N07201116WA0150401564004071005000
B1557444243016N07201144WA0150301562004076005000
B1557464243042N07201172WA0149901560004071005000
B1557484243067N07201198WA0149601557004071005000
B1557504243094N07201225WA0149001553004095005000
B1557524243121N07201251WA0148201545004102005000
B1557544243148N07201280WA0147001534004081005000
B1557564243175N07201311WA0146401525004062005000
B1557584243203N07201345WA0145701519004048005000
B1558004243231N07201379WA0145101513004039005000
B1558024243260N07201414WA0144801508004039005000
B1558044243288N07201452WA0144501505004034005000
B1558064243315N07201491WA0144501504004022005000
B1558084243342N07201527WA0144601505004039005000
B1558104243369N07201564WA0144701506004064005000
B1558124243395N07201601WA0145001509004055005000
B1558144243422N07201635WA0145101511004034005000
B1558164243449N07201667WA0144701509004027005000
B1558184243475N07201699WA0144001503004032005000
B1558204243503N07201732WA0143301497004050005000
B1558224243529N07201766WA0142801490004074005000
B1558244243555N07201802WA0142201484004090005000
B1558264243580N07201839WA0141801480004088005000
B1558284243605N07201876WA0141301475004074005000
B1558304243630N07201914WA0140801470004064005000
F1558300624013017191403225121
B1558324243654N07201953WA0140301465004057005000
B1558344243678N07201992WA0139901460004052005000
B1558364243702N07202032WA0139401454004043005000
B1558384243724N07202077WA0138501447004041005000
B1558404243745N07202124WA0138201443004041005000
B1558424243765N07202173WA0137801440004046005000
B1558444243785N07202221WA0137601437004046005000
B1558464243804N07202270WA0137801437004034005000
B1558484243824N07202316WA0137901439004027005000
B1558504243844N07202361WA0138001441004015004000
B1558524243866N07202401WA0137701438004018004000
B1558544243892N07202436WA0137201435004015004000
B1558564243922N07202466WA0136701430004004004000
B1558584243954N07202490WA0136301425004020004000
B1559004243988N07202511WA0135601420004034004000
B1559024244024N07202527WA0134701412004027004000
B1559044244062N07202538WA0133701402004024004000
B1559064244102N07202546WA0132701392004027004000
F155907062401301719140322512102
B1559084244144N07202552WA0132001384003032004000
B1559104244186N07202557WA0131301376003034004000
B1559124244229N07202563WA0130801370003032004000
B1559144244272N07202568WA0130601367003032004000
B1559164244314N07202574WA0131901371003022004000
B1559184244352N07202578WA0132701383003015004000
B1559204244389N07202582WA0132601387003027004000
B1559224244425N07202586WA0132601385003053004000
B1559244244462N07202591WA0132701385003069004000
B1559264244498N07202597WA0133101388003053004000
B1559284244533N07202604WA0133301392003037004000
B1559304244569N07202612WA0133301394003032004000
B1559324244604N07202619WA0133401394003027004000
B1559344244638N07202627WA0133301392003048004000
B1559364244673N07202637WA0133301391003088004000
B1559384244707N07202650WA0133301391003104004000
B1559404244741N07202666WA0133301391003078004000
B1559424244774N07202684WA0133301391003043004000
B1559444244808N07202702WA0133801394003027004000
B1559464244841N07202719WA0134701401003015004000
B1559484244872N07202738WA0135401410003004004000
B1559504244900N07202763WA0136201417003000004000
F1559500624013017191403225102
B1559524244913N07202802WA0137201426003013004000
B1559544244904N07202843WA0137301432003041004000
F155955062401301719140322512102
B1559564244874N07202870WA0136601428003065004000
F15595706240130171914032221
B1559584244833N07202866WA0135801422003079004000
B1600004244796N07202832WA0135401416003088004000
B1600024244772N07202779WA0135601414004093004000
B1600044244768N07202719WA0136001419003097004000
B1600064244779N07202666WA0136601425003090004000
F1600060624013017191403220221
B1600084244801N07202624WA0137201430003062004000
B1600104244831N07202598WA0137801437003032004000
B1600124244863N07202588WA0138701444003015004000
B1600144244894N07202596WA0139001449003011004000
F16001506240130171914032202
B1600164244916N07202624WA0139001451003004004000
B1600184244916N07202666WA0139101450003000004000
B1600204244890N07202699WA0138601447003025004000
F16002006013017191403220221
F160021060130171914032221
B1600224244851N07202705WA0138801446003067004000
B1600244244812N07202681WA0138601444003083004000
F16002406240130171914032221
B1600264244783N07202635WA0138801445003069004000
B1600284244771N07202576WA0139501453003043004000
F160028062401171914032221
B1600304244782N07202521WA0139901459003025004000
F16003006240117191403220221
B1600324244812N07202490WA0140201462003018004000
F1600330624013017191403220221
B1600344244849N07202486WA0140201465003009004000
B1600364244887N07202498WA0140501466003000004000
B1600384244915N07202528WA0141701472004002004000
F16003806240130171914032202
B1600404244918N07202574WA0143001486003015004000
B1600424244892N07202609WA0143401494003029004000
F16004206013017191403220221
B1600444244855N07202611WA0143401496003034004000
B1600464244823N07202580WA0143301495003037004000
F16004606240117191403220221
B1600484244809N07202527WA0143301494003044004000
B1600504244818N07202469WA0143601498003041004000
B1600524244845N07202431WA0144101502003020004000
B1600544244881N07202428WA0144301504003020004000
F1600540624013017191403220221
F16005506240130171914032202
B1600564244908N07202457WA0144801509003032004000
B1600584244912N07202506WA0144801510004020004000
F160058062401301719140322
F16005906240130171914032202
B1601004244887N07202548WA0144701508003004004000
F16010106013017191403220221
B1601024244844N07202554WA0144901509003009004000
F160102060130171914032221
B1601044244810N07202515WA0145601513004030004000
F1601040601171914032221
F160105062401171914032221
B1601064244803N07202455WA0146101519003055004000
B1601084244821N07202404WA0147001527003062004000
F16010906240117191403220221
B1601104244853N07202380WA0147801535003039004000
F1601100624013017191403220221
B1601124244886N07202390WA0148301539003018004000
F16011306240130171914032202
B1601144244906N07202425WA0148301541003011004000
B1601164244901N07202475WA0148501543004006004000
B1601184244870N07202511WA0148601547003000004000
F1601180624013017191403220221
F160119060130171914032221
B1601204244828N07202511WA0149001551003002004000
B1601224244794N07202473WA0149401553003025004000
F160122062401171914032221
B1601244244785N07202415WA0149501556003053004000
B1601264244801N07202363WA0149901559003069004000
F16012606240117191403220221
B1601284244835N07202341WA0150701566003053004000
F1601290624013017191403220221
B1601304244868N07202354WA0150901569003034004000
F16013106240130171914032202
B1601324244882N07202395WA0151501572004025004000
B1601344244868N07202443WA0151801577004006004000
F1601350624013017191403220221
B1601364244832N07202469WA0152201583003002004000
F160136060130171914032221
B1601384244791N07202455WA0153101589003006004000
F160139062401171914032221
B1601404244765N07202410WA0153201593003032004000
B1601424244762N07202354WA0153101593003060004000
B1601444244782N07202308WA0153301592003048004000
F16014406240117191403220221
F1601450624013017191403220221
B1601464244816N07202289WA0153601595003022004000
B1601484244848N07202306WA0154201600003013004000
F16014906240130171914032202
B1601504244863N07202347WA0154701606003009004000
B1601524244853N07202396WA0154901610003002004000
F1601530624013017191403220221
B1601544244822N07202430WA0155401614003000004000
F16015406013017191403220221
B1601564244781N07202432WA0155701617003004004000
F160156060130171914032221
B1601584244745N07202399WA0155901618003016004000
F16015906240130171914032221
B1602004244729N07202345WA0155901619003044004000
B1602024244737N07202289WA0156201621003053004000
F1602030624013017191403220221
B1602044244764N07202254WA0156701625003029004000
F16020506240130171914032202
B1602064244798N07202253WA0157401631003013004000
B1602084244822N07202284WA0158201640003004004000
B1602104244824N07202330WA0158801645003000004000
B1602124244801N07202369WA0158601647003000004000
F16021206013017191403220221
F160213060130171914032221
B1602144244762N07202382WA0158501646003006004000
B1602164244722N07202359WA0158801646003000004000
F16021706240130171914032221
B1602184244698N07202308WA0159201651003004004000
B1602204244699N07202251WA0159701656003015004000
F160220062401171914032221
B1602224244721N07202211WA0160101660003020004000
F16022206240117191403220221
F1602230624013017191403220221
B1602244244754N07202202WA0160401663003027004000
B1602264244784N07202226WA0160501664003029004000
F16022606240130171914032202
B1602284244798N07202270WA0161001668003016004000
B1602304244795N07202321WA0161401673003002004000
F1602300624013017191403220221
B1602324244775N07202365WA0162101678003016004000
B1602344244742N07202392WA0162301683003053004000
F16023406240130171914032221
B1602364244703N07202396WA0162101683003081004000
F16023606240117191403220221
B1602384244666N07202379WA0161901679003076004000
B1602404244635N07202342WA0160901674003065004000
F1602400624013017191403220221
B1602424244616N07202291WA0161001668003072004000
B1602444244613N07202234WA0160701666003081004000
B1602464244622N07202179WA0160801667003092004000
F16024706240130171914032202
B1602484244644N07202135WA0161401670003095004000
F1602490624013017191403220221
B1602504244674N07202105WA0161701674003062004000
B1602524244708N07202090WA0161701678003027004000
F16025306240130171914032202
B1602544244741N07202095WA0162501682003011004000
B1602564244760N07202127WA0162901687004011004000
B1602584244757N07202172WA0162701687004032004000
B1603004244732N07202209WA0162901687003053004000
F16030006013017191403220221
F160301060130171914032221
B1603024244695N07202227WA0163101690003048004000
B1603044244656N07202215WA0163601693003039004000
F16030506240130171914032221
B1603064244626N07202177WA0164001698003034004000
B1603084244617N07202124WA0164601703003022004000
B1603104244628N07202077WA0165101708003015004000
F1603100624013017191403220221
F16031106240130171914032202
B1603124244653N07202048WA0165501712003015004000
F1603130624013017191403220221
B1603144244684N07202039WA0165301714003011004000
B1603164244714N07202041WA0165101712003004004000
B1603184244745N07202049WA0164901710003018004000
B1603204244775N07202062WA0164301706003057004000
B1603224244804N07202078WA0163801700003088004000
B1603244244833N07202101WA0162901692003088003000
B1603264244860N07202130WA0162001681003069003000
B1603284244888N07202164WA0161001672003055003000
B1603304244916N07202200WA0160601666003053003000
B1603324244944N07202238WA0160301663003060003000
B1603344244971N07202275WA0160201662003055003000
B1603364244998N07202313WA0160301661003041003000
B1603384245023N07202349WA0160201661003045003000
B1603404245048N07202385WA0159501657003043003000
B1603424245074N07202421WA0158801650003053003000
B1603444245100N07202459WA0158601644003069003000
B1603464245126N07202497WA0158201642003057003000
B1603484245153N07202536WA0158601642003041003000
B1603504245178N07202574WA0159201647003034003000
F16035006240117191403220221
B1603524245202N07202612WA0159501652003029003000
B1603544245225N07202648WA0159701655003022004000
F1603540624011719140322022151
B1603564245247N07202685WA0159301654003046004000
B1603584245269N07202721WA0159101651003083004000
F16035906240117191403220221
B1604004245292N07202758WA0159101650003100004000
B1604024245314N07202794WA0159101650003104004000
B1604044245335N07202831WA0159001650003081004000
B1604064245356N07202868WA0159101649003062004000
B1604084245377N07202906WA0159301650003074004000
B1604104245397N07202945WA0159701654003064004000
B1604124245417N07202983WA0159601655003036004000
B1604144245438N07203020WA0159101652003039004000
B1604164245460N07203058WA0158601647003053004000
B1604184245481N07203096WA0158601644003043004000
B1604204245503N07203135WA0158701645003032004000
B1604224245524N07203173WA0158901647003029004000
B1604244245546N07203211WA0158401645003051004000
B1604264245568N07203248WA0157601639003093004000
B1604284245591N07203285WA0156601628003105004000
B1604304245615N07203324WA0156201621003083004000
B1604324245640N07203363WA0155601617003078004000
B1604344245665N07203402WA0155401613003088004000
B1604364245691N07203440WA0155001611003076004000
B1604384245716N07203480WA0155101610003055004000
F160438062401171914032202215144
B1604404245741N07203519WA0155101610003043004000
B1604424245766N07203556WA0155001609003060004000
B1604444245793N07203593WA0154401605003093004000
B1604464245820N07203627WA0153601598003111004000
B1604484245850N07203661WA0153201592003109004000
B1604504245881N07203692WA0152901588003095004000
B1604524245913N07203721WA0152601585003090004000
B1604544245946N07203748WA0153001585003086004000
B1604564245979N07203774WA0153601590003060004000
B1604584246011N07203800WA0154501597003039004000
B1605004246041N07203826WA0155101606003027004000
B1605024246070N07203852WA0155601612003013004000
B1605044246099N07203876WA0155801615003006004000
B1605064246126N07203900WA0156101616003020004000
B1605084246153N07203924WA0156201617003044004000
B1605104246179N07203947WA0156001617003072004000
B1605124246206N07203970WA0155501614003107004000
B1605144246234N07203989WA0154701606003130004000
B1605164246264N07204010WA0153601597003144004000
B1605184246295N07204032WA0152701588003149004000
B1605204246327N07204057WA0151701578003149004000
B1605224246358N07204086WA0150901570003149004000
B1605244246388N07204119WA0150201562003137004000
B1605264246417N07204154WA0149701556003111004000
B1605284246445N07204193WA0149301552003090004000
B1605304246473N07204232WA0149201549003072004000
B1605324246500N07204270WA0149301549003048004000
B1605344246526N07204308WA0149401552003037004000
B1605364246550N07204346WA0149301552003046004000
B1605384246574N07204385WA0148701547003062004000
B1605404246598N07204424WA0148001541003067004000
B1605424246618N07204468WA0147801537003072004000
B1605444246636N07204514WA0147501534003074004000
B1605464246653N07204559WA0147401532003067004000
B1605484246671N07204604WA0146701529003062004000
B1605504246691N07204648WA0146001523003057004000
B1605524246713N07204691WA0145401515003062004000
B1605544246737N07204736WA0145101511003069004000
B1605564246759N07204781WA0145201511003055004000
B1605584246781N07204827WA0145201511003041004000
B1606004246802N07204872WA0144801509003062004000
B1606024246823N07204917WA0144701506003076004000
B1606044246845N07204962WA0145001507003060004000
B1606064246865N07205005WA0146901515003048004000
B1606084246884N07205043WA0148101534003039004000
B1606104246900N07205077WA0148401543003043004000
B1606124246916N07205110WA0148201542003062004000
B1606144246931N07205143WA0147901538003081004000
B1606164246947N07205175WA0147501535003088004000
B1606184246963N07205208WA0146901529003090004000
B1606204246979N07205243WA0146401523003109004000
B1606224246996N07205278WA0145401516003123004000
B1606244247014N07205313WA0144201505003113004000
B1606264247034N07205351WA0143201494003085004000
B1606284247055N07205390WA0142601487003064004000
B1606304247077N07205432WA0142901485003060004000
B1606324247097N07205474WA0143201487003043004000
B1606344247116N07205515WA0143901493003022004000
B1606364247136N07205552WA0144001497003015004000
B1606384247160N07205583WA0144001499003015004000
B1606404247186N07205609WA0143201494003020004000
B1606424247213N07205634WA0142001484003018004000
B1606444247241N07205661WA0140801472003015004000
B1606464247267N07205693WA0139901460003018004000
B1606484247289N07205732WA0139301453003025004000
B1606504247309N07205776WA0138701447003034004000
B1606524247329N07205819WA0138001441003037004000
B1606544247350N07205864WA0137101433003034004000
B1606564247371N07205909WA0136201425003041004000
B1606584247393N07205955WA0135701419003062004000
B1607004247415N07206002WA0135301415003062004000
B1607024247437N07206049WA0134801410003044004000
B1607044247459N07206096WA0134301405003037004000
B1607064247482N07206141WA0134901404003039004000
B1607084247505N07206186WA0134901407003032004000
B1607104247527N07206229WA0135001408003022004000
B1607124247549N07206273WA0135101409003027004000
B1607144247568N07206317WA0134901408003029004000
B1607164247583N07206367WA0135101408003018004000
B1607184247593N07206419WA0135901414003004004000
B1607204247601N07206469WA0136901422003006004000
B1607224247608N07206519WA0137601431003011004000
B1607244247614N07206569WA0137901436003013004000
B1607264247620N07206618WA0138201440003027004000
B1607284247626N07206668WA0138801444003027004000
B1607304247631N07206717WA0139001448003015004000
B1607324247643N07206762WA0139801453003013004000
B1607344247664N07206798WA0140601460003006004000
B1607364247693N07206815WA0141201466004004004000
B1607384247724N07206795WA0141801473004006004000
B1607404247736N07206742WA0142801480004002004000
B1607424247720N07206685WA0143401487004000004000
B1607444247681N07206653WA0144401495004000004000
B1607464247636N07206654WA0144501499004002004000
B1607484247603N07206687WA0144901502003022004000
B1607504247589N07206733WA0145401506003029004000
B1607524247594N07206778WA0145701510003013004000
B1607544247616N07206806WA0145901512003002004000
B1607564247646N07206805WA0146601517003000004000
B1607584247673N07206777WA0146901523003011004000
B1608004247686N07206729WA0146901524003043004000
B1608024247680N07206674WA0147301526003069004000
B1608044247657N07206623WA0147601528003057004000
B1608064247619N07206589WA0148401533003025004000
B1608084247573N07206579WA0148501538004009004000
B1608104247531N07206596WA0148701541003013004000
B1608124247501N07206633WA0148701543003048004000
B1608144247490N07206681WA0149101545003065004000
B1608164247495N07206726WA0149201546003048004000
B1608184247514N07206761WA0149101545003036004000
B1608204247544N07206770WA0149701549004039004000
B1608224247573N07206750WA0149901554004055004000
B1608244247591N07206708WA0149601553003067004000
B1608264247592N07206654WA0149701550003086004000
B1608284247575N07206601WA0149201547003095004000
B1608304247540N07206559WA0149101546003067004000
B1608324247495N07206537WA0149701547004034004000
B1608344247449N07206542WA0149801549004025004000
B1608364247416N07206578WA0150601554003046004000
B1608384247408N07206624WA0151501563003078004000
B1608404247418N07206663WA0151701567003088004000
B1608424247433N07206697WA0151801569003062004000
B1608444247447N07206734WA0151701571003034004000
B1608464247457N07206774WA0151001568003032004000
B1608484247466N07206815WA0150801564003051004000
B1608504247474N07206857WA0150101559003081004000
B1608524247483N07206900WA0149401553003109004000
B1608544247494N07206943WA0148801547003128004000
B1608564247508N07206986WA0148401542003118004000
B1608584247524N07207029WA0148401539003102004000
B1609004247541N07207071WA0148001539003095004000
B1609024247559N07207113WA0147701536003097004000
B1609044247577N07207154WA0147101531003102004000
B1609064247598N07207195WA0146501525003095004000
B1609084247621N07207234WA0145801518003090004000
B1609104247645N07207273WA0145501513003074004000
B1609124247669N07207312WA0145501511003048004000
B1609144247693N07207352WA0146001515003037004000
B1609164247716N07207391WA0146701520003029004000
B1609184247738N07207429WA0146801525003018004000
B1609204247759N07207466WA0146801526003009004000
B1609224247779N07207503WA0146701525003013004000
B1609244247800N07207538WA0147201527003048004000
B1609264247821N07207573WA0147701532003062004000
B1609284247842N07207606WA0148501538003041004000
B1609304247861N07207640WA0149001544003025004000
B1609324247873N07207681WA0149201550003018004000
B1609344247882N07207722WA0149401551003013004000
B1609364247890N07207765WA0149501552003004004000
B1609384247888N07207809WA0150601557003000004000
B1609404247865N07207844WA0151401566003020004000
F1609400624011719140322022151
F160941060117191403220221
B1609424247829N07207854WA0151501569003057004000
B1609444247791N07207836WA0151001567004074004000
F1609440601171914032221
F160945062401171914032221
B1609464247763N07207795WA0151301568004057004000
F16094706240117191403220221
B1609484247751N07207744WA0151401572004029004000
B1609504247755N07207696WA0151601574003027004000
B1609524247773N07207658WA0151101573003027004000
B1609544247800N07207637WA0150801568003022004000
B1609564247831N07207635WA0150201563003018004000
F160957062401171914032202
B1609584247860N07207648WA0150101560003011004000
B1610004247887N07207671WA0149701556003016004000
F16100006240117191403220221
B1610024247912N07207698WA0149601555003041004000
B1610044247935N07207729WA0149901556003057004000
B1610064247954N07207764WA0150301560003048004000
B1610084247972N07207800WA0150401563003053004000
B1610104247990N07207834WA0149901560003072004000
B1610124248010N07207868WA0149101553003081004000
B1610144248033N07207900WA0148101544003090004000
B1610164248058N07207932WA0147301535003083004000
B1610184248086N07207963WA0146401526003072004000
B1610204248118N07207988WA0145601519003069004000
B1610224248154N07208006WA0145401512003076004000
B1610244248192N07208018WA0145301512003097004000
B1610264248230N07208026WA0144701508003104004000
B1610284248269N07208033WA0144401503003097004000
B1610304248307N07208041WA0143701497003081004000
B1610324248346N07208050WA0143701494003060004000
B1610344248384N07208059WA0143501493003053004000
B1610364248422N07208068WA0143201491003053004000
B1610384248460N07208078WA0142601486003052004000
B1610404248497N07208091WA0142001479003041004000
B1610424248534N07208107WA0141701476003024004000
B1610444248570N07208123WA0142001476003025004000
B1610464248605N07208139WA0141901476003027004000
B1610484248639N07208155WA0142001475003046004000
B1610504248673N07208173WA0142101476003065004000
B1610524248706N07208192WA0142401479003060004000
F1610520624011719140322022151
B1610544248739N07208211WA0142201480003050004000
B1610564248771N07208230WA0141901477003043004000
B1610584248804N07208247WA0141401473003036004000
B1611004248838N07208261WA0140701468003029004000
B1611024248874N07208270WA0139701460003039004000
B1611044248911N07208274WA0138801449003067004000
B1611064248950N07208274WA0138001440003076004000
B1611084248989N07208274WA0137101432003053004000
B1611104249029N07208277WA0136501425003034004000
B1611124249070N07208282WA0136001419003043004000
B1611144249111N07208290WA0135101411003060004000
B1611164249153N07208296WA0134501405003057004000
B1611184249195N07208300WA0135501406003043004000
B1611204249236N07208304WA0137301421003032004000
B1611224249272N07208308WA0138201433003020004000
B1611244249308N07208313WA0138001438003018004000
B1611264249342N07208318WA0137901436003043004000
B1611284249377N07208323WA0138101437003050004000
B1611304249412N07208330WA0138101438003034004000
B1611324249446N07208339WA0138601441003027004000
B1611344249479N07208349WA0139501446003018004000
B1611364249510N07208360WA0140001453003018004000
B1611384249541N07208362WA0140701459003036004000
B1611404249571N07208351WA0141501466003043004000
B1611424249597N07208326WA0142001474003025004000
B1611444249615N07208286WA0142601480003009004000
B1611464249618N07208235WA0142801484003006004000
B1611484249605N07208183WA0142901484004016004000
B1611504249573N07208140WA0143101484004027004000
B1611524249530N07208116WA0143201486004020004000
B1611544249485N07208119WA0143401488004011004000
B1611564249448N07208150WA0143501490003018004000
B1611584249432N07208196WA0143501490003018004000
B1612004249439N07208241WA0143401490003009004000
B1612024249465N07208265WA0143601490003032004000
B1612044249498N07208259WA0143701491003069004000
B1612064249525N07208226WA0144401497003065004000
B1612084249538N07208174WA0144801502003044004000
B1612104249534N07208117WA0145401505003039004000
B1612124249512N07208063WA0145601510003029004000
B1612144249477N07208022WA0146001514003018004000
B1612164249432N07208005WA0146201518003022004000
B1612184249387N07208013WA0146201517003022004000
B1612204249350N07208046WA0146401517003015004000
B1612224249327N07208092WA0146401519003029004000
B1612244249317N07208143WA0146701520003036004000
B1612264249320N07208192WA0147001525003029004000
B1612284249334N07208232WA0147001525003050004000
B1612304249359N07208261WA0147001526003074004000
B1612324249389N07208275WA0146901525003090004000
