ACNI279FLIGHT:1
HFDTE240421
HFFXA005
HFPLTPILOT:Bob Fletcher
HFCM2CREW:
HFGTYGLIDERTYPE:ASG 29
HFGIDGLIDERID:90
HFDTM100GPSDATUM:WGS84
HFRFWFIRMWAREVERSION:1.3
HFRHWHARDWAREVERSION:1.0
HFFTYFRTYPE:ClearNav Instr., ClearNav II
HFGPS:UBLOX,NEO-6G,16Ch,50000 
HFPRSPRESSALTSENSOR:Intersema,MS5540C,20000
HFCIDCOMPETITIONID:90
I033638FXA3941ENL4244GSP
C240421144316000000000102
C0000000N00000000ETAKEOFF
C4225500N07147467WSterling
C4320617N07231033WSpringfield
C4144660N07210820WWindham     
C4225500N07147467WSterling
C0000000N00000000ELANDING
B1524364225410N07147431WA0014800109000000000
B1524374225410N07147431WA0014800109000000000
B1524384225410N07147431WA0014800109000000000
B1524394225410N07147431WA0014800109000000000
B1524404225410N07147431WA0014900109000000000
B1524414225410N07147431WA0014900109000000000
B1524424225410N07147431WA0014900109000000000
B1524434225410N07147431WA0014900109000000000
B1524444225410N07147431WA0014900109000000000
B1524454225410N07147431WA0014900109000000001
B1524464225410N07147432WA0014900109000000003
B1524474225411N07147432WA0014900109000000003
B1524484225411N07147432WA0014900109000000002
B1524494225411N07147433WA0014900109000000002
B1524504225411N07147433WA0014900109000000001
B1524514225411N07147433WA0014900109000000000
B1524524225411N07147433WA0014900108000000000
B1524534225411N07147433WA0014900108000000001
B1524544225412N07147434WA0014900108000001014
B1524554225415N07147437WA0014900108000010032
B1524564225419N07147442WA0015000109000024035
B1524574225423N07147447WA0015000109000037038
B1524584225428N07147453WA0014900109000049051
B1524594225435N07147461WA0014900109000063061
B1525004225442N07147469WA0014800109000077064
LCNI152500EVT:ENDBASELINE
LCNI152455EVT:TAKEOFF
F152501040708091621273013138
B1525034225467N07147500WA0014800110000091085
B1525074225509N07147551WA0015000111000069103
B1525114225560N07147608WA0015300117000051116
B1525154225613N07147673WA0016100130000048119
B1525194225667N07147735WA0018600148000043117
B1525234225722N07147794WA0020600171000043117
B1525274225775N07147853WA0023100197000042112
B1525314225825N07147908WA0025800225000040105
B1525354225875N07147955WA0028300249000039097
B1525394225922N07147996WA0031000272000036093
B1525434225970N07148032WA0033000294000033091
B1525474226021N07148062WA0035000310000029091
B1525514226070N07148094WA0036000320000068093
B1525554226121N07148127WA0037000330000060099
B1525594226174N07148166WA0038500349000060101
F15260204070809162126273013138
B1526034226223N07148221WA0040700366000042108
B1526074226272N07148280WA0043200398000041105
B1526114226321N07148332WA0046700430000034103
B1526154226370N07148382WA0049400456000032103
B1526194226408N07148445WA0051300475000030099
B1526234226431N07148519WA0053900503000030098
B1526274226448N07148599WA0056100522000028106
B1526314226461N07148682WA0058700554000029105
B1526354226476N07148763WA0062200586000031101
B1526394226489N07148840WA0065300618000029095
B1526434226501N07148913WA0067800638000027092
B1526474226508N07148984WA0069000650000074088
B1526514226509N07149055WA0070600666000096087
B1526554226502N07149123WA0072600685000078083
B1526594226496N07149189WA0073500700000048082
F1527030407080916212627301313138
B1527034226485N07149255WA0074500709000078085
B1527074226476N07149323WA0075700717000068084
B1527114226463N07149387WA0076600735000074080
B1527154226451N07149448WA0078600752000054077
B1527194226435N07149509WA0080300765000055081
B1527234226418N07149573WA0081200767000076087
B1527274226402N07149642WA0081300769000074092
B1527314226383N07149713WA0081900779000085093
B1527354226361N07149783WA0082800786000119095
B1527394226340N07149855WA0083500794000090092
B1527434226318N07149925WA0084700808000096096
B1527474226296N07149997WA0086000823000102097
B1527514226276N07150071WA0087700835000059096
B1527554226257N07150144WA0088900852000082096
B1527594226236N07150218WA0090700867000065099
B1528034226213N07150292WA0092000880000054100
B1528074226189N07150368WA0093200891000079101
B1528114226163N07150442WA0094400904000115101
B1528154226137N07150515WA0096000919000111102
B1528194226107N07150589WA0097200931000077105
B1528234226076N07150663WA0098600948000066104
B1528274226043N07150736WA0100600968000041106
B1528314226010N07150809WA0102700991000030105
B1528354225979N07150882WA0105201016000028104
B1528394225944N07150951WA0108001048000029101
B1528434225917N07151015WA0112001083000038076
B1528474225933N07151066WA0113701093000045079
B1528514225990N07151062WA0114001094000042119
B1528554226038N07150984WA0113701101000036130
B1528594226036N07150882WA0114401107000056124
B1529034225993N07150806WA0115201115000062115
B1529074225937N07150759WA0116201126000051105
B1529114225882N07150756WA0117201131000056081
B1529154225869N07150805WA0117201124000070077
B1529194225918N07150836WA0116701120000074110
B1529234225977N07150782WA0116701123000079134
B1529274225981N07150676WA0117501131001074133
B1529314225931N07150605WA0118401142000059116
B1529354225871N07150571WA0120001154000060097
B1529394225828N07150590WA0119901146000065071
B1529434225840N07150645WA0119001141000072090
B1529474225901N07150648WA0118901139000062122
F152948040708091621273013138
B1529514225944N07150564WA0118601142001085132
B1529554225934N07150460WA0119201153000074127
B1529594225905N07150368WA0120301162000059123
B1530034225856N07150300WA0121201163000079109
B1530074225799N07150309WA0120701159000068093
B1530114225796N07150369WA0120501172000070084
B1530154225854N07150368WA0121801182001076129
B1530194225880N07150266WA0122801190001057142
B1530234225837N07150178WA0123001188001064124
B1530274225775N07150183WA0122901193001071096
B1530314225755N07150238WA0124401213001070073
B1530354225795N07150268WA0126001224001046096
B1530394225851N07150210WA0126101210001064146
B1530434225864N07150086WA0125401209001070159
B1530474225831N07149976WA0126501226001072134
B1530514225767N07149937WA0127701233001071108
B1530554225719N07149970WA0128201236000063084
B1530594225730N07150028WA0128701246000049083
B1531034225785N07150021WA0130001257000086115
B1531074225826N07149932WA0130401258001086144
F15310804070809162127301313138
B1531114225820N07149813WA0129601256001077152
B1531154225766N07149725WA0130201266000072134
B1531194225697N07149712WA0130901265000058106
B1531234225665N07149765WA0130201258000087083
B1531274225700N07149805WA0130701266000087090
B1531314225748N07149764WA0131801277000066111
B1531354225761N07149668WA0132101280001060129
B1531394225738N07149569WA0132401282000066129
B1531434225692N07149486WA0132101269000073129
B1531474225632N07149417WA0131001263000079133
B1531514225570N07149351WA0131301267000052133
B1531554225511N07149272WA0131301268000031145
B1531594225453N07149187WA0132701287000051134
B1532034225402N07149110WA0135201307000054129
B1532074225392N07149001WA0134601302000065144
F15320901040708091621273013138
B1532114225436N07148903WA0133501291000064141
B1532154225505N07148870WA0133101303000054108
B1532194225554N07148900WA0134701311000062081
B1532234225559N07148958WA0135001308000076077
B1532274225514N07148984WA0134701311000071096
B1532314225451N07148956WA0135201315000067116
B1532354225390N07148932WA0135801328000101097
B1532394225337N07148897WA0137301332000090115
B1532434225312N07148799WA0137101333000065137
B1532474225344N07148707WA0138101339000063122
B1532514225405N07148684WA0138301331000074097
B1532554225441N07148732WA0137201324000093087
B1532594225431N07148799WA0137201328000074086
B1533034225395N07148848WA0137701333000073094
B1533074225332N07148859WA0137901328000061116
F1533100104070809162127301313138
B1533114225261N07148844WA0137401322000060124
B1533154225195N07148792WA0137101318000084129
B1533194225129N07148733WA0135701297000076139
B1533234225056N07148669WA0133001278000038148
B1533274224977N07148613WA0132301270000022149
B1533314224903N07148544WA0131301264000019152
B1533354224833N07148468WA0131301269000040147
B1533394224764N07148397WA0131901274000027143
B1533434224701N07148316WA0132001268000018148
B1533474224634N07148235WA0131401269000027149
B1533514224563N07148163WA0132401278000030147
B1533554224504N07148078WA0133501293000047143
B1533594224493N07147966WA0135101303000060142
B1534034224546N07147890WA0135301313000053123
B1534074224612N07147889WA0135201312000069105
B1534114224641N07147947WA0136001317000068086
B1534154224612N07148005WA0135901317000074099
F153418010407080914162127301313138
B1534194224551N07148023WA0136001325000085109
B1534234224485N07148005WA0136401327000071120
B1534274224422N07147953WA0137201333000058124
B1534314224387N07147865WA0138401345000061132
B1534354224425N07147787WA0139401354000075112
B1534394224483N07147793WA0138801346000065098
B1534434224492N07147859WA0139301353000063087
B1534474224442N07147882WA0140201364000052103
B1534514224398N07147816WA0141201374000066127
B1534554224425N07147726WA0142001379001070120
B1534594224483N07147722WA0141901386000062087
B1535034224496N07147778WA0142901392000059076
B1535074224453N07147808WA0143001394000056099
B1535114224405N07147748WA0143601402001079128
B1535154224427N07147653WA0144701411001077123
B1535194224487N07147639WA0145301415001072094
B1535234224501N07147697WA0145601417001060083
B1535274224452N07147714WA0146101425001064103
B1535314224416N07147639WA0147001436001069128
B1535354224449N07147551WA0147601438001060122
B1535394224508N07147553WA0148201445001056088
B1535434224514N07147612WA0148501445001076081
B1535474224464N07147624WA0148901455001074097
B1535514224424N07147556WA0149701460001065125
B1535554224443N07147461WA0150201467001074123
F15355804070809141621273013138
B1535594224503N07147442WA0150801470001070092
B1536034224517N07147499WA0150901464001061084
B1536074224466N07147511WA0151001476001082101
B1536114224423N07147442WA0151901481001079127
B1536154224414N07147340WA0152701491001066126
B1536194224453N07147259WA0153101486001069120
B1536234224515N07147255WA0152301483001073096
B1536274224535N07147313WA0153201486000063081
B1536314224492N07147348WA0153101484000065107
B1536354224431N07147303WA0153701494000049125
B1536394224404N07147208WA0154801504000049131
B1536434224436N07147117WA0154901502000054123
B1536474224497N07147107WA0154801505000064094
B1536514224519N07147163WA0154701501001065083
B1536554224475N07147202WA0154601504001064101
F1536590104070809141621273013138
B1536594224412N07147183WA0155401512000065116
B1537034224358N07147121WA0156301519000064123
B1537074224340N07147029WA0156901524000057120
B1537114224382N07146959WA0157001524000057111
B1537154224444N07146941WA0156801522000052105
B1537194224509N07146929WA0156001512000053115
B1537234224581N07146928WA0155101506000053121
B1537274224656N07146930WA0155001496000039129
B1537314224731N07146938WA0154301502000057123
B1537354224804N07146946WA0154801504000040120
B1537394224875N07146947WA0155301507000027118
B1537434224948N07146935WA0154901493000026129
B1537474225026N07146901WA0153601481000063141
B1537514225107N07146863WA0152201467000041141
B1537554225186N07146822WA0151301466000030141
B1537594225260N07146777WA0152001481000054133
B1538034225326N07146721WA0153201488000049127
B1538074225393N07146678WA0153901491000044118
F15380804070809141621273013138
B1538114225457N07146686WA0154201490000043103
B1538154225497N07146741WA0153901487000064094
B1538194225513N07146817WA0152801468000081105
B1538234225521N07146901WA0151501470000075101
B1538274225522N07146980WA0151901472000049097
B1538314225514N07147057WA0152001472000023096
B1538354225498N07147134WA0151501459000021104
B1538394225479N07147219WA0149801447000033111
B1538434225457N07147302WA0149501443000018109
B1538474225425N07147381WA0148501433000013114
B1538514225391N07147465WA0146501408000010123
B1538554225365N07147560WA0144601398000015123
B1538594225342N07147650WA0145201412000027112
B1539034225321N07147731WA0146301414000026103
B1539074225313N07147812WA0144901390000030102
F1539090104070809141621273013138
B1539114225326N07147897WA0141401358000031115
B1539154225354N07147985WA0139301338000033125
B1539194225391N07148073WA0139501352000044124
B1539234225434N07148141WA0142701394000058096
B1539274225467N07148193WA0146301421000046080
B1539314225517N07148215WA0147701431000057106
B1539354225576N07148160WA0147601434000070139
B1539394225581N07148051WA0148701446000057136
B1539434225522N07148000WA0149401455000087108
B1539474225491N07148046WA0151201473000096078
B1539514225532N07148079WA0152801486000093104
B1539554225586N07148021WA0153501494001096134
B1539594225577N07147918WA0154801504000081130
B1540034225518N07147882WA0154901515000064094
B1540074225492N07147927WA0156401531000077071
F15401001070809141621273013138
B1540114225529N07147965WA0157701541000089099
B1540154225585N07147920WA0158801551000087127
B1540194225589N07147816WA0159901558000081133
B1540234225535N07147759WA0160701571000071101
B1540274225499N07147791WA0162101586000083067
B1540314225525N07147834WA0163101589000070095
B1540354225585N07147796WA0163301593000056133
B1540394225591N07147691WA0164001603000057131
B1540434225538N07147634WA0164901611000061103
B1540474225498N07147665WA0166101622000080071
B1540514225526N07147709WA0166901625000079097
B1540554225584N07147664WA0167301634001070136
B1540594225585N07147557WA0168401645000074132
B1541034225529N07147509WA0169501653000081100
B1541074225497N07147549WA0170301664000066069
B1541114225526N07147589WA0171401673000051086
B1541154225583N07147558WA0171401671000043133
F1541180104070809141621273013138
B1541194225616N07147460WA0172401687000062134
B1541234225587N07147368WA0173501690000054119
B1541274225529N07147359WA0173601695000056086
B1541314225519N07147413WA0174701702000043075
B1541354225571N07147423WA0175501712000062115
B1541394225611N07147336WA0176901716000074140
B1541434225590N07147232WA0177001720000062131
B1541474225528N07147196WA0177301728000060102
B1541514225484N07147225WA0178901742000052071
B1541554225504N07147272WA0179201745000055087
B1541594225564N07147248WA0179501744000057135
B1542034225583N07147138WA0179901749001057149
B1542074225524N07147070WA0180501754000053119
B1542114225484N07147112WA0181201763001056080
B1542154225516N07147155WA0182601779001061091
B1542194225576N07147120WA0183101780001049133
B1542234225584N07147012WA0183801787000064138
B1542274225526N07146960WA0184401794000054104
B1542314225493N07147002WA0185101802000059071
B1542354225527N07147041WA0185501808000059094
F15423801040708091416212730138
B1542394225588N07146999WA0185801803000058140
B1542434225597N07146885WA0185601806000061145
B1542474225545N07146802WA0185701810000065128
B1542514225481N07146775WA0186801822000074100
B1542554225435N07146809WA0187401824000059084
B1542594225435N07146866WA0187701832000051077
B1543034225487N07146879WA0188501834000048111
B1543074225539N07146803WA0188201827000059150
B1543114225526N07146687WA0188301836001061144
B1543154225471N07146606WA0189001846001058129
B1543194225407N07146567WA0190301857001056107
B1543234225353N07146584WA0191001861000053085
B1543274225322N07146634WA0191301867000060078
B1543314225302N07146691WA0192001872000058079
B1543354225295N07146755WA0192601877000049081
F1543390104070809141621273013138
B1543394225295N07146823WA0192701878000040089
B1543434225299N07146896WA0193001882000076088
B1543474225302N07146964WA0193601889000063082
B1543514225309N07147032WA0193501884000053086
B1543554225331N07147094WA0193601886000021089
B1543594225375N07147144WA0193201879000027103
B1544034225432N07147187WA0192301871000048111
B1544074225493N07147233WA0191601858000035122
B1544114225560N07147287WA0190201855000027133
B1544154225625N07147333WA0192701885000051114
B1544194225687N07147366WA0194001888000052109
B1544234225749N07147400WA0192801869000024117
B1544274225821N07147441WA0189801842000016135
B1544314225898N07147473WA0188401827000019136
B1544354225979N07147505WA0186501812000043144
B1544394226062N07147503WA0187601826000022137
B1544434226144N07147505WA0188101830000051133
B1544474226215N07147524WA0189401844000055114
B1544514226280N07147558WA0189001836000025118
B1544554226343N07147604WA0188501837000036119
B1544594226407N07147650WA0188401831000016123
B1545034226470N07147705WA0187101819000012129
B1545074226531N07147761WA0188601843000034112
B1545114226585N07147803WA0189801856000032102
B1545154226643N07147847WA0190401857000037114
B1545194226695N07147880WA0191401890000036080
B1545234226737N07147896WA0194701900000049075
B1545274226787N07147896WA0194801887000037086
B1545314226835N07147932WA0193101870000037100
B1545354226885N07147980WA0191901869000054103
B1545394226933N07148027WA0192301884000060092
B1545434226979N07148055WA0194201905000060077
B1545474227021N07148071WA0196001909000052072
B1545514227060N07148101WA0195301897000049078
B1545554227101N07148139WA0194201881000024089
B1545594227146N07148184WA0192501865000018098
B1546034227197N07148233WA0190501845000014109
B1546074227249N07148286WA0189201845000015104
B1546114227297N07148335WA0190101849000010099
B1546154227344N07148381WA0190101855000007093
B1546194227391N07148422WA0190501850000011098
B1546234227441N07148471WA0189301839000010106
B1546274227493N07148519WA0188801839000007104
B1546314227545N07148566WA0188501830000005105
B1546354227598N07148616WA0187301822000004106
B1546394227648N07148667WA0186801816000004104
B1546434227697N07148721WA0186001804000007107
B1546474227747N07148773WA0185001800000005104
B1546514227800N07148820WA0184401789000003107
B1546554227853N07148868WA0183601784000007106
B1546594227904N07148917WA0183101779000005106
B1547034227958N07148964WA0183001777000005107
B1547074228012N07149012WA0183001782000005109
B1547114228064N07149060WA0184401803000047098
B1547154228107N07149087WA0188001844000047065
B1547194228139N07149103WA0190301858000049052
B1547234228167N07149125WA0190601855000048058
B1547274228201N07149155WA0189401841000059077
B1547314228241N07149195WA0188001825000062091
B1547354228285N07149249WA0186101807000029105
B1547394228331N07149313WA0184201788000013113
B1547434228381N07149380WA0182401772000009121
B1547474228435N07149444WA0182301780000008117
B1547514228489N07149502WA0183501787000018114
B1547554228541N07149552WA0184101805000043100
B1547594228590N07149596WA0185801807000033099
B1548034228640N07149639WA0185601795000017100
B1548074228694N07149690WA0183301766000016119
F154808010407080914162127301313138
B1548114228753N07149750WA0181001751000014125
B1548154228812N07149813WA0179301736000008123
B1548194228864N07149875WA0178601734000007111
B1548234228914N07149937WA0177601715000008118
B1548274228969N07150002WA0175301689000027128
B1548314229031N07150071WA0173101675000027136
B1548354229095N07150141WA0171901663000019138
B1548394229152N07150220WA0170701649000019136
B1548434229175N07150325WA0169201631000025140
B1548474229167N07150439WA0168001630000025138
B1548514229153N07150546WA0168301631000021133
B1548554229131N07150650WA0167701626000019134
B1548594229106N07150751WA0167501627000017129
B1549034229080N07150848WA0167501628000014126
B1549074229057N07150946WA0167401618000011129
B1549114229030N07151048WA0165901609000015134
B1549154229009N07151145WA0166501621000037116
B1549194228990N07151236WA0166301611000019120
B1549234228968N07151331WA0165401607000046122
B1549274228949N07151424WA0165901617000019117
B1549314228926N07151513WA0167001623000037115
B1549354228906N07151597WA0167701632000028105
B1549394228885N07151675WA0168401639000056100
B1549434228853N07151739WA0169801658000067087
B1549474228821N07151791WA0171301667000071086
B1549514228783N07151847WA0171201663000049102
B1549554228740N07151907WA0171301670000057100
B1549594228706N07151969WA0172201677000049091
B1550034228677N07152031WA0172401676000070091
B1550074228654N07152097WA0171901670000033091
B1550114228642N07152170WA0171701668000040094
B1550154228641N07152245WA0172101674000052092
B1550194228642N07152317WA0173601693000072083
B1550234228653N07152377WA0175001712000063074
B1550274228702N07152382WA0176401720000055109
B1550314228744N07152295WA0176301718000061150
B1550354228713N07152185WA0176401726000083143
F15503801040708091421273013138
B1550394228643N07152157WA0177101725001071110
B1550434228607N07152207WA0177401743000062074
B1550474228612N07152256WA0179401755000060061
B1550514228657N07152257WA0180201745000085107
B1550554228699N07152174WA0179301747000101139
B1550594228687N07152066WA0180501767000087131
B1551034228655N07151972WA0182001771000068128
B1551074228596N07151912WA0181901764000063121
B1551114228538N07151930WA0181801773000066082
B1551154228541N07151982WA0182801781000065074
B1551194228594N07151987WA0182901776000051115
B1551234228639N07151897WA0183101783000062156
B1551274228615N07151781WA0184301799000085145
B1551314228554N07151709WA0185401809000063127
B1551354228487N07151695WA0186101810000048107
F155139010407080914162127301313138
B1551394228446N07151742WA0186201810000045083
B1551434228464N07151801WA0186001810000053088
B1551474228524N07151786WA0186401814000066128
B1551514228553N07151678WA0186601815000060161
B1551554228522N07151557WA0187601828000054156
B1551594228460N07151475WA0188801839000057135
B1552034228389N07151473WA0189501843000051113
B1552074228342N07151524WA0189201839000058093
B1552114228359N07151583WA0189801851000082089
B1552154228418N07151561WA0190401851000075133
B1552194228438N07151444WA0190201849000093166
B1552234228389N07151342WA0191601871000073140
B1552274228324N07151283WA0193301882000054126
B1552314228254N07151257WA0193401880000048115
B1552354228190N07151274WA0192701872000060106
B1552394228138N07151321WA0190901854000072107
B1552434228094N07151391WA0189001834000073122
B1552474228052N07151472WA0188401833000068119
B1552514228015N07151552WA0188201834000031114
B1552554227979N07151631WA0188501834000016117
F1552580107080914162127301313138
B1552594227941N07151711WA0189401848000044113
B1553034227907N07151783WA0190601873000066101
B1553074227873N07151849WA0192701885000054098
B1553114227833N07151913WA0193501881000059105
B1553154227801N07151981WA0192801871000048098
B1553194227785N07152060WA0191601847000022111
B1553234227775N07152152WA0189501841000015116
B1553274227767N07152248WA0188901830000010123
B1553314227757N07152355WA0186901808000016141
B1553354227753N07152465WA0186601824000037130
B1553394227752N07152562WA0188501845000057104
B1553434227753N07152636WA0190601858000021088
B1553474227751N07152715WA0189601826000011110
B1553514227749N07152811WA0187301824000040120
B1553554227749N07152904WA0188201835000043112
B1553594227748N07152993WA0188801839000045107
B1554034227747N07153080WA0188701834000022108
B1554074227743N07153168WA0188001827000026110
B1554114227743N07153256WA0187701825000021108
B1554154227744N07153345WA0187101819000011112
B1554194227746N07153437WA0186801815000010114
B1554234227744N07153530WA0186401810000008117
B1554274227743N07153623WA0186601816000043111
B1554314227743N07153713WA0186601807000020113
B1554354227740N07153807WA0185301799000019117
F155438010708091416212728301313138
B1554394227739N07153898WA0185801805000034111
B1554434227740N07153991WA0185301803000056113
B1554474227740N07154078WA0186601822000058104
B1554514227736N07154163WA0187701832000064104
B1554554227733N07154239WA0190201852000068090
B1554594227726N07154317WA0188801828000060109
B1555034227716N07154411WA0187101816000042121
B1555074227704N07154509WA0186501810000050122
B1555114227694N07154602WA0186301818000039106
B1555154227686N07154682WA0187401823000019097
B1555194227677N07154767WA0185301795000010115
B1555234227664N07154868WA0181901758000013137
B1555274227648N07154979WA0179901744000018139
B1555314227628N07155078WA0180801763000017114
B1555354227608N07155161WA0182001770000010105
F1555390107080914162127283013138
B1555394227586N07155246WA0181501751000008119
B1555434227563N07155343WA0179701743000012128
B1555474227536N07155434WA0180101760000011118
B1555514227510N07155529WA0180301735000010133
B1555554227486N07155635WA0178001723000013138
B1555594227473N07155740WA0177801737000024125
B1556034227466N07155838WA0179001743000036119
B1556074227461N07155932WA0179201744000028110
B1556114227474N07156016WA0179201734000014110
B1556154227509N07156096WA0177501718000009120
B1556194227555N07156175WA0176101702000008125
B1556234227600N07156252WA0175201699000011120
B1556274227641N07156329WA0174801699000009111
B1556314227668N07156405WA0175401704000011097
B1556354227693N07156470WA0175401705000036086
B1556394227729N07156530WA0174001676000042111
B1556434227780N07156600WA0171501662000022125
B1556474227826N07156678WA0171501659000027125
B1556514227884N07156748WA0170601655000022130
B1556554227943N07156810WA0171301674000048115
B1556594227993N07156859WA0174001697000033099
B1557034228048N07156908WA0173401670000014122
B1557074228113N07156973WA0170801654000043141
B1557114228182N07157039WA0170301654000022141
B1557154228253N07157103WA0171001663000057141
B1557194228322N07157160WA0172301680000054130
B1557234228388N07157212WA0173401686000068129
B1557274228455N07157262WA0173901694000070120
B1557314228515N07157305WA0174501696000038108
B1557354228571N07157348WA0173801683000061111
B1557394228634N07157393WA0171901662000044126
B1557434228703N07157442WA0170801657000048129
B1557474228770N07157489WA0170101647000026126
B1557514228837N07157544WA0168701634000032137
B1557554228909N07157598WA0168701639000028133
B1557594228976N07157658WA0168201628000020137
B1558034229039N07157723WA0169201649000029127
B1558074229097N07157777WA0172301683000056104
B1558114229151N07157806WA0175301707000047093
B1558154229212N07157814WA0175801706000049112
B1558194229282N07157814WA0175401697000060115
B1558234229329N07157867WA0174801681000043103
B1558274229322N07157956WA0172701666000059118
B1558314229299N07158035WA0172401694000063096
B1558354229273N07158103WA0174901700000041096
B1558394229242N07158180WA0174301690000037114
B1558434229213N07158243WA0175801739000046075
B1558474229192N07158289WA0179401742000063069
B1558514229169N07158347WA0178901740000062088
B1558554229120N07158392WA0179201736000044111
B1558594229063N07158439WA0178001727000022109
B1559034229034N07158515WA0177901734000038105
B1559074229020N07158594WA0179001755000063095
B1559114229004N07158663WA0181701779000054086
B1559154228993N07158728WA0184301800000024078
B1559194229033N07158760WA0185801817000014102
B1559234229084N07158693WA0187501828000019145
B1559274229077N07158575WA0188801847000023149
B1559314229012N07158519WA0191301871000011116
B1559354228963N07158553WA0193501891000008081
B1559394228977N07158608WA0195201907000041085
B1559434229034N07158595WA0196901930000028119
B1559474229060N07158498WA0199601949000016141
B1559514229018N07158404WA0201001962000019133
B1559554228951N07158402WA0202301974001024101
F15595807080914162127283013138
B1559594228942N07158461WA0204201999001061076
B1600034228988N07158475WA0206702023001030099
B1600074229028N07158403WA0209202043001011131
B1600114229010N07158294WA0210102050001008143
B1600154228945N07158254WA0212102073001008104
B1600194228905N07158293WA0213902088000054077
B1600234228925N07158345WA0215002104000040086
B1600274228980N07158324WA0217202125000022119
B1600314229002N07158223WA0218802136000014145
B1600354228959N07158125WA0220302153000015134
B1600394228894N07158111WA0222402173000014099
B1600434228867N07158164WA0223402183000030080
B1600474228905N07158205WA0225302202000027095
B1600514228963N07158175WA0227202220000022120
B1600554228986N07158073WA0229402240000011144
F1600590107080914162127283013138
B1600594228944N07157976WA0230702254000014134
B1601034228881N07157967WA0232602271000020094
B1601074228856N07158019WA0233202278000071077
B1601114228892N07158059WA0233902292000065092
B1601154228950N07158021WA0235302313000047127
B1601194228972N07157916WA0237702329000021147
B1601234228936N07157810WA0239102342000012139
B1601274228870N07157782WA0240802360000008102
B1601314228835N07157825WA0242302369000047072
B1601354228856N07157875WA0243002377000065081
B1601394228907N07157895WA0244302397000045092
B1601434228958N07157859WA0246402409000065116
B1601474228978N07157757WA0246602400000068152
B1601514228934N07157651WA0246002409000077140
B1601554228870N07157643WA0247902432000076089
B1601594228856N07157694WA0249502434000081075
B1602034228902N07157724WA0249702445000085100
B1602074228957N07157679WA0251302455000072120
B1602114228981N07157575WA0251302452000081149
B1602154228992N07157453WA0251802462000066152
B1602194229030N07157349WA0253102482000036138
B1602234229078N07157263WA0255702512000017127
B1602274229112N07157169WA0258302529000008140
B1602314229108N07157048WA0259202528000011155
B1602354229046N07156966WA0258702521000038138
F16023801070809141621272830138
B1602394228983N07156987WA0258902525000055093
B1602434228988N07157043WA0259602537000044078
B1602474229043N07157048WA0260502546000039113
B1602514229110N07157008WA0261302559000028124
B1602554229175N07156961WA0262802567000071125
B1602594229245N07156918WA0262702562000063135
B1603034229328N07156882WA0261702551000056153
B1603074229421N07156847WA0261602551000053164
B1603114229515N07156809WA0261702549000060165
B1603154229612N07156772WA0259802524000040170
B1603194229712N07156757WA0258602518000042166
B1603234229808N07156767WA0258102512000046155
B1603274229896N07156803WA0256902500000032154
B1603314229981N07156849WA0256602499000041151
B1603354230063N07156897WA0256402498000039147
F1603390107080914162127283013138
B1603394230143N07156941WA0256702501000039142
B1603434230223N07156981WA0256302497000037143
B1603474230303N07157021WA0256102493000027141
B1603514230383N07157060WA0255802488000028141
B1603554230461N07157104WA0255202485000045139
B1603594230538N07157147WA0255002484000030139
B1604034230618N07157187WA0254802483000024141
B1604074230695N07157229WA0254902481000059140
B1604114230771N07157274WA0254502480000044137
B1604154230842N07157314WA0255202488000036126
B1604194230913N07157359WA0254502467000037136
B1604234230986N07157417WA0252302449000027144
B1604274231061N07157479WA0250802437000023148
B1604314231137N07157539WA0250202434000042147
B1604354231214N07157598WA0249502426000034148
B1604394231291N07157656WA0249102423000034146
B1604434231367N07157714WA0248502415000038146
B1604474231442N07157774WA0247802410000026145
B1604514231517N07157833WA0247202406000022145
B1604554231592N07157889WA0247102408000040139
F16045801070809141621272830
B1604594231665N07157943WA0247002405000049138
B1605034231738N07157993WA0246902403000036137
B1605074231814N07158039WA0246002393000026140
B1605114231891N07158083WA0245502390000023137
B1605154231963N07158130WA0245402393000017131
B1605194232032N07158178WA0245602392000019129
B1605234232100N07158230WA0245002385000030133
B1605274232171N07158285WA0244402376000060138
B1605314232244N07158337WA0243702370000052139
B1605354232316N07158391WA0243102368000036135
B1605394232384N07158451WA0242502358000022137
B1605434232452N07158515WA0241402347000017139
B1605474232521N07158580WA0240402338000016140
B1605514232589N07158649WA0239702331000017142
B1605554232657N07158718WA0239202326000030142
B1605594232724N07158790WA0238302318000025142
B1606034232787N07158866WA0237802312000023140
B1606074232849N07158939WA0237202308000033135
B1606114232911N07159007WA0236902304000021130
B1606154232973N07159074WA0235602291000018134
B1606194233033N07159144WA0235602297000022129
B1606234233085N07159215WA0237002311000038121
B1606274233138N07159286WA0237102309000027127
B1606314233193N07159359WA0237302316000043126
B1606354233244N07159425WA0238102331000046113
B1606394233300N07159478WA0239202327000034117
B1606434233369N07159525WA0237802304000034139
B1606474233449N07159564WA0236102297000049143
B1606514233531N07159598WA0235702297000044143
B1606554233613N07159628WA0236002304000043141
B1606594233694N07159658WA0236602306000047140
B1607034233774N07159690WA0236502308000063138
B1607074233855N07159717WA0236502292000040144
B1607114233942N07159749WA0234302271000024154
B1607154234030N07159788WA0232802258000022154
B1607194234115N07159836WA0231302245000022152
B1607234234198N07159878WA0230602241000023145
B1607274234280N07159919WA0229302222000019147
B1607314234361N07159970WA0227402205000025149
B1607354234444N07200024WA0225402177000036161
B1607394234535N07200077WA0222802163000026166
B1607434234627N07200123WA0222502169000023161
B1607474234717N07200162WA0223602179000021155
B1607514234804N07200204WA0223802178000035151
B1607554234884N07200257WA0224002186000049146
B1607594234960N07200294WA0226302216000062122
B1608034235022N07200319WA0229102245000066098
B1608074235075N07200341WA0231002257000061089
B1608114235127N07200364WA0231102250000058095
B1608154235177N07200405WA0230002243000059098
B1608194235227N07200450WA0229802233000027105
B1608234235281N07200510WA0227202204000015127
B1608274235339N07200583WA0225902200000013132
B1608314235397N07200658WA0225902203000012136
B1608354235452N07200735WA0226602235000059122
F1608380107080914162127283013138
B1608394235503N07200791WA0231102286000032097
B1608434235551N07200826WA0235902308000017093
B1608474235607N07200800WA0237102321000055110
B1608514235635N07200714WA0238502328000071126
B1608554235610N07200615WA0238502328000066137
B1608594235542N07200578WA0239402345000059114
B1609034235494N07200621WA0241702366000034088
B1609074235497N07200687WA0242602368000049088
B1609114235548N07200716WA0242802368000073111
B1609154235610N07200668WA0243102371000068133
B1609194235636N07200565WA0243502381000070134
B1609234235619N07200463WA0245102393000072127
B1609274235560N07200412WA0246202410000080109
B1609314235504N07200423WA0248102427000082087
B1609354235470N07200472WA0248902431000091083
B1609394235460N07200540WA0248402419000069093
B1609434235471N07200618WA0247602415000052100
B1609474235481N07200704WA0246802398000058115
F16094801070809142127283013138
B1609514235485N07200808WA0244002372000049136
B1609554235499N07200922WA0242302358000030146
B1609594235517N07201039WA0241202344000024150
B1610034235525N07201160WA0240202341000048149
B1610074235535N07201276WA0240802348000031140
B1610114235547N07201388WA0240402342000025138
B1610154235569N07201492WA0241502363000043127
B1610194235599N07201579WA0244602388000061113
B1610234235626N07201659WA0246402407000067104
B1610274235658N07201728WA0248002423000075097
B1610314235688N07201793WA0249302436000069090
B1610354235717N07201850WA0250002447000066084
B1610394235750N07201908WA0250802446000076095
B1610434235787N07201963WA0251202462000070088
B1610474235826N07202011WA0252502467000062091
F1610490107080914162127283013138
B1610514235869N07202056WA0253302482000054088
B1610554235920N07202088WA0254002469000024112
B1610594235998N07202069WA0252202446000032150
B1611034236086N07202023WA0250202438000052161
B1611074236170N07201959WA0250502447000033159
B1611114236256N07201898WA0250802443000044164
B1611154236344N07201842WA0250602441000039160
B1611194236423N07201794WA0250902454000027137
B1611234236500N07201756WA0250602425000038140
B1611274236590N07201748WA0246902385000038162
B1611314236687N07201709WA0244402379000040171
B1611354236777N07201648WA0244302377000056168
B1611394236865N07201581WA0243602367000037167
B1611434236951N07201512WA0242602358000025167
B1611474237037N07201443WA0241902354000022166
B1611514237123N07201378WA0241902356000019162
B1611554237210N07201318WA0241802356000054161
B1611594237293N07201254WA0242202361000032158
B1612034237373N07201185WA0242602366000048155
B1612074237448N07201112WA0242802363000065154
B1612114237522N07201037WA0242102359000041153
B1612154237596N07200965WA0241902357000022152
B1612194237670N07200892WA0241602354000022154
B1612234237749N07200822WA0241102349000017159
B1612274237831N07200759WA0241602362000050151
B1612314237911N07200716WA0243302372000051137
B1612354237990N07200696WA0243402369000037135
B1612394238074N07200691WA0241602347000025147
B1612434238164N07200695WA0239902331000042152
B1612474238255N07200703WA0238802324000035152
B1612514238347N07200708WA0238602320000027153
B1612554238436N07200716WA0239502334000046140
B1612594238515N07200727WA0241102350000055132
B1613034238596N07200733WA0240702344000037136
B1613074238680N07200734WA0238902322000024150
B1613114238773N07200696WA0238102311000029174
B1613154238855N07200603WA0237402314000047182
B1613194238931N07200496WA0237402310000030180
B1613234239010N07200400WA0237002304000031174
B1613274239090N07200310WA0236202290000022174
B1613314239171N07200218WA0234702276000019178
B1613354239252N07200123WA0233202266001018179
B1613394239331N07200025WA0232502262000018177
B1613434239410N07159932WA0232202262000016172
B1613474239489N07159843WA0232302265000029169
B1613514239566N07159753WA0232202256000034171
B1613554239639N07159661WA0231602259001023163
B1613594239711N07159570WA0231302244001021164
B1614034239784N07159480WA0230502243001029162
B1614074239851N07159386WA0230002237001020161
F161408010708091314162127283013138
B1614114239917N07159292WA0229802234000017160
B1614154239988N07159202WA0228902227000034163
B1614194240059N07159109WA0228702227000022165
B1614234240128N07159013WA0228702227000015164
B1614274240197N07158917WA0228702228000030167
B1614314240261N07158815WA0229102238000019162
B1614354240314N07158705WA0229802246000043163
B1614394240354N07158593WA0231602282000060139
B1614434240386N07158494WA0235302307000060133
B1614474240413N07158392WA0237002319000071136
B1614514240403N07158283WA0238102322001073138
B1614554240343N07158216WA0237902316001070127
B1614594240277N07158232WA0237702314001083104
B1615034240263N07158294WA0238002324001061079
B1615074240310N07158317WA0239502340001090097
F1615090107080913141621272830138
B1615114240369N07158293WA0240902357001098108
B1615154240423N07158242WA0242602368001071115
B1615194240450N07158152WA0243002367001074130
B1615234240420N07158054WA0243002364001068131
B1615274240354N07158026WA0242702358001077109
B1615314240317N07158078WA0242102357001076085
B1615354240342N07158135WA0242602366001066089
B1615394240395N07158164WA0242902365001060102
B1615434240457N07158182WA0242102350001065113
B1615474240532N07158205WA0239902325000065140
B1615514240617N07158225WA0238102312000046149
B1615554240707N07158245WA0236902303000026155
B1615594240799N07158265WA0236902307000065155
B1616034240891N07158279WA0237302311000058153
B1616074240981N07158293WA0237702314000063152
F161610010708091314162127283013138
B1616114241071N07158308WA0238202321000062149
B1616154241160N07158315WA0238102318000054150
B1616194241251N07158320WA0237002297000029157
B1616234241348N07158331WA0234802281000023164
B1616274241443N07158350WA0234602287000031157
B1616314241535N07158353WA0236102303000070151
B1616354241625N07158348WA0236702303000079148
B1616394241714N07158346WA0236402297000054151
B1616434241805N07158353WA0235802292000053152
B1616474241894N07158370WA0235302287000036149
B1616514241984N07158389WA0234302276000026154
B1616554242075N07158404WA0234202282000040150
B1616594242164N07158412WA0235102290000039145
B1617034242251N07158418WA0234902282000025149
B1617074242344N07158418WA0234302275000019159
B1617114242440N07158416WA0233702272000042159
B1617154242534N07158416WA0233602276000028156
B1617194242629N07158418WA0233602276000048158
B1617234242721N07158420WA0234202283000049151
B1617274242810N07158428WA0234702290000059145
B1617314242896N07158430WA0235302293000064142
B1617354242981N07158430WA0235302289000083143
B1617394243062N07158429WA0235802305000040130
B1617434243140N07158430WA0236602305000051129
B1617474243217N07158422WA0237002309000041128
B1617514243292N07158404WA0237602313000031124
B1617554243367N07158388WA0237002300000022131
B1617594243447N07158363WA0236202293000026143
B1618034243533N07158330WA0234802280000014153
B1618074243622N07158289WA0233902274000012159
B1618114243711N07158242WA0233402270000011159
B1618154243801N07158205WA0233202264000014154
B1618194243892N07158206WA0231802246000014153
B1618234243983N07158232WA0230102237000025155
B1618274244073N07158261WA0230002237000034154
B1618314244163N07158290WA0229802239000060150
B1618354244248N07158317WA0230302240000050145
B1618394244333N07158349WA0229402226000024149
B1618434244419N07158386WA0228202220000018151
B1618474244505N07158424WA0228002217000027150
B1618514244591N07158461WA0227502210000029151
B1618554244678N07158498WA0226402199000017153
B1618594244767N07158531WA0225602192000016153
B1619034244855N07158564WA0224602180000032154
B1619074244945N07158600WA0223302169000021157
B1619114245036N07158632WA0222602163000022155
B1619154245125N07158663WA0222202158000018153
B1619194245215N07158693WA0221502150000017155
B1619234245305N07158724WA0220802141000015155
B1619274245396N07158758WA0219402128000014159
B1619314245487N07158791WA0218702123000018158
B1619354245580N07158823WA0218002117000046159
B1619394245670N07158854WA0217402110000029154
B1619434245760N07158884WA0216402097000022154
B1619474245850N07158922WA0214302073000026161
B1619514245941N07158964WA0212902068000041156
B1619554246027N07159001WA0213802082000062144
B1619594246106N07159029WA0215702102000048129
B1620034246179N07159058WA0216502102000038130
B1620074246259N07159081WA0216102101000029139
B1620114246341N07159102WA0216002102000033138
B1620154246421N07159118WA0216502106000057136
B1620194246503N07159123WA0216702108000045138
B1620234246586N07159121WA0217202116000031137
B1620274246669N07159116WA0217702119000056140
B1620314246751N07159105WA0219302146000066132
B1620354246822N07159078WA0222902182000069116
B1620394246882N07159041WA0226602213000030110
B1620434246906N07158951WA0228202225000049132
B1620474246866N07158858WA0229702241000038134
F1620480107080913142127283013138
B1620514246797N07158848WA0231502257000014112
B1620554246765N07158912WA0233202276000010090
B1620594246796N07158968WA0234802289000022098
B1621034246859N07158962WA0236002302000027117
B1621074246894N07158874WA0237102310000065138
B1621114246870N07158764WA0238202326000066142
B1621154246818N07158685WA0241302357000039118
B1621194246758N07158681WA0243202372000017097
B1621234246736N07158742WA0244502385000011082
B1621274246777N07158776WA0246002399000038099
B1621314246831N07158723WA0246902408000027129
B1621354246829N07158618WA0247602429000047131
B1621394246773N07158563WA0250002452000026107
B1621434246723N07158593WA0251902465000025088
B1621474246729N07158654WA0253402478000015083
F162149010708091314162127283013138
B1621514246780N07158656WA0255002495000019100
B1621554246814N07158578WA0256102501000049129
B1621594246790N07158482WA0257102519000051123
B1622034246729N07158451WA0259002537000051105
B1622074246685N07158495WA0260502547000029088
B1622114246698N07158554WA0262002562000016083
B1622154246750N07158556WA0263202568000039105
B1622194246793N07158480WA0263502570000051133
B1622234246788N07158369WA0263802576000065142
B1622274246748N07158271WA0265102598000084132
B1622314246688N07158225WA0267902622000038107
B1622354246647N07158270WA0269902635000017086
B1622394246674N07158326WA0270602639000049099
B1622434246734N07158302WA0271702659000052115
B1622474246760N07158213WA0273502677000065123
B1622514246743N07158117WA0275002687000053124
B1622554246686N07158052WA0275702692000053124
B1622594246624N07158075WA0277002710000021102
B1623034246623N07158144WA0278902724000015093
B1623074246681N07158160WA0279902733000049118
F16230801070809131416212730138
B1623114246729N07158086WA0281202750000063132
B1623154246719N07157982WA0282502762000053132
B1623194246661N07157913WA0283402767000052130
B1623234246592N07157923WA0284702791000030105
B1623274246567N07157984WA0287402812000013081
B1623314246599N07158031WA0289202824000013091
B1623354246659N07158004WA0290002829000041126
B1623394246684N07157902WA0290802842000061139
B1623434246653N07157800WA0292002854000059136
B1623474246585N07157758WA0293802880000041113
B1623514246533N07157781WA0296902913000019079
B1623554246521N07157837WA0298702905000024084
B1623594246556N07157905WA0296902880000019118
B1624034246615N07157979WA0294502857000065143
B1624074246679N07158064WA0292402833000053156
F162409010708091314162127283013138
B1624114246747N07158162WA0290602820000051169
B1624154246810N07158269WA0290502825000055166
B1624194246869N07158380WA0289402791000049173
B1624234246924N07158506WA0285502766000057184
B1624274246973N07158639WA0284502760000073182
B1624314247020N07158772WA0283302742000064180
B1624354247070N07158899WA0282002730000057177
B1624394247117N07159030WA0280102714000046181
B1624434247163N07159167WA0278102693000047189
B1624474247210N07159309WA0276202679000049191
B1624514247256N07159451WA0275202669000044190
B1624554247299N07159595WA0273802654000044191
B1624594247340N07159739WA0272602647000052187
B1625034247378N07159879WA0272602651000041178
B1625074247415N07200012WA0272602647000038173
B1625114247455N07200143WA0271302634000039174
B1625154247499N07200270WA0270602632000043170
B1625194247545N07200391WA0270402625000043167
B1625234247592N07200514WA0268302599000038174
B1625274247638N07200644WA0266002582000038178
B1625314247686N07200772WA0265002573000038176
B1625354247741N07200894WA0264102569000040172
B1625394247800N07201007WA0264502573000039168
B1625434247871N07201102WA0264302571000065165
B1625474247950N07201186WA0263202555000044170
B1625514248039N07201261WA0261402537000036178
B1625554248134N07201329WA0259902523000032180
B1625594248228N07201399WA0258502506000030180
B1626034248321N07201472WA0257002499000033175
B1626074248407N07201546WA0257602512000031162
B1626114248489N07201608WA0259102518000038156
B1626154248571N07201677WA0257202493000028167
B1626194248652N07201765WA0255702487000063170
B1626234248726N07201850WA0256702504000054158
B1626274248801N07201928WA0257502504000038158
B1626314248877N07202006WA0256102485000034159
B1626354248950N07202083WA0255302485000031150
B1626394249022N07202154WA0255302481000046151
B1626434249104N07202220WA0254102471000057163
B1626474249191N07202273WA0255602498000056152
B1626514249273N07202307WA0258502524000069139
B1626554249350N07202347WA0259702531000067138
B1626594249422N07202397WA0260902550000077132
B1627034249492N07202450WA0262302560000083132
B1627074249557N07202503WA0264002580000062126
B1627114249622N07202562WA0264802581000060134
B1627154249690N07202615WA0266302611000033118
B1627194249750N07202646WA0269902638000043105
B1627234249814N07202676WA0270002630000046121
B1627274249885N07202712WA0270302638000063126
B1627314249956N07202747WA0270702638000074126
B1627354250026N07202787WA0270402631000076129
B1627394250100N07202828WA0269202615000037136
B1627434250174N07202883WA0266602587000028148
B1627474250247N07202958WA0264702570000024153
B1627514250309N07203050WA0262602545000035155
B1627554250360N07203157WA0260702535000037156
B1627594250409N07203260WA0261102542000043147
B1628034250452N07203361WA0261702548000041140
B1628074250494N07203460WA0261502545000046141
B1628114250535N07203561WA0261002539000032143
B1628154250573N07203664WA0260802540000057139
B1628194250608N07203768WA0260602532000037143
B1628234250647N07203875WA0259702527000029148
B1628274250685N07203984WA0259302523000043149
B1628314250720N07204095WA0259902536000054144
B1628354250757N07204197WA0261602550000055138
B1628394250796N07204299WA0261602546000041145
B1628434250837N07204405WA0261502551000063146
B1628474250875N07204511WA0262202553000069145
B1628514250911N07204618WA0261802542000057147
B1628554250942N07204734WA0260702539000055153
F1628580107080913142127283013138
B1628594250969N07204851WA0261302543000056150
B1629034250989N07204966WA0261802553000054139
B1629074251004N07205079WA0261802537000039146
B1629114251020N07205203WA0259202506000033161
B1629154251043N07205333WA0257502503000053163
B1629194251066N07205459WA0257502499000046159
B1629234251092N07205584WA0256102485000037159
B1629274251118N07205708WA0255302476000033160
B1629314251145N07205831WA0254902482000053150
B1629354251174N07205944WA0255102473000043147
B1629394251204N07206059WA0253202455000033155
B1629434251236N07206182WA0252502454000037162
B1629474251278N07206297WA0253602469000081154
B1629514251334N07206393WA0254602479000063147
B1629554251392N07206483WA0254902477000049146
F162959010708091314162127283013138
B1629594251443N07206578WA0254302468000033145
B1630034251478N07206691WA0252902443000038159
B1630074251488N07206824WA0250902440000047165
B1630114251485N07206949WA0252502466000055146
B1630154251480N07207068WA0253002449000037151
B1630194251471N07207196WA0250502428000032162
B1630234251465N07207326WA0249902431000056155
B1630274251464N07207449WA0250702429000060151
B1630314251462N07207575WA0248902413000044157
B1630354251462N07207705WA0247402394000034162
B1630394251465N07207840WA0245102370000032167
B1630434251464N07207977WA0243002354000031168
B1630474251464N07208112WA0242002352000039161
B1630514251468N07208237WA0242702362000032149
B1630554251473N07208359WA0242502352000028152
B1630594251482N07208483WA0241502348000030153
F1631000107080913142127283013138
B1631034251498N07208605WA0241702349000044151
B1631074251521N07208720WA0242402358000054144
B1631114251546N07208833WA0242502355000045147
B1631154251578N07208946WA0242202354000060148
B1631194251620N07209049WA0243402374000060139
B1631234251663N07209144WA0244702377000071138
B1631274251705N07209247WA0243202352000063153
B1631314251746N07209366WA0241902353000065159
B1631354251775N07209482WA0244202374000060146
B1631394251790N07209601WA0243802358000046154
B1631434251793N07209734WA0240702327000041171
B1631474251798N07209874WA0238902315000049172
B1631514251816N07210009WA0239802333000049162
B1631554251835N07210133WA0241602351000064151
B1631594251858N07210255WA0241102336000046162
F163201010708091314172127283013138
B1632034251888N07210375WA0242702364000053149
B1632074251921N07210487WA0242202348000068150
B1632114251956N07210608WA0240702317000054167
B1632154251991N07210738WA0238502308000044171
B1632194252025N07210867WA0237902305000043165
B1632234252057N07210992WA0237402293000042161
B1632274252093N07211114WA0235902287000035161
B1632314252136N07211230WA0236002292000037157
B1632354252179N07211341WA0236302299000065153
B1632394252224N07211449WA0236702297000056152
B1632434252273N07211557WA0235602275000038160
B1632474252322N07211673WA0233502256000032166
B1632514252375N07211789WA0232002248000035167
B1632554252432N07211897WA0232002253000065161
B1632594252488N07212001WA0232302255000079153
F16330201070809131416172127283013138
B1633034252542N07212101WA0232102247000049154
B1633074252599N07212204WA0231002240000053158
B1633114252651N07212311WA0230702239000038157
B1633154252699N07212423WA0230102229000036162
B1633194252740N07212546WA0229302218000060168
B1633234252766N07212680WA0228302214000067172
B1633274252787N07212817WA0228302215000065170
B1633314252812N07212950WA0227902206000057170
B1633354252837N07213085WA0227302203000049170
B1633394252857N07213217WA0227402210000060161
B1633434252876N07213345WA0227102199000046159
B1633474252897N07213472WA0225102177000036161
B1633514252917N07213601WA0223602164000030160
B1633554252938N07213729WA0222002151000031161
B1633594252960N07213857WA0221002139000037160
F163403010708091314172127283013138
B1634034252983N07213983WA0220102134000038159
B1634074253004N07214109WA0219902130000050156
B1634114253021N07214234WA0218902119000043160
B1634154253033N07214367WA0217102099000037166
B1634194253047N07214502WA0215102081000038169
B1634234253064N07214637WA0214002072000036165
B1634274253082N07214767WA0213602069000032160
B1634314253096N07214896WA0213102066000032161
B1634354253112N07215027WA0212402055000032164
B1634394253131N07215157WA0212002058000034161
B1634434253150N07215282WA0212502070000061150
B1634474253166N07215398WA0214202084000043144
B1634514253184N07215517WA0214902091000063149
B1634554253204N07215629WA0216802106000060137
B1634594253219N07215721WA0218202157000053098
B1635034253228N07215789WA0222702182000060079
B1635074253232N07215859WA0223302154000042101
B1635114253229N07215955WA0220202122000037131
B1635154253218N07216066WA0217802108000029141
B1635194253205N07216182WA0216902108000022147
B1635234253194N07216304WA0217002116000054145
B1635274253182N07216411WA0219002139000052128
B1635314253170N07216520WA0219002117000049144
B1635354253161N07216633WA0218402140000071128
B1635394253149N07216729WA0221002156000063118
B1635434253133N07216828WA0220802142000053131
B1635474253115N07216934WA0219802141000071131
B1635514253104N07217035WA0220802156000071121
B1635554253092N07217128WA0222302172000056110
B1635594253091N07217220WA0223102170000043117
B1636034253106N07217314WA0223402176000052117
B1636074253137N07217395WA0224402191000077109
B1636114253191N07217446WA0225302195000079114
B1636154253261N07217479WA0224902178000059135
B1636194253343N07217508WA0223302171000054145
B1636234253430N07217534WA0222902163000065150
B1636274253520N07217557WA0221902155000038156
B1636314253612N07217581WA0222002164000049156
B1636354253700N07217600WA0224602194000057145
B1636394253787N07217609WA0226302199000052149
B1636434253872N07217627WA0226902218000051134
B1636474253947N07217628WA0229302233000046119
F1636480107081314172127283013138
B1636514254015N07217651WA0228302210000048123
B1636554254080N07217715WA0225402183000027142
B1636594254148N07217794WA0223102162000041154
B1637034254220N07217878WA0221402145000035160
B1637074254294N07217964WA0219702129000032165
B1637114254369N07218051WA0219302129000043165
B1637154254440N07218142WA0220002140000066159
B1637194254506N07218227WA0222702169000072144
B1637234254567N07218306WA0224102179000065138
B1637274254625N07218386WA0223902172000058141
B1637314254682N07218477WA0221602145000040152
B1637354254739N07218578WA0219402125000030158
B1637394254792N07218689WA0218302105000028165
B1637434254843N07218804WA0216902107000046161
B1637474254887N07218914WA0217502120000041150
B1637514254933N07219018WA0218702129000054149
B1637554254984N07219116WA0219602137000071148
B1637594255039N07219213WA0220102138000056151
B1638034255098N07219310WA0219902132000070154
B1638074255156N07219406WA0219502128000055154
B1638114255213N07219506WA0219402135000045154
B1638154255265N07219603WA0221002162000055142
B1638194255316N07219695WA0223302178000054140
B1638234255360N07219780WA0226102220000036118
B1638274255417N07219827WA0230102247000043116
B1638314255486N07219801WA0231702261000065131
B1638354255518N07219701WA0233102272000068145
B1638394255496N07219590WA0234602293000032135
B1638434255441N07219523WA0236202302000048121
B1638474255373N07219525WA0236502302000048111
B1638514255332N07219583WA0236402299000054095
B1638554255348N07219656WA0236802308000062099
B1638594255387N07219714WA0238802331000071093
B1639034255420N07219770WA0241402360000030083
B1639074255428N07219838WA0243102365000022093
B1639114255418N07219921WA0242602362000074109
B1639154255429N07220013WA0242402354000070123
B1639194255469N07220106WA0240902339000057141
B1639234255532N07220191WA0240802344000069146
B1639274255592N07220262WA0243502374000049125
B1639314255647N07220333WA0242402346000054136
B1639354255705N07220425WA0239402315000032157
B1639394255766N07220526WA0237202296000055164
B1639434255829N07220633WA0234402266000054171
B1639474255895N07220745WA0231902245000044178
B1639514255964N07220855WA0230602231000043179
B1639554256036N07220968WA0228402210000038187
B1639594256110N07221085WA0227602193000038191
B1640034256186N07221204WA0225802172000039194
B1640074256262N07221324WA0223802160000042192
B1640114256336N07221443WA0222702153000042188
B1640154256407N07221559WA0222502145000056184
B1640194256474N07221677WA0221002133000063183
B1640234256542N07221792WA0220302134000076178
B1640274256608N07221903WA0220602129000065175
B1640314256673N07222017WA0219602116000065176
B1640354256731N07222133WA0218502108000054171
B1640394256784N07222253WA0217802099000049170
B1640434256830N07222374WA0216702096000044166
B1640474256876N07222492WA0216802096000042161
B1640514256918N07222607WA0216402087000046157
B1640554256960N07222721WA0215002076000035153
B1640594257004N07222831WA0213402050000034156
B1641034257049N07222948WA0210002017000032166
B1641074257092N07223073WA0207301996000041168
B1641114257131N07223200WA0205001968000043171
B1641154257169N07223332WA0202401947000043175
B1641194257202N07223468WA0200101923000042178
B1641234257232N07223605WA0198401914000038172
B1641274257262N07223738WA0197401903000036169
B1641314257292N07223868WA0196001886000034168
B1641354257330N07223996WA0193601865000032170
B1641394257372N07224122WA0191701848000032169
B1641434257412N07224252WA0189301816000037176
B1641474257440N07224390WA0187601810000038172
F1641490107081314172127283013138
B1641514257459N07224525WA0187301812000036165
B1641554257477N07224658WA0187101804000032168
B1641594257490N07224796WA0187301810000052166
B1642034257492N07224919WA0190201847000050143
B1642074257489N07225031WA0191201853000049134
B1642114257480N07225139WA0190701846000035131
B1642154257472N07225242WA0190701849000021125
B1642194257471N07225346WA0190201837000016131
B1642234257485N07225456WA0188501821000019141
B1642274257514N07225566WA0186501800000020148
B1642314257555N07225676WA0184901790000022150
B1642354257602N07225779WA0184901789000021149
B1642394257651N07225882WA0184501786000021151
B1642434257703N07225981WA0184601789000038146
B1642474257754N07226074WA0185101790000030142
B1642514257797N07226175WA0184701787000048142
B1642554257836N07226275WA0184801792000039137
B1642594257874N07226373WA0184901787000034136
B1643034257916N07226468WA0184201776000022138
B1643074257966N07226562WA0182501755000019145
B1643114258011N07226669WA0180501731000025155
B1643154258051N07226783WA0178801724000027156
B1643194258093N07226898WA0177801713000029156
B1643234258144N07227003WA0177401712000027153
B1643274258196N07227105WA0176901711000030149
B1643314258244N07227206WA0176701705000034146
B1643354258289N07227303WA0176401710000027136
B1643394258337N07227393WA0176501699000044136
B1643434258384N07227476WA0176201711000026121
B1643474258429N07227555WA0176101692000019129
B1643514258482N07227642WA0174201683000037138
B1643554258536N07227721WA0174901689000032130
B1643594258591N07227800WA0173601669000026138
B1644034258651N07227882WA0171701652000022143
B1644074258713N07227962WA0170501643000022142
B1644114258772N07228044WA0170001635000025140
B1644154258817N07228141WA0168501624000021141
B1644194258861N07228241WA0167301609000017145
B1644234258902N07228346WA0166101602000016143
B1644274258944N07228445WA0166001603000017141
B1644314258989N07228542WA0166001601000023139
B1644354259037N07228639WA0164301580000026148
B1644394259097N07228729WA0163501578000060145
B1644434259153N07228809WA0164401588000041128
B1644474259214N07228870WA0164301577000027130
B1644514259295N07228896WA0161501549000023148
B1644554259388N07228896WA0159601535000022159
B1644594259483N07228883WA0158501524000027161
B1645034259579N07228865WA0157701516000028162
B1645074259673N07228839WA0157201515000024157
B1645114259764N07228810WA0156401503000019158
B1645154259856N07228774WA0155101490000021161
B1645194259946N07228735WA0154901492000042150
B1645234300026N07228697WA0155501495000031140
B1645274300111N07228657WA0153901453000036159
B1645314300205N07228617WA0150801447000032164
B1645354300296N07228566WA0150301446000024164
B1645394300388N07228516WA0150301443000029165
B1645434300482N07228476WA0150201446000022164
B1645474300576N07228429WA0149801429000044173
B1645514300662N07228376WA0149801461000033143
B1645554300738N07228324WA0152201462000030142
B1645594300817N07228275WA0151201453000021146
B1646034300900N07228227WA0149701432000014155
B1646074300988N07228176WA0147901420000013161
B1646114301073N07228123WA0147701425000038149
B1646154301150N07228074WA0148401428000017139
B1646194301228N07228020WA0146401401000013151
B1646234301312N07227968WA0144201381000012155
B1646274301396N07227912WA0142701366000014155
B1646314301478N07227854WA0141301354000015153
B1646354301561N07227793WA0138901324000019162
B1646394301648N07227725WA0136101300000032169
B1646434301731N07227654WA0135401298000026158
B1646474301809N07227577WA0134901271000029167
F1646500107081314172127283013138
B1646514301895N07227500WA0131901246000055171
B1646554301991N07227463WA0130201230000041164
B1646594302085N07227473WA0129001223000034153
B1647034302165N07227532WA0127501200000027155
B1647074302232N07227614WA0125701208000027142
B1647114302290N07227688WA0127601228000029125
B1647154302339N07227765WA0128001220000020127
B1647194302394N07227842WA0126901207000016137
B1647234302448N07227920WA0126901241000037113
B1647274302489N07227976WA0132701285000046095
B1647314302545N07227945WA0135101303000047126
B1647354302549N07227837WA0135901316000038148
B1647394302479N07227777WA0137401335000019134
B1647434302419N07227823WA0138801345000026106
B1647474302434N07227890WA0141301362000022092
F16475101070813141721272830138
B1647514302495N07227877WA0141701364000054123
B1647554302531N07227777WA0142501380000058146
B1647594302524N07227664WA0145101411000030135
B1648034302470N07227593WA0147101417000020123
B1648074302408N07227615WA0147601421000043101
B1648114302404N07227682WA0149001441000069078
B1648154302450N07227698WA0150301452000093100
B1648194302488N07227620WA0151801469000065132
B1648234302466N07227518WA0153101478000052133
B1648274302399N07227477WA0153801483000060119
B1648314302346N07227519WA0154301492000057098
B1648354302346N07227587WA0155601510000052078
B1648394302388N07227614WA0157401522000051094
B1648434302441N07227560WA0157901530000075130
B1648474302443N07227451WA0159701550000057137
B1648514302389N07227378WA0161001557000047123
F1648520107081314172127283013138
B1648554302324N07227391WA0161101557000054107
B1648594302300N07227458WA0162101571000057083
B1649034302330N07227502WA0163801587000052085
B1649074302386N07227479WA0164701596000045113
B1649114302429N07227402WA0165901609000044131
B1649154302420N07227294WA0166501611000087141
B1649194302354N07227233WA0166501611000081129
B1649234302290N07227260WA0166801613000071107
B1649274302269N07227332WA0167701624000062088
B1649314302289N07227391WA0168501641000065078
B1649354302338N07227407WA0169701644000052105
B1649394302379N07227331WA0170201661000064133
B1649434302346N07227239WA0172301680000093122
B1649474302282N07227231WA0173701681000105105
B1649514302258N07227292WA0173801694000093078
B1649554302297N07227323WA0175601706000089093
B1649594302348N07227272WA0176301715000091124
B1650034302348N07227170WA0177901731000093128
B1650074302297N07227100WA0179101739000064120
B1650114302233N07227100WA0179701743000054102
B1650154302206N07227157WA0180301757000085074
B1650194302239N07227190WA0182101770000069086
B1650234302289N07227139WA0182701775000060121
B1650274302297N07227042WA0184201793000093124
B1650314302251N07226965WA0185101794000065124
B1650354302182N07226957WA0184901792000058110
B1650394302148N07227013WA0185601809000068076
B1650434302153N07227064WA0187601829000073059
B1650474302186N07227088WA0189101833000083081
B1650514302239N07227054WA0188901832000064116
B1650554302261N07226958WA0189501842000091132
B1650594302218N07226871WA0190301847000076130
B1651034302148N07226860WA0190701852000071109
B1651074302117N07226915WA0192301870000087073
B1651114302138N07226963WA0193201878000074077
B1651154302189N07226959WA0194101887000080100
B1651194302226N07226885WA0195001897000098120
B1651234302210N07226790WA0195901903000078124
B1651274302150N07226737WA0196201907000064117
B1651314302091N07226754WA0197001913000062091
B1651354302076N07226811WA0197501922000050072
B1651394302103N07226857WA0198901935000072076
B1651434302143N07226886WA0200201948000063074
B1651474302176N07226927WA0200301944000065078
B1651514302195N07226993WA0199601932000059095
B1651554302210N07227072WA0198901931000054098
B1651594302224N07227153WA0196501902000031111
B1652034302238N07227252WA0194901874000025130
B1652074302258N07227359WA0192201843000046143
B1652114302282N07227473WA0189701825000031146
B1652154302307N07227585WA0188301824000027141
B1652194302335N07227695WA0188101816000025143
B1652234302359N07227812WA0186801803000027150
B1652274302378N07227928WA0186301808000039142
B1652314302393N07228044WA0186101797000026144
B1652354302410N07228155WA0185601801000034132
B1652394302425N07228255WA0186501809000021122
B1652434302434N07228356WA0186301799000014127
B1652474302447N07228462WA0185101793000014133
B1652514302460N07228571WA0184201778000017138
B1652554302470N07228686WA0183101768000018145
B1652594302486N07228803WA0182501770000060144
B1653034302505N07228914WA0183301778000057135
B1653074302523N07229019WA0183601782000032129
B1653114302549N07229116WA0184301795000064119
B1653154302576N07229197WA0186601818000058103
B1653194302603N07229268WA0188001823000056096
B1653234302634N07229337WA0186801800000031106
B1653274302688N07229397WA0183601758000026130
B1653314302767N07229445WA0179501727000030151
B1653354302849N07229487WA0178601730000029140
F165338010708131417212728301313138
B1653394302926N07229518WA0179201733000019130
B1653434303003N07229543WA0178101716000023136
B1653474303085N07229567WA0175801696000018141
B1653514303168N07229590WA0174101680000019140
B1653554303248N07229610WA0173101667000022136
B1653594303332N07229630WA0170601639000036147
B1654034303416N07229662WA0168601621000026145
B1654074303499N07229703WA0166301597000038149
B1654114303587N07229740WA0163101568000031157
B1654154303682N07229764WA0161401549000029162
B1654194303777N07229769WA0160201539000025158
B1654234303872N07229768WA0158901527000024157
B1654274303966N07229774WA0157801514000027158
B1654314304059N07229772WA0157001506000024156
B1654354304153N07229763WA0155901496000041156
B1654394304244N07229753WA0155001488000035152
B1654434304330N07229740WA0154901496000026138
B1654474304415N07229724WA0155101474000023155
B1654514304506N07229697WA0153401482000036149
B1654554304589N07229683WA0154901501000044133
B1654594304668N07229673WA0156301495000047134
B1655034304752N07229665WA0154701476000032146
B1655074304834N07229612WA0153401470000024155
B1655114304901N07229518WA0152901470000022166
B1655154304951N07229401WA0153301489000041160
B1655194304986N07229288WA0156001514000037145
B1655234305014N07229172WA0156801508000029156
B1655274305039N07229055WA0157001524000047141
B1655314305064N07228946WA0157601508000036145
B1655354305091N07228824WA0155101487000025159
B1655394305119N07228697WA0153301467000016167
B1655434305151N07228569WA0151801456000015167
B1655474305185N07228439WA0150601450000011166
B1655514305216N07228310WA0150101440000009165
B1655554305247N07228181WA0148901424000011169
B1655594305275N07228049WA0147801427000013162
B1656034305306N07227927WA0147901419000009157
B1656074305345N07227806WA0146401402000011168
B1656114305380N07227678WA0145501402000032161
B1656154305412N07227555WA0145301393000015159
B1656194305439N07227432WA0144401385000027160
B1656234305473N07227302WA0143201376000022172
B1656274305502N07227173WA0144501398000032157
B1656314305522N07227052WA0145801402000025151
B1656354305540N07226925WA0144301383000024164
B1656394305561N07226791WA0142801370000013167
B1656434305582N07226657WA0141701356000011170
B1656474305602N07226520WA0140701349000012169
B1656514305619N07226385WA0139601339000014165
B1656554305636N07226255WA0140001344000038156
B1656594305646N07226141WA0141901370000030131
B1657034305655N07226034WA0143001383000057131
B1657074305665N07225936WA0146201413000069116
B1657114305635N07225850WA0147001422000060124
B1657154305565N07225823WA0146701420000074121
B1657194305522N07225880WA0147301428000074093
B1657234305548N07225936WA0148301453000048087
B1657274305597N07225917WA0151501479000019097
F1657280107081417212728301313138
B1657314305604N07225830WA0153301484000020127
B1657354305548N07225757WA0153701492000053130
B1657394305482N07225774WA0154701502000054103
B1657434305476N07225842WA0155801515000055087
B1657474305524N07225850WA0157701544000030092
B1657514305547N07225777WA0160401560000012115
B1657554305505N07225696WA0161101566000039131
B1657594305434N07225692WA0162601578000054112
B1658034305411N07225758WA0163501589000049086
B1658074305453N07225789WA0164801608000034093
B1658114305491N07225725WA0166901630000022114
B1658154305469N07225634WA0169001649000019123
B1658194305407N07225591WA0170701663000036112
B1658234305349N07225616WA0171701667000068097
B1658274305335N07225681WA0172301679000073078
F165829010708131417212728301313138
B1658314305369N07225714WA0174001694000060080
B1658354305409N07225663WA0175201708000043114
B1658394305401N07225572WA0177701739000022112
B1658434305346N07225521WA0179501743000022119
B1658474305281N07225542WA0179501749000064104
B1658514305263N07225608WA0180901763000052081
B1658554305297N07225645WA0182201775000043081
B1658594305342N07225602WA0183001778000070116
B1659034305342N07225505WA0184401802000047121
B1659074305283N07225458WA0186401814000047115
B1659114305223N07225493WA0187101815000046105
B1659154305213N07225567WA0188301830000049089
B1659194305237N07225623WA0190001846000039078
B1659234305288N07225623WA0190301843000043102
B1659274305328N07225549WA0190601852000040120
B1659314305303N07225463WA0192301874000053118
B1659354305235N07225457WA0192901874000085122
B1659394305199N07225531WA0193501885000072104
B1659434305235N07225586WA0194901898001038097
B1659474305292N07225555WA0196101898000057119
F1659480107081417212728301313138
B1659514305321N07225463WA0196701908000073124
B1659554305326N07225370WA0197601940000060108
B1659594305285N07225300WA0200201940000095123
B1700034305212N07225304WA0199301930000074127
B1700074305179N07225387WA0198501938000079115
B1700114305215N07225453WA0200101957000051102
B1700154305273N07225459WA0201601971000062096
B1700194305322N07225407WA0202401966000066114
B1700234305348N07225316WA0201801970000081124
B1700274305356N07225215WA0202601979000057124
B1700314305359N07225114WA0203301984000059122
B1700354305370N07225016WA0203401974000055123
B1700394305394N07224916WA0202501950000033134
B1700434305427N07224805WA0199301913000037157
B1700474305471N07224688WA0196701898000036163
F1700490107081314172127283013138
B1700514305510N07224570WA0196101906000023153
B1700554305553N07224463WA0196301895000032149
B1700594305607N07224366WA0195301898000025146
B1701034305662N07224276WA0195901905000024143
B1701074305726N07224196WA0196001892000020149
B1701114305802N07224122WA0193801869000022163
B1701154305891N07224057WA0192001857000016172
B1701194305983N07223999WA0192001869000052161
B1701234306061N07223947WA0194501901000062127
B1701274306125N07223900WA0196601903000032121
B1701314306198N07223857WA0193901864000049146
B1701354306289N07223821WA0190001827000028168
B1701394306390N07223792WA0187801810000023176
B1701434306494N07223769WA0186801806000065172
B1701474306593N07223750WA0187001807000041163
B1701514306687N07223734WA0187501810000025155
B1701554306781N07223721WA0186301793000019161
B1701594306879N07223710WA0184701777000018166
B1702034306980N07223700WA0183001760000018174
B1702074307086N07223694WA0181801750000019178
B1702114307194N07223693WA0180901744000024179
B1702154307297N07223688WA0182001761000055166
B1702194307394N07223681WA0182601764000030161
B1702234307490N07223677WA0182201758000026161
B1702274307586N07223666WA0182701768000049158
B1702314307677N07223646WA0183801776000060150
B1702354307767N07223637WA0183501759000037155
B1702394307859N07223631WA0182401766000039150
B1702434307949N07223617WA0183001764000073153
B1702474308041N07223604WA0182501758000057154
B1702514308131N07223602WA0182501763000060148
B1702554308217N07223613WA0183001769000043140
B1702594308299N07223621WA0183701782000026135
B1703034308380N07223618WA0184501785000038136
B1703074308458N07223611WA0185701808000061123
B1703114308528N07223608WA0187501819000052112
B1703154308593N07223614WA0188301827000041107
B1703194308655N07223639WA0188701824000036113
B1703234308715N07223686WA0189001844000056110
B1703274308774N07223717WA0191701875000023099
B1703314308809N07223770WA0194101897000013094
B1703354308776N07223836WA0195801910000019115
B1703394308706N07223814WA0198001928000021132
B1703434308682N07223720WA0200001947000023117
B1703474308723N07223662WA0201401961000028099
F17034801070813141721272830138
B1703514308766N07223700WA0203001977000028092
B1703554308736N07223764WA0204601989000023114
B1703594308667N07223733WA0205802006000033132
B1704034308646N07223638WA0207702023000074118
B1704074308688N07223581WA0209702044000030096
B1704114308732N07223616WA0211002053000020094
B1704154308713N07223691WA0212002063000026112
B1704194308642N07223697WA0213402075000061136
B1704234308597N07223610WA0215002092000045128
B1704274308630N07223535WA0216902114000036104
B1704314308682N07223553WA0218902134000046090
B1704354308678N07223622WA0220802152000029099
B1704394308616N07223639WA0222202162000043125
B1704434308567N07223560WA0223702175000056129
B1704474308590N07223476WA0225502196000026105
F1704490107081314172127283013138
B1704514308643N07223484WA0226702204000033099
B1704554308645N07223564WA0227702217000053111
B1704594308581N07223595WA0229602236000040128
B1705034308517N07223538WA0232002259000054128
B1705074308516N07223447WA0234102279000030107
B1705114308567N07223420WA0234602288000020093
B1705154308594N07223480WA0235702302000019097
B1705194308556N07223541WA0237502320000040113
B1705234308487N07223516WA0239102336000050130
B1705274308466N07223425WA0241002356000029113
B1705314308509N07223375WA0242402363000033091
B1705354308541N07223425WA0242902373000062096
B1705394308500N07223482WA0244602390000036119
B1705434308432N07223442WA0246002404000049134
B1705474308427N07223347WA0248002424000025111
F17055001070813141721272830133
B1705514308476N07223318WA0249502433000049088
B1705554308499N07223377WA0250602448000048093
B1705594308452N07223427WA0252402465000040118
B1706034308386N07223385WA0254002480001041130
B1706074308382N07223291WA0255902499001018110
B1706114308429N07223256WA0257402511000030087
B1706154308457N07223310WA0258402521001039094
B1706194308412N07223366WA0260202542001020121
B1706234308347N07223322WA0262202559001030130
B1706274308351N07223230WA0263902576001029107
B1706314308402N07223219WA0265202588000038088
B1706354308406N07223285WA0266702606000019101
B1706394308340N07223300WA0268502618001018131
B1706434308298N07223214WA0269702638000024126
B1706474308322N07223130WA0271702651000050104
F1706510107081314172127283013138
B1706514308374N07223134WA0272602659000030090
B1706554308370N07223206WA0273802672000038110
B1706594308299N07223215WA0275402687000024139
B1707034308264N07223123WA0277202706000027129
B1707074308306N07223056WA0278102708000036108
B1707114308343N07223107WA0279202726000043098
B1707154308297N07223167WA0280802739001065126
B1707194308225N07223131WA0282602758000067136
B1707234308189N07223036WA0284202775000033128
B1707274308194N07222938WA0285502787000044115
B1707314308231N07222871WA0286802802000054096
B1707354308281N07222858WA0287902810000057082
B1707394308310N07222905WA0288302816000071080
B1707434308308N07222974WA0289202826000074084
B1707474308319N07223038WA0289902829000067082
B1707514308352N07223094WA0289902831000050093
B1707554308395N07223147WA0290602844000060099
B1707594308439N07223206WA0291502834000051108
B1708034308486N07223276WA0289902820000036125
B1708074308535N07223361WA0289302825000038133
B1708114308588N07223438WA0290302838000050125
B1708154308641N07223512WA0290902820000054132
B1708194308698N07223601WA0287502774000039160
B1708234308764N07223710WA0283702750000032177
B1708274308827N07223826WA0282802748000049175
B1708314308886N07223945WA0282602751000060171
B1708354308942N07224052WA0284002778000069152
B1708394308995N07224135WA0287402820000052123
B1708434309040N07224201WA0290802843000037107
B1708474309092N07224268WA0290502819000037131
B1708514309158N07224341WA0287602787000058153
B1708554309233N07224418WA0286002782000052154
B1708594309310N07224470WA0287102808000049136
B1709034309388N07224508WA0288402808000029143
B1709074309471N07224556WA0287402793000051158
B1709114309560N07224609WA0286802791000074161
B1709154309647N07224658WA0287002791000082154
B1709194309730N07224715WA0285802779000044157
B1709234309811N07224781WA0285402781000041155
B1709274309891N07224839WA0286102784000049149
B1709314309971N07224897WA0285002768000030154
B1709354310054N07224957WA0283702757000024157
B1709394310137N07225016WA0283402763000023154
B1709434310218N07225072WA0285202790000036145
B1709474310288N07225123WA0288902828000052121
B1709514310343N07225164WA0292102857000044095
B1709554310392N07225203WA0292602850000037099
B1709594310450N07225254WA0289402805000026133
B1710034310521N07225330WA0285002769000023160
B1710074310591N07225423WA0282702745000029166
B1710114310655N07225531WA0280202720000030172
B1710154310717N07225646WA0277902700000029175
B1710194310779N07225761WA0276702689000030173
B1710234310841N07225872WA0276202677000029171
B1710274310906N07225982WA0274902664000030171
B1710314310970N07226095WA0273102638000030178
B1710354311033N07226213WA0270802621000030180
B1710394311095N07226337WA0269202598000030185
B1710434311152N07226468WA0267002579000040186
B1710474311204N07226604WA0264902561000038188
B1710514311253N07226742WA0263402550000037186
B1710554311301N07226877WA0262102542000040181
B1710594311352N07227006WA0261402535000034177
B1711034311410N07227128WA0260502527000033177
B1711074311467N07227248WA0260202524000044174
B1711114311511N07227362WA0261402571000080136
B1711154311545N07227453WA0266102594000041122
B1711194311579N07227549WA0265402569000034138
B1711234311620N07227650WA0263302560000032142
B1711274311667N07227749WA0262802556000026145
B1711314311723N07227838WA0262702554000039146
B1711354311795N07227913WA0262302553000043154
B1711394311875N07227974WA0263102562000071154
B1711434311966N07228004WA0263702566000069157
B1711474312059N07228036WA0263202554000068162
B1711514312147N07228086WA0262602553000045157
F1711520107081314172127283013138
B1711554312233N07228141WA0262302546000044160
B1711594312319N07228194WA0262102554000049152
B1712034312403N07228244WA0261802537000028156
B1712074312490N07228295WA0259702519000036161
B1712114312583N07228348WA0257702500000027172
B1712154312680N07228401WA0256802492000025174
B1712194312778N07228451WA0256402493000030174
B1712234312876N07228500WA0256602493000054174
B1712274312974N07228553WA0256002484000052178
B1712314313072N07228609WA0255902487000063176
B1712354313169N07228666WA0255602478000067179
B1712394313268N07228725WA0253902459000048183
B1712434313370N07228784WA0252602450000043185
B1712474313473N07228844WA0251702437000035187
B1712514313579N07228897WA0250502433000044190
B1712554313689N07228942WA0250402428000040191
B1712594313799N07228974WA0250002426000042186
B1713034313909N07229005WA0249302408000036190
B1713074314023N07229035WA0247402399000054192
B1713114314136N07229059WA0247302398000054189
B1713154314246N07229083WA0247102397000041184
B1713194314355N07229104WA0246802384000036187
B1713234314468N07229122WA0245302374000034189
B1713274314579N07229142WA0244502368000033187
B1713314314689N07229162WA0244002366000027183
B1713354314798N07229177WA0243702351000054183
B1713394314908N07229199WA0241402333000041187
B1713434315020N07229217WA0240502323000033186
B1713474315131N07229230WA0238802305000031188
B1713514315244N07229242WA0237202291000028188
B1713554315356N07229254WA0235902277000028188
B1713594315468N07229268WA0234702272000023185
B1714034315576N07229280WA0234302264000030180
B1714074315685N07229301WA0232502243000028185
B1714114315794N07229320WA0230902233000026183
B1714154315903N07229333WA0229902227000025180
B1714194316009N07229347WA0229602225000027176
B1714234316117N07229362WA0228102200000027186
B1714274316226N07229369WA0227302217000030172
B1714314316324N07229370WA0230002246000027158
B1714354316411N07229371WA0233402287000028133
B1714394316484N07229373WA0237902319000039111
B1714434316522N07229429WA0239502343000048094
B1714474316498N07229500WA0241702352000049111
B1714514316428N07229509WA0242302358000049131
B1714554316360N07229453WA0243702376000073131
B1714594316316N07229370WA0245402395000076123
B1715034316306N07229271WA0246502399000061126
B1715074316327N07229171WA0246902407000074125
B1715114316370N07229094WA0248002419000071113
B1715154316427N07229064WA0248902425000077099
B1715194316482N07229082WA0249702433000077095
B1715234316530N07229128WA0250602441000065096
B1715274316580N07229160WA0251302451000058090
B1715314316630N07229183WA0251702450000060091
B1715354316684N07229217WA0251502451000062101
B1715394316736N07229254WA0253302473000065093
B1715434316787N07229282WA0254302478000058094
B1715474316842N07229309WA0254402479000069099
B1715514316897N07229338WA0254502480000063099
B1715554316950N07229377WA0254602484000050099
B1715594317001N07229416WA0255402491000047096
B1716034317049N07229465WA0255102466000026110
B1716074317106N07229529WA0252902460000030129
B1716114317164N07229587WA0253902499000030105
B1716154317212N07229627WA0257702522000044088
B1716194317253N07229675WA0258602510000047096
B1716234317289N07229745WA0257302498000057111
B1716274317321N07229833WA0256402496000038126
B1716314317354N07229931WA0256002478000047139
B1716354317384N07230039WA0254902494000082129
B1716394317413N07230128WA0257602511000077114
B1716434317438N07230221WA0257002485000042130
B1716474317460N07230335WA0253702460000028153
B1716514317486N07230459WA0252502461000040157
F1716530107081314172127283013138
B1716554317516N07230570WA0254602496000042125
B1716594317552N07230644WA0259002533000050098
B1717034317587N07230708WA0259802520000035105
B1717074317613N07230803WA0256502479000024141
B1717114317637N07230924WA0253102452000019158
B1717154317669N07231047WA0251502441000020160
B1717194317708N07231168WA0250102421000021165
B1717234317744N07231300WA0247202394000020177
B1717274317778N07231438WA0246002393000028172
B1717314317809N07231554WA0249502442000036137
B1717354317839N07231653WA0252302457000055128
B1717394317866N07231754WA0253002465000066132
B1717434317886N07231852WA0255802504000048115
B1717474317906N07231933WA0259602535000029100
B1717514317962N07231960WA0261802553000049109
B1717554318016N07231905WA0262602561000063124
B1717594318021N07231801WA0263702569000074139
B1718034317969N07231712WA0264602579000077141
B1718074317897N07231669WA0267102610000033123
B1718114317832N07231677WA0269502629000020102
B1718154317817N07231745WA0271202647000022090
B1718194317860N07231778WA0273002663000014098
B1718234317901N07231715WA0274702681000011116
B1718274317886N07231617WA0275502685000043132
B1718314317822N07231570WA0276602700000031117
B1718354317762N07231595WA0279402727000014097
B1718394317743N07231658WA0280402741000006085
B1718434317783N07231700WA0281802755000008095
B1718474317827N07231642WA0283102762000008122
B1718514317808N07231540WA0283302765000050142
B1718554317744N07231479WA0284902795000024123
B1718594317676N07231464WA0287902827000011107
B1719034317625N07231496WA0291002847000006089
B1719074317621N07231566WA0292202848000010094
B1719114317646N07231645WA0292002843000016113
B1719154317675N07231736WA0291502841000038128
B1719194317709N07231834WA0292002842000044135
B1719234317751N07231935WA0290902822000068149
B1719274317804N07232041WA0289302814000050160
B1719314317860N07232148WA0289202814000070163
B1719354317919N07232259WA0288602801000069171
F171938010708131417212227283013138
B1719394317981N07232375WA0287902807000071174
B1719434318042N07232489WA0289102815000060171
B1719474318102N07232600WA0289902823000061166
B1719514318159N07232709WA0290802832000046162
B1719554318218N07232818WA0289602803000039172
B1719594318282N07232939WA0286402777000036189
B1720034318344N07233069WA0285802782000046186
B1720074318402N07233198WA0286002778000039186
B1720114318465N07233324WA0285702778000032185
B1720154318535N07233445WA0285202773000030190
B1720194318615N07233558WA0284902767000049193
B1720234318709N07233641WA0286102789000040181
B1720274318806N07233696WA0288102804000055172
B1720314318904N07233747WA0287002782000043183
B1720354319012N07233802WA0284702758000063198
B1720394319128N07233854WA0283402750000057206
B1720434319244N07233901WA0284102761000060198
B1720474319358N07233948WA0283302747000044200
B1720514319474N07233999WA0281502732000038204
B1720554319589N07234049WA0281402733000049200
B1720594319704N07234093WA0281702736000060197
B1721034319817N07234134WA0281202730000043195
B1721074319930N07234176WA0280502726000039194
B1721114320042N07234213WA0280602726000035191
B1721154320154N07234246WA0280502718000034191
B1721194320267N07234282WA0279402707000034195
B1721234320379N07234322WA0278602703000071192
B1721274320490N07234361WA0278302700000049189
B1721314320599N07234396WA0278002697000036186
B1721354320707N07234431WA0277502686000031186
B1721394320817N07234466WA0276002669000029189
B1721434320927N07234503WA0274402653000029189
B1721474321036N07234540WA0273002644000027186
B1721514321144N07234577WA0271902629000026186
B1721554321252N07234618WA0270202615000028186
B1721594321357N07234662WA0269102605000029182
B1722034321460N07234711WA0267702587000029183
B1722074321566N07234754WA0265802569000031185
B1722114321674N07234790WA0263802551000030186
B1722154321783N07234820WA0262102533000030185
B1722194321891N07234849WA0260302521000028181
B1722234321998N07234880WA0259202507000041184
B1722274322105N07234922WA0258202505000061184
F17222801070813141721222728301313138
B1722314322206N07234980WA0258202496000062183
B1722354322307N07235038WA0257002492000057181
B1722394322405N07235094WA0256902493000042173
B1722434322494N07235162WA0257002489000057170
B1722474322580N07235240WA0255802478000047170
B1722514322661N07235324WA0254802469000035170
B1722554322733N07235427WA0253202451000031175
B1722594322798N07235538WA0252202448000047170
B1723034322853N07235644WA0253702472000048148
B1723074322904N07235738WA0255902486000028141
B1723114322950N07235837WA0256402500000068137
B1723154322987N07235925WA0260202544000056112
B1723194323014N07236001WA0264002580000036096
B1723234323029N07236072WA0266402594000022092
B1723274323000N07236143WA0266502590000043113
F172329010708131417212227283013138
B1723314322931N07236153WA0266502589000063124
B1723354322879N07236079WA0265702582000068135
B1723394322886N07235971WA0265702583000062131
B1723434322936N07235896WA0266302596000052121
B1723474322991N07235838WA0269002624000046110
B1723514323045N07235802WA0270602645000020098
B1723554323092N07235838WA0272202661000009096
B1723594323085N07235914WA0274402670000011104
B1724034323024N07235946WA0274502669000036123
B1724074322959N07235899WA0274502673000048128
B1724114322936N07235801WA0274902679000049128
B1724154322952N07235697WA0275302691000059131
B1724194322980N07235599WA0277202710000032125
B1724234323013N07235508WA0278702721000053120
B1724274323071N07235456WA0279202714000048120
F1724300107081314172122272830138
B1724314323141N07235457WA0279002729000065112
B1724354323205N07235471WA0281302752000038106
B1724394323269N07235486WA0282302740000049115
B1724434323344N07235507WA0280002713000032138
B1724474323432N07235536WA0277002682000019160
B1724514323528N07235576WA0274302656000030172
B1724554323628N07235617WA0272302646000039175
B1724594323727N07235653WA0272502650000063167
B1725034323822N07235674WA0273202660000061155
B1725074323912N07235694WA0273702667000046149
B1725114323992N07235742WA0274402668000035145
B1725154324060N07235819WA0273602657000046148
B1725194324125N07235904WA0273202664000032150
B1725234324184N07235994WA0274502674000042144
B1725274324239N07236078WA0276702697000054131
F172531010708131417212227283013138
B1725314324295N07236152WA0277002692000033135
B1725354324359N07236236WA0276202689000050152
B1725394324425N07236313WA0278502725000039135
B1725434324486N07236378WA0282402754000027125
B1725474324549N07236444WA0282102739000025140
B1725514324613N07236521WA0280802728000043143
B1725554324664N07236618WA0279802717000032148
B1725594324712N07236723WA0278702708000036153
B1726034324764N07236832WA0277302693000049163
B1726074324825N07236940WA0276302684000054168
B1726114324886N07237048WA0276902692000087162
B1726154324945N07237148WA0278302707001076152
B1726194324999N07237249WA0278502712001082150
B1726234325047N07237347WA0280402731000067141
B1726274325102N07237436WA0281502740000088143
B1726314325165N07237514WA0282702753000079140
B1726354325231N07237587WA0282902748000087144
B1726394325306N07237657WA0282102729000076159
B1726434325393N07237723WA0280102710000061170
B1726474325482N07237797WA0278502698000055175
B1726514325572N07237871WA0277602699000070174
B1726554325659N07237942WA0278002710000050163
B1726594325742N07238009WA0279202715000044156
B1727034325821N07238076WA0279302711000049155
B1727074325900N07238142WA0278702705000032154
B1727114325979N07238212WA0277602688000028162
B1727154326063N07238286WA0276102672000043167
F1727180107081314172127283013138
B1727194326146N07238365WA0274302662000034168
B1727234326224N07238450WA0273902661000034165
B1727274326296N07238541WA0274002658000038161
B1727314326363N07238639WA0273002643000062164
B1727354326430N07238738WA0271302628000073164
B1727394326497N07238835WA0270402621000048158
B1727434326561N07238928WA0269602611000036155
B1727474326625N07239018WA0268602605000031151
B1727514326689N07239106WA0267902594000030151
B1727554326748N07239199WA0266302579000029151
B1727594326804N07239300WA0264702564000032157
B1728034326857N07239406WA0263702562000028155
B1728074326911N07239505WA0264502571000054146
B1728114326964N07239600WA0264102558000042147
B1728154327021N07239693WA0262502543000030148
F172819010708131417212227283013138
B1728194327075N07239792WA0260602520000030152
B1728234327134N07239892WA0258602509000029156
B1728274327196N07239986WA0258602513000025152
B1728314327260N07240075WA0258902512000045151
B1728354327317N07240169WA0258702516000049146
B1728394327366N07240268WA0259002514000038145
B1728434327406N07240380WA0257002484000053158
B1728474327445N07240500WA0255002472000044158
B1728514327486N07240611WA0254602474000036146
B1728554327529N07240712WA0254402469000029139
B1728594327572N07240811WA0252702450000028144
B1729034327615N07240921WA0250902433000046156
B1729074327659N07241035WA0249702421000040157
B1729114327704N07241145WA0249402421000030151
B1729154327751N07241250WA0249202420000043145
B1729194327789N07241351WA0249502428000044136
B1729234327823N07241454WA0249302417000047142
B1729274327857N07241568WA0248302407000038154
B1729314327882N07241681WA0249102439000061132
B1729354327903N07241776WA0252102472000058108
B1729394327923N07241854WA0255102490000057097
B1729434327947N07241928WA0255802486000060100
B1729474327979N07241998WA0255302477000028106
F1729480107081314172122283013138
B1729514328039N07242050WA0253802449000037131
B1729554328119N07242088WA0250602415000031150
B1729594328211N07242120WA0247102382000026163
B1730034328309N07242143WA0244302362000028167
B1730074328409N07242162WA0242402338000045171
B1730114328510N07242181WA0240202328000035170
B1730154328609N07242195WA0239702325000030164
B1730194328707N07242208WA0239402319000039166
B1730234328803N07242223WA0239502338000054149
B1730274328886N07242232WA0241902346000039136
B1730314328966N07242263WA0240202315000028145
B1730354329046N07242325WA0237002285000028158
B1730394329125N07242395WA0235302279000060153
B1730434329198N07242465WA0235002277000043146
B1730474329269N07242536WA0234302268000032146
B1730514329338N07242612WA0233002248000029153
B1730554329412N07242693WA0230802228000030161
B1730594329490N07242774WA0229002214000032163
B1731034329568N07242854WA0228002203000030163
B1731074329646N07242936WA0226702188000033166
B1731114329727N07243024WA0225302173000035175
B1731154329809N07243114WA0225202185000061166
B1731194329881N07243167WA0230602258000067111
B1731234329936N07243191WA0236302304000064088
B1731274329990N07243195WA0238102319000069096
B1731314330043N07243148WA0239802335000054117
B1731354330049N07243048WA0241502352000028132
B1731394329995N07242973WA0242602356000042127
B1731434329928N07242985WA0242402357000047107
B1731474329904N07243051WA0244002375000057082
B1731514329910N07243112WA0245902390000068075
B1731554329953N07243142WA0246302405000043102
B1731594330009N07243089WA0249002423000020128
B1732034330021N07242981WA0249602438000039142
B1732074329969N07242894WA0251402449000041139
B1732114329894N07242892WA0252102453000063118
B1732154329861N07242960WA0252702459000077094
B1732194329888N07243021WA0253402476000069091
B1732234329933N07243053WA0256002513000036081
B1732274329984N07243060WA0259302527000021097
B1732314330043N07243000WA0259802525000056147
B1732354330056N07242880WA0260602549000034151
B1732394329999N07242801WA0263502576000019124
B1732434329940N07242819WA0265502587000055094
B1732474329939N07242885WA0266102595000068089
B1732514329997N07242890WA0268302624000025117
B1732554330044N07242811WA0270702644000020135
B1732594330037N07242698WA0272102655000031143
B1733034329973N07242639WA0273702667000057126
B1733074329915N07242673WA0274702680000046093
B1733114329916N07242736WA0276402698000069078
B1733154329952N07242786WA0277302695000032094
B1733194329991N07242855WA0276002674000043118
B1733234330037N07242941WA0273602653000049139
B1733274330083N07243043WA0271802630000058151
B1733314330129N07243156WA0269502610000041162
B1733354330172N07243281WA0266802572000039177
B1733394330206N07243424WA0263802556000053184
B1733434330233N07243569WA0263702559000062181
B1733474330258N07243713WA0263602559000049180
B1733514330280N07243859WA0262702547000058181
B1733554330303N07244006WA0261502530000071185
B1733594330336N07244153WA0259802513000076188
B1734034330389N07244291WA0258802503000057192
B1734074330452N07244427WA0256802482000071198
B1734114330521N07244559WA0255902477000064197
B1734154330590N07244691WA0255002465000071198
B1734194330659N07244825WA0254002453000078199
B1734234330723N07244962WA0252802443000086197
B1734274330782N07245101WA0251802432000070195
B1734314330838N07245242WA0249902411000063193
B1734354330891N07245381WA0248502403000063188
B1734394330937N07245519WA0248702409000054182
B1734434330968N07245664WA0248202391000052186
B1734474330973N07245819WA0246802371000053191
F1734490107081314172122283013138
B1734514330960N07245975WA0244402360000053188
B1734554330949N07246123WA0243802360000049178
B1734594330935N07246268WA0242802341000049179
B1735034330920N07246415WA0241002322000050181
B1735074330906N07246559WA0239902328000049172
B1735114330894N07246699WA0239302306000052172
B1735154330884N07246841WA0236802293000047171
B1735194330876N07246980WA0236302286000047169
B1735234330860N07247115WA0236002274000047167
B1735274330846N07247252WA0233402253000042167
B1735314330832N07247387WA0232102243000041165
B1735354330815N07247522WA0230902232000041167
B1735394330797N07247657WA0230202228000041164
B1735434330782N07247788WA0230002225000038160
B1735474330756N07247917WA0229302216000036166
B1735514330729N07248052WA0227702205000035172
B1735554330701N07248186WA0228102216000060164
B1735594330676N07248312WA0228702221000068152
B1736034330655N07248430WA0228602218000039144
B1736074330637N07248548WA0227202191000029151
B1736114330623N07248673WA0224502172000033154
B1736154330607N07248797WA0222902155000034151
B1736194330602N07248920WA0221702148000046147
B1736234330619N07249037WA0221402146000043143
B1736274330649N07249143WA0221502151000054134
B1736314330681N07249240WA0222402158000039129
B1736354330716N07249334WA0222302161000042126
B1736394330754N07249424WA0222302155000045128
B1736434330789N07249521WA0220702134000037136
B1736474330820N07249630WA0218702114000032146
B1736514330855N07249741WA0218302119000035147
B1736554330898N07249845WA0219302129000026146
B1736594330942N07249950WA0220102138000032147
B1737034330986N07250041WA0223802184000035118
B1737074331029N07250104WA0227302220000054094
B1737114331064N07250162WA0229402232000073093
B1737154331102N07250220WA0231502260000057090
B1737194331143N07250259WA0234102280000025088
B1737234331204N07250261WA0234302278000057112
B1737274331268N07250258WA0234502289000055101
B1737314331306N07250307WA0235702300000056086
B1737354331301N07250376WA0236902313000059086
B1737394331257N07250413WA0238502330000045097
B1737434331196N07250380WA0239802339000051122
B1737474331163N07250285WA0240702349000047137
B1737514331176N07250179WA0242402372000042125
B1737554331221N07250108WA0244602387000050110
B1737594331279N07250079WA0245302393000047101
B1738034331336N07250083WA0246202405000065086
B1738074331371N07250122WA0247202407000062075
B1738114331374N07250186WA0247402410000071082
B1738154331373N07250254WA0248302426000047084
B1738194331375N07250324WA0250002443000024085
B1738234331376N07250390WA0252002465000011076
B1738274331377N07250451WA0253402465000031076
B1738314331374N07250519WA0252602453000051089
B1738354331370N07250601WA0250902435000051110
F173838010708131417192122283013138
B1738394331360N07250699WA0249202418000025129
B1738434331351N07250809WA0247502397000041140
B1738474331341N07250929WA0245302376000034152
B1738514331332N07251056WA0243802363000029156
B1738554331325N07251185WA0242602352000049158
B1738594331319N07251314WA0241902347000043156
B1739034331318N07251442WA0241302343000037155
B1739074331322N07251568WA0241902348000035151
B1739114331328N07251692WA0242002350000055151
B1739154331333N07251814WA0242802363000060144
B1739194331340N07251929WA0244202377000053138
B1739234331347N07252041WA0245402388000049134
B1739274331352N07252153WA0245602387000052140
B1739314331355N07252269WA0246202395000066139
B1739354331354N07252384WA0246902401000057142
B1739394331351N07252501WA0247702412000061139
B1739434331353N07252609WA0249702433000069123
B1739474331370N07252700WA0252002457000055104
B1739514331400N07252764WA0255102489000057086
B1739554331432N07252813WA0257802516000037075
B1739594331463N07252856WA0259202537000014073
B1740034331497N07252897WA0261002549000011079
B1740074331548N07252908WA0262102559000028096
B1740114331606N07252872WA0263302566000062114
B1740154331662N07252812WA0264002562000054118
B1740194331723N07252821WA0263702565000054100
B1740234331757N07252889WA0263702572000068102
B1740274331775N07252966WA0264902591000077094
B1740314331783N07253043WA0266502594000085101
B1740354331788N07253134WA0266302591000085118
B1740394331792N07253234WA0266202587000091125
B1740434331795N07253340WA0266002589000065129
B1740474331796N07253447WA0266202586000062131
B1740514331797N07253556WA0265302568000043135
B1740554331796N07253670WA0263302547000032141
B1740594331794N07253788WA0261302528000032147
B1741034331789N07253909WA0260102519000054148
B1741074331807N07254030WA0258602506000047152
B1741114331838N07254151WA0257102484000057159
B1741154331873N07254278WA0254902463000061168
B1741194331907N07254411WA0252902450000047171
B1741234331934N07254545WA0252202447000054166
B1741274331959N07254675WA0251902442000057160
B1741314331981N07254800WA0251302435000049154
B1741354332004N07254923WA0249802423000063154
B1741394332027N07255045WA0250002437000043151
B1741434332048N07255164WA0252102470000045138
B1741474332072N07255256WA0257802534000030105
B1741514332099N07255329WA0262502566000014099
B1741554332128N07255400WA0264702584000011099
B1741594332164N07255466WA0266302598000011097
B1742034332193N07255533WA0267002600000037097
B1742074332224N07255609WA0265702577000042116
B1742114332266N07255699WA0262502544000028143
B1742154332313N07255806WA0260302523000036156
B1742194332362N07255920WA0258502506000043162
B1742234332408N07256039WA0256902494000039162
B1742274332443N07256160WA0257102504000031154
B1742314332466N07256281WA0258302507000036153
B1742354332472N07256414WA0256702491000074169
B1742394332458N07256553WA0256502491000082171
B1742434332434N07256685WA0258002511000082158
B1742474332403N07256803WA0258702518000052150
B1742514332369N07256917WA0258802513000033150
B1742554332330N07257029WA0258602508000052152
F17425801070814171921283013138
B1742594332259N07257114WA0258002501000054168
B1743034332158N07257107WA0258202513000038176
B1743074332085N07257004WA0259002512000024180
B1743114332052N07256860WA0257902496000032186
B1743154332025N07256708WA0256102480000025194
B1743194331997N07256547WA0254402467000047203
B1743234331974N07256385WA0254002472000047200
B1743274331952N07256221WA0254202469000040203
B1743314331933N07256055WA0253602463000029206
B1743354331919N07255885WA0253302458000033207
B1743394331910N07255715WA0252702453000066208
B1743434331902N07255545WA0252502456000048204
B1743474331890N07255378WA0252802456000060203
B1743514331876N07255212WA0252702453000041203
