ANKL0ZH
HFDTE160621
HFFXA050
HFPLTPILOT:Nelson Howe
HFGTYGLIDERTYPE:Discus 2b
HFGIDGLIDERID:1X       .
HFDTM100GPSDATUM:
HFRFWFIRMWAREVERSION:40 2011-6-17
HFRHWHARDWAREVERSION: NKL ClearNav V1.0
HFFTYFRTYPE:Nielsen Kellerman, ClearNav-IGC
HFGPS:UBLOX,LEA-4H-0-000-1,16Ch,18000 
HFPRSPRESSALTSENSOR:Intersema,MS5534B,20000 
I033638FXA3941ENL4247REX
C160621143349000000000103
C0000000N00000000WTAKEOFF     
C4225500N07147470WSterlingStrt
C4335485N07145117WArea Newfoun
C4322119N07240459WArea Smith
C4133852N07211843WArea GagerFi
C4225500N07147470WSterling
C0000000N00000000WLANDING     
B1457534225409N07147429WA0019500138002000003008
B1457544225409N07147429WA0019400138002000003008
B1457554225409N07147429WA0019400138002000003008
B1457564225409N07147429WA0019400138002000003008
B1457574225409N07147429WA0019400138002000003008
B1457584225409N07147429WA0019400137002000003008
B1457594225410N07147429WA0019400137002000003008
B1458004225410N07147429WA0019400137002000003008
B1458014225410N07147429WA0019400137002000003008
B1458024225410N07147429WA0019300137002000003008
B1458034225410N07147429WA0019400137002000003008
B1458044225410N07147429WA0019400136002000003008
B1458054225410N07147429WA0019400136002000003008
B1458064225410N07147429WA0019400136002000003008
B1458074225410N07147429WA0019400136002000003008
B1458084225410N07147429WA0019500136002000003008
B1458094225410N07147429WA0019400136002000003008
B1458104225410N07147429WA0019400135002000003008
B1458114225410N07147429WA0019400135002000003008
B1458124225410N07147429WA0019400135002000003008
B1458134225410N07147429WA0019400135002000003008
B1458144225410N07147429WA0019400135002000003008
B1458154225410N07147429WA0019400135002000003008
B1458164225410N07147429WA0019300135002004003008
B1458174225410N07147429WA0019300135002004003008
B1458184225410N07147429WA0019400135002004003008
B1458194225410N07147429WA0019300135002004003008
B1458204225410N07147429WA0019400134002006003008
B1458214225410N07147429WA0019400134002009003008
B1458224225410N07147429WA0019400134002013003008
B1458234225410N07147429WA0019400134002013003008
B1458244225410N07147429WA0019400134002013003008
B1458254225410N07147429WA0019400134002013003008
B1458264225410N07147429WA0019300133002011003008
B1458274225410N07147429WA0019300133002011003008
B1458284225410N07147429WA0019400133002009003008
B1458294225410N07147429WA0019400133002006003008
B1458304225410N07147429WA0019300133002004003008
B1458314225410N07147429WA0019400133002002003008
B1458324225410N07147429WA0019400133002002003008
B1458334225410N07147429WA0019400133002004003008
B1458344225410N07147429WA0019400133002004003008
B1458354225410N07147429WA0019300133002004003008
B1458364225410N07147429WA0019400133002002003008
B1458374225410N07147429WA0019300133002000003008
B1458384225410N07147429WA0019400133002000003008
B1458394225410N07147429WA0019400133002002003008
B1458404225410N07147429WA0019400133002009003008
B1458414225410N07147429WA0019400133002020003008
B1458424225410N07147429WA0019400133002025003008
B1458434225410N07147429WA0019400133002029003008
B1458444225410N07147429WA0019400133002025003008
B1458454225410N07147429WA0019400133002015003008
B1458464225410N07147429WA0019500134002006003008
B1458474225410N07147429WA0019400134002000003008
B1458484225410N07147429WA0019400134002000003008
B1458494225410N07147429WA0019400134002000003008
B1458504225410N07147429WA0019400134002006003008
B1458514225410N07147429WA0019400134002011003008
B1458524225410N07147429WA0019300134002015003008
B1458534225410N07147429WA0019400134002018003008
B1458544225410N07147429WA0019300134002020003008
B1458554225410N07147429WA0019300134002018003008
B1458564225410N07147429WA0019200134002018003008
B1458574225410N07147429WA0019300134002018003008
B1458584225410N07147429WA0019400134002015003008
B1458594225410N07147429WA0019400134002020003008
B1459004225410N07147429WA0019300134002018003008
B1459014225410N07147429WA0019300134002013003008
B1459024225410N07147429WA0019300134002011003008
B1459034225410N07147429WA0019400134002006003008
B1459044225410N07147429WA0019300134002011003008
B1459054225410N07147429WA0019400134002015003008
B1459064225410N07147429WA0019300133002018003008
B1459074225410N07147429WA0019300133002020003008
B1459084225410N07147429WA0019300133002018003008
B1459094225410N07147429WA0019300133002015003008
B1459104225410N07147429WA0019300133002018003008
B1459114225411N07147429WA0019300133002018003008
B1459124225411N07147429WA0019300133002013003008
B1459134225411N07147429WA0019400133002011003008
B1459144225411N07147429WA0019400133002004003008
B1459154225411N07147429WA0019300133002000003008
B1459164225411N07147429WA0019300133002002003008
B1459174225411N07147429WA0019300133002002003008
B1459184225411N07147429WA0019400133002000003008
B1459194225411N07147429WA0019400133002000003008
B1459204225411N07147429WA0019300133002000003008
B1459214225411N07147429WA0019300133002000003008
B1459224225411N07147429WA0019300132002000003008
B1459234225411N07147429WA0019400132002004003008
B1459244225411N07147429WA0019300132002006003008
B1459254225411N07147429WA0019300132002009003008
B1459264225411N07147429WA0019300132002009003008
B1459274225411N07147429WA0019200132002009003008
B1459284225411N07147429WA0019300132002011003008
B1459294225411N07147429WA0019300132002011003008
B1459304225411N07147429WA0019300132002013003008
B1459314225411N07147429WA0019200132002013003008
B1459324225411N07147429WA0019200132002011003008
B1459334225411N07147429WA0019100132002015003008
B1459344225411N07147429WA0019200132002015003008
B1459354225411N07147429WA0019300132002020003008
B1459364225411N07147429WA0019300132002024003008
B1459374225411N07147429WA0019200132002024003008
B1459384225411N07147429WA0019200132002029003008
B1459394225411N07147429WA0019200132002029003008
B1459404225411N07147428WA0019200132002027003008
B1459414225411N07147428WA0019100132002025003008
B1459424225411N07147428WA0019200132002020003008
B1459434225411N07147429WA0019200132002018003008
B1459444225411N07147429WA0019200132002022003008
B1459454225411N07147429WA0019100132002027003008
B1459464225411N07147429WA0019200132002029003008
B1459474225411N07147429WA0019200132002032003008
B1459484225411N07147429WA0019300132002029003008
B1459494225411N07147429WA0019300132002027003008
B1459504225411N07147429WA0019300132002029003008
B1459514225411N07147429WA0019200132002027003008
B1459524225412N07147430WA0019200132002025003008
B1459534225414N07147433WA0019200132002020003000
F145953192803010708141751441321
B1459554225421N07147441WA0019300133002018003000
B1459574225431N07147454WA0019400133002057003000
B1459594225444N07147470WA0019300133002118003000
B1500014225460N07147489WA0019400133002132003000
B1500034225478N07147511WA0019200134002118003000
F150004192803010708141751442122
B1500054225498N07147536WA0019400135002109003000
B1500074225520N07147563WA0019800138002090003000
B1500094225542N07147591WA0020300143002072003000
B1500114225566N07147618WA0021200151002060003000
B1500134225590N07147644WA0022100161002052003000
B1500154225614N07147671WA0022900169002048003000
B1500174225638N07147697WA0023600177002041003000
B1500194225663N07147721WA0024400185002037003000
B1500214225687N07147746WA0025200194002037003000
B1500234225708N07147772WA0026100203002039003000
B1500254225729N07147800WA0026800211002039003000
B1500274225751N07147825WA0027400218002037003000
B1500294225773N07147848WA0027900224002037003000
B1500314225795N07147873WA0029000232002037003000
B1500334225816N07147899WA0029500241002032003000
B1500354225838N07147924WA0030400248002029003000
B1500374225859N07147952WA0030800255002032003000
B1500394225881N07147980WA0031500260002036003000
B1500414225904N07148006WA0032100268002039003000
B1500434225929N07148030WA0032900276002037003000
B1500454225951N07148057WA0033800285002037003000
B1500474225972N07148086WA0034400292002037003000
B1500494225994N07148112WA0035300298002037003000
B1500514226020N07148131WA0035500304002037003000
B1500534226047N07148143WA0036000308002037003000
B1500554226076N07148150WA0036600313002037003000
B1500574226105N07148155WA0036900317002034003000
B1500594226134N07148157WA0037300321002034003000
B1501014226164N07148157WA0037800325002032003000
B1501034226193N07148153WA0038200329002027003000
B1501054226222N07148149WA0038700335002029003000
B1501074226250N07148144WA0039700340002032003000
B1501094226278N07148141WA0040100348002032003000
B1501114226306N07148137WA0040300352002034003000
B1501134226334N07148132WA0041100356002037003000
B1501154226363N07148133WA0041800363002037003000
B1501174226392N07148133WA0042600371002037003000
B1501194226422N07148128WA0042900377002034003000
B1501214226452N07148122WA0044300383002034003000
B1501234226482N07148117WA0044500393002037003000
B1501254226511N07148111WA0045200397002034003000
B1501274226541N07148106WA0045700405002034003000
B1501294226570N07148100WA0046200410002037003000
B1501314226599N07148095WA0046900414002037003000
B1501334226628N07148089WA0048200425002037003000
B1501354226657N07148084WA0048600434002037003000
B1501374226687N07148079WA0049500441002041003000
B1501394226715N07148075WA0050200450002043003000
B1501414226744N07148069WA0050800455002039003000
B1501434226772N07148062WA0051500462002037003000
B1501454226801N07148057WA0051900468002037003000
B1501474226830N07148054WA0052500473002037003000
B1501494226858N07148048WA0053600483002037003000
B1501514226886N07148042WA0054400491002037003000
B1501534226914N07148038WA0055200499002037003000
B1501554226943N07148033WA0056300508002034003000
B1501574226971N07148029WA0056900517002034003000
B1501594227000N07148029WA0057500525002037003000
B1502014227030N07148025WA0058400532002037003000
B1502034227060N07148017WA0058700536002034003000
B1502054227090N07148011WA0059100540002032003000
B1502074227121N07148005WA0059500544002034003000
B1502094227153N07148002WA0060200550002037003000
B1502114227184N07147996WA0060800557002037003000
B1502134227216N07147989WA0061700562002034003000
B1502154227248N07147985WA0061700566002034003000
B1502174227280N07147983WA0062200570002032003000
B1502194227313N07147981WA0062700576002029003000
B1502214227344N07147977WA0063300581002027003000
B1502234227376N07147974WA0064000588002024003000
B1502254227407N07147972WA0064800595002029003000
B1502274227437N07147971WA0065700601002029003000
B1502294227467N07147968WA0066000607002029003000
B1502314227497N07147965WA0066500614002034003000
B1502334227526N07147964WA0067000619002037003000
B1502354227555N07147962WA0067500624002037003000
B1502374227583N07147959WA0068200628002037003000
B1502394227611N07147957WA0068700635002037003000
B1502414227638N07147955WA0069300642002041003000
B1502434227666N07147955WA0069900648002043003000
B1502454227695N07147954WA0070400653002043003000
B1502474227726N07147953WA0070500654002048003000
B1502494227758N07147954WA0071100658002046003000
B1502514227789N07147955WA0071900666002039003000
B1502534227821N07147956WA0072600674002037003000
B1502554227851N07147959WA0073400681002037003000
B1502574227880N07147962WA0074300689002037003000
B1502594227910N07147964WA0075000697002032003000
B1503014227939N07147966WA0075500703002032003000
B1503034227969N07147970WA0076000708002037003000
B1503054228000N07147973WA0076200711002032003000
B1503074228030N07147977WA0076400715002032003000
B1503094228061N07147982WA0076700718002037003000
B1503114228091N07147985WA0077400721002037003000
B1503134228120N07147989WA0078100728002037003000
B1503154228150N07147992WA0078200733002037003000
B1503174228179N07147996WA0078600735002037003000
B1503194228209N07148000WA0079200740002037003000
B1503214228240N07148000WA0079900747002037003000
B1503234228271N07148002WA0079900751002034003000
B1503254228302N07148005WA0080000754002034003000
B1503274228330N07148003WA0079300754002046003000
B1503294228358N07147992WA0079800751002079003000
B1503314228383N07147974WA0080000754002088003000
B1503334228406N07147952WA0080100755002065003000
B1503354228427N07147927WA0080200756002060003000
B1503374228447N07147901WA0080800758002069003000
B1503394228466N07147874WA0081400764002069003000
B1503414228485N07147850WA0081800769002051003000
B1503434228506N07147829WA0082000773002029003000
B1503454228529N07147825WA0082200775002022003000
B1503474228546N07147845WA0082100775003020003000
B1503494228544N07147878WA0082400777003018004000
F150350192803010708141751212230
B1503514228521N07147903WA0082500780003048004000
F1503511928030107081417212230
B1503534228486N07147907WA0082300779002081003000
B1503554228449N07147891WA0082200778002079003000
B1503574228418N07147860WA0082400778002055003000
B1503594228399N07147816WA0082900782002029003000
B1504014228401N07147772WA0083000785002025003000
B1504034228420N07147745WA0082900786002055003000
B1504054228445N07147746WA0082900784002090003000
B1504074228466N07147767WA0083000786002085003000
B1504094228479N07147800WA0083100787002071003000
B1504114228482N07147838WA0083300788002057003000
B1504134228466N07147872WA0083200789003072004000
B1504154228432N07147885WA0083300787002095004000
B1504174228395N07147871WA0083200785002090004000
B1504194228362N07147839WA0083300786002076003000
B1504214228335N07147796WA0083500787002053003000
B1504234228314N07147749WA0083400788002036003000
B1504254228311N07147702WA0084200793003034004000
B1504274228330N07147674WA0084400797003062004000
B1504294228354N07147678WA0084400798003090004000
B1504314228372N07147703WA0083900796003088004000
B1504334228379N07147741WA0083800793003097004000
B1504354228368N07147783WA0084100793002093004000
B1504374228343N07147819WA0084300795002060004000
B1504394228305N07147830WA0084900798002069004000
B1504414228267N07147810WA0084400798003097004000
B1504434228236N07147771WA0084400795003111004000
B1504454228209N07147726WA0084200794002121003000
B1504474228180N07147682WA0084200794002128003000
B1504494228147N07147645WA0084100793002139003000
B1504514228109N07147617WA0083900792002144003000
B1504534228070N07147592WA0084000791002144003000
B1504554228029N07147570WA0083700792002132003000
B1504574227988N07147550WA0083400790002118003000
B1504594227947N07147534WA0083000786002128003000
B1505014227906N07147527WA0083200785002142003000
B1505034227869N07147540WA0083500787002144003000
B1505054227841N07147564WA0083100787002153003000
B1505074227819N07147593WA0082900784002160003000
B1505094227806N07147627WA0082300779002158003000
B1505114227804N07147662WA0081600774002160003000
B1505134227813N07147691WA0081300769002151003000
B1505154227831N07147712WA0080700764002123004000
B1505174227855N07147723WA0080100758002083003000
B1505194227882N07147726WA0079300750002053003000
B1505214227911N07147723WA0078900746002053003000
B1505234227940N07147717WA0078800744002083003000
B1505254227970N07147710WA0078800744002104003000
B1505274228000N07147701WA0078700743002090003000
B1505294228029N07147691WA0078800743002083003000
B1505314228059N07147680WA0078400742002097003000
F150532192803010708141744212230
B1505334228088N07147666WA0078100739002121003000
B1505354228117N07147652WA0077900736002144003000
B1505374228146N07147637WA0077800734002158003000
B1505394228175N07147625WA0077700734002170003000
B1505414228205N07147615WA0078000734002177003000
B1505434228235N07147608WA0077600734002172003000
B1505454228265N07147603WA0077400731002153003000
B1505474228295N07147600WA0077300729002128003000
B1505494228327N07147599WA0076900727002102003000
B1505514228358N07147599WA0077000726002074003000
B1505534228389N07147601WA0077200727002062003000
B1505554228420N07147604WA0077600730002060003000
B1505574228451N07147609WA0078300736002043003000
B1505594228480N07147614WA0078500741002025003000
B1506014228510N07147605WA0078800741002013004000
B1506034228530N07147564WA0079700746003022004000
B1506054228525N07147510WA0080000751003034004000
B1506074228496N07147469WA0079900752003020004000
B1506094228457N07147452WA0079900751003018004000
B1506114228419N07147460WA0080100751003029004000
B1506134228389N07147487WA0080000752003032004000
B1506154228376N07147526WA0080500753003032004000
B1506174228381N07147565WA0080600756002022004000
B1506194228404N07147585WA0080600757003009004000
B1506214228435N07147569WA0081100761003002004000
B1506234228450N07147519WA0081700767003006004000
B1506254228439N07147463WA0082300772003036004000
B1506274228405N07147427WA0082900778003046004000
B1506294228366N07147420WA0083300782003029004000
B1506314228336N07147442WA0084000787003034004000
B1506334228324N07147477WA0084300792002034004000
B1506354228332N07147508WA0084400795002020004000
B1506374228354N07147522WA0084600796002009004000
B1506394228382N07147513WA0084500798003002004000
B1506414228405N07147478WA0084600796003004004000
B1506434228409N07147423WA0085000800003020004000
B1506454228393N07147368WA0085200802003029004000
B1506474228357N07147336WA0085600805003018004000
B1506494228317N07147341WA0086100809003009004000
B1506514228290N07147370WA0086900815003004004000
B1506534228282N07147407WA0087500823003000004000
B1506554228294N07147435WA0088100829003020004000
B1506574228317N07147444WA0088300833003050004000
B1506594228343N07147432WA0088500836003043004000
B1507014228366N07147402WA0088800837003038004000
B1507034228379N07147358WA0088700838003057004000
B1507054228380N07147304WA0089000840002058004000
B1507074228367N07147249WA0089000840002039004000
B1507094228340N07147204WA0089500843002018004000
B1507114228302N07147185WA0089900847003023004000
B1507134228267N07147194WA0090000849003037004000
B1507154228244N07147224WA0090400851003034004000
B1507174228239N07147261WA0090800856003027004000
B1507194228252N07147289WA0091200860003032004000
B1507214228277N07147297WA0091600866003036004000
B1507234228304N07147279WA0092100870003027004000
B1507254228323N07147240WA0092400874003015004000
B1507274228326N07147185WA0092800878003009004000
B1507294228309N07147132WA0092900880003006004000
B1507314228276N07147100WA0093200882003009004000
B1507334228238N07147101WA0093400883003034004000
B1507354228210N07147126WA0093700886003067004000
B1507374228198N07147162WA0093800888003058004000
B1507394228204N07147196WA0094200891003034004000
B1507414228226N07147212WA0094800897003027004000
B1507434228254N07147204WA0095200903003011004000
B1507454228276N07147170WA0095400906003000004000
B1507474228283N07147117WA0095600907003004004000
B1507494228273N07147059WA0095800908003004004000
B1507514228246N07147012WA0095500908003016004000
B1507534228207N07146985WA0095300905003041004000
B1507554228165N07146983WA0095300904003069004000
B1507574228127N07147000WA0095600906003069004000
B1507594228100N07147031WA0096400910003043004000
B1508014228096N07147069WA0097500920003037004000
B1508034228112N07147095WA0098300931003027004000
B1508054228137N07147096WA0099000939003011004000
B1508074228160N07147068WA0099400944003002004000
B1508094228168N07147019WA0099700947003000004000
B1508114228154N07146968WA0099800948003000004000
B1508134228123N07146932WA0100100950003000004000
B1508154228086N07146918WA0100900956003000004000
B1508174228053N07146924WA0102400968003023004000
F1508181928030107081417212230
B1508194228032N07146943WA0102900978003062004000
B1508214228025N07146968WA0102500979003062004000
B1508234228026N07146994WA0102800980003032004000
B1508254228035N07147017WA0103700987003013004000
B1508274228046N07147034WA0104500996003004004000
B1508294228062N07147041WA0104100998003002004000
B1508314228082N07147031WA0103600994003006004000
B1508334228101N07147000WA0103600991003004004000
B1508354228110N07146950WA0102900988003000004000
B1508374228104N07146892WA0102400983003000004000
B1508394228080N07146840WA0102600980003013004000
B1508414228042N07146807WA0102800982003046004000
B1508434227999N07146801WA0103100983003057004000
B1508454227964N07146819WA0103500987003067004000
B1508474227943N07146854WA0103800990003072004000
B1508494227943N07146891WA0104500994003064004000
B1508514227960N07146918WA0105101002003060004000
B1508534227986N07146925WA0105401007003039004000
B1508554228014N07146907WA0105701009003022004000
B1508574228034N07146863WA0106001012003022004000
B1508594228038N07146807WA0106101015003024004000
B1509014228026N07146750WA0106101016003050004000
B1509034227997N07146706WA0106001016003093004000
B1509054227960N07146676WA0106101015003097004000
B1509074227919N07146659WA0106101014003079004000
B1509094227878N07146656WA0106201015003076004000
B1509114227843N07146673WA0106301016003097004000
B1509134227819N07146704WA0106301015003123004000
B1509154227806N07146741WA0106101015003139004000
B1509174227807N07146779WA0106001014003149004000
B1509194227818N07146811WA0105901014003149004000
B1509214227839N07146833WA0106301016003121004000
B1509234227868N07146838WA0106701020003081004000
B1509254227898N07146823WA0107001024003050004000
B1509274227923N07146786WA0107301027003032004000
B1509294227926N07146731WA0107601030003022004000
B1509314227898N07146685WA0108101033003022004000
B1509334227858N07146675WA0108901038003034004000
B1509354227827N07146693WA0110001048003039004000
B1509374227812N07146721WA0110601057003025004000
B1509394227814N07146748WA0110701062003009004000
B1509414227830N07146763WA0110601062003009004000
B1509434227854N07146757WA0110201060003032004000
B1509454227879N07146731WA0110301057003046004000
B1509474227898N07146689WA0110101057003032004000
B1509494227902N07146633WA0110401059003013004000
B1509514227880N07146580WA0110601059003004004000
B1509534227842N07146553WA0111101062003016004000
B1509554227804N07146559WA0111701067003050004000
B1509574227778N07146584WA0112201072003069004000
B1509594227768N07146618WA0112501076003062004000
B1510014227771N07146650WA0112801080003072004000
B1510034227785N07146675WA0112801082003069004000
B1510054227806N07146691WA0112801083003043004000
B1510074227832N07146694WA0112901084003048004000
B1510094227861N07146681WA0113001085003055004000
B1510114227889N07146659WA0113301087003043004000
B1510134227915N07146627WA0113701091003036004000
B1510154227938N07146587WA0113901094003022004000
B1510174227952N07146537WA0114201097003015004000
B1510194227946N07146481WA0114601099003018004000
B1510214227922N07146433WA0114901102003039004000
B1510234227887N07146409WA0115001104003064004000
B1510254227849N07146410WA0114901104003081004000
B1510274227819N07146431WA0114901102003093004000
B1510294227804N07146464WA0114801103003086004000
B1510314227807N07146498WA0115201104003064004000
B1510334227828N07146515WA0115701109003048004000
B1510354227855N07146499WA0116301115003043004000
B1510374227872N07146457WA0116601120003032004000
B1510394227869N07146405WA0116901122003018004000
B1510414227845N07146363WA0116901122003025004000
B1510434227811N07146346WA0116901122003055004000
B1510454227778N07146355WA0116901122003090004000
B1510474227756N07146381WA0117001122003093004000
B1510494227749N07146413WA0117001122003079004000
B1510514227757N07146442WA0117001124003081004000
B1510534227777N07146461WA0117401126003062004000
B1510554227805N07146461WA0117901131003034004000
B1510574227830N07146433WA0118201135003020004000
B1510594227840N07146384WA0118301138003015004000
B1511014227829N07146330WA0118301139003018004000
B1511034227803N07146286WA0118401138003046004000
B1511054227767N07146262WA0118501139003064004000
B1511074227729N07146264WA0118401139003053004000
B1511094227699N07146286WA0118301136003069004000
B1511114227683N07146321WA0118601138003097004000
B1511134227683N07146358WA0119001142003109004000
B1511154227694N07146388WA0119701148003086004000
B1511174227715N07146405WA0120101154003050004000
B1511194227743N07146402WA0120401157003032004000
B1511214227769N07146375WA0121001162003015005000
B1511234227782N07146330WA0121001166003006004000
B1511254227774N07146279WA0121001167003000004000
B1511274227747N07146239WA0121201166003000004000
B1511294227710N07146223WA0121701169003013004000
B1511314227676N07146235WA0122001172003029005000
B1511334227658N07146267WA0122601176003034004000
B1511354227659N07146302WA0122801181003022004000
B1511374227676N07146328WA0123101185003009004000
B1511394227703N07146330WA0123501187003004004000
B1511414227730N07146307WA0123801191003002005000
B1511434227745N07146263WA0124101195003000005000
B1511454227737N07146211WA0124301197003000004000
B1511474227709N07146173WA0124801199003000004000
B1511494227673N07146161WA0125301204003000005000
B1511514227641N07146175WA0125701210003000005000
B1511534227626N07146207WA0126201214003000005000
B1511554227633N07146240WA0126501218003002005000
B1511574227656N07146255WA0126501219003011005000
B1511594227684N07146246WA0126901221003013005000
B1512014227706N07146211WA0127301226003006005000
B1512034227708N07146162WA0127001226003009005000
B1512054227685N07146118WA0127001225003020005000
B1512074227648N07146101WA0127501225003032005000
B1512094227613N07146114WA0127801230003034005000
B1512114227591N07146146WA0128501235003022005000
B1512134227591N07146185WA0129201242003006005000
B1512154227610N07146211WA0129501247003013005000
B1512174227637N07146213WA0129601250003025005000
B1512194227662N07146188WA0129801251003022005000
B1512214227673N07146144WA0129801253003032005000
B1512234227664N07146096WA0129801253003048005000
B1512254227637N07146063WA0129801251003057005000
B1512274227601N07146054WA0129701251003067005000
B1512294227569N07146070WA0130101252003060005000
B1512314227551N07146104WA0131001258003034005000
B1512334227551N07146141WA0131501266003015005000
B1512354227565N07146169WA0131501268003015005000
B1512374227589N07146181WA0131501270003043005000
B1512394227617N07146175WA0131201268003057005000
B1512414227644N07146152WA0131101266003053005000
B1512434227661N07146111WA0131501268003065005000
B1512454227662N07146061WA0132301274003058005000
B1512474227648N07146014WA0132901281003032005000
B1512494227620N07145980WA0133301284003015005000
B1512514227586N07145971WA0133401287003004005000
B1512534227555N07145987WA0133801290003009005000
B1512554227537N07146018WA0134301293003025005000
B1512574227533N07146054WA0134901299003027005000
B1512594227541N07146086WA0135101304003011005000
B1513014227557N07146110WA0135301307003018005000
B1513034227577N07146129WA0135001307003034005000
B1513054227599N07146144WA0135301308003029005000
B1513074227624N07146153WA0135501310003027005000
B1513094227649N07146161WA0135301311003039005000
B1513114227675N07146169WA0134901309003046005000
B1513134227703N07146178WA0134701308003039005000
B1513154227731N07146188WA0134701306003048005000
B1513174227759N07146198WA0134401305003053005000
B1513194227789N07146208WA0134301303003041005000
B1513214227820N07146216WA0134501304003029005000
B1513234227851N07146221WA0134501305003022005000
B1513254227884N07146219WA0134501304003015005000
B1513274227918N07146211WA0135001305003006005000
B1513294227952N07146201WA0135401312003002005000
B1513314227986N07146193WA0135901317003000005000
B1513334228021N07146196WA0136701324003000004000
F151333192803010708141706212230
B1513354228050N07146218WA0138001335003000004000
B1513374228063N07146260WA0139501346003000004000
B1513394228055N07146304WA0139701355003000004000
B1513414228030N07146335WA0138901352003004004000
B1513434227996N07146344WA0138301345003030004000
F1513431928030107081417212230
B1513454227962N07146328WA0137801339003039004000
B1513474227935N07146294WA0137401335003039004000
F151347192803010708141706212230
B1513494227919N07146247WA0138001336003034004000
B1513514227910N07146197WA0138601342003039004000
B1513534227911N07146147WA0139101349003032004000
B1513554227919N07146098WA0140101359003013004000
B1513574227933N07146053WA0140701367003004004000
F1513581928030107141706212230
B1513594227957N07146020WA0141401373003000004000
F15135919280107141706212230
B1514014227987N07146019WA0141801378003000004000
F1514021928030107141706212230
B1514034228006N07146050WA0142401383003000005000
B1514054228002N07146093WA0142801388003000005000
F151405192803010708141706212230
B1514074227979N07146129WA0142901391003000004000
B1514094227944N07146147WA0143001391003000004000
F1514091928030107081417212230
B1514114227908N07146131WA0143501395003000004000
F15141219280301070814172122
B1514134227892N07146088WA0143801398003015004000
F151413192803010814172122
F15141419280301081417212230
B1514154227904N07146044WA0143901400003018004000
F151415192803011417212230
F1514161928011417212230
B1514174227935N07146027WA0144301403003006004000
F15141719280107141706212230
B1514194227964N07146048WA0145101410003004004000
F1514191928030107141706212230
B1514214227976N07146089WA0145701416003000005000
F151422192803010708141706212230
B1514234227962N07146131WA0145701418003006005000
B1514254227927N07146152WA0146001421003020004000
F1514261928030107081417212230
B1514274227888N07146143WA0146101422003013004000
F15142819280301081417212230
B1514294227858N07146110WA0146801426003004004000
F1514301928030108141706212230
B1514314227847N07146061WA0147301433003006004000
B1514334227861N07146018WA0148001440003004004000
F15143319280301141706212230
F151434192801141706212230
B1514354227889N07146000WA0148101444003000004000
F15143519280107141706212230
B1514374227918N07146015WA0148801448003000004000
F151437192803010708141706212230
B1514394227931N07146056WA0149101450003006005000
B1514414227921N07146102WA0149101452003015004000
B1514434227894N07146138WA0149501456003013004000
B1514454227858N07146156WA0149801459003015004000
F1514461928030107081417212230
B1514474227820N07146153WA0150001461003034004000
B1514494227787N07146126WA0150401464003050004000
B1514514227769N07146083WA0150601468003036004000
F151451192803010708141706212230
F1514521928030108141706212230
B1514534227768N07146035WA0151001471003036004000
F1514531928030107141706212230
B1514554227780N07145991WA0151501478003048004000
B1514574227803N07145957WA0151801482003039004000
F151457192803010708141706212230
B1514594227832N07145937WA0152201486003020004000
B1515014227865N07145933WA0152601491003009004000
B1515034227895N07145954WA0153201495003004005000
B1515054227911N07145992WA0153501499004030006000
B1515074227911N07146035WA0153701500004067006000
B1515094227892N07146074WA0152701495004081006000
B1515114227862N07146104WA0152201488004092006000
B1515134227826N07146123WA0151401480004109006000
F1515141928030107081417212230
B1515154227787N07146135WA0151201475004116005000
B1515174227745N07146143WA0151401475004102005000
B1515194227703N07146148WA0152001480004083005000
B1515214227662N07146147WA0152501486004069005000
F151522192803010708141706212230
B1515234227624N07146134WA0152901490004076005000
B1515254227592N07146106WA0153301493004102005000
B1515274227572N07146065WA0153301496004093005000
B1515294227568N07146019WA0153001496004062005000
B1515314227574N07145973WA0152801495004046006000
B1515334227583N07145926WA0153001495004050006000
B1515354227593N07145878WA0153001496004067006000
B1515374227603N07145830WA0153501499004057006000
B1515394227613N07145781WA0154201505004032006000
B1515414227623N07145733WA0154801511004018006000
B1515434227635N07145688WA0155401516004009006000
B1515454227650N07145647WA0155801522004002006000
B1515474227669N07145611WA0156001523004002006000
B1515494227691N07145578WA0156401526004011006000
B1515514227715N07145548WA0156901531004011006000
B1515534227741N07145524WA0157701536004002006000
B1515554227769N07145506WA0157701541004000006000
B1515574227798N07145488WA0157701542004000006000
B1515594227826N07145470WA0157701541004000006000
B1516014227855N07145454WA0157901541004006006000
B1516034227882N07145438WA0157601542004022005000
B1516054227909N07145425WA0157601540004027005000
B1516074227936N07145413WA0157401539004024005000
B1516094227962N07145397WA0157201536004022005000
B1516114227988N07145376WA0157101533004022005000
B1516134228012N07145354WA0157201534004018005000
B1516154228035N07145330WA0157301535004018005000
B1516174228058N07145305WA0157101536004039005000
B1516194228079N07145276WA0156701531004055005000
B1516214228101N07145246WA0156801529004055005000
B1516234228125N07145218WA0156601528004069005000
B1516254228150N07145194WA0156701528004076005000
B1516274228177N07145174WA0157101531004069005000
B1516294228204N07145156WA0157201534004057005000
B1516314228231N07145141WA0157101534004050005000
B1516334228260N07145130WA0156701531004050005000
B1516354228290N07145125WA0156301528004039005000
B1516374228321N07145121WA0155701523004020005000
B1516394228354N07145117WA0154901516004013005000
B1516414228388N07145114WA0154201509004013005000
B1516434228424N07145111WA0153401502004013005000
B1516454228460N07145109WA0152601494004020005000
B1516474228498N07145108WA0151901486004020005000
B1516494228537N07145112WA0151301479004022005000
B1516514228578N07145120WA0151701478004029005000
B1516534228617N07145126WA0152001481004025005000
B1516554228656N07145132WA0152601487004020005000
B1516574228694N07145136WA0152501490004020005000
B1516594228732N07145139WA0153001492004013005000
B1517014228769N07145143WA0153101495004023005000
B1517034228805N07145147WA0153501497004034005000
B1517054228840N07145152WA0153601500004027005000
B1517074228874N07145157WA0154101503004029005000
B1517094228907N07145162WA0154401506004029005000
B1517114228939N07145167WA0154301505004011005000
B1517134228971N07145173WA0154301504004000005000
B1517154229003N07145178WA0154301505004018005000
B1517174229035N07145183WA0154301506004032005000
B1517194229067N07145189WA0154401506004020005000
B1517214229098N07145196WA0154401506004015005000
B1517234229130N07145203WA0153801504004020005000
B1517254229163N07145210WA0153401499004046005000
B1517274229198N07145219WA0154001500004055005000
B1517294229233N07145229WA0154601506004032005000
B1517314229267N07145238WA0155001511004027005000
B1517334229301N07145246WA0155801518004034005000
B1517354229335N07145242WA0156401523004032005000
B1517374229369N07145230WA0156801527004018005000
B1517394229400N07145212WA0157201530004006005000
B1517414229425N07145180WA0157901537004004005000
B1517434229437N07145136WA0158401543004002005000
B1517454229436N07145089WA0158601544004000005000
B1517474229419N07145045WA0158801545004000006000
B1517494229389N07145016WA0159101549004000005000
B1517514229353N07145000WA0159101549004000005000
B1517534229315N07144999WA0159401552004000005000
B1517554229278N07145009WA0159901556004000005000
B1517574229246N07145032WA0160401560004006005000
B1517594229227N07145070WA0161101567004025005000
B1518014229227N07145111WA0161801574004020005000
B1518034229248N07145135WA0162601582004002006000
B1518054229276N07145127WA0163101588004000006000
B1518074229296N07145092WA0163401592004009006000
B1518094229299N07145045WA0163301593004011006000
B1518114229287N07144998WA0163301592004013006000
B1518134229261N07144960WA0163401591004013006000
B1518154229227N07144938WA0163901594004004006000
B1518174229190N07144938WA0164401599004000006000
B1518194229158N07144957WA0164601602004000006000
B1518214229138N07144991WA0164901604004004006000
B1518234229132N07145032WA0165201607004020006000
B1518254229140N07145069WA0165401609004039006000
B1518274229160N07145093WA0165601612004053006000
B1518294229187N07145098WA0166101617004039006000
B1518314229215N07145082WA0166301620004018006000
B1518334229235N07145044WA0166401621004006006000
B1518354229242N07144994WA0166601624004000006000
B1518374229232N07144944WA0166801626004000006000
B1518394229206N07144906WA0166801626004006006000
B1518414229169N07144893WA0167301627004011006000
B1518434229133N07144906WA0167301630004006006000
B1518454229109N07144940WA0167501630004015006000
B1518474229102N07144984WA0167701633004020006000
B1518494229115N07145020WA0168201636004027006000
B1518514229142N07145035WA0168701641004053006000
B1518534229172N07145027WA0168901645004055006000
B1518554229198N07144999WA0169201649004032006000
B1518574229215N07144957WA0169001649004013006000
B1518594229221N07144909WA0169001648004025006000
B1519014229214N07144859WA0169101648004039006000
B1519034229195N07144813WA0169401649004032006000
B1519054229168N07144776WA0170201654004022006000
B1519074229135N07144749WA0170701661004015006000
B1519094229100N07144735WA0171201666004011006000
B1519114229064N07144739WA0171501671004009006000
B1519134229034N07144762WA0171501672004016006000
B1519154229015N07144797WA0171501671004025006000
B1519174229010N07144838WA0171301671004034006000
B1519194229018N07144877WA0171701673004057006000
B1519214229034N07144907WA0171801676004067006000
B1519234229057N07144929WA0172001678004062006000
B1519254229084N07144942WA0172201682004059006000
B1519274229114N07144948WA0172201683004048006000
B1519294229144N07144951WA0172201684004027006000
B1519314229175N07144953WA0171801682004029006000
B1519334229206N07144953WA0171401678004064006000
B1519354229238N07144952WA0170601672004095006000
B1519374229272N07144951WA0169301661004118006000
B1519394229308N07144954WA0167901647004135006000
B1519414229345N07144960WA0167701639004130006000
B1519434229384N07144961WA0167601637004100006000
B1519454229422N07144959WA0167801638004069006000
B1519474229459N07144953WA0168101642004055006000
B1519494229495N07144945WA0168301645004036006000
B1519514229530N07144936WA0168701647004022006000
B1519534229564N07144925WA0168601650004022006000
B1519554229597N07144914WA0168301648004020006000
B1519574229630N07144902WA0167701643004011006000
B1519594229663N07144890WA0167301638004011006000
B1520014229698N07144880WA0167201635004027006000
B1520034229732N07144868WA0166901634004034006000
B1520054229767N07144855WA0166801632004025006000
B1520074229802N07144843WA0166201629004029006000
B1520094229837N07144831WA0165601623004053006000
B1520114229873N07144819WA0164801616004057006000
B1520134229910N07144809WA0164401610004048006000
B1520154229949N07144804WA0164101607004041006000
B1520174229988N07144801WA0163501603004027006000
B1520194230027N07144801WA0163701600004013006000
B1520214230067N07144802WA0164601606004011006000
B1520234230103N07144804WA0166601620004006006000
B1520254230135N07144807WA0167501636004006006000
B1520274230165N07144811WA0168201643004015006000
B1520294230193N07144817WA0168701649004013006000
B1520314230220N07144825WA0168201649004016006000
B1520334230247N07144833WA0167201641004060006000
B1520354230278N07144842WA0166501632004128006000
B1520374230311N07144850WA0166401627004163006000
B1520394230345N07144860WA0166401627004139006000
B1520414230381N07144870WA0166401628004090006000
B1520434230416N07144881WA0166601630004060006000
B1520454230452N07144894WA0167001631004041006000
B1520474230487N07144908WA0168101641004029006000
B1520494230521N07144921WA0168901651004022006000
B1520514230554N07144934WA0169501657004018006000
B1520534230585N07144947WA0169501660004032006000
B1520554230617N07144961WA0168801656004046006000
B1520574230649N07144976WA0167901648004053006000
B1520594230681N07144992WA0168101645004058006000
B1521014230713N07145007WA0168301647004043006000
B1521034230744N07145020WA0168501649004025006000
B1521054230775N07145031WA0168101647004032006000
B1521074230807N07145041WA0167701644004095006000
B1521094230839N07145048WA0166401635004169006000
B1521114230872N07145056WA0165001621004211006000
B1521134230908N07145064WA0164201610004209006000
B1521154230946N07145073WA0163301603004165006000
B1521174230985N07145082WA0162501594004116006000
B1521194231025N07145091WA0161901587004076006000
F152120192803010708141706442122
B1521214231067N07145100WA0161501582004050006000
B1521234231110N07145108WA0161601581004029006000
B1521254231151N07145116WA0161901583004029006000
B1521274231192N07145122WA0162101585004032006000
B1521294231233N07145127WA0162101587004013006000
B1521314231273N07145133WA0162001585004002006000
B1521334231314N07145137WA0161601583004009006000
B1521354231356N07145142WA0160801578004030006000
B1521374231398N07145146WA0160201571004034006000
B1521394231440N07145150WA0159801565004020006000
B1521414231483N07145155WA0160301566004015006000
B1521434231523N07145161WA0161301574004027005000
B1521454231560N07145168WA0162601585004034005000
B1521474231593N07145179WA0163301594004032005000
B1521494231623N07145195WA0163201598004022005000
B1521514231652N07145212WA0162701595004006005000
B1521534231683N07145226WA0162301591004006005000
B1521554231716N07145238WA0162101588004013005000
B1521574231749N07145248WA0161701585004006005000
B1521594231784N07145257WA0161301580004000005000
B1522014231820N07145266WA0161101577004000005000
B1522034231856N07145275WA0161101576004013005000
B1522054231893N07145283WA0160901575004022005000
B1522074231930N07145290WA0160801574004020005000
B1522094231967N07145296WA0160901573004018005000
B1522114232004N07145303WA0160701574004006005000
B1522134232042N07145307WA0160901573004000005000
B1522154232080N07145309WA0160601572004000005000
B1522174232118N07145310WA0160401570004002005000
B1522194232156N07145311WA0160201567004004005000
B1522214232195N07145313WA0159801564004011005000
B1522234232234N07145314WA0159401560004041005000
B1522254232274N07145315WA0159001557004064005000
B1522274232313N07145314WA0158701553004053005000
B1522294232353N07145314WA0158301549004036005000
B1522314232394N07145314WA0157601544004020005000
B1522334232434N07145313WA0157001537004004005000
B1522354232476N07145313WA0157001534004009005000
B1522374232516N07145312WA0157201535004013005000
B1522394232556N07145312WA0157301536004011005000
B1522414232594N07145313WA0157501539004022005000
B1522434232632N07145315WA0157301539004025005000
B1522454232668N07145316WA0157301537004020005000
B1522474232704N07145318WA0156801534004039005000
B1522494232740N07145319WA0156201529004057005000
B1522514232776N07145319WA0155301521004076005000
B1522534232813N07145319WA0154601513004102005000
B1522554232851N07145318WA0153701505004112005000
B1522574232890N07145316WA0152701494004109005000
B1522594232931N07145314WA0152001487004088005000
B1523014232973N07145311WA0151201479004055005000
B1523034233015N07145308WA0150801474004034005000
B1523054233057N07145305WA0151001472004027005000
B1523074233098N07145302WA0150601472004020005000
B1523094233139N07145299WA0150201469004009005000
B1523114233179N07145297WA0150201467004006005000
B1523134233219N07145297WA0151401472004011005000
B1523154233256N07145297WA0151801480004013005000
B1523174233291N07145297WA0152101483004013005000
B1523194233324N07145297WA0151901483004006005000
B1523214233357N07145296WA0152201483004007005000
B1523234233389N07145294WA0152701486004060005000
B1523254233421N07145290WA0152601489004118005000
B1523274233453N07145284WA0152401487004104005000
B1523294233486N07145275WA0152401486004065005000
B1523314233518N07145266WA0152501487004039005000
B1523334233550N07145256WA0152601488004027005000
B1523354233581N07145246WA0152401487004027005000
B1523374233612N07145239WA0152301486004032005000
B1523394233642N07145233WA0152801488004025005000
B1523414233672N07145227WA0153001492004029005000
B1523434233701N07145222WA0152901492004057005000
B1523454233731N07145220WA0152701491004067005000
B1523474233762N07145220WA0152701490004050005000
B1523494233793N07145221WA0152901490004046005000
B1523514233824N07145225WA0152701489004039005000
B1523534233853N07145237WA0152401487004062005000
B1523554233880N07145258WA0151801482004137005000
B1523574233905N07145284WA0151001476004193005000
B1523594233929N07145313WA0150201469004223005000
B1524014233954N07145343WA0149301460004214005000
B1524034233979N07145376WA0148401452004181005000
B1524054234003N07145413WA0147301442004153005000
B1524074234028N07145453WA0146301431004135005000
B1524094234053N07145494WA0145701424004121005000
B1524114234077N07145538WA0145001418004086005000
B1524134234098N07145585WA0144401412004046005000
B1524154234120N07145633WA0143801407004022005000
B1524174234141N07145682WA0143401402004009005000
B1524194234163N07145730WA0142701396004002005000
B1524214234186N07145777WA0142001390004000005000
B1524234234210N07145822WA0141801384004000005000
B1524254234235N07145866WA0141501382004000005000
B1524274234260N07145908WA0140901378004000005000
B1524294234285N07145950WA0140401372004000005000
B1524314234311N07145991WA0139801367004006005000
B1524334234335N07146034WA0139001359004004005000
B1524354234354N07146082WA0138501353004000005000
B1524374234368N07146133WA0138001348004000005000
B1524394234382N07146185WA0137201341004000005000
B1524414234403N07146232WA0136301332004002005000
B1524434234431N07146274WA0135901325004011005000
B1524454234461N07146312WA0136101325004015005000
B1524474234492N07146346WA0136601329004011005000
B1524494234524N07146376WA0138101338004018005000
B1524514234554N07146402WA0138801349004027005000
B1524534234581N07146426WA0139501357004032005000
B1524554234608N07146449WA0140101363004029005000
B1524574234633N07146472WA0140701368004029005000
B1524594234657N07146493WA0141301375004050005000
B1525014234678N07146516WA0141601378004051005000
B1525034234693N07146547WA0142301383004032005000
B1525054234699N07146585WA0142701388004024005000
B1525074234701N07146624WA0142901389004013005000
B1525094234702N07146663WA0142701390004002005000
B1525114234707N07146702WA0142701389004002005000
B1525134234714N07146740WA0143001391004004005000
B1525154234721N07146778WA0143301394004002005000
B1525174234724N07146818WA0143401396004016005000
B1525194234720N07146860WA0143501397004034005000
B1525214234712N07146902WA0143701398004034005000
B1525234234701N07146944WA0143701399004041005000
B1525254234691N07146985WA0143701398004048005000
B1525274234684N07147027WA0143201396004048005000
B1525294234681N07147069WA0142801391004083005000
B1525314234683N07147111WA0142401387004149005000
B1525334234687N07147154WA0141801382004193005000
B1525354234693N07147198WA0141101375004219005000
B1525374234703N07147241WA0140501370004226005000
B1525394234721N07147279WA0140401365004186005000
B1525414234746N07147308WA0139501362004120005000
B1525434234775N07147330WA0139001355004102005000
B1525454234805N07147352WA0138401349003128004000
F152545192803010708141706442421
B1525474234836N07147374WA0138201345003126004000
B1525494234866N07147395WA0138101345003095004000
B1525514234896N07147415WA0137901344003060004000
B1525534234925N07147434WA0137801341003039004000
B1525554234954N07147454WA0137501339003034004000
B1525574234984N07147474WA0136301332003039004000
B1525594235016N07147493WA0134901319003067004000
B1526014235049N07147513WA0134301308003095004000
B1526034235083N07147533WA0133701303003090004000
B1526054235117N07147554WA0133401300003060004000
B1526074235152N07147576WA0133201298003034004000
B1526094235186N07147599WA0133301295003018004000
B1526114235220N07147622WA0133201296003011004000
B1526134235252N07147645WA0133201296003027004000
B1526154235285N07147666WA0133901300003036004000
B1526174235317N07147684WA0134501306003043004000
B1526194235348N07147701WA0135001310003053004000
F152620192803010714170644242122
B1526214235377N07147717WA0135401314003046004000
F152621192803010714170624212230
B1526234235406N07147733WA0135001316003043004000
B1526254235433N07147750WA0134501311003034004000
B1526274235461N07147767WA0133501303003060004000
B1526294235490N07147785WA0132501293003102004000
B1526314235521N07147801WA0131601282003100004000
B1526334235554N07147815WA0130801273003083004000
B1526354235589N07147831WA0130001265003078004000
B1526374235625N07147848WA0129701261003074004000
B1526394235660N07147865WA0129501259003048004000
B1526414235695N07147882WA0129201258003027004000
B1526434235730N07147900WA0129101255003011004000
B1526454235764N07147918WA0128901254003000004000
B1526474235798N07147937WA0128701252003000004000
B1526494235831N07147957WA0128101248003000004000
B1526514235864N07147979WA0128101245003000004000
B1526534235898N07148002WA0127701243003000004000
B1526554235931N07148024WA0127901242003002004000
B1526574235964N07148046WA0127601242003013004000
F152657192803010714170644242122
B1526594235997N07148068WA0127901242003015004000
B1527014236030N07148090WA0128301245003015004000
B1527034236061N07148111WA0128601248003027004000
B1527054236092N07148129WA0129001253003027004000
B1527074236123N07148144WA0128701253003013004000
B1527094236154N07148158WA0128401249003009004000
B1527114236186N07148169WA0127801245003011004000
B1527134236218N07148179WA0127201240003006004000
B1527154236250N07148189WA0126701234003009004000
B1527174236282N07148199WA0126501230003027004000
B1527194236314N07148210WA0125401222003050004000
B1527214236347N07148224WA0124501213003050004000
B1527234236380N07148245WA0124701209003036004000
B1527254236412N07148266WA0125601215003039004000
B1527274236443N07148284WA0126501225003050004000
B1527294236472N07148298WA0126901231003048004000
B1527314236503N07148305WA0127501235003039004000
B1527334236534N07148300WA0128201241003034004000
B1527354236563N07148285WA0127701244003032004000
B1527374236594N07148270WA0128201245003022004000
B1527394236625N07148257WA0128801250003025004000
B1527414236656N07148247WA0129501256003034004000
B1527434236686N07148240WA0130101263003027004000
B1527454236715N07148235WA0130601269003015004000
B1527474236743N07148227WA0130601271003004004000
B1527494236765N07148203WA0131101272003021004000
B1527514236774N07148162WA0131101273003074004000
B1527534236764N07148116WA0130901270003130004000
B1527554236740N07148077WA0130601266003167004000
B1527574236705N07148052WA0130401263003179004000
B1527594236667N07148049WA0130001261003191004000
B1528014236630N07148064WA0129401255003219004000
F152801192803011417064424212230
B1528034236600N07148095WA0128901249003235004000
B1528054236583N07148137WA0128601246003214004000
B1528074236576N07148183WA0128401245003170004000
B1528094236572N07148231WA0128901246003121004000
B1528114236568N07148279WA0129301250003088004000
B1528134236564N07148326WA0129001253003118004000
B1528154236562N07148373WA0128801251003134004000
B1528174236565N07148420WA0129201253003097004000
B1528194236571N07148465WA0129401257003072004000
B1528214236579N07148507WA0129901260003074004000
B1528234236591N07148546WA0130001262003097004000
B1528254236607N07148580WA0129201258003123004000
B1528274236627N07148608WA0129201254003130004000
B1528294236650N07148633WA0128301249003139004000
B1528314236674N07148658WA0127801243003149004000
B1528334236700N07148682WA0127801241003146004000
B1528354236726N07148704WA0127801241003146004000
B1528374236752N07148725WA0127701240003165004000
B1528394236778N07148744WA0127001237003188004000
B1528414236805N07148761WA0125701227003181004000
B1528434236835N07148779WA0124601214003174004000
B1528454236868N07148797WA0123601203003163004000
B1528474236903N07148817WA0123501196003121004000
B1528494236938N07148837WA0123501197003074004000
B1528514236973N07148858WA0123501197003046004000
B1528534237006N07148877WA0123401198003037004000
B1528554237040N07148894WA0122701193003037004000
B1528574237074N07148912WA0121701184003037004000
B1528594237110N07148930WA0120801173003051004000
B1529014237145N07148954WA0119801164003046004000
B1529034237180N07148983WA0119301156003018004000
B1529054237215N07149016WA0119701155003004004000
B1529074237249N07149051WA0120801165003000004000
B1529094237281N07149086WA0121701177003004004000
B1529114237314N07149110WA0123201185003006004000
B1529134237348N07149099WA0125001198003009004000
B1529154237358N07149050WA0126201212003013004000
B1529174237339N07149006WA0126601216003013004000
B1529194237303N07148989WA0126701217004053004000
B1529214237266N07148995WA0126401215003116004000
B1529234237237N07149022WA0126301214003146004000
B1529254237224N07149059WA0126801217003169004000
B1529274237225N07149098WA0126501220003193004000
B1529294237236N07149133WA0126201219003207004000
B1529314237257N07149160WA0126301220003179004000
B1529334237280N07149183WA0126501219003130004000
B1529354237303N07149204WA0126501221003135004000
B1529374237325N07149227WA0126501221003162004000
B1529394237345N07149252WA0126001220003179004000
B1529414237365N07149279WA0126201220003163004000
B1529434237385N07149306WA0126301221003107004000
B1529454237404N07149334WA0126301221003062004000
B1529474237425N07149359WA0126401223003043004000
B1529494237446N07149383WA0126501225003037004000
B1529514237467N07149406WA0126401226003046004000
B1529534237488N07149429WA0126301224003076004000
B1529554237509N07149454WA0126601224003085004000
B1529574237530N07149479WA0127301230003067004000
F1529581928030114170644212230
B1529594237549N07149506WA0128001237003046004000
B1530014237570N07149529WA0128001240003029004000
F153001192803011417064424212230
B1530034237596N07149539WA0128701244003024004000
B1530054237624N07149531WA0129301251003029004000
B1530074237650N07149508WA0129501255003036004000
B1530094237677N07149484WA0129801258003029004000
B1530114237706N07149466WA0130301262003018004000
B1530134237735N07149466WA0131401272003011004000
B1530154237749N07149493WA0132001282003009004000
B1530174237738N07149528WA0132501286003009004000
F1530171928030114170644212230
B1530194237707N07149543WA0132701289003018004000
F15301919280301141706212230
B1530214237674N07149526WA0133101291003039004000
F1530221928030114170624212230
B1530234237653N07149485WA0133401294003041004000
B1530254237651N07149437WA0133501297003025004000
B1530274237665N07149396WA0133701298003013004000
B1530294237691N07149378WA0134301302003004004000
B1530314237717N07149391WA0134201305003006004000
B1530334237727N07149428WA0134601308003006004000
F15303419280301141706212230
B1530354237710N07149467WA0135301313003000004000
B1530374237675N07149477WA0135901319003000004000
B1530394237640N07149453WA0136401323003000004000
F1530391928030114170624212230
F15304019280301141706242122
B1530414237628N07149406WA0136401326003006004000
F1530421928030114170624212230
B1530434237644N07149365WA0136601328003022004000
B1530454237675N07149353WA0137101334003025004000
B1530474237699N07149374WA0137801341003015004000
F15304719280301141706242230
B1530494237699N07149414WA0138301346003011004000
F1530491928030114170624212230
F15305019280301141706212230
B1530514237674N07149441WA0139001351003016004000
F153052192803011417212230
B1530534237637N07149440WA0139501355003030004000
B1530554237607N07149409WA0140001359003029004000
F15305519280301141724212230
F1530561928030114170624212230
B1530574237595N07149362WA0140501366003015004000
F15305819280301141706242122
B1530594237603N07149318WA0140801371003013004000
F1530591928030114170624212230
B1531014237628N07149294WA0141001372003015004000
B1531034237656N07149297WA0141401376003009004000
B1531054237675N07149323WA0141601380003002004000
B1531074237674N07149363WA0141901381003004004000
F15310819280301141706212230
B1531094237650N07149397WA0141901380003016004000
B1531114237613N07149409WA0142001381003030004000
B1531134237573N07149399WA0142501383003060004000
F1531141928030114170624212230
B1531154237542N07149364WA0143001388003069004000
B1531174237524N07149314WA0143601394003043004000
B1531194237522N07149263WA0143801399003022004000
B1531214237539N07149223WA0144401403003011004000
B1531234237568N07149204WA0144301405003006004000
B1531254237597N07149207WA0144401407003006004000
B1531274237620N07149230WA0144901410003018004000
B1531294237628N07149268WA0145501416003034004000
B1531314237620N07149309WA0146201422003036004000
F15313219280301141706212230
B1531334237598N07149342WA0146701427003020004000
B1531354237565N07149358WA0146801431003023004000
B1531374237529N07149349WA0146501430003081004000
F153137192803011417212230
F15313819280301141724212230
B1531394237502N07149312WA0146301427003121004000
B1531414237491N07149260WA0146801430003088004000
F1531421928030114170624212230
B1531434237497N07149209WA0147101434003050004000
B1531454237516N07149166WA0147401438003072004000
B1531474237541N07149134WA0147401440003093004000
B1531494237571N07149116WA0147801442003074004000
B1531514237601N07149113WA0148501448003055004000
B1531534237629N07149121WA0148201451003043004000
B1531554237656N07149134WA0147601446003067004000
B1531574237683N07149152WA0147001440003118004000
B1531594237710N07149169WA0146201432003139004000
B1532014237741N07149187WA0145601424003135004000
B1532034237773N07149205WA0145201420003121004000
F153204192803011417064424212230
B1532054237806N07149223WA0145301418003100004000
B1532074237839N07149238WA0145301419003086004000
B1532094237872N07149250WA0145001418003062004000
B1532114237906N07149258WA0144101410003050004000
B1532134237941N07149266WA0143401401003069004000
B1532154237978N07149271WA0143001397003090004000
B1532174238016N07149275WA0142901396003076004000
B1532194238055N07149277WA0142401393003053004000
B1532214238094N07149279WA0142101389003060004000
B1532234238133N07149281WA0142601390003064004000
B1532254238171N07149282WA0143501397003048004000
B1532274238206N07149284WA0143901403003034004000
B1532294238241N07149286WA0144601409003034004000
B1532314238274N07149288WA0145101416003034004000
B1532334238305N07149290WA0145801422003034004000
B1532354238336N07149292WA0146401428003036004000
B1532374238366N07149295WA0147001434003034004000
B1532394238396N07149297WA0147201438003025004000
B1532414238427N07149299WA0147601441003015004000
B1532434238457N07149303WA0148401447003013004000
B1532454238486N07149307WA0148601453003025004000
B1532474238515N07149310WA0148501453003034004000
B1532494238545N07149310WA0148501453003025004000
B1532514238576N07149307WA0148501453003013004000
B1532534238607N07149302WA0148801455003004004000
B1532554238639N07149293WA0149301459003002004000
B1532574238670N07149282WA0149401461003002004000
B1532594238700N07149270WA0149601463003000004000
B1533014238730N07149255WA0149801465003000004000
B1533034238760N07149240WA0150001468003006004000
B1533054238789N07149223WA0150001469003020004000
B1533074238819N07149206WA0149801467003022004000
B1533094238848N07149190WA0149601465003011004000
B1533114238878N07149175WA0149101460003034004000
B1533134238910N07149160WA0148601457003076004000
B1533154238943N07149144WA0148501454003069004000
B1533174238977N07149129WA0147701449003036004000
B1533194239011N07149112WA0146801441003015004000
B1533214239047N07149095WA0146001432003013004000
B1533234239083N07149078WA0146001428003022004000
B1533254239120N07149061WA0146801432003024004000
B1533274239155N07149044WA0147501440003018004000
B1533294239188N07149025WA0147401442003009004000
B1533314239221N07149007WA0148101445003004004000
B1533334239252N07148990WA0149301456003004004000
B1533354239281N07148974WA0150001466003004004000
B1533374239310N07148958WA0150401471003004004000
B1533394239339N07148941WA0150701473003013004000
B1533414239368N07148929WA0150901475003022004000
B1533434239398N07148924WA0151101478003025004000
B1533454239429N07148921WA0151601480003020004000
B1533474239459N07148921WA0152101485003011004000
B1533494239490N07148916WA0152501489003009004000
B1533514239519N07148897WA0153501497003011004000
B1533534239543N07148864WA0153701503003009004000
B1533554239559N07148818WA0154901508003004004000
B1533574239560N07148764WA0155701518003000004000
B1533594239548N07148711WA0156701527003000004000
B1534014239522N07148667WA0157901536003000004000
B1534034239485N07148642WA0158601545003000004000
B1534054239446N07148643WA0159101551003000004000
B1534074239416N07148667WA0159301554003000004000
B1534094239405N07148704WA0159601557003000004000
B1534114239412N07148737WA0159901560003011004000
B1534134239432N07148753WA0160501564003034004000
B1534154239456N07148747WA0161101570003034004000
B1534174239473N07148715WA0161801576003013004000
B1534194239474N07148669WA0162101581003002004000
B1534214239455N07148625WA0162101582003000004000
B1534234239419N07148598WA0162301582003000004000
B1534254239378N07148598WA0162401584003000004000
B1534274239345N07148624WA0162801585003000004000
B1534294239328N07148665WA0162601586003002004000
B1534314239327N07148708WA0162901588003032004000
B1534334239338N07148745WA0163201591003041004000
B1534354239358N07148770WA0163901596003022004000
B1534374239386N07148778WA0164801604003015004000
B1534394239413N07148767WA0165401612003011004000
B1534414239437N07148742WA0165701616003023004000
B1534434239454N07148702WA0166001619003055004000
B1534454239459N07148654WA0166301621003092004000
B1534474239448N07148603WA0166401623003134004000
B1534494239422N07148561WA0166401622003132004000
B1534514239384N07148538WA0166501622003088004000
B1534534239342N07148533WA0166601625003053004000
B1534554239303N07148547WA0166901627003034004000
B1534574239271N07148576WA0167401631003020004000
B1534594239252N07148614WA0167901636003015004000
B1535014239247N07148655WA0168401641003015004000
B1535034239258N07148687WA0169101647003013004000
B1535054239281N07148693WA0169801655003009004000
B1535074239300N07148668WA0169801660003018004000
B1535094239304N07148624WA0169901659003046004000
B1535114239286N07148577WA0170301660003043004000
B1535134239252N07148546WA0170701664003018004000
B1535154239212N07148547WA0171101668003004004000
B1535174239183N07148575WA0171501671003000004000
B1535194239178N07148614WA0172001676003000004000
B1535214239193N07148638WA0172401682003011004000
F1535211928030114170644212230
F153522192803011417064424212230
B1535234239217N07148636WA0173001687003025004000
B1535254239235N07148607WA0173401692003013004000
B1535274239236N07148561WA0173601695003004004000
B1535294239216N07148515WA0174101698003000004000
B1535314239181N07148489WA0174501702003000004000
B1535334239143N07148492WA0174801705003000004000
B1535354239117N07148520WA0175401710003002004000
B1535374239111N07148557WA0175501714003013004000
B1535394239124N07148584WA0175901716003016004000
F1535391928030114170644212230
F153540192803011417064424212230
B1535414239147N07148591WA0176301720003002004000
B1535434239171N07148572WA0176301723003002004000
B1535454239185N07148531WA0176101723003016004000
B1535474239183N07148480WA0176301723003055004000
B1535494239164N07148430WA0176801725003076004000
B1535514239132N07148393WA0177301729003053004000
B1535534239092N07148376WA0177401732003027004000
B1535554239052N07148385WA0177501731003009004000
B1535574239022N07148417WA0177701734003002004000
B1535594239010N07148460WA0177901737003023004000
B1536014239019N07148497WA0178401740003043004000
B1536034239044N07148512WA0178801745003032004000
B1536054239071N07148498WA0179201749003015004000
B1536074239090N07148460WA0179101750003048004000
B1536094239098N07148409WA0179201748003097004000
B1536114239089N07148353WA0179501750003085004000
B1536134239065N07148304WA0179801754003050004000
B1536154239029N07148270WA0180001756003034004000
B1536174238987N07148253WA0180401759003025004000
B1536194238945N07148259WA0180701763003015004000
B1536214238911N07148285WA0181001767003013004000
B1536234238891N07148325WA0181301769003013004000
B1536254238890N07148368WA0181201771003025004000
B1536274238902N07148405WA0181101771003036004000
B1536294238921N07148439WA0180801769003029004000
B1536314238945N07148469WA0180701769003013004000
B1536334238972N07148494WA0180801771003006004000
B1536354239002N07148513WA0181401773003006004000
B1536374239031N07148527WA0183401786003013004000
B1536394239056N07148538WA0184301801003030004000
B1536414239080N07148547WA0184901808003055004000
B1536434239102N07148557WA0185201813003078004000
B1536454239124N07148565WA0184701813003081004000
B1536474239147N07148572WA0184001807003095004000
B1536494239173N07148576WA0183301800003113004000
B1536514239201N07148578WA0182501791003106004000
B1536534239231N07148580WA0181601783003104004000
B1536554239263N07148583WA0181001776003107004000
B1536574239296N07148585WA0180301770003121004000
B1536594239330N07148586WA0179501764003147004000
B1537014239365N07148585WA0179001757003144004000
B1537034239400N07148579WA0178701754003121004000
B1537054239436N07148567WA0178301751003085004000
B1537074239471N07148551WA0177901747003050004000
B1537094239506N07148530WA0177801744003025004000
B1537114239540N07148507WA0178201746003018004000
B1537134239573N07148482WA0177701746003013004000
B1537154239606N07148457WA0177001740003004004000
B1537174239640N07148430WA0176601734003006004000
B1537194239674N07148403WA0175801728003009004000
B1537214239710N07148377WA0175001722003011004000
B1537234239746N07148352WA0174701716003027004000
B1537254239784N07148328WA0174101711003050004000
B1537274239822N07148306WA0173301705003062004000
B1537294239861N07148285WA0172301695003067004000
B1537314239902N07148263WA0171701686003053004000
B1537334239945N07148245WA0171401683003037004000
B1537354239987N07148238WA0171301682003027004000
B1537374240028N07148242WA0170901679003013004000
B1537394240068N07148255WA0170301675003004004000
B1537414240106N07148273WA0169901670003000004000
B1537434240144N07148293WA0169801668003000004000
B1537454240182N07148314WA0170401668003006004000
B1537474240218N07148334WA0171801680003013004000
B1537494240251N07148352WA0172001688003011004000
B1537514240284N07148368WA0172601692003006004000
B1537534240316N07148383WA0172501698003009004000
B1537554240347N07148397WA0173301704003015004000
B1537574240376N07148411WA0173301708003015004000
B1537594240405N07148423WA0172701704003013004000
B1538014240435N07148434WA0172901698003048004000
B1538034240467N07148444WA0172601695003095004000
B1538054240499N07148454WA0173301695003088004000
B1538074240531N07148466WA0173801702003064004000
B1538094240560N07148479WA0174101707003048004000
B1538114240589N07148493WA0174101710003039004000
B1538134240617N07148508WA0174001709003043004000
B1538154240645N07148521WA0174001707003041004000
B1538174240676N07148527WA0173401704003044004000
B1538194240710N07148528WA0172901699003036004000
B1538214240746N07148527WA0172201692003015004000
B1538234240782N07148527WA0171601685003011004000
B1538254240820N07148530WA0171101681003011004000
B1538274240859N07148535WA0170301675003004004000
B1538294240898N07148542WA0169601667003000004000
B1538314240937N07148554WA0169001661003000004000
B1538334240976N07148571WA0168601657003000004000
B1538354241015N07148590WA0168101652003011004000
B1538374241054N07148610WA0167801648003020004000
B1538394241093N07148630WA0167201643003004004000
B1538414241132N07148652WA0166601637003000004000
B1538434241171N07148675WA0165901630003000004000
B1538454241211N07148696WA0165801626003000004000
B1538474241250N07148717WA0165801627003004004000
B1538494241289N07148737WA0165401625003000004000
B1538514241327N07148759WA0164901620003000004000
B1538534241365N07148781WA0164301614003000004000
B1538554241403N07148805WA0164201610003016004000
B1538574241440N07148830WA0164401612003043004000
B1538594241476N07148855WA0164501613003048004000
B1539014241510N07148882WA0164301612003039004000
B1539034241543N07148908WA0164201610003027004000
B1539054241576N07148935WA0165301615003022004000
B1539074241606N07148959WA0165201620003020004000
B1539094241636N07148984WA0165101619003029004000
B1539114241665N07149009WA0164601615003036004000
B1539134241693N07149035WA0164501613003027004000
B1539154241722N07149059WA0163801607003036004000
B1539174241752N07149082WA0163601603003041004000
B1539194241782N07149105WA0163501601003020004000
B1539214241812N07149127WA0163101598003020004000
B1539234241842N07149148WA0162301592003034004000
B1539254241873N07149171WA0161601585003032004000
B1539274241904N07149194WA0160501575003043004000
B1539294241937N07149218WA0159801567003043004000
B1539314241970N07149243WA0159101560003020004000
B1539334242003N07149269WA0158501553003011004000
B1539354242036N07149294WA0157801547003004004000
B1539374242069N07149321WA0156501537003000004000
B1539394242103N07149348WA0155301524003002004000
B1539414242139N07149376WA0154301513003002004000
B1539434242175N07149402WA0153301502003000004000
B1539454242212N07149430WA0152601494003000004000
B1539474242249N07149459WA0151301485003000004000
B1539494242289N07149485WA0150301473003000004000
B1539514242331N07149506WA0149501463003000004000
B1539534242375N07149522WA0149801461003000004000
B1539554242417N07149536WA0150101464003006004000
B1539574242458N07149549WA0150101467003006004000
B1539594242499N07149561WA0151001471003013004000
B1540014242536N07149571WA0151901482003032004000
B1540034242572N07149580WA0152101488003032004000
B1540054242607N07149590WA0151701486003018004000
B1540074242641N07149604WA0151401484003032004000
B1540094242675N07149621WA0151001479003038004000
B1540114242710N07149639WA0150401474003036004000
B1540134242746N07149658WA0149601469003036004000
B1540154242782N07149678WA0149601464003024004000
B1540174242817N07149700WA0150001466003029004000
B1540194242852N07149721WA0150101469003037004000
B1540214242885N07149743WA0149601466003029004000
B1540234242919N07149764WA0148901461003015004000
B1540254242953N07149784WA0147701451003013004000
B1540274242988N07149806WA0147301442003011004000
B1540294243024N07149828WA0146801438003002004000
B1540314243060N07149851WA0146101432003000004000
B1540334243095N07149874WA0145801428003000004000
B1540354243131N07149895WA0145901426003009004000
B1540374243167N07149914WA0145801426003013004000
B1540394243203N07149932WA0145701424003004004000
B1540414243239N07149950WA0145601424003000004000
B1540434243275N07149969WA0145701425003000004000
B1540454243311N07149988WA0145901426003013004000
B1540474243346N07150009WA0146201428003027004000
B1540494243380N07150034WA0146901434003036004000
B1540514243412N07150061WA0147201439003039004000
B1540534243444N07150091WA0147601440003032004000
B1540554243475N07150122WA0148001445003029004000
B1540574243505N07150154WA0147801446003032004000
B1540594243537N07150184WA0147801446003029004000
B1541014243572N07150209WA0147801446003020004000
B1541034243608N07150230WA0148201447003011004000
B1541054243646N07150246WA0148201450003009004000
B1541074243684N07150261WA0148601452003013004000
B1541094243721N07150275WA0148901455003020004000
F154110192803014614170644242122
B1541114243757N07150286WA0148901456003020004000
B1541134243794N07150294WA0148601455003043004000
B1541154243830N07150301WA0148501454003067004000
B1541174243866N07150307WA0148801454003048004000
B1541194243902N07150312WA0148801456003022004000
B1541214243937N07150315WA0148601455003006004000
B1541234243972N07150319WA0148801453003000004000
B1541254244007N07150323WA0148601454003000004000
B1541274244042N07150327WA0148901455003000004000
B1541294244077N07150333WA0149401459003006004000
B1541314244110N07150338WA0150101464003018004000
B1541334244143N07150344WA0151201472003020004000
B1541354244175N07150348WA0151101478003006004000
B1541374244205N07150326WA0152701485003002004000
B1541394244214N07150278WA0153701495003020004000
B1541414244199N07150229WA0154101500003062004000
B1541434244168N07150197WA0154001503003086004000
B1541454244130N07150186WA0153701500003076004000
B1541474244093N07150198WA0153701498003057004000
B1541494244063N07150227WA0153901499003034004000
B1541514244045N07150264WA0154501503003018004000
B1541534244041N07150304WA0154701508003027004000
B1541554244055N07150336WA0154801510003048004000
B1541574244076N07150360WA0155001512003043004000
B1541594244102N07150378WA0155701517003022004000
B1542014244132N07150377WA0156501525003011004000
B1542034244159N07150345WA0157201532003004004000
B1542054244168N07150290WA0157801539003000004000
B1542074244151N07150235WA0158401545003000004000
F154207192803011417064424212230
B1542094244116N07150203WA0158601548003011004000
B1542114244075N07150203WA0158401547003048004000
B1542134244041N07150225WA0158101542003095004000
B1542154244020N07150262WA0158601544003114004000
B1542174244010N07150303WA0159001549003079004000
B1542194244011N07150345WA0159501554003043004000
B1542214244022N07150381WA0160101560003022004000
B1542234244047N07150398WA0161101569003009004000
B1542254244075N07150377WA0161901578003002004000
B1542274244086N07150326WA0162501584003004004000
B1542294244073N07150273WA0163001589003009004000
B1542314244040N07150240WA0163201591003009004000
F154232192803014614170644242122
B1542334244002N07150239WA0163701594003009004000
B1542354243972N07150264WA0164201599003004004000
B1542374243959N07150301WA0164701604003000004000
B1542394243965N07150336WA0164901609003000004000
B1542414243989N07150349WA0165201612003000004000
F154241192803011417064424212230
B1542434244017N07150330WA0165401615003004004000
B1542454244031N07150282WA0165801618003011004000
B1542474244024N07150225WA0165901619003036004000
B1542494243997N07150180WA0166301621003046004000
B1542514243958N07150161WA0166801625003022004000
B1542534243921N07150173WA0167401631003011004000
B1542554243898N07150207WA0167801635003009004000
B1542574243893N07150247WA0167801637003004004000
B1542594243906N07150280WA0168101639003000004000
B1543014243932N07150301WA0168201642003000004000
B1543034243963N07150305WA0168801646003011005000
B1543054243995N07150289WA0169301652003018005000
B1543074244021N07150255WA0169401656003020005000
B1543094244029N07150203WA0169401655003062005000
B1543114244013N07150151WA0169501653003123005000
B1543134243978N07150119WA0169501653003137005000
B1543154243937N07150112WA0169501653003125005000
B1543174243899N07150125WA0169701654003153005000
B1543194243870N07150154WA0170301660003156005000
B1543214243854N07150192WA0171001667003109005000
B1543234243855N07150231WA0171501674003071005000
B1543254243870N07150259WA0172101680003046005000
B1543274243896N07150266WA0172501685003032005000
B1543294243923N07150247WA0172501687003018005000
B1543314243938N07150204WA0172601688003013005000
B1543334243930N07150150WA0173101689003043005000
B1543354243902N07150111WA0172901690003088005000
B1543374243864N07150104WA0172901688004116005000
F1543381928030114170644242230
B1543394243833N07150128WA0172801687003111004000
F154339192803012114170644242230
B1543414243821N07150169WA0172801686003078004000
B1543434243826N07150212WA0173101687003048004000
B1543454243842N07150247WA0173501693003029004000
B1543474243863N07150276WA0174001697003039004000
B1543494243886N07150299WA0174401702003090004000
B1543514243910N07150320WA0174701706003109004000
B1543534243936N07150339WA0175001711003081004000
B1543554243963N07150357WA0174501710003053004000
B1543574243991N07150376WA0174001704003039004000
B1543594244020N07150395WA0173601700003043004000
B1544014244049N07150414WA0173301697003039004000
B1544034244077N07150434WA0172901694003041004000
B1544054244107N07150454WA0172101688003078004000
B1544074244137N07150474WA0171501681003085004000
B1544094244169N07150494WA0171301678003067004000
B1544114244202N07150514WA0171301678003064004000
B1544134244234N07150535WA0171601680003067004000
B1544154244267N07150556WA0171701682003076004000
B1544174244299N07150578WA0172001684003060004000
B1544194244331N07150600WA0173201692003039004000
B1544214244361N07150619WA0173901703003034004000
B1544234244391N07150639WA0174001706003027004000
B1544254244421N07150659WA0174301708003018004000
B1544274244451N07150680WA0175101713003009004000
B1544294244481N07150700WA0175701721003013004000
B1544314244509N07150720WA0175601723003036004000
B1544334244538N07150740WA0174801718003048004000
B1544354244569N07150760WA0174301711003036004000
B1544374244602N07150782WA0174601710003020004000
B1544394244635N07150804WA0174701713003020004000
B1544414244668N07150828WA0174601714003036004000
B1544434244702N07150852WA0174401712003041004000
B1544454244735N07150876WA0174601710003031004000
B1544474244770N07150899WA0174801714003020004000
B1544494244804N07150921WA0174901716003022004000
B1544514244838N07150942WA0175001717003034004000
B1544534244872N07150963WA0175001717003048004000
B1544554244906N07150984WA0175801721003062004000
B1544574244940N07151003WA0176801730003055004000
B1544594244972N07151019WA0177501739003036004000
B1545014245004N07151034WA0178401748003020004000
B1545034245036N07151048WA0179201757003011004000
B1545054245066N07151060WA0179701764003013004000
B1545074245096N07151071WA0180201767003022004000
B1545094245126N07151082WA0180201770003020004000
B1545114245156N07151093WA0179601767003009004000
B1545134245187N07151106WA0178101757003037004000
B1545154245220N07151122WA0176001737003090004000
B1545174245257N07151141WA0174601721003092004000
B1545194245296N07151163WA0173901710003069004000
B1545214245336N07151187WA0173201703003053004000
B1545234245377N07151212WA0173001698003048004000
B1545254245418N07151237WA0173101698003053004000
F154526192803012114170644245122
B1545274245457N07151261WA0173801704003046005000
B1545294245494N07151285WA0173701708003039005000
B1545314245529N07151309WA0173401704003037005000
B1545334245565N07151331WA0173101701003039005000
B1545354245601N07151353WA0173401700003036005000
B1545374245637N07151374WA0173401702003020005000
B1545394245673N07151395WA0173501704003004005000
B1545414245708N07151415WA0173001701003000005000
B1545434245743N07151435WA0172801698003000005000
B1545454245779N07151457WA0172501695003009005000
B1545474245814N07151478WA0171801690003020005000
B1545494245850N07151499WA0171601686003020005000
B1545514245886N07151520WA0171201683003013005000
B1545534245922N07151541WA0171101680003011005000
B1545554245957N07151561WA0170701677003006005000
B1545574245993N07151581WA0170601675003000005000
B1545594246029N07151602WA0170401674003006005000
B1546014246065N07151624WA0170201673003027005000
B1546034246101N07151645WA0170401672003048005000
B1546054246136N07151667WA0170401674003053005000
B1546074246171N07151688WA0170501674003041005000
B1546094246207N07151707WA0170601675003027004000
B1546114246242N07151726WA0170601676003025004000
B1546134246278N07151743WA0170501675003048004000
B1546154246314N07151759WA0170001672003064004000
B1546174246349N07151775WA0169701667003057004000
B1546194246385N07151791WA0169701665003048004000
B1546214246421N07151807WA0169601666003036004000
B1546234246456N07151822WA0170001666003046004000
B1546254246492N07151836WA0170401670003053004000
B1546274246527N07151849WA0170801675003036004000
B1546294246562N07151862WA0170401675003032004000
B1546314246596N07151874WA0169901671003034004000
B1546334246630N07151886WA0170001669003029004000
B1546354246662N07151898WA0169601666003027004000
B1546374246695N07151909WA0168601660003024004000
B1546394246728N07151920WA0167601650003034004000
B1546414246762N07151933WA0166401639003057004000
B1546434246797N07151949WA0165901629003067004000
B1546454246833N07151969WA0165701625003051004000
B1546474246869N07151992WA0166001625003032004000
B1546494246905N07152014WA0166401631003032004000
B1546514246939N07152035WA0166501634003051004000
B1546534246973N07152056WA0166701635003062004000
B1546554247007N07152077WA0167001637003060004000
B1546574247040N07152098WA0167001639003057004000
B1546594247072N07152120WA0167301641003055004000
B1547014247105N07152141WA0167701645003043004000
B1547034247137N07152161WA0168701652003025004000
B1547054247167N07152182WA0168801657003013004000
B1547074247196N07152202WA0168501655003011004000
B1547094247227N07152222WA0168001652003032004000
B1547114247258N07152242WA0167601647003069004000
B1547134247291N07152263WA0167101642003095004000
B1547154247326N07152285WA0166901640003090004000
B1547174247361N07152307WA0168101643003060004000
B1547194247393N07152330WA0170201660003036004000
B1547214247421N07152351WA0170601671003025004000
B1547234247448N07152371WA0171101677003011004000
B1547254247473N07152389WA0171501682003006004000
B1547274247498N07152407WA0171201680003046004000
B1547294247523N07152426WA0170101673003116004000
B1547314247549N07152447WA0169101663003172004000
B1547334247579N07152470WA0168701656003202004000
B1547354247610N07152493WA0168101649003184004000
B1547374247643N07152517WA0168001646003149004000
B1547394247678N07152539WA0167801646003128004000
B1547414247713N07152560WA0168601648003109004000
B1547434247746N07152581WA0169701659003078004000
B1547454247779N07152599WA0170501670003043004000
B1547474247809N07152616WA0170801675003034004000
B1547494247839N07152633WA0170901676003041004000
B1547514247869N07152648WA0170901677003036004000
B1547534247899N07152665WA0170901677003027004000
B1547554247929N07152681WA0170301674003022004000
B1547574247959N07152699WA0169301665003039004000
B1547594247989N07152719WA0169101658003062004000
B1548014248019N07152741WA0169701660003060004000
B1548034248048N07152763WA0169701664003057004000
B1548054248076N07152784WA0169901665003053004000
B1548074248104N07152803WA0170501669003041004000
B1548094248131N07152823WA0170801675003039004000
B1548114248157N07152842WA0171101678003039004000
B1548134248182N07152862WA0171401679003037004000
B1548154248207N07152882WA0171301680003067004000
B1548174248231N07152902WA0171101679003105004000
B1548194248255N07152923WA0171001677003107004000
B1548214248280N07152943WA0170501675003135004000
B1548234248306N07152964WA0169001665003163004000
B1548254248333N07152986WA0167301649003153004000
B1548274248364N07153011WA0166001633003128004000
B1548294248396N07153038WA0165701624003097004000
B1548314248429N07153064WA0166601628003074004000
B1548334248461N07153090WA0167301636003060004000
B1548354248491N07153114WA0167701642003057004000
B1548374248520N07153139WA0167401642003048004000
B1548394248549N07153164WA0167801642003039004000
B1548414248578N07153188WA0167801644003048004000
B1548434248606N07153211WA0169101649003060004000
B1548454248633N07153234WA0170301664003046004000
B1548474248657N07153255WA0170301669003029004000
B1548494248682N07153273WA0171001669003027004000
B1548514248709N07153272WA0170801674003044004000
B1548534248735N07153255WA0171601676003093004000
B1548554248757N07153223WA0172201684003106004000
B1548574248767N07153179WA0172701688003078004000
B1548594248757N07153129WA0173401694003060004000
B1549014248731N07153090WA0173601696003044004000
B1549034248694N07153068WA0173901699003034004000
B1549054248653N07153068WA0174101701003022004000
B1549074248619N07153089WA0174301704003011004000
B1549094248600N07153124WA0174001703003013004000
B1549114248597N07153160WA0173501698003057004000
B1549134248612N07153186WA0173101694003102004000
B1549154248638N07153190WA0173401693003109004000
B1549174248664N07153172WA0173301697003093004000
B1549194248684N07153135WA0173301696003058004000
B1549214248692N07153083WA0173601696003036004000
B1549234248682N07153027WA0174001699003022004000
B1549254248653N07152981WA0174601703003018004000
B1549274248611N07152959WA0175101708003039004000
B1549294248568N07152964WA0175501712003053004000
B1549314248532N07152990WA0175501715003039004000
B1549334248515N07153032WA0175601717003020004000
B1549354248520N07153070WA0175601716003036004000
B1549374248544N07153090WA0176201720003060004000
B1549394248572N07153085WA0176501726003050004000
B1549414248595N07153053WA0176901729003041004000
B1549434248602N07153003WA0177101732003036004000
B1549454248586N07152952WA0177201734003027004000
B1549474248550N07152918WA0177301734003055004000
B1549494248505N07152916WA0177701736003093005000
B1549514248465N07152939WA0178201739003074004000
B1549534248440N07152977WA0178201742003053004000
B1549554248431N07153019WA0178001740003057004000
B1549574248442N07153053WA0178001739003081004000
B1549594248467N07153066WA0178201741003088004000
B1550014248496N07153059WA0178301742003069004000
B1550034248524N07153036WA0178101742003095004000
B1550054248548N07152999WA0178301744003114004000
B1550074248567N07152954WA0178201744003086004000
B1550094248588N07152910WA0178201745003053004000
B1550114248610N07152868WA0178201746003053004000
B1550134248634N07152829WA0177501743003086004000
B1550154248662N07152795WA0176901737003123004000
B1550174248694N07152768WA0176501733003156004000
B1550194248728N07152746WA0176001728003177004000
B1550214248764N07152726WA0174601720003174004000
B1550234248802N07152704WA0173401706003151004000
B1550254248842N07152682WA0172201695003156004000
B1550274248885N07152662WA0171501685003151004000
B1550294248929N07152643WA0170601677003104004000
B1550314248974N07152625WA0169801670003060004000
B1550334249019N07152608WA0169101663003036004000
B1550354249065N07152591WA0168901659003034004000
B1550374249111N07152575WA0168701656003037004000
B1550394249156N07152558WA0169301660003034004000
B1550414249199N07152543WA0169101662003025004000
B1550434249242N07152529WA0168601658003018004000
B1550454249285N07152521WA0167801652003018004000
B1550474249328N07152519WA0166901643003011004000
B1550494249372N07152521WA0166701638003006004000
B1550514249416N07152526WA0166601636003013004000
B1550534249459N07152532WA0166701637003015004000
B1550554249500N07152542WA0166701636003011004000
B1550574249541N07152552WA0166601637003006004000
B1550594249581N07152563WA0166301634003006004000
B1551014249621N07152573WA0165501629003004004000
B1551034249661N07152584WA0164601620003000004000
B1551054249703N07152597WA0163301609003000004000
B1551074249746N07152609WA0162901601003000004000
B1551094249789N07152621WA0162701599003000004000
B1551114249831N07152633WA0163001599003000004000
B1551134249872N07152644WA0163301602003000004000
B1551154249912N07152653WA0163201603003000004000
B1551174249951N07152663WA0162701601003000004000
B1551194249991N07152673WA0162801598003002004000
B1551214250031N07152683WA0162801598003009004000
B1551234250071N07152693WA0161801595003011004000
B1551254250111N07152702WA0160801584003016004000
B1551274250153N07152712WA0160001573003027004000
B1551294250196N07152723WA0159201565003020004000
B1551314250239N07152737WA0158801560003009004000
B1551334250281N07152755WA0159001560003002004000
B1551354250322N07152774WA0159501563003004004000
B1551374250361N07152792WA0160301571003022004000
B1551394250399N07152809WA0160301575003041004000
B1551414250435N07152824WA0160401575003043004000
B1551434250471N07152840WA0160501576003039004000
B1551454250506N07152856WA0160201575003029004000
B1551474250541N07152874WA0159701570003015004000
B1551494250577N07152890WA0159001564003022004000
B1551514250614N07152904WA0158501557003050004000
B1551534250653N07152915WA0157901552003055004000
B1551554250692N07152924WA0157501547003034004000
B1551574250732N07152932WA0157401545003018004000
B1551594250773N07152938WA0157301543003020004000
B1552014250813N07152941WA0156901541003020004000
B1552034250854N07152941WA0156801538003015004000
B1552054250895N07152941WA0157001539003027004000
B1552074250934N07152941WA0156701538003027004000
F155207192803012114170644242230
B1552094250973N07152941WA0156301535003009004000
B1552114251013N07152939WA0155601529003000004000
B1552134251054N07152936WA0155101523003006004000
B1552154251095N07152933WA0154401516003006004000
B1552174251138N07152928WA0153701510003000004000
B1552194251181N07152919WA0153601506003006004000
B1552214251224N07152907WA0153301505003020004000
B1552234251267N07152894WA0153401503003020004000
B1552254251309N07152879WA0153101503003006004000
B1552274251351N07152863WA0152701500003002004000
B1552294251392N07152846WA0152801498003002004000
B1552314251433N07152829WA0153101500003000004000
B1552334251472N07152812WA0153101501003009004000
B1552354251510N07152794WA0153001501003011004000
B1552374251547N07152775WA0152801499003020004000
B1552394251584N07152755WA0152401496003032004000
B1552414251620N07152735WA0152101491003020004000
B1552434251657N07152715WA0151401486003015004000
B1552454251693N07152695WA0151001481003020004000
B1552474251730N07152677WA0151101481003013004000
B1552494251767N07152659WA0151501483003002004000
B1552514251802N07152642WA0151701486003000004000
B1552534251837N07152625WA0151701487003000004000
B1552554251872N07152609WA0151701486003000004000
B1552574251906N07152592WA0151801487003000004000
B1552594251941N07152575WA0151901488003006004000
B1553014251976N07152558WA0151801488003015004000
B1553034252011N07152541WA0152101489003025004000
B1553054252045N07152527WA0152101490003027004000
B1553074252079N07152513WA0151901490003022004000
B1553094252112N07152500WA0151701487003018004000
B1553114252147N07152489WA0151401485003002004000
B1553134252182N07152478WA0151001481003020004000
B1553154252218N07152468WA0150601477003060004000
B1553174252254N07152459WA0150301473003065004000
B1553194252292N07152453WA0150301472003046004000
B1553214252330N07152450WA0150901475003034004000
B1553234252368N07152449WA0152001484003025004000
B1553254252404N07152447WA0153101494003013004000
B1553274252439N07152443WA0153901505003004004000
B1553294252471N07152439WA0154401511003000004000
B1553314252504N07152434WA0155401519003000004000
B1553334252535N07152424WA0156601529003000004000
B1553354252559N07152393WA0158801544003002004000
B1553374252563N07152346WA0159401557003002004000
B1553394252545N07152301WA0159501561003000004000
B1553414252512N07152273WA0159701561003000004000
B1553434252473N07152267WA0160301564003011004000
B1553454252439N07152281WA0160401567003043004000
B1553474252415N07152310WA0160201567003053004000
B1553494252408N07152346WA0160101565003034004000
B1553514252415N07152381WA0159801562003027004000
B1553534252433N07152408WA0160401565003022004000
B1553554252460N07152416WA0160701570003020004000
B1553574252489N07152401WA0161601576003020004000
B1553594252509N07152364WA0161901582003027004000
B1554014252514N07152313WA0162301585003053004000
B1554034252498N07152263WA0162801588003069004000
B1554054252467N07152226WA0162901590003060004000
B1554074252428N07152214WA0163101592003055004000
B1554094252392N07152228WA0163301594003043004000
B1554114252371N07152261WA0163301595003046004000
B1554134252370N07152298WA0163401594003090004000
B1554154252385N07152325WA0163401595003104004000
B1554174252410N07152337WA0163501597003088004000
B1554194252439N07152334WA0163701599003067004000
B1554214252466N07152309WA0163801600003050004000
B1554234252479N07152261WA0164201603003043004000
B1554254252472N07152206WA0164601607003029004000
B1554274252444N07152161WA0164301606003031004000
B1554294252402N07152145WA0164701605003041004000
B1554314252362N07152160WA0165501611003067004000
B1554334252337N07152195WA0166001619003071004000
B1554354252328N07152235WA0166501622003057004000
B1554374252336N07152269WA0166701626003065004000
B1554394252356N07152290WA0166701628003081004000
B1554414252383N07152296WA0166501627003081004000
B1554434252413N07152287WA0166601626003048004000
B1554454252440N07152257WA0166901629003062004000
B1554474252458N07152209WA0167401634003069004000
B1554494252460N07152152WA0167601637003062004000
B1554514252440N07152100WA0167601636003116004000
B1554534252404N07152065WA0168001638003156004000
B1554554252364N07152056WA0168001639003167004000
B1554574252327N07152074WA0168201640003191004000
B1554594252303N07152108WA0168201641003172004000
B1555014252291N07152148WA0168101642003113004000
B1555034252292N07152190WA0168101641003076004000
B1555054252305N07152225WA0167901640003079004000
B1555074252327N07152253WA0168301641003104004000
B1555094252354N07152272WA0169201649003093004000
B1555114252382N07152282WA0169301656003055004000
B1555134252412N07152289WA0169401658003043004000
B1555154252443N07152293WA0169901661003034004000
B1555174252473N07152295WA0170301666003015004000
B1555194252503N07152298WA0170601670003009004000
B1555214252532N07152301WA0171101673003032004000
B1555234252560N07152305WA0171501678003046004000
B1555254252588N07152309WA0172001683003046004000
B1555274252614N07152313WA0172501688003046004000
F155527192803012114170644245122
B1555294252640N07152317WA0173201695003032004000
B1555314252666N07152322WA0173601701003020004000
B1555334252691N07152326WA0173801704003025004000
B1555354252715N07152331WA0174601709003037004000
B1555374252740N07152335WA0174901714003039004000
B1555394252765N07152340WA0174601714003034004000
B1555414252791N07152345WA0174601713003029004000
B1555434252818N07152349WA0174701713003053004000
B1555454252845N07152353WA0174401711003083004000
B1555474252874N07152358WA0174801713003079004000
B1555494252902N07152364WA0175301718003051004000
B1555514252928N07152379WA0176301726003030004000
B1555534252945N07152406WA0177401736003016004000
B1555554252947N07152443WA0178301746003009004000
B1555574252926N07152476WA0178901754003004004000
F1555571928030121141706242230
F15555819280301211417242230
B1555594252893N07152488WA0178901758003000004000
F1556001928030121141706242230
B1556014252855N07152471WA0178601757004002004000
B1556034252828N07152428WA0178601755004016005000
B1556054252820N07152375WA0179101758003029004000
B1556074252831N07152326WA0179101761003046004000
B1556094252856N07152296WA0179401764003057004000
B1556114252885N07152287WA0180101769003039004000
B1556134252910N07152304WA0180801775003020004000
B1556154252917N07152343WA0181701784004013005000
B1556174252900N07152384WA0182301792003006004000
F15561819280301211417062230
B1556194252866N07152404WA0182901798003002004000
F155619192803012114172230
B1556214252826N07152391WA0183201801003002005000
F15562219280301211417242230
B1556234252795N07152350WA0183201802003002004000
B1556254252784N07152295WA0183601805003027004000
F1556251928030121141706242230
B1556274252796N07152248WA0183901809003081004000
B1556294252822N07152219WA0184501814003083004000
B1556314252851N07152213WA0185301821003048004000
B1556334252877N07152227WA0185601824003037004000
B1556354252897N07152256WA0186101828003029004000
B1556374252907N07152296WA0187101834003013004000
B1556394252898N07152341WA0188201846003002004000
B1556414252869N07152373WA0189501861003000004000
F15564119280301211417062230
F155642192803012114172230
B1556434252830N07152375WA0190401872003000004000
B1556454252798N07152342WA0190501875003000004000
F15564519280301212414172230
B1556474252789N07152291WA0190901877003004004000
F1556481928030121241417062230
B1556494252803N07152248WA0191501883003002004000
B1556514252829N07152231WA0191901889003000004000
B1556534252853N07152244WA0192701894003000004000
B1556554252859N07152282WA0193301901003004004000
B1556574252843N07152325WA0193801905003009004000
B1556594252810N07152353WA0194201910003002004000
B1557014252770N07152351WA0194801915003000004000
B1557034252736N07152317WA0195101918003016004000
B1557054252717N07152266WA0194701914003025004000
B1557074252718N07152210WA0194801913003013004000
B1557094252736N07152161WA0195201918003004004000
B1557114252766N07152136WA0196201926003004004000
B1557134252798N07152136WA0196901934003039004000
B1557154252826N07152156WA0197201941003053004000
B1557174252845N07152191WA0196901940003029004000
B1557194252863N07152226WA0196901939003020004000
B1557214252884N07152258WA0197101940003046004000
B1557234252910N07152279WA0197401940003106004000
B1557254252938N07152291WA0196901938003151004000
B1557274252968N07152295WA0196801934003170004000
B1557294252999N07152296WA0196401932003179004000
B1557314253031N07152293WA0195901929003186004000
B1557334253062N07152289WA0195601925003193004000
F155734192803012124141706512230
B1557354253093N07152283WA0195701921003193004000
B1557374253125N07152275WA0194901919003195004000
B1557394253157N07152265WA0194501915003191004000
B1557414253190N07152255WA0193801909003186004000
B1557434253225N07152243WA0193401904003160004000
B1557454253261N07152232WA0193201901003121004000
B1557474253297N07152219WA0193301900003100004000
B1557494253332N07152208WA0193001900003069004000
B1557514253368N07152196WA0192801897003044004000
B1557534253404N07152184WA0192601896003025004000
B1557554253439N07152172WA0192701895003025004000
B1557574253476N07152159WA0192301894003053004000
B1557594253512N07152147WA0191901891003055004000
B1558014253549N07152135WA0192301890003039004000
B1558034253586N07152124WA0192501894003029004000
B1558054253622N07152113WA0191901891003046004000
B1558074253658N07152103WA0191701887003074004000
B1558094253694N07152094WA0191601886003062004000
B1558114253730N07152087WA0191401884003036004000
B1558134253766N07152082WA0191901884003022004000
B1558154253801N07152077WA0192101888003027004000
B1558174253836N07152073WA0192601893003050004000
B1558194253871N07152071WA0192801896003060004000
B1558214253904N07152069WA0192801897003048004000
B1558234253938N07152069WA0192901897003039004000
B1558254253971N07152068WA0192201894003050004000
B1558274254004N07152068WA0192301890003067004000
B1558294254038N07152068WA0192801892003055004000
B1558314254071N07152068WA0192501895003036004000
B1558334254104N07152069WA0191201887003036004000
B1558354254138N07152072WA0190501876003076004000
B1558374254173N07152076WA0190101871003095004000
B1558394254208N07152081WA0190001868003062004000
B1558414254243N07152086WA0190101869003062004000
B1558434254277N07152091WA0189801867003090004000
B1558454254311N07152094WA0189801867003093004000
B1558474254346N07152097WA0189401864003069004000
B1558494254382N07152100WA0188801860003043004000
B1558514254417N07152104WA0188401856003032004000
B1558534254453N07152109WA0188101851003027004000
B1558554254489N07152112WA0188301850003024004000
B1558574254526N07152112WA0188201851003020004000
B1558594254562N07152110WA0188101850003011004000
B1559014254599N07152104WA0188501852003025004000
B1559034254635N07152096WA0188501854003053004000
B1559054254671N07152088WA0188301853003046004000
B1559074254707N07152082WA0187901849003027004000
B1559094254743N07152078WA0187501845003032004000
B1559114254779N07152075WA0187601845003025004000
B1559134254814N07152075WA0187601844003027004000
B1559154254842N07152089WA0188701850003046004000
B1559174254853N07152123WA0189501860003044004000
B1559194254846N07152162WA0189401862003032004000
B1559214254823N07152196WA0189701862003046004000
B1559234254789N07152215WA0189501863003093004000
B1559254254748N07152216WA0189201859003128004000
B1559274254706N07152196WA0188901856003125004000
B1559294254669N07152160WA0188101851003142004000
B1559314254638N07152110WA0188001847003153004000
B1559334254621N07152050WA0188201847003144004000
B1559354254620N07151989WA0187801847003158004000
B1559374254632N07151933WA0187401840003158004000
B1559394254653N07151887WA0186201832003149004000
B1559414254684N07151854WA0185801825003139004000
B1559434254717N07151837WA0185301821003144004000
B1559454254751N07151836WA0184601816003149004000
B1559474254783N07151847WA0184001811003158004000
B1559494254815N07151863WA0183001802003179004000
B1559514254846N07151885WA0182401794003200004000
B1559534254878N07151910WA0181901789003216004000
B1559554254909N07151937WA0181401785003200004000
B1559574254940N07151964WA0181201782003153004000
B1559594254973N07151989WA0181401781003107004000
B1600014255006N07152010WA0181501783003078004000
B1600034255040N07152026WA0181401783003067004000
B1600054255076N07152036WA0180801780003069004000
B1600074255113N07152040WA0180501775003069004000
B1600094255151N07152040WA0180101772003055004000
B1600114255189N07152037WA0180001769003048004000
B1600134255227N07152031WA0180201770003043004000
B1600154255265N07152018WA0180601773003025004000
B1600174255302N07151999WA0180901776003020004000
B1600194255337N07151977WA0181701782003013004000
B1600214255371N07151955WA0181601785003009004000
B1600234255405N07151934WA0181001782003009004000
B1600254255438N07151914WA0180301777003006004000
B1600274255473N07151897WA0179501768003029004000
B1600294255510N07151883WA0178401758003057004000
B1600314255548N07151872WA0177301747003064004000
B1600334255589N07151859WA0176101733003062004000
B1600354255631N07151847WA0175301724003057004000
B1600374255675N07151838WA0175101721003043004000
B1600394255718N07151830WA0175201721003027004000
B1600414255760N07151824WA0174801720003020004000
B1600434255802N07151820WA0175001720003027004000
B1600454255842N07151818WA0175401722003032004000
B1600474255880N07151819WA0175901726003029004000
B1600494255916N07151827WA0176001730003029004000
B1600514255948N07151843WA0176501732003020004000
B1600534255979N07151860WA0176401734003034004000
B1600554256009N07151879WA0176401734003050004000
B1600574256038N07151899WA0176201733003029004000
B1600594256067N07151918WA0176101731003018004000
B1601014256096N07151936WA0176101730003044004000
B1601034256126N07151951WA0176401732003069004000
B1601054256157N07151962WA0176701735003071004000
B1601074256188N07151970WA0176601736003074004000
B1601094256219N07151974WA0177301740003064004000
B1601114256250N07151976WA0177901746003048004000
B1601134256279N07151974WA0178401751003041004000
B1601154256307N07151976WA0178601754003032004000
B1601174256334N07151981WA0178601754003027004000
B1601194256360N07151992WA0178701756003018004000
B1601214256383N07152012WA0178901757003011004000
B1601234256404N07152035WA0178701756003032004000
B1601254256426N07152059WA0177601749003088004000
B1601274256451N07152080WA0177001742003151004000
B1601294256480N07152092WA0176501736003177004000
B1601314256512N07152098WA0176001731003177004000
B1601334256546N07152097WA0175301725003174004000
