ANKL0ZH
HFDTE170621
HFFXA050
HFPLTPILOT:Nelson Howe
HFGTYGLIDERTYPE:Discus 2b
HFGIDGLIDERID:1X       .
HFDTM100GPSDATUM:
HFRFWFIRMWAREVERSION:40 2011-6-17
HFRHWHARDWAREVERSION: NKL ClearNav V1.0
HFFTYFRTYPE:Nielsen Kellerman, ClearNav-IGC
HFGPS:UBLOX,LEA-4H-0-000-1,16Ch,18000 
HFPRSPRESSALTSENSOR:Intersema,MS5534B,20000 
I033638FXA3941ENL4247REX
C170621142751000000000103
C0000000N00000000WTAKEOFF     
C4225500N07147470WSterlingStrt
C4335517N07145082WNewfoundVal
C4241749N07310216WHarriman-And
C4155245N07129483WN Central
C4225500N07147470WSterling
C0000000N00000000WLANDING     
B1428174225411N07147431WA0014700139002000002008
B1428184225411N07147431WA0014700139002000002008
B1428194225411N07147431WA0014700139002000002008
B1428204225411N07147431WA0014800139002000002008
B1428214225410N07147431WA0014700139002000002008
B1428224225410N07147431WA0014700139002000002008
B1428234225410N07147431WA0014700139002000002008
B1428244225410N07147431WA0014700139002000002008
B1428254225410N07147431WA0014700139002000002008
B1428264225410N07147431WA0014800139002000002008
B1428274225410N07147431WA0014700139002000002008
B1428284225410N07147431WA0014800139002000002008
B1428294225410N07147431WA0014800139002000002008
B1428304225410N07147431WA0014800139002000002008
B1428314225410N07147431WA0014800139002000002008
B1428324225410N07147431WA0014800139002000002008
B1428334225410N07147431WA0014700139002000002008
B1428344225410N07147431WA0014700139002000002008
B1428354225410N07147431WA0014700140002000002008
B1428364225410N07147431WA0014700140002000002008
B1428374225410N07147432WA0014700140002000002008
B1428384225410N07147432WA0014700140002000002008
B1428394225410N07147432WA0014800140002000002008
B1428404225410N07147432WA0014700140002000002008
B1428414225410N07147432WA0014800140002000002008
B1428424225410N07147432WA0014800140002000002008
B1428434225410N07147432WA0014700140002000002008
B1428444225410N07147432WA0014800140002000002008
B1428454225410N07147432WA0014700140002000002008
B1428464225410N07147431WA0014800140002000002008
B1428474225410N07147431WA0014700139002002002008
B1428484225410N07147431WA0014700139002004002008
B1428494225410N07147431WA0014800139002004002008
B1428504225410N07147431WA0014700139002002002008
B1428514225410N07147431WA0014700139002000002008
B1428524225410N07147431WA0014800139002000002008
B1428534225410N07147431WA0014800139002000002008
B1428544225410N07147431WA0014700139002000002008
B1428554225410N07147431WA0014700139002000002008
B1428564225410N07147431WA0014700139002000002008
B1428574225410N07147431WA0014700139002000002008
B1428584225410N07147431WA0014800138002000002008
B1428594225410N07147431WA0014700138002000002008
B1429004225410N07147431WA0014800138002000002008
B1429014225410N07147431WA0014800138002000002008
B1429024225410N07147431WA0014800138002002002008
B1429034225410N07147431WA0014800138002002002008
B1429044225410N07147431WA0014800138002004002008
B1429054225410N07147431WA0014700138002006002008
B1429064225410N07147431WA0014700138002009002008
B1429074225410N07147431WA0014700138002013002008
B1429084225410N07147431WA0014800138002015002008
B1429094225410N07147431WA0014800138002020002008
B1429104225410N07147431WA0014800138002022002008
B1429114225410N07147431WA0014700138002022002008
B1429124225410N07147431WA0014900138002022002008
B1429134225410N07147431WA0014800139002020002008
B1429144225410N07147431WA0014800139002013002008
B1429154225410N07147431WA0014800139002009002008
B1429164225410N07147431WA0014700139002006002008
B1429174225410N07147431WA0014800139002006002008
B1429184225410N07147431WA0014800139002009002008
B1429194225410N07147431WA0014700139002011002008
B1429204225410N07147431WA0014700139002013002008
B1429214225410N07147431WA0014800139002011002008
B1429224225410N07147431WA0014800139002011002008
B1429234225410N07147431WA0014700138002013002008
B1429244225410N07147432WA0014800138002013002008
B1429254225410N07147432WA0014700138002015002008
B1429264225410N07147432WA0014800138002018002008
B1429274225410N07147431WA0014700138002018002008
B1429284225410N07147431WA0014700138002018002008
B1429294225410N07147431WA0014800138002018002008
B1429304225410N07147431WA0014700138002015002008
B1429314225411N07147431WA0014700138002015002008
B1429324225411N07147431WA0014800138002013002008
B1429334225411N07147431WA0014800138002011002008
B1429344225411N07147431WA0014800138002009002008
B1429354225411N07147431WA0014800138002004002008
B1429364225411N07147431WA0014800138002002002008
B1429374225411N07147431WA0014700138002000002008
B1429384225411N07147431WA0014700138002000002008
B1429394225411N07147431WA0014700138002000002008
B1429404225411N07147431WA0014700138002002002008
B1429414225411N07147431WA0014700138002002002008
B1429424225411N07147431WA0014800138002002002008
B1429434225411N07147431WA0014800138002002002008
B1429444225411N07147431WA0014700137002004002008
B1429454225411N07147431WA0014800137002009002008
B1429464225410N07147431WA0014700137002013002008
B1429474225410N07147431WA0014700137002020002008
B1429484225410N07147431WA0014700137002020002008
B1429494225410N07147431WA0014700137002020002008
B1429504225410N07147431WA0014700137002018002008
B1429514225410N07147431WA0014700137002013002008
B1429524225410N07147431WA0014700137002013002008
B1429534225410N07147431WA0014700137002013002008
B1429544225410N07147431WA0014900137002015002008
B1429554225410N07147431WA0014800137002018002008
B1429564225410N07147431WA0014800138002018002008
B1429574225410N07147431WA0014700138002018002008
B1429584225410N07147432WA0014800138002020002008
B1429594225410N07147432WA0014700138002025002008
B1430004225410N07147432WA0014800138002027002008
B1430014225410N07147432WA0014700138002027002008
B1430024225410N07147432WA0014700138002025002008
B1430034225410N07147431WA0014700138002020002008
B1430044225410N07147431WA0014800138002020002008
B1430054225410N07147431WA0014800137002022002008
B1430064225410N07147431WA0014700137002024002008
B1430074225410N07147431WA0014700137002027002008
B1430084225410N07147431WA0014800137002027002008
B1430094225410N07147431WA0014800137002027002008
B1430104225410N07147431WA0014700137002027002008
B1430114225410N07147431WA0014700137002027002008
B1430124225410N07147431WA0014800137002027002008
B1430134225410N07147431WA0014800137002029002008
B1430144225411N07147432WA0014800138002029002008
B1430154225411N07147432WA0014800138002027002008
B1430164225413N07147434WA0014800138002025002008
B1430174225415N07147437WA0014800138002022002000
F143017280103071314081719512122
B1430194225423N07147447WA0014700138002027002000
B1430214225434N07147461WA0014800138002034002000
B1430234225449N07147478WA0014700138002064002000
B1430254225466N07147499WA0014800138002123002000
B1430274225486N07147523WA0014600138002137002000
B1430294225508N07147549WA0014900139002107002000
B1430314225533N07147577WA0014900140002083002000
B1430334225560N07147606WA0015400142002065002000
B1430354225586N07147637WA0016000147002048002000
B1430374225613N07147670WA0016500153002041002000
B1430394225641N07147701WA0017400160002041002000
B1430414225670N07147734WA0017800167002039002000
B1430434225697N07147770WA0018200171002037002000
B1430454225726N07147805WA0018800177002037002000
B1430474225755N07147839WA0020000186002037002000
B1430494225784N07147870WA0020900197002037002000
B1430514225812N07147902WA0022100208002039002000
B1430534225840N07147933WA0023000220002039002000
B1430554225868N07147965WA0023900229002037002000
B1430574225897N07147997WA0024600237002037002000
B1430594225926N07148028WA0025500246002037002000
B1431014225955N07148058WA0026700257002037002000
B1431034225983N07148087WA0027500267002037002000
B1431054226010N07148115WA0028700277002037002000
B1431074226038N07148140WA0029800289002037002000
B1431094226066N07148164WA0031000300002037002000
B1431114226093N07148189WA0031700310002037002000
B1431134226120N07148214WA0032500316002037002000
B1431154226146N07148242WA0033300323002037002000
B1431174226171N07148271WA0034100333002041002000
B1431194226199N07148295WA0035100342002041002000
B1431214226227N07148320WA0036000352002037002000
B1431234226252N07148348WA0037000362002037002000
B1431254226277N07148376WA0038000372002037002000
B1431274226303N07148403WA0038700381002037002000
B1431294226329N07148431WA0039300388002034002000
B1431314226355N07148458WA0039800392002034002000
B1431334226382N07148486WA0040300396002034002000
B1431354226409N07148514WA0041000402002034002000
B1431374226435N07148545WA0041700410002037002000
B1431394226459N07148575WA0042700419002037002000
B1431414226483N07148605WA0043700429002034002000
B1431434226508N07148633WA0044400438002034002000
B1431454226533N07148662WA0045200445002034002000
B1431474226558N07148689WA0046200455002034002000
B1431494226584N07148717WA0047100465002037002000
B1431514226608N07148747WA0047800475002037002000
B1431534226633N07148777WA0048600480002034002000
B1431554226657N07148809WA0048900486002032002000
B1431574226681N07148841WA0049400490002034002000
B1431594226705N07148871WA0050000495002037002000
B1432014226729N07148902WA0050600502002037002000
B1432034226751N07148933WA0051700510002032002000
B1432054226772N07148964WA0053200523002029002000
B1432074226790N07148997WA0054100537002034002000
B1432094226803N07149034WA0054700545002037002000
B1432114226813N07149075WA0055000548002034002000
B1432134226822N07149118WA0055700553002032002000
B1432154226827N07149162WA0056600560002034002000
B1432174226829N07149208WA0057100569002034002000
B1432194226828N07149253WA0057800576002029002000
B1432214226827N07149298WA0058800584002029002000
B1432234226823N07149342WA0059900594002032002000
B1432254226817N07149385WA0060900604002032002000
B1432274226810N07149428WA0062300616002034002000
F143228280103071408171951212230
B1432294226804N07149470WA0063100628002037002000
B1432314226799N07149513WA0063700634002037002000
B1432334226793N07149557WA0064100640002037002000
B1432354226787N07149602WA0064700645002037002000
B1432374226781N07149647WA0065100650002037002000
B1432394226773N07149692WA0065500653002037002000
B1432414226764N07149738WA0066400659002037002000
B1432434226754N07149782WA0067300668002037002000
B1432454226745N07149826WA0068400678002037002000
B1432474226735N07149869WA0069500691002037002000
B1432494226723N07149911WA0071200703002037002000
F143249280103071314081719512122
B1432514226714N07149953WA0072400718002037002000
F143252280103071408171951212230
B1432534226709N07149994WA0073300729002037002000
F143253280103071314081719512122
F143254280103071408171951212230
B1432554226705N07150039WA0074000738002037002000
F143255280103071314081719512122
B1432574226702N07150082WA0074400745002048002000
B1432594226704N07150122WA0075200754002088002000
B1433014226713N07150159WA0076200763002090002000
B1433034226726N07150193WA0076800770002050002000
B1433054226744N07150221WA0077300777002027002000
B1433074226768N07150238WA0077400780002015003000
B1433094226797N07150236WA0077600781002022003000
B1433114226825N07150212WA0077400779002043003000
B1433134226843N07150170WA0076800774002060003000
B1433154226849N07150118WA0076400768002059003000
B1433174226841N07150065WA0076000763002050003000
B1433194226821N07150017WA0075200757002036003000
B1433214226794N07149977WA0074800751002024003000
B1433234226763N07149944WA0075100749002032003000
B1433254226729N07149915WA0075600754002048002000
B1433274226694N07149889WA0075800759002046002000
B1433294226659N07149861WA0076200761002025002000
F143330280103071314081719212230
B1433314226635N07149817WA0077000766002009003000
B1433334226632N07149764WA0077900777002002003000
F1433332801071314081719212230
F14333428010713141719212230
B1433354226650N07149723WA0078100783002002003000
F1433362801071314081719212230
B1433374226679N07149708WA0078300784003011003000
B1433394226705N07149719WA0078900787002025003000
F143339280103071314081719212230
B1433414226717N07149747WA0078800790002027003000
F1433412801030714081719212230
B1433434226711N07149779WA0079400795002032003000
F143344280103071314081719212230
B1433454226685N07149799WA0080200803002036003000
F1433462801030714081719212230
B1433474226652N07149797WA0080200807002036003000
F143347280103071314081719212230
B1433494226617N07149776WA0080500808002029003000
B1433514226592N07149736WA0081400814002013003000
B1433534226585N07149685WA0082100823002009003000
F1433542801071314081719212230
B1433554226597N07149639WA0082300828002013003000
F14335528010713141719212230
B1433574226622N07149608WA0082200828002025003000
F1433572801071314081719212230
B1433594226652N07149599WA0082500829002039003000
F143359280103071314081719212230
B1434014226678N07149612WA0082500830002039003000
B1434034226692N07149640WA0083100834002034003000
F143403512801030713140817192122
F143404512801030714081719212230
B1434054226689N07149673WA0084000843002029003000
B1434074226671N07149699WA0084700852002013003000
F143407512801030713140817192122
B1434094226641N07149711WA0084800856002002003000
B1434114226605N07149700WA0084500854002000003000
F143411512801030713140817212230
B1434134226575N07149665WA0084600854002002003000
F143414512801030713140817192122
B1434154226559N07149613WA0084700854002000003000
B1434174226562N07149556WA0084900854002000003000
B1434194226581N07149509WA0085800860002002003000
F1434192801071314081719212230
B1434214226610N07149483WA0086100866002032003000
F143422032801071314081719212230
B1434234226641N07149481WA0086100869002072003000
B1434254226664N07149499WA0086300869002072003000
B1434274226675N07149532WA0086600870002043003000
F1434280328010714081719212230
B1434294226673N07149570WA0086800874002022003000
B1434314226661N07149608WA0087900880002006003000
F143431032801071314081719212230
B1434334226642N07149641WA0088600890002002003000
B1434354226615N07149659WA0090100903002002003000
B1434374226584N07149644WA0091500916003027003000
F1434370328010713140817212230
B1434394226563N07149607WA0091200920003053003000
F143440032801071314081719212230
B1434414226559N07149559WA0090800916002069003000
B1434434226573N07149515WA0090300913002086003000
F1434432801071314081719212230
B1434454226600N07149489WA0090600911002076003000
B1434474226630N07149483WA0091000914002057003000
F143447032801071314081719212230
B1434494226656N07149497WA0091900921002034003000
B1434514226669N07149526WA0091800924002015003000
F1434520328010714081719212230
B1434534226661N07149554WA0092300928002011003000
B1434554226634N07149566WA0092600933002018003000
B1434574226602N07149556WA0093200937002034003000
F14345703280107140817212230
B1434594226573N07149526WA0093000937002062003000
F1434590328010714081719212230
F143500032801071314081719212230
B1435014226554N07149482WA0092900935002057003000
B1435034226550N07149430WA0093100937002055003000
B1435054226562N07149381WA0093500938002086003000
F1435062801071314081719212230
B1435074226586N07149346WA0093800943002072003000
F143508032801071314081719212230
B1435094226617N07149330WA0093900945002039003000
B1435114226648N07149333WA0094300948002025003000
B1435134226672N07149354WA0094600950002018003000
B1435154226680N07149387WA0094600953002027003000
F1435160328010714081719212230
B1435174226671N07149421WA0094700953002032003000
B1435194226648N07149445WA0095200957002029003000
B1435214226615N07149453WA0095700962002034003000
B1435234226578N07149441WA0095300962002032003000
F143524032801071314081719212230
B1435254226545N07149408WA0095000958002036003000
B1435274226522N07149359WA0095100956002055003000
B1435294226513N07149300WA0095100955002064003000
B1435314226514N07149240WA0095400958002069003000
B1435334226521N07149181WA0095100957002086003000
B1435354226531N07149122WA0095200957002091003000
B1435374226545N07149065WA0095800961002074003000
B1435394226560N07149011WA0096200966002053003000
B1435414226585N07148969WA0097200972002060003000
F1435412801071314081719212230
F143542032801071314081719212230
B1435434226616N07148949WA0097500979002100003000
B1435454226647N07148947WA0097500982002128003000
B1435474226672N07148966WA0098000982003128003000
B1435494226684N07148998WA0098100986002090003000
B1435514226682N07149034WA0097900988002053003000
F1435510328010714081719212230
B1435534226670N07149068WA0097700986002062003000
F143553032801071314081719212230
B1435554226651N07149100WA0097500983002074003000
B1435574226627N07149128WA0097800982002055003000
B1435594226598N07149152WA0097900985002036003000
F143600032801510713140817192122
B1436014226567N07149170WA0098900987002027003000
B1436034226535N07149184WA0099800999002018003000
B1436054226504N07149196WA0100201006002009003000
B1436074226473N07149208WA0100301009002013003000
B1436094226443N07149220WA0100001007002036003000
B1436114226412N07149232WA0099801004002057003000
B1436134226379N07149241WA0100301005002053003000
B1436154226345N07149248WA0101101011002032003000
B1436174226311N07149254WA0101501019002015003000
B1436194226277N07149263WA0101501020002009003000
B1436214226251N07149288WA0102001023002011003000
B1436234226239N07149325WA0102801028002034003000
B1436254226241N07149363WA0102601032002055003000
B1436274226254N07149398WA0102801032002043003000
B1436294226277N07149424WA0102801033002036003000
B1436314226307N07149434WA0103301036002036003000
B1436334226338N07149423WA0104001041002022003000
B1436354226363N07149391WA0103801043002013003000
B1436374226375N07149341WA0103801042002022003000
B1436394226370N07149285WA0103601041002022003000
B1436414226349N07149236WA0103701040002009003000
B1436434226315N07149204WA0104601045002009003000
B1436454226277N07149197WA0105901056002011003000
B1436474226242N07149209WA0106001063002023003000
B1436494226216N07149237WA0106701067002034003000
B1436514226202N07149275WA0107301074002025003000
B1436534226199N07149315WA0107301078002022003000
B1436554226208N07149350WA0107601080002046003000
B1436574226227N07149375WA0108701087002055003000
B1436594226252N07149383WA0109001094002046003000
B1437014226279N07149370WA0108501093002069003000
B1437034226301N07149339WA0107401084002100003000
B1437054226316N07149290WA0107001074002107003000
B1437074226318N07149231WA0107301075002088003000
B1437094226309N07149173WA0107701078002053003000
B1437114226290N07149121WA0108201083002031003000
B1437134226259N07149081WA0109001089002020003000
B1437154226222N07149062WA0110201099002009003000
B1437174226185N07149065WA0110401107002009003000
B1437194226152N07149085WA0110601109002018003000
B1437214226129N07149118WA0111001112002015003000
B1437234226115N07149157WA0111601117002006003000
B1437254226114N07149198WA0112101123002002003000
B1437274226126N07149234WA0112001126002013003000
F143727032801071314081719212230
B1437294226151N07149256WA0112101126002043003000
B1437314226182N07149258WA0112001126002050003000
B1437334226213N07149239WA0112501126002060003000
B1437354226238N07149200WA0112501129002079003000
B1437374226255N07149150WA0112601131002062003000
B1437394226261N07149093WA0113101132002034003000
B1437414226253N07149035WA0113301135002018003000
B1437434226230N07148986WA0113701140002013003000
B1437454226195N07148956WA0114701146002009003000
F143745032801510713140817192122
B1437474226157N07148951WA0115701156002002003000
B1437494226125N07148969WA0116201164002002003000
B1437514226104N07149002WA0116801169002037003000
B1437534226097N07149040WA0117401174002067003000
B1437554226103N07149076WA0118101181002051003000
B1437574226120N07149103WA0118501187002027003000
B1437594226146N07149111WA0119501194002009003000
B1438014226173N07149093WA0120101202002000003000
B1438034226193N07149057WA0120301206002000003000
B1438054226200N07149010WA0120301206002002003000
B1438074226193N07148960WA0120601207002023003000
B1438094226170N07148917WA0120301207002037003000
B1438114226138N07148889WA0120901209002032003000
B1438134226102N07148882WA0121501215002018003000
B1438154226069N07148895WA0121501218002030003000
B1438174226049N07148927WA0121801219002067003000
B1438194226044N07148965WA0122301224002067003000
B1438214226052N07149000WA0122401228002036003000
B1438234226072N07149026WA0123101232002013003000
B1438254226101N07149034WA0124001240002002003000
B1438274226132N07149022WA0124701248002000003000
B1438294226159N07148993WA0124901253002000003000
B1438314226178N07148950WA0125201255002000003000
B1438334226181N07148899WA0125601259002020003000
B1438354226168N07148851WA0126401264002041003000
B1438374226146N07148811WA0126901271002039003000
B1438394226115N07148784WA0126701272002032003000
B1438414226080N07148774WA0127201274002013003000
B1438434226045N07148784WA0127501279002006003000
B1438454226018N07148810WA0127701281002016003000
B1438474226004N07148846WA0128001283002039003000
B1438494226005N07148884WA0128401287002046003000
B1438514226022N07148912WA0128901291002027003000
B1438534226051N07148920WA0129601298002011004000
B1438554226080N07148903WA0130201304002006004000
B1438574226100N07148867WA0130801310002009003000
B1438594226108N07148821WA0131101314002006003000
B1439014226101N07148773WA0131501318002004003000
B1439034226080N07148731WA0131501319002004003000
B1439054226049N07148703WA0131701321002002003000
B1439074226013N07148691WA0132401325002016003000
B1439094225978N07148695WA0133101332002037003000
B1439114225948N07148712WA0133501338002034003000
B1439134225926N07148738WA0134101344002022003000
B1439154225913N07148771WA0134501348002011003000
B1439174225910N07148805WA0134501351002002003000
B1439194225917N07148838WA0134501351002027004000
F143919032801510713140817194421
B1439214225933N07148864WA0134701353002060004000
B1439234225957N07148878WA0135201356002050004000
B1439254225986N07148878WA0135401360003027004000
B1439274226014N07148858WA0135901363003013004000
B1439294226034N07148818WA0136801371003004004000
B1439314226039N07148769WA0137401378003000004000
B1439334226028N07148722WA0137901384003000004000
B1439354226003N07148686WA0138201387003000004000
B1439374225970N07148671WA0138601390003015004000
B1439394225938N07148676WA0138601392003043004000
B1439414225909N07148696WA0138701392003048004000
B1439434225888N07148727WA0138401391003051004000
B1439454225876N07148765WA0138801391003053004000
B1439474225878N07148804WA0139101395003036004000
B1439494225894N07148835WA0139801401003025004000
B1439514225921N07148847WA0140301407003025004000
B1439534225950N07148839WA0140701411003046004000
B1439554225976N07148813WA0141301417003074004000
B1439574225992N07148775WA0142001423003081004000
B1439594225998N07148730WA0142501428003055004000
B1440014225992N07148684WA0142701431003025004000
B1440034225972N07148644WA0142601431003009004000
B1440054225941N07148620WA0142501431003004004000
B1440074225905N07148620WA0142801432003020004000
B1440094225875N07148640WA0143101435003053004000
B1440114225855N07148675WA0143501437003055004000
B1440134225852N07148714WA0143601440003034004000
B1440154225867N07148746WA0144301445003022004000
B1440174225893N07148762WA0144601451003029004000
F144017032801510713141719442122
F144018032801510713140817194421
B1440194225922N07148759WA0144901454003071004000
B1440214225949N07148737WA0144901454003109004000
B1440234225970N07148702WA0144801453003114004000
B1440254225981N07148656WA0145101454003088004000
F144025032801071314081719442122
B1440274225983N07148606WA0145501457003048004000
B1440294225972N07148557WA0145901461003025004000
B1440314225951N07148518WA0146101464003025004000
B1440334225920N07148493WA0146501468003062004000
B1440354225887N07148480WA0146401469003090004000
B1440374225851N07148475WA0146801471003072004000
B1440394225815N07148479WA0147301475003046004000
B1440414225782N07148494WA0147801482003029004000
B1440434225756N07148521WA0148001485003018004000
B1440454225741N07148556WA0148001486003020004000
B1440474225739N07148595WA0148301487003032004000
B1440494225749N07148629WA0148501492003034004000
B1440514225770N07148653WA0148301492003069004000
B1440534225797N07148661WA0147901487003125004000
B1440554225829N07148650WA0147401483003137004000
B1440574225858N07148623WA0147001479003132004000
B1440594225881N07148582WA0146701475003146004000
B1441014225898N07148532WA0146701473003155004000
B1441034225906N07148477WA0146701473003130004000
B1441054225909N07148421WA0147101474003085004000
B1441074225905N07148365WA0148201483003057004000
B1441094225894N07148314WA0149301493003048004000
B1441114225871N07148273WA0150701507003036004000
B1441134225839N07148250WA0151701519003018004000
B1441154225806N07148256WA0152601528003006004000
B1441174225785N07148283WA0153301534003006004000
B1441194225781N07148319WA0153301538003015004000
B1441214225793N07148351WA0153501540003018004000
B1441234225818N07148366WA0154001543003006004000
B1441254225847N07148359WA0154101545003002004000
B1441274225869N07148328WA0154301546003018004000
B1441294225877N07148284WA0154601548003029004000
B1441314225869N07148237WA0154901551003018004000
B1441334225846N07148199WA0155801557003002004000
B1441354225812N07148182WA0156501565003000004000
B1441374225778N07148191WA0157301573003000004000
B1441394225756N07148221WA0158101580003000004000
B1441414225753N07148261WA0158701587003000004000
B1441434225769N07148292WA0159101593003000004000
B1441454225796N07148304WA0159401598003000004000
B1441474225825N07148292WA0159401599003002004000
B1441494225846N07148258WA0159501598003041004000
B1441514225854N07148212WA0159501597003060004000
B1441534225845N07148163WA0160101602003036004000
B1441554225823N07148123WA0160801608003015004000
B1441574225790N07148101WA0161901617003006004000
B1441594225756N07148100WA0162601627003002004000
B1442014225727N07148120WA0163001632003000004000
F144201032801460713140817194421
B1442034225711N07148155WA0163501637003000004000
B1442054225712N07148193WA0164101643003000004000
B1442074225731N07148222WA0164601648003002004000
B1442094225758N07148232WA0165101654003002004000
B1442114225788N07148220WA0165601659003002004000
B1442134225812N07148191WA0165901663003000004000
B1442154225823N07148148WA0165901664003006004000
B1442174225817N07148100WA0166401666003009004000
B1442194225793N07148060WA0166701670003004004000
B1442214225761N07148039WA0167501676003000004000
B1442234225726N07148041WA0168101682003000004000
B1442254225702N07148068WA0168601688003000004000
B1442274225694N07148107WA0169101693003004004000
B1442294225705N07148142WA0169801699003009004000
B1442314225730N07148163WA0170601706003006004000
B1442334225760N07148162WA0171001713003000004000
B1442354225787N07148141WA0171201715003000004000
B1442374225804N07148102WA0171501716003000004000
B1442394225804N07148054WA0171801719003000004000
B1442414225788N07148010WA0172401723003000004000
B1442434225760N07147978WA0172601728003000004000
B1442454225727N07147967WA0172801730003000004000
B1442474225696N07147976WA0173101732003000004000
B1442494225672N07148003WA0173601736003025004000
B1442514225660N07148039WA0174201741003043004000
B1442534225659N07148077WA0174501746003043004000
B1442554225671N07148111WA0174701750003027004000
B1442574225695N07148132WA0175201755003009004000
B1442594225725N07148136WA0175601759003002004000
B1443014225754N07148120WA0175601761003006004000
B1443034225776N07148086WA0175601761003032004000
B1443054225785N07148040WA0175701761003055004000
B1443074225779N07147991WA0176301764003053004000
B1443094225759N07147949WA0176801770003039004000
B1443114225730N07147922WA0177201774003022004000
B1443134225696N07147914WA0177601777003006004000
B1443154225666N07147928WA0177601779003018004000
B1443174225646N07147959WA0178001780003034004000
B1443194225635N07147997WA0178201784003039004000
B1443214225638N07148038WA0178601788003057004000
B1443234225652N07148073WA0179001794003062004000
B1443254225676N07148096WA0179401798003041004000
B1443274225706N07148100WA0179701801003022004000
B1443294225735N07148085WA0179601802003032004000
B1443314225758N07148055WA0179301801003062004000
B1443334225771N07148013WA0179301798003090005000
B1443354225771N07147966WA0179701799003081005000
B1443374225757N07147921WA0179701802003062005000
B1443394225733N07147885WA0179801803003055005000
B1443414225701N07147856WA0179801803003039005000
B1443434225667N07147837WA0180001803003029005000
B1443454225631N07147827WA0180401806003060005000
B1443474225596N07147829WA0181101812003102005000
B1443494225565N07147842WA0181501818003102005000
B1443514225538N07147865WA0181501820003079005000
B1443534225518N07147897WA0181901822003081005000
B1443554225501N07147933WA0182201825003081005000
B1443574225487N07147972WA0182001826003053005000
B1443594225483N07148013WA0182301827003064005000
B1444014225492N07148051WA0182601830003085005000
B1444034225513N07148075WA0182701833003062005000
B1444054225541N07148082WA0182801834003067005000
B1444074225569N07148069WA0182501833003116005000
B1444094225595N07148047WA0182101828003151005000
B1444114225623N07148027WA0181101822003163005000
B1444134225654N07148011WA0180301813003158005000
B1444154225687N07147997WA0179501804003156005000
B1444174225723N07147985WA0179101800003158005000
B1444194225759N07147974WA0178701796003165005000
B1444214225796N07147960WA0178001789003151005000
B1444234225832N07147939WA0177601786003109005000
B1444254225869N07147918WA0177201781003093005000
B1444274225907N07147900WA0177001780003081005000
B1444294225945N07147886WA0177001779003051005000
B1444314225983N07147875WA0176801777003051005000
B1444334226020N07147865WA0176601775003074005000
B1444354226058N07147853WA0176401773003069005000
B1444374226095N07147842WA0176101771003062005000
B1444394226133N07147833WA0175201765003093005000
B1444414226171N07147823WA0174701759003128005000
B1444434226209N07147813WA0174001753003144005000
B1444454226248N07147803WA0173701747003146005000
B1444474226287N07147794WA0173301743003146005000
B1444494226326N07147785WA0173201741003139005000
B1444514226364N07147777WA0173201741003123005000
B1444534226402N07147771WA0173501743003104005000
B1444554226437N07147765WA0173301744003086005000
B1444574226473N07147764WA0173201742003086005000
B1444594226509N07147766WA0172601738003104004000
B1445014226545N07147772WA0171901732003109004000
B1445034226581N07147783WA0171801728003081004000
B1445054226617N07147799WA0171801727003055004000
B1445074226651N07147817WA0171901728003048004000
B1445094226686N07147834WA0172001729003053004000
B1445114226719N07147852WA0172401732003046004000
B1445134226751N07147868WA0172901737003036004000
B1445154226781N07147883WA0173301741003041004000
B1445174226810N07147898WA0173801746003041004000
B1445194226839N07147914WA0173801748003046004000
B1445214226866N07147932WA0173701748003048004000
B1445234226893N07147953WA0173101744003055004000
B1445254226918N07147976WA0173101741003095004000
B1445274226941N07148003WA0172701739003128004000
B1445294226960N07148034WA0172201736003142004000
B1445314226977N07148067WA0170801726003137004000
B1445334226996N07148103WA0169301712003097004000
B1445354227018N07148139WA0167801697003069004000
B1445374227046N07148172WA0167401686003069004000
B1445394227076N07148203WA0166901682003060004000
B1445414227108N07148233WA0167101680003034004000
B1445434227140N07148262WA0167101682003022004000
B1445454227172N07148290WA0167001682003020004000
B1445474227204N07148319WA0167001681003009004000
B1445494227236N07148348WA0166901679003000004000
B1445514227268N07148378WA0166801678003009004000
B1445534227300N07148410WA0167601681003025004000
B1445554227330N07148440WA0168701693003029004000
B1445574227359N07148468WA0168901699003020004000
B1445594227388N07148497WA0169501703003009004000
B1446014227416N07148526WA0169901709003018004000
B1446034227444N07148555WA0170001711003032004000
B1446054227472N07148585WA0170201712003022004000
B1446074227499N07148616WA0171301719003013004000
B1446094227526N07148646WA0172101729003011004000
B1446114227551N07148675WA0172501735003009004000
B1446134227576N07148705WA0173101740003011004000
B1446154227601N07148733WA0173501744003009004000
B1446174227625N07148762WA0174001749003002004000
B1446194227648N07148791WA0174201753003000004000
B1446214227670N07148819WA0174301754003018004000
B1446234227692N07148847WA0174301755003041004000
B1446254227714N07148875WA0173801753003039004000
B1446274227737N07148903WA0173601749003048004000
B1446294227759N07148931WA0173301746003081004000
B1446314227782N07148960WA0173701744003102004000
B1446334227805N07148991WA0174601751003097004000
B1446354227827N07149022WA0175301760003064004000
B1446374227852N07149048WA0176101768003029004000
B1446394227883N07149055WA0177601778003011004000
B1446414227911N07149033WA0178501790003002005000
B1446434227922N07148989WA0179301799003000005000
B1446454227910N07148943WA0179701803003000005000
B1446474227881N07148917WA0180301807003000005000
B1446494227848N07148917WA0181301815003000005000
B1446514227823N07148940WA0182201824003000005000
B1446534227812N07148975WA0183001832003000005000
B1446554227818N07149008WA0183501840003000005000
B1446574227837N07149028WA0183801844003000005000
B1446594227865N07149027WA0184101847003000005000
B1447014227890N07149003WA0184501850003000005000
B1447034227904N07148962WA0184601852003000005000
B1447054227900N07148914WA0185001855003009005000
B1447074227879N07148875WA0185601859003011005000
B1447094227848N07148854WA0186301866003000005000
B1447114227815N07148858WA0187101873003000005000
B1447134227791N07148883WA0187801880003000005000
B1447154227778N07148918WA0188401886003000005000
B1447174227781N07148954WA0188801892003000005000
B1447194227798N07148980WA0189301897003000005000
B1447214227825N07148987WA0189901902003000005000
B1447234227853N07148973WA0190101905003007005000
B1447254227872N07148939WA0190001905003048005000
B1447274227879N07148893WA0190101904003067005000
B1447294227870N07148846WA0190501905003053005000
B1447314227848N07148807WA0190801910003041005000
B1447334227819N07148779WA0191301914003022005000
B1447354227785N07148768WA0192301921003009005000
B1447374227755N07148780WA0192501928003002005000
B1447394227737N07148811WA0193201934003000005000
B1447414227739N07148848WA0193901940003000005000
B1447434227758N07148874WA0194201945003000005000
B1447454227785N07148878WA0194701950003000005000
B1447474227812N07148856WA0194701952003000005000
B1447494227827N07148814WA0194701952003000005000
B1447514227826N07148764WA0195101953003000005000
B1447534227806N07148721WA0195501956003000005000
B1447554227773N07148699WA0196101962003000005000
B1447574227739N07148702WA0196901969003000005000
B1447594227712N07148724WA0197401975003000005000
B1448014227697N07148760WA0197801981003000005000
B1448034227700N07148797WA0198101985003000005000
B1448054227721N07148822WA0198401988003000005000
B1448074227750N07148823WA0198901991003000005000
B1448094227777N07148798WA0199101995003023005000
B1448114227794N07148756WA0199201997003036005000
B1448134227797N07148706WA0199702000003025005000
B1448154227784N07148658WA0199902003003018005000
B1448174227757N07148625WA0200202005003020005000
B1448194227723N07148613WA0200902009003020005000
B1448214227690N07148622WA0201302015003022005000
B1448234227664N07148648WA0201702018003022005000
B1448254227651N07148686WA0201802022003011005000
B1448274227655N07148725WA0202302026003002005000
B1448294227674N07148752WA0202602030003000005000
F144830032801071314081719442122
B1448314227703N07148756WA0202702031003004005000
B1448334227732N07148735WA0202902032003020005000
B1448354227753N07148694WA0202902033003053005000
B1448374227757N07148643WA0203202033003060005000
B1448394227742N07148594WA0203402036003046005000
B1448414227715N07148558WA0204102041003043005000
B1448434227680N07148536WA0204902049003029005000
B1448454227644N07148529WA0205702057003009005000
B1448474227613N07148546WA0206302065003000005000
B1448494227599N07148581WA0206702070003000005000
B1448514227607N07148616WA0207202075003000005000
B1448534227632N07148633WA0207702080003000005000
B1448554227660N07148623WA0207902082003018005000
B1448574227682N07148591WA0207902083003050005000
B1448594227694N07148547WA0208102084003058005000
B1449014227692N07148498WA0208402085003044005000
B1449034227675N07148452WA0209002090003032005000
B1449054227647N07148423WA0209802097003018005000
B1449074227614N07148418WA0210302104003004005000
B1449094227588N07148435WA0210502107003000005000
B1449114227574N07148468WA0210902110003002005000
B1449134227575N07148505WA0211002113003006005000
B1449154227594N07148530WA0211702116003004005000
B1449174227623N07148533WA0211902120003000005000
B1449194227650N07148513WA0212202124003025005000
B1449214227667N07148474WA0212502126003057005000
B1449234227667N07148427WA0212802128003062005000
B1449254227652N07148382WA0213302131003053005000
B1449274227626N07148347WA0213902137003034005000
B1449294227595N07148324WA0214302144003020005000
B1449314227562N07148316WA0214602147003018005000
B1449334227531N07148323WA0214802148003027005000
B1449354227508N07148345WA0214702149003050005000
B1449374227494N07148375WA0214802150003050005000
B1449394227492N07148410WA0214902151003027005000
B1449414227500N07148442WA0214902153003020005000
B1449434227513N07148471WA0214902155003030005000
B1449454227530N07148499WA0214902155003037005000
B1449474227548N07148523WA0214202152003060005000
B1449494227570N07148546WA0213402145003104005000
B1449514227598N07148564WA0213102141003133005000
B1449534227628N07148578WA0212402136003149005000
B1449554227660N07148590WA0211602127003158005000
B1449574227694N07148600WA0211002120003132005000
B1449594227729N07148609WA0210302114003118005000
B1450014227766N07148614WA0210002110003120005000
B1450034227803N07148618WA0209602107003099005000
B1450054227842N07148621WA0209002102003078005000
B1450074227881N07148623WA0208702098003055005000
B1450094227920N07148625WA0208402096003048005000
B1450114227959N07148627WA0208802096003048005000
B1450134227997N07148627WA0209502102003039005000
B1450154228033N07148626WA0210002108003039005000
B1450174228068N07148624WA0209802109003043005000
B1450194228102N07148622WA0209702108003039005000
B1450214228136N07148621WA0209302106003039005000
B1450234228170N07148622WA0209302104003055005000
B1450254228203N07148623WA0208802101003062005000
B1450274228237N07148625WA0208002094003083005000
B1450294228272N07148627WA0207002085003109005000
B1450314228308N07148629WA0206002075003114005000
B1450334228346N07148631WA0205102065003130005000
B1450354228386N07148633WA0204602058003139005000
B1450374228425N07148636WA0203602051003121005000
B1450394228466N07148638WA0203002043003097005000
B1450414228507N07148640WA0202302036003081005000
B1450434228550N07148642WA0202102032003069005000
B1450454228592N07148644WA0201702028003051005000
B1450474228635N07148646WA0201602026003029005000
B1450494228678N07148649WA0201402025003022005000
B1450514228720N07148651WA0201002022003034005000
B1450534228762N07148653WA0200702019003036005000
B1450554228804N07148655WA0200602017003027005000
B1450574228846N07148657WA0200702017003032005000
B1450594228887N07148658WA0201202018003037005000
B1451014228926N07148659WA0201702024003039005000
B1451034228964N07148659WA0201802028003032005000
B1451054229001N07148658WA0201802027003034005000
B1451074229038N07148658WA0201602026003069005000
B1451094229075N07148658WA0201302023003100005000
B1451114229113N07148659WA0201402021003102005000
B1451134229150N07148659WA0201702024003078005000
B1451154229186N07148660WA0201702026003069005000
B1451174229222N07148662WA0201702027003090005000
B1451194229259N07148664WA0201102024003109005000
B1451214229296N07148665WA0200802019003111005000
B1451234229333N07148667WA0201102019003083005000
B1451254229370N07148672WA0201002020003055005000
B1451274229405N07148683WA0201202021003048005000
B1451294229437N07148699WA0201002021003048005000
B1451314229469N07148718WA0200602018003072005000
B1451334229501N07148737WA0200102014003118005000
B1451354229534N07148756WA0199502008003156005000
B1451374229569N07148774WA0199002002003176005000
B1451394229605N07148791WA0198101996003186005000
B1451414229642N07148809WA0197501988003183005000
B1451434229680N07148826WA0197301984003163005000
B1451454229718N07148843WA0197701986003118005000
B1451474229754N07148863WA0198201989003086005000
B1451494229787N07148885WA0198101992003071005000
B1451514229820N07148906WA0197701990003053005000
B1451534229852N07148925WA0197201985003027005000
B1451554229886N07148943WA0196601979003006005000
B1451574229919N07148961WA0196701976003002005000
B1451594229953N07148978WA0196401975003018005000
B1452014229987N07148995WA0196301974003041005000
B1452034230021N07149010WA0196201973003036005000
B1452054230054N07149025WA0196001971003048005000
B1452074230087N07149039WA0195701969003090005000
B1452094230121N07149053WA0195401966003114005000
B1452114230154N07149065WA0195001962003123005000
B1452134230188N07149077WA0194501958003118005000
B1452154230222N07149090WA0193601951003128005000
B1452174230257N07149103WA0193201944003144005000
B1452194230293N07149117WA0192701940003142005000
B1452214230329N07149131WA0192401936003130005000
B1452234230366N07149146WA0192101933003116005000
B1452254230403N07149161WA0191801930003118005000
B1452274230441N07149176WA0191101926003125005000
B1452294230479N07149192WA0190601921003109005000
B1452314230517N07149208WA0190501917003076005000
B1452334230555N07149223WA0190101915003046005000
B1452354230593N07149238WA0189501910003022005000
B1452374230631N07149253WA0189101905003011005000
B1452394230669N07149268WA0188601900003004005000
B1452414230708N07149283WA0188101895003000005000
B1452434230746N07149297WA0187901892003000005000
B1452454230785N07149312WA0187301888003000005000
B1452474230823N07149327WA0186901883003000005000
B1452494230862N07149341WA0186501878003000005000
B1452514230901N07149354WA0186001874003000005000
B1452534230940N07149366WA0185101868003006005000
B1452554230980N07149376WA0184901862003015005000
B1452574231021N07149386WA0184801860003006005000
B1452594231061N07149396WA0184801860003000005000
B1453014231101N07149407WA0184501858003000005000
B1453034231140N07149419WA0184201855003000005000
B1453054231180N07149430WA0183801852003000005000
B1453074231219N07149442WA0183601848003000005000
B1453094231258N07149454WA0183301845003000005000
B1453114231298N07149468WA0182901842003000005000
B1453134231337N07149482WA0182701840003000005000
B1453154231376N07149496WA0182401838003000005000
B1453174231415N07149511WA0182301835003000005000
B1453194231453N07149526WA0181901832003004005000
B1453214231492N07149540WA0181401828003011005000
B1453234231530N07149555WA0181001824003004005000
B1453254231569N07149568WA0180401819003011005000
B1453274231607N07149582WA0180201814003027005000
B1453294231645N07149596WA0179801811003034005000
B1453314231683N07149610WA0179401807003041005000
B1453334231721N07149624WA0179001802003043005000
B1453354231759N07149638WA0178501798003032005000
B1453374231798N07149651WA0178001793003015005000
B1453394231836N07149663WA0177601789003011005000
B1453414231875N07149676WA0177001784003025005000
B1453434231913N07149688WA0176801780003029005000
B1453454231951N07149700WA0176201776003015005000
B1453474231989N07149713WA0176001771003013005000
B1453494232027N07149725WA0175801769003013005000
B1453514232064N07149736WA0175301766003011005000
B1453534232101N07149748WA0175001762003020005000
B1453554232138N07149760WA0174301757003022005000
B1453574232175N07149772WA0173401750003011005000
B1453594232212N07149784WA0172101737003011005000
B1454014232252N07149799WA0171301726003027005000
B1454034232293N07149815WA0171401722003034005000
B1454054232334N07149831WA0171501725003027005000
B1454074232375N07149846WA0171901727003018005000
B1454094232414N07149861WA0172001730003006005000
B1454114232454N07149876WA0172001730003002005000
B1454134232494N07149890WA0173301737003002005000
B1454154232532N07149904WA0174701751003004005000
B1454174232568N07149917WA0175601763003009005000
B1454194232602N07149934WA0176201769003009005000
B1454214232630N07149962WA0176301774003009005000
B1454234232653N07149994WA0176301774003018005000
B1454254232677N07150024WA0176301774003032005000
B1454274232703N07150049WA0176501775003039005000
B1454294232731N07150068WA0176801777003043005000
B1454314232760N07150081WA0176701778003055005000
B1454334232791N07150086WA0176401776003095005000
B1454354232823N07150085WA0175901772003144005000
B1454374232856N07150081WA0175701768003172005000
B1454394232890N07150077WA0175701767003179005000
B1454414232924N07150074WA0175501765003174005000
B1454434232958N07150072WA0174901762003179005000
B1454454232993N07150072WA0173901754003193005000
B1454474233031N07150073WA0173101744003193005000
B1454494233070N07150074WA0172201735003172005000
B1454514233111N07150077WA0171901729003130005000
B1454534233153N07150081WA0171601726003107005000
B1454554233195N07150085WA0171701726003097005000
B1454574233237N07150090WA0171501725003074005000
B1454594233278N07150095WA0171301723003050005000
B1455014233320N07150101WA0171901724003031005000
B1455034233360N07150107WA0171901729003024005000
B1455054233399N07150114WA0171601729003018005000
B1455074233438N07150120WA0171101724003020005000
B1455094233476N07150127WA0170301717003036005000
B1455114233515N07150133WA0169601709003062005000
B1455134233554N07150141WA0169001702003076005000
B1455154233593N07150149WA0168301695003074005000
B1455174233632N07150158WA0167501688003074005000
B1455194233672N07150166WA0166801681003074005000
B1455214233711N07150175WA0166201675003065005000
B1455234233751N07150183WA0165501668003050005000
B1455254233791N07150192WA0165101663003041005000
B1455274233831N07150199WA0165001660003032005000
B1455294233871N07150199WA0164801658003029005000
B1455314233912N07150187WA0164701655003029005000
F145531032801071408171944212230
B1455334233952N07150168WA0164501654003020005000
B1455354233992N07150146WA0164301652003029005000
B1455374234031N07150126WA0164001650003036005000
B1455394234072N07150112WA0163601646003018005000
B1455414234112N07150103WA0163401643003006005000
B1455434234153N07150100WA0163401642003002005000
B1455454234193N07150105WA0163601643003006005000
B1455474234233N07150113WA0163701644003009005000
B1455494234270N07150126WA0164801650003004005000
B1455514234304N07150144WA0165901661003013005000
B1455534234335N07150163WA0166201669003020005000
B1455554234365N07150182WA0166601672003020005000
B1455574234394N07150203WA0166901676003027005000
B1455594234422N07150225WA0167001678003032005000
B1456014234450N07150247WA0167501681003034005000
B1456034234478N07150268WA0168001685003034005000
B1456054234502N07150295WA0169001691003027005000
B1456074234520N07150329WA0169101697003015005000
B1456094234536N07150362WA0169601701003023005000
B1456114234555N07150390WA0169701703003034005000
B1456134234577N07150412WA0169301702003055005000
B1456154234601N07150430WA0168801697003102005000
B1456174234627N07150447WA0167901690003137005000
B1456194234656N07150461WA0166901682003160005000
B1456214234687N07150474WA0166101673003174005000
B1456234234719N07150486WA0165401665003163005000
B1456254234753N07150498WA0164901659003139005000
B1456274234787N07150510WA0164401654003139005000
B1456294234822N07150520WA0163701648003153005000
B1456314234857N07150533WA0163101643003123005000
B1456334234892N07150548WA0162601637003076005000
B1456354234927N07150565WA0162401632003064005000
B1456374234961N07150583WA0161901630003069005000
B1456394234995N07150601WA0161701627003076005000
B1456414235029N07150620WA0161501624003069005000
B1456434235062N07150639WA0161201622003060005000
B1456454235095N07150658WA0160801619003060005000
B1456474235128N07150679WA0160601616003057005000
B1456494235159N07150701WA0160701615003053005000
B1456514235189N07150724WA0160601615003053005000
B1456534235218N07150745WA0160501615003046005000
B1456554235248N07150766WA0160201613003043005000
B1456574235277N07150786WA0159701608003057005000
B1456594235307N07150805WA0159401604003065005000
B1457014235337N07150825WA0159401602003060005000
B1457034235366N07150844WA0159701604003053005000
B1457054235394N07150863WA0160101607003072005000
B1457074235422N07150881WA0160601611003111005000
B1457094235448N07150899WA0161001614003142005000
B1457114235472N07150919WA0160201612003149005000
B1457134235499N07150938WA0160301610003123005000
B1457154235527N07150955WA0160401611003081005000
B1457174235556N07150967WA0160501612003071005000
B1457194235587N07150968WA0160701612003102005000
B1457214235619N07150958WA0160301612003130005000
B1457234235651N07150939WA0159801607003125005000
B1457254235682N07150917WA0159301602003114005000
B1457274235714N07150900WA0159101597003128005000
F1457280328010714171944212230
B1457294235747N07150898WA0158601593003118005000
F145730032801071408171944212230
B1457314235779N07150907WA0157201584003085005000
B1457334235810N07150925WA0155701570003088005000
B1457354235840N07150951WA0154801559003123005000
B1457374235871N07150982WA0154201552003139005000
B1457394235899N07151016WA0153701546003107005000
B1457414235925N07151052WA0153501544003076005000
B1457434235950N07151089WA0152901540003074005000
B1457454235976N07151126WA0152401534003069005000
B1457474236002N07151163WA0152401530003053005000
B1457494236029N07151202WA0153201534003036005000
B1457514236054N07151240WA0153901544003029005000
B1457534236078N07151278WA0154001548003024005000
B1457554236101N07151315WA0154201548003018005000
B1457574236124N07151349WA0153701547003015005000
B1457594236147N07151383WA0153001542003041005000
B1458014236172N07151416WA0152301534003093005000
B1458034236197N07151449WA0151501526003107005000
B1458054236223N07151483WA0150601518003076005000
B1458074236251N07151516WA0149901509003060005000
B1458094236279N07151549WA0149401504003055005000
B1458114236309N07151581WA0148901500003044005000
B1458134236338N07151615WA0148701496003027005000
B1458154236367N07151649WA0149201497003013005000
B1458174236395N07151682WA0149701502003023005000
B1458194236421N07151713WA0150501509003032005000
B1458214236445N07151742WA0150501512003025005000
B1458234236468N07151770WA0150201511003022005000
B1458254236490N07151801WA0149801507003050005000
B1458274236512N07151833WA0149101501003095005000
B1458294236534N07151867WA0148701495003120005000
B1458314236555N07151903WA0148901495003118005000
B1458334236575N07151942WA0149001497003083005000
B1458354236594N07151980WA0149401499003057005000
B1458374236612N07152018WA0149801503003046005000
B1458394236629N07152055WA0149701505003034005000
B1458414236645N07152093WA0149301503003020005000
B1458434236661N07152130WA0149101501003041005000
B1458454236679N07152165WA0148801496003095005000
B1458474236699N07152201WA0148001491003116005000
B1458494236719N07152237WA0147601485003114005000
B1458514236741N07152274WA0147601483003125005000
B1458534236763N07152310WA0147701483003140005000
B1458554236785N07152348WA0147901485003121005000
B1458574236808N07152385WA0148601491003083005000
B1458594236830N07152420WA0149001496003050005000
B1459014236851N07152454WA0148901498003027005000
B1459034236872N07152487WA0148601496003032005000
B1459054236894N07152518WA0148301492003048005000
B1459074236918N07152549WA0147701487003044005000
B1459094236940N07152582WA0146901479003058005000
B1459114236960N07152619WA0145801470003067005000
B1459134236977N07152661WA0144901460003046005000
B1459154236994N07152705WA0144101451003034005000
B1459174237011N07152750WA0144001448003034005000
B1459194237026N07152797WA0144901451003034005000
B1459214237040N07152842WA0145101457003027005000
B1459234237053N07152886WA0144801458003039005000
B1459254237066N07152929WA0143501450003071005000
B1459274237080N07152975WA0143001439003071005000
B1459294237093N07153021WA0142701436003064004000
B1459314237107N07153067WA0142201432003079004000
B1459334237121N07153111WA0141901428003074004000
B1459354237136N07153156WA0140901422003069004000
B1459374237151N07153201WA0140001413003072004000
B1459394237166N07153246WA0139001403003057004000
B1459414237184N07153290WA0137701391003034004000
B1459434237207N07153334WA0136401378003022004000
B1459454237233N07153377WA0136001370003036004000
B1459474237262N07153417WA0136201369003041004000
B1459494237291N07153455WA0136701372003027004000
B1459514237319N07153489WA0136801375003027004000
B1459534237347N07153522WA0136601374003027004000
B1459554237375N07153556WA0136201371003034004000
B1459574237402N07153590WA0135601367003060004000
B1459594237430N07153623WA0135301362003088004000
B1500014237460N07153654WA0134601357003097004000
B1500034237491N07153686WA0133801350003076004000
B1500054237522N07153720WA0133001341003060004000
B1500074237552N07153758WA0132501334003062004000
B1500094237583N07153797WA0132901333003062004000
B1500114237610N07153837WA0133601341003053004000
B1500134237634N07153876WA0133501343003034004000
B1500154237653N07153919WA0133101341003027004000
B1500174237669N07153965WA0132701336003058004000
B1500194237684N07154011WA0131901330003095004000
B1500214237700N07154056WA0131301323003109004000
B1500234237716N07154102WA0131001319003102004000
B1500254237734N07154146WA0130801316003093004000
B1500274237754N07154189WA0130301312003088004000
B1500294237774N07154233WA0130201309003083004000
B1500314237793N07154278WA0130401309003084004000
B1500334237810N07154323WA0131201315003072004000
B1500354237827N07154367WA0132501326003048004000
B1500374237840N07154411WA0133301336003034004000
B1500394237841N07154456WA0134501345003022004000
B1500414237822N07154494WA0135801357003020004000
F1500410328010714081719212230
B1500434237788N07154514WA0136001366003025005000
B1500454237749N07154516WA0136201367003022005000
B1500474237710N07154497WA0136201368003039005000
B1500494237677N07154456WA0136501371003048005000
B1500514237659N07154400WA0136801373003034005000
B1500534237660N07154342WA0137001376003034005000
B1500554237673N07154289WA0136801376003036005000
B1500574237695N07154245WA0136901377003041005000
B1500594237722N07154212WA0136901377003074005000
B1501014237754N07154192WA0137101379003109005000
B1501034237786N07154189WA0137501382003097005000
B1501054237817N07154200WA0137901386003058005000
B1501074237839N07154228WA0138201390003032005000
B1501094237844N07154269WA0139101396003018005000
B1501114237827N07154306WA0139701403003011005000
B1501134237794N07154321WA0140101408003020005000
F15011403280107140817212230
B1501154237757N07154305WA0140201411003034005000
F1501150328010714081719212230
B1501174237731N07154264WA0140301411003051005000
B1501194237720N07154210WA0140201410003081005000
B1501214237722N07154155WA0140101409003078005000
B1501234237740N07154107WA0140401413003046005000
B1501254237768N07154076WA0140701415003025005000
B1501274237800N07154069WA0141001419003018005000
B1501294237823N07154092WA0141401423003034005000
B1501314237831N07154130WA0141501424003053005000
B1501334237819N07154171WA0141701425003046005000
B1501354237790N07154198WA0142001427003027005000
B1501374237752N07154201WA0142201430003022005000
F15013803280107140817212230
B1501394237715N07154178WA0142101429003043005000
F1501390328010714081719212230
B1501414237687N07154132WA0142001426003055005000
B1501434237673N07154073WA0141801424003057005000
B1501454237675N07154010WA0142101426003048005000
B1501474237689N07153952WA0142301429003032005000
F15014703280107141719212230
B1501494237714N07153906WA0142801433003025005000
B1501514237745N07153879WA0143301438003041005000
F1501520328010714081719212230
B1501534237778N07153873WA0143401441003090005000
F15015303280107141719212230
F1501540328010714081719212230
B1501554237809N07153883WA0143601443003111005000
B1501574237838N07153899WA0143901444003104005000
B1501594237867N07153918WA0144201448003102005000
B1502014237896N07153935WA0144201450003081005000
B1502034237926N07153949WA0144301451003072005000
B1502054237955N07153963WA0144301450003100005000
B1502074237986N07153976WA0143801449003109005000
B1502094238018N07153988WA0143901447003088005000
B1502114238050N07153999WA0144501450003060005000
B1502134238082N07154010WA0144401452003053005000
B1502154238111N07154030WA0144501452003055005000
B1502174238127N07154065WA0145001455003083005000
B1502194238123N07154106WA0145101456003109005000
B1502214238101N07154140WA0145101455003088005000
B1502234238070N07154164WA0145101456003074005000
B1502254238032N07154177WA0145401458003064005000
B1502274237991N07154174WA0145701461003043005000
B1502294237951N07154156WA0146401466003027005000
B1502314237923N07154115WA0147701476004018005000
B1502334237919N07154062WA0148701488003009005000
B1502354237935N07154020WA0149001496003004005000
B1502374237962N07154001WA0149201499003011005000
B1502394237989N07154008WA0149601501003013005000
B1502414238007N07154037WA0149801504003004005000
B1502434238007N07154076WA0150001506003004005000
B1502454237987N07154111WA0150601509003004005000
B1502474237953N07154128WA0150601512003000005000
B1502494237916N07154118WA0150801513003000005000
B1502514237885N07154081WA0151301515003000005000
B1502534237870N07154029WA0151801520003000005000
B1502554237874N07153974WA0152301527003000005000
F15025503280107141719212230
B1502574237894N07153931WA0152501531003000005000
B1502594237924N07153907WA0152501532003002005000
F1502590328010714081719212230
F15030003280107141719212230
B1503014237956N07153908WA0152701532003020005000
F1503010328010714081719212230
B1503034237982N07153933WA0152901535003025005000
B1503054237994N07153974WA0152701535003039005000
B1503074237985N07154018WA0152901533003076005000
B1503094237957N07154052WA0153501537003083005000
B1503114237919N07154066WA0153801542003057005000
B1503134237880N07154051WA0154201546003048005000
B1503154237852N07154010WA0154901550003064005000
B1503174237844N07153956WA0155501557003060005000
B1503194237854N07153906WA0155601563003032005000
B1503214237880N07153873WA0155701565003027005000
B1503234237912N07153865WA0156001566003043005000
B1503254237942N07153883WA0156601572003039005000
B1503274237959N07153919WA0156701574003048005000
B1503294237960N07153963WA0157001575003093005000
B1503314237943N07154005WA0157101578003104005000
B1503334237913N07154034WA0157101578003074005000
B1503354237876N07154042WA0157101577003055005000
B1503374237837N07154029WA0157201576003076005000
B1503394237803N07153998WA0157201577003109005000
B1503414237775N07153956WA0157301578003135005000
B1503434237756N07153904WA0157301578003132005000
B1503454237746N07153847WA0158101581003088005000
B1503474237745N07153790WA0158801589003050005000
B1503494237759N07153740WA0159601597003034005000
B1503514237788N07153715WA0160001605004020005000
B1503534237816N07153724WA0160001607004015005000
B1503554237828N07153759WA0159701604004041005000
B1503574237817N07153797WA0159701604004088005000
B1503594237791N07153824WA0160001603003125005000
B1504014237754N07153828WA0160201606003123005000
F15040203280114081719212230
B1504034237717N07153813WA0160601610003083005000
F1504040328010714081719212230
B1504054237684N07153780WA0161001613003055005000
B1504074237666N07153729WA0161601619004048005000
B1504094237666N07153674WA0161701624004039005000
F15040903280107141719212230
B1504114237685N07153630WA0161901627004022005000
B1504134237716N07153611WA0162401630004009005000
F1504130328010714081719212230
F15041403280107141719212230
B1504154237747N07153620WA0162401633004027005000
F1504150328010714081719212230
B1504174237766N07153651WA0162601634004076005000
B1504194237768N07153691WA0162801634004114005000
B1504214237754N07153729WA0163701640003109005000
B1504234237727N07153757WA0164101647003072005000
B1504254237694N07153771WA0164401649003039005000
B1504274237658N07153762WA0164201650003034005000
B1504294237628N07153728WA0164201648003060005000
B1504314237607N07153680WA0164201647004072005000
B1504334237591N07153625WA0164601650003053005000
B1504354237580N07153568WA0164501653003032005000
B1504374237576N07153509WA0164701653004018005000
F15043803280107141719212230
B1504394237592N07153461WA0165401659004018005000
B1504414237622N07153439WA0165701663004053005000
B1504434237653N07153445WA0165601664004086005000
F1504430328010714081719212230
B1504454237677N07153468WA0165301662004081005000
B1504474237691N07153506WA0165201660004095005000
B1504494237689N07153550WA0165801662004107005000
B1504514237672N07153587WA0166601666004093005000
B1504534237642N07153611WA0167001673003069005000
B1504554237604N07153619WA0166901674003044005000
B1504574237565N07153609WA0166901674004037005000
B1504594237525N07153585WA0167201675004037005000
B1505014237490N07153551WA0167801679004050005000
B1505034237459N07153507WA0168101684004076005000
B1505054237435N07153457WA0167801684004065005000
B1505074237419N07153402WA0167601683004055005000
B1505094237412N07153345WA0167301681004093005000
B1505114237413N07153287WA0167101678004125005000
B1505134237424N07153231WA0166701677004142005000
B1505154237442N07153179WA0166601674004142005000
B1505174237465N07153132WA0166601674004109005000
B1505194237492N07153091WA0166901675004085005000
B1505214237520N07153054WA0166901678004100005000
B1505234237551N07153022WA0166701677004105005000
B1505254237584N07152995WA0166701675004098005000
B1505274237619N07152972WA0166701676004114005000
B1505294237655N07152953WA0166501674004121005000
B1505314237692N07152940WA0166501672004095005000
B1505334237729N07152933WA0166701673003072005000
B1505354237766N07152931WA0166701674003048005000
B1505374237803N07152928WA0166901675004046005000
B1505394237840N07152927WA0167301679004067005000
B1505414237876N07152925WA0167901683004069005000
B1505434237911N07152927WA0168301687004057005000
B1505454237942N07152945WA0169101695004039005000
B1505474237963N07152977WA0169301699004027005000
B1505494237971N07153017WA0169801702004025005000
B1505514237958N07153054WA0170501708004020005000
B1505534237930N07153072WA0170801713004015005000
B1505554237896N07153061WA0171401717004011005000
B1505574237871N07153023WA0172401723004006005000
B1505594237862N07152974WA0172801730004002005000
B1506014237868N07152923WA0172901734004000005000
F15060103280107141719212230
B1506034237888N07152879WA0172801734004000005000
B1506054237917N07152850WA0172901735004000005000
F1506050328010714081719212230
B1506074237951N07152839WA0173301737004016005000
F15060703280107141719212230
F1506080328010714081719212230
B1506094237980N07152857WA0173401741004041005000
B1506114237994N07152891WA0173501741004074005000
B1506134237992N07152931WA0173301739004088005000
B1506154237976N07152967WA0173401740004081005000
B1506174237950N07152993WA0173401741004071005000
B1506194237917N07153005WA0173301740004055005000
B1506214237882N07152996WA0173201738004060005000
B1506234237847N07152971WA0173001736004067005000
B1506254237815N07152935WA0173101737004050005000
B1506274237787N07152889WA0173701740004032005000
B1506294237775N07152832WA0175101750004034005000
B1506314237786N07152779WA0176201762004048005000
B1506334237811N07152740WA0176401770004046005000
B1506354237841N07152719WA0176601773004029005000
B1506374237873N07152722WA0176601774004027005000
B1506394237897N07152747WA0176301772004029005000
B1506414237901N07152787WA0176401772004043005000
B1506434237885N07152823WA0176701773004046005000
B1506454237853N07152840WA0177201776004025005000
B1506474237817N07152831WA0177701781004027005000
B1506494237785N07152798WA0178101785004032005000
B1506514237766N07152747WA0178501788004018005000
B1506534237765N07152688WA0178901793004009005000
F15065403280107141719212230
B1506554237780N07152637WA0179301798004006005000
F150656280107141719212230
B1506574237811N07152607WA0179501802004006005000
B1506594237844N07152606WA0179801803004023005000
F15065903280107141719212230
B1507014237870N07152630WA0179401803004065005000
B1507034237881N07152668WA0179301801004109005000
F1507040328010714081719212230
B1507054237870N07152706WA0179401800004109005000
B1507074237842N07152731WA0179501801004074005000
B1507094237805N07152733WA0179901803004067005000
B1507114237768N07152710WA0180301807004071005000
B1507134237740N07152666WA0180801813004048005000
F15071303280114081719212230
B1507154237731N07152607WA0181201817004029005000
B1507174237745N07152553WA0182001823004043005000
F1507182801141719212230
B1507194237776N07152527WA0182601831004055005000
F150719280107141719212230
B1507214237807N07152536WA0182801835004041005000
F15072103280107141719212230
B1507234237822N07152570WA0183101838004029005000
F1507240328010714081719212230
B1507254237815N07152607WA0183201839004036005000
B1507274237791N07152635WA0183301840004039005000
B1507294237756N07152644WA0183601843004025005000
B1507314237720N07152633WA0183901846004011005000
B1507334237686N07152604WA0184001847004020005000
B1507354237663N07152558WA0184001848004067005000
B1507374237659N07152503WA0184801850004100005000
B1507394237674N07152453WA0184401853004104005000
B1507414237700N07152413WA0183501848004109005000
B1507434237733N07152383WA0182701840004095005000
B1507454237771N07152360WA0182001834004090005000
B1507474237813N07152341WA0181301825004109005000
B1507494237857N07152327WA0180401818004128005000
B1507514237902N07152317WA0180001812004132005000
B1507534237947N07152309WA0179501807004123005000
B1507554237993N07152303WA0178901800004104005000
B1507574238038N07152298WA0179101798004076005000
B1507594238082N07152291WA0179101801004053005000
B1508014238125N07152284WA0179101799004036005000
B1508034238166N07152278WA0179301801004029005000
B1508054238206N07152272WA0179201802004020005000
B1508074238245N07152265WA0179101800004011005000
B1508094238283N07152257WA0178801798004020005000
B1508114238321N07152249WA0178901796004034005000
B1508134238359N07152242WA0178701795004032005000
B1508154238397N07152235WA0178301792004025005000
B1508174238434N07152227WA0178001788004046005000
B1508194238472N07152219WA0177401783004079005000
B1508214238510N07152212WA0177501781004097005000
B1508234238547N07152206WA0177801782004121005000
B1508254238585N07152201WA0177501782004137005000
B1508274238622N07152193WA0176901777004118005000
B1508294238660N07152179WA0176601772004074005000
B1508314238699N07152164WA0176601771004043005000
B1508334238738N07152150WA0176801772004034005000
B1508354238776N07152136WA0177101774004025005000
B1508374238815N07152124WA0176901776004032005000
B1508394238853N07152114WA0176601773004064005000
B1508414238891N07152104WA0176301771004081005000
B1508434238930N07152096WA0176801771004064005000
B1508454238967N07152089WA0176601772004043005000
B1508474239004N07152085WA0176501771004029005000
B1508494239039N07152090WA0176601771004032005000
B1508514239072N07152103WA0176701771004055005000
B1508534239104N07152119WA0176301770004069005000
B1508554239136N07152136WA0176301769004050005000
B1508574239167N07152153WA0176501771004039005000
B1508594239199N07152170WA0176701772004041005000
B1509014239230N07152189WA0177101776004034005000
B1509034239260N07152209WA0177601780004027005000
B1509054239288N07152229WA0177201782004027005000
B1509074239318N07152248WA0177201779004036005000
B1509094239349N07152267WA0177101779004048005000
B1509114239381N07152285WA0177001778004055005000
B1509134239413N07152304WA0176501775004055005000
B1509154239448N07152322WA0175901771004048005000
B1509174239483N07152338WA0176601771004029005000
B1509194239518N07152352WA0177201777004015005000
B1509214239553N07152349WA0178001783004013005000
B1509234239580N07152312WA0178901792004013005000
B1509254239589N07152257WA0179501799004044005000
B1509274239579N07152202WA0179301800004093005000
B1509294239553N07152156WA0179101798004116005000
B1509314239517N07152123WA0178601794004132005000
B1509334239476N07152103WA0178201790004132005000
B1509354239434N07152093WA0178201788004090005000
B1509374239391N07152098WA0178101786004064005000
B1509394239357N07152124WA0178201787004086005000
B1509414239331N07152163WA0178201787004123005000
B1509434239312N07152207WA0178301787004142005000
B1509454239297N07152254WA0178401789004130005000
B1509474239286N07152302WA0178501790004118005000
B1509494239283N07152351WA0178401791004090005000
B1509514239286N07152399WA0178501791003050005000
F150951032801060714081719212230
B1509534239291N07152445WA0178501791003051005000
B1509554239297N07152491WA0178701793003086005000
B1509574239305N07152535WA0179401798003085005000
B1509594239313N07152578WA0179801803003057005000
B1510014239322N07152619WA0180001806003043005000
B1510034239334N07152657WA0179501805003036005000
B1510054239350N07152690WA0178601798003036005000
B1510074239374N07152713WA0177801789003036005000
B1510094239404N07152723WA0176901782003062005000
B1510114239438N07152725WA0176301775003092005000
B1510134239473N07152721WA0176001770003090005000
B1510154239508N07152715WA0175001764003079005000
B1510174239543N07152705WA0174201755003069005000
B1510194239579N07152693WA0173701747003060005000
B1510214239616N07152679WA0172901740003046005000
B1510234239653N07152664WA0172001732003037005000
B1510254239690N07152648WA0171401724003058005000
B1510274239729N07152632WA0170501717003095005000
B1510294239769N07152615WA0169401708003093005000
B1510314239809N07152597WA0168801699003072005000
B1510334239851N07152580WA0168001693004069006000
B1510354239893N07152563WA0167701687004060006000
B1510374239934N07152546WA0167201683004050006000
B1510394239976N07152528WA0166601677004050006000
B1510414240018N07152508WA0166001670004055006000
B1510434240060N07152487WA0165301663004055006000
B1510454240102N07152466WA0164701658004041006000
B1510474240144N07152443WA0164101652004025006000
B1510494240186N07152419WA0163801647004027006000
B1510514240228N07152397WA0163101643004037006000
B1510534240270N07152377WA0162901637004037006000
B1510554240313N07152358WA0163901642004037006000
B1510574240354N07152339WA0164601651004032006000
B1510594240394N07152320WA0165301657004027006000
B1511014240432N07152303WA0165401660004027006000
B1511034240470N07152298WA0165901663004018006000
B1511054240507N07152301WA0166301666004004006000
B1511074240543N07152306WA0166401670004000006000
B1511094240578N07152311WA0167101674004000006000
B1511114240613N07152316WA0166701676004013006000
B1511134240647N07152319WA0166101672004029006000
B1511154240683N07152319WA0165501666004050006000
B1511174240719N07152316WA0164801658004074006000
B1511194240757N07152314WA0164001651004079006000
B1511214240794N07152319WA0163401643004074006000
B1511234240831N07152329WA0162501635004069006000
B1511254240869N07152341WA0161501627004083006000
B1511274240908N07152354WA0160601618004088006000
B1511294240947N07152366WA0160301611004064006000
B1511314240986N07152379WA0159701608004041006000
B1511334241024N07152392WA0159301603004020006000
B1511354241062N07152404WA0158901599004013006000
B1511374241099N07152416WA0158601595004027006000
B1511394241136N07152430WA0158901596004027006000
B1511414241173N07152443WA0159001598004015006000
B1511434241207N07152458WA0159101600004025006000
B1511454241241N07152476WA0158701598004039006000
B1511474241275N07152495WA0158201593004034006000
B1511494241309N07152513WA0158601592004029006000
B1511514241342N07152529WA0158801596004029006000
B1511534241374N07152543WA0158801597004025006000
B1511554241406N07152557WA0158401594004025006000
B1511574241436N07152572WA0157601587004032006000
B1511594241466N07152591WA0156301577004037006000
B1512014241496N07152614WA0155701568004037006000
B1512034241526N07152639WA0155001562004037006000
B1512054241557N07152664WA0154301555004034006000
B1512074241589N07152688WA0153701548004034006000
B1512094241622N07152711WA0152901540004058006000
B1512114241658N07152732WA0152301535004071006000
B1512134241695N07152751WA0151601529004050006000
B1512154241732N07152770WA0151001521004029006000
B1512174241767N07152794WA0150601516004025006000
B1512194241799N07152825WA0150201513004022006000
B1512214241828N07152858WA0150901514004015006000
B1512234241854N07152889WA0151401521004013006000
B1512254241879N07152918WA0150901521004022006000
B1512274241904N07152946WA0149901513004032006000
B1512294241930N07152975WA0148801501004041006000
B1512314241957N07153006WA0148601495004065006000
B1512334241984N07153039WA0148001491004067006000
B1512354242007N07153076WA0147601485004046006000
B1512374242028N07153116WA0147201483004037006000
B1512394242047N07153157WA0146601478004034006000
B1512414242065N07153199WA0145901471004034006000
B1512434242081N07153241WA0145201464004037006000
B1512454242095N07153286WA0144601458004034006000
B1512474242108N07153331WA0144401454004029006000
B1512494242120N07153377WA0143901451004032006000
B1512514242133N07153422WA0143301445004027006000
B1512534242149N07153466WA0142501437004025006000
B1512554242162N07153511WA0142001431004041006000
B1512574242170N07153560WA0142201429004043006000
B1512594242172N07153610WA0142101429004039006000
B1513014242175N07153659WA0142201429004053006000
B1513034242181N07153705WA0142201430004064006000
B1513054242191N07153749WA0142501432004051006000
B1513074242200N07153792WA0143001436004036006000
B1513094242209N07153833WA0143201440004036006000
B1513114242216N07153874WA0143501442004029006000
B1513134242224N07153914WA0143701445004018006000
B1513154242231N07153954WA0144001448004018006000
B1513174242238N07153992WA0144401450004029006000
B1513194242245N07154030WA0144601452004039006000
B1513214242252N07154068WA0144601455004050006000
B1513234242260N07154104WA0144901456004057006000
B1513254242269N07154140WA0144901457004048006000
B1513274242277N07154175WA0145201458004046006000
B1513294242287N07154210WA0145501462004046006000
B1513314242296N07154246WA0145701463004034006000
B1513334242289N07154282WA0146901470004027006000
B1513354242263N07154299WA0148201483004027006000
F1513360328010714081719212230
B1513374242231N07154286WA0148901492004018006000
B1513394242206N07154247WA0148801494004011006000
F15133903280114081719212230
F1513400328010614081719212230
B1513414242198N07154194WA0148401493004022006000
B1513434242208N07154144WA0148801494004022006000
F151344032801060714081719212230
B1513454242234N07154114WA0148801496004020006000
B1513474242263N07154113WA0149101499004034006000
B1513494242285N07154135WA0148901499004034006000
B1513514242290N07154170WA0148601496004022006000
B1513534242273N07154203WA0148601493004036006000
B1513554242241N07154217WA0148701494004069006000
B1513574242203N07154212WA0148901495004074006000
B1513594242165N07154188WA0149101496004053006000
B1514014242133N07154146WA0149501499004051006000
B1514034242113N07154092WA0149701503004086006000
F1514040328010614081719212230
B1514054242108N07154032WA0149601504004104006000
B1514074242119N07153977WA0149701505004102006000
F151407032801060714081719212230
B1514094242142N07153935WA0150001507004097006000
B1514114242172N07153911WA0150301510004081006000
B1514134242203N07153906WA0150501514004069006000
B1514154242230N07153918WA0150401514004083006000
B1514174242253N07153941WA0149901510004107006000
B1514194242268N07153974WA0149401504004088006000
B1514214242271N07154014WA0149201500004067006000
B1514234242261N07154052WA0149101498004076006000
B1514254242237N07154082WA0149001497004074006000
B1514274242205N07154097WA0149001497004072006000
B1514294242168N07154093WA0148901496004100006000
F1514300328010614081719212230
B1514314242130N07154073WA0149001496004118006000
B1514334242095N07154040WA0149001496004111006000
F151434032801060714081719212230
B1514354242067N07153994WA0149601498004109006000
B1514374242050N07153937WA0149901503004093006000
F1514370328010614081719212230
F151438032801060714081719212230
B1514394242049N07153879WA0150201507004069006000
B1514414242065N07153830WA0150301509004081006000
B1514434242091N07153800WA0150501511004114006000
B1514454242120N07153790WA0150401512004137006000
B1514474242148N07153798WA0150501512004118006000
B1514494242170N07153819WA0150501511004081006000
B1514514242187N07153848WA0150401512004067006000
B1514534242203N07153880WA0150301511004053006000
B1514554242215N07153914WA0149601508004043006000
B1514574242227N07153950WA0149301503004067006000
B1514594242237N07153987WA0148801499004097006000
B1515014242248N07154024WA0148101494004102006000
B1515034242260N07154062WA0147101485004085006000
B1515054242273N07154102WA0146701478004078006000
B1515074242287N07154143WA0146101473004102006000
B1515094242302N07154186WA0145501469004130006000
B1515114242316N07154231WA0145401463004128006000
B1515134242329N07154278WA0145201462004097006000
B1515154242343N07154324WA0145801464004067006000
B1515174242357N07154368WA0146101470004048006000
B1515194242370N07154412WA0146701475004029006000
B1515214242384N07154454WA0147301479004015006000
B1515234242398N07154494WA0147701484004015006000
B1515254242413N07154534WA0148201490004013006000
B1515274242428N07154571WA0148801495004004006000
B1515294242450N07154597WA0149301500004006006000
B1515314242481N07154592WA0150601508004018006000
B1515334242503N07154556WA0151501519004025006000
B1515354242507N07154505WA0151701524004048006000
B1515374242495N07154453WA0151801525004074006000
B1515394242468N07154412WA0151701524004093006000
B1515414242434N07154388WA0151601522004125006000
B1515434242397N07154384WA0151801522004146006000
B1515454242364N07154396WA0152301526004132006000
B1515474242338N07154419WA0152401529004090006000
B1515494242319N07154447WA0152801531004050006000
B1515514242308N07154478WA0153201535004034006000
B1515534242304N07154509WA0153201537004036006000
B1515554242305N07154540WA0153201537004032006000
B1515574242310N07154569WA0153201537004036006000
B1515594242321N07154596WA0153201537004072006000
B1516014242337N07154618WA0152801535004107006000
B1516034242356N07154639WA0152501533004121006000
B1516054242374N07154664WA0152401532004095006000
B1516074242391N07154691WA0152601533004053006000
B1516094242408N07154719WA0152901535004032006000
B1516114242423N07154748WA0153301538004027006000
B1516134242438N07154777WA0153701543004020006000
B1516154242453N07154807WA0154101547004009006000
B1516174242468N07154836WA0154101551004002006000
B1516194242488N07154857WA0154501552004004006000
B1516214242515N07154858WA0155301556004016006000
B1516234242540N07154839WA0155501561004032006000
B1516254242559N07154803WA0155801563004055006000
B1516274242567N07154755WA0155801565004067006000
B1516294242560N07154704WA0155801564004083006000
B1516314242540N07154656WA0156101565004088006000
B1516334242512N07154615WA0156201566004067006000
B1516354242477N07154587WA0156501568004060006000
B1516374242439N07154571WA0156801571004046006000
B1516394242400N07154570WA0156901573004034006000
B1516414242366N07154586WA0157101575004039006000
B1516434242338N07154611WA0157201576004039006000
B1516454242317N07154644WA0157701579004037006000
B1516474242303N07154680WA0158101583004027006000
B1516494242298N07154718WA0158501588004009006000
B1516514242306N07154751WA0158901592004013006000
B1516534242326N07154771WA0159301597004024006000
B1516554242352N07154770WA0159401599004025006000
B1516574242375N07154745WA0159301599004046006000
B1516594242388N07154701WA0159001597004088006000
B1517014242385N07154649WA0159101595004120006000
B1517034242367N07154600WA0159201595004130006000
B1517054242339N07154560WA0159701598004123006000
B1517074242304N07154529WA0160101602004099006000
B1517094242267N07154508WA0160201605004064006000
B1517114242228N07154499WA0160301606004039006000
B1517134242191N07154505WA0160301607004020006000
B1517154242156N07154523WA0160301609004020006000
B1517174242130N07154552WA0160401608004048006000
B1517194242115N07154589WA0160201607004079006000
B1517214242108N07154628WA0160001605004111006000
B1517234242111N07154667WA0160301607004127006000
B1517254242122N07154702WA0160401609004109006000
B1517274242138N07154731WA0160301610004078006000
B1517294242156N07154757WA0160401610004069006000
B1517314242175N07154782WA0160101610004090006000
B1517334242193N07154808WA0159901607004107006000
B1517354242211N07154835WA0159801606004104006000
B1517374242227N07154865WA0159801606004097006000
B1517394242243N07154897WA0159801606004079006000
B1517414242259N07154928WA0159701605004060006000
B1517434242275N07154961WA0159701604004055005000
F151743032801060746140817192122
B1517454242291N07154994WA0159901607004064005000
B1517474242307N07155028WA0160001608004060005000
B1517494242322N07155063WA0159901608004039005000
B1517514242338N07155096WA0159901608004027005000
B1517534242355N07155129WA0159901608004048005000
B1517554242372N07155160WA0159401606004088005000
B1517574242389N07155191WA0159101602004085005000
B1517594242407N07155222WA0159001599004064005000
B1518014242425N07155251WA0158901598004050005000
B1518034242444N07155281WA0159001598004058005000
B1518054242462N07155310WA0159101598004074005000
B1518074242481N07155338WA0159101601004055005000
B1518094242499N07155368WA0159701602004036005000
B1518114242517N07155397WA0159701606004043005000
B1518134242535N07155426WA0160001608004050005000
B1518154242554N07155455WA0160601612004041005000
B1518174242572N07155484WA0161301618004022005000
B1518194242589N07155513WA0162001626004011005000
B1518214242606N07155540WA0162401631004015005000
B1518234242624N07155567WA0162701634004027005000
B1518254242642N07155593WA0162801636004034005000
B1518274242661N07155619WA0162801637004041005000
B1518294242682N07155644WA0163001638004041005000
B1518314242703N07155670WA0164101643004029005000
B1518334242726N07155694WA0164501650004011005000
B1518354242756N07155697WA0165801658004009005000
B1518374242783N07155666WA0166601669004013005000
B1518394242792N07155617WA0166901675004016005000
B1518414242782N07155564WA0167401678004027005000
B1518434242756N07155521WA0167501681004029005000
B1518454242723N07155493WA0167301680004039005000
B1518474242686N07155480WA0167101677004076005000
B1518494242650N07155481WA0167301677004106005000
B1518514242617N07155494WA0167601681004097005000
B1518534242591N07155520WA0167801683004071005000
B1518554242577N07155555WA0168101686004064005000
B1518574242579N07155589WA0168701691004060005000
B1518594242593N07155617WA0169201696004036005000
B1519014242615N07155634WA0168901696004027005000
B1519034242643N07155620WA0169301697004034005000
B1519054242663N07155577WA0169601701004034005000
B1519074242661N07155521WA0170501706004020005000
B1519094242635N07155477WA0170901712004027005000
B1519114242595N07155463WA0171701716004039005000
B1519134242558N07155477WA0172201724004020005000
B1519154242535N07155512WA0172601728004004005000
B1519174242536N07155550WA0173301734004000005000
B1519194242558N07155569WA0173901742004002005000
B1519214242587N07155556WA0174201746004011005000
B1519234242606N07155515WA0174801750004015005000
B1519254242607N07155460WA0175201755004009005000
B1519274242585N07155411WA0176001761004002005000
B1519294242550N07155384WA0176301765004000005000
B1519314242511N07155387WA0176801769004000005000
B1519334242482N07155413WA0177001773004002005000
B1519354242468N07155450WA0177801779004011005000
B1519374242474N07155484WA0178701788004006005000
B1519394242495N07155502WA0179301795004000005000
B1519414242522N07155497WA0179201797004000005000
B1519434242546N07155468WA0179601798004000005000
B1519454242557N07155420WA0179901801004011005000
B1519474242546N07155367WA0180301804004020005000
B1519494242518N07155328WA0180601809004011005000
B1519514242481N07155313WA0180901812004013005000
F151952032801074614081719212230
B1519534242447N07155326WA0181201815004025005000
B1519554242424N07155357WA0181801818004029005000
F151955032801060746140817192122
B1519574242414N07155394WA0182401826004020005000
B1519594242422N07155427WA0182901831004004005000
B1520014242444N07155439WA0183001835004013005000
B1520034242470N07155425WA0183201836004043005000
B1520054242489N07155390WA0183101835004069005000
B1520074242493N07155341WA0183401837004081005000
B1520094242480N07155290WA0183501839004079005000
B1520114242456N07155247WA0183601839004083005000
B1520134242422N07155220WA0184001841004088005000
B1520154242385N07155214WA0184301844004067005000
B1520174242353N07155231WA0184301846004055005000
B1520194242337N07155265WA0184601847004048005000
B1520214242339N07155301WA0184901851004032005000
B1520234242355N07155327WA0185101855004018005000
B1520254242380N07155334WA0185101856004013005000
B1520274242408N07155323WA0185301856004032005000
B1520294242431N07155293WA0185401857004069005000
B1520314242440N07155246WA0185801859004083005000
B1520334242432N07155194WA0186301864004076005000
B1520354242410N07155149WA0186501867004069005000
B1520374242377N07155121WA0187101871004048005000
B1520394242340N07155112WA0187401876004027005000
B1520414242304N07155121WA0187801880004013005000
B1520434242273N07155141WA0188101883004009005000
B1520454242248N07155171WA0188101884004006005000
B1520474242236N07155208WA0188401886004004005000
B1520494242237N07155244WA0188901892004002005000
B1520514242251N07155271WA0188701893004011005000
B1520534242275N07155281WA0188501892004032005000
B1520554242300N07155271WA0188201888004062005000
B1520574242323N07155244WA0187301881004081005000
B1520594242347N07155216WA0186901875004074005000
B1521014242373N07155199WA0186201869004072005000
B1521034242401N07155193WA0185001860004072005000
B1521054242431N07155189WA0183401848004064005000
B1521074242463N07155185WA0181901833004064005000
B1521094242498N07155182WA0180701820004071005000
B1521114242536N07155180WA0180201812004090005000
F152112032801060746140817192421
B1521134242575N07155178WA0179601807003100004000
F152114032801064614081719242122
B1521154242614N07155176WA0179201803003072004000
B1521174242653N07155174WA0178701800003044004000
B1521194242692N07155172WA0178301796003037004000
B1521214242731N07155170WA0177801791003027004000
B1521234242771N07155168WA0177301787003013004000
B1521254242810N07155167WA0177101783003013004000
B1521274242849N07155167WA0176801781003022004000
F152128032801060746140817192421
B1521294242888N07155167WA0176501779003022004000
B1521314242926N07155167WA0176101776003029004000
B1521334242964N07155166WA0175601771003057004000
B1521354243003N07155166WA0175101767003069004000
B1521374243041N07155165WA0174701762003065004000
B1521394243078N07155165WA0174301758003067004000
B1521414243116N07155165WA0173801754003069004000
B1521434243154N07155165WA0173601750003053004000
B1521454243190N07155166WA0173401748003034004000
B1521474243226N07155168WA0173101746003032004000
B1521494243262N07155171WA0172501741003034004000
B1521514243298N07155177WA0172101737003043004000
B1521534243334N07155183WA0171901733003053004000
B1521554243370N07155191WA0172001733003074004000
B1521574243406N07155198WA0172401734003083004000
B1521594243440N07155206WA0172801740003064004000
B1522014243472N07155215WA0172701741003072004000
B1522034243504N07155225WA0172501739003114004000
B1522054243535N07155237WA0171601733003144004000
B1522074243568N07155250WA0171501728003146004000
B1522094243601N07155264WA0171701728003128004000
B1522114243634N07155277WA0171701730003090004000
B1522134243667N07155294WA0172501734003055004000
B1522154243696N07155316WA0173901744003034004000
B1522174243715N07155348WA0176201760003018004000
F152218032801060746140817192122
B1522194243709N07155386WA0178201784003006004000
F152219032801060714081719212230
B1522214243682N07155408WA0179301800003000004000
B1522234243647N07155404WA0179501805003000004000
F152224032801060714081719242122
B1522254243616N07155374WA0179501805003004004000
B1522274243595N07155329WA0179501804003025004000
B1522294243590N07155279WA0179701806003029004000
B1522314243601N07155238WA0179901808003029004000
B1522334243624N07155217WA0180501812003022004000
F152234032801060714171924212230
B1522354243646N07155222WA0181201819003009004000
B1522374243657N07155250WA0181701826003000004000
F1522370328010607141719212230
B1522394243648N07155285WA0182301830003000004000
B1522414243619N07155308WA0182401834003000004000
B1522434243582N07155306WA0182701836003000004000
B1522454243548N07155275WA0182601836003000004000
F152245032801060714171924212230
F1522460328010714171924212230
B1522474243530N07155224WA0182701836003018004000
B1522494243534N07155171WA0183001838003046004000
F152250032801060714171924212230
B1522514243554N07155133WA0183201841003062004000
B1522534243582N07155121WA0184001847003050004000
B1522554243606N07155135WA0184901856003022004000
B1522574243613N07155171WA0185801865003006004000
B1522594243596N07155207WA0186501874003000004000
F1523000328010607141719212230
B1523014243562N07155223WA0187201881003000004000
B1523034243524N07155207WA0187401884003000004000
B1523054243497N07155164WA0187501885003000004000
F152305032801060714171924212230
B1523074243489N07155110WA0187501884003002004000
B1523094243502N07155060WA0187701886003006004000
B1523114243528N07155032WA0188601892003006004000
B1523134243557N07155033WA0189801903003000004000
B1523154243573N07155062WA0190801914003000004000
F1523160328010607141719242230
B1523174243566N07155100WA0191801924003000004000
F1523170328010607141719212230
B1523194243537N07155126WA0193001934003000004000
B1523214243498N07155124WA0193801943003000004000
F152322032801060714171924212230
B1523234243465N07155093WA0194201949003000004000
B1523254243447N07155043WA0194301953003000004000
B1523274243449N07154991WA0194401955003000004000
F1523280328010614171924212230
B1523294243471N07154954WA0194801957003000004000
B1523314243499N07154945WA0195601963003000004000
B1523334243521N07154965WA0196301971003000004000
F15233403280106141719212230
B1523354243523N07155002WA0197601981003000004000
B1523374243501N07155035WA0198801993003000004000
B1523394243466N07155043WA0199902004003000004000
B1523414243430N07155021WA0200502011003000004000
F1523420328010614171924212230
B1523434243405N07154978WA0200602016003000004000
B1523454243397N07154926WA0201102019003000004000
B1523474243406N07154879WA0201502024003000004000
B1523494243428N07154850WA0202102030003000004000
B1523514243454N07154844WA0202602037003000004000
B1523534243472N07154864WA0203202042003000004000
B1523554243476N07154899WA0203702046003000004000
F15235603280106141719212230
B1523574243460N07154935WA0204002049003000004000
B1523594243428N07154956WA0204802055003000004000
B1524014243389N07154954WA0205202061003000004000
B1524034243352N07154926WA0205702065003000004000
F1524030328010614171924212230
B1524054243328N07154878WA0205802067003000004000
B1524074243324N07154824WA0205902068003002004000
B1524094243341N07154781WA0206202070003002004000
F15241028010614171924212230
B1524114243369N07154765WA0206502075003000004000
F1524110328010614171924212230
B1524134243392N07154780WA0207202081003000004000
B1524154243397N07154816WA0207902088003000004000
F15241603280106141719212230
B1524174243377N07154851WA0208802095003000004000
F152418032801141719212230
B1524194243340N07154862WA0209402102003000004000
B1524214243300N07154844WA0209702106003000004000
F1524220328010614171924212230
B1524234243271N07154798WA0209802107003000004000
B1524254243264N07154741WA0209902109003000004000
B1524274243277N07154694WA0210602113003000004000
B1524294243304N07154670WA0211202120003000004000
F15242903280106141719242130
B1524314243329N07154675WA0211902127003000004000
F1524320328010614171924212230
B1524334243341N07154704WA0212502135003000004000
F15243303280106141719212230
B1524354243333N07154741WA0213102141003000004000
B1524374243305N07154765WA0213802147003000004000
F152438032801141719212230
B1524394243267N07154767WA0214302152003000004000
B1524414243229N07154744WA0214702155003000004000
F1524410328010614171924212230
F15244203280114171924212230
B1524434243202N07154701WA0215002159003000004000
F1524430328010614171924212230
B1524454243191N07154648WA0215202162003004004000
B1524474243199N07154602WA0215202164003013004000
B1524494243221N07154572WA0215402165003013004000
B1524514243246N07154568WA0215602168003004004000
B1524534243263N07154589WA0216102171003000004000
B1524554243264N07154625WA0216602176003000004000
F15245503280106141719212230
B1524574243242N07154655WA0217202182003000004000
F152458032801141719212230
B1524594243206N07154665WA0217902186003000004000
B1525014243168N07154651WA0218002190003000004000
F15250103280114171924212230
B1525034243138N07154614WA0218202191003007004000
B1525054243123N07154563WA0218102193003036004000
F1525050328010614171924212230
B1525074243127N07154514WA0218002192003053004000
B1525094243146N07154481WA0218302192003053004000
B1525114243173N07154468WA0218402195003043004000
B1525134243197N07154477WA0218802197003039004000
B1525154243215N07154500WA0218502198003034004000
B1525174243232N07154526WA0218302197003027004000
B1525194243249N07154552WA0217802193003043004000
B1525214243269N07154576WA0217302189003067004000
B1525234243290N07154599WA0216002179003085004000
B1525254243314N07154622WA0214802166003090004000
B1525274243340N07154647WA0214002155003067004000
B1525294243366N07154675WA0213002146003064004000
B1525314243391N07154708WA0212502140003076004000
B1525334243415N07154743WA0211702134003071004000
B1525354243440N07154778WA0210902126003072004000
B1525374243465N07154815WA0210702121003058004000
B1525394243493N07154849WA0210602121003027004000
B1525414243523N07154879WA0210102117003025004000
B1525434243556N07154905WA0209402110003046004000
B1525454243591N07154927WA0208702103003050004000
B1525474243627N07154945WA0208202097003046004000
B1525494243664N07154963WA0208102094003055004000
B1525514243702N07154979WA0207902092003053005000
F152551032801061446171924212230
B1525534243739N07154994WA0207602090003029005000
B1525554243776N07155007WA0207202086003011005000
B1525574243812N07155020WA0207002083003004005000
B1525594243849N07155032WA0207102083003018005000
B1526014243885N07155044WA0207202083003025005000
B1526034243921N07155055WA0206802082003013005000
B1526054243957N07155065WA0206802080003023005000
B1526074243992N07155075WA0206902081003032005000
B1526094244027N07155084WA0206402079003024005000
B1526114244061N07155091WA0206002074003022005000
B1526134244097N07155098WA0205702071003025005000
B1526154244132N07155105WA0205202066003048005000
B1526174244169N07155110WA0204402060003097005000
B1526194244207N07155117WA0203402051003109005000
B1526214244246N07155124WA0202402041003079005000
B1526234244287N07155132WA0202302034003051004000
B1526254244328N07155141WA0202602036003034004000
B1526274244367N07155148WA0202802039003027004000
B1526294244405N07155156WA0202602040003015004000
B1526314244442N07155164WA0202302038003018004000
B1526334244478N07155174WA0202502037003034004000
B1526354244513N07155184WA0202502037003036004000
B1526374244547N07155195WA0202902040003025004000
B1526394244579N07155209WA0203102042003029004000
B1526414244609N07155227WA0203202044003034004000
B1526434244638N07155245WA0203402045003041004000
B1526454244667N07155262WA0203202045003065005000
B1526474244696N07155279WA0202902042003058005000
B1526494244725N07155299WA0202602038003048005000
B1526514244752N07155323WA0202102035003043005000
B1526534244778N07155348WA0201702030003029005000
B1526554244805N07155373WA0201602027003032005000
B1526574244831N07155397WA0201702027003043005000
B1526594244857N07155421WA0201702027003071005000
B1527014244883N07155444WA0201302025003088005000
B1527034244909N07155468WA0201002021003078005000
B1527054244937N07155491WA0200302017003074005000
B1527074244966N07155513WA0200302013003062005000
B1527094244995N07155533WA0200102012003043005000
B1527114245024N07155553WA0199902011003057005000
B1527134245053N07155572WA0199502008003069005000
B1527154245083N07155591WA0199302005003055005000
B1527174245113N07155609WA0198802001003069005000
B1527194245143N07155627WA0198701998003093005000
B1527214245173N07155645WA0198201994003093005000
B1527234245205N07155662WA0197401988003093005000
B1527254245237N07155679WA0196801982003116005000
B1527274245271N07155694WA0196101975003132005000
B1527294245306N07155709WA0195501968003125004000
B1527314245341N07155724WA0195001962003095004000
B1527334245378N07155739WA0194401957003053004000
B1527354245415N07155753WA0193901952003025004000
B1527374245452N07155767WA0193501948003006004000
B1527394245490N07155781WA0193301945003000004000
B1527414245527N07155794WA0192801943003000004000
B1527434245565N07155807WA0192201937003009004000
B1527454245603N07155820WA0191801932003015004000
B1527474245642N07155831WA0191501928003004004000
B1527494245682N07155843WA0191201925003000004000
B1527514245721N07155854WA0190901922003000004000
B1527534245761N07155863WA0190501920003000004000
B1527554245802N07155871WA0190601917003004004000
B1527574245842N07155877WA0191001920003006004000
B1527594245882N07155882WA0191501925003013004000
B1528014245920N07155887WA0191601929003018004000
B1528034245956N07155892WA0191601929003020004000
B1528054245992N07155898WA0191501928003020004000
B1528074246026N07155906WA0191201926003020004000
B1528094246060N07155915WA0190501921003044004000
B1528114246094N07155924WA0189801914003062004000
B1528134246128N07155934WA0189101908003048004000
B1528154246163N07155943WA0188401899003034004000
B1528174246198N07155954WA0188201895003029004000
B1528194246233N07155964WA0188001893003036004000
B1528214246268N07155975WA0187701892003055004000
B1528234246304N07155987WA0187601889003065004000
B1528254246340N07155999WA0187501889003069004000
B1528274246376N07156010WA0187701889003071004000
B1528294246412N07156019WA0187901890003053004000
B1528314246448N07156028WA0188001891003057004000
B1528334246483N07156036WA0188201894003078004000
B1528354246518N07156047WA0188201895003088004000
B1528374246553N07156058WA0188701898003076004000
B1528394246587N07156069WA0189301903003048004000
B1528414246619N07156081WA0189101905003036004000
B1528434246651N07156095WA0189301904003029004000
B1528454246684N07156110WA0189801907003029004000
B1528474246717N07156105WA0191701919003027004000
B1528494246740N07156072WA0192901935003013004000
B1528514246742N07156024WA0193601944003002004000
B1528534246727N07155979WA0194101949003013004000
B1528554246700N07155941WA0194201950003046004000
B1528574246668N07155911WA0194101949003055004000
B1528594246630N07155892WA0194501950003032004000
B1529014246590N07155889WA0194601952003013004000
B1529034246554N07155907WA0195301957003004004000
B1529054246531N07155943WA0195401961003000004000
B1529074246529N07155984WA0195501962003018004000
B1529094246547N07156010WA0195601964003034004000
B1529114246575N07156010WA0195901966003027004000
B1529134246599N07155984WA0196201969003015004000
B1529154246608N07155936WA0196701972003013004000
B1529174246596N07155884WA0196801974003030004000
B1529194246569N07155842WA0197501979003032004000
B1529214246535N07155811WA0198301986003020004000
B1529234246497N07155794WA0198801991003015004000
B1529254246457N07155796WA0198901994003009004000
B1529274246425N07155820WA0199001995003009004000
B1529294246414N07155858WA0199201997003032004000
B1529314246422N07155893WA0199201998003069004000
B1529334246441N07155916WA0199201999003100004000
B1529354246466N07155922WA0199302000003109004000
B1529374246492N07155909WA0199602003003088004000
B1529394246513N07155880WA0200102007003069004000
B1529414246522N07155836WA0200102008003074004000
B1529434246511N07155787WA0199902007003074004000
B1529454246482N07155747WA0200302007003060004000
B1529474246443N07155728WA0200502008003041004000
B1529494246404N07155743WA0201002013003027005000
B1529514246385N07155782WA0201602019003029004000
F1529520328010614461719212230
B1529534246389N07155820WA0201902024003025004000
F152953032801061446171924212230
B1529554246408N07155840WA0202302029003022004000
B1529574246434N07155836WA0202602033003050004000
B1529594246456N07155811WA0202802035003060005000
B1530014246466N07155767WA0202802035003055005000
B1530034246459N07155718WA0202702035003060005000
B1530054246438N07155673WA0202902034003069005000
B1530074246407N07155639WA0203102035003060005000
B1530094246370N07155616WA0203302037003041005000
B1530114246329N07155606WA0203202038003043005000
B1530134246290N07155612WA0203702042003036004000
B1530154246258N07155632WA0204102046003029004000
F1530160328010614171924212230
B1530174246240N07155664WA0204302049003058004000
B1530194246242N07155696WA0203602047003095004000
B1530214246260N07155716WA0203102042003109004000
B1530234246286N07155721WA0203602041003090004000
B1530254246314N07155718WA0203202043003064004000
B1530274246342N07155713WA0203002041003071004000
B1530294246371N07155706WA0202902040003102004000
B1530314246401N07155698WA0202902040003130004000
B1530334246431N07155692WA0202902040003135004000
B1530354246461N07155685WA0202502039003104004000
B1530374246492N07155679WA0202002034003067004000
B1530394246525N07155674WA0201202028003079004000
B1530414246559N07155670WA0200702022003107004000
B1530434246595N07155666WA0200202017003092004000
B1530454246631N07155664WA0199802014003057004000
