ANKL0W9
HFDTE250817
HFFXA050
HFPLTPILOT:ROY BOURGEOIS
HFGTYGLIDERTYPE:ASG29
HFGIDGLIDERID:ROY
HFDTM100GPSDATUM:
HFRFWFIRMWAREVERSION:40 2011-6-17
HFRHWHARDWAREVERSION: NKL ClearNav V1.0
HFFTYFRTYPE:Nielsen Kellerman, ClearNav-IGC
HFGPS:UBLOX,LEA-4H-0-000-1,16Ch,18000 
HFPRSPRESSALTSENSOR:Intersema,MS5534B,20000 
I033638FXA3941ENL4247REX
C250817153626000000000103
C0000000N00000000WTAKEOFF     
C4225500N07147470WSterlingStrt
C4322132N07240449WSmith
C4207183N07248849WMundale
C4207666N07122217WNorfolk
C4225500N07147470WSterlingStrt
C0000000N00000000WLANDING     
B1543484225407N07147427WA0010100151002019002008
B1543494225407N07147427WA0010100151002023002008
B1543504225407N07147427WA0010100151002023002008
B1543514225407N07147427WA0010000151002025002008
B1543524225407N07147427WA0010000151002027002008
B1543534225407N07147427WA0010000151002029002008
B1543544225407N07147427WA0010000151002033002008
B1543554225407N07147427WA0010000151002035002008
B1543564225407N07147427WA0010000151002039002008
B1543574225407N07147427WA0010000151002041002008
B1543584225407N07147427WA0010000151002043002008
B1543594225407N07147427WA0010100151002041002008
B1544004225407N07147427WA0010200151002037002008
B1544014225407N07147427WA0009900151002035002008
B1544024225407N07147427WA0010000151002031002008
B1544034225407N07147427WA0010100150002029002008
B1544044225407N07147427WA0010100150002027002008
B1544054225407N07147427WA0010100150002023002008
B1544064225407N07147427WA0010100150002021002008
B1544074225407N07147427WA0010100150002021002008
B1544084225407N07147427WA0010100150002021002008
B1544094225407N07147427WA0010100150002023002008
B1544104225407N07147426WA0010100150001021002008
B1544114225407N07147426WA0010000150001021002008
B1544124225407N07147426WA0010100150001019002008
B1544134225407N07147426WA0010000150001017002008
B1544144225407N07147426WA0009900150001017002008
B1544154225407N07147426WA0010000150001015002008
B1544164225407N07147427WA0009900149001017002008
B1544174225407N07147427WA0010000149001019002008
B1544184225407N07147427WA0010000149001019002008
B1544194225407N07147427WA0009900149001019002008
B1544204225407N07147427WA0009900149001017002008
B1544214225407N07147427WA0009900149001015002008
B1544224225407N07147427WA0009900149001015002008
B1544234225407N07147427WA0009900149001015002008
B1544244225407N07147427WA0009800148001015002008
B1544254225407N07147427WA0009900148001013002008
B1544264225407N07147427WA0009800148001011002008
B1544274225407N07147427WA0009900148001007002008
B1544284225407N07147427WA0009900148001005002008
B1544294225407N07147427WA0010000148001005002008
B1544304225407N07147427WA0009900148001005002008
B1544314225407N07147427WA0010000148001007002008
B1544324225407N07147427WA0009800148001007002008
B1544334225407N07147427WA0009800148001007002008
B1544344225407N07147427WA0010000148001007002008
B1544354225407N07147427WA0009900148001007002008
B1544364225407N07147427WA0009900148001007002008
B1544374225407N07147427WA0009900148001007002008
B1544384225407N07147427WA0009700148001007002008
B1544394225407N07147427WA0010000148001007002008
B1544404225407N07147427WA0009900149001007002008
B1544414225407N07147427WA0009800149001007002008
B1544424225407N07147427WA0010000149001007002008
B1544434225407N07147427WA0009900149001007002008
B1544444225407N07147427WA0009900149001007002008
B1544454225407N07147427WA0010000149001009002008
B1544464225407N07147427WA0009900149001009002008
B1544474225407N07147427WA0009900149001013002008
B1544484225407N07147427WA0009800148001017002008
B1544494225407N07147427WA0009700148001019002008
B1544504225407N07147427WA0009800148001023002008
B1544514225407N07147427WA0009700148001023002008
B1544524225407N07147427WA0009900148001021002008
B1544534225407N07147427WA0009800148001017002008
B1544544225407N07147427WA0010100148001013002008
B1544554225407N07147427WA0009900148001009002008
B1544564225407N07147426WA0010000148001007002008
B1544574225407N07147426WA0010100148001007002008
B1544584225407N07147426WA0009800148001007002008
B1544594225407N07147426WA0010100149001007002008
B1545004225407N07147426WA0010000149001009002008
B1545014225407N07147426WA0009700149001009002008
B1545024225407N07147426WA0010000149001009002008
B1545034225407N07147427WA0009900149001009002008
B1545044225407N07147427WA0009900149001007002008
B1545054225407N07147427WA0009900149001005002008
B1545064225407N07147427WA0009900149001005002008
B1545074225407N07147427WA0010000149001005002008
B1545084225407N07147427WA0009900149001005002008
B1545094225407N07147427WA0009900149001007002008
B1545104225407N07147427WA0010000149001005002008
B1545114225407N07147427WA0009900149001005002008
B1545124225407N07147427WA0010000149001003002008
B1545134225407N07147427WA0009900149001001002008
B1545144225407N07147427WA0009900149001001002008
B1545154225407N07147427WA0010100149001000002008
B1545164225407N07147427WA0010000149001000002008
B1545174225407N07147427WA0009800149001000002008
B1545184225407N07147427WA0010100149001001002008
B1545194225407N07147427WA0010000149001001002008
B1545204225407N07147427WA0010000149001003002008
B1545214225407N07147427WA0010000149001005002008
B1545224225407N07147427WA0010000149001005002008
B1545234225407N07147427WA0010000149001005002008
B1545244225407N07147427WA0010000149001005002008
B1545254225407N07147427WA0009900149001003002008
B1545264225407N07147427WA0009900149001003002008
B1545274225407N07147427WA0009900149001003002008
B1545284225407N07147427WA0009900149001001002008
B1545294225407N07147427WA0010100149001001002008
B1545304225407N07147427WA0010200149001000002008
B1545314225407N07147427WA0009700149001000002008
B1545324225407N07147427WA0010000149001000002008
B1545334225407N07147427WA0010100149001000002008
B1545344225407N07147427WA0009800149001000002008
B1545354225407N07147427WA0010000149001000002008
B1545364225407N07147427WA0010000149001000002008
B1545374225407N07147427WA0010000149001000002008
B1545384225407N07147427WA0010000149001001002008
B1545394225407N07147427WA0009900149001001002008
B1545404225407N07147427WA0010000149001003002008
B1545414225407N07147427WA0009900149001003002008
B1545424225407N07147427WA0009900149001001002008
B1545434225407N07147427WA0009900149001003002008
B1545444225407N07147427WA0009900149001003002008
B1545454225407N07147427WA0010000149001007002008
B1545464225408N07147428WA0010000149001011002008
B1545474225409N07147429WA0010100149001015002008
B1545484225410N07147431WA0010000149001019002000
F1545482201060317284819514624
B1545524225427N07147451WA0009900150001037002000
B1545564225456N07147487WA0009700150001063002000
B1546004225495N07147536WA0010100151001067002000
B1546044225542N07147594WA0010500153001057002000
B1546084225592N07147653WA0012500170002047002000
B1546124225641N07147700WA0014400192002033002000
B1546164225688N07147748WA0015800209001031002000
B1546204225736N07147800WA0017000219001027002000
B1546244225785N07147853WA0019000235001027002000
B1546284225829N07147913WA0020800258001029002000
F154631220106031117284819514624
B1546324225873N07147970WA0022700279001031002000
B1546364225918N07148025WA0024900297001033002000
B1546404225964N07148075WA0026800318001029002000
B1546444226006N07148124WA0029200340001027002000
B1546484226047N07148163WA0031400363001023002000
B1546524226089N07148192WA0032900381001023002000
B1546564226132N07148223WA0033800393001023002000
B1547004226181N07148252WA0034600399001023002000
B1547044226233N07148277WA0035900411001019002000
B1547084226285N07148301WA0036900421001021002000
B1547124226341N07148312WA0038000431001023002000
B1547164226399N07148305WA0039200448001025002000
B1547204226460N07148299WA0040400456001023002000
B1547244226523N07148280WA0041900470001025002000
B1547284226581N07148240WA0043300487001021002000
B1547324226634N07148184WA0043700494001023002000
B1547364226686N07148121WA0045100503001021002000
B1547404226734N07148047WA0047100520001027002000
B1547444226773N07147960WA0048400539001029002000
B1547484226804N07147870WA0049700551001027002000
B1547524226826N07147774WA0050800561001027002000
B1547564226840N07147674WA0052200577001021002000
F1547592201060311172819514624
B1548004226849N07147570WA0053500590001023002000
B1548044226842N07147454WA0054000596001025002000
B1548084226829N07147337WA0055900606001025002000
B1548124226805N07147230WA0058500638001029002000
B1548164226778N07147125WA0060200654001031002000
B1548204226745N07147022WA0062300676001027002000
B1548244226702N07146920WA0063500690001025002000
B1548284226642N07146831WA0064000700002029002000
B1548324226563N07146764WA0066100712002027002000
B1548364226475N07146725WA0067700733002031002000
B1548404226386N07146713WA0069500749002027002000
B1548444226303N07146717WA0070900765001023002000
B1548484226225N07146728WA0072100779001023002000
B1548524226143N07146729WA0072900786001027002000
B1548564226057N07146726WA0073400791001027002000
B1549004225969N07146728WA0074300801001023002000
B1549044225880N07146729WA0074900807001019002000
B1549084225791N07146721WA0076600823001023002000
B1549124225700N07146710WA0077200832001023002000
B1549164225608N07146704WA0077900838001023002000
B1549204225517N07146705WA0079500850001023002000
B1549244225431N07146715WA0081300870001023002000
B1549284225353N07146747WA0082700887001021002000
B1549324225287N07146806WA0084400902001021002000
B1549364225236N07146886WA0086600920001025002000
F154936220106031117284819514624
F1549372201060317284819514624
B1549404225207N07146970WA0089000945002027002000
F154941220106031117284819514624
B1549444225223N07147032WA0090400963002025002000
B1549484225267N07147047WA0090700965002023002000
B1549524225317N07147015WA0090900968002023002000
B1549564225349N07146944WA0090500964002021002000
F1549582201060311172819514624
B1550004225346N07146848WA0090300964001017002000
B1550044225310N07146756WA0090300963001015002000
F15500522010603111728195146
F1550072201060311172819514624
B1550084225247N07146696WA0090900967002015002000
B1550124225174N07146680WA0091000967002015002000
B1550164225105N07146702WA0091300973001015002000
B1550204225050N07146752WA0091800976001015002000
B1550244225006N07146813WA0093000986001021002000
F15502722010603172819514624
B1550284224973N07146875WA0093400994001023002000
F1550292201060311172819514624
B1550324224984N07146938WA0093200991002019002000
B1550364225035N07146960WA0094200999002021002000
B1550404225082N07146911WA0095501012002017002000
B1550444225084N07146821WA0095901020001019002000
B1550484225033N07146756WA0096001020002019002000
B1550524224964N07146758WA0096801024002017002000
B1550564224920N07146811WA0097701035001019002000
B1551004224914N07146879WA0098001039001019002000
B1551044224953N07146911WA0098601044002017002000
B1551084225004N07146886WA0099501049002019002000
B1551124225028N07146807WA0100201057001025002000
B1551164225001N07146722WA0100201061001021002000
B1551204224935N07146688WA0100501062002037002000
B1551244224879N07146731WA0101901073002033002000
B1551284224878N07146804WA0102501084001025002000
B1551324224926N07146830WA0103401092002023002000
B1551364224977N07146785WA0104701105001039002000
B1551404224992N07146699WA0105201112001053002000
B1551444224955N07146621WA0106301117001041002000
B1551484224889N07146609WA0105901118002029002000
B1551524224843N07146667WA0107001120002029002000
B1551564224854N07146737WA0107701136001029002000
B1552004224906N07146748WA0108801143002031002000
B1552044224939N07146674WA0110201157001025002000
B1552084224910N07146591WA0109901157001021002000
B1552124224839N07146579WA0110401161002021002000
B1552164224811N07146645WA0110701165001021002000
B1552204224850N07146682WA0111801176002023002000
B1552244224883N07146615WA0111301173001021002000
B1552284224851N07146525WA0112301181001019002000
B1552324224785N07146480WA0112901189001017002000
B1552364224719N07146500WA0113901195001021002000
B1552404224695N07146568WA0114401202001021002000
B1552444224730N07146619WA0113701197001023002000
F155245220106031117022819514624
B1552484224790N07146604WA0114701204001025002000
B1552524224826N07146532WA0116001219001023002000
B1552564224806N07146441WA0116001218001023002000
B1553004224734N07146412WA0116501220002021002000
B1553044224685N07146466WA0117101228001019002000
B1553084224687N07146536WA0117801236001021002000
B1553124224724N07146575WA0117101233001023002000
B1553164224768N07146621WA0115301219001023002000
B1553204224820N07146682WA0113901203001023002000
B1553244224879N07146750WA0112601194001025002000
B1553284224942N07146822WA0111001179001027002000
B1553324225009N07146898WA0109101157001033002000
B1553364225080N07146977WA0108601149001033002000
B1553404225150N07147055WA0108001147001035002000
B1553444225219N07147131WA0107501139001031002000
B1553484225283N07147207WA0107801140001029002000
B1553524225342N07147280WA0108601148001033002000
B1553564225396N07147350WA0108601151001029002000
B1554004225451N07147422WA0108901152001029002000
B1554044225505N07147491WA0108701151001029002000
B1554084225559N07147562WA0108201145001029002000
F1554112201060317022819514624
B1554124225609N07147639WA0108201145001031002000
B1554164225653N07147722WA0107701141001027002000
B1554204225693N07147810WA0107701138001025002000
F155422220106031117022819514624
B1554244225733N07147900WA0107701144001027002000
B1554284225769N07147991WA0107801139001027002000
B1554324225806N07148083WA0108201145001025002000
B1554364225846N07148176WA0108501147001031002000
B1554404225884N07148267WA0107801143001029002000
B1554444225919N07148360WA0107901140001023002000
B1554484225954N07148454WA0108001142001023002000
B1554524225990N07148550WA0108101142001027002000
B1554564226027N07148647WA0108601148001029002000
B1555004226062N07148745WA0109801158001031002000
B1555044226093N07148844WA0111901174001031002000
B1555084226114N07148943WA0111001175001029002000
B1555124226131N07149042WA0110701173001027002000
B1555164226149N07149138WA0110301169001023002000
B1555204226171N07149234WA0109801160001021002000
B1555244226195N07149332WA0108501150001023002000
B1555284226221N07149432WA0108201147001029002000
B1555324226252N07149531WA0108801149001027002000
B1555364226285N07149627WA0108901153001031002000
B1555404226317N07149719WA0109401158001029002000
B1555444226348N07149810WA0108901156001027002000
B1555484226377N07149903WA0108601150001029002000
F1555492201060317022819514624
B1555524226411N07149999WA0107501140001027002000
F155555220106031117022819514624
B1555564226445N07150098WA0107401137001023002000
B1556004226481N07150193WA0108801150001029002000
B1556044226521N07150276WA0108101148001029002000
B1556084226569N07150351WA0107401138001029002000
B1556124226627N07150415WA0107401135001031002000
B1556164226690N07150465WA0107401134001043002000
B1556204226754N07150507WA0108001134001037002000
B1556244226816N07150546WA0108001141001031002000
B1556284226880N07150577WA0107401134001029002000
B1556324226946N07150606WA0106901129001025002000
B1556364227015N07150633WA0106601125001025002000
B1556404227085N07150660WA0106001121001023001000
B1556444227154N07150690WA0105301114001017001000
B1556484227225N07150721WA0104701107001023001000
B1556524227296N07150749WA0103901099001023001000
B1556564227368N07150777WA0103201092001021001000
B1557004227439N07150805WA0102601086001023001000
B1557044227511N07150837WA0102401083001023001000
B1557084227582N07150870WA0101701077001027001000
B1557124227657N07150898WA0101101071001025001000
B1557164227732N07150924WA0100401064001027001000
B1557204227809N07150943WA0100401060001025001000
B1557244227887N07150961WA0100901063001027001000
F155725220106031117022819485146
B1557284227965N07150979WA0101301068001023001000
B1557324228039N07151000WA0104601091001031001000
F155734220106031702281948514624
F155735220106031117022819485146
B1557364228054N07151075WA0105101103002035002000
B1557404227986N07151117WA0105501109002029002000
F1557402201060311170228195146
B1557444227912N07151073WA0105801115002027002000
F155744220106031117022819514624
F1557462201060311170228195146
B1557484227861N07150980WA0107301122002023002000
F15574822010603111728195146
F155750220106031117281924
B1557524227843N07150880WA0109101140002025002000
F15575322010603111702281924
B1557564227889N07150858WA0109701146002029002000
B1558004227881N07150926WA0109601147002029002000
F155802220106031117022819
B1558044227810N07150926WA0110601158002029002000
F155807220106031117281924
B1558084227762N07150851WA0112601175001021002000
F15581122010603111702281924
B1558124227776N07150778WA0113101189001023002000
B1558164227814N07150798WA0112501182002021002000
F155817220106031702281924
F155819220106031117022819
B1558204227784N07150862WA0113701189001021002000
B1558244227722N07150823WA0114601199002021002000
F155824220106031117281924
B1558284227725N07150735WA0115501209001017002000
F15582822010603111702281924
B1558324227769N07150733WA0116401218001017002000
F155834220106031702281924
B1558364227762N07150796WA0116801221001015002000
F15583622010603111702281924
F155838220106031117022819
B1558404227698N07150803WA0117301227001021002000
F1558402201060311172819
F155841220106031117281924
B1558444227661N07150721WA0118701241001015002000
F15584722010603111702281924
B1558484227686N07150657WA0119501249001017002000
B1558524227726N07150668WA0118501243001017002000
F155854220106031702281924
B1558564227721N07150736WA0119701249001023002000
F15585722010603111702281924
F155859220106031117022819
B1559004227665N07150769WA0120201259001021002000
B1559044227598N07150723WA0121301261002017002000
F15590422010603111702281924
F155905220106031117281924
B1559084227591N07150637WA0122001278001025002000
F15590922010603111702281924
B1559124227631N07150624WA0121501274001023002000
B1559164227634N07150692WA0121701269001023002000
F155917220106031702281924
F15591822010603111702281924
B1559204227575N07150736WA0123001284001021002000
F155920220106031117022819
B1559244227504N07150706WA0124401292002019002000
F15592522010603111702281924
B1559284227475N07150621WA0125801312001023002000
B1559324227504N07150566WA0125301310001023002000
B1559364227541N07150595WA0124701303001021002000
B1559404227533N07150670WA0125301308001017002000
B1559444227485N07150732WA0125601313001011002000
B1559484227414N07150762WA0126701323001015002000
F15594822010603111702281951
B1559524227344N07150724WA0127101327001019002000
F155953220106031117281951
F155954220106031117281924
B1559564227309N07150634WA0127901333001019002000
F15595822010603111702281924
B1600004227332N07150561WA0128301339001023002000
B1600044227379N07150558WA0129301349002021002000
B1600084227418N07150593WA0130601360002021002000
B1600124227439N07150648WA0131401367001021002000
B1600164227396N07150698WA0130801370001023002000
F160016220106031117022819
B1600204227326N07150651WA0129901356002023002000
F16002222010603111702281924
B1600244227295N07150550WA0130901369001029002000
B1600284227309N07150465WA0131801377001021002000
B1600324227346N07150403WA0132901388001019002000
B1600364227387N07150354WA0133001392001015002000
B1600404227432N07150320WA0132001388001017001000
B1600444227488N07150304WA0129901365001023001000
B1600484227556N07150305WA0128801353001025001000
B1600524227629N07150321WA0128601352001021001000
B1600564227703N07150344WA0127001342001023001000
B1601004227780N07150381WA0125601321001029001000
F1601032201060311170228194624
B1601044227857N07150427WA0124601314001027001000
B1601084227933N07150478WA0123901303001029001000
F160108220106031117022819462448
B1601124228008N07150534WA0123101297001031001000
B1601164228084N07150592WA0122001287001031001000
B1601204228161N07150649WA0121401280001031001000
B1601244228237N07150709WA0120601272001031001000
B1601284228312N07150768WA0121701278001031001000
B1601324228382N07150828WA0121501279001033001000
B1601364228450N07150886WA0121501278001029001000
B1601404228518N07150943WA0121401277001031001000
B1601444228586N07150998WA0120901275001029001000
B1601484228656N07151052WA0120501271001023001000
B1601524228727N07151107WA0118901259001029001000
B1601564228801N07151164WA0118301247001029001000
B1602004228875N07151224WA0118101247001027001000
B1602044228949N07151283WA0118301246001029001000
B1602084229024N07151343WA0118701248001029001000
B1602124229097N07151404WA0120301260001029001000
B1602164229163N07151464WA0121301274001031001000
B1602204229227N07151521WA0123601292001029001000
B1602244229282N07151575WA0124501306001029001000
B1602284229336N07151628WA0124901314001025001000
B1602324229388N07151685WA0124901316001023001000
B1602364229439N07151743WA0125501317001027001000
B1602404229487N07151801WA0126501329001021001000
B1602444229536N07151859WA0126501330001021001000
B1602484229582N07151921WA0126301329001021001000
B1602524229626N07151987WA0125501320001023001000
B1602564229673N07152055WA0125001314001023001000
B1603004229718N07152126WA0124301307001025001000
B1603044229760N07152199WA0123101297001031001000
B1603084229803N07152278WA0123301295001031001000
B1603124229848N07152353WA0122401294001029001000
B1603164229894N07152433WA0122201287001031001000
B1603204229943N07152513WA0122201286001029001000
B1603244229991N07152591WA0122201287001027001000
B1603284230039N07152669WA0121901282001031001000
B1603324230089N07152748WA0122401289001029001000
B1603364230136N07152824WA0124101302001027001000
B1603404230180N07152892WA0125101314001027001000
B1603444230224N07152956WA0125201315001025001000
B1603484230270N07153020WA0125101317001023001000
B1603524230322N07153085WA0124701312001027001000
B1603564230375N07153151WA0124701311001025001000
B1604004230430N07153216WA0125501318001029001000
B1604044230485N07153280WA0125701322001025001000
B1604084230540N07153346WA0128301337001023001000
B1604124230594N07153400WA0130901363001031001000
B1604164230654N07153368WA0131801379002031002000
F160418220106031117022819462451
B1604204230665N07153270WA0132201385001029001000
B1604244230624N07153187WA0131601377001021001000
B1604284230552N07153159WA0131801373001021001000
B1604324230484N07153187WA0132801381001023001000
B1604364230434N07153237WA0135401401001021001000
B1604404230424N07153296WA0135901418001021001000
B1604444230470N07153315WA0136401418002023002000
B1604484230512N07153249WA0137201424001027001000
F1604482201060317022819462451
F16045122010603170228194651
B1604524230491N07153157WA0138401431001029002000
F1604532201060317022819462451
B1604564230429N07153122WA0139301443001031002000
B1605004230381N07153159WA0140101453001031002000
B1605044230383N07153219WA0141701468001033002000
B1605084230428N07153238WA0141801475001025002000
B1605124230476N07153186WA0142601481001023002000
B1605164230479N07153093WA0143701492001025002000
B1605204230437N07153020WA0144901503002021002000
B1605244230377N07153009WA0145101509001017002000
B1605284230341N07153060WA0146501519002019002000
B1605324230365N07153108WA0147601532002017002000
B1605364230419N07153088WA0148101539001015002000
B1605404230435N07152997WA0148101539001015002000
F16054122010603170228194651
F1605422201060317022819462451
B1605444230382N07152926WA0148701541001021002000
B1605484230322N07152943WA0150401560001019002000
B1605524230315N07153002WA0151001568001015002000
B1605564230364N07153024WA0152301578001013002000
B1606004230408N07152964WA0153401593001017002000
F16060322010603170228194651
B1606044230393N07152872WA0153601591001019002000
F1606052201060317022819462451
B1606084230333N07152823WA0154301598001021002000
B1606124230280N07152850WA0154801603001019002000
B1606164230271N07152912WA0155901614002019002000
B1606204230308N07152952WA0156901624001015002000
B1606244230366N07152940WA0158501637001019002000
B1606284230407N07152879WA0159201650001023001000
F160631220106031702281219462451
B1606324230417N07152793WA0157301638001021001000
F1606352201060317022812194651
B1606364230385N07152705WA0157001625001021001000
F160636220106031702281219462451
F1606372201060317022819462451
F160638220106031702281219462451
B1606404230326N07152656WA0158401640001017001000
B1606444230272N07152660WA0158001644001017001000
B1606484230232N07152708WA0157101631001017001000
B1606524230218N07152788WA0156501622001015001000
B1606564230230N07152880WA0156901624001021001000
B1607004230256N07152972WA0157401634001017001000
B1607044230286N07153061WA0156401625001021001000
B1607084230323N07153151WA0156101620001027001000
B1607124230366N07153242WA0155001610001025001000
B1607164230418N07153324WA0154101601001025001000
B1607204230480N07153394WA0153301593001029001000
B1607244230546N07153461WA0152301584001031001000
B1607284230614N07153529WA0151501576001031001000
B1607324230682N07153597WA0151301571001027001000
B1607364230750N07153665WA0150601566001027001000
B1607404230817N07153736WA0149501555001027001000
B1607444230887N07153809WA0149301552001027001000
B1607484230957N07153881WA0149201548001031001000
B1607524231030N07153956WA0149501551001029001000
B1607564231102N07154032WA0149301551001031001000
B1608004231173N07154108WA0148401542001031001000
B1608044231244N07154180WA0148001538001029001000
B1608084231314N07154249WA0147501533001031001000
B1608124231383N07154319WA0146501524001031001000
B1608164231452N07154392WA0146201518001031001000
B1608204231519N07154465WA0146301518001031001000
B1608244231587N07154538WA0146201519001031001000
B1608284231658N07154607WA0145401513001031001000
B1608324231731N07154676WA0144501501001033001000
B1608364231807N07154742WA0143901495001033001000
B1608404231885N07154803WA0143901494001037001000
B1608444231962N07154860WA0145101503001041001000
B1608484232036N07154912WA0145701514001033001000
B1608524232109N07154960WA0145101512001029001000
F160854220106031702281219462448
B1608564232183N07155007WA0144101499001031001000
B1609004232259N07155055WA0143501495001031001000
B1609044232335N07155102WA0143301490001029001000
B1609084232413N07155147WA0143101486001029001000
B1609124232489N07155192WA0142601484001025001000
B1609164232568N07155234WA0142101478001025001000
B1609204232647N07155275WA0141701474001027001000
B1609244232728N07155315WA0140601465001031001000
B1609284232810N07155354WA0139201450001031001000
B1609324232895N07155394WA0138101438001031001000
B1609364232981N07155434WA0136901427001031001000
B1609404233066N07155473WA0136701423001031001000
B1609444233148N07155514WA0136601423001029001000
B1609484233228N07155559WA0136001417001029001000
B1609524233304N07155613WA0135301406001025001000
B1609564233377N07155677WA0134901403001027001000
B1610004233448N07155746WA0134601402001031001000
B1610044233516N07155813WA0134401401001029001000
B1610084233579N07155886WA0134301397001031001000
B1610124233637N07155964WA0133701391001027001000
B1610164233691N07156048WA0132501380001031001000
B1610204233743N07156136WA0131601371001031001000
B1610244233796N07156223WA0130401361001027001000
B1610284233851N07156309WA0129901353001031001000
B1610324233907N07156394WA0129701350001029001000
B1610364233963N07156478WA0129001344001031001000
B1610404234020N07156562WA0128401338001031001000
B1610444234077N07156646WA0127401327001027001000
B1610484234133N07156731WA0126301317001029001000
B1610524234190N07156817WA0125501310001029001000
B1610564234247N07156905WA0124901300001031001000
B1611004234305N07156993WA0124401296001031001000
B1611044234361N07157082WA0123701290001027001000
B1611084234415N07157174WA0123201284001029001000
B1611124234469N07157266WA0123101282001029001000
B1611164234525N07157354WA0123401284001031001000
B1611204234580N07157439WA0123001284001031001000
B1611244234632N07157525WA0122401277001031001000
B1611284234681N07157611WA0123801286001029001000
B1611324234731N07157694WA0124701296001029001000
B1611364234781N07157779WA0124901300001031001000
B1611404234834N07157861WA0126201309001031001000
B1611444234885N07157934WA0129401343001027001000
B1611484234927N07157998WA0130901361001023001000
B1611524234954N07158072WA0130401363001027001000
B1611564234983N07158148WA0129301351001025001000
B1612004235018N07158224WA0128901346001025001000
B1612044235055N07158299WA0128301340001017001000
B1612084235094N07158372WA0128001337001025001000
B1612124235137N07158442WA0126601325001031001000
B1612164235185N07158520WA0124701304001027001000
B1612204235238N07158604WA0124001296001031001000
B1612244235291N07158692WA0123701288001027001000
B1612284235344N07158775WA0124401295001031001000
B1612324235401N07158844WA0125301307001027001000
B1612364235458N07158911WA0124501300001029001000
B1612404235520N07158975WA0123201292001025001000
B1612444235587N07159037WA0120701266001031001000
B1612484235662N07159102WA0120601255001031001000
B1612524235732N07159158WA0122501276001027001000
B1612564235797N07159208WA0122501279001025001000
B1613004235862N07159260WA0121301268001025001000
B1613044235929N07159315WA0120401260001031001000
B1613084236001N07159372WA0120601257001031001000
B1613124236071N07159427WA0120501261001031001000
B1613164236139N07159479WA0119501251001029001000
B1613204236207N07159530WA0118301239001031001000
B1613244236275N07159585WA0118001232001027001000
B1613284236340N07159642WA0117401229001027001000
B1613324236406N07159697WA0116701221001029001000
B1613364236472N07159752WA0117001221001025001000
B1613404236535N07159810WA0115801215001027001000
B1613444236601N07159868WA0114601201001029001000
B1613484236669N07159927WA0113301189001029001000
B1613524236740N07159983WA0111701174001027001000
B1613564236812N07200040WA0110701162001029001000
B1614004236886N07200100WA0109601149001029001000
B1614044236960N07200162WA0108201138001031001000
B1614084237038N07200218WA0107401125001031001000
B1614124237118N07200272WA0106101113001031001000
B1614164237200N07200322WA0105401107001031001000
B1614204237281N07200367WA0105001101001029001000
B1614244237360N07200411WA0105001099001031001000
B1614284237438N07200451WA0105201104001031001000
B1614324237515N07200487WA0105301105001029001000
B1614364237590N07200519WA0104801102001029001000
B1614404237664N07200552WA0103801093001031001000
B1614444237738N07200584WA0103101085001029001000
B1614484237813N07200615WA0102201076001031001000
B1614524237889N07200646WA0101201066001027001000
B1614564237966N07200681WA0099701052001029001000
B1615004238046N07200715WA0098201036001025001000
B1615044238130N07200750WA0096201015001027001000
B1615084238216N07200785WA0095301003001029001000
B1615124238303N07200817WA0094500994001031001000
B1615164238390N07200847WA0093700985001029001000
B1615204238478N07200869WA0092900980001031001000
B1615244238565N07200886WA0092500977001031001000
B1615284238650N07200903WA0092100971001029001000
B1615324238733N07200919WA0091400961001031001000
B1615364238814N07200935WA0090900958001031001000
B1615404238894N07200947WA0089900952001031001000
B1615444238976N07200957WA0090000945001031001000
B1615484239054N07200961WA0093500977001031001000
B1615524239120N07200963WA0095201002001029001000
B1615564239180N07200971WA0095101005001029001000
B1616004239241N07200978WA0095101005001027001000
B1616044239301N07200985WA0094200998001027001000
B1616084239364N07200995WA0092700984001029001000
B1616124239432N07201004WA0092000972001025001000
B1616164239502N07201013WA0091100967001025001000
B1616204239573N07201021WA0090500960001023001000
B1616244239644N07201028WA0089700951001025001000
B1616284239716N07201036WA0089000944001025001000
B1616324239788N07201044WA0088500939001027001000
B1616364239858N07201051WA0087800935001023001000
B1616404239929N07201058WA0086800923001027001000
B1616444240001N07201065WA0085600911001031001000
B1616484240073N07201069WA0084800901001031001000
B1616524240146N07201073WA0084000892001033001000
B1616564240219N07201080WA0083200884001033001000
B1617004240293N07201086WA0082500877001031001000
B1617044240366N07201090WA0082300871001033001000
B1617084240439N07201096WA0081600867001029001000
B1617124240512N07201101WA0081100861001031001000
B1617164240583N07201107WA0080400854001031001000
B1617204240655N07201114WA0079700846001033001000
B1617244240725N07201124WA0079200843001033001000
B1617284240794N07201137WA0079200842001033001000
B1617324240859N07201158WA0079800844001031001000
B1617364240920N07201179WA0080600849001029001000
B1617404240975N07201201WA0082800869001033001000
B1617444241022N07201180WA0083600883001033001000
B1617484241031N07201096WA0083200876001033001000
F161749220106031702281219462451
B1617524240982N07201015WA0083700875002033002000
B1617564240910N07201015WA0084600890001031001000
F1617572206031702281219462451
F161759220106031702281219462451
B1618004240871N07201082WA0083900878001031001000
B1618044240890N07201146WA0085000890001031001000
B1618084240938N07201138WA0084700891001031001000
B1618124240969N07201068WA0085500897001033001000
B1618164240950N07200978WA0084200887001031001000
B1618204240881N07200922WA0084500886001029001000
B1618244240802N07200919WA0086500901001029001000
B1618284240759N07200980WA0086000897001031001000
B1618324240779N07201034WA0086500909001031001000
B1618364240820N07201014WA0085600905001027001000
B1618404240838N07200933WA0085800901001027001000
B1618444240800N07200854WA0086100908001025001000
B1618484240734N07200802WA0087200916001023001000
B1618524240662N07200786WA0088000923001027001000
B1618564240617N07200845WA0087700919001029001000
B1619004240637N07200904WA0087600917001031001000
B1619044240686N07200871WA0087100915001029001000
B1619084240689N07200778WA0087300920001027001000
B1619124240636N07200699WA0087600918001023001000
B1619164240558N07200677WA0088400926001025001000
B1619204240508N07200737WA0087900924001029001000
B1619244240512N07200813WA0087900924001029001000
B1619284240554N07200850WA0087900926001025001000
B1619324240605N07200825WA0087700925001023001000
B1619364240646N07200759WA0088000928001021001000
F161937220106034817022812194624
B1619404240680N07200689WA0089500940001021001000
B1619444240706N07200623WA0090800953001023001000
F161945220106031702281219462451
B1619484240692N07200543WA0091200959001025001000
B1619524240626N07200522WA0090000949002025002000
B1619564240573N07200594WA0090600943001023001000
B1620004240584N07200673WA0093400969001031001000
B1620044240625N07200657WA0093600983001033001000
B1620084240619N07200574WA0093700981001029001000
B1620124240556N07200540WA0094800992001025001000
B1620164240502N07200582WA0095300997001025001000
B1620204240503N07200647WA0095801002001029001000
B1620244240544N07200650WA0095501002001023001000
B1620284240575N07200589WA0096301006001023001000
B1620324240555N07200510WA0096801016001027001000
B1620364240490N07200483WA0096401011001023001000
B1620404240429N07200524WA0097301020001023001000
B1620444240411N07200593WA0097201023001021001000
B1620484240435N07200646WA0096701018001019001000
B1620524240481N07200661WA0096101013001023001000
B1620564240531N07200657WA0095401005001017001000
B1621004240584N07200655WA0095601002001017001000
B1621044240637N07200655WA0096901014001019001000
B1621084240686N07200657WA0097501023001021001000
F162108220106034817022812194624
B1621124240718N07200697WA0098801035001021001000
B1621164240698N07200759WA0098801039001023001000
B1621204240635N07200771WA0098801038001025001000
F1621202201060317281219462451
B1621244240582N07200712WA0099001040001023002000
F162124220106031728121924
F16212722010603021728121924
B1621284240576N07200624WA0099801047001021002000
B1621324240614N07200572WA0100801057001021001000
B1621364240656N07200592WA0101501064001015001000
F1621382201060302174828121924
B1621404240660N07200655WA0102001072001019001000
F16214222010603021748281219
B1621444240610N07200696WA0101901073001019001000
F162144220106030217482819
F1621452201060302172819
F1621462201060317281219
B1621484240548N07200664WA0102301073001035001000
F162148220106031728121924
B1621524240529N07200578WA0103001080001031001000
F16215222010603021728121924
B1621564240568N07200529WA0103301084001045001000
B1622004240608N07200569WA0104301092001051001000
B1622044240589N07200637WA0104201093001035001000
F162207220106031728121924
B1622084240521N07200646WA0104101089002041002000
B1622124240475N07200568WA0104801092001033002000
F16221522010603021728121924
B1622164240496N07200491WA0106701112001029001000
B1622204240538N07200497WA0107501123001023001000
B1622244240542N07200559WA0107401124001021001000
F162227220106030217281924
B1622284240490N07200596WA0107501126001023001000
F162229220106031712281924
B1622324240427N07200553WA0107301123001021002000
F1622322201060317281924
F162233220106031712281924
B1622364240391N07200465WA0108201127001023002000
F16223822010603021712281924
B1622404240396N07200378WA0109101143001021002000
B1622444240442N07200354WA0109801146001021001000
B1622484240464N07200413WA0110901155001025002000
F162250220106030217122819
B1622524240411N07200462WA0111401166001025002000
F1622532201060317122819
B1622564240349N07200416WA0112501174001021002000
F162257220106031712281924
F16225922010603021712281924
B1623004240347N07200330WA0113201186001019002000
B1623044240395N07200307WA0113901187001019002000
B1623084240419N07200365WA0115601203001015002000
B1623124240374N07200412WA0116201214001015002000
F162312220106030217281924
F16231322010603021712281924
F1623142201060317281924
B1623164240312N07200373WA0116701214001023002000
F162316220106031712281924
B1623204240302N07200286WA0117401227001017002000
F16232022010603021712281924
B1623244240350N07200253WA0117401222001019002000
B1623284240379N07200312WA0118801234001023002000
F162331220106030217281924
B1623324240329N07200359WA0119501245001021002000
F1623332201060317281924
F162335220106031712281924
B1623364240272N07200303WA0120001250001017002000
F16233922010603021712281924
B1623404240280N07200217WA0121201264001021002000
B1623444240328N07200200WA0121801268001019002000
B1623484240353N07200255WA0123301279001019001000
B1623524240313N07200305WA0123701289001019002000
F162352220106030217281924
F1623552201060317281924
B1623564240250N07200283WA0124401296001019002000
F162356220106031712281924
F1623572201060317281924
F162359220106031712281924
B1624004240223N07200205WA0125101303001017002000
F16240022010603021712281924
B1624044240250N07200136WA0125001304001015002000
B1624084240303N07200139WA0125801306001019001000
B1624124240313N07200203WA0126901321001015001000
B1624164240258N07200234WA0127301323001017002000
F162417220106031712281924
B1624204240203N07200178WA0128001330001021002000
F16242222010603021712281924
B1624244240204N07200093WA0129301346001019002000
B1624284240251N07200057WA0129101344001017001000
B1624324240287N07200101WA0129801351001021001000
B1624364240253N07200159WA0130601354001017001000
F162439220106031712281924
B1624404240190N07200134WA0130701359001019002000
B1624444240173N07200045WA0131901371001019002000
F16244422010603021712281924
B1624484240213N07159987WA0132301372001021001000
F162449220603021712281924
B1624524240257N07200021WA0132401378001021001000
F16245422010603021712281924
F162455220603021712281924
B1624564240239N07200087WA0133301385001021002000
F16245622010603021712281924
F162458220106030217281924
B1625004240178N07200097WA0133401389001021002000
F162501220106031712281924
F16250222010603021712281924
B1625044240121N07200043WA0134001393001019002000
F162506220106031712281924
F16250722010603021712281924
B1625084240088N07159958WA0135001399001021002000
B1625124240100N07159879WA0135701413001019001000
B1625164240145N07159843WA0135601411001019001000
B1625204240196N07159834WA0136901421001017001000
B1625244240241N07159839WA0137301429001013001000
B1625284240275N07159873WA0137101429001017001000
B1625324240279N07159929WA0136701423001015001000
B1625364240243N07159980WA0135301409001015001000
F162537220106030217281924
B1625404240176N07159971WA0134601398001017001000
F1625402201060317281924
F162541220106031712281924
F16254222010603021712281924
B1625444240120N07159893WA0134101393001025002000
B1625484240096N07159785WA0134701402001023002000
B1625524240114N07159684WA0134701404001029001000
B1625564240161N07159605WA0134401401001027001000
B1626004240219N07159548WA0133901398001023001000
B1626044240285N07159525WA0133201391001023001000
B1626084240351N07159539WA0131801377001023001000
B1626124240410N07159588WA0130701362001023001000
B1626164240461N07159659WA0129301349001027001000
B1626204240513N07159738WA0127801337001025001000
B1626244240565N07159820WA0126301320001023001000
B1626284240618N07159907WA0125501310001029001000
B1626324240670N07159993WA0125301307001031001000
B1626364240723N07200078WA0124901305001029001000
B1626404240775N07200161WA0124401300001035001000
B1626444240827N07200241WA0122601285001031001000
B1626484240881N07200320WA0121701272001031001000
B1626524240938N07200396WA0121601268001033001000
B1626564240998N07200468WA0121301268001031001000
B1627004241058N07200536WA0120701262001029001000
B1627044241121N07200598WA0120101258001029001000
F1627072201060302171228194624
B1627084241187N07200653WA0119401252001031001000
B1627124241254N07200704WA0119001246001029001000
B1627164241322N07200749WA0119001247001029001000
B1627204241388N07200795WA0119001241001029001000
B1627244241453N07200844WA0120701257001029001000
F162724220106030217122819462451
B1627284241508N07200896WA0121501269001031001000
B1627324241560N07200947WA0121901274001023001000
B1627364241611N07201001WA0121201270001025001000
B1627404241663N07201061WA0119701254001029001000
B1627444241719N07201123WA0118401240001029001000
B1627484241778N07201181WA0118101235001025001000
B1627524241840N07201232WA0117301231001027001000
B1627564241907N07201278WA0117301228001029001000
B1628004241974N07201325WA0116401222001027001000
B1628044242040N07201379WA0115801213001027001000
B1628084242104N07201435WA0115701212001025001000
B1628124242167N07201489WA0114901206001023001000
B1628164242229N07201544WA0114201199001023001000
B1628204242292N07201598WA0113701192001023001000
B1628244242356N07201649WA0112701185001029001000
B1628284242423N07201693WA0112101178001029001000
B1628324242489N07201738WA0111701172001027001000
B1628364242553N07201788WA0111701171001029001000
B1628404242615N07201842WA0112001172001029001000
B1628444242670N07201894WA0113401192001029001000
B1628484242720N07201945WA0113101189001027001000
B1628524242772N07201999WA0113901190001031001000
B1628564242821N07202048WA0114701204001025001000
B1629004242867N07202092WA0114001199001027001000
B1629044242911N07202142WA0112401186001029001000
B1629084242960N07202197WA0111701175001023001000
B1629124243008N07202258WA0111001169001023001000
B1629164243059N07202323WA0111101166001025001000
B1629204243109N07202390WA0111201166001025001000
B1629244243157N07202455WA0111401172001023001000
B1629284243206N07202519WA0110801166001025001000
B1629324243259N07202585WA0111901168001029001000
F162934220603021712281946245148
B1629364243292N07202657WA0114101185001037001000
F162939220106030217122819462451
B1629404243258N07202721WA0114701199001035001000
B1629444243186N07202718WA0113801193001033001000
B1629484243123N07202645WA0113701189001029002000
B1629524243096N07202535WA0114601192001029001000
B1629564243108N07202437WA0116401212001029001000
B1630004243151N07202422WA0116101212001023001000
B1630044243182N07202472WA0116301211001023001000
B1630084243169N07202533WA0116401217001025001000
F1630090106030217122819462451
F163010220106030217122819462451
B1630124243109N07202555WA0115301208001025002000
B1630164243037N07202515WA0115601207001023002000
F1630192201060302171228192451
B1630204242997N07202425WA0117601219001021002000
B1630244243021N07202346WA0117001225001029002000
B1630284243068N07202341WA0117301228001027002000
B1630324243084N07202397WA0117101224001023002000
F16303501060302171228192451
B1630364243038N07202449WA0116601218001025002000
F1630362201060302171228192451
B1630404242964N07202423WA0117201222001023002000
F16304022010603171228192451
F1630412201060302171228192451
B1630444242910N07202339WA0118001231001023002000
F16304722010603171228192451
B1630484242873N07202245WA0119001242001023001000
F1630492201060302171228192451
B1630524242868N07202150WA0118801243001023001000
B1630564242900N07202078WA0117701235001021001000
B1631004242955N07202050WA0116501220001021001000
B1631044243020N07202054WA0114401201001025001000
B1631084243091N07202066WA0113501190001027001000
B1631124243162N07202088WA0114301188001027001000
B1631164243231N07202113WA0115801208001029001000
B1631204243292N07202132WA0116701221001025001000
F163120220106030217122819462451
B1631244243351N07202158WA0115701213001023001000
B1631284243412N07202189WA0115201207001027001000
B1631324243477N07202220WA0113701194001023001000
B1631364243547N07202244WA0112901185001025001000
B1631404243623N07202253WA0112301177001029001000
B1631444243703N07202252WA0110901167001031001000
B1631484243784N07202246WA0110401159001031001000
B1631524243866N07202237WA0109701153001031001000
B1631564243949N07202224WA0108801143001029001000
B1632004244034N07202206WA0107701132001027001000
B1632044244121N07202184WA0106801122001029001000
B1632084244209N07202163WA0105801113001031001000
B1632124244297N07202140WA0105701106001029001000
B1632164244380N07202120WA0107801126001031001000
B1632204244451N07202104WA0107401133001033001000
B1632244244525N07202088WA0106101118001033001000
B1632284244601N07202068WA0106001115001031001000
B1632324244674N07202049WA0105901114001027001000
B1632364244747N07202031WA0105901116001023001000
B1632404244822N07202011WA0105201108001029001000
B1632444244898N07201993WA0104301098001027001000
B1632484244976N07201974WA0103401089001027001000
B1632524245055N07201953WA0102601082001031001000
B1632564245133N07201929WA0102601080001029001000
B1633004245208N07201904WA0102301079001027001000
B1633044245283N07201879WA0102201074001027001000
B1633084245358N07201851WA0102701079001031001000
B1633124245427N07201815WA0104401095001031001000
B1633164245490N07201777WA0105301109001025001000
B1633204245547N07201738WA0106701120001023001000
B1633244245601N07201702WA0108301132001023001000
B1633284245648N07201717WA0110301151001025001000
F163328220603021712281946245148
B1633324245647N07201784WA0111301166001029002000
F163332220106030217122819462451
F163335220106030217281946245148
B1633364245590N07201829WA0111401168001025001000
F1633372201060302172819462451
F163339220106030217122819462451
B1633404245517N07201793WA0111601171001025001000
F1633432201060302171228194651
B1633444245474N07201701WA0112801175001023002000
F163344220106030217122819462451
B1633484245490N07201616WA0114001191001027001000
B1633524245539N07201602WA0114001196001023001000
F1633522206030217122819462451
B1633564245562N07201662WA0115201203001017002000
F163358220106030217122819462451
B1634004245516N07201728WA0116501214001023002000
F1634002201060302172819462451
F163402220106030217122819462451
B1634044245440N07201715WA0117301223001025002000
F1634052201060317122819462451
F163407220106031712281946
B1634084245399N07201623WA0118101228001025002000
F1634082201060302171228194624
B1634124245423N07201541WA0119201243001023001000
F16341522060302171228194624
B1634164245473N07201531WA0120101251001023001000
F1634172201060302171228194624
F16341822060302171228194624
B1634204245493N07201588WA0121401264001019001000
F1634202201060302171228194624
B1634244245451N07201644WA0122201274001021001000
F16342422010603021728194624
F1634272201060302171228194624
B1634284245379N07201627WA0122901280001023002000
B1634324245343N07201539WA0123501286001021001000
B1634364245370N07201462WA0124301294001021001000
F16343822060302171228194624
B1634404245418N07201475WA0124601298001021001000
F1634432201060302171228194624
B1634444245415N07201546WA0126401313001017001000
F16344522060302171228194624
F1634462201060302171228194624
F16344722010603021728194624
B1634484245357N07201583WA0127401324001021002000
F1634482201060302171228194624
F16345122010603171228194624
B1634524245291N07201534WA0127501327001019002000
F163454220106031712281924
B1634564245279N07201438WA0128601338001025002000
F16345622010603021712281924
B1635004245321N07201388WA0129001343001021002000
F163501220603021712281924
B1635044245358N07201424WA0129401347001023002000
B1635084245335N07201496WA0130701356001021002000
F16350922010603021712281924
F16351022010603021728194624
B1635124245265N07201509WA0131401366001021002000
F16351322010603021712281924
F163514220106031712281924
F1635152201060317122819
B1635164245213N07201435WA0132201371001019002000
F16351722010603021712281924
B1635204245224N07201341WA0132401380001025001000
B1635244245272N07201313WA0133001384001019001000
F163524220603021712281924
B1635284245301N07201365WA0133701385001019001000
F16353022010603021712281924
B1635324245259N07201428WA0134901397001027002000
F163532220106030217281924
F16353322010603021728195124
F163535220106031728195124
B1635364245192N07201387WA0136201406003023004000
F16353622010603171228231951
F1635382201060317122823195124
F1635392201060302171228231924
B1635404245188N07201292WA0137101425003029004000
F16354022010603021712281924
F163543220603021712281924
B1635444245235N07201265WA0137201425003031004000
F16354622060302171228231924
B1635484245254N07201328WA0138201430003029004000
F16355122010603021728231924
B1635524245204N07201379WA0139701447003029004000
F1635542201060302171228231924
B1635564245141N07201345WA0140901456003027004000
F16355622010603021712282319
F163557220106031712282319
F16355822010603171228231924
F1635592201060302171228231924
B1636004245124N07201256WA0142101470003023004000
F16360222010603021712281924
B1636044245157N07201197WA0142101474003023004000
F163605220603021712281924
B1636084245195N07201220WA0142201473003021004000
F16360822060302171228231924
F163609220603021712281924
F16361122060302171228231924
B1636124245192N07201294WA0142201471003023004000
B1636164245152N07201367WA0143501480003023004000
F16361822010603021728231924
B1636204245083N07201392WA0144401495003031004000
F1636202201060302171228231924
F16362122010603021728231924
F1636222201060302171228231924
F16362322010603171228231924
B1636244245028N07201324WA0144001492003025004000
F1636272201060302171228231924
B1636284245042N07201231WA0144401496003025004000
F16362922010603021712281924
B1636324245091N07201196WA0146101510003025004000
F163633220603021712281924
F16363522060302171228231924
B1636364245121N07201235WA0146401519003023004000
F163638060302171228231924
F16363901060302171228231924
B1636404245084N07201301WA0146301516003025004000
F1636402201060302171228231924
B1636444245008N07201303WA0147101524003023004000
F16364722010603171228231924
B1636484244955N07201226WA0147801529003023004000
F1636492201060302171228231924
B1636524244954N07201130WA0148101536003023004000
B1636564244994N07201067WA0148701541003021004000
B1637004245040N07201046WA0148501543003019004000
B1637044245081N07201066WA0148701541003023004000
B1637084245110N07201116WA0147601537003025004000
B1637124245149N07201170WA0146101521003029004000
B1637164245205N07201217WA0144901508003027004000
B1637204245270N07201257WA0144401502003029004000
F163720220106030217122823195124
B1637244245337N07201296WA0143701494003029004000
B1637284245406N07201334WA0143101487003029004000
B1637324245477N07201370WA0141801478003027004000
B1637364245549N07201407WA0140501464003027004000
B1637404245626N07201444WA0140001455003029004000
B1637444245702N07201476WA0139501452003029004000
B1637484245778N07201508WA0138801444003029004000
B1637524245855N07201540WA0137801436003031004000
B1637564245932N07201572WA0137201428003031004000
B1638004246010N07201607WA0136401422003027004000
B1638044246089N07201642WA0135501414003029004000
B1638084246167N07201682WA0135001405003031004000
B1638124246243N07201726WA0135601408003031004000
B1638164246305N07201767WA0136901428003029004000
B1638204246361N07201810WA0134801414003031004000
B1638244246423N07201865WA0130901371003031004000
B1638284246498N07201933WA0129601349003031004000
B1638324246580N07201990WA0128901345003031004000
B1638364246664N07202038WA0128101338003031004000
B1638404246747N07202082WA0128701337003035004000
B1638444246828N07202125WA0127601333003033004000
B1638484246909N07202161WA0127301326001031001000
B1638524246989N07202193WA0127801333001031001000
B1638564247067N07202222WA0127701333001029001000
B1639004247143N07202248WA0127101329001031001000
B1639044247219N07202273WA0126501321001029001000
B1639084247295N07202295WA0126001317001031001000
B1639124247370N07202315WA0125101309001031001000
B1639164247446N07202335WA0124101298001033001000
B1639204247524N07202354WA0123701290001029001000
B1639244247599N07202373WA0123501291001029001000
B1639284247672N07202384WA0123601290001035001000
B1639324247742N07202390WA0127301314001037001000
B1639364247791N07202394WA0129901352001031001000
B1639404247833N07202367WA0129301347001031001000
B1639444247849N07202282WA0130801360001031001000
B1639484247803N07202209WA0131901371001025001000
B1639524247732N07202212WA0132601379001025001000
B1639564247697N07202278WA0132101377001023001000
B1640004247710N07202350WA0132001372001023001000
B1640044247752N07202390WA0132401379001021001000
B1640084247797N07202410WA0132801381001019001000
B1640124247847N07202408WA0132501381001021001000
B1640164247898N07202386WA0133301387001017001000
B1640204247947N07202358WA0133501388001019001000
F164020220603021712282319512446
B1640244247995N07202334WA0134801403001021001000
B1640284248040N07202308WA0135001404001025001000
B1640324248062N07202233WA0135001404001025001000
B1640364248024N07202153WA0135401405001027001000
B1640404247956N07202140WA0136101413001025001000
B1640444247905N07202195WA0136401415001025001000
B1640484247896N07202272WA0138901430001025001000
B1640524247920N07202321WA0139401442001029001000
B1640564247966N07202305WA0138501438001025001000
B1641004247991N07202221WA0138901440001023001000
F1641022206030217122823195146
F164103220603021712282319512446
B1641044247961N07202132WA0139401443001023001000
B1641084247897N07202091WA0140701458001025001000
B1641124247839N07202117WA0141201464001025001000
F1641120603021712282319512446
F164114220603021712282319512446
B1641164247824N07202190WA0142101467001023001000
B1641204247861N07202227WA0143501481001025001000
B1641244247898N07202175WA0142601481001027001000
F1641272206030217122823195146
B1641284247885N07202081WA0143201482001023001000
F164129220603021712282319512446
B1641324247827N07202023WA0144301492001023001000
B1641364247757N07202031WA0144601498001019001000
F1641380603021712282319512446
F164139220603021712282319512446
B1641404247707N07202092WA0145801505001023001000
B1641444247698N07202168WA0147101523001023001000
B1641484247739N07202193WA0146601519001023001000
B1641524247783N07202133WA0147001521001027001000
F1641552206030217122823195146
B1641564247767N07202041WA0148101530001027001000
F164156220603021712282319512446
B1642004247699N07202008WA0148501540001023001000
B1642044247633N07202052WA0149701548001023001000
B1642084247607N07202134WA0151301564001023001000
F1642092206030217122819512446
F164210220603021712282319512446
B1642124247620N07202200WA0151601572001023001000
B1642164247664N07202231WA0151101562001025001000
B1642204247717N07202223WA0151001563001017001000
B1642244247765N07202191WA0149201554001021001000
B1642284247820N07202176WA0147401534001021001000
B1642324247884N07202190WA0145701518001025001000
B1642364247953N07202218WA0144801505001025001000
B1642404248026N07202249WA0143601496001031001000
B1642444248103N07202285WA0142701484001031001000
B1642484248178N07202330WA0141301472001031001000
B1642524248252N07202384WA0140601462001031001000
B1642564248326N07202443WA0139701456001031001000
B1643004248400N07202509WA0138401439001035001000
B1643044248475N07202583WA0139301443001031001000
B1643084248546N07202655WA0140001455001031001000
B1643124248612N07202727WA0139601450001031001000
B1643164248678N07202803WA0140101452001031001000
B1643204248744N07202875WA0141501465001031001000
B1643244248800N07202934WA0144201494001031001000
B1643284248844N07202982WA0143301498001027001000
B1643324248894N07203033WA0142101477001031001000
B1643364248953N07203091WA0140401461001049001000
B1643404249015N07203151WA0139901458001045001000
B1643444249079N07203213WA0138601443001033001000
B1643484249149N07203276WA0137301431001033001000
B1643524249222N07203338WA0136701423001031001000
B1643564249296N07203399WA0135401410001033001000
B1644004249369N07203460WA0135901408001031001000
B1644044249435N07203514WA0136901422001031001000
B1644084249492N07203559WA0136301422001029001000
B1644124249552N07203606WA0134601406001035001000
B1644164249616N07203660WA0133201389001031001000
B1644204249682N07203713WA0132701384001031001000
B1644244249749N07203767WA0131601373001027001000
B1644284249817N07203823WA0130801362001031001000
B1644324249886N07203883WA0129901351001031001000
B1644364249957N07203945WA0129001344001033001000
B1644404250028N07204008WA0127401331001031001000
B1644444250102N07204070WA0126701323001029001000
B1644484250174N07204130WA0126701321001033001000
B1644524250241N07204188WA0128001331001031001000
B1644564250301N07204243WA0127601334001033001000
B1645004250362N07204303WA0125301311001033001000
B1645044250431N07204373WA0124601297001033001000
B1645084250498N07204443WA0123901297001031001000
B1645124250564N07204510WA0123101287001031001000
B1645164250633N07204574WA0124301292001033001000
B1645204250698N07204636WA0123801296001031001000
B1645244250762N07204699WA0123901292001029001000
B1645284250823N07204763WA0123901295001031001000
B1645324250882N07204825WA0124801300001027001000
B1645364250939N07204886WA0125801308001027001000
B1645404250989N07204939WA0127401327001029001000
B1645444251031N07204980WA0127101330001025001000
B1645484251070N07205022WA0125901317001029001000
B1645524251114N07205070WA0124401300001033001000
B1645564251159N07205126WA0124801301001031001000
B1646004251203N07205177WA0126101315001029001000
F164603220603021712281951244648
B1646044251234N07205234WA0126501319001029001000
F164604220603021712282319512446
B1646084251246N07205309WA0126401316001029001000
B1646124251256N07205390WA0128201330001029001000
B1646164251272N07205461WA0129801343001031001000
B1646204251321N07205439WA0130301350001033001000
F1646232206030217122823195146
B1646244251315N07205346WA0129801350001035001000
F164624220603021712282319512446
B1646284251252N07205297WA0130601352001025001000
B1646324251188N07205325WA0133001377001029001000
B1646364251186N07205375WA0132701382001025001000
B1646404251232N07205339WA0132601371001029001000
B1646444251211N07205250WA0134801396001027001000
B1646484251147N07205255WA0135401403001025001000
B1646524251141N07205319WA0137301423001027001000
B1646564251182N07205304WA0136701422001023001000
B1647004251175N07205211WA0137801426001027001000
B1647044251107N07205196WA0138901439001029001000
B1647084251086N07205260WA0140301451001025001000
B1647124251123N07205280WA0140101454001023001000
B1647164251162N07205222WA0141201463001023001000
F1647192206030217122823195146
B1647204251149N07205134WA0142101473001023001000
F164722220603021712282319512446
B1647244251089N07205085WA0142101475001023001000
B1647284251028N07205108WA0143201482001029001000
B1647324251006N07205163WA0143501488001025001000
B1647364251019N07205211WA0144001492001021001000
B1647404251057N07205233WA0144601495001021001000
B1647444251098N07205246WA0145101504001023001000
B1647484251141N07205225WA0144301502001019001000
B1647524251169N07205150WA0143901496001023001000
B1647564251153N07205053WA0144601495001023001000
B1648004251096N07204996WA0147801521001029001000
B1648044251053N07205031WA0147101526001029001000
B1648084251089N07205066WA0146701517001031001000
B1648124251107N07204975WA0147701519001031001000
B1648164251046N07204932WA0149701545001027001000
B1648204251021N07204995WA0150001544001033001000
B1648244251068N07205014WA0151101563001027001000
B1648284251084N07204926WA0151401560001029001000
B1648324251019N07204880WA0152901576001031001000
B1648364250987N07204946WA0153801586001031001000
B1648404251031N07204976WA0154901600001027001000
B1648444251066N07204901WA0154501600001025001000
B1648484251022N07204813WA0156601611001027001000
B1648524250960N07204837WA0157301626001029001000
B1648564250975N07204901WA0158601626001031001000
B1649004251025N07204862WA0159701652001031001000
B1649044251014N07204769WA0160501655001025001000
B1649084250947N07204742WA0160301657001029001000
B1649124250912N07204808WA0160501660001031001000
B1649164250943N07204862WA0162301674001031001000
B1649204250990N07204816WA0162801682001027001000
B1649244250977N07204716WA0164801688001029001000
B1649284250910N07204681WA0165001704001031001000
B1649324250864N07204736WA0165201702001027001000
B1649364250883N07204803WA0165601709001029001000
B1649404250940N07204783WA0166201716001027001000
B1649444250948N07204679WA0166601716001029001000
B1649484250880N07204615WA0167001723001031001000
B1649524250816N07204662WA0167801721001027001000
F1649540603021712282319512446
B1649564250841N07204735WA0170101748001031001000
F164956220603021712282319512446
B1650004250890N07204692WA0171201768001031001000
B1650044250875N07204597WA0171801772001027001000
B1650084250806N07204559WA0171901772001029001000
B1650124250739N07204591WA0173601784001029001000
B1650164250702N07204658WA0174801800001025001000
B1650204250708N07204736WA0172401793001027001000
B1650244250744N07204820WA0170101761001029001000
B1650284250796N07204907WA0168901745001029001000
B1650324250856N07204986WA0169801748001031001000
B1650364250916N07205055WA0169401757001027001000
B1650404250976N07205129WA0166401728001029001000
B1650444251042N07205219WA0165301707001033001000
B1650484251111N07205313WA0165501704001039001000
B1650524251176N07205411WA0165501702001035001000
B1650564251239N07205510WA0165701708001035001000
B1651004251301N07205602WA0165601704001039001000
B1651044251366N07205691WA0164601698001037001000
B1651084251431N07205779WA0163901692001033001000
B1651124251497N07205864WA0163501687001035001000
B1651164251562N07205947WA0162501678001033001000
B1651204251626N07206033WA0161401667001035001000
B1651244251690N07206118WA0160101656001033001000
B1651284251757N07206202WA0159101643001035001000
B1651324251827N07206284WA0158201631001037001000
B1651364251900N07206359WA0157701628001037001000
B1651404251977N07206429WA0156801620001035001000
B1651444252056N07206501WA0155201603001037001000
B1651484252128N07206592WA0154001591001033001000
B1651524252185N07206703WA0152701578001033001000
B1651564252236N07206822WA0152101573001035001000
B1652004252286N07206940WA0151601567001033001000
B1652044252336N07207059WA0150901559001033001000
B1652084252385N07207179WA0150601556001037001000
B1652124252433N07207295WA0150801557001031001000
B1652164252483N07207406WA0150801556001041001000
B1652204252540N07207505WA0150001551001039001000
B1652244252600N07207598WA0149501545001037001000
B1652284252654N07207696WA0148701540001035001000
B1652324252718N07207780WA0147701529001033001000
B1652364252795N07207849WA0146901521001033001000
B1652404252878N07207905WA0146301513001035001000
B1652444252964N07207953WA0145401505001031001000
B1652484253051N07207998WA0144001494001035001000
B1652524253141N07208041WA0142901481001031001000
B1652564253233N07208083WA0141901469001035001000
B1653004253328N07208122WA0140701459001037001000
B1653044253422N07208160WA0140501453001039001000
B1653084253514N07208198WA0139501448001037001000
B1653124253605N07208237WA0138401435001031001000
B1653164253696N07208275WA0137101421001033001000
B1653204253789N07208312WA0136101411001035001000
B1653244253880N07208351WA0135501403001031001000
B1653284253970N07208391WA0135101402001033001000
B1653324254057N07208429WA0134501398001031001000
B1653364254142N07208470WA0134901398001037001000
B1653404254224N07208515WA0135101398001035001000
B1653444254304N07208555WA0137601421001035001000
B1653484254372N07208581WA0140801458001031001000
B1653524254422N07208603WA0142401480001029001000
B1653564254467N07208625WA0141601475001031001000
B1654004254517N07208649WA0141101469001031001000
B1654044254572N07208674WA0140501462001031001000
B1654084254629N07208699WA0139801456001027001000
B1654124254691N07208729WA0137801437001029001000
F165414224806030217122823195124
B1654164254760N07208761WA0136701421001031001000
B1654204254833N07208794WA0135401410001029001000
B1654244254909N07208825WA0134601398001029001000
B1654284254986N07208856WA0133601388001031001000
B1654324255064N07208887WA0132701379001031001000
B1654364255142N07208916WA0133501381001035001000
B1654404255215N07208939WA0135801406001033001000
B1654444255277N07208955WA0137201425001031001000
B1654484255333N07208975WA0136801425001031001000
B1654524255393N07209000WA0136401416001031001000
B1654564255455N07209028WA0136301418001027001000
B1655004255516N07209063WA0136101415001029001000
B1655044255576N07209103WA0134401404001031001000
B1655084255643N07209145WA0133801389001031001000
B1655124255713N07209187WA0133101386001031001000
B1655164255785N07209229WA0132601379001031001000
F165517224806030217122819512446
B1655204255858N07209277WA0132001371001031001000
F165523224806030217122823195124
B1655244255932N07209327WA0132101370001029001000
B1655284256005N07209374WA0132901382001031001000
B1655324256075N07209418WA0132901381001029001000
B1655364256145N07209463WA0132401376001031001000
B1655404256217N07209506WA0134601388001033001000
B1655444256277N07209549WA0136401407001041001000
F165544480603021712282319512446
B1655484256285N07209624WA0136501413001045001000
F165550224806030217122823195124
F165551220603021712282319512446
B1655524256226N07209667WA0135701408002041002000
F1655542206030217122823195146
B1655564256152N07209621WA0135101404002031002000
B1656004256110N07209513WA0135901405001029001000
F165603220603021712282319512446
B1656044256109N07209398WA0137201418001031001000
F1656052206030217122823195124
B1656084256133N07209314WA0138701438001025001000
B1656124256176N07209294WA0137801435001021001000
B1656164256223N07209309WA0138101433001023001000
B1656204256270N07209331WA0138501437001021001000
B1656244256316N07209351WA0138201437001023001000
B1656284256363N07209375WA0137501430001025001000
B1656324256416N07209404WA0135401412001027001000
B1656364256477N07209438WA0134101394001027001000
B1656404256544N07209475WA0132501378001031001000
B1656444256617N07209514WA0130601359001029001000
B1656484256693N07209556WA0129701346001035001000
B1656524256772N07209597WA0129301341001037001000
B1656564256850N07209639WA0129601342001033001000
B1657004256925N07209682WA0129501343001033001000
B1657044256999N07209725WA0129001340001033001000
B1657084257074N07209769WA0129001341001033001000
B1657124257148N07209817WA0128401332001031001000
F16571222060302171228195124
F1657152206030217122823195124
B1657164257223N07209870WA0126401319001031001000
B1657204257297N07209925WA0125701308001037001000
B1657244257371N07209980WA0123701291001033001000
F16572522060302171228195124
B1657284257444N07210039WA0121901270001031001000
F1657282206030217122823195124
F16573122060302171228195124
B1657324257520N07210100WA0119601249001031001000
F1657332246060302171228195124
B1657364257597N07210167WA0118101231001035001000
F165738224606030217122819512448
B1657404257674N07210239WA0117201218001039001000
F165742224606030217122823195124
B1657444257749N07210311WA0117001217001039001000
B1657484257821N07210378WA0116801215001039001000
F165751224606030217122819512448
B1657524257893N07210445WA0115301198001039001000
B1657564257969N07210520WA0113701185001045001000
F165756224606030217122823195124
B1658004258045N07210595WA0113201178001041001000
B1658044258121N07210669WA0112701171001039001000
B1658084258197N07210739WA0112701170001037001000
B1658124258268N07210805WA0114501187001037001000
B1658164258332N07210863WA0115101199001037001000
B1658204258393N07210917WA0116701214001033001000
B1658244258448N07210967WA0115601215001031001000
B1658284258501N07211024WA0113501192001031001000
B1658324258560N07211085WA0111801171001031001000
F165833224606030217122819512448
B1658364258621N07211152WA0111801165001031001000
F165836224606030217122823195124
B1658404258682N07211221WA0112801171001033001000
B1658444258735N07211286WA0116001199001033001000
B1658484258772N07211337WA0117401223001035001000
B1658524258824N07211340WA0115001205001035001000
B1658564258875N07211265WA0113501183001037001000
B1659004258867N07211147WA0113501181001037001000
B1659044258801N07211067WA0113201182001033001000
B1659084258714N07211056WA0112101167001025001000
B1659124258640N07211116WA0111101158001033001000
B1659164258586N07211205WA0111601161001029001000
B1659204258545N07211298WA0112501172001029001000
B1659244258514N07211387WA0115001188001029001000
B1659284258515N07211467WA0116901206001041001000
B1659324258568N07211454WA0117501220001037001000
B1659364258579N07211360WA0117901225001033001000
B1659404258527N07211288WA0118301233001029001000
B1659444258463N07211304WA0118901237001029001000
B1659484258438N07211375WA0120201247001025001000
F1659482246060302171228195124
F165949224606030217122823195124
B1659524258471N07211415WA0120801258001025001000
B1659564258517N07211365WA0120301255001025001000
B1700004258507N07211264WA0121701262001031001000
B1700044258445N07211218WA0122301275001029001000
B1700084258387N07211263WA0122701271001027001000
B1700124258389N07211338WA0124301289001029001000
B1700164258435N07211341WA0124101296001025001000
B1700204258465N07211259WA0124101287001027001000
B1700244258436N07211161WA0126101307001029001000
B1700284258369N07211132WA0126601316001025001000
B1700324258319N07211187WA0127401319001025001000
B1700364258325N07211254WA0128701337001025001000
B1700404258372N07211248WA0128101336001023001000
B1700444258393N07211155WA0128001328001023001000
B1700484258360N07211051WA0129301339001023001000
B1700524258302N07210980WA0130401352001025001000
B1700564258235N07210995WA0132001363001029001000
B1701004258216N07211069WA0133101377001029001000
B1701044258256N07211101WA0134001389001025001000
B1701084258296N07211045WA0133601388001025001000
B1701124258279N07210946WA0134101387001025001000
B1701164258218N07210894WA0135501404001025001000
B1701204258160N07210933WA0136601413001023001000
B1701244258153N07211007WA0138201428001027001000
B1701284258193N07211026WA0138901445001025001000
B1701324258226N07210962WA0138601440001023001000
B1701364258201N07210869WA0139001441001025001000
B1701404258134N07210828WA0140801456001025001000
B1701444258073N07210858WA0141601470001023001000
B1701484258051N07210926WA0142501473001023001000
B1701524258086N07210960WA0143201486001025001000
B1701564258131N07210908WA0144001493001023001000
B1702004258128N07210815WA0144701502001025001000
F1702002246060302171228231951
F170202224606030217122823195124
B1702044258067N07210765WA0144901502001025001000
B1702084257999N07210798WA0146401512001023001000
F170211224606030217122819512448
B1702124257975N07210864WA0147501528001023001000
F170212224606030217122823195124
B1702164257994N07210909WA0149101545001021001000
B1702204258033N07210910WA0148201540001019001000
B1702244258078N07210863WA0148901541001021001000
B1702284258093N07210779WA0149201552001025001000
B1702324258053N07210700WA0148501541001023001000
B1702364257976N07210672WA0148601540001025001000
B1702404257900N07210676WA0149601550001023001000
B1702444257841N07210722WA0149101545001023001000
F1702472246060302171228195124
B1702484257821N07210799WA0150301556001027001000
F170249224606030217122823195124
B1702524257846N07210854WA0150701563001023001000
B1702564257894N07210860WA0150701564001023001000
B1703004257943N07210819WA0151201567001021001000
B1703044257977N07210741WA0151001569001017001000
F1703072206030217122823195124
B1703084257999N07210649WA0151201570001021001000
B1703124258011N07210554WA0151501573001021001000
B1703164258015N07210455WA0150701564001021001000
B1703204258012N07210355WA0150601563001027001000
B1703244257998N07210256WA0148701548001027001000
B1703284257942N07210170WA0147301528001031001000
B1703324257855N07210150WA0146801523001031001000
B1703364257787N07210224WA0147101523001031001000
B1703404257749N07210318WA0150101552001033001000
B1703444257728N07210397WA0150001562001025001000
F17034422060302171228195124
F1703462206030217122823195124
B1703484257741N07210474WA0148701549001023001000
B1703524257783N07210544WA0147701535001025001000
B1703564257839N07210598WA0149601552001023001000
B1704004257893N07210643WA0149601557001023001000
B1704044257948N07210693WA0148901551001025001000
B1704084258008N07210741WA0148101542001023001000
B1704124258072N07210787WA0147601536001029001000
B1704164258141N07210835WA0146601527001031001000
B1704204258209N07210890WA0145601516001025001000
B1704244258277N07210950WA0144601508001031001000
B1704284258350N07211011WA0144401501001027001000
F17043122060302171228195124
B1704324258424N07211073WA0143701498001033001000
F1704352223060302171228195124
B1704364258498N07211143WA0143201486003031004000
B1704404258572N07211218WA0144201485003035004000
B1704444258637N07211284WA0148101528003031004000
B1704484258688N07211333WA0149401552003029004000
B1704524258736N07211383WA0147901539003031004000
F170453222306030217122846195124
B1704564258790N07211443WA0145301515001027001000
B1705004258850N07211512WA0143901494001029001000
B1705044258913N07211587WA0143201488001031001000
B1705084258976N07211663WA0142401478001029001000
B1705124259041N07211740WA0142401476001029001000
B1705164259106N07211820WA0143601483001031001000
B1705204259166N07211895WA0147001520001025001000
B1705244259215N07211958WA0148701541001025001000
B1705284259256N07212018WA0149301549001027001000
B1705324259314N07212044WA0148601542001029001000
B1705364259382N07212018WA0148001535001029001000
B1705404259453N07211994WA0146601526001027001000
F170542222306030217124619512448
B1705444259528N07212018WA0145101509001027001000
F170545222306030217122846195124
B1705484259599N07212074WA0145201505001027001000
B1705524259660N07212146WA0145801515001031001000
B1705564259713N07212225WA0145201510001027001000
B1706004259762N07212311WA0144301500001029001000
B1706044259813N07212404WA0144501494001031001000
B1706084259866N07212494WA0145801509001033001000
B1706124259916N07212573WA0147901533001031001000
B1706164259964N07212652WA0149001538001029001000
F170619220603021712284619512448
B1706204300002N07212733WA0151601558001037001000
F170620230603021712284619512448
F170622222306030217122846195124
F170623230603021712284619512448
B1706244259978N07212805WA0154001589001041001000
F170624222306030217284619512448
F170626222306030217122846195124
B1706284259914N07212793WA0154101593001029001000
F1706282223060302171228461951
F170630222306030217122819
B1706324259869N07212707WA0153801590001025001000
F17063422230603021712281924
B1706364259873N07212602WA0154501598001023001000
B1706404259916N07212555WA0156001613001025001000
F170642230603021712281924
B1706444259950N07212587WA0156001614001025001000
F17064722230603021712281924
B1706484259940N07212652WA0155401611001023001000
F170648230603021712281924
F17064922230603021712281924
F170650230603021712281924
B1706524259893N07212704WA0155601609001023001000
F17065322230603021712281924
B1706564259827N07212708WA0156201616001023001000
F170656222306030217122819
B1707004259770N07212641WA0157601622001025001000
F1707022223060302171219
F170703222306030217121924
B1707044259765N07212548WA0158401635001029001000
F1707062206030217121924
F170707220603021712281924
B1707084259810N07212549WA0157801627001025001000
F1707090603021712281924
F170710230603021712281924
B1707124259790N07212624WA0158901634001035001000
F17071422230603021712281924
B1707164259724N07212634WA0160701658001031001000
F170717222306030217122819
B1707204259682N07212558WA0161001660001029001000
F17072022230603021712281924
F170721222306030217121924
B1707244259706N07212473WA0161101664001029001000
B1707284259762N07212467WA0162501675001031001000
F170728230603021712281924
B1707324259785N07212523WA0163201686001029001000
F17073422230603021712281924
B1707364259749N07212583WA0163501689001027001000
F170739222306030217122819
B1707404259682N07212569WA0165101702001023001000
B1707444259652N07212481WA0165401710001029001000
F170744222306030217121924
B1707484259683N07212406WA0166301718001023001000
F17075022230603021712281924
B1707524259736N07212402WA0167501732001025001000
F170752230603021712281924
B1707564259751N07212456WA0167901736001023001000
F17075822230603021712281924
B1708004259706N07212504WA0167501730001025001000
F170802222306030217122819
B1708044259636N07212472WA0169201739001027001000
F1708072223060302171219
B1708084259610N07212380WA0170601758003025004000
F170808222306030217122419
B1708124259645N07212307WA0171001765003027004000
F17081222230603021712282419
B1708164259698N07212313WA0171401769003027004000
F170816230603021712282419
B1708204259699N07212380WA0171801771003031004000
F17082222230603021712282419
B1708244259640N07212407WA0172201779003031004000
F170825222306030217122819
B1708284259592N07212339WA0173101787003031004000
F1708292223060302171219
F170830222306030217122419
B1708324259609N07212246WA0173901793003027004000
F17083522230603021712282419
B1708364259665N07212223WA0174401800003029004000
B1708404259699N07212274WA0174701806003031004000
F170841230603021712282419
B1708444259671N07212333WA0174501805003025004000
F17084522230603021712282419
B1708484259603N07212343WA0174201797003019004000
F170850222306030217122819
B1708524259534N07212299WA0175901810003023004000
F1708552223060302171219
B1708564259510N07212212WA0178001833003025004000
F170856222306030217122419
B1709004259553N07212163WA0177701834003023004000
F170901220603021712282419
F1709020603021712282419
B1709044259587N07212216WA0177401832003025004000
F170905230603021712282419
F17090622230603021712282419
B1709084259537N07212269WA0177101823003031004000
F170910222306030217122819
B1709124259470N07212221WA0179101844003031004000
F170915222306030217122419
B1709164259464N07212120WA0180701859003031004000
B1709204259511N07212067WA0181801875003027004000
F17092222230603021712282419
F170923230603021712282419
B1709244259558N07212094WA0181601873003025004000
F17092523060302171228241948
B1709284259553N07212167WA0180601867003029004000
F1709282223060302171228241948
B1709324259490N07212200WA0181101866003029004000
F17093222230603021712282419
F170933222306030217122819
B1709364259428N07212144WA0183601887003029004000
F17093922230603021712282419
B1709404259407N07212051WA0184401903003025004000
F170940222306030217122419
F17094222230603021712282419
B1709444259429N07211963WA0184901906003023004000
B1709484259478N07211902WA0186101918003021004000
B1709524259532N07211895WA0186901927003023004000
B1709564259564N07211942WA0187001928003025004000
B1710004259545N07212003WA0186301922003023004000
B1710044259482N07212024WA0185901913003027004000
F171005222306030217122819
B1710084259418N07211973WA0186701921003025004000
B1710124259376N07211883WA0188401938003023004000
F171014222306030217122419
B1710164259380N07211789WA0189101949003023004000
B1710204259427N07211739WA0189201948003029004000
F17102222230603021712282419
B1710244259477N07211761WA0189901957003027004000
B1710284259484N07211822WA0189201951003023004000
B1710324259440N07211873WA0188601945003023004000
B1710364259370N07211877WA0189801951003021004000
F171038222306030217122819
B1710404259303N07211838WA0191401969003021004000
B1710444259273N07211759WA0192601984003027004000
F171045222306030217122419
B1710484259298N07211679WA0192501984003025004000
F17105022230603021712282419
B1710524259352N07211662WA0192701984003025004000
B1710564259385N07211709WA0194201999003027004000
B1711004259366N07211764WA0195602015003019004000
F171101230603021712282419
F17110322230603021712282419
B1711044259311N07211784WA0196302023003023004000
F171106222306030217122819
B1711084259258N07211740WA0197202030003019004000
B1711124259243N07211655WA0197002029003021004000
F1711122223060302171219
F171113222306030217122419
F17111422230603021712282419
B1711164259279N07211573WA0196602026003023004000
B1711204259339N07211530WA0196602023003025004000
B1711244259405N07211528WA0197202029003025004000
B1711284259462N07211551WA0197502035003027004000
B1711324259507N07211588WA0197802039003027004000
B1711364259548N07211632WA0196302029003025004000
B1711404259595N07211681WA0194402008003025004000
B1711444259649N07211732WA0191601981003029004000
B1711484259710N07211789WA0189301952003029004000
B1711524259778N07211850WA0187101930003029004000
B1711564259848N07211914WA0185901918003029004000
B1712004259918N07211980WA0184501901003029004000
B1712044259991N07212049WA0183001883003031004000
B1712084300066N07212116WA0182001874003037004000
B1712124300142N07212184WA0180801864003031004000
B1712164300220N07212254WA0179901853003031004000
B1712204300297N07212327WA0178601841003033004000
B1712244300376N07212399WA0177301829003031004000
B1712284300457N07212472WA0176101816003031004000
B1712324300541N07212544WA0175201803003043004000
B1712364300625N07212616WA0173801792003043004000
B1712404300712N07212686WA0172001777003043004000
B1712444300801N07212757WA0170301756003039004000
B1712484300894N07212827WA0169201745003047004000
B1712524300989N07212892WA0168901738003039004000
F171255222306030217122824195146
B1712564301081N07212953WA0169201741001039001000
B1713004301171N07213004WA0169501748001039001000
F171300230603021712282419514648
F1713022306030217122419514648
B1713044301263N07213027WA0169001746001033001000
B1713084301357N07213035WA0168401738001031001000
F171309230603021712282419514648
B1713124301451N07213043WA0168101737001033001000
B1713164301543N07213053WA0168001735001037001000
B1713204301631N07213065WA0168301736001037001000
F1713212306030217122419514648
B1713244301716N07213082WA0167801736001035001000
B1713284301798N07213109WA0167501732001031001000
B1713324301879N07213147WA0166301721001031001000
F171333230603021712282419514648
B1713364301958N07213196WA0165401710001033001000
B1713404302038N07213251WA0164101698001035001000
B1713444302117N07213309WA0163401690001031001000
B1713484302194N07213370WA0163001684001035001000
B1713524302270N07213431WA0162401678001033001000
B1713564302347N07213492WA0161101665001033001000
B1714004302426N07213558WA0159701652001033001000
B1714044302508N07213625WA0159001643001037001000
B1714084302590N07213690WA0158501638001033001000
B1714124302672N07213756WA0157101630001037001000
B1714164302755N07213823WA0157201620001037001000
B1714204302834N07213887WA0158101635001039001000
B1714244302909N07213946WA0156901629001035001000
B1714284302987N07214005WA0156501620001037001000
B1714324303065N07214066WA0154901607001033001000
B1714364303146N07214127WA0154201596001033001000
B1714404303227N07214191WA0153801591001033001000
B1714444303307N07214256WA0153301587001035001000
B1714484303385N07214319WA0152701580001037001000
B1714524303464N07214381WA0151301568001037001000
B1714564303543N07214441WA0150801559001033001000
B1715004303619N07214503WA0150301558001037001000
B1715044303692N07214566WA0149901553001031001000
B1715084303765N07214631WA0148401541001037001000
B1715124303840N07214695WA0147601531001033001000
B1715164303917N07214757WA0146601522001033001000
B1715204303994N07214820WA0145601510001031001000
B1715244304072N07214880WA0144101497001031001000
B1715284304154N07214938WA0142501482001035001000
B1715324304239N07214992WA0142001474001033001000
B1715364304323N07215045WA0141001466001035001000
B1715404304405N07215102WA0140001457001031001000
B1715444304486N07215159WA0139401449001031001000
B1715484304567N07215218WA0137901435001031001000
B1715524304650N07215277WA0136601419001035001000
B1715564304733N07215336WA0136101411001039001000
B1716004304815N07215392WA0136001410001039001000
B1716044304895N07215443WA0135301406001035001000
B1716084304974N07215491WA0135101404001031001000
B1716124305053N07215539WA0134501397001033001000
B1716164305135N07215584WA0134801399001031001000
B1716204305216N07215628WA0135701406001031001000
B1716244305293N07215671WA0137801425001031001000
B1716284305359N07215710WA0141701464001033001000
F1716312306030217122419514648
B1716324305417N07215733WA0142401478001029001000
F171634230603021712282419514648
B1716364305468N07215690WA0142301475001031001000
F1716382306030217122824195146
B1716404305482N07215595WA0143701486001033001000
B1716444305455N07215499WA0143801493001031001000
B1716484305394N07215435WA0144201494001037001000
F171651230603021712282419514648
B1716524305318N07215433WA0144901499001029001000
B1716564305256N07215495WA0145301503001031001000
B1717004305240N07215587WA0146001513001037001000
B1717044305278N07215652WA0146601518001031001000
B1717084305334N07215653WA0146601522001029001000
B1717124305378N07215590WA0145701511001025001000
F1717142306030217122824195146
B1717164305391N07215490WA0147701527001025001000
B1717204305372N07215391WA0148601536001029001000
B1717244305305N07215336WA0148601532001039001000
B1717284305233N07215365WA0149401543001041001000
B1717324305208N07215446WA0150501555001031001000
B1717364305236N07215511WA0150501559001027001000
B1717404305283N07215550WA0152101573001025001000
B1717444305333N07215547WA0152501579001027001000
B1717484305366N07215482WA0152601581001027001000
B1717524305352N07215387WA0152901580001033001000
B1717564305291N07215319WA0153601588001039001000
B1718004305216N07215327WA0153801590001047001000
B1718044305176N07215406WA0155201600001035001000
B1718084305204N07215469WA0155901611001031001000
B1718124305255N07215440WA0155801611001033001000
B1718164305263N07215341WA0157001618001037001000
B1718204305204N07215271WA0158201630001029001000
B1718244305133N07215298WA0158301634001029001000
B1718284305107N07215387WA0158201638001027001000
B1718324305129N07215470WA0158801642001023001000
B1718364305173N07215530WA0157101631001023001000
B1718404305229N07215581WA0155701615001025001000
B1718444305292N07215630WA0154801603001023001000
B1718484305359N07215680WA0153501592001027001000
B1718524305431N07215731WA0152401579001031001000
B1718564305508N07215779WA0150901566001031001000
B1719004305589N07215825WA0149501551001031001000
B1719044305674N07215877WA0148301536001033001000
B1719084305762N07215925WA0147701532001039001000
B1719124305849N07215973WA0147401526001039001000
B1719164305936N07216021WA0146101517001041001000
B1719204306025N07216072WA0145201503001035001000
B1719244306113N07216126WA0144101495001039001000
B1719284306202N07216179WA0143901489001041001000
B1719324306288N07216231WA0143101481001041001000
B1719364306373N07216286WA0141701471001039001000
B1719404306460N07216341WA0140401456001039001000
B1719444306546N07216401WA0139901450001041001000
B1719484306631N07216462WA0139201443001045001000
B1719524306715N07216523WA0139301447001037001000
B1719564306796N07216584WA0138501441001033001000
B1720004306875N07216649WA0138201434001035001000
B1720044306952N07216713WA0137701430001033001000
B1720084307028N07216776WA0137301425001037001000
B1720124307101N07216840WA0137301424001033001000
B1720164307173N07216907WA0137001420001033001000
B1720204307245N07216977WA0136001414001031001000
B1720244307319N07217046WA0135601406001035001000
B1720284307393N07217116WA0135301404001035001000
B1720324307468N07217184WA0135101404001035001000
B1720364307540N07217253WA0135401406001033001000
B1720404307610N07217318WA0136301414001033001000
B1720444307676N07217379WA0136301416001031001000
B1720484307742N07217442WA0136001412001033001000
B1720524307805N07217506WA0136001415001031001000
B1720564307870N07217569WA0134701403001031001000
B1721004307935N07217640WA0133601390001033001000
B1721044307996N07217720WA0132801381001035001000
B1721084308054N07217806WA0131801371001037001000
B1721124308114N07217894WA0131101365001033001000
B1721164308173N07217986WA0130701360001033001000
B1721204308232N07218074WA0130401355001031001000
B1721244308291N07218159WA0129701351001031001000
B1721284308351N07218239WA0128301339001031001000
B1721324308414N07218321WA0126601322001031001000
B1721364308473N07218413WA0125901311001031001000
B1721404308521N07218519WA0124901299001033001000
B1721444308558N07218633WA0124401294001037001000
B1721484308590N07218748WA0124301290001037001000
B1721524308624N07218862WA0123101281001037001000
B1721564308674N07218960WA0122201273001037001000
B1722004308740N07219037WA0121401265001035001000
B1722044308816N07219101WA0119801251001037001000
B1722084308899N07219155WA0119201243001041001000
B1722124308985N07219201WA0118501233001039001000
B1722164309074N07219238WA0117801228001041001000
F17221923060302171224195146
B1722204309163N07219271WA0117801225001043001000
B1722244309249N07219298WA0119101238001039001000
B1722284309327N07219321WA0119301248001031001000
F1722292306030217122824195146
B1722324309403N07219344WA0118401239001031001000
B1722364309484N07219369WA0117401227001031001000
B1722404309567N07219396WA0116001212001033001000
F17224323060302171224195146
B1722444309653N07219424WA0116101208001037001000
B1722484309738N07219452WA0115401205001035001000
F1722482306030217122824195146
B1722524309824N07219478WA0114601195001035001000
B1722564309912N07219502WA0114001187001037001000
B1723004310002N07219525WA0112801177001039001000
B1723044310093N07219550WA0111801169001039001000
F17230623060302171224195146
B1723084310183N07219576WA0111801168001035001000
B1723124310271N07219598WA0112301175001031001000
B1723164310355N07219618WA0111701172001029001000
F1723172306030217122824195146
B1723204310441N07219639WA0110001156001031001000
F17232323060302171224195146
B1723244310532N07219664WA0109401141001033001000
B1723284310624N07219688WA0108501134001035001000
B1723324310714N07219711WA0108201129001041001000
B1723364310802N07219733WA0107401124001037001000
B1723404310887N07219756WA0106101113001035001000
B1723444310971N07219781WA0105301100001031001000
B1723484311056N07219807WA0104201089001035001000
B1723524311142N07219833WA0104601094001031001000
B1723564311226N07219858WA0105101098001033001000
B1724004311306N07219883WA0106201107001037001000
B1724044311382N07219901WA0106901119001033001000
B1724084311454N07219920WA0106801122001031001000
B1724124311525N07219940WA0107001120001029001000
B1724164311596N07219958WA0107901130001031001000
B1724204311660N07219973WA0108201140001027001000
B1724244311723N07219988WA0107701134001027001000
B1724284311790N07220007WA0107001126001031001000
B1724324311863N07220018WA0107001123001029001000
F1724342306030217122824195146
B1724364311935N07220020WA0109001138001027001000
B1724404311993N07220023WA0111201165001031001000
B1724444312040N07219986WA0111001165001031001000
B1724484312057N07219896WA0110601158001031001000
F17244823060302171228195146
F1724502306030217122824195146
B1724524312027N07219797WA0110301152001033001000
B1724564311956N07219748WA0111201158001033001000
F17245623060302171228195146
F1724572523060302171228195146
B1725004311891N07219772WA0112801176001031001000
F172502252306030217122819514648
B1725044311872N07219841WA0112701178001029001000
B1725084311902N07219898WA0112201176001029001000
F1725082523060302171228195146
F17250925230603021712195146
F1725112523060302171228195146
B1725124311954N07219894WA0112301174001031001000
B1725164311986N07219819WA0111901173001029001000
B1725204311975N07219718WA0111601168001023001000
B1725244311927N07219635WA0111801168001023001000
F17252623060302171228195146
B1725284311865N07219576WA0113001181001023001000
B1725324311805N07219528WA0113501187001025001000
F1725342523060302171228195146
B1725364311738N07219530WA0112101172001027001000
B1725404311699N07219603WA0113401177001027001000
B1725444311717N07219670WA0114401191001031001000
F17254525230603021712195146
F1725472523060302171228195146
B1725484311768N07219669WA0113901189001029001000
B1725524311799N07219595WA0113701189001029001000
B1725564311775N07219504WA0113401188001023001000
F17255823060302171228195146
B1726004311710N07219454WA0113401186001025001000
F1726002523060302171228195146
B1726044311638N07219455WA0113701189001023001000
B1726084311578N07219500WA0113601188001023001000
B1726124311534N07219567WA0114501196001019001000
B1726164311498N07219630WA0115401206001023001000
B1726204311471N07219695WA0114801204001027001000
B1726244311475N07219769WA0114501198001025001000
B1726284311515N07219819WA0114101195001019001000
F17262925230603021712195146
F1726302523060302171228195146
B1726324311571N07219812WA0114101195001019001000
B1726364311617N07219762WA0114501196001021001000
B1726404311655N07219698WA0114801200001021001000
B1726444311677N07219622WA0115501207001021001000
B1726484311690N07219551WA0116301220001021001000
B1726524311701N07219481WA0115901212001021001000
B1726564311706N07219397WA0116701217001023001000
B1727004311702N07219312WA0116901222001025001000
F17270025230603021712281951
F172703252306030217121951
B1727044311719N07219240WA0116201221001023001000
F17270425230603021712281951
B1727084311764N07219215WA0115801212001025001000
B1727124311811N07219229WA0115001207001027001000
B1727164311854N07219261WA0114001196001021001000
B1727204311897N07219298WA0113401189001017001000
B1727244311937N07219341WA0112801185001025001000
B1727284311980N07219383WA0112001174001031001000
B1727324312031N07219427WA0110901165001031001000
B1727364312088N07219473WA0110001154001031001000
B1727404312150N07219522WA0109401148001031001000
B1727444312214N07219571WA0109301145001031001000
B1727484312277N07219614WA0108701143001031001000
B1727524312340N07219658WA0107101125001035001000
B1727564312407N07219704WA0106301116001033001000
B1728004312475N07219749WA0105701105001031001000
B1728044312544N07219799WA0105101099001033001000
B1728084312612N07219846WA0105101101001031001000
B1728124312677N07219889WA0105101103001031001000
F1728142523060302171228195146
B1728164312740N07219932WA0104301095001029001000
B1728204312805N07219978WA0103401086001027001000
B1728244312871N07220025WA0103001080001029001000
F172825252306030217122819514648
B1728284312937N07220072WA0101901072001031001000
B1728324313005N07220118WA0101301064001031001000
B1728364313074N07220165WA0100301055001031001000
B1728404313143N07220215WA0100001050001035001000
B1728444313210N07220263WA0099601048001031001000
B1728484313277N07220311WA0098801041001031001000
B1728524313344N07220359WA0098301036001027001000
B1728564313411N07220406WA0097401030001027001000
B1729004313477N07220456WA0097001023001029001000
B1729044313545N07220504WA0096301015001031001000
B1729084313617N07220542WA0095601007001031001000
B1729124313690N07220574WA0095301006001029001000
B1729164313763N07220603WA0094800998001033001000
B1729204313837N07220633WA0094400993001033001000
F1729222523060302171219514648
B1729244313911N07220660WA0094400994001031001000
B1729284313982N07220684WA0093800989001031001000
B1729324314054N07220706WA0092900980001031001000
B1729364314129N07220729WA0092000969001031001000
B1729404314206N07220753WA0090900958001029001000
B1729444314285N07220778WA0090200948001031001000
B1729484314365N07220802WA0089000939001033001000
B1729524314445N07220824WA0088200930001037001000
B1729564314526N07220843WA0087500921001039001000
B1730004314608N07220859WA0085800908001035001000
B1730044314692N07220877WA0084600896001037001000
B1730084314776N07220893WA0084400889001033001000
B1730124314861N07220908WA0083700884001031001000
B1730164314946N07220924WA0083700884001031001000
B1730204315029N07220941WA0084000885001031001000
B1730244315108N07220958WA0085200896001031001000
B1730284315182N07220976WA0086400911001033001000
B1730324315245N07220992WA0087200924001031001000
B1730364315304N07221008WA0086900922001031001000
B1730404315368N07221029WA0086400913001031001000
B1730444315434N07221048WA0088300927001033001000
B1730484315493N07221060WA0090600952001031001000
F173050252306030217122819514648
B1730524315542N07221082WA0092200963001027001000
F1730522506030217122819514648
F173055252306030217122819514648
B1730564315541N07221151WA0091900969001029001000
F1730562306030217122819514648
B1731004315478N07221181WA0092100965001031001000
F17310123060302171228195146
F1731032523060302171228195146
B1731044315423N07221118WA0093300980001029001000
F17310425230603021712281946
F173107252306030217122819
B1731084315423N07221032WA0094500995001025001000
F1731082523060302171219
B1731124315470N07220993WA0095301002001023001000
F173113252306030217122819
B1731164315510N07221037WA0095901010001023001000
F1731182306030217122819
B1731204315489N07221112WA0096201014002025001000
F173120230603021712281946
B1731244315422N07221129WA0097201019002023001000
F1731252306030217122819
F173126230603021712281925
B1731284315378N07221057WA0098801036002023001000
F1731312306030217121925
B1731324315399N07220984WA0100201051002021001000
B1731364315449N07220985WA0100701056002025001000
F1731360603021712281925
F173138230603021712281925
F17313923060302171228195125
B1731404315462N07221054WA0100901062001029001000
F173140230603021712281951
B1731444315416N07221113WA0101001061001029001000
B1731484315344N07221103WA0102201067001023001000
F1731502306030217121925
B1731524315315N07221018WA0103301082001023001000
B1731564315356N07220960WA0104201091001035001000
F173157230603021712281925
B1732004315400N07221008WA0105001097002033001000
F1732022306030217122819
B1732044315368N07221086WA0105001099002031001000
B1732084315294N07221078WA0106501110001031001000
F1732092306031712281925
F173210230603021712281925
B1732124315278N07220987WA0108001124002027002000
F1732132306030217121925
B1732164315331N07220958WA0109501141002039002000
F173217230603021712281925
B1732204315352N07221026WA0109201141002055002000
F1732212306030217122819
B1732244315294N07221083WA0109901141002045002000
F173227230603021712281925
B1732284315230N07221033WA0112201162002043002000
F1732282306030217121925
B1732324315244N07220951WA0113701182002035002000
F173234230603021712281925
B1732364315295N07220958WA0115001199002031002000
F1732360603021712281925
B1732404315301N07221030WA0115201201002027002000
F1732402306030217122819
B1732444315244N07221078WA0116001205002033002000
B1732484315184N07221030WA0117301222002053002000
F173248230603021712281925
B1732524315191N07220942WA0118401232002041002000
F1732522306030217121925
B1732564315244N07220928WA0120901255002033002000
F173256230603021712281925
B1733004315259N07220992WA0121201265003025004000
F173300230603021712281948
B1733044315208N07221045WA0121201260003023004000
F1733052306030217122819
B1733084315145N07221007WA0123701283003025004000
F1733082306030217121925
B1733124315144N07220923WA0125201297003023004000
B1733164315195N07220901WA0126301311003023004000
F173316230603021712281925
B1733204315219N07220965WA0127101321003023004000
F1733212306030217122819
F173322230603021712281951
B1733244315175N07221025WA0127401322003023004000
B1733284315106N07221002WA0129101335003021004000
F1733292306030217122819
F1733302306030217121925
B1733324315079N07220918WA0130701357003023004000
B1733364315113N07220860WA0132501373003023004000
B1733404315159N07220891WA0134101390003023004000
F17334323060302171219
B1733444315148N07220962WA0135101399003021004000
B1733484315092N07220981WA0135601407003019004000
F1733512306030217121925
B1733524315047N07220914WA0136001412003019004000
B1733564315067N07220838WA0137801426003019004000
B1734004315119N07220844WA0139401444003017004000
B1734044315125N07220917WA0140001451003019004000
F17340423060302171219
B1734084315069N07220949WA0140101454003019004000
F1734112306030217121925
B1734124315018N07220889WA0141101460003023004000
B1734164315033N07220810WA0142601473003019004000
F17341923060217121925
B1734204315085N07220811WA0144701494003025004000
B1734244315093N07220882WA0144901502003025004000
F173424230602171219
F17342523060302171219
B1734284315044N07220928WA0145501507003025004000
B1734324314987N07220889WA0145901511003023004000
F1734322306030217121925
B1734364314972N07220802WA0147001520003023004000
B1734404315010N07220739WA0148601534003023004000
B1734444315062N07220737WA0150501558003021004000
B1734484315093N07220787WA0150701563003023004000
F17345123060302171219
B1734524315080N07220858WA0150801562003021004000
F1734532306030217121951
B1734564315025N07220894WA0151001564003023004000
B1735004314964N07220868WA0151401566003025004000
F173500230603021712192551
F1735012306030217121951
F173502230603021712192551
B1735044314923N07220797WA0153101577003025004000
B1735084314918N07220715WA0154401593003023004000
B1735124314960N07220672WA0154701598003023004000
F1735140603021712192551
