ANKL0W9
HFDTE260817
HFFXA050
HFPLTPILOT:ROY BOURGEOIS
HFGTYGLIDERTYPE:ASG29
HFGIDGLIDERID:ROY
HFDTM100GPSDATUM:
HFRFWFIRMWAREVERSION:40 2011-6-17
HFRHWHARDWAREVERSION: NKL ClearNav V1.0
HFFTYFRTYPE:Nielsen Kellerman, ClearNav-IGC
HFGPS:UBLOX,LEA-4H-0-000-1,16Ch,18000 
HFPRSPRESSALTSENSOR:Intersema,MS5534B,20000 
I033638FXA3941ENL4247REX
C260817145318000000000103
C0000000N00000000WTAKEOFF     
C4225500N07147470WSterlingStrt
C4307599N07224149WDrewsville
C4139966N07311332WWhelanFarms
C4200000N07111799WMansfieldMu
C4225500N07147470WSterlingStrt
C0000000N00000000WLANDING     
B1502384225405N07147427WA0004800147001009002008
B1502394225405N07147428WA0004900147001011002008
B1502404225405N07147428WA0004800147001015002008
B1502414225406N07147428WA0004900147001015002008
B1502424225406N07147429WA0004700147001019002008
B1502434225407N07147429WA0004800147001019002008
B1502444225407N07147430WA0004700146001017002008
B1502454225407N07147430WA0004900146001017002008
B1502464225407N07147430WA0004800146001013002008
B1502474225407N07147429WA0004600146001013002008
B1502484225407N07147429WA0004700146001011002008
B1502494225407N07147429WA0004800146001011002008
B1502504225407N07147429WA0004700146001011002008
B1502514225407N07147429WA0004700146001009002008
B1502524225407N07147429WA0004900146001009002008
B1502534225407N07147429WA0004800146001007002008
B1502544225407N07147429WA0004800146001007002008
B1502554225407N07147429WA0004700146001007002008
B1502564225407N07147429WA0004800146001007002008
B1502574225407N07147429WA0004900146001007002008
B1502584225407N07147429WA0004900146001007002008
B1502594225407N07147429WA0004800146001007002008
B1503004225407N07147429WA0004800146001005002008
B1503014225407N07147429WA0004800145001005002008
B1503024225407N07147429WA0004800145001003002008
B1503034225407N07147429WA0004800145001003002008
B1503044225407N07147429WA0004800145001003002008
B1503054225407N07147429WA0004700145001003002008
B1503064225407N07147429WA0004800145001005002008
B1503074225407N07147429WA0004700145001005002008
B1503084225407N07147429WA0004800145001007002008
B1503094225407N07147429WA0004700145001007002008
B1503104225407N07147429WA0004700145001007002008
B1503114225407N07147429WA0004700145001007002008
B1503124225407N07147429WA0004700145001007002008
B1503134225407N07147429WA0004500145001007002008
B1503144225407N07147429WA0004600146001007002008
B1503154225407N07147429WA0004700146001007002008
B1503164225407N07147429WA0004700146001005002008
B1503174225407N07147428WA0004600146001005002008
B1503184225407N07147428WA0004600146001003002008
B1503194225407N07147428WA0004500146001001002008
B1503204225407N07147428WA0004600145001003002008
B1503214225407N07147428WA0004600145001003002008
B1503224225407N07147428WA0004500145001005002008
B1503234225407N07147428WA0004700145001007002008
B1503244225407N07147428WA0004600145001007002008
B1503254225407N07147428WA0004500145001007002008
B1503264225407N07147428WA0004600145001007002008
B1503274225407N07147428WA0004600145002007002008
B1503284225407N07147427WA0004500145002007002008
B1503294225407N07147427WA0004700145002013002008
B1503304225407N07147427WA0004400146001017002008
B1503314225407N07147427WA0004600146001019002008
B1503324225407N07147427WA0004600146001021002008
B1503334225407N07147427WA0004700146001015002008
B1503344225407N07147427WA0004600146001013002008
B1503354225407N07147427WA0004400146001011002008
B1503364225407N07147427WA0004600146001009002008
B1503374225407N07147427WA0004600146001007002008
B1503384225407N07147427WA0004600146001005002008
B1503394225407N07147427WA0004600146001003002008
B1503404225407N07147428WA0004800146001003002008
B1503414225407N07147428WA0004700146001005002008
B1503424225407N07147428WA0004800146001003002008
B1503434225407N07147428WA0004700146001003002008
B1503444225407N07147428WA0004600146001003002008
B1503454225407N07147428WA0004900146001003002008
B1503464225407N07147428WA0004800146001003002008
B1503474225407N07147428WA0004800146001003002008
B1503484225407N07147428WA0004900146001001002008
B1503494225407N07147428WA0004700146001000002008
B1503504225407N07147428WA0004700146001000002008
B1503514225407N07147428WA0004800146001000002008
B1503524225407N07147428WA0004600146001001002008
B1503534225407N07147428WA0004800146001005002008
B1503544225407N07147428WA0004700146001007002008
B1503554225407N07147428WA0004700146001009002008
B1503564225407N07147428WA0004800146001007002008
B1503574225407N07147428WA0004700146001003002008
B1503584225407N07147428WA0004700146001001002008
B1503594225407N07147428WA0004800146001001002008
B1504004225407N07147428WA0004800146001003002008
B1504014225407N07147428WA0004700146001005002008
B1504024225407N07147428WA0004600146001005002008
B1504034225407N07147428WA0004900146001003002008
B1504044225407N07147428WA0004800146001003002008
B1504054225407N07147428WA0004700146001001002008
B1504064225407N07147428WA0004800147002003002008
B1504074225407N07147428WA0004900147002005002008
B1504084225407N07147428WA0004800147001005002008
B1504094225407N07147428WA0004800147001007002008
B1504104225407N07147428WA0004800147001007002008
B1504114225407N07147428WA0004700147001007002008
B1504124225407N07147428WA0004600147001007002008
B1504134225407N07147428WA0004800147001005002008
B1504144225407N07147428WA0004700147001005002008
B1504154225407N07147428WA0004600147001003002008
B1504164225407N07147428WA0004600147001001002008
B1504174225407N07147428WA0004700147001001002008
B1504184225407N07147428WA0004700146001000002008
B1504194225407N07147428WA0004500146001000002008
B1504204225407N07147428WA0004600146001001002008
B1504214225407N07147428WA0004600146001001002008
B1504224225407N07147428WA0004700146001003002008
B1504234225407N07147428WA0004700146001005002008
B1504244225407N07147428WA0004700146001007002008
B1504254225407N07147428WA0004700146001013002008
B1504264225407N07147428WA0004600146001015002008
B1504274225407N07147428WA0004700146001017002008
B1504284225407N07147428WA0004500146001017002008
B1504294225407N07147428WA0004500146001015002008
B1504304225407N07147428WA0004700146001013002008
B1504314225407N07147428WA0004500146001011002008
B1504324225407N07147428WA0004600146001009002008
B1504334225407N07147428WA0004500146001007002008
B1504344225407N07147428WA0004700146001007002008
B1504354225408N07147429WA0004600146001007002008
B1504364225408N07147429WA0004700146001009002008
B1504374225409N07147431WA0004800146001011002008
B1504384225411N07147433WA0004500146001015002000
F150438302806221124511746190103
B1504424225427N07147452WA0004400147001041002000
B1504464225454N07147485WA0004700147001063002000
B1504504225492N07147532WA0004600147001067002000
B1504544225538N07147588WA0004900149001053002000
B1504584225594N07147650WA0005100152001043002000
B1505024225653N07147719WA0006100156001035002000
B1505064225713N07147788WA0008000175001039002000
B1505104225772N07147850WA0010300196001039002000
B1505144225828N07147917WA0011600213001031002000
B1505184225883N07147984WA0013100228001031002000
B1505224225940N07148052WA0014400241001031002000
B1505264225997N07148119WA0016000256001031002000
F150527302806221124511746194801
B1505304226057N07148177WA0017300271001031002000
B1505344226118N07148238WA0018700286001031002000
B1505384226178N07148301WA0020000299001031002000
B1505424226236N07148367WA0021800317001031002000
B1505464226291N07148436WA0023400333001033002000
B1505504226347N07148507WA0024800349001031002000
B1505544226403N07148578WA0025900362001029002000
B1505584226464N07148645WA0027200375001027002000
B1506024226527N07148707WA0028500387001025002000
B1506064226590N07148768WA0030200401001029002000
B1506104226649N07148837WA0031400414001025002000
B1506144226703N07148913WA0032900431001031002000
B1506184226757N07148990WA0035200452001031002000
B1506224226809N07149070WA0037500474001029002000
B1506264226860N07149150WA0039600498001031002000
B1506304226908N07149234WA0041000513001031002000
B1506344226957N07149319WA0042700528001047002000
B1506384227008N07149401WA0043800542001039002000
B1506424227061N07149480WA0044600550001031002000
B1506464227099N07149579WA0046500564001029002000
B1506504227107N07149691WA0049100588001029002000
B1506544227083N07149800WA0051500615002031002000
B1506584227035N07149893WA0053900639001031002000
B1507024226971N07149971WA0055800659001031002000
F150705302806221151174619480103
B1507064226885N07150017WA0057200672002031002000
B1507104226785N07150018WA0058400682002029003000
F1507103028062211511746190103
B1507144226689N07149966WA0059400695002029003000
F150714302806221124511746190103
F1507153028062211511746190103
F150716302806221124511746190103
B1507184226609N07149876WA0060800711002029002000
B1507224226541N07149770WA0062500725001031002000
B1507264226473N07149669WA0064000740001031002000
B1507304226404N07149570WA0065500756001029002000
B1507344226343N07149465WA0067100772001037002000
B1507384226291N07149355WA0069500796001037002000
B1507424226242N07149245WA0071500815001031002000
B1507464226193N07149137WA0073200832001041002000
B1507504226155N07149020WA0075200852001033002000
B1507544226138N07148890WA0076900870001029002000
B1507584226148N07148761WA0078600889001029002000
B1508024226160N07148632WA0080600912001031002000
B1508064226156N07148512WA0083600938001031002000
B1508104226128N07148420WA0085700962001021002000
B1508144226085N07148352WA0086600973001015002000
B1508184226037N07148295WA0086600975001011002000
B1508224225985N07148248WA0087000976001013002000
F150825302806221124511746190148
B1508264225927N07148220WA0087800984001015002000
B1508304225867N07148221WA0088200987001015002000
B1508344225819N07148259WA0088000987001019002000
B1508384225794N07148323WA0088100987001021002000
B1508424225799N07148390WA0088000987001015002000
B1508464225834N07148440WA0087300983001013002000
B1508504225888N07148450WA0086600976002009002000
B1508544225941N07148403WA0086000970001007002000
F150857302806221124511746190103
B1508584225968N07148316WA0085700966001019002000
B1509024225961N07148217WA0084900960001015002000
B1509064225928N07148120WA0084900956001015002000
B1509104225885N07148027WA0085600964001017002000
B1509144225832N07147947WA0086200967001017002000
B1509184225765N07147894WA0086000968001021002000
B1509224225701N07147832WA0085700965001019002000
B1509264225644N07147755WA0085300962001019002000
B1509304225589N07147673WA0084800959001017002000
B1509344225535N07147590WA0084700956001021002000
B1509384225482N07147509WA0085000959001021002000
B1509424225432N07147428WA0084400954001023002000
B1509464225378N07147352WA0083400944001033002000
B1509504225317N07147286WA0083400941001043002000
B1509544225250N07147234WA0083400941001031002000
B1509584225180N07147199WA0083500943001031002000
B1510024225107N07147181WA0083400940001023002000
B1510064225037N07147191WA0084000946001019002000
B1510104224985N07147240WA0083900947001023002000
B1510144224964N07147315WA0083400941001027002000
B1510184224983N07147395WA0082100931001027002000
B1510224225033N07147457WA0080600918001021002000
B1510264225097N07147500WA0080200911001019002000
B1510304225163N07147537WA0080300912001023002000
F151031302806221124511746194801
B1510344225222N07147587WA0081000917001019002000
B1510384225274N07147644WA0082300929001021002000
B1510424225321N07147698WA0083600941001019002000
B1510464225380N07147704WA0083700943002021002000
B1510504225419N07147630WA0083100941002019002000
F151050302806221124511746190103
B1510544225406N07147531WA0082200931002015002000
B1510584225347N07147462WA0081900925002017002000
B1511024225272N07147458WA0082200927001023002000
B1511064225209N07147506WA0082700933001023002000
B1511104225171N07147580WA0083500939001021002000
B1511144225158N07147664WA0083100938001017002000
B1511184225173N07147745WA0083100938001019002000
B1511224225213N07147817WA0082400935001015002000
B1511264225265N07147881WA0083000939001019002000
B1511304225317N07147940WA0083700943001021002000
B1511344225369N07147997WA0084800950001019002000
B1511384225429N07148027WA0086300964001023002000
B1511424225470N07147966WA0086600973002025002000
B1511464225447N07147878WA0087000974001023002000
B1511504225382N07147850WA0088100985001023002000
B1511544225325N07147883WA0087900988001021002000
F151156302806221124511746194801
B1511584225291N07147954WA0088800991001023002000
B1512024225285N07148031WA0089501000001015002000
B1512064225324N07148084WA0090301006001019002000
B1512104225381N07148061WA0090301010002021002000
F151212302806221124511746190103
B1512144225405N07147975WA0090701014001019002000
B1512184225375N07147890WA0091201018001019002000
B1512224225309N07147855WA0091501021001021002000
B1512264225243N07147879WA0092801031001021002000
B1512304225199N07147934WA0093801043001021002000
B1512344225195N07148003WA0093201042001021002000
B1512384225235N07148051WA0093101039001015002000
B1512424225292N07148037WA0093401042001017002000
B1512464225328N07147964WA0094101048001015002000
B1512504225327N07147875WA0094901056001017002000
B1512544225291N07147802WA0095301058001015002000
B1512584225227N07147779WA0095501061001023002000
B1513024225168N07147811WA0095401061001015002000
B1513064225138N07147882WA0095401064001015002000
B1513104225156N07147957WA0094801059001015002000
B1513144225202N07148020WA0094601054001023002000
B1513184225256N07148075WA0095701065001021002000
B1513224225305N07148129WA0096801076001023002000
B1513264225356N07148178WA0096701078001023002000
B1513304225407N07148225WA0096401075001019002000
F151330302806221124511746194801
F151333302806221124511746190103
B1513344225464N07148274WA0095401069001025002000
B1513384225524N07148326WA0095101062001021002000
B1513424225583N07148377WA0094901062001023002000
B1513464225641N07148429WA0094101054001023002000
B1513504225700N07148485WA0094201050001023002000
B1513544225760N07148543WA0095301059001023002000
B1513584225816N07148597WA0097801079001023002000
F1514013028062224511746190103
B1514024225831N07148667WA0099601100001031002000
F151402302806221124511746190103
F1514043028062211511746190103
B1514064225778N07148704WA0098901096002027002000
F15140930280622115117190103
B1514104225716N07148654WA0098801096002023002000
F1514113028062211245117190103
B1514144225694N07148550WA0099701101001023002000
B1514184225717N07148463WA0101801121001021002000
B1514224225770N07148451WA0101901126001021002000
B1514264225797N07148512WA0102201127002015002000
B1514304225765N07148578WA0103101137001017002000
F15143230280622115117190103
B1514344225701N07148580WA0103001137001019002000
F1514373028062211245117190103
B1514384225653N07148504WA0103201138002019002000
B1514424225663N07148408WA0104101147001021002000
B1514464225715N07148361WA0105101158001017002000
B1514504225768N07148374WA0105201163001019002000
B1514544225796N07148437WA0106001167001017002000
F151455302806221124511746190103
B1514584225801N07148509WA0107101174001019002000
F1515013028062211511746190103
B1515024225763N07148568WA0105801168001021002000
B1515064225693N07148569WA0105501164001023002000
B1515104225633N07148504WA0105001162001019002000
F151511302806221124511746190103
B1515144225603N07148401WA0105301162001019002000
B1515184225607N07148296WA0106801173001023002000
F1515193028062211245117190103
B1515224225644N07148223WA0107401183001023002000
B1515264225701N07148197WA0107201182001021002000
B1515304225763N07148207WA0106901179001021002000
B1515344225827N07148233WA0106601176001019002000
B1515384225891N07148268WA0106601175001019002000
B1515424225952N07148316WA0106301173001021002000
B1515464226008N07148377WA0105801171001023002000
B1515504226058N07148448WA0105601166001023002000
B1515544226106N07148526WA0105401165001025002000
B1515584226152N07148601WA0106701175001023002000
B1516024226197N07148677WA0106501175001019002000
B1516064226243N07148753WA0106201173001023002000
B1516104226291N07148832WA0105601169001023002000
B1516144226339N07148914WA0106201170001023002000
B1516184226386N07148993WA0106801178001023002000
B1516224226430N07149071WA0107001178001023002000
B1516264226472N07149148WA0106801178001025002000
B1516304226516N07149224WA0106201175001021002000
F151632302806221124511746190103
B1516344226561N07149304WA0105401165001023002000
B1516384226610N07149381WA0104301155001031002000
B1516424226673N07149438WA0104101153001037002000
B1516464226744N07149479WA0104301154001029002000
B1516504226817N07149514WA0105501162001025002000
B1516544226883N07149551WA0107601179001029002000
F151656302806221124511746194801
B1516584226951N07149545WA0108501189001031002000
B1517024227000N07149473WA0109601197001029002000
F151702302806221124511746190103
B1517064226990N07149375WA0109801206001025002000
B1517104226925N07149324WA0110101205001025002000
B1517144226857N07149352WA0110601211001023002000
B1517184226830N07149434WA0110601214001021002000
B1517224226848N07149516WA0111201219001019002000
B1517264226898N07149567WA0111701225001019002000
B1517304226963N07149576WA0112101229001019002000
B1517344227030N07149555WA0113301238001015002000
B1517384227083N07149498WA0113301242001025002000
B1517424227083N07149396WA0112501234001023002000
B1517464227026N07149322WA0112801232001023002000
B1517504226949N07149321WA0113401239001023002000
B1517544226888N07149375WA0114501248001023002000
B1517584226853N07149446WA0115901262001021002000
B1518024226862N07149518WA0116101264001023002000
B1518064226917N07149548WA0116101264001025002000
B1518104226971N07149500WA0117101274001025002000
B1518144226969N07149407WA0116301271001025002000
B1518184226905N07149361WA0115701262001027002000
B1518224226837N07149404WA0115701261001023002000
B1518264226811N07149489WA0116601271001021002000
B1518304226828N07149570WA0116001271001021002000
B1518344226865N07149648WA0115501265001025002000
B1518384226912N07149727WA0115201262001025002000
B1518424226961N07149808WA0114401257001021002000
B1518464227014N07149889WA0113301248001023002000
B1518504227068N07149977WA0112001233001031002000
B1518544227124N07150072WA0111201223001025002000
B1518584227181N07150170WA0110301214001029002000
B1519024227238N07150268WA0110601216001031002000
B1519064227293N07150365WA0110001211001029002000
B1519104227349N07150462WA0109701209001029002000
B1519144227404N07150559WA0109401204001031002000
B1519184227459N07150656WA0109001202001029002000
B1519224227512N07150751WA0108401198001027002000
B1519264227565N07150849WA0107701190001027002000
B1519304227619N07150948WA0107301186001027002000
B1519344227672N07151050WA0107901185001031002000
B1519384227725N07151151WA0107501185001031002000
F151941302806221124511746194801
B1519424227777N07151250WA0107001181001029002000
B1519464227826N07151348WA0106601177001031002000
B1519504227876N07151443WA0106201172001029002000
B1519544227926N07151539WA0105701168001023002000
B1519584227977N07151635WA0106101168001025002000
B1520024228027N07151728WA0106201172001029002000
B1520064228076N07151818WA0105801169001027002000
B1520104228129N07151911WA0105601164001029002000
B1520144228182N07152004WA0106201171001031002000
B1520184228235N07152096WA0106701175001025002000
B1520224228286N07152186WA0107101180001023002000
B1520264228339N07152274WA0107401181001025002000
B1520304228393N07152358WA0108701192001025002000
B1520344228443N07152440WA0109101201001023002000
B1520384228498N07152518WA0108301194001025002000
B1520424228560N07152588WA0108301190001023002000
B1520464228624N07152651WA0107201186001023002000
B1520504228691N07152710WA0105601169001027002000
B1520544228763N07152768WA0104301154001031002000
B1520584228839N07152826WA0103301142001031002000
B1521024228918N07152880WA0103601145001029002000
B1521064228996N07152929WA0102801138001031002000
B1521104229071N07152982WA0102601134001029002000
B1521144229146N07153033WA0102201131001031002000
B1521184229221N07153081WA0102501131001029002000
B1521224229296N07153125WA0103401143001027002000
B1521264229368N07153165WA0102801140001029002000
B1521304229442N07153205WA0100901122001027002000
B1521344229522N07153241WA0100601113001033002000
B1521384229606N07153266WA0100101112001031002000
B1521424229689N07153289WA0100401113001027002000
B1521464229768N07153315WA0101401121001025002000
B1521504229842N07153344WA0101601125001025002000
B1521544229913N07153384WA0101401123001031002000
B1521584229984N07153434WA0100701118001025002000
B1522024230052N07153495WA0099801109001023002000
B1522064230115N07153571WA0100201108001025002000
B1522104230169N07153657WA0101601122001025002000
B1522144230215N07153742WA0102401132001025002000
B1522184230252N07153827WA0102201132001023002000
B1522224230284N07153914WA0101101122001023002000
B1522264230319N07154003WA0100101112001033002000
B1522304230355N07154094WA0098401097001041002000
B1522344230394N07154189WA0097501084001043002000
B1522384230436N07154284WA0096601076001035002000
B1522424230482N07154379WA0096301073001031002000
B1522464230527N07154473WA0096201071001027002000
B1522504230572N07154567WA0096601072001023002000
B1522544230616N07154656WA0097801080001025002000
B1522584230658N07154742WA0100101098001025002000
B1523024230682N07154830WA0102701120001031002000
F152305302806221151174619480103
B1523064230632N07154880WA0103501136002029002000
F1523063028062211511746190103
B1523104230574N07154834WA0103301139002023002000
F152311302806221124511746190103
B1523144230550N07154740WA0103801145001021002000
B1523184230570N07154653WA0104801151001019002000
B1523224230614N07154597WA0106201166001019002000
B1523264230664N07154605WA0107201180001021002000
B1523304230664N07154681WA0106801174002023002000
B1523344230602N07154720WA0108301185001025002000
F1523343028062211511746190103
F152336302806221124511746190103
B1523384230547N07154663WA0110001203001023002000
F1523393028062211241746190103
B1523424230544N07154573WA0110801215001021002000
B1523464230590N07154519WA0111801222001027002000
B1523504230643N07154542WA0113301239001021002000
F15235130280622241746190103
B1523544230643N07154620WA0113701243001021002000
F1523543028062211241746190103
F15235630280622111746190103
B1523584230585N07154668WA0114601249001017002000
B1524024230522N07154629WA0116101267001017002000
F1524023028062211241746190103
F15240430280622112417190103
B1524064230504N07154537WA0117001275001017002000
B1524104230546N07154469WA0118301285001017002000
B1524144230601N07154481WA0120001306001017002000
F152416302806222417190103
B1524184230609N07154554WA0120001308001017002000
F15241830280622112417190103
B1524224230556N07154609WA0120601308001021002000
F152423302806221117190103
F1524252806221117190103
B1524264230491N07154574WA0122001325001021002000
F152426280622112417190103
B1524304230481N07154481WA0122401330001023002000
B1524344230532N07154426WA0123301339001021002000
F15243430280622112417190103
B1524384230588N07154457WA0124501350001021002000
F152439302806222417190103
B1524424230595N07154538WA0125101359001017002000
F15244230280622112417190103
B1524464230542N07154595WA0125301359001019002000
F152447302806221117190103
B1524504230473N07154562WA0126501367001023002000
F15245130280622112417190103
B1524544230454N07154466WA0127401379001019002000
B1524584230496N07154403WA0128501389001019002000
B1525024230549N07154429WA0129001395001019002000
B1525064230549N07154510WA0129701401001023002000
F152509302806221117190103
B1525104230492N07154558WA0129801401001019002000
B1525144230422N07154531WA0130401409001019002000
F15251730280622112417190103
B1525184230383N07154444WA0131301417001017002000
B1525224230405N07154357WA0132301426001021002000
B1525264230464N07154345WA0132501431001023002000
F152529302806222417190103
B1525304230498N07154413WA0133001434001019002000
F15253230280622112417190103
B1525344230471N07154494WA0134801449001021002000
F152535302806221117190103
B1525384230406N07154508WA0135101456001023002000
F152541280622112417190103
B1525424230354N07154440WA0135301460001019002000
B1525464230360N07154344WA0135401463001017002000
B1525504230415N07154306WA0136801473001015002000
F15255030280622112417190103
B1525544230462N07154348WA0137401480001019002000
B1525584230467N07154429WA0138201486001015002000
B1526024230423N07154489WA0138601493001019002000
B1526064230357N07154499WA0139201499001015002000
F152607302806221117190103
F15260830280622112417190103
B1526104230294N07154463WA0139701505001013002000
B1526144230245N07154397WA0140201509001015002000
B1526184230219N07154312WA0140301512001017002000
B1526224230228N07154228WA0140101513001017002000
B1526264230266N07154163WA0138301498001023002000
B1526304230332N07154126WA0136601477001021002000
B1526344230409N07154134WA0135601467001025002000
B1526384230485N07154170WA0135301466001021002000
B1526424230559N07154224WA0134601461001023002000
B1526464230632N07154288WA0134101454001029002000
B1526504230705N07154357WA0133201445001029002000
F1526523028062211244617190103
F15265330280622112417190103
B1526544230780N07154430WA0132701437001033002000
B1526584230852N07154509WA0132001432001031002000
B1527024230923N07154592WA0132701431001031002000
B1527064230987N07154665WA0136601468001027002000
F1527063028062211244617190103
B1527104231038N07154708WA0138601497001027002000
B1527144231085N07154747WA0136401486001031002000
B1527184231140N07154803WA0132501442001027002000
B1527224231208N07154877WA0131901429001027002000
B1527264231274N07154953WA0131701428001031002000
B1527304231340N07155031WA0131201425001029002000
B1527344231404N07155108WA0131101423001027002000
B1527384231465N07155185WA0131101421001027002000
B1527424231524N07155262WA0131001422001037002000
B1527464231583N07155340WA0131301423001041002000
B1527504231642N07155420WA0130701420001027002000
B1527544231704N07155502WA0129401408001025002000
B1527584231769N07155586WA0128201394001029002000
B1528024231836N07155672WA0126901383001033002000
B1528064231906N07155754WA0126501375001035002000
B1528104231976N07155834WA0125601369001027002000
B1528144232049N07155912WA0125201364001031002000
B1528184232121N07155989WA0125301362001031002000
B1528224232192N07156062WA0125201363001031002000
F152824302806221124461748195101
B1528264232262N07156135WA0124601357001027002000
B1528304232333N07156205WA0124601357001031002000
B1528344232403N07156274WA0124301355001027002000
B1528384232475N07156339WA0124301354001027002000
B1528424232549N07156403WA0124601355001029002000
B1528464232623N07156469WA0124201353001029002000
B1528504232698N07156533WA0124401353001029002000
B1528544232773N07156596WA0123901349001027002000
B1528584232849N07156658WA0122901343001023002000
B1529024232926N07156719WA0122001336001023002000
B1529064233004N07156777WA0121601327001023002000
B1529104233083N07156835WA0120701320001027002000
B1529144233161N07156894WA0120201313001029002000
B1529184233238N07156952WA0119601308001027002000
B1529224233314N07157011WA0118901300001027002000
B1529264233389N07157068WA0117901292001027002000
B1529304233464N07157127WA0117001282001025002000
B1529344233538N07157186WA0117501284001031002000
B1529384233610N07157244WA0117901289001031002000
B1529424233680N07157299WA0119001298001031002000
B1529464233746N07157350WA0119801311001025002000
B1529504233807N07157405WA0119901309001025002000
B1529544233869N07157463WA0120401312001025002000
B1529584233916N07157535WA0121401318001031002000
B1530024233913N07157626WA0121101317001037002000
F153005302806221146174819510103
B1530064233853N07157684WA0120001310001033002000
F1530093028062211461719510103
B1530104233777N07157665WA0119101301002031002000
F153011302806221124461719510103
B1530144233726N07157573WA0118201293002027002000
B1530184233715N07157452WA0117601286001025002000
B1530224233736N07157334WA0117801287001029002000
B1530264233773N07157229WA0117801287001025002000
B1530304233828N07157145WA0117901287001023002000
B1530344233892N07157082WA0116601280001023002000
B1530384233968N07157053WA0115401267001023002000
B1530424234050N07157055WA0113701252001023002000
B1530464234131N07157082WA0112801240001023002000
B1530504234211N07157124WA0112501233001025002000
B1530544234291N07157165WA0111601227001027002000
B1530584234369N07157213WA0110901218001029002000
B1531024234445N07157270WA0110101211001033002000
B1531064234523N07157327WA0109601205001033002000
F153107302806221124461748195101
B1531104234602N07157380WA0109001198001031002000
B1531144234683N07157429WA0109501199001031002000
B1531184234759N07157475WA0111301216001029002000
B1531224234825N07157517WA0113601241001025002000
B1531264234884N07157555WA0114901256001025002000
B1531304234939N07157593WA0116001265001021002000
B1531344234990N07157640WA0115501259001023002000
F153136302806222446174819510103
F153137302806221124461748195101
B1531384235011N07157727WA0113901250001027002000
B1531424235041N07157818WA0113401238001025002000
B1531464235097N07157885WA0112401232001031002000
B1531504235174N07157899WA0111201222001029002000
B1531544235254N07157878WA0110301212001023002000
B1531584235334N07157847WA0109201202001027002000
B1532024235417N07157828WA0109001194001035002000
B1532064235498N07157803WA0108301191001031002000
B1532104235578N07157767WA0107701186001029002000
B1532144235660N07157736WA0108501188001029002000
B1532184235739N07157708WA0109401199001027002000
B1532224235814N07157687WA0111101215001027002000
B1532264235884N07157668WA0111201223001025002000
B1532304235954N07157645WA0110101215001025002000
B1532344236027N07157635WA0108601198001031002000
B1532384236104N07157643WA0107601185001027002000
B1532424236183N07157657WA0106901177001029002000
B1532464236263N07157676WA0106301169001025002000
B1532504236344N07157699WA0105701166001027002000
B1532544236426N07157726WA0105101155001031002000
B1532584236506N07157756WA0105901163001031002000
B1533024236581N07157783WA0105401162001031002000
B1533064236661N07157789WA0104401153001031002000
B1533104236745N07157782WA0103601144001031002000
B1533144236829N07157760WA0103501141001031002000
B1533184236911N07157727WA0102801136001029002000
B1533224236993N07157692WA0102401130001029002000
B1533264237076N07157656WA0102601130001027002000
B1533304237154N07157622WA0103301139001025002000
B1533344237229N07157591WA0103801144001027002000
F153337280622112446174819510103
B1533384237298N07157565WA0103701149001025002000
F153338302806221124461748195101
B1533424237367N07157544WA0102401138001031002000
B1533464237443N07157531WA0100701119001023002000
B1533504237523N07157531WA0099001100001033002000
B1533544237607N07157547WA0097701084001031002000
B1533584237691N07157574WA0096301072001031002000
B1534024237774N07157612WA0095301058001033002000
B1534064237856N07157660WA0093701045001033002000
F153406280622112446174819510103
B1534104237936N07157715WA0093401038001031002000
B1534144238016N07157772WA0092501034001033002000
B1534184238099N07157826WA0092101024001033002000
B1534224238181N07157877WA0091901022001035002000
B1534264238260N07157922WA0093601035001033002000
B1534304238329N07157959WA0094001048001031002000
B1534344238394N07157993WA0093901046001031002000
B1534384238459N07158026WA0093801044001041002000
B1534424238524N07158061WA0093501042001033002000
B1534464238589N07158096WA0094001047001027002000
B1534504238652N07158135WA0093601043001027002000
B1534544238715N07158179WA0093501041001027002000
B1534584238777N07158225WA0094401048001025002000
B1535024238835N07158265WA0094301050001023002000
B1535064238890N07158303WA0093601047001023002000
B1535104238943N07158346WA0092801038001031002000
B1535144238994N07158400WA0091201021001031002000
B1535184239045N07158466WA0091101015001027002000
B1535224239088N07158541WA0090701014001027002000
B1535264239123N07158628WA0090701011001025002000
B1535304239146N07158720WA0092001024001025002000
B1535344239165N07158801WA0092401034001021002000
B1535384239180N07158882WA0091401024001023002000
B1535424239190N07158972WA0090801014001029002000
B1535464239198N07159068WA0090401013001023002000
B1535504239199N07159163WA0089601004001029002000
F1535522806222446174819510103
B1535544239165N07159253WA0088200994001035002000
F153554280622112446174819510103
B1535584239090N07159301WA0087200981001035002000
F1535592806221146174819510103
B1536024239000N07159297WA0087100975001031002000
F15360328062211461719510103
B1536064238918N07159243WA0086600972002029002000
F1536092806221124461719510103
B1536104238866N07159142WA0085700965001039002000
B1536144238851N07159022WA0085700960001031002000
B1536184238856N07158902WA0085400958001031002000
B1536224238868N07158785WA0085400959001035002000
B1536264238879N07158672WA0085600960001025002000
B1536304238890N07158561WA0085800961001023002000
B1536344238900N07158451WA0086800968001023002000
B1536384238905N07158347WA0088200986001023002000
B1536424238905N07158253WA0088300991001025002000
B1536464238904N07158158WA0087400983001023002000
B1536504238914N07158062WA0087000975001023002000
B1536544238936N07157972WA0087200978001023002000
B1536584238955N07157883WA0086500973001023002000
B1537024238969N07157789WA0086200966001027002000
B1537064238971N07157687WA0086800971001025002000
B1537104238969N07157583WA0087500974001023002000
B1537144238945N07157491WA0089300986001031002000
B1537184238878N07157472WA0090200996002035002000
F15372128062224461719510103
B1537224238832N07157538WA0090501002002035002000
F1537222806221124461719510103
B1537264238867N07157604WA0092201018002031002000
B1537304238919N07157557WA0092501024001031002000
B1537344238891N07157476WA0092801025001029002000
B1537384238826N07157506WA0093601033002031002000
B1537424238840N07157588WA0095301045001031002000
B1537464238893N07157545WA0096301056001033002000
B1537504238854N07157475WA0095601055001033002000
B1537544238794N07157515WA0097101068001031002000
B1537584238803N07157595WA0098301082001025002000
B1538024238862N07157596WA0099201094001031002000
B1538064238881N07157510WA0100001103001025002000
B1538104238826N07157461WA0101001109001029002000
B1538144238772N07157515WA0102901125001023002000
B1538184238787N07157589WA0103201138001025002000
B1538224238846N07157587WA0103701140002023002000
B1538264238866N07157502WA0105301157001027002000
B1538304238815N07157451WA0106201169001023002000
B1538344238764N07157504WA0107101175001023002000
B1538384238783N07157579WA0108201188001019002000
B1538424238842N07157577WA0108401193001017002000
B1538464238864N07157490WA0109001195001019002000
B1538504238814N07157432WA0111201212001025002000
B1538544238764N07157480WA0111401221001027002000
B1538584238787N07157554WA0111201220001023002000
B1539024238850N07157546WA0112601234001021002000
B1539064238873N07157459WA0112601238001023002000
B1539104238824N07157389WA0114101245001023002000
B1539144238760N07157427WA0115001258001021002000
B1539184238765N07157515WA0116501267001025002000
B1539224238825N07157529WA0117701284001023002000
B1539264238858N07157451WA0118501293001021002000
B1539304238821N07157373WA0120301304001023002000
B1539344238757N07157378WA0121301321001023002000
F15393628062224461719510103
B1539384238728N07157449WA0121801325001019002000
F1539392806221124461719510103
B1539424238757N07157515WA0123001335001025002000
B1539464238813N07157511WA0123901348001021002000
B1539504238842N07157431WA0124201349001021002000
B1539544238805N07157352WA0124901356001019002000
B1539584238740N07157364WA0125501362001021002000
B1540024238716N07157445WA0125401363001021002000
B1540064238755N07157515WA0126901373001023002000
B1540104238816N07157507WA0128001390001023002000
B1540144238847N07157431WA0127201384001023002000
B1540184238826N07157333WA0128001384001023002000
B1540224238776N07157263WA0130101405001023002000
B1540264238713N07157262WA0130301412001023002000
F15402928062224461719510103
B1540304238678N07157330WA0130801412001023002000
F1540302806221124461719510103
B1540344238701N07157407WA0131501422001021002000
B1540384238761N07157427WA0132501432001019002000
B1540424238810N07157369WA0133001439001021002000
B1540464238805N07157280WA0133201444001023002000
B1540504238746N07157237WA0133001438001023002000
B1540544238685N07157276WA0133101439001023002000
B1540584238657N07157355WA0134701453001021002000
B1541024238656N07157434WA0135901468001017002000
B1541064238677N07157503WA0136801478001019002000
B1541104238723N07157525WA0134901465001017002000
B1541144238771N07157479WA0132601441001023002000
B1541184238777N07157386WA0133001437001019002000
B1541224238745N07157300WA0133001441001023002000
F15412228062211461719510103
F1541252806221124461719510103
B1541264238692N07157235WA0134701451001023002000
B1541304238636N07157187WA0136301470001021002000
B1541344238573N07157176WA0136901473001019002000
F15413728062224461719510103
B1541384238528N07157236WA0137501474001025002000
F1541392806221124461719510103
B1541424238543N07157315WA0137601480001025002000
B1541464238599N07157350WA0137601485001029002000
B1541504238659N07157379WA0137701485001023002000
B1541544238716N07157428WA0137601487001025002000
B1541584238770N07157487WA0136001471001023002000
B1542024238830N07157553WA0135001458001023002000
B1542064238894N07157624WA0133901445001027002000
B1542104238961N07157699WA0133201439001027002000
B1542144239031N07157773WA0132601431001031002000
B1542184239101N07157849WA0132601430001029002000
F154219280622112446171951014803
B1542224239169N07157929WA0131301422001031002000
B1542264239240N07158011WA0130301409001027002000
B1542304239312N07158093WA0129401401001031002000
B1542344239384N07158175WA0128701394001029002000
B1542384239458N07158256WA0128401388001031002000
B1542424239533N07158338WA0127401379001031002000
B1542464239611N07158420WA0126601372001031002000
B1542504239691N07158501WA0126101364001031002000
B1542544239773N07158581WA0125601360001031002000
B1542584239855N07158656WA0125401359001031002000
B1543024239937N07158730WA0125001356001031002000
B1543064240018N07158801WA0125501358001031002000
B1543104240099N07158871WA0125901363001031002000
B1543144240179N07158943WA0127401374001031002000
B1543184240256N07159014WA0128201387001031002000
B1543224240333N07159084WA0127801386001029002000
B1543264240410N07159157WA0127101378001029002000
B1543304240487N07159230WA0126501371001031002000
B1543344240562N07159304WA0126001368001029002000
B1543384240636N07159376WA0125201360001031002000
B1543424240710N07159449WA0124101349001029002000
B1543464240785N07159522WA0123701342001029002000
B1543504240859N07159593WA0123001337001029002000
B1543544240933N07159663WA0122601331001031002000
B1543584241005N07159732WA0122501329001029002000
B1544024241076N07159794WA0122601331001027002000
B1544064241144N07159857WA0123501340001027002000
B1544104241209N07159914WA0123801344001023002000
B1544144241271N07159973WA0122901339001023002000
B1544184241334N07200030WA0122901337001025002000
B1544224241394N07200087WA0123101338001023002000
B1544264241452N07200145WA0122001331001025002000
B1544304241512N07200208WA0121001318001031002000
B1544344241572N07200275WA0120601315001027002000
B1544384241632N07200346WA0120601312001025002000
B1544424241692N07200419WA0121001317001027002000
B1544464241751N07200489WA0121601321001023002000
B1544504241809N07200556WA0121801328001023002000
B1544544241865N07200621WA0121301324001023002000
B1544584241921N07200690WA0120501316001025002000
B1545024241978N07200763WA0119701307001019002000
B1545064242038N07200835WA0118701298001021002000
B1545104242096N07200913WA0117701286001031002000
B1545144242154N07200992WA0117701286001035002000
B1545184242212N07201069WA0116501279001027002000
B1545224242273N07201147WA0115601268001027002000
B1545264242335N07201225WA0114801258001025002000
B1545304242399N07201302WA0114101251001023002000
B1545344242462N07201378WA0114101249001025002000
B1545384242526N07201448WA0113501245001027002000
B1545424242590N07201519WA0113501243001031002000
B1545464242651N07201594WA0113801244001031002000
B1545504242710N07201674WA0113601245001031002000
B1545544242769N07201754WA0113601243001027002000
B1545584242828N07201833WA0114901253001027002000
B1546024242886N07201907WA0116301267001027002000
B1546064242938N07201978WA0116401275001027002000
B1546104242990N07202048WA0115901269001023002000
B1546144243041N07202117WA0115501265001023002000
B1546184243093N07202185WA0115201262001021002000
B1546224243150N07202249WA0114501256001021002000
B1546264243208N07202313WA0115301259001023002000
B1546304243263N07202375WA0114601256001021002000
B1546344243319N07202439WA0113301246001023002000
B1546384243377N07202506WA0112401235001035002000
B1546424243438N07202574WA0111901227001039002000
B1546464243502N07202642WA0112301228001033002000
B1546504243562N07202705WA0114501250001025002000
B1546544243611N07202766WA0116101266001023002000
B1546584243660N07202825WA0116601270001023002000
B1547024243723N07202837WA0117601275001031002000
B1547064243762N07202768WA0118401287001027002000
F1547062806221124461719510103
B1547104243742N07202682WA0118501290001027002000
B1547144243681N07202642WA0118301289001023002000
B1547184243615N07202670WA0117801284001023002000
B1547224243577N07202747WA0118201285001019002000
B1547264243576N07202838WA0118901295001023002000
B1547304243599N07202914WA0120101307001019002000
B1547344243640N07202968WA0120901314001021002000
B1547384243686N07203011WA0122001324001015002000
B1547424243734N07203045WA0122101328001023002000
B1547464243792N07203022WA0121401318001023002000
B1547504243817N07202934WA0122101324001027002000
F15475328062211461719510103
B1547544243780N07202854WA0122801329001023002000
F1547542806221124461719510103
B1547584243711N07202851WA0123801338001023002000
B1548024243673N07202929WA0124401342001025002000
F154805280622112446170219510103
B1548064243700N07203008WA0125301355001023002000
B1548104243763N07203014WA0125601358001023002000
B1548144243807N07202944WA0126801370001023002000
B1548184243801N07202855WA0127701378001019002000
B1548224243745N07202802WA0128201382001029002000
B1548264243682N07202831WA0128801388001037001000
B1548304243666N07202918WA0129201393001031001000
B1548344243709N07202979WA0129801399001043001000
B1548384243774N07202969WA0131201411001037001000
B1548424243806N07202891WA0132101419001025001000
B1548464243780N07202809WA0132701424001025001000
B1548504243712N07202791WA0132901431001029001000
B1548544243661N07202851WA0133701433001035001000
B1548584243657N07202940WA0134601444001027001000
B1549024243702N07202992WA0135401452001023001000
B1549064243764N07202974WA0136001459001021001000
F154908482806221124461702195101
F154909280622112446170219510103
B1549104243793N07202895WA0136701466001023001000
B1549144243756N07202821WA0137101471001023001000
F154916482806221124461702195101
B1549184243688N07202817WA0137201474001019001000
B1549224243639N07202884WA0137701476001021001000
B1549264243635N07202974WA0139101488001017001000
B1549304243673N07203038WA0139501497001021001000
B1549344243735N07203054WA0140301502001019001000
B1549384243784N07203002WA0139501499001025001000
F154939280622112446170219510103
B1549424243783N07202909WA0139001489001025001000
F1549432806221146170219510103
F154945280622112446170219510103
B1549464243726N07202842WA0140501496001023001000
B1549504243653N07202842WA0142301518001025001000
B1549544243614N07202911WA0142801525001025001000
B1549584243626N07202994WA0143001527001027001000
B1550024243674N07203046WA0142901532001023001000
B1550064243736N07203075WA0142301529001021001000
B1550104243803N07203110WA0140201509001025001000
B1550144243878N07203151WA0139001490001023001000
B1550184243957N07203200WA0137801480001025001000
B1550224244036N07203253WA0136901473001027001000
B1550264244116N07203309WA0135701460001027001000
B1550304244200N07203362WA0135101451001029001000
B1550344244284N07203419WA0135101451001029001000
B1550384244363N07203476WA0135401455001031001000
B1550424244439N07203536WA0134401446001027001000
B1550464244518N07203602WA0133401434001027001000
B1550504244597N07203668WA0133201433001031001000
B1550544244673N07203735WA0132901429001025001000
B1550584244748N07203798WA0133001431001027001000
B1551024244819N07203856WA0133601437001025001000
B1551064244887N07203912WA0133001437001027001000
B1551104244954N07203966WA0132301427001029001000
F155110482806221124461702195101
B1551144245027N07204025WA0130901412001043001000
B1551184245104N07204079WA0132201420001031001000
B1551224245173N07204124WA0133101435001029001000
B1551264245236N07204170WA0131301423001023001000
B1551304245305N07204223WA0128801395001027001000
B1551344245382N07204283WA0129301391001031001000
B1551384245452N07204342WA0130101403001029001000
B1551424245515N07204394WA0130301411001031001000
B1551464245582N07204442WA0130101403001029001000
B1551504245656N07204487WA0132101416001031001000
B1551544245724N07204525WA0133701440001027001000
B1551584245786N07204568WA0133501442001029001000
F155159280622112446170219510103
B1552024245851N07204613WA0132101429001027001000
B1552064245921N07204661WA0130801413001031001000
B1552104245993N07204715WA0129901406001025001000
B1552144246066N07204769WA0129401398001035001000
B1552184246138N07204823WA0128901394001039001000
B1552224246212N07204877WA0127401379001029001000
B1552264246288N07204927WA0125601363001037001000
B1552304246370N07204976WA0126601361001033001000
B1552344246443N07205014WA0129301390001031001000
F155236482806221124461702195101
B1552384246502N07205043WA0130201407001037001000
B1552424246558N07205069WA0128601398001031001000
B1552464246621N07205104WA0126401376001029001000
B1552504246689N07205143WA0124801357001037001000
B1552544246760N07205181WA0123901346001037001000
B1552584246832N07205219WA0123901344001031001000
B1553024246903N07205251WA0124701352001023001000
B1553064246971N07205279WA0124201351001023001000
B1553104247044N07205305WA0123601343001027001000
B1553144247121N07205333WA0124401346001025001000
B1553184247196N07205363WA0125401357001025001000
B1553224247271N07205386WA0125601362001025001000
B1553264247344N07205401WA0125901365001027001000
B1553304247417N07205422WA0125501364001029001000
B1553344247489N07205451WA0124201352001025001000
B1553384247565N07205485WA0123201342001031001000
B1553424247642N07205519WA0122901334001031001000
B1553464247718N07205557WA0122001330001025001000
B1553504247793N07205596WA0121301324001023001000
B1553544247871N07205637WA0120301311001027001000
B1553584247953N07205674WA0120201308001031001000
B1554024248032N07205708WA0120101309001023001000
B1554064248113N07205737WA0118901299001025001000
B1554104248196N07205764WA0118401292001033001000
B1554144248279N07205793WA0118001288001031001000
B1554184248361N07205822WA0117601283001029001000
B1554224248441N07205848WA0117301280001029001000
B1554264248521N07205875WA0117701281001033001000
B1554304248598N07205897WA0118501289001027001000
B1554344248673N07205922WA0118801293001025001000
B1554384248748N07205946WA0118801293001025001000
B1554424248824N07205967WA0120101301001029001000
B1554464248893N07205981WA0120401310001029001000
B1554504248963N07205997WA0120801314001029001000
B1554544249030N07206013WA0120101313001023001000
B1554584249098N07206032WA0118801298001031001000
B1555024249172N07206056WA0117401283001031001000
B1555064249250N07206084WA0116201271001025001000
B1555104249331N07206115WA0115001261001025001000
B1555144249409N07206158WA0114601254001025001000
B1555184249484N07206215WA0114301250001025001000
B1555224249556N07206279WA0113801246001027001000
B1555264249626N07206344WA0113201240001025001000
B1555304249696N07206411WA0113401233001029001000
B1555344249765N07206479WA0112801231001029001000
B1555384249835N07206548WA0111901223001029001000
B1555424249907N07206615WA0111201214001029001000
B1555464249981N07206680WA0110901211001031001000
B1555504250055N07206743WA0110801210001027001000
B1555544250129N07206804WA0110401203001029001000
B1555584250202N07206866WA0110501203001029001000
B1556024250275N07206926WA0110201201001029001000
B1556064250348N07206984WA0109501197001025001000
B1556104250422N07207040WA0109101191001027001000
B1556144250497N07207093WA0108401185001029001000
B1556184250573N07207142WA0107701178001027001000
B1556224250648N07207190WA0107801175001029001000
B1556264250724N07207232WA0107701179001027001000
B1556304250798N07207273WA0107101173001025001000
B1556344250871N07207315WA0106201164001035001000
B1556384250946N07207355WA0105801160001033001000
B1556424251022N07207393WA0105001152001027001000
B1556464251100N07207430WA0104101145001025001000
B1556504251179N07207468WA0103501137001025001000
B1556544251260N07207503WA0102801129001025001000
B1556584251343N07207538WA0102001121001023001000
B1557024251426N07207573WA0101101113001023001000
B1557064251511N07207611WA0100701107001025001000
B1557104251596N07207651WA0100501103001031001000
B1557144251681N07207692WA0099801098001031001000
B1557184251766N07207733WA0099401095001023001000
B1557224251851N07207774WA0099001091001025001000
B1557264251935N07207812WA0099901093001029001000
B1557304252013N07207844WA0101401113001033001000
B1557344252082N07207871WA0102301124001039001000
B1557384252148N07207902WA0102701129001033001000
B1557424252213N07207936WA0103401134001029001000
B1557464252280N07207966WA0104601148001023001000
B1557504252341N07207989WA0105801158001023001000
B1557544252401N07208007WA0105501154001023001000
B1557584252461N07207977WA0106601158001025001000
B1558024252475N07207896WA0107601172001031001000
B1558064252429N07207837WA0107501174002027001000
B1558104252360N07207848WA0107901178001025001000
B1558144252321N07207918WA0108201182001025001000
B1558184252324N07208003WA0108501187001023001000
B1558224252359N07208071WA0108401186001023001000
B1558264252413N07208112WA0108101184001021001000
B1558304252476N07208116WA0107101177001019001000
B1558344252537N07208077WA0106301165001021001000
B1558384252576N07207997WA0106901168001021001000
B1558424252592N07207913WA0108001179001021001000
B1558464252598N07207832WA0108101183001019001000
B1558504252598N07207754WA0108401187001019001000
B1558544252600N07207678WA0108801190001021001000
B1558584252597N07207602WA0108001186001023001000
B1559024252558N07207534WA0107601176001023001000
B1559064252499N07207495WA0108701185001027001000
B1559104252436N07207483WA0109601194001023001000
B1559144252381N07207519WA0108701186001021001000
B1559184252357N07207605WA0108101177001025001000
B1559224252378N07207694WA0108401184001025001000
B1559264252421N07207764WA0108401186001021001000
B1559304252472N07207828WA0109101190001021001000
B1559344252524N07207882WA0110501198001023001000
B1559384252567N07207940WA0109901198001025001000
B1559424252569N07208031WA0107901181002031001000
B1559464252508N07208092WA0107101169002031001000
F155946482806221146170219510103
F1559482806221146170219510103
B1559504252435N07208058WA0107101169002031001000
F155952280622112446170219510103
B1559544252396N07207966WA0106901170002027002000
B1559584252397N07207862WA0107001170002029001000
B1600024252433N07207778WA0107501173002025002000
B1600064252491N07207732WA0107601179002023001000
F1600082806222446170219510103
B1600104252557N07207716WA0107301174002021001000
B1600144252627N07207727WA0106201167001021001000
B1600184252699N07207762WA0104501149001023001000
B1600224252769N07207817WA0103501137001023001000
B1600264252836N07207881WA0102601127001029001000
B1600304252904N07207946WA0101801118001031001000
B1600344252973N07208011WA0101301110001031001000
B1600384253043N07208073WA0100801107001035001000
B1600424253112N07208132WA0100301103001051001000
B1600464253181N07208190WA0100301100001055001000
B1600504253250N07208247WA0099801098001045001000
B1600544253321N07208298WA0100001097001037001000
B1600584253393N07208344WA0099901097001033001000
B1601024253465N07208390WA0099301094001023001000
B1601064253536N07208439WA0100101096001031001000
B1601104253605N07208484WA0101001103001035001000
B1601144253669N07208525WA0101201109001033001000
B1601184253738N07208521WA0100201104001031001000
B1601224253799N07208463WA0100401098001037001000
B1601264253809N07208362WA0100501102002047001000
B1601304253756N07208288WA0100101098002033001000
B1601344253680N07208268WA0101001106001051001000
B1601384253610N07208284WA0102001115001045001000
B1601424253558N07208341WA0102301118001039001000
B1601464253551N07208422WA0102301120001031001000
B1601504253585N07208489WA0101701116001023001000
F160151280622244617021951011203
B1601544253635N07208535WA0102001118001023001000
B1601584253690N07208560WA0101001113001023001000
B1602024253746N07208600WA0099501095001023001000
B1602064253804N07208649WA0099401091001025001000
B1602104253861N07208707WA0098401081001023001000
B1602144253918N07208772WA0097601073001027001000
B1602184253979N07208837WA0096801066001023001000
B1602224254041N07208904WA0096601064001027001000
B1602264254102N07208973WA0096201060001025001000
B1602304254160N07209051WA0095801055001027001000
B1602344254218N07209124WA0095801055001025001000
B1602384254277N07209194WA0095301052001027001000
B1602424254333N07209266WA0094501045001027001000
B1602464254385N07209342WA0093801038001035001000
B1602504254433N07209424WA0093301032001033001000
B1602544254477N07209507WA0092501025001033001000
B1602584254522N07209591WA0092601026001041001000
B1603024254565N07209676WA0091701019001037001000
B1603064254611N07209765WA0091601015001031001000
B1603104254656N07209851WA0091701019001023001000
B1603144254701N07209935WA0091201014001027001000
B1603184254748N07210017WA0089901001001031001000
B1603224254798N07210096WA0089200991001027001000
B1603264254850N07210176WA0088400982001031001000
B1603304254903N07210258WA0087900977001041001000
B1603344254960N07210339WA0087200970001049001000
B1603384255017N07210419WA0087500971001041001000
B1603424255075N07210496WA0088600982001035001000
B1603464255132N07210561WA0090400995001043001000
B1603504255195N07210576WA0091301008001043001000
B1603544255234N07210505WA0090401005001055001000
B1603584255213N07210410WA0088800987001045001000
B1604024255144N07210365WA0088400980001031001000
B1604064255074N07210391WA0088500981001029001000
B1604104255029N07210462WA0089000987001031001000
B1604144255000N07210541WA0089400988001025001000
B1604184254996N07210626WA0089600992001025001000
B1604224254997N07210701WA0090501004001021001000
B1604264255000N07210773WA0090701005001021001000
B1604304255004N07210846WA0090301003001027001000
B1604344255013N07210920WA0089600997001031001000
F160437482806222446170219510112
B1604384255040N07210988WA0089100991001025001000
B1604424255091N07211036WA0087900980001031001000
F160444280622244617021951011203
B1604464255154N07211068WA0087400971001029001000
B1604504255219N07211090WA0086600966001023001000
B1604544255287N07211108WA0085800955001031001000
B1604584255359N07211126WA0085100947001027001000
B1605024255432N07211141WA0084600943001027001000
B1605064255505N07211162WA0083900937001039001000
B1605104255578N07211182WA0083300930001031001000
F160513482806222446170219510112
B1605144255651N07211203WA0082500924001027001000
B1605184255724N07211227WA0081500914001037001000
B1605224255794N07211271WA0080400904001035001000
B1605264255858N07211334WA0079900893001031001000
B1605304255915N07211410WA0079200889001033001000
B1605344255970N07211489WA0079000884001031001000
B1605384256023N07211570WA0078600883001031001000
B1605424256073N07211653WA0078200877001031001000
B1605464256120N07211740WA0078200879001031001000
B1605504256165N07211828WA0077800875001031001000
B1605544256210N07211917WA0076200860001031001000
B1605584256260N07212004WA0075000847001035001000
B1606024256316N07212091WA0074200837001039001000
B1606064256374N07212181WA0075300843001033001000
B1606104256428N07212263WA0077800868001031001000
B1606144256477N07212331WA0080000895001025001000
B1606184256522N07212386WA0082100912001025001000
F160620482806222446170219511203
B1606224256532N07212455WA0082000917001029001000
F160623482806222446170219510103
F1606244828062246170219510103
B1606264256474N07212476WA0081300907002031002000
F1606262806224617021951011203
F16062728062246171951011203
B1606304256434N07212396WA0081500910002027002000
F160630280622241719011203
F16063128062224170219011203
B1606344256456N07212307WA0082400918001023001000
B1606384256510N07212262WA0082600925001023001000
B1606424256563N07212284WA0083200925001021001000
F16064548280622241702191203
B1606464256582N07212357WA0083200926001023001000
F1606474828062224170219011203
B1606504256571N07212435WA0083500932001021001000
B1606544256539N07212502WA0083500931001023001000
B1606584256480N07212534WA0083300930002021001000
F160659482806222451170219011203
B1607024256411N07212506WA0083400925003025004000
B1607064256351N07212441WA0084700935003023004000
F1607062806222451170219011203
B1607104256348N07212352WA0085200943003029004000
B1607144256410N07212344WA0084000935003031004000
B1607184256432N07212431WA0084700936003027004000
B1607224256398N07212514WA0085600948003023004000
B1607264256336N07212547WA0086700959003025004000
F16072628062251170219011203
F160729280622511719011203
B1607304256277N07212497WA0085900954003023004000
F1607312806221719011203
F16073228062224170219011203
B1607344256257N07212395WA0086200954003027004000
B1607384256288N07212312WA0087000966003025004000
B1607424256345N07212286WA0087900971003025004000
B1607464256386N07212341WA0087300966003025004000
F160747280622241702191203
B1607504256362N07212421WA0086700961003023004000
F16075128062224011702191203
B1607544256294N07212451WA0088100974003023004000
B1607584256227N07212419WA0088800980004027004000
F160759280622240117191203
F16080128062224011702191203
B1608024256185N07212336WA0088600982003027004000
F160803280622240117191203
F16080528062224011702191203
B1608064256199N07212240WA0088300979003025004000
B1608104256254N07212188WA0088400979003023004000
B1608144256317N07212186WA0089400989003021004000
B1608184256372N07212210WA0090801002004015004000
F1608182806224824011702191203
B1608224256411N07212266WA0090501000004019004000
B1608264256397N07212345WA0091301005004023004000
F16082728062248240117021903
F160829280622480117021903
B1608304256331N07212369WA0091501011004025004000
F160831280622011702191203
F1608332806220117191203
B1608344256273N07212309WA0091601012003023004000
F160835280622240117191203
F16083728062202240117191203
B1608384256266N07212214WA0092101019003023004000
B1608424256305N07212146WA0093101028003023004000
B1608464256361N07212133WA0093001031003023004000
B1608504256407N07212177WA0092801024003019004000
F160852280622022417191203
F16085328062202240117191203
B1608544256410N07212258WA0093001028003023004000
F160855280622022417191203
F16085628062202240117191203
B1608584256367N07212322WA0092901026003023004000
B1609024256297N07212357WA0093001025003023004000
B1609064256222N07212363WA0093501033003019004000
B1609104256152N07212323WA0094901043003021004000
B1609144256109N07212243WA0095601052003023004000
B1609184256098N07212145WA0095701054003017004000
B1609224256114N07212053WA0095701055003023004000
B1609264256162N07211995WA0096001058003023004000
B1609304256222N07211992WA0096101060003023004000
B1609344256265N07212049WA0096701061003025004000
F160936280622022417191203
B1609384256255N07212134WA0097101063003023004000
F16093828062202240117191203
F160940280622022401171903
B1609424256193N07212172WA0096101056003023004000
F16094328062202240117191203
B1609464256128N07212138WA0096801065003023004000
F160946280622022401171903
F16094728062202240117191203
B1609504256091N07212057WA0096701065003021004000
B1609544256082N07211959WA0096601062003021004000
B1609584256093N07211863WA0096701065003023004000
B1610024256123N07211781WA0096601067003019004000
B1610064256173N07211724WA0097201070003019004000
B1610104256227N07211677WA0098201078003021004000
B1610144256281N07211641WA0098401080003021004000
B1610184256331N07211669WA0097901076003023004000
B1610224256342N07211748WA0097701070003021004000
F161022280622022417191203
F16102428062202240117191203
B1610264256305N07211825WA0099501087003023004000
F161027280622022401171903
F161028280622020117191203
B1610304256241N07211841WA0099701094003023004000
F1610302806220201171903
F16103128062201171903
F1610322806220117191203
B1610344256187N07211774WA0099801091003023004000
F161034280622240117191203
B1610384256191N07211675WA0101201107003025004000
F16103928062202240117191203
B1610424256241N07211626WA0101101110003023004000
B1610464256296N07211645WA0100701107003023004000
B1610504256323N07211718WA0101501105003021004000
F161052280622022417191203
F16105328062202240117191203
B1610544256305N07211799WA0103001124003023004000
F1610562806220201171903
B1610584256243N07211824WA0102601124003023004000
F161059280622020117191203
F1611012806220117191203
B1611024256183N07211767WA0103201126003029004000
F161102280622240117191203
B1611064256177N07211668WA0104201138003025004000
F16110628062202240117191203
B1611104256221N07211605WA0104301142003025004000
B1611144256280N07211612WA0104001140003019004000
B1611184256314N07211680WA0105301148003023004000
F161120280622022417191203
F16112128062202240117191203
B1611224256299N07211762WA0106801160003019004000
F161124280622020117191203
F1611252806220201171903
B1611264256239N07211794WA0106801166003027004000
F16112728062201171903
F1611282806220117191203
B1611304256185N07211732WA0106601157003027004000
F161130280622240117191203
F16113228062202240117191203
B1611344256182N07211627WA0107301168003027004000
B1611384256226N07211556WA0107401174003023004000
B1611424256287N07211543WA0107701177003021004000
B1611464256334N07211593WA0107301172003017004000
B1611504256350N07211681WA0107601172003019004000
B1611544256336N07211774WA0108201181003021004000
B1611584256305N07211854WA0109301187003021004000
B1612024256257N07211907WA0109801196003025004000
B1612064256195N07211908WA0109401194003023004000
B1612104256130N07211869WA0109601192003019004000
B1612144256067N07211818WA0111201203003023004000
B1612184256018N07211752WA0111101207003023004000
B1612224256021N07211663WA0111201208003023004000
B1612264256071N07211609WA0111401210003021004000
B1612304256127N07211629WA0111801217003023004000
B1612344256152N07211699WA0111901218003025004000
B1612384256131N07211778WA0111601214003021004000
F161238280622022417191203
F16123928062202240117191203
B1612424256071N07211826WA0112001217003023004000
B1612464256000N07211824WA0113101228003021004000
B1612504255939N07211781WA0113601236003017004000
F161253280622240117191203
B1612544255908N07211698WA0113101230003017004000
F16125628062202240117191203
F161257280622240117191203
B1612584255926N07211603WA0113401230003019004000
F16125828062202240117191203
B1613024255976N07211538WA0114301243003023004000
B1613064256034N07211535WA0114301245003021004000
B1613104256089N07211579WA0113101232003021004000
B1613144256143N07211645WA0112201222003025004000
B1613184256195N07211721WA0112801222003025004000
B1613224256243N07211800WA0112701227003029004000
B1613264256285N07211889WA0111201213003029004000
B1613304256335N07211980WA0111001209003029004000
B1613344256389N07212071WA0109501195003031004000
B1613384256447N07212165WA0108401185003027004000
B1613424256507N07212260WA0108201180003029004000
B1613464256567N07212355WA0107601175003031004000
F1613495128062202240117191203
B1613504256627N07212448WA0107001170003029004000
B1613544256687N07212542WA0105901159003029004000
B1613584256748N07212638WA0104501144003027004000
B1614024256811N07212735WA0104301140003031004000
B1614064256872N07212831WA0104401141003031004000
B1614104256931N07212927WA0103901138003029004000
B1614144256990N07213024WA0103701134003031004000
B1614184257049N07213116WA0104201138003031004000
B1614224257106N07213200WA0104901147003031004000
B1614264257160N07213281WA0105301150003031004000
B1614304257210N07213363WA0105901156003027004000
B1614344257258N07213440WA0106701168003029004000
B1614384257308N07213507WA0105901164003031004000
B1614424257357N07213582WA0104401147003035004000
B1614464257404N07213671WA0103701137003031004000
B1614504257451N07213767WA0102901128003027004000
B1614544257496N07213868WA0101901121003027004000
B1614584257541N07213972WA0102001117003031004000
B1615024257584N07214079WA0102901125003031004000
B1615064257621N07214183WA0103801135003029004000
B1615104257655N07214286WA0103701137003031004000
B1615144257689N07214387WA0104201140003025004000
B1615184257721N07214485WA0104101143001027001000
F161518512806220224011746191203
B1615224257752N07214582WA0102501129001025001000
B1615264257785N07214688WA0101201111001029001000
B1615304257820N07214799WA0100501101001029001000
B1615344257857N07214911WA0100501101001029001000
B1615384257891N07215020WA0100701102001029001000
B1615424257918N07215127WA0103301120001031001000
B1615464257942N07215219WA0106001143001031001000
B1615504257999N07215238WA0105901158001033002000
B1615544258046N07215177WA0104501144001033002000
B1615584258041N07215071WA0103801131001031001000
B1616024257975N07215002WA0104501139001029001000
B1616064257892N07214990WA0105401148001027001000
B1616104257822N07215035WA0105701152001029001000
B1616144257790N07215120WA0105701153001029001000
B1616184257795N07215211WA0106001155001025001000
B1616224257816N07215293WA0106401160001025001000
B1616264257848N07215366WA0106201161001023001000
B1616304257886N07215434WA0106401162001025001000
B1616344257926N07215500WA0106201160001027001000
B1616384257975N07215558WA0105401154001025001000
B1616424258035N07215604WA0104001141001023001000
F161643512806220224011746191248
B1616464258102N07215640WA0103401133001031001000
B1616504258173N07215673WA0102701125001033001000
B1616544258246N07215704WA0103101127001027001000
B1616584258318N07215732WA0102801129001025001000
B1617024258392N07215756WA0102301121001027001000
B1617064258466N07215776WA0101801116001025001000
B1617104258541N07215794WA0101601114001025001000
B1617144258614N07215812WA0101701114001029001000
B1617184258686N07215834WA0101701113001025001000
B1617224258755N07215861WA0102801124001023001000
B1617264258821N07215887WA0103801135001021001000
B1617304258882N07215917WA0105901152001023001000
B1617344258943N07215926WA0107401165001029001000
B1617384258976N07215856WA0108001175001031001000
B1617424258940N07215772WA0108501175001033002000
B1617464258865N07215774WA0110601195001031001000
B1617504258838N07215851WA0111201207001031001000
B1617544258879N07215902WA0111201204001031001000
B1617584258933N07215864WA0111501211001029001000
B1618024258939N07215775WA0112601221001031001000
B1618064258887N07215713WA0113301228001031001000
B1618104258820N07215731WA0114301239001027001000
B1618144258788N07215807WA0115201246001021001000
B1618184258811N07215876WA0115901257001023001000
B1618224258863N07215877WA0115501254001023001000
F161825512806220224011746191203
B1618264258894N07215800WA0115801255001023001000
B1618304258865N07215713WA0117001264001021001000
B1618344258794N07215696WA0117501273001025001000
B1618384258747N07215765WA0117601273001025001000
B1618424258755N07215854WA0118901282001025001000
B1618464258806N07215882WA0119501292001025001000
B1618504258850N07215828WA0119701295001023001000
B1618544258841N07215736WA0120901300001025001000
B1618584258788N07215678WA0121701316001025001000
B1619024258723N07215687WA0121501315001023001000
B1619064258678N07215755WA0121601313001027001000
B1619104258669N07215843WA0122701321001021001000
B1619144258682N07215917WA0124201338001023001000
B1619184258723N07215950WA0123201333001023001000
B1619224258777N07215918WA0123001326001023001000
B1619264258800N07215834WA0123001327001023001000
B1619304258778N07215739WA0123801332001023001000
B1619344258727N07215670WA0125101348001023001000
B1619384258661N07215640WA0125101350001019001000
B1619424258591N07215659WA0124801347001019001000
B1619464258531N07215714WA0124401345001021001000
B1619504258496N07215799WA0124301339001021001000
B1619544258490N07215890WA0124501343001023001000
B1619584258505N07215970WA0124401340001019001000
B1620024258548N07216025WA0123201330001019001000
B1620064258609N07216046WA0123001328001021001000
B1620104258671N07216039WA0123101328001023001000
B1620144258729N07216019WA0124201338001019001000
B1620184258778N07215999WA0124101341001017001000
B1620224258830N07215976WA0123701335001023001000
B1620264258882N07215931WA0123401333001023001000
B1620304258931N07215877WA0123301333001027001000
B1620344258991N07215843WA0122201324001027001000
B1620384259062N07215854WA0120401306001025001000
B1620424259136N07215906WA0118601285001029001000
B1620464259206N07215981WA0117201270001031001000
B1620504259273N07216064WA0116101260001031001000
B1620544259341N07216148WA0115401251001031001000
B1620584259411N07216232WA0117601263001031001000
B1621024259470N07216313WA0120501290001037001000
B1621064259480N07216415WA0122401313001035001000
B1621104259424N07216480WA0123401329001031001000
B1621144259351N07216468WA0123001327001027001000
B1621184259301N07216389WA0122901324001023002000
B1621224259295N07216289WA0123701332001021001000
B1621264259332N07216209WA0124601340001023001000
B1621304259384N07216155WA0124401344001023001000
B1621344259446N07216138WA0122801333001019001000
B1621384259507N07216171WA0122901327001023001000
B1621424259549N07216241WA0124201337001023001000
B1621464259567N07216325WA0124501343001021001000
B1621504259561N07216414WA0124701344001019001000
B1621544259537N07216498WA0125501354001023001000
B1621584259503N07216576WA0125901357001023001000
B1622024259465N07216651WA0125901361001019001000
B1622064259420N07216723WA0126301358001023001000
B1622104259369N07216790WA0126501360001021001000
B1622144259305N07216838WA0125801358001023001000
B1622184259228N07216835WA0125901354001025001000
B1622224259162N07216775WA0125801355001027001000
F1622242806220224011746191203
B1622264259131N07216684WA0125501353001023001000
B1622304259152N07216597WA0124101341001023001000
B1622344259207N07216551WA0123301330001019001000
B1622384259273N07216556WA0122201321001023001000
B1622424259339N07216594WA0122401318001029001000
F162244512806220224011746191203
B1622464259401N07216646WA0123301327001029001000
B1622504259461N07216699WA0124401338001025001000
B1622544259518N07216751WA0127201359001029001000
B1622584259569N07216780WA0128201382001029001000
B1623024259615N07216750WA0126201364001031001000
B1623064259619N07216659WA0124401340001041001000
B1623104259552N07216600WA0123901334001047002000
B1623144259468N07216630WA0124301338001033001000
B1623184259405N07216706WA0125101348001029001000
B1623224259369N07216803WA0125801352001023001000
B1623264259365N07216901WA0126201361001025001000
B1623304259382N07216985WA0124401348001025001000
B1623344259428N07217047WA0122401325001023001000
B1623384259495N07217086WA0121201308001023001000
B1623424259569N07217110WA0121201310001025001000
B1623464259644N07217130WA0121101307001029001000
B1623504259719N07217143WA0120501303001027001000
B1623544259795N07217150WA0120801303001023001000
B1623584259870N07217152WA0122701319001023001000
B1624024259936N07217146WA0124101341001025001000
B1624064259997N07217151WA0124301339001025001000
B1624104300063N07217177WA0124801344001031001000
B1624144300109N07217246WA0123801339001027001000
B1624184300155N07217319WA0122301323001031001000
B1624224300219N07217377WA0120901308001031001000
B1624264300292N07217419WA0120401303001029001000
B1624304300366N07217452WA0119701297001027001000
B1624344300442N07217484WA0119201290001027001000
B1624384300520N07217511WA0118201281001025001000
B1624424300599N07217536WA0117101269001033001000
B1624464300680N07217564WA0116201257001045001000
B1624504300765N07217592WA0114501246001043001000
B1624544300854N07217621WA0114201236001033001000
B1624584300943N07217651WA0115801251001031001000
B1625024301023N07217678WA0117401270001031001000
B1625064301094N07217706WA0118801285001027001000
B1625104301161N07217732WA0118801291001027001000
B1625144301230N07217756WA0116501268001023001000
B1625184301306N07217774WA0115001252001025001000
F162519512806220224011746191248
B1625224301387N07217792WA0113801239001027001000
B1625264301471N07217809WA0112601227001023001000
B1625304301558N07217830WA0111401213001029001000
B1625344301647N07217858WA0110701204001031001000
B1625384301735N07217889WA0110501201001031001000
B1625424301821N07217919WA0109501195001031001000
B1625464301911N07217943WA0107901177001031001000
B1625504302005N07217962WA0107101168001031001000
B1625544302102N07217958WA0105901156001031001000
B1625584302200N07217940WA0105001146001031001000
B1626024302298N07217908WA0104501138001031001000
B1626064302394N07217871WA0104601137001035001000
B1626104302486N07217832WA0106001149001039001000
B1626144302568N07217791WA0107201166001033001000
B1626184302645N07217747WA0107801173001033001000
B1626224302718N07217705WA0109501190001031001000
B1626264302785N07217666WA0110001198001027001000
B1626304302851N07217625WA0108901187001031001000
B1626344302921N07217583WA0109901193001029001000
B1626384302987N07217545WA0111201207001029001000
B1626424303050N07217507WA0110601206001027001000
B1626464303107N07217445WA0108501188001029001000
B1626504303177N07217396WA0106701168001039001000
B1626544303259N07217367WA0105701152001033001000
B1626584303345N07217355WA0106101156001031001000
B1627024303428N07217349WA0105001151001027001000
B1627064303513N07217348WA0104501143001029001000
B1627104303599N07217348WA0103601135001031001000
B1627144303685N07217353WA0102901127001031001000
B1627184303770N07217363WA0101901119001037001000
B1627224303858N07217371WA0101401111001047001000
B1627264303948N07217380WA0101601111001035001000
B1627304304036N07217390WA0102901121001031001000
B1627344304118N07217393WA0104901144001029001000
B1627384304194N07217393WA0105501152001031001000
F162741512806220224174619124803
B1627424304256N07217439WA0107401166001031001000
B1627464304268N07217522WA0107501179001027001000
F162748512806220224011746191248
B1627504304229N07217598WA0106101166001029001000
F162750512806022401174619124803
F162751512806220224011746191248
B1627544304154N07217627WA0104701152001025001000
F162757512806220224011746191203
B1627584304079N07217583WA0104501148001021001000
B1628024304037N07217488WA0104201146001019001000
B1628064304030N07217374WA0104201142001021001000
B1628104304044N07217264WA0105301152001023001000
B1628144304061N07217165WA0107001171001023001000
B1628184304103N07217104WA0107501176001029001000
F1628215128062202241746191203
B1628224304155N07217140WA0107801176001025001000
F162824512806220224011746191203
B1628264304149N07217222WA0107501177001025001000
B1628304304093N07217278WA0107301174001023001000
F1628315128062202240117461903
F162833512806220224011746191203
B1628344304019N07217293WA0108101179001021001000
B1628384303945N07217275WA0109101187001023001000
B1628424303894N07217204WA0109901197001029001000
F1628425128062202240117191203
F16284328062202240117191203
B1628464303901N07217109WA0110401200001025001000
B1628504303962N07217081WA0111301207001027001000
F162850280622022417191203
B1628544303995N07217150WA0112401221001031001000
F16285528062202240117191203
B1628584303955N07217224WA0112801225001025001000
B1629024303882N07217216WA0113501232001027001000
F162903280622240117191203
B1629064303841N07217131WA0114401242001023001000
F16290728062202240117191203
B1629104303860N07217039WA0115501253001023001000
B1629144303914N07217013WA0117101270001023001000
F162917280622022417191203
B1629184303958N07217057WA0117801277001019001000
F16292101280622022417191203
B1629224303961N07217136WA0118401283001021001000
F162922280622022417191203
F16292301280622022417191203
B1629264303911N07217192WA0118801286001021001000
B1629304303843N07217161WA0118801285002021001000
F162930012806222417191203
B1629344303819N07217062WA0120101295001023001000
F16293401280622022417191203
B1629384303857N07216991WA0121401313001023001000
B1629424303913N07216999WA0121701317001023001000
F162943280622022417191203
B1629464303938N07217076WA0122301321001023001000
F16294928062202245117191203
B1629504303904N07217154WA0123301330001023001000
F1629500128062202245117191203
F16295101280622022451171903
B1629544303834N07217157WA0123901337001021001000
F1629550128062202245117121903
B1629584303786N07217080WA0124401343003021004000
F16295801280622022417121903
B1630024303799N07216985WA0125501353003023004000
B1630064303855N07216957WA0126701366003021004000
F163009280622022417121903
B1630104303897N07217009WA0127501373003021004000
F16301201280622022417121903
B1630144303889N07217091WA0127501375003021004000
F163017012806220224171903
B1630184303829N07217133WA0128001377003021004000
F16301801280622022417121903
B1630224303763N07217090WA0128501383003021004000
B1630264303742N07216994WA0129301389003021004000
B1630304303773N07216916WA0130301403003023004000
B1630344303829N07216903WA0130001401003021004000
B1630384303876N07216957WA0130801403003023004000
F163039280622022417121903
B1630424303883N07217041WA0131701412003021004000
F16304501280622022417121903
B1630464303844N07217112WA0132001413003021004000
B1630504303776N07217139WA0132401418003021004000
B1630544303710N07217104WA0132901425003019004000
F163056012806222417121903
B1630584303674N07217018WA0133301430003023004000
F16305801280622022417121903
B1631024303684N07216925WA0133701434003019004000
B1631064303732N07216874WA0134201440003017004000
B1631104303787N07216897WA0134601439003021004000
F163111280622022417121903
B1631144303813N07216971WA0135001445003023004000
B1631184303789N07217052WA0135001446003023004000
F16311901280622022417121903
B1631224303722N07217086WA0135301449003023004000
B1631264303656N07217047WA0136001458003025004000
B1631304303629N07216957WA0136601464003023004000
B1631344303653N07216871WA0137201466003023004000
B1631384303711N07216852WA0137501472003023004000
F163141280622022417121903
B1631424303751N07216910WA0137901473003023004000
B1631464303730N07216988WA0138201479003025004000
F16314601280622022417121903
F163148012806220224171903
F16314901280622022417121903
B1631504303662N07217003WA0138701481003031004000
F163153012806222417121903
B1631544303614N07216931WA0139401489003023004000
F16315601280622022417121903
B1631584303628N07216839WA0139701491003025004000
B1632024303682N07216818WA0140301501003023004000
B1632064303719N07216878WA0139901497003029004000
F163206280622022417121903
B1632104303695N07216964WA0139701491003033004000
F16321001280622022417121903
F163212012806220224171903
B1632144303619N07216979WA0140401494003031004000
F16321401280622022417121903
F163216012806220217121903
F16321701280622022417121903
B1632184303573N07216901WA0142201516003027004000
B1632224303587N07216817WA0142101519003023004000
B1632264303640N07216777WA0142401521003025004000
B1632304303698N07216784WA0142601523003029004000
B1632344303733N07216850WA0143001527003037004000
F163234280622022417121903
F16323701280622022417121903
B1632384303709N07216936WA0142201519003057004000
F1632390128062202241712192303
F16324001280622022417192303
B1632424303635N07216965WA0142001514003053004000
F1632440128062202241712192303
B1632464303570N07216900WA0142601521003045004000
B1632504303561N07216796WA0143901533003033004000
B1632544303605N07216728WA0144101537003029004000
B1632584303668N07216721WA0144501542003029004000
B1633024303719N07216764WA0145501553003027004000
B1633064303749N07216834WA0145501554003023004000
B1633104303761N07216921WA0144301544003023004000
B1633144303779N07217017WA0142301524003023004000
B1633184303809N07217119WA0140901508003023004000
B1633224303852N07217216WA0139901498003031004000
B1633264303908N07217302WA0138901487003027004000
B1633304303969N07217382WA0138501483003029004000
B1633344304033N07217455WA0138001479003031004000
B1633384304098N07217527WA0136901470003031004000
B1633424304165N07217599WA0136401463003031004000
F163344012806220224461712192303
B1633464304233N07217671WA0135001450001035001000
B1633504304304N07217745WA0133801435001033001000
B1633544304377N07217820WA0133001428001031001000
B1633584304448N07217894WA0133101428001031001000
B1634024304523N07217963WA0131901420001033001000
B1634064304602N07218032WA0130701405001029001000
B1634104304682N07218104WA0130001399001033001000
B1634144304761N07218179WA0130001398001031001000
B1634184304838N07218248WA0129601397001031001000
B1634224304914N07218318WA0128601387001031001000
B1634264304989N07218391WA0128001379001027001000
B1634304305060N07218470WA0127901378001031001000
B1634344305124N07218549WA0128001379001027001000
B1634384305185N07218623WA0127201375001031001000
B1634424305246N07218698WA0125101355001041001000
B1634464305313N07218775WA0123601335001049001000
B1634504305385N07218851WA0123201330001035001000
B1634544305460N07218925WA0122901328001031001000
B1634584305536N07218997WA0122201320001031001000
B1635024305612N07219069WA0121601317001029001000
B1635064305686N07219143WA0121301312001029001000
B1635104305760N07219217WA0120301303001029001000
F163513012806220224461712194823
B1635144305832N07219292WA0119301293001031001000
B1635184305904N07219369WA0119001287001027001000
B1635224305973N07219443WA0119101288001031001000
B1635264306039N07219511WA0118601289001029001000
B1635304306106N07219585WA0117801276001033001000
B1635344306173N07219663WA0117801275001031001000
B1635384306238N07219738WA0118801285001031001000
B1635424306297N07219810WA0119201291001031001000
B1635464306349N07219886WA0119001293001027001000
B1635504306393N07219971WA0118301286001027001000
F163552012806220224461712194803
B1635544306432N07220064WA0118101282001035001000
F163554012806220224461712194823
B1635584306462N07220166WA0118001280001031001000
B1636024306486N07220272WA0118701285001031001000
B1636064306504N07220378WA0119501293001025001000
B1636104306516N07220481WA0120601302001025001000
B1636144306522N07220582WA0123001320001025001000
B1636184306548N07220658WA0124101334001031001000
B1636224306599N07220643WA0124001334001031001000
F163624012806220224461712192303
B1636264306608N07220552WA0122801322001029001000
B1636304306553N07220470WA0123401324001027001000
F1636322806220224461712192303
B1636344306475N07220451WA0126201351001031001000
B1636384306421N07220500WA0127001361001025001000
F163638280622022446171219235103
B1636424306413N07220584WA0126401355001027001000
B1636464306458N07220634WA0126801360001027001000
B1636504306509N07220603WA0126801360001025001000
B1636544306529N07220517WA0127301365001023001000
B1636584306507N07220428WA0128501372001023001000
B1637024306446N07220381WA0128701380001025001000
B1637064306379N07220411WA0128701379001023001000
B1637104306344N07220495WA0128901382001025001000
B1637144306365N07220575WA0129101384001025001000
B1637184306422N07220595WA0129301386001023001000
B1637224306470N07220542WA0130001390001021001000
B1637264306474N07220449WA0130401394001023001000
F1637262806220246171219235103
F163728280622022446171219235103
B1637304306444N07220364WA0130801402001027001000
B1637344306382N07220315WA0131201402001025001000
B1637384306310N07220321WA0131501410001025001000
B1637424306252N07220369WA0131401406001019001000
B1637464306211N07220446WA0131601410001021001000
B1637504306178N07220526WA0132001416001023001000
B1637544306159N07220609WA0131401413001025001000
B1637584306164N07220698WA0130301401001023001000
F1638002806220224461712195103
B1638024306188N07220785WA0128801388001023001000
F163805280622022446171219235103
B1638064306223N07220872WA0127401371001025001000
B1638104306267N07220960WA0126101358001023001000
B1638144306312N07221047WA0125201351001023001000
B1638184306357N07221135WA0124501341001029001000
B1638224306405N07221223WA0123501331001031001000
B1638264306455N07221312WA0122901325001031001000
B1638304306507N07221400WA0122001316001031001000
B1638344306560N07221490WA0121201308001031001000
B1638384306613N07221579WA0120701302001031001000
B1638424306666N07221670WA0120101297001035001000
B1638464306719N07221760WA0119501291001031001000
B1638504306772N07221849WA0118501283001031001000
B1638544306826N07221937WA0118001275001029001000
B1638584306879N07222023WA0117001267001033001000
B1639024306930N07222109WA0117001266001033001000
B1639064306980N07222193WA0116501264001041001000
B1639104307029N07222276WA0116201260001031001000
B1639144307078N07222358WA0115401255001029001000
B1639184307124N07222440WA0114701244001031001000
B1639224307170N07222524WA0114001238001031001000
B1639264307215N07222606WA0114001239001031001000
B1639304307261N07222685WA0113901237001035001000
B1639344307309N07222762WA0113901238001029001000
B1639384307358N07222834WA0113901239001027001000
B1639424307408N07222901WA0114201241001025001000
B1639464307456N07222964WA0113801238001025001000
B1639504307505N07223029WA0113101231001025001000
B1639544307556N07223093WA0113001229001023001000
B1639584307607N07223157WA0112401224001021001000
B1640024307657N07223221WA0112101219001033001000
B1640064307702N07223292WA0112501223001037001000
B1640104307746N07223363WA0113001227001031001000
B1640144307793N07223421WA0113501233001025001000
B1640184307843N07223473WA0112501225001023001000
B1640224307896N07223529WA0111201213001023001000
B1640264307940N07223602WA0110101200001023001000
F1640272806220224461712195103
B1640304307959N07223702WA0108101182001023001000
F164030280622022446171219235103
B1640344307954N07223817WA0106501161001037001000
B1640384307934N07223936WA0105801152001033001000
B1640424307901N07224051WA0104801145001033001000
B1640464307862N07224160WA0104301137001031001000
B1640504307819N07224263WA0103601133001029001000
B1640544307769N07224362WA0102301121001031001000
B1640584307715N07224460WA0101401109001029001000
B1641024307658N07224558WA0101401106001029001000
B1641064307599N07224650WA0100701102001031001000
B1641104307535N07224738WA0099601091001031001000
B1641144307466N07224824WA0098801081001029001000
B1641184307396N07224911WA0098701078001029001000
F1641192806022446171219235103
B1641224307322N07224993WA0098901081001029001000
B1641264307246N07225070WA0099801087001031001000
F164126280622022446171219235103
B1641304307174N07225137WA0101001103001029001000
B1641344307101N07225191WA0101101105001023001000
B1641384307027N07225241WA0100301101001023001000
B1641424306952N07225298WA0099901094001023001000
B1641464306878N07225357WA0099001087001025001000
B1641504306805N07225427WA0098801082001029001000
F1641502806022446171219235103
B1641544306737N07225506WA0098301078001025001000
B1641584306671N07225591WA0098301076001023001000
B1642024306603N07225674WA0097301068001029001000
F164203280622022446171219235103
B1642064306532N07225755WA0095901055001027001000
F1642082806022446171219235103
B1642104306457N07225835WA0094801045001029001000
B1642144306379N07225914WA0093901035001029001000
B1642184306301N07225992WA0093301031001035001000
B1642224306220N07226065WA0093201027001033001000
B1642264306137N07226133WA0092601023001031001000
B1642304306054N07226198WA0091801015001031001000
B1642344305972N07226265WA0091401010001031001000
F164235280622022446171219235103
B1642384305888N07226330WA0090401001001037001000
B1642424305803N07226393WA0089800993001031001000
B1642464305719N07226457WA0089400987001033001000
B1642504305637N07226523WA0088500979001031001000
B1642544305557N07226592WA0088400975001033001000
B1642584305480N07226661WA0088100976001033001000
B1643024305404N07226725WA0088000979001031001000
B1643064305332N07226783WA0087900978001031001000
B1643104305263N07226840WA0087400974001029001000
B1643144305194N07226899WA0086300963001033001000
B1643184305126N07226963WA0085200953001031001000
F1643192806022446171219235103
B1643224305057N07227030WA0084200941001035001000
B1643264304986N07227099WA0083300931001041001000
B1643304304913N07227169WA0082600925001047001000
B1643344304839N07227236WA0082400922001033001000
B1643384304763N07227301WA0082400922001029001000
B1643424304691N07227369WA0082900925001027001000
B1643464304618N07227435WA0082900927001025001000
B1643504304545N07227494WA0083500932001025001000
F164350280622022446171219235103
B1643544304475N07227549WA0084200938001025001000
B1643584304408N07227601WA0084400942001023001000
B1644024304340N07227653WA0085000943001025001000
B1644064304273N07227701WA0085400950001023001000
B1644104304207N07227747WA0086000955001023001000
B1644144304147N07227793WA0085200951001025001000
B1644184304097N07227867WA0083400934001029001000
B1644224304069N07227966WA0083000928001031001000
B1644264304060N07228072WA0083300929001031001000
B1644304304063N07228176WA0083200930001029001000
B1644344304076N07228278WA0082700927001031001000
B1644384304098N07228376WA0082000919001029001000
B1644424304136N07228467WA0081600916001027001000
B1644464304180N07228550WA0082000917001023001000
B1644504304227N07228629WA0081900916001029001000
B1644544304273N07228704WA0081500916001029001000
B1644584304321N07228780WA0081200910001039001000
B1645024304376N07228853WA0082000913001031001000
B1645064304425N07228923WA0084500937001029001000
B1645104304476N07228971WA0084600940001031001000
B1645144304532N07228940WA0083900934001027001000
B1645184304538N07228846WA0083500928001029001000
B1645224304476N07228789WA0083900934001031001000
B1645264304402N07228815WA0084300935001027001000
B1645304304347N07228891WA0085100941001029001000
B1645344304321N07228984WA0085600949001029001000
B1645384304354N07229067WA0085100944001025001000
B1645424304425N07229077WA0085700945001029001000
B1645464304458N07228996WA0086100954001031001000
F1645472806220246171219235103
F164548280622022446171219235103
B1645504304423N07228918WA0085700949001027001000
B1645544304349N07228897WA0086200953001025001000
B1645584304287N07228949WA0087000959001029001000
B1646024304283N07229046WA0086600957001031001000
B1646064304343N07229093WA0086700958001029001000
B1646104304400N07229043WA0086600959001025001000
B1646144304406N07228951WA0087800969001025001000
F1646142806220246171219235103
F164615280622022446171219235103
B1646184304363N07228879WA0088500978001017001000
B1646224304300N07228847WA0088600983001023001000
B1646264304230N07228873WA0088100977001021001000
B1646304304181N07228944WA0089600986001025001000
B1646344304186N07229023WA0089500993001023001000
B1646384304234N07229066WA0087700976001023001000
B1646424304300N07229048WA0087000965001023001000
B1646464304342N07228977WA0087000965001017001000
F1646492806220246171219235103
B1646504304337N07228888WA0086600963001019001000
F164652280622022446171219235103
B1646544304305N07228806WA0087700969001021001000
B1646584304274N07228733WA0088200978001017001000
B1647024304240N07228666WA0088200978001021001000
B1647064304186N07228622WA0088000975001021001000
B1647104304117N07228636WA0087700972001023001000
B1647144304066N07228709WA0086700963001025001000
B1647184304049N07228807WA0086500959001023001000
B1647224304071N07228896WA0087100965001023001000
B1647264304119N07228958WA0086000960001021001000
B1647304304179N07229001WA0085200951001021001000
B1647344304240N07229044WA0084000939001023001000
B1647384304308N07229081WA0083000926001023001000
B1647424304382N07229108WA0083100926001033001000
B1647464304455N07229130WA0084100935001031001000
B1647504304524N07229145WA0084800945001025001000
B1647544304592N07229158WA0084800944001027001000
B1647584304663N07229167WA0084800945001025001000
B1648024304730N07229174WA0084900946001027001000
B1648064304799N07229185WA0083600935001031001000
B1648104304873N07229202WA0084700939001025001000
B1648144304941N07229221WA0085700956001023001000
B1648184305003N07229234WA0086000957001023001000
F1648192806220224461712195103
F16482128060224461712195103
B1648224305055N07229280WA0085700955001023001000
F1648242806022446171219235103
B1648264305058N07229370WA0085000945001033001000
F164829280622022446171219235103
B1648304305007N07229434WA0085400946001031001000
B1648344304942N07229430WA0085900955001031001000
F1648362806220246171219235103
B1648384304910N07229363WA0086200959001021001000
F1648382806220224171219235103
F16483928062202241712192303
B1648424304927N07229279WA0085900958001023001000
B1648464304983N07229231WA0085300951001021001000
B1648504305051N07229243WA0085700953001021001000
B1648544305111N07229283WA0086800963001023001000
F164854280622022417121903
F16485628062202241712192303
B1648584305156N07229343WA0087800973001021001000
B1649024305168N07229417WA0087600975001021001000
F1649052806220224511712192303
B1649064305123N07229476WA0086700962003023004000
B1649104305056N07229453WA0087300963003027004000
F16491028062202511712192303
F164913280622021712192303
B1649144305023N07229373WA0088300977003023004000
F16491524280622021712192303
B1649184305040N07229291WA0087400973003023004000
B1649224305097N07229243WA0087700969003025004000
F164925242806220217121903
B1649264305159N07229261WA0089200986003027004000
F16492724280622022317121903
F164928242806220217121903
F16492924280622022317121903
B1649304305190N07229329WA0088600985003023004000
B1649344305181N07229415WA0088100980003019004000
B1649384305153N07229499WA0089200987003017004000
B1649424305128N07229578WA0090100997003015004000
B1649464305109N07229652WA0089901001003021004000
B1649504305088N07229734WA0088500985003023004000
B1649544305064N07229824WA0087700978003023004000
B1649584305039N07229918WA0086600967003023004000
B1650024305010N07230017WA0085500955003023004000
B1650064304979N07230120WA0084800946003027004000
B1650104304946N07230225WA0085500947003033004000
B1650144304918N07230326WA0089200981003031004000
B1650184304903N07230415WA0091201002003031004000
B1650224304951N07230459WA0091601003003033004000
B1650264305000N07230394WA0091901009003039004000
B1650304304969N07230312WA0092501015003037004000
B1650344304905N07230329WA0093701025003035004000
B1650384304890N07230411WA0093801032003033004000
F1650392428062202512317121903
B1650424304937N07230457WA0094701038003025004000
B1650464304983N07230394WA0094601039003025004000
B1650504304944N07230314WA0095601044003025004000
B1650544304878N07230346WA0097001059003031004000
B1650584304882N07230432WA0097501066003027004000
B1651024304944N07230436WA0098001070003027004000
B1651064304967N07230346WA0098801078003025004000
B1651104304915N07230284WA0100101092003025004000
B1651144304852N07230325WA0101101100003025004000
B1651184304848N07230414WA0101601111003029004000
B1651224304900N07230446WA0102101118003023004000
B1651264304947N07230392WA0102001117003023004000
B1651304304948N07230297WA0102401117003023004000
B1651344304899N07230228WA0105001140003023004000
B1651384304839N07230251WA0105601151003025004000
B1651424304841N07230331WA0106401157003027004000
B1651464304895N07230341WA0106901167003025004000
B1651504304919N07230259WA0107701169003023004000
B1651544304874N07230187WA0109001182003025004000
B1651584304814N07230213WA0110001196003025004000
F165158242806220251231712190903
B1652024304820N07230292WA0110801200003027004000
B1652064304878N07230301WA0111701211003027004000
F165207242806220251231712190946
B1652104304911N07230226WA0112901228001023001000
B1652144304881N07230144WA0114201237001021001000
B1652184304821N07230155WA0114501242001023001000
B1652224304812N07230238WA0114301238001027001000
B1652264304869N07230263WA0116001252001025001000
B1652304304902N07230181WA0117701269001029001000
B1652344304862N07230111WA0118701284001029001000
B1652384304807N07230140WA0118501284001025001000
B1652424304808N07230218WA0119201286001023001000
B1652464304860N07230249WA0120801301001027001000
B1652504304912N07230219WA0122501323001023001000
B1652544304921N07230137WA0122401319001023001000
B1652584304866N07230084WA0122401322001031001000
B1653024304819N07230138WA0123401328001029001000
B1653064304850N07230199WA0123701328001027001000
B1653104304910N07230161WA0124701337001029001000
B1653144304910N07230069WA0126301358001031001000
B1653184304850N07230035WA0125601357001029001000
B1653224304802N07230096WA0126101355001025001000
B1653264304822N07230173WA0127601371001025001000
B1653304304880N07230185WA0129501390001023001000
B1653344304927N07230134WA0130801406001023001000
B1653384304922N07230048WA0131201408001025001000
B1653424304860N07230007WA0131501409001023001000
B1653464304805N07230057WA0131801416001025001000
B1653504304810N07230138WA0133201430001023001000
B1653544304865N07230160WA0134801446001025001000
B1653584304906N07230097WA0136201462001021001000
B1654024304888N07230008WA0136701465001023001000
B1654064304823N07229977WA0137301471001021001000
B1654104304773N07230035WA0137401472001023001000
B1654144304781N07230114WA0139301489001023001000
B1654184304833N07230132WA0139301494001023001000
B1654224304881N07230066WA0139701497001023001000
B1654264304878N07229964WA0140501506001023001000
B1654304304822N07229897WA0141101510001023001000
B1654344304750N07229909WA0141301513001021001000
B1654384304713N07229985WA0142301522001021001000
B1654424304734N07230055WA0143501535001023001000
B1654464304790N07230059WA0144001542001023001000
B1654504304836N07229993WA0144901550001023001000
B1654544304843N07229894WA0145601556001019001000
B1654584304804N07229810WA0146301563001023001000
B1655024304736N07229783WA0146301565001023001000
B1655064304673N07229805WA0145901563001023001000
F165508242806025123171219094603
B1655104304618N07229856WA0144801548001023001000
B1655144304555N07229918WA0143501536001021001000
B1655184304489N07229989WA0141301519001025001000
B1655224304414N07230064WA0139001490001025001000
F165524242806220251231712190946
B1655264304331N07230142WA0137501474001029001000
B1655304304242N07230221WA0136401460001037001000
B1655344304150N07230297WA0135901452001041001000
B1655384304055N07230365WA0136301455001039001000
B1655424303963N07230435WA0136801461001035001000
B1655464303876N07230507WA0138301477001035001000
B1655504303795N07230576WA0139101487001031001000
B1655544303716N07230641WA0138801487001031001000
B1655584303634N07230699WA0138601479001031001000
B1656024303549N07230749WA0140001491001031001000
B1656064303468N07230792WA0141201508001031001000
B1656104303385N07230827WA0140501505001025001000
B1656144303297N07230854WA0139201492001031001000
B1656184303206N07230873WA0138701484001031001000
B1656224303113N07230888WA0138301481001047001000
B1656264303019N07230897WA0137301472001039001000
B1656304302920N07230905WA0136101461001031001000
B1656344302818N07230918WA0134901447001029001000
B1656384302714N07230934WA0134001438001029001000
B1656424302607N07230951WA0132901426001027001000
B1656464302496N07230970WA0131501412001031001000
B1656504302384N07230992WA0130301399001031001000
B1656544302270N07231013WA0130101391001039001000
B1656584302158N07231031WA0130101395001043001000
B1657024302052N07231048WA0130101396001043001000
B1657064301947N07231068WA0129201387001035001000
B1657104301843N07231098WA0128101377001033001000
B1657144301741N07231133WA0128201374001033001000
B1657184301639N07231171WA0129101382001035001000
B1657224301538N07231204WA0129401387001033001000
B1657264301441N07231235WA0129101386001029001000
B1657304301344N07231265WA0128401382001029001000
B1657344301246N07231291WA0127601371001031001000
B1657384301144N07231298WA0127301367001031001000
B1657424301041N07231295WA0126301358001031001000
B1657464300935N07231288WA0125101346001029001000
B1657504300828N07231286WA0124601341001031001000
B1657544300719N07231288WA0123901333001033001000
B1657584300610N07231294WA0123601329001031001000
B1658024300501N07231302WA0123101329001035001000
B1658064300392N07231321WA0121901314001031001000
B1658104300282N07231347WA0121701311001033001000
B1658144300177N07231384WA0120901309001039001000
B1658184300074N07231428WA0120801302001031001000
B1658224259971N07231478WA0119501292001031001000
B1658264259868N07231531WA0119001285001031001000
B1658304259766N07231586WA0118501280001031001000
B1658344259666N07231644WA0118701278001031001000
B1658384259570N07231702WA0119201285001031001000
B1658424259478N07231756WA0119401291001031001000
B1658464259389N07231807WA0118901287001031001000
B1658504259300N07231854WA0118101278001033001000
B1658544259213N07231904WA0118001278001037001000
B1658584259127N07231952WA0117801276001037001000
B1659024259040N07232003WA0116701267001029001000
B1659064258953N07232058WA0117001264001031001000
B1659104258869N07232111WA0116901266001029001000
B1659144258785N07232161WA0116501263001027001000
B1659184258701N07232207WA0115901258001027001000
B1659224258612N07232245WA0114701245001031001000
B1659264258521N07232281WA0113101230001027001000
B1659304258426N07232319WA0111501214001037001000
B1659344258330N07232356WA0110601201001033001000
B1659384258231N07232387WA0109301189001041001000
B1659424258129N07232417WA0107901177001031001000
B1659464258024N07232446WA0107201167001031001000
B1659504257920N07232476WA0106901166001031001000
B1659544257817N07232507WA0106601161001031001000
B1659584257715N07232535WA0106501159001031001000
B1700024257614N07232561WA0106301162001029001000
