ANKL12H
HFDTE240916
HFFXA050
HFPLTPILOT:Bob Fletcher
HFGTYGLIDERTYPE:ASG 29
HFGIDGLIDERID:90
HFDTM100GPSDATUM:
HFRFWFIRMWAREVERSION:40 2011-6-17
HFRHWHARDWAREVERSION: NKL ClearNav V1.0
HFFTYFRTYPE:Nielsen Kellerman, ClearNav-IGC
HFGPS:UBLOX,LEA-4H-0-000-1,16Ch,18000 
HFPRSPRESSALTSENSOR:Intersema,MS5534B,20000 
I033638FXA3941ENL4247REX
C240916150547000000000102
C0000000N00000000WTAKEOFF     
C4225500N07147466WSterling
C4320339N07231237WArea Springf
C4206027N07202329WArea Southbr
C4225500N07147466WSterling
C0000000N00000000WLANDING     
B1514444225407N07147428WA0008700142001000001008
B1514454225407N07147428WA0008800142001000001008
B1514464225407N07147428WA0008700142001000001008
B1514474225407N07147429WA0008600142001000001008
B1514484225407N07147428WA0008600142001000001008
B1514494225407N07147428WA0008600142001000001008
B1514504225407N07147428WA0008500142001000001008
B1514514225407N07147428WA0008600142001000001008
B1514524225406N07147428WA0008600142001001001008
B1514534225406N07147428WA0008600142001003001008
B1514544225406N07147428WA0008600142001003001008
B1514554225406N07147428WA0008600142001003001008
B1514564225406N07147428WA0008700142001003001008
B1514574225406N07147428WA0008700142001001001008
B1514584225406N07147428WA0008600142001000001008
B1514594225406N07147428WA0008600142001000001008
B1515004225406N07147428WA0008600142001000001008
B1515014225406N07147428WA0008700142001003001008
B1515024225406N07147428WA0008600143001010001008
B1515034225406N07147428WA0008600143001020001008
B1515044225406N07147428WA0008500143001032001008
B1515054225406N07147428WA0008700143001044001008
B1515064225406N07147429WA0008600143001051001008
B1515074225406N07147429WA0008600143001051001008
B1515084225406N07147429WA0008600143001049001008
B1515094225406N07147429WA0008600143001042001008
B1515104225406N07147428WA0008700143001035001008
B1515114225406N07147428WA0008600143001030001008
B1515124225406N07147428WA0008600143001023001008
B1515134225406N07147428WA0008700143001016001008
B1515144225406N07147428WA0008600143001011001008
B1515154225406N07147428WA0008600143001006001008
B1515164225406N07147428WA0008600143001001001008
B1515174225406N07147428WA0008500143001000001008
B1515184225406N07147428WA0008600143001000001008
B1515194225406N07147428WA0008600143001000001008
B1515204225406N07147428WA0008600143001001001008
B1515214225406N07147428WA0008500143001004001008
B1515224225406N07147428WA0008500143001006001008
B1515234225406N07147428WA0008600143001004001008
B1515244225406N07147428WA0008600143001003001008
B1515254225406N07147428WA0008600143001000001008
B1515264225406N07147428WA0008500143001000001008
B1515274225406N07147428WA0008600143001000001008
B1515284225406N07147428WA0008700143001000001008
B1515294225406N07147428WA0008600143001000001008
B1515304225406N07147428WA0008500143001000001008
B1515314225406N07147428WA0008500143001000001008
B1515324225406N07147428WA0008600143001000001008
B1515334225406N07147428WA0008600143001007001008
B1515344225406N07147428WA0008600143001013001008
B1515354225406N07147428WA0008500143001018001008
B1515364225406N07147428WA0008500143001018001008
B1515374225406N07147428WA0008600143001013001008
B1515384225406N07147428WA0008500143001008001008
B1515394225406N07147428WA0008600143001004001008
B1515404225406N07147428WA0008600143001001001008
B1515414225406N07147428WA0008500143001000001008
B1515424225406N07147428WA0008600143001001001008
B1515434225406N07147428WA0008500143001003001008
B1515444225406N07147428WA0008600143001006001008
B1515454225406N07147428WA0008500143001011001008
B1515464225406N07147428WA0008600143001011001008
B1515474225406N07147428WA0008500143001011001008
B1515484225406N07147428WA0008500143001008001008
B1515494225406N07147428WA0008600143001004001008
B1515504225406N07147428WA0008600143001006001008
B1515514225406N07147428WA0008700143001006001008
B1515524225406N07147428WA0008600143001006001008
B1515534225406N07147428WA0008500143001006001008
B1515544225406N07147428WA0008500143001004001008
B1515554225406N07147428WA0008600143001004001008
B1515564225406N07147428WA0008600143001006001008
B1515574225406N07147428WA0008500143001006001008
B1515584225406N07147428WA0008500143001007001008
B1515594225406N07147428WA0008600143001011001008
B1516004225406N07147428WA0008600143001021001008
B1516014225406N07147428WA0008600143001032001008
B1516024225406N07147428WA0008500143001041001008
B1516034225406N07147428WA0008600143001044001008
B1516044225406N07147428WA0008600143001039001008
B1516054225406N07147428WA0008600143001034001008
B1516064225406N07147428WA0008500143001027001008
B1516074225406N07147428WA0008600142001023001008
B1516084225406N07147428WA0008600142001021001008
B1516094225406N07147428WA0008500142001018001008
B1516104225406N07147428WA0008500142001014001008
B1516114225406N07147428WA0008600142001011001008
B1516124225406N07147428WA0008500142001006001008
B1516134225406N07147428WA0008500142001003001008
B1516144225406N07147428WA0008500142001000001008
B1516154225406N07147428WA0008600142001000001008
B1516164225406N07147428WA0008600142001000001008
B1516174225406N07147428WA0008600142001000001008
B1516184225406N07147428WA0008600142001000001008
B1516194225406N07147428WA0008500143001000001008
B1516204225406N07147428WA0008600143001000001008
B1516214225406N07147428WA0008600143001003001008
B1516224225406N07147428WA0008600143001006001008
B1516234225406N07147428WA0008600143001006001008
B1516244225406N07147428WA0008600143001003001008
B1516254225406N07147428WA0008600143001000001008
B1516264225406N07147428WA0008600143001000001008
B1516274225406N07147428WA0008500143001005001008
B1516284225406N07147428WA0008600143001006001008
B1516294225406N07147428WA0008600143001009001008
B1516304225406N07147429WA0008600143001008001008
B1516314225406N07147429WA0008500143001003001008
B1516324225407N07147429WA0008700143001000001008
B1516334225407N07147429WA0008600143001000001008
B1516344225407N07147429WA0008600143001000001008
B1516354225407N07147429WA0008600143001000001008
B1516364225407N07147429WA0008600143001000001008
B1516374225407N07147429WA0008600143001001001008
B1516384225407N07147429WA0008600143001001001008
B1516394225407N07147429WA0008600143001001001008
B1516404225407N07147429WA0008600143001000001008
B1516414225407N07147429WA0008700143001001001008
B1516424225407N07147429WA0008700143001003001008
B1516434225408N07147431WA0008700143001011001008
B1516444225410N07147433WA0008800143001020001000
F1516444824192251172803060212
B1516454225413N07147437WA0008700143001028001000
B1516464225417N07147441WA0008700143001040001000
B1516474225422N07147447WA0008600143001049001000
B1516484225428N07147454WA0008800143001057001000
B1516494225434N07147462WA0008900143001064001000
B1516504225441N07147471WA0009000143001068001000
B1516514225449N07147481WA0009000144001066001000
B1516524225458N07147492WA0008900144001062001000
B1516534225467N07147503WA0009000144001057001000
B1516544225477N07147516WA0009100145001054001000
B1516554225488N07147529WA0009100145001052001000
F151655482401192251172803060212
B1516564225499N07147543WA0009300145001051001000
B1516574225511N07147557WA0009400146001051001000
B1516584225524N07147571WA0009600148001047001000
B1516594225537N07147585WA0010100149001042001000
B1517004225549N07147601WA0010200152001039001000
B1517014225562N07147617WA0010500155001035001000
B1517024225575N07147634WA0010800158001034001000
B1517034225588N07147650WA0011100161001034001000
B1517044225602N07147666WA0011700164001034001000
B1517054225615N07147682WA0012000168001034001000
B1517064225629N07147697WA0012500173001034001000
B1517074225643N07147712WA0012800177001035001000
B1517084225657N07147727WA0013100181001037001000
B1517094225670N07147742WA0013500184001039001000
B1517104225683N07147756WA0014000186001041001000
B1517114225697N07147771WA0014200189001042001000
B1517124225710N07147785WA0014700194001046001000
B1517134225724N07147799WA0015200198001051001000
B1517144225738N07147814WA0015300202001054001000
B1517154225752N07147829WA0015700206001054001000
B1517164225767N07147845WA0016100209001052001000
B1517174225781N07147862WA0016500212001049001000
B1517184225795N07147878WA0016900215001048001000
B1517194225810N07147894WA0017400220001046001000
B1517204225824N07147909WA0017800225001044001000
B1517214225839N07147924WA0018500230001042001000
B1517224225853N07147939WA0019000236001044001000
B1517234225868N07147953WA0019600241001047001000
B1517244225882N07147967WA0020100248001050001000
B1517254225897N07147982WA0020700254001052001000
B1517264225911N07147995WA0021300260001051001000
B1517274225926N07148009WA0021600264001047001000
B1517284225942N07148023WA0022200268001044001000
B1517294225957N07148036WA0022700273001042001000
B1517304225972N07148050WA0023400279001041001000
B1517314225986N07148064WA0024000285001041001000
B1517324226000N07148078WA0024500291001041001000
B1517334226014N07148093WA0025100297001039001000
B1517344226027N07148108WA0025800303001037001000
B1517354226040N07148123WA0026400309001035001000
B1517364226054N07148138WA0026800315001034001000
B1517374226068N07148152WA0027300320001034001000
B1517384226082N07148166WA0027800325001034001000
B1517394226096N07148181WA0028300330001034001000
B1517404226110N07148195WA0028800335001034001000
B1517414226125N07148209WA0029300340001034001000
B1517424226140N07148224WA0029800345001034001000
B1517434226155N07148237WA0030600350001034001000
B1517444226171N07148250WA0031000356001034001000
B1517454226188N07148262WA0031700362001034001000
B1517464226204N07148273WA0032400369001034001000
B1517474226221N07148283WA0033000376001034001000
B1517484226237N07148292WA0033900383001034001000
B1517494226253N07148300WA0035000391001034001000
B1517504226269N07148307WA0035600400001034001000
B1517514226285N07148313WA0036700408001034001000
B1517524226301N07148317WA0037100416001034001000
B1517534226316N07148320WA0037700423001032001000
B1517544226331N07148321WA0038300430001030001000
B1517554226347N07148323WA0038700435001028001000
B1517564226362N07148321WA0039300440001028001000
B1517574226377N07148318WA0039700444001030001000
B1517584226393N07148313WA0040000448001032001000
B1517594226409N07148307WA0040200450001034001000
B1518004226424N07148300WA0040500454001034001000
B1518014226440N07148291WA0040800456001034001000
B1518024226456N07148281WA0041200459002032001000
B1518034226472N07148271WA0041600462002030001000
B1518044226487N07148259WA0041800465002030001000
B1518054226503N07148247WA0042100468002030001000
B1518064226518N07148235WA0042400471002032001000
B1518074226533N07148222WA0042800475002034001000
B1518084226548N07148209WA0043300479002037001000
B1518094226562N07148195WA0043800484002044001000
B1518104226576N07148181WA0044200490002051001000
B1518114226590N07148166WA0044900495002056001000
B1518124226603N07148151WA0045300500002057001000
B1518134226617N07148136WA0045900505002054001000
B1518144226629N07148120WA0046300509002049001000
B1518154226642N07148103WA0046800515002046001000
B1518164226653N07148085WA0047200520002041001000
B1518174226665N07148067WA0047800525002037001000
B1518184226675N07148048WA0048400530002035001000
B1518194226685N07148028WA0048800536002032001000
B1518204226694N07148009WA0049500541002030001000
B1518214226702N07147988WA0050100547002028001000
B1518224226710N07147967WA0050600553002027001000
B1518234226717N07147945WA0051100558002027001000
B1518244226723N07147922WA0051400563002027001000
B1518254226729N07147899WA0051900567002027001000
B1518264226734N07147876WA0052300571002027001000
B1518274226739N07147852WA0052600575002027001000
B1518284226743N07147826WA0052900578001027001000
B1518294226746N07147800WA0053200581001027001000
B1518304226747N07147774WA0053700585001027001000
B1518314226749N07147747WA0053800588002028001000
B1518324226749N07147719WA0054200591002030001000
B1518334226749N07147692WA0054400593002032001000
B1518344226749N07147664WA0055100596002034001000
B1518354226747N07147636WA0055300600002034001000
B1518364226744N07147608WA0055700604002034001000
B1518374226739N07147580WA0056100608002034001000
B1518384226733N07147553WA0056600612002034001000
B1518394226726N07147526WA0057200617002034001000
B1518404226718N07147499WA0057800623002034001000
B1518414226709N07147473WA0058300628002034001000
B1518424226700N07147448WA0058700633002034001000
B1518434226690N07147423WA0059100638002034001000
B1518444226678N07147398WA0059800643001032001000
B1518454226666N07147374WA0060400648001032001000
B1518464226653N07147349WA0060600652001030001000
B1518474226639N07147325WA0061000657001030001000
B1518484226624N07147301WA0061500661002030001000
B1518494226609N07147278WA0062000665002028001000
B1518504226591N07147256WA0062400670002028001000
B1518514226574N07147235WA0063000675002028001000
B1518524226555N07147215WA0063500680002028001000
B1518534226535N07147196WA0064100685002028001000
B1518544226515N07147180WA0064800690002028001000
B1518554226494N07147165WA0065200697002027001000
B1518564226472N07147152WA0065600702002027001000
B1518574226449N07147141WA0066100707002027001000
B1518584226426N07147131WA0066500712002028001000
B1518594226403N07147123WA0067000716002030001000
B1519004226380N07147116WA0067300720002030001000
B1519014226356N07147111WA0067800723001032001000
B1519024226332N07147108WA0068200727001030001000
B1519034226308N07147106WA0068700731001028001000
B1519044226284N07147107WA0068900735001028001000
B1519054226260N07147110WA0069100738001028001000
B1519064226236N07147115WA0069500740001028001000
B1519074226212N07147122WA0070000744001030001000
B1519084226188N07147129WA0070700748001032001000
B1519094226164N07147137WA0071200755001032001000
B1519104226141N07147144WA0071900761001034001000
B1519114226118N07147152WA0072800768002034001000
B1519124226095N07147160WA0073500777002035001000
B1519134226072N07147168WA0074500786002037001000
B1519144226051N07147176WA0075600795002037001000
B1519154226030N07147185WA0076100805002037001000
B1519164226012N07147194WA0077300814002039001000
B1519174225996N07147205WA0077700822002041001000
B1519184225981N07147217WA0078200828001041001000
B1519194225967N07147230WA0078500833001039001000
B1519204225953N07147242WA0078600835001035001000
B1519214225938N07147252WA0078900837001034001000
B1519224225922N07147259WA0078800839002037001000
B1519234225905N07147262WA0079000841002042001000
B1519244225887N07147260WA0079400842002049001000
B1519254225870N07147253WA0079300843002054001000
B1519264225853N07147242WA0079400843002057001000
B1519274225838N07147228WA0079400842002062001000
B1519284225825N07147210WA0079600843002064002000
F1519282401192251172803060212
B1519294225815N07147190WA0079600844002064002000
B1519304225808N07147169WA0079600845002064002000
B1519314225804N07147146WA0079900846002059002000
B1519324225804N07147123WA0080300848002056002000
F151932482401192251172803060212
B1519334225808N07147102WA0080700850002052002000
B1519344225816N07147083WA0081000854002047002000
B1519354225826N07147070WA0081600858002046002000
B1519364225840N07147063WA0082100862003041002000
B1519374225854N07147060WA0082700867002035002000
B1519384225866N07147063WA0083000873002032002000
F1519384801192251172803060212
B1519394225878N07147070WA0083200877002027002000
F151939482401192251172803060212
B1519404225887N07147081WA0083300879002023001000
B1519414225895N07147096WA0083300881002021001000
B1519424225899N07147114WA0083500882002023002000
B1519434225900N07147134WA0083700882002030001000
B1519444225898N07147156WA0083700883002039002000
B1519454225891N07147178WA0083800884002047002000
F1519454824192251172803060212
B1519464225880N07147197WA0084100886002054002000
F151946482401192251172803060212
B1519474225866N07147213WA0084400889002054002000
B1519484225850N07147227WA0084800892002052002000
B1519494225833N07147236WA0085100895002052002000
B1519504225815N07147240WA0085400898002052002000
B1519514225796N07147239WA0085800902002056002000
B1519524225779N07147233WA0086000906002061002000
B1519534225764N07147223WA0086200909002062002000
B1519544225750N07147209WA0086100910002061002000
B1519554225739N07147191WA0086100910002059002000
B1519564225730N07147172WA0086100909002054002000
B1519574225725N07147151WA0086100909002049002000
F1519572401192251172803060212
B1519584225723N07147128WA0086400909002046002000
B1519594225725N07147105WA0086700910002042002000
F151959482401192251172803060212
B1520004225730N07147084WA0087200912002042002000
B1520014225737N07147065WA0087600917002042002000
B1520024225747N07147050WA0088300922002041002000
B1520034225759N07147039WA0088800926002037002000
B1520044225772N07147034WA0089300932002030002000
B1520054225784N07147033WA0089400936002025001000
B1520064225795N07147038WA0090100941002020001000
B1520074225805N07147047WA0090000945002016001000
B1520084225813N07147059WA0090100947002018001000
B1520094225819N07147074WA0090400948002023001000
B1520104225822N07147091WA0090500949002030001000
B1520114225823N07147110WA0090500951002039001000
B1520124225820N07147130WA0090600952002042001000
B1520134225815N07147150WA0090600953002047001000
F1520134824192251172803060212
B1520144225806N07147169WA0090600953002052001000
B1520154225794N07147187WA0090500952002056001000
B1520164225780N07147203WA0090600951002061001000
F152016482401192251172803060212
B1520174225764N07147215WA0090700951002061001000
B1520184225746N07147225WA0090900952002062001000
B1520194225727N07147232WA0091200955002062001000
B1520204225708N07147235WA0091600959002066001000
B1520214225689N07147234WA0092200962002071002000
B1520224225670N07147229WA0091900964002073002000
F1520222401192251172803060212
B1520234225652N07147220WA0092300965002075002000
F152023482401192251172803060212
B1520244225635N07147207WA0092100965002073002000
B1520254225620N07147190WA0092300966002068002000
B1520264225608N07147171WA0092200967002064002000
B1520274225598N07147150WA0092100968002066002000
F1520272401192251172803060212
B1520284225591N07147127WA0092300968002066002000
B1520294225587N07147104WA0092300966002069002000
B1520304225586N07147079WA0092600967002073002000
F152030482401192251172803060212
B1520314225589N07147056WA0093200971002073002000
B1520324225595N07147036WA0093600976002075002000
B1520334225604N07147020WA0093800981002075002000
B1520344225614N07147007WA0094100984002075002000
B1520354225627N07146999WA0094300986002073002000
B1520364225640N07146997WA0094500986002069002000
B1520374225653N07147000WA0095000989002063002000
F1520374801192251172803060212
B1520384225665N07147009WA0095700993002054002000
F152038482401192251172803060212
B1520394225674N07147023WA0096200999002046002000
B1520404225679N07147040WA0096701006002037002000
B1520414225679N07147061WA0097001010002035002000
B1520424225675N07147081WA0097401014002035002000
B1520434225668N07147102WA0097601016002039002000
B1520444225657N07147120WA0098001019002046002000
B1520454225643N07147136WA0098501022002047002000
B1520464225626N07147148WA0098701025002047002000
B1520474225608N07147155WA0098901028002042002000
B1520484225590N07147157WA0099001031002037002000
B1520494225571N07147154WA0099201033002035002000
B1520504225554N07147144WA0099501036002035002000
F1520504824011922172803060212
B1520514225540N07147130WA0099601038002039002000
F152051482401192251172803060212
B1520524225528N07147112WA0099701039002042002000
B1520534225520N07147092WA0099901040002046002000
F15205324192251172803060212
B1520544225516N07147070WA0100201042002049002000
F152054482401192251172803060212
B1520554225516N07147049WA0100601045002054002000
B1520564225520N07147029WA0101001048002057002000
F1520564824011922511728030602
B1520574225527N07147012WA0101301052002059002000
F152057482401192251172803060212
B1520584225537N07146999WA0101501055002059002000
B1520594225548N07146992WA0101901058002056002000
F1520594801192251172803060212
B1521004225561N07146990WA0102301062002051002000
F152100482401192251172803060212
B1521014225572N07146993WA0102701065002044002000
B1521024225581N07147002WA0102701068002037002000
B1521034225588N07147016WA0103201072002032002000
B1521044225592N07147032WA0103401075002032002000
B1521054225591N07147051WA0103601077002035002000
B1521064225588N07147072WA0103801078002041002000
B1521074225581N07147091WA0103801080002046002000
B1521084225570N07147110WA0104101082002048002000
B1521094225556N07147127WA0104701085002048002000
B1521104225540N07147141WA0105101089002048002000
B1521114225522N07147149WA0105501095002044002000
B1521124225503N07147152WA0106001100002039002000
B1521134225485N07147150WA0106201105002034002000
B1521144225468N07147143WA0106301107002028002000
F1521144824192251172803060212
B1521154225453N07147131WA0106401109002030002000
F152115482401192251172803060212
B1521164225441N07147115WA0106501109002035002000
B1521174225431N07147097WA0106601110002042002000
B1521184225425N07147076WA0106701110002049002000
B1521194225424N07147056WA0107001111002054002000
B1521204225427N07147035WA0107301114002059002000
F1521204824011922511728030602
B1521214225434N07147019WA0107801117002061002000
F152121482401192251172803060212
B1521224225444N07147007WA0108101121002064002000
F1521224824011922511728030602
B1521234225456N07147002WA0108401126002061002000
F152123482401192251172803060212
B1521244225468N07147003WA0108401129002054002000
B1521254225479N07147010WA0108901131002049002000
B1521264225488N07147022WA0109101133002044002000
B1521274225493N07147038WA0109501136002044002000
B1521284225494N07147058WA0109601139002046002000
F1521284824011951172803060212
B1521294225491N07147079WA0110101142002044002000
F152129482401192251172803060212
B1521304225483N07147100WA0110001144002042002000
B1521314225472N07147118WA0110301146002042002000
B1521324225457N07147133WA0110601148002042002000
B1521334225440N07147145WA0110901150002046002000
B1521344225421N07147151WA0110801152002049002000
B1521354225402N07147153WA0110801154002051002000
B1521364225383N07147150WA0111101155002052002000
B1521374225365N07147141WA0111201155002054002000
B1521384225349N07147128WA0111401156002052002000
B1521394225335N07147111WA0111601158002049002000
F1521394824192251172803060212
B1521404225326N07147091WA0111801160002046002000
F152140482401192251172803060212
B1521414225321N07147071WA0111901162002044002000
B1521424225321N07147051WA0112001163002044002000
B1521434225325N07147031WA0112101163002049002000
B1521444225332N07147016WA0112401164002054002000
B1521454225343N07147005WA0112601166002057002000
B1521464225356N07146999WA0112801169002061002000
F1521464824011922511728030602
B1521474225369N07146998WA0113301173002059002000
F152147482401192251172803060212
B1521484225382N07147001WA0113801177002056002000
B1521494225394N07147007WA0114601181002051002000
B1521504225405N07147017WA0114701185002044002000
B1521514225413N07147030WA0115201190002037002000
B1521524225418N07147047WA0115601194002030002000
B1521534225419N07147065WA0115601199002027002000
F1521534824011951172803060212
B1521544225416N07147086WA0115901201002027002000
F152154482401192251172803060212
B1521554225409N07147106WA0116001203002030002000
B1521564225398N07147124WA0116201204002037002000
B1521574225383N07147139WA0116201205002042002000
B1521584225367N07147150WA0116401206002046002000
B1521594225348N07147155WA0116701207002049002000
B1522004225329N07147154WA0116901210002051002000
B1522014225311N07147147WA0117001213002051002000
B1522024225296N07147134WA0117201214002051002000
B1522034225284N07147118WA0117201214002052002000
F1522032401192251172803060212
B1522044225274N07147100WA0117301215002052002000
F1522044824192251172803060212
B1522054225268N07147079WA0117401216002056002000
F152205482401192251172803060212
B1522064225265N07147058WA0117501218002059002000
B1522074225266N07147038WA0118001220002057002000
B1522084225270N07147019WA0118101222002057002000
B1522094225277N07147003WA0118401224002055002000
B1522104225286N07146991WA0118501227002054002000
B1522114225297N07146983WA0119001231002054002000
B1522124225309N07146979WA0119401234002054002000
B1522134225320N07146981WA0119601237002052002000
B1522144225331N07146987WA0120101240002049002000
B1522154225339N07146998WA0120201244002044001000
B1522164225343N07147013WA0120501247002037001000
B1522174225345N07147031WA0121001250002030001000
B1522184225343N07147051WA0121001251002025002000
B1522194225338N07147071WA0121101253002025002000
B1522204225329N07147091WA0121401255002028002000
B1522214225316N07147109WA0121801258002032002000
B1522224225300N07147123WA0122201261002035002000
B1522234225282N07147133WA0122501263002035002000
B1522244225263N07147138WA0122301266002035002000
B1522254225244N07147136WA0122501268002037002000
B1522264225226N07147128WA0122501269002041002000
F1522264824192251172803060212
B1522274225209N07147116WA0122301268002047002000
F152227482401192251172803060212
B1522284225195N07147100WA0122401267002051002000
F1522282401192251172803060212
B1522294225183N07147080WA0122601266002051002000
B1522304225175N07147059WA0123001267002047002000
F152230482401192251172803060212
B1522314225169N07147037WA0123001268002040002000
B1522324225168N07147013WA0122901269002037002000
B1522334225169N07146992WA0123101271002042002000
B1522344225173N07146972WA0123201271002044002000
B1522354225181N07146954WA0123201272002044002000
B1522364225192N07146941WA0123601273002044002000
B1522374225204N07146933WA0124201276002039002000
F1522374824011922511728030602
B1522384225217N07146931WA0124701280002041002000
F152238482401192251172803060212
B1522394225229N07146935WA0124801284002044002000
B1522404225239N07146945WA0125001287002044002000
B1522414225244N07146960WA0125201291002044002000
F1522412401192251172803060212
B1522424225246N07146978WA0125801293002042002000
F1522424824011951172803060212
B1522434225243N07146998WA0125801296002041002000
F152243482401192251172803060212
B1522444225236N07147017WA0126001299002042002000
B1522454225225N07147033WA0126101301002044002000
B1522464225211N07147047WA0126201302002047002000
B1522474225195N07147058WA0126201303002051002000
B1522484225178N07147065WA0126601305002052002000
B1522494225160N07147070WA0126801308002055002000
B1522504225142N07147071WA0127001310002057002000
B1522514225124N07147070WA0127201313002059002000
B1522524225106N07147067WA0127401314002059002000
B1522534225089N07147063WA0127201315002056002000
B1522544225071N07147058WA0127301315002052002000
B1522554225054N07147053WA0127201314002049002000
B1522564225036N07147047WA0127301315002048002000
B1522574225018N07147041WA0127301316002051002000
B1522584225000N07147035WA0127401317002052002000
B1522594224983N07147030WA0127801318002052002000
B1523004224965N07147024WA0127701318002052002000
B1523014224948N07147019WA0127701318002047002000
B1523024224930N07147014WA0127801319002047002000
B1523034224912N07147010WA0128001321002049002000
B1523044224894N07147006WA0128501323002050002000
B1523054224876N07147002WA0128601325002054002000
B1523064224858N07146999WA0129001329002054002000
B1523074224840N07146997WA0129301332002054002000
B1523084224821N07146995WA0129701337002054002000
B1523094224803N07146995WA0130301340002054002000
B1523104224784N07146996WA0130501344002054002000
B1523114224766N07146997WA0131001347002052002000
B1523124224748N07146996WA0131401351002049002000
B1523134224730N07146994WA0131601354002044002000
F1523134824011922511728030602
B1523144224713N07146988WA0131701356002037002000
F152314482401192251172803060212
B1523154224698N07146978WA0131801358002032002000
B1523164224685N07146964WA0131901360002030002000
B1523174224675N07146948WA0132101361002034002000
B1523184224668N07146930WA0132201363002039002000
B1523194224665N07146912WA0132201364002046002000
B1523204224667N07146893WA0132401365002052002000
B1523214224673N07146877WA0132701364002056002000
F1523212401192251172803060212
B1523224224681N07146865WA0132701364002061002000
F152322482401192251172803060212
B1523234224692N07146858WA0133001364002064002000
B1523244224704N07146855WA0133101366002066002000
B1523254224716N07146859WA0133201368002068002000
B1523264224725N07146867WA0133201371002066001000
F1523262401192251172803060212
B1523274224733N07146879WA0133401373002066001000
F152327482401192251172803060212
B1523284224738N07146896WA0133501374002066001000
B1523294224741N07146914WA0133601375002066002000
B1523304224740N07146935WA0133701376002069002000
B1523314224735N07146957WA0133601377002073002000
B1523324224726N07146978WA0133901378002076002000
B1523334224715N07146998WA0133901379002076002000
B1523344224700N07147015WA0134101380002075002000
B1523354224684N07147029WA0134101381002071002000
B1523364224666N07147040WA0134201383002066002000
B1523374224647N07147049WA0134501384002064002000
B1523384224627N07147055WA0134701387002062002000
B1523394224608N07147060WA0135001390002061002000
B1523404224589N07147062WA0135301393002061002000
B1523414224570N07147063WA0135501396002061002000
B1523424224552N07147061WA0135701398002059002000
B1523434224534N07147058WA0135801399002057002000
B1523444224515N07147052WA0135701399002055002000
B1523454224497N07147045WA0135801399002054002000
B1523464224479N07147037WA0136101400002055002000
B1523474224461N07147029WA0136101402002057002000
B1523484224443N07147021WA0136201403002059002000
B1523494224426N07147013WA0136501406002061002000
B1523504224409N07147004WA0136801409002061002000
B1523514224393N07146993WA0137001412002062001000
B1523524224377N07146981WA0137201414002066001000
B1523534224363N07146969WA0137301415002068001000
B1523544224348N07146957WA0137301416002069001000
B1523554224334N07146944WA0137401416002073001000
B1523564224320N07146930WA0137501417002075001000
B1523574224306N07146916WA0137701418002076001000
B1523584224293N07146901WA0137801420001078001000
B1523594224280N07146886WA0137901421001076001000
B1524004224267N07146872WA0137901422001075001000
B1524014224255N07146858WA0137601422001073001000
B1524024224243N07146843WA0137401421001069001000
B1524034224230N07146829WA0137101418001066001000
B1524044224218N07146814WA0136901414001057001000
B1524054224205N07146799WA0137001412001045001000
B1524064224193N07146783WA0137301413001035001000
B1524074224181N07146767WA0137601415001025001000
B1524084224169N07146750WA0138001419001025001000
B1524094224158N07146735WA0138101422001033001000
B1524104224147N07146719WA0138001424001040001000
B1524114224136N07146704WA0138101425001051001000
B1524124224125N07146689WA0138001425001052001000
B1524134224114N07146674WA0137901425001047001000
B1524144224102N07146660WA0137701423001044001000
B1524154224090N07146645WA0137501422001035001000
B1524164224077N07146631WA0137301420001030001000
B1524174224063N07146616WA0137101418001027001000
B1524184224049N07146602WA0136801415001021001000
B1524194224035N07146587WA0136601412001018001000
B1524204224021N07146571WA0136501410001016001000
B1524214224007N07146555WA0136301408001016001000
B1524224223993N07146539WA0136001406001016001000
B1524234223979N07146522WA0135901405001014001000
B1524244223965N07146506WA0136001404002013001000
B1524254223950N07146490WA0135901404002009001000
B1524264223934N07146475WA0135801404001007001000
B1524274223919N07146460WA0135701403001006001000
B1524284223904N07146445WA0135601401001003001000
B1524294223888N07146430WA0135401399001001001000
B1524304223873N07146414WA0135401397001001001000
B1524314223858N07146398WA0135501396001003001000
B1524324223843N07146381WA0135501396001008001000
B1524334223828N07146365WA0135801398001016001000
B1524344223814N07146348WA0136101401001023001000
B1524354223799N07146331WA0136601404001032001000
B1524364223785N07146315WA0136801408001039001000
B1524374223772N07146299WA0137101412001044001000
B1524384223759N07146283WA0137401416001046001000
B1524394223746N07146267WA0137601418001046001000
B1524404223734N07146251WA0137601419001044001000
B1524414223721N07146235WA0137701420001042001000
B1524424223709N07146220WA0137701420001044001000
B1524434223695N07146205WA0137501420001046001000
B1524444223682N07146191WA0137401419002044001000
B1524454223668N07146175WA0137401417002039001000
B1524464223655N07146159WA0137101416001034001000
B1524474223642N07146142WA0137301414001028001000
B1524484223629N07146125WA0137201414001028001000
B1524494223615N07146107WA0137301414001030001000
B1524504223602N07146090WA0137501415001030001000
B1524514223588N07146073WA0137801417001032001000
B1524524223574N07146056WA0138001420001035001000
B1524534223561N07146039WA0138301424001039001000
B1524544223548N07146022WA0138701426001044001000
B1524554223536N07146005WA0138901429001049001000
B1524564223523N07145988WA0139301432001047001000
B1524574223511N07145971WA0139501434001046001000
B1524584223499N07145953WA0139701436001044001000
B1524594223488N07145936WA0139901437001042001000
B1525004223476N07145920WA0139501438001044001000
B1525014223463N07145906WA0139501438002044001000
B1525024223447N07145896WA0139501438002044001000
B1525034223430N07145889WA0139201437002046001000
B1525044223412N07145886WA0139201435001047001000
B1525054223394N07145888WA0139201434001052001000
B1525064223376N07145894WA0139201433002059001000
B1525074223359N07145905WA0139001432001057001000
B1525084223344N07145919WA0139101432002057001000
B1525094223330N07145937WA0139001431002059001000
B1525104223319N07145957WA0138901431002056001000
B1525114223311N07145980WA0138901430002059002000
B1525124223307N07146003WA0138601429002062001000
B1525134223307N07146026WA0138501427002061002000
B1525144223311N07146049WA0138401426002062002000
B1525154223317N07146070WA0138801425002061002000
B1525164223326N07146090WA0139101426002059001000
B1525174223336N07146107WA0139201429002061001000
B1525184223348N07146121WA0139401432002062001000
B1525194223361N07146133WA0139801434002066001000
B1525204223375N07146142WA0140101436002068001000
B1525214223390N07146148WA0140901440002068001000
B1525224223404N07146152WA0141201445002066001000
B1525234223418N07146153WA0141201448002064001000
B1525244223432N07146151WA0141101451002062001000
F1525242401192251172803060212
B1525254223445N07146144WA0141201452002059001000
F152525482401192251172803060212
B1525264223456N07146132WA0141101452002059001000
B1525274223466N07146117WA0141201452002062001000
B1525284223474N07146099WA0141201452002066001000
B1525294223480N07146078WA0141501453002069001000
B1525304223483N07146055WA0141601454002071001000
B1525314223483N07146031WA0141701456002069002000
B1525324223480N07146006WA0142001458002068001000
B1525334223474N07145983WA0142501459002068001000
B1525344223465N07145960WA0142901462002066001000
B1525354223454N07145939WA0143001465002064001000
B1525364223440N07145921WA0143001467002062001000
B1525374223424N07145906WA0143301469002061001000
B1525384223406N07145895WA0143401471002062001000
B1525394223387N07145889WA0143301471002064001000
B1525404223367N07145888WA0143301471002066001000
B1525414223348N07145892WA0143501471002066002000
B1525424223330N07145902WA0143501471002066002000
B1525434223313N07145916WA0143401470002069002000
B1525444223299N07145934WA0143501471002075002000
B1525454223288N07145956WA0143601472002078002000
B1525464223281N07145978WA0143601472002080002000
B1525474223277N07146000WA0143801472002076002000
B1525484223278N07146022WA0143801474002071002000
B1525494223282N07146042WA0144001475002073001000
B1525504223288N07146059WA0144001476002076001000
B1525514223296N07146073WA0144001477002082001000
F1525514824011922172803060212
B1525524223307N07146084WA0144001478002083001000
B1525534223319N07146090WA0144001478002078001000
F152553482401192251172803060212
B1525544223331N07146094WA0143901477002069001000
B1525554223345N07146093WA0143701476002062001000
B1525564223359N07146088WA0143801475002057001000
B1525574223372N07146079WA0143901476002057001000
B1525584223384N07146067WA0144301477002061001000
B1525594223396N07146054WA0144501480002059001000
B1526004223406N07146039WA0144501483002062001000
B1526014223415N07146022WA0144701484002066001000
B1526024223423N07146003WA0144701485002066001000
B1526034223428N07145982WA0145001486002069001000
B1526044223432N07145959WA0145301489002068001000
B1526054223434N07145936WA0146101493002064001000
B1526064223434N07145912WA0146601497002064001000
B1526074223432N07145889WA0146501500002062001000
B1526084223427N07145866WA0146601503002064001000
B1526094223418N07145844WA0147001505002066002000
B1526104223405N07145826WA0147201507002064002000
B1526114223389N07145811WA0147201508002061002000
B1526124223372N07145800WA0147101508002057002000
B1526134223353N07145793WA0147201508002054002000
B1526144223333N07145792WA0147201508002052002000
B1526154223313N07145795WA0147501509002055002000
B1526164223295N07145804WA0147601510002057002000
B1526174223278N07145816WA0147801512002059002000
B1526184223264N07145832WA0147801514002061002000
B1526194223253N07145851WA0148101516002062002000
B1526204223246N07145871WA0148501518002068002000
B1526214223242N07145891WA0148401521002075002000
B1526224223241N07145910WA0148501522002078002000
B1526234223243N07145929WA0148401522002076001000
B1526244223247N07145946WA0148401521002071001000
B1526254223254N07145961WA0148401521002064001000
B1526264223263N07145974WA0148601522002061001000
B1526274223274N07145984WA0148701524002061001000
B1526284223285N07145991WA0148701525002061001000
B1526294223298N07145994WA0148701526002061001000
B1526304223311N07145994WA0148601525002064001000
B1526314223323N07145991WA0148601525002066001000
B1526324223336N07145983WA0148501524002069001000
B1526334223347N07145973WA0149001524002075001000
B1526344223358N07145959WA0149301526002075001000
B1526354223368N07145943WA0149401529002075001000
B1526364223376N07145925WA0149601532002071001000
B1526374223382N07145905WA0150001535002066002000
B1526384223385N07145882WA0150401537002062002000
B1526394223388N07145859WA0151201542002061002000
B1526404223388N07145836WA0151401547002057002000
B1526414223387N07145813WA0151701551002054002000
B1526424223381N07145790WA0151801555002051002000
F1526424824011951172803060212
B1526434223372N07145770WA0152001557002049002000
B1526444223360N07145752WA0152001558002051002000
B1526454223345N07145738WA0152001558002051002000
F152645482401192251172803060212
B1526464223327N07145727WA0152001559002051002000
B1526474223308N07145720WA0152301558002051002000
B1526484223288N07145718WA0152701559002051002000
B1526494223270N07145721WA0153301562002052002000
B1526504223252N07145729WA0153301566002055002000
B1526514223238N07145741WA0153601569002057002000
B1526524223226N07145757WA0153701572002061002000
B1526534223218N07145775WA0154001574002062002000
B1526544223213N07145794WA0154201577002061002000
B1526554223212N07145813WA0154501579002059002000
B1526564223215N07145830WA0154701581002055002000
B1526574223221N07145844WA0155001584002052002000
B1526584223230N07145855WA0155201586002049002000
B1526594223241N07145863WA0155201588002044002000
B1527004223253N07145869WA0154901590002037002000
B1527014223265N07145874WA0154701589002032001000
B1527024223278N07145878WA0154201584002027001000
B1527034223292N07145883WA0154001579002023001000
B1527044223308N07145890WA0153201573002025001000
F1527042401192251172803060212
B1527054223324N07145897WA0152701568002028001000
F152705482401192251172803060212
B1527064223342N07145905WA0152301562002035001000
B1527074223359N07145913WA0152001558002042001000
B1527084223378N07145922WA0151801553002046001000
B1527094223398N07145931WA0151801550002048001000
B1527104223418N07145943WA0152001550002046001000
B1527114223438N07145954WA0152201552002042001000
B1527124223457N07145966WA0152401555002037001000
B1527134223476N07145978WA0152501556002032001000
B1527144223496N07145990WA0152501558002030001000
B1527154223515N07146001WA0152501561002030001000
B1527164223533N07146011WA0152501563002030001000
B1527174223551N07146021WA0152401562002030001000
B1527184223570N07146031WA0152001560002027001000
B1527194223589N07146041WA0151601556002023001000
B1527204223608N07146051WA0151201551002020001000
B1527214223627N07146062WA0150601546002016001000
B1527224223647N07146073WA0150701542002016001000
B1527234223667N07146084WA0150601541002016001000
B1527244223686N07146096WA0150501540002016001000
B1527254223706N07146109WA0150401540002016001000
B1527264223725N07146122WA0150301539002016001000
B1527274223744N07146134WA0150301540002018001000
B1527284223763N07146148WA0150301540002021001000
B1527294223782N07146161WA0150101540002025001000
B1527304223800N07146174WA0149801537002025001000
B1527314223819N07146188WA0149501534001021001000
B1527324223838N07146202WA0149301531001018001000
F1527324824192251172803060212
B1527334223856N07146216WA0149601529001016001000
B1527344223875N07146230WA0149801527001018001000
B1527354223893N07146244WA0150501531001023001000
B1527364223911N07146257WA0151501541001030001000
B1527374223928N07146269WA0152401552001039001000
B1527384223944N07146279WA0153101562001042001000
B1527394223959N07146289WA0153601569001042001000
B1527404223974N07146299WA0153901574001039001000
B1527414223988N07146309WA0153701577001032001000
B1527424224003N07146319WA0153501576001030001000
B1527434224017N07146330WA0153301574001032001000
B1527444224031N07146343WA0153001571001037001000
B1527454224045N07146357WA0152601567001044001000
B1527464224059N07146373WA0151901561001054001000
B1527474224072N07146391WA0151201556001064001000
B1527484224084N07146412WA0150501549001071001000
B1527494224096N07146434WA0150001542001073001000
B1527504224107N07146458WA0149201535001066001000
B1527514224117N07146484WA0148901529001056001000
B1527524224128N07146511WA0148701526001046001000
B1527534224139N07146538WA0148501523001037001000
B1527544224149N07146566WA0148101521001034001000
B1527554224160N07146593WA0148001519001030001000
B1527564224170N07146621WA0147401517001028001000
B1527574224181N07146649WA0147001513001027001000
B1527584224191N07146677WA0146401506001023001000
B1527594224202N07146707WA0145701499001021001000
B1528004224212N07146737WA0145701495001020001000
B1528014224223N07146767WA0145501492001023001000
B1528024224234N07146797WA0145301489001027001000
B1528034224244N07146828WA0145401489002032001000
B1528044224255N07146858WA0145501490001040001000
B1528054224266N07146889WA0145401490002045001000
B1528064224277N07146919WA0144901488002054001000
B1528074224287N07146949WA0144701486002059001000
B1528084224298N07146980WA0144501484002057001000
B1528094224308N07147011WA0144201481002054001000
B1528104224319N07147043WA0143901479002047001000
B1528114224329N07147074WA0143901477002047001000
B1528124224340N07147106WA0143301474002054001000
B1528134224351N07147137WA0142701470002059001000
B1528144224362N07147169WA0142201464001062001000
B1528154224374N07147201WA0141601458001059001000
B1528164224385N07147234WA0141001452001051001000
B1528174224397N07147266WA0140801446002044001000
B1528184224408N07147300WA0140401443002039001000
B1528194224420N07147333WA0140101441002034001000
B1528204224431N07147366WA0140001438002030001000
B1528214224443N07147399WA0140001436002027001000
B1528224224455N07147432WA0140001436002023001000
B1528234224466N07147464WA0140201437002021001000
B1528244224477N07147497WA0140401439002020001000
B1528254224487N07147529WA0140101439002018001000
B1528264224498N07147561WA0140101439002016001000
B1528274224508N07147593WA0139601437002014001000
B1528284224519N07147624WA0139201433002013001000
B1528294224529N07147656WA0138701429002013001000
B1528304224540N07147689WA0138301425002013001000
B1528314224551N07147721WA0138001421002013001000
B1528324224561N07147754WA0137801417002013001000
B1528334224572N07147787WA0137801416002013001000
B1528344224582N07147820WA0137901415002013001000
B1528354224592N07147853WA0137801415002013001000
B1528364224602N07147885WA0137801416002013001000
B1528374224611N07147917WA0137801416002011001000
B1528384224621N07147949WA0137801416002009001000
B1528394224631N07147981WA0138001417002009001000
B1528404224641N07148012WA0138001418002007001000
B1528414224650N07148042WA0138101420002007001000
B1528424224660N07148072WA0138101421002007001000
B1528434224670N07148102WA0138101422002006001000
B1528444224680N07148131WA0138101422002006001000
B1528454224689N07148159WA0138101421002007001000
B1528464224699N07148188WA0137701420002011001000
B1528474224709N07148216WA0137501418002016001000
B1528484224720N07148245WA0137201416002027001000
B1528494224730N07148274WA0136801412002034001000
B1528504224740N07148303WA0136601409002039001000
B1528514224750N07148332WA0136301406002042001000
B1528524224760N07148362WA0136401403002041001000
B1528534224770N07148393WA0136301402002042001000
B1528544224780N07148423WA0136201401002044001000
B1528554224790N07148454WA0136201401002046001000
B1528564224800N07148485WA0136201401002053001000
B1528574224809N07148515WA0136101401002058001000
B1528584224818N07148546WA0135901400002061001000
B1528594224827N07148576WA0136001400002062001000
B1529004224836N07148607WA0135901399002056001000
B1529014224845N07148637WA0136001399002049001000
B1529024224854N07148668WA0135701398002044001000
B1529034224862N07148698WA0135701397002041001000
B1529044224871N07148728WA0135201396002041001000
B1529054224879N07148758WA0134901393002044001000
F152905482419225117280306022312
B1529064224888N07148788WA0134701389002044001000
B1529074224896N07148818WA0134901387002042001000
B1529084224905N07148848WA0134701386002039001000
B1529094224914N07148877WA0134801387002032001000
B1529104224923N07148906WA0134701389002028001000
B1529114224932N07148934WA0134701388002025001000
B1529124224940N07148962WA0134601387002023001000
B1529134224949N07148990WA0134301386002020001000
B1529144224958N07149018WA0134001384002016001000
B1529154224966N07149047WA0133601381002014001000
B1529164224975N07149075WA0133501377002013001000
B1529174224985N07149104WA0133101374002013001000
B1529184224994N07149132WA0133301372001013001000
B1529194225004N07149160WA0133201373001013001000
B1529204225013N07149187WA0133201374002013001000
B1529214225023N07149214WA0133101373002011001000
B1529224225033N07149241WA0132901372001009001000
B1529234225044N07149267WA0132601370001007001000
B1529244225054N07149293WA0132401368001006001000
B1529254225065N07149320WA0132301366001006001000
B1529264225076N07149346WA0132001364001006001000
B1529274225087N07149372WA0131801363001006001000
B1529284225098N07149397WA0131601361001006001000
B1529294225109N07149423WA0131301358001006001000
B1529304225121N07149448WA0131001354001006001000
B1529314225134N07149474WA0130701351001006001000
B1529324225147N07149499WA0130501348001006001000
B1529334225160N07149523WA0130301345001006001000
B1529344225174N07149547WA0130301343001006001000
B1529354225189N07149571WA0130301341001007001000
B1529364225205N07149593WA0130601342001014001000
B1529374225221N07149615WA0131301346001023001000
B1529384225236N07149636WA0131801351001032001000
B1529394225252N07149655WA0132601359002041001000
B1529404225266N07149673WA0133201367002046001000
B1529414225280N07149689WA0133901375002049001000
B1529424225293N07149704WA0134601383001052001000
B1529434225305N07149718WA0135101390001054001000
B1529444225317N07149730WA0135201395001052001000
B1529454225328N07149742WA0135101397001049001000
B1529464225340N07149753WA0134901397001044001000
B1529474225351N07149762WA0134501394001035001000
B1529484225364N07149770WA0133801389002028001000
B1529494225377N07149777WA0133301382001021001000
B1529504225392N07149780WA0132601376001014001000
F1529502419225117280306022312
B1529514225408N07149782WA0132101369001011001000
B1529524225425N07149782WA0131801364001007001000
F152952482419225117280306022312
B1529534225442N07149780WA0131401360001004001000
B1529544225460N07149776WA0131101356001003001000
B1529554225478N07149772WA0130901352001003001000
B1529564225496N07149767WA0130701349001004001000
B1529574225515N07149761WA0130601346001015001000
B1529584225534N07149755WA0130401344001028001000
B1529594225553N07149748WA0130501343001042001000
B1530004225572N07149741WA0130501345001056001000
B1530014225590N07149732WA0130601347001061001000
B1530024225608N07149724WA0130701348002061001000
B1530034225626N07149716WA0130501348002056001000
B1530044225644N07149708WA0130401346002047001000
B1530054225663N07149699WA0130301344001040001000
B1530064225682N07149690WA0130301343001037001000
B1530074225701N07149681WA0130701342001039001000
B1530084225720N07149672WA0131001343002044001000
B1530094225739N07149662WA0131701349002051001000
B1530104225757N07149652WA0132301355002056001000
B1530114225775N07149642WA0132701362002061001000
B1530124225791N07149631WA0133101368002061001000
B1530134225807N07149620WA0133301373002056001000
B1530144225823N07149609WA0133401376002051001000
B1530154225839N07149599WA0133501377002044001000
B1530164225855N07149588WA0133801378002042001000
B1530174225872N07149579WA0133901378002046001000
B1530184225889N07149569WA0134301380002051001000
B1530194225907N07149560WA0134701384002056001000
B1530204225924N07149552WA0135301388002059001000
B1530214225941N07149543WA0135901393002059001000
B1530224225957N07149535WA0136401398002059001000
B1530234225972N07149527WA0136901405002059001000
B1530244225987N07149519WA0137501411002059001000
B1530254226001N07149512WA0137801416002061001000
B1530264226015N07149504WA0138101420002059001000
B1530274226028N07149496WA0138301424002059001000
B1530284226041N07149488WA0138601427002059001000
B1530294226054N07149479WA0138501428002059001000
B1530304226067N07149471WA0138401428002061001000
B1530314226081N07149462WA0138201428002061001000
B1530324226094N07149453WA0138001425002062001000
B1530334226108N07149444WA0137201421002068001000
B1530344226122N07149434WA0136701416002073001000
B1530354226137N07149424WA0136001409002075001000
B1530364226152N07149412WA0135401401002075001000
B1530374226167N07149400WA0134701395002069001000
B1530384226184N07149387WA0134101388002061001000
B1530394226200N07149373WA0133501381002054001000
B1530404226218N07149359WA0132901374002046001000
B1530414226236N07149345WA0132601369002037001000
B1530424226254N07149330WA0132001364002030001000
B1530434226273N07149315WA0131701360002023001000
B1530444226292N07149300WA0131201356002020001000
B1530454226310N07149285WA0130801351002018001000
B1530464226329N07149268WA0130501348002018001000
B1530474226348N07149252WA0130201346002020001000
B1530484226367N07149235WA0130101344002018001000
B1530494226386N07149219WA0130101341002016001000
B1530504226404N07149202WA0129501338002018001000
B1530514226423N07149186WA0129301335002026001000
B1530524226442N07149169WA0129201332002035001000
B1530534226461N07149153WA0129201331002042001000
B1530544226479N07149136WA0129001330002044001000
B1530554226498N07149120WA0128601329002037001000
B1530564226516N07149103WA0128401327002030001000
B1530574226534N07149085WA0128101325002025001000
B1530584226552N07149068WA0127901323002020001000
B1530594226570N07149051WA0127501319002016001000
B1531004226589N07149034WA0127101316002014001000
B1531014226607N07149017WA0126701312002011001000
B1531024226626N07148999WA0126401308002011001000
B1531034226644N07148981WA0126401305002011001000
B1531044226663N07148962WA0126101303002011001000
B1531054226681N07148944WA0125901301002014001000
B1531064226700N07148925WA0125801299002016001000
B1531074226718N07148907WA0125801298002020001000
B1531084226737N07148889WA0125501297002027001000
B1531094226756N07148871WA0125501296002030001000
B1531104226774N07148854WA0125101294002032001000
B1531114226793N07148837WA0124801291002030001000
B1531124226811N07148819WA0124501288002025001000
B1531134226830N07148802WA0124301286002027001000
B1531144226848N07148784WA0124401284002032001000
B1531154226866N07148766WA0124201284002037001000
B1531164226884N07148749WA0124001283002041001000
B1531174226902N07148732WA0123801282002037001000
B1531184226920N07148717WA0123501280002030001000
B1531194226939N07148701WA0123201276002025001000
B1531204226958N07148687WA0122801273002020001000
B1531214226977N07148673WA0122601269002016001000
B1531224226997N07148660WA0122201265002014001000
B1531234227016N07148646WA0121801262002013001000
B1531244227036N07148633WA0121701259002013001000
B1531254227056N07148619WA0121701257002011001000
B1531264227076N07148605WA0121801258002009001000
B1531274227095N07148590WA0121801258002007001000
B1531284227114N07148575WA0121901257002007001000
B1531294227133N07148558WA0122001257002011001000
B1531304227150N07148541WA0122301259002018001000
B1531314227167N07148522WA0122801263002028001000
B1531324227183N07148502WA0123101267002037001000
B1531334227199N07148482WA0123401271002042001000
B1531344227213N07148462WA0123601275002046001000
B1531354227227N07148442WA0123801277002051001000
B1531364227240N07148421WA0124001279002059001000
B1531374227252N07148399WA0124301282002068001000
B1531384227263N07148377WA0124401284002073001000
B1531394227273N07148355WA0124201285002071001000
B1531404227283N07148332WA0124301285002066001000
B1531414227291N07148307WA0124501286002064001000
B1531424227299N07148283WA0124901289002066001000
B1531434227305N07148258WA0125301292002068001000
B1531444227309N07148234WA0125501295002066001000
B1531454227313N07148210WA0125701297002059001000
B1531464227317N07148186WA0126001298002049001000
B1531474227321N07148163WA0125301296002039001000
B1531484227327N07148140WA0124801293002030001000
B1531494227335N07148120WA0124401289002023001000
B1531504227346N07148103WA0123701284002018001000
B1531514227359N07148089WA0123001278002014001000
B1531524227374N07148080WA0122401272002013001000
B1531534227391N07148075WA0121601266002011001000
B1531544227409N07148075WA0120801258002009002000
B1531554227427N07148080WA0120601251002007002000
B1531564227445N07148090WA0120001243002006001000
B1531574227463N07148103WA0119801238002006002000
B1531584227481N07148118WA0119501236002006002000
B1531594227498N07148134WA0119601236002011002000
B1532004227515N07148150WA0119601235002023002000
B1532014227531N07148166WA0119401234002037001000
B1532024227548N07148182WA0119101233002050001000
B1532034227564N07148199WA0118801231002057001000
B1532044227580N07148215WA0118601228002056001000
B1532054227596N07148232WA0118101225002049001000
B1532064227612N07148249WA0118001221002040001000
B1532074227629N07148268WA0118001219002034001000
B1532084227645N07148286WA0117901218002027001000
B1532094227661N07148304WA0118001219002025001000
B1532104227677N07148323WA0117901220002025001000
B1532114227692N07148341WA0117901220002023001000
B1532124227708N07148358WA0117701219002023001000
B1532134227724N07148376WA0117501217002020001000
B1532144227739N07148393WA0117201215002016001000
B1532154227755N07148411WA0117001213002014001000
B1532164227770N07148430WA0116801210002013001000
B1532174227785N07148449WA0116701208002013001000
B1532184227800N07148469WA0116801207002011001000
B1532194227815N07148489WA0116801209002009001000
B1532204227830N07148508WA0116801210002009001000
B1532214227845N07148526WA0116801211002011001000
B1532224227860N07148545WA0116901211002016001000
B1532234227875N07148564WA0116901211002021001000
B1532244227889N07148583WA0116801211002027001000
B1532254227904N07148603WA0117001210002032001000
B1532264227918N07148623WA0117001210002037001000
B1532274227932N07148643WA0117201211002044001000
B1532284227945N07148663WA0117401214002047001000
B1532294227959N07148682WA0117601217002046001000
B1532304227972N07148700WA0117501219002040001000
B1532314227985N07148718WA0117401219002032001000
B1532324227998N07148735WA0117201217002023001000
B1532334228012N07148753WA0117001215002018001000
B1532344228025N07148772WA0116801213002013001000
B1532354228037N07148791WA0116401211002011001000
B1532364228050N07148812WA0116201207002011001000
B1532374228062N07148833WA0115901204002011001000
B1532384228074N07148855WA0115701202002013001000
B1532394228086N07148877WA0116001200002013001000
B1532404228099N07148899WA0116201200002013001000
B1532414228111N07148921WA0116301203002018001000
B1532424228123N07148944WA0116701206002025001000
B1532434228134N07148966WA0116701209002032001000
B1532444228144N07148989WA0117101210002041001000
B1532454228154N07149012WA0117301212002046001000
B1532464228164N07149036WA0117601215002049001000
B1532474228172N07149061WA0118501221002054001000
B1532484228180N07149084WA0119201228002059001000
B1532494228187N07149107WA0119401234002057001000
B1532504228193N07149129WA0119801240002052001000
B1532514228199N07149151WA0120201244002046001000
B1532524228205N07149173WA0120401246002041001000
B1532534228209N07149196WA0120601248002041001000
B1532544228214N07149218WA0120701251002042001000
B1532554228218N07149241WA0121101253002046001000
B1532564228222N07149263WA0121401256002044001000
B1532574228226N07149284WA0121801259002044001000
B1532584228230N07149305WA0122601264002046001000
B1532594228233N07149326WA0122801268002046001000
B1533004228236N07149346WA0123001272002051001000
B1533014228239N07149366WA0123001275002054001000
B1533024228244N07149385WA0122901275002057001000
B1533034228250N07149403WA0123001273002061001000
B1533044228258N07149419WA0123001272002061001000
B1533054228269N07149431WA0123301272002061001000
B1533064228282N07149438WA0123601275002062001000
B1533074228295N07149440WA0124001278002062001000
F1533072419225117280306022312
B1533084228308N07149436WA0124201281002062001000
F153308482419225117280306022312
B1533094228319N07149426WA0124201284002062001000
F1533092419225117280306022312
B1533104228327N07149411WA0124201285002061001000
F153310482419225117280306022312
B1533114228332N07149393WA0124201286002062002000
F1533112419225117280306022312
B1533124228334N07149372WA0124201286002064002000
F153312482419225117280306022312
B1533134228332N07149348WA0124101285002064002000
B1533144228326N07149325WA0124401283003066002000
B1533154228316N07149304WA0124501283002066002000
B1533164228303N07149286WA0124801284002066002000
B1533174228285N07149272WA0125101286002066002000
F1533172419225117280306022312
B1533184228265N07149264WA0125501289003062002000
F153318482419225117280306022312
B1533194228244N07149263WA0126101294003059002000
F1533194824192251172803060212
B1533204228225N07149268WA0126401299003054002000
B1533214228207N07149278WA0126701303003051002000
B1533224228191N07149294WA0126801306003051002000
F153322482419225117280306022312
B1533234228178N07149313WA0126901308003049002000
B1533244228167N07149335WA0127001309002052002000
B1533254228161N07149357WA0126901309002057002000
B1533264228157N07149381WA0127201308002059002000
B1533274228158N07149404WA0127201308002064002000
B1533284228161N07149426WA0127201308002066002000
B1533294228168N07149445WA0127201309002066001000
B1533304228178N07149462WA0127401310002068001000
F1533302419225117280306022312
B1533314228189N07149474WA0127701311002068001000
F153331482419225117280306022312
B1533324228202N07149481WA0127801313002068002000
B1533334228216N07149483WA0128001315002066002000
F1533332419225117280306022312
B1533344228230N07149480WA0128201318002064002000
F153334482419225117280306022312
B1533354228242N07149473WA0128501320002061002000
B1533364228252N07149462WA0128601322002059002000
B1533374228260N07149447WA0128501323002057002000
B1533384228266N07149430WA0128301323002054002000
B1533394228269N07149411WA0128201322002054002000
B1533404228268N07149389WA0128201321002052002000
B1533414228264N07149368WA0128101320002051002000
B1533424228256N07149347WA0128301319002047002000
B1533434228246N07149328WA0128501320002039002000
B1533444228233N07149311WA0128701322002030002000
B1533454228218N07149298WA0128701324002025002000
B1533464228201N07149288WA0129001326002023002000
B1533474228182N07149282WA0129201328002030002000
B1533484228163N07149279WA0129501328002040002000
B1533494228144N07149281WA0129301329002049002000
B1533504228125N07149288WA0129701331002056002000
B1533514228106N07149296WA0130101334002059002000
B1533524228088N07149307WA0130601338002059002000
B1533534228071N07149319WA0131301341002059002000
B1533544228055N07149334WA0131301345002062002000
B1533554228041N07149351WA0131301348002064001000
B1533564228030N07149372WA0131501351002066002000
B1533574228022N07149394WA0131601352002066001000
B1533584228018N07149416WA0131501353002062001000
B1533594228018N07149439WA0131601354002061001000
B1534004228021N07149460WA0131701354002059001000
B1534014228026N07149480WA0131801355002059001000
B1534024228034N07149496WA0131701355002059001000
B1534034228045N07149510WA0131701354002057001000
F1534034824192217280306022312
B1534044228056N07149519WA0131801354002055001000
F153404482419225117280306022312
B1534054228069N07149523WA0132001355002054001000
F1534052419225117280306022312
B1534064228082N07149523WA0132201356002057001000
F153406482419225117280306022312
B1534074228094N07149518WA0131901357002062001000
B1534084228105N07149509WA0131901357002071001000
B1534094228115N07149495WA0131901356002082001000
B1534104228122N07149479WA0131901355002090002000
B1534114228127N07149459WA0131801355002097002000
B1534124228129N07149438WA0131601355002093002000
B1534134228128N07149416WA0131601355002085002000
B1534144228123N07149394WA0131701355002069002000
B1534154228116N07149373WA0132001355002056002000
B1534164228107N07149353WA0132001355002049002000
B1534174228097N07149334WA0131901356002049002000
B1534184228084N07149317WA0131901357002056002000
B1534194228070N07149302WA0131901357002059002000
B1534204228055N07149288WA0132001357002066002000
B1534214228038N07149277WA0132001357002069002000
B1534224228020N07149268WA0132301359002075002000
B1534234228002N07149262WA0133001362002076002000
B1534244227983N07149256WA0133401366002071002000
B1534254227964N07149252WA0133701370002068002000
B1534264227946N07149250WA0133801373002059001000
B1534274227927N07149253WA0134101376002054001000
B1534284227909N07149259WA0134301380002052001000
B1534294227892N07149271WA0134401382002051001000
B1534304227876N07149285WA0134601384002051001000
B1534314227862N07149302WA0134701385002054001000
B1534324227850N07149323WA0134601386002055001000
B1534334227841N07149344WA0134701386002057001000
B1534344227834N07149367WA0134701386002061001000
B1534354227829N07149390WA0134701385002064001000
B1534364227825N07149413WA0134701385002069001000
B1534374227825N07149436WA0134501384002069001000
B1534384227826N07149458WA0134401383002068001000
B1534394227832N07149478WA0134501381002061001000
B1534404227841N07149495WA0134601382002054001000
B1534414227852N07149509WA0134701383002049001000
B1534424227865N07149517WA0134701385002046001000
B1534434227878N07149521WA0134701386002046001000
B1534444227891N07149522WA0134501385002044002000
F1534442419225117280306022312
B1534454227904N07149519WA0134101384002046001000
F153445482419225117280306022312
B1534464227916N07149513WA0133701379002051002000
B1534474227929N07149504WA0133201375002054002000
B1534484227941N07149493WA0132701370002056001000
B1534494227953N07149480WA0132401365002051002000
B1534504227966N07149467WA0131801360002040002000
B1534514227979N07149453WA0131501357002030002000
B1534524227993N07149440WA0131301353002023001000
B1534534228007N07149428WA0130901350002020001000
B1534544228022N07149415WA0130801347002016001000
B1534554228037N07149403WA0130201342002013001000
B1534564228052N07149390WA0130001339002009001000
B1534574228067N07149378WA0129601337002007001000
B1534584228082N07149364WA0129401335002006001000
B1534594228097N07149351WA0129001332002006001000
B1535004228112N07149339WA0128901329002006001000
B1535014228128N07149328WA0128601326002006001000
B1535024228144N07149319WA0128401324002006001000
B1535034228161N07149310WA0128201322002006001000
B1535044228178N07149303WA0128101320002006001000
B1535054228195N07149296WA0127801318002004001000
B1535064228213N07149290WA0127701317002003001000
B1535074228230N07149283WA0127801316002001001000
B1535084228247N07149277WA0128001315002000001000
B1535094228264N07149270WA0127801316002001001000
B1535104228280N07149262WA0127901318002004001000
B1535114228296N07149254WA0128101321002009001000
B1535124228311N07149246WA0128201322002013001000
B1535134228326N07149237WA0127901322002013001000
B1535144228341N07149228WA0127801320001011001000
B1535154228357N07149219WA0127701318001007001000
B1535164228373N07149210WA0127701317001006001000
B1535174228389N07149202WA0127801317001007001000
B1535184228405N07149194WA0127901319001013001000
B1535194228421N07149186WA0128201321001025001000
B1535204228436N07149178WA0128401324002040001000
B1535214228451N07149169WA0128901327002054001000
B1535224228467N07149161WA0129201329002064001000
B1535234228482N07149153WA0129601332002066001000
B1535244228496N07149146WA0130201338002064001000
B1535254228511N07149139WA0130701344002064001000
B1535264228524N07149133WA0131001349002061001000
B1535274228537N07149127WA0131301353002059001000
B1535284228550N07149121WA0131301355002057001000
B1535294228563N07149116WA0131301355001054001000
B1535304228576N07149112WA0131301355001055001000
B1535314228589N07149109WA0131201355001057001000
B1535324228602N07149107WA0131201354001061001000
B1535334228616N07149106WA0131101353001059001000
B1535344228630N07149104WA0130901351001056001000
B1535354228644N07149102WA0130601350001053001000
B1535364228658N07149100WA0130401348001054001000
B1535374228673N07149100WA0130001345001059001000
B1535384228688N07149101WA0129901341001061001000
B1535394228703N07149102WA0129801338001061001000
B1535404228719N07149105WA0129801338001052001000
B1535414228735N07149107WA0130001338001044001000
B1535424228751N07149110WA0129901339001042001000
B1535434228767N07149113WA0129901340001042001000
B1535444228784N07149116WA0130201340001046001000
B1535454228800N07149120WA0130201340001051001000
B1535464228816N07149124WA0130301341001052001000
B1535474228832N07149129WA0130801344001054001000
B1535484228848N07149134WA0131301348001055001000
B1535494228864N07149139WA0131901353001057001000
B1535504228879N07149144WA0132601359001059001000
B1535514228893N07149148WA0133301366001061001000
B1535524228907N07149151WA0134001372001061001000
B1535534228920N07149153WA0134201377001062001000
B1535544228932N07149152WA0134801382001064001000
B1535554228944N07149147WA0134701385001064001000
B1535564228954N07149137WA0134601387002066001000
F1535562419225117280306022312
B1535574228962N07149121WA0134401387002068001000
F153557482419225117280306022312
B1535584228967N07149101WA0134301385002071001000
F1535582419225117280306022312
B1535594228967N07149078WA0134001383002075001000
F153559482419225117280306022312
B1536004228965N07149052WA0133701380002071001000
B1536014228957N07149027WA0133601377002063001000
B1536024228946N07149002WA0133401374002052001000
B1536034228932N07148979WA0133301371002046001000
B1536044228915N07148959WA0133101369002042001000
B1536054228895N07148943WA0133001368002042002000
F1536054824192251172803060212
B1536064228874N07148930WA0132701366002044002000
F153606482419225117280306022312
B1536074228851N07148921WA0132701365002042002000
B1536084228827N07148918WA0133001365003041002000
B1536094228804N07148919WA0133001365003037002000
B1536104228780N07148923WA0133301366003035002000
B1536114228758N07148929WA0133501368003035003000
B1536124228737N07148938WA0133901370003039002000
B1536134228716N07148949WA0134001374003044002000
B1536144228698N07148964WA0134601378003047002000
B1536154228681N07148982WA0135101382003051002000
B1536164228666N07149001WA0135401386003052002000
B1536174228654N07149021WA0135401390002054002000
B1536184228644N07149043WA0135401392002050002000
B1536194228638N07149066WA0135401393002045002000
B1536204228634N07149088WA0135401394002039001000
B1536214228633N07149111WA0135401394002037001000
B1536224228634N07149133WA0135601395002039001000
B1536234228637N07149154WA0135601395002046001000
B1536244228642N07149174WA0135601395002054001000
B1536254228649N07149193WA0136001396002059001000
B1536264228656N07149211WA0136201398002064001000
B1536274228664N07149229WA0136501401002064001000
B1536284228672N07149245WA0136701405002064001000
B1536294228681N07149260WA0137301409002062001000
B1536304228691N07149274WA0137601413002059001000
B1536314228700N07149287WA0137801416002059001000
B1536324228710N07149299WA0138101419002059001000
B1536334228719N07149309WA0138301422002061001000
B1536344228729N07149319WA0138301424002062001000
B1536354228739N07149329WA0138301425002061001000
B1536364228750N07149338WA0138501426002057001000
B1536374228760N07149347WA0138301426001054001000
B1536384228771N07149357WA0138401426001052001000
B1536394228781N07149367WA0138501426001054001000
B1536404228791N07149378WA0138601427001059001000
B1536414228801N07149390WA0138601427001061001000
B1536424228810N07149404WA0138301426001064001000
B1536434228819N07149417WA0138601425001066001000
B1536444228829N07149430WA0138601427001068001000
B1536454228838N07149443WA0138501428001068001000
B1536464228847N07149455WA0138701429001063001000
B1536474228857N07149467WA0138701428001054001000
B1536484228866N07149479WA0138101426001042001000
B1536494228877N07149489WA0137801422001034001000
B1536504228888N07149498WA0137201416001032001000
B1536514228900N07149505WA0136601410001037001000
B1536524228914N07149508WA0136201405001044001000
B1536534228929N07149508WA0135801401001049001000
B1536544228944N07149506WA0135201397001047001000
B1536554228959N07149502WA0135001392001040001000
B1536564228975N07149497WA0134801387001032001000
B1536574228991N07149492WA0134501383001025001000
B1536584229007N07149487WA0134401381001020001000
B1536594229024N07149481WA0134601381001018001000
B1537004229041N07149476WA0134701383001020001000
B1537014229057N07149470WA0134701385001025001000
B1537024229073N07149464WA0135001387001037001000
B1537034229089N07149458WA0135201390001047001000
B1537044229105N07149452WA0135401392001054001000
B1537054229120N07149446WA0134901393001056001000
B1537064229136N07149440WA0134701391001054001000
B1537074229152N07149435WA0134601388001052001000
B1537084229168N07149429WA0134301386001049001000
B1537094229184N07149423WA0134001383001044001000
B1537104229200N07149418WA0133601380001035001000
B1537114229216N07149412WA0133401377001025001000
B1537124229233N07149406WA0133201374001018001000
B1537134229250N07149401WA0133001371001014001000
B1537144229268N07149397WA0132801369001013001000
B1537154229286N07149393WA0133001368001014001000
B1537164229303N07149389WA0132801368001016001000
B1537174229321N07149384WA0132601368001025001000
B1537184229339N07149379WA0132701367001039001000
B1537194229356N07149375WA0132601367001056001000
B1537204229374N07149370WA0132601367001075001000
B1537214229392N07149366WA0132501367001088001000
B1537224229409N07149363WA0132501367001092001000
B1537234229427N07149360WA0132501366001088001000
B1537244229445N07149358WA0132501365001080001000
B1537254229463N07149356WA0132701364001069001000
B1537264229481N07149355WA0132701364001062001000
B1537274229499N07149354WA0132601365001061001000
B1537284229517N07149351WA0133001366001068001000
B1537294229534N07149348WA0132901368001075001000
B1537304229552N07149344WA0133001370001085001000
B1537314229569N07149339WA0133201371001090001000
B1537324229587N07149333WA0133301372001090001000
B1537334229604N07149326WA0133701372001089001000
B1537344229621N07149319WA0134101374001083001000
B1537354229638N07149311WA0134801380001080001000
B1537364229654N07149303WA0135601387001078001000
B1537374229669N07149295WA0136401396001078001000
B1537384229682N07149287WA0137501404001080001000
B1537394229695N07149279WA0137901412001082001000
B1537404229708N07149270WA0138401418001082001000
B1537414229720N07149264WA0138501423001082001000
B1537424229732N07149260WA0138301426001080001000
B1537434229744N07149258WA0138301426002078001000
B1537444229756N07149258WA0137801424001073001000
B1537454229768N07149257WA0137401423001064001000
B1537464229781N07149255WA0136901420001054001000
F1537462419225117280306022312
B1537474229794N07149252WA0136401414001042001000
F153747482419225117280306022312
B1537484229808N07149247WA0135801406001034001000
B1537494229823N07149241WA0135501400001034001000
B1537504229839N07149233WA0134901395001040001000
B1537514229855N07149225WA0134601391001052001000
B1537524229872N07149216WA0134401387001063001000
B1537534229889N07149208WA0134201385001064001000
B1537544229907N07149201WA0133701382002061001000
B1537554229924N07149194WA0133201378001054001000
B1537564229942N07149189WA0132801373001047001000
B1537574229961N07149185WA0132501367002042001000
B1537584229981N07149184WA0132401363001037001000
B1537594230001N07149184WA0131901358001034001000
B1538004230021N07149185WA0131901356001037001000
B1538014230042N07149186WA0132101357001040001000
B1538024230062N07149187WA0132601360001044001000
B1538034230081N07149187WA0132901363001044001000
B1538044230101N07149188WA0132901365001041001000
B1538054230120N07149189WA0132301363001041001000
B1538064230139N07149191WA0131901358001044001000
B1538074230158N07149196WA0131701356001051001000
B1538084230176N07149203WA0131801355001052001000
B1538094230195N07149211WA0131801356001049001000
B1538104230212N07149217WA0132201357001042001000
B1538114230230N07149224WA0132001358001034001000
B1538124230247N07149230WA0132201359001027001000
B1538134230264N07149236WA0132301361001021001000
B1538144230281N07149241WA0132401363001018001000
B1538154230298N07149245WA0132601364001016001000
B1538164230315N07149249WA0132601365001018001000
B1538174230331N07149252WA0132801366001025001000
B1538184230348N07149256WA0133101366001039001000
B1538194230365N07149259WA0133501369001047001000
B1538204230381N07149262WA0134001374001052001000
B1538214230397N07149264WA0134301380001056001000
B1538224230412N07149266WA0134301384001052001000
B1538234230427N07149267WA0134301387001051001000
B1538244230442N07149268WA0134301386001049001000
B1538254230456N07149269WA0134101383001044001000
B1538264230471N07149270WA0133601379001035001000
B1538274230486N07149274WA0133301374001028001000
B1538284230501N07149280WA0133401371001025001000
B1538294230516N07149291WA0133401369001023001000
B1538304230529N07149306WA0134101370001027001000
B1538314230541N07149325WA0134201373001030001000
B1538324230551N07149346WA0134701378001030001000
B1538334230559N07149367WA0135501385001034001000
B1538344230567N07149387WA0135901394001035001000
B1538354230575N07149406WA0136401401001037001000
B1538364230583N07149423WA0136601405001044001000
B1538374230590N07149440WA0137101407001047001000
B1538384230598N07149456WA0137101409001052001000
B1538394230605N07149474WA0137601410001055001000
B1538404230612N07149492WA0137601410001055001000
B1538414230619N07149510WA0137901413001055001000
B1538424230627N07149529WA0137301414001054001000
B1538434230636N07149545WA0137301415002055001000
F1538432419225117280306022312
B1538444230646N07149558WA0137301415001057001000
F153844482419225117280306022312
B1538454230658N07149568WA0137801414002062001000
B1538464230671N07149576WA0137701414002064001000
B1538474230685N07149584WA0137601414001061001000
B1538484230698N07149593WA0136901412002058001000
B1538494230710N07149604WA0136501410001052001000
B1538504230722N07149619WA0136001405002056001000
B1538514230732N07149637WA0135401399002061001000
B1538524230740N07149658WA0134801394002062001000
B1538534230748N07149681WA0134201388002064001000
B1538544230754N07149707WA0133501382002062001000
B1538554230760N07149733WA0133001376002062001000
B1538564230765N07149761WA0132701371002064001000
B1538574230769N07149789WA0132201367002059001000
B1538584230773N07149818WA0131701362002051001000
B1538594230775N07149848WA0131501358002040001000
B1539004230776N07149878WA0131301355002032001000
B1539014230777N07149909WA0130901351002027001000
B1539024230777N07149940WA0130401347002021001000
B1539034230778N07149972WA0129901342002018001000
B1539044230778N07150003WA0129801339002014001000
B1539054230780N07150034WA0129701337002013001000
B1539064230781N07150066WA0129701336002013001000
B1539074230784N07150097WA0129801337002011001000
B1539084230786N07150127WA0129701337002011001000
B1539094230789N07150157WA0129801337002013001000
B1539104230792N07150186WA0129401335002016001000
B1539114230795N07150216WA0129101334002020001000
B1539124230797N07150246WA0129201332002020001000
B1539134230799N07150276WA0129101330002020001000
B1539144230800N07150307WA0129401330002018001000
B1539154230800N07150339WA0129401331002020001000
B1539164230799N07150370WA0129701334002025001000
B1539174230800N07150400WA0129801336002033001000
B1539184230800N07150430WA0130101338002045001000
B1539194230801N07150460WA0130101340002054001000
B1539204230802N07150489WA0130101341002064001000
B1539214230804N07150517WA0130101342002069001000
B1539224230806N07150546WA0130301342002069001000
B1539234230809N07150574WA0130601344002073001000
B1539244230811N07150601WA0130601346002071001000
B1539254230814N07150628WA0130001346002068001000
B1539264230816N07150655WA0129601343002063001000
B1539274230818N07150683WA0129101337002052001000
B1539284230820N07150711WA0128901332002042001000
B1539294230822N07150740WA0128801329002032001000
B1539304230824N07150768WA0128501327002025001000
B1539314230826N07150796WA0128301326002021001000
B1539324230829N07150824WA0128201325002018001000
B1539334230832N07150851WA0128001324002016001000
B1539344230835N07150878WA0128001322002013001000
B1539354230838N07150905WA0127601320002009001000
B1539364230841N07150932WA0127301318002007001000
B1539374230844N07150960WA0126701315002006001000
B1539384230847N07150987WA0126701310002006001000
B1539394230850N07151015WA0126301304002006001000
B1539404230852N07151043WA0126001301002006001000
B1539414230856N07151071WA0125901301002006001000
B1539424230860N07151098WA0125701300001006001000
B1539434230865N07151124WA0125701299001006001000
B1539444230871N07151149WA0125701299001004001000
B1539454230878N07151174WA0125801298001004001000
B1539464230885N07151198WA0125601298002004001000
B1539474230891N07151222WA0125901297002003001000
B1539484230898N07151247WA0125901297002004001000
B1539494230903N07151271WA0126001298002006001000
B1539504230907N07151297WA0125601298002013001000
B1539514230910N07151323WA0125301296002023001000
B1539524230910N07151350WA0125201294002035001000
B1539534230908N07151378WA0125401293002042001000
B1539544230905N07151406WA0125601295002042001000
B1539554230901N07151434WA0126301297002039001000
B1539564230897N07151462WA0126401300002035001000
B1539574230891N07151490WA0126501302002037001000
B1539584230885N07151517WA0127001305002042001000
B1539594230878N07151543WA0127001307002049001000
B1540004230869N07151568WA0127101309002054001000
B1540014230860N07151592WA0126701308002054001000
B1540024230848N07151615WA0126301307002051001000
B1540034230834N07151637WA0126101304002046001000
B1540044230818N07151657WA0125501300002037001000
B1540054230799N07151676WA0125201296002032002000
B1540064230779N07151692WA0125201292002027002000
B1540074230757N07151706WA0125101289002023002000
B1540084230733N07151715WA0125201290002021002000
B1540094230709N07151720WA0125501292002018002000
B1540104230684N07151722WA0125101291002016002000
B1540114230659N07151721WA0125301290002014002000
B1540124230634N07151716WA0125301289002013002000
B1540134230610N07151707WA0125501289002013002000
B1540144230588N07151693WA0125701289002013002000
B1540154230567N07151675WA0125701291002011002000
B1540164230549N07151654WA0125901292003011002000
B1540174230533N07151630WA0125901293003009002000
B1540184230521N07151604WA0126101295003007002000
B1540194230514N07151577WA0125801296003007002000
B1540204230510N07151550WA0125901297003006002000
B1540214230509N07151524WA0125501295003006002000
F1540212419225117280306022312
B1540224230512N07151498WA0125401292003006002000
B1540234230519N07151475WA0125301290003006002000
F154023482419225117280306022312
B1540244230529N07151455WA0125101288003006002000
B1540254230542N07151440WA0124601286002006002000
B1540264230557N07151430WA0124601286002006002000
B1540274230572N07151422WA0124501284002006002000
B1540284230588N07151418WA0124001282002006002000
B1540294230605N07151415WA0123801279002006001000
B1540304230623N07151413WA0124201279002006001000
B1540314230640N07151411WA0124501281002009001000
B1540324230657N07151408WA0124701283002016001000
B1540334230674N07151405WA0125201287002027001000
B1540344230691N07151401WA0125301292002040001000
B1540354230707N07151398WA0125501296002052001000
B1540364230723N07151395WA0125901298002061001000
B1540374230739N07151392WA0126201300001064001000
B1540384230754N07151390WA0126401302001064001000
B1540394230770N07151388WA0126501305001062001000
B1540404230784N07151386WA0126901309001059001000
B1540414230799N07151382WA0126901311001054001000
B1540424230813N07151378WA0126401311001047001000
B1540434230827N07151373WA0126101308001042001000
B1540444230841N07151369WA0125701303001041001000
B1540454230856N07151364WA0125401300001041001000
B1540464230871N07151359WA0125201298001039001000
B1540474230885N07151354WA0125001296001034001000
B1540484230900N07151349WA0124601292001027001000
B1540494230914N07151343WA0124101288001020001000
B1540504230929N07151336WA0124001284001016001000
B1540514230944N07151328WA0123501281001013001000
B1540524230959N07151321WA0123101277001009001000
B1540534230975N07151315WA0122901274001007001000
B1540544230990N07151308WA0122401270001004001000
B1540554231006N07151300WA0122101266001003001000
B1540564231022N07151292WA0121801263001001001000
B1540574231038N07151282WA0121701260001000001000
B1540584231054N07151270WA0121601258001000001000
B1540594231069N07151258WA0121401257001000001000
B1541004231084N07151245WA0121201254001000001000
B1541014231099N07151232WA0120901253001000001000
B1541024231114N07151218WA0120801252001000001000
B1541034231129N07151205WA0120601250002000001000
B1541044231143N07151191WA0120401249002000001000
B1541054231158N07151176WA0120301247002000001000
B1541064231172N07151161WA0120201245002000001000
B1541074231186N07151145WA0120201244002000001000
B1541084231199N07151129WA0119901243002000001000
B1541094231212N07151111WA0119701242002000001000
B1541104231224N07151093WA0119601241002000001000
B1541114231236N07151073WA0119501239002000001000
B1541124231248N07151054WA0119301237002000001000
B1541134231260N07151034WA0118801235002000001000
B1541144231273N07151015WA0118601232002000001000
B1541154231285N07150996WA0118501229002000001000
B1541164231299N07150977WA0118401227002001001000
B1541174231311N07150958WA0118301226002001001000
B1541184231324N07150939WA0118001225002001001000
B1541194231337N07150920WA0118001225002001001000
B1541204231350N07150902WA0117801224002001001000
B1541214231362N07150884WA0117601222002001001000
B1541224231375N07150866WA0117201220002001001000
B1541234231388N07150847WA0116801217002001001000
B1541244231401N07150829WA0116301212002000001000
B1541254231415N07150810WA0115701206002000001000
B1541264231429N07150792WA0115301200002000001000
B1541274231444N07150774WA0115101196002000001000
B1541284231460N07150756WA0114701193002000001000
B1541294231476N07150739WA0114501190002000001000
B1541304231492N07150722WA0114401188002001001000
B1541314231508N07150705WA0114101187002001001000
B1541324231525N07150688WA0114001185002001001000
B1541334231541N07150671WA0113701183002001001000
B1541344231557N07150654WA0113601181002000001000
B1541354231572N07150637WA0113401179002000001000
B1541364231588N07150620WA0113001178002000001000
B1541374231604N07150602WA0112701175002000001000
B1541384231619N07150585WA0112301172002000001000
B1541394231635N07150567WA0111801166002001001000
B1541404231651N07150550WA0111501162002001001000
B1541414231668N07150533WA0111201158002003001000
B1541424231685N07150517WA0111101155002003001000
B1541434231702N07150501WA0111101153002003001000
B1541444231720N07150485WA0111301154002004001000
B1541454231737N07150469WA0111201155002004001000
B1541464231754N07150454WA0110901155002004001000
B1541474231772N07150439WA0110701154002004001000
B1541484231789N07150423WA0110801152002004001000
B1541494231806N07150408WA0110601151002003001000
B1541504231824N07150393WA0110801151002003001000
B1541514231841N07150377WA0110801152002003001000
B1541524231858N07150361WA0110801152002003001000
B1541534231875N07150344WA0110701151002008001000
B1541544231892N07150328WA0110201149002018001000
B1541554231909N07150311WA0109901146002025001000
B1541564231926N07150293WA0109901143002028001000
B1541574231943N07150274WA0110101141002028001000
B1541584231960N07150256WA0109901141002021001000
B1541594231977N07150238WA0110201144002016001000
B1542004231993N07150219WA0110301147002013001000
B1542014232009N07150200WA0110401149002009001000
B1542024232024N07150181WA0110401149002007001000
B1542034232040N07150162WA0110401149002009001000
B1542044232055N07150143WA0110801149002014001000
B1542054232072N07150125WA0111201149002021001000
B1542064232088N07150107WA0111901154002032001000
B1542074232104N07150091WA0113001162002037001000
B1542084232119N07150075WA0113801172002041001000
B1542094232133N07150060WA0114701183002044001000
B1542104232146N07150045WA0115901193002046001000
B1542114232158N07150030WA0116101200002046001000
B1542124232170N07150016WA0117201206002044001000
B1542134232181N07150002WA0117601211002040001000
B1542144232191N07149988WA0117501215002039001000
B1542154232199N07149971WA0117401217002042001000
B1542164232204N07149952WA0117501219002047001000
B1542174232205N07149929WA0117401220002051001000
B1542184232203N07149906WA0117401219002052001000
B1542194232197N07149882WA0116901217002049001000
B1542204232188N07149859WA0116601214002042001000
B1542214232176N07149837WA0116201209002035001000
B1542224232160N07149818WA0115701203002025001000
B1542234232142N07149803WA0115201197002018001000
B1542244232120N07149791WA0114701192002013002000
B1542254232097N07149785WA0114701187002009002000
B1542264232074N07149785WA0114401184002007002000
B1542274232052N07149791WA0114101182003006002000
B1542284232031N07149803WA0114401181003004002000
B1542294232014N07149821WA0114401180003003002000
B1542304232001N07149843WA0114201179003001003000
B1542314231992N07149867WA0114501179003003003000
B1542324231988N07149891WA0114201180003010003000
B1542334231988N07149915WA0114601181003016003000
B1542344231991N07149937WA0115201183003027002000
B1542354231995N07149958WA0115201186003034002000
B1542364232002N07149977WA0115301189002042002000
B1542374232009N07149994WA0115801193002054002000
B1542384232018N07150010WA0116001197002061002000
B1542394232027N07150025WA0116301200002066001000
B1542404232036N07150039WA0116901203002066001000
B1542414232045N07150053WA0117401207002061001000
B1542424232054N07150066WA0117801212002059001000
B1542434232063N07150077WA0117901216002057001000
B1542444232072N07150085WA0117601219002059001000
B1542454232083N07150089WA0117601218002062001000
B1542464232094N07150088WA0117401217002066001000
F1542462419225117280306022312
B1542474232105N07150082WA0117401214002073001000
F154247482419225117280306022312
B1542484232115N07150070WA0117301212002071001000
B1542494232121N07150054WA0116801210002066001000
B1542504232125N07150033WA0116701207002056001000
F1542502419225117280306022312
B1542514232124N07150009WA0116701204002042001000
F154251482419225117280306022312
B1542524232119N07149985WA0116401202002037002000
B1542534232110N07149962WA0116501200002040002000
B1542544232097N07149941WA0116401199002044001000
F1542544824192217280306022312
B1542554232079N07149925WA0116701200002047002000
F154255482419225117280306022312
B1542564232059N07149912WA0116501200002044002000
B1542574232038N07149904WA0116301200002034002000
B1542584232017N07149900WA0116501200002027002000
B1542594231995N07149899WA0116801201002025002000
B1543004231974N07149901WA0117401204002028002000
B1543014231953N07149904WA0117801207002035002000
B1543024231934N07149911WA0118001212002042002000
B1543034231916N07149920WA0118901217002044002000
B1543044231900N07149932WA0119401223002046002000
B1543054231886N07149946WA0119401228002047002000
B1543064231874N07149962WA0119801233002049002000
B1543074231867N07149981WA0120001237002052002000
B1543084231865N07149999WA0120101239002054002000
B1543094231868N07150016WA0120201241002054001000
B1543104231875N07150029WA0120401243002054001000
F1543102419225117280306022312
B1543114231885N07150037WA0120601244002055001000
B1543124231896N07150039WA0120801244002057001000
B1543134231908N07150033WA0121101245002059001000
B1543144231919N07150021WA0121001246002062002000
F154314482419225117280306022312
B1543154231925N07150004WA0121001248002062002000
B1543164231927N07149984WA0120901248002061002000
B1543174231923N07149961WA0120801248002059002000
B1543184231915N07149939WA0120701247002059002000
F1543182419225117280306022312
B1543194231901N07149919WA0120801245002057002000
F1543194824195117280306022312
B1543204231883N07149906WA0121101244002057002000
F15432048241951172803060212
B1543214231864N07149899WA0121401246002059002000
B1543224231846N07149901WA0121701247002057002000
B1543234231829N07149911WA0121901252002061002000
F1543234824192251172803060212
B1543244231817N07149927WA0122101255002064002000
F1543244819225117280306022312
B1543254231808N07149947WA0122301258002062002000
F154325482419225117280306022312
B1543264231806N07149967WA0122601260002061002000
B1543274231809N07149986WA0122901263002057002000
B1543284231816N07150002WA0123201266002052002000
B1543294231826N07150011WA0123801269002049002000
F1543292419225117280306022312
B1543304231838N07150015WA0123601272002047002000
F15433024192251172803060212
B1543314231850N07150012WA0123701274002049002000
F1543312419225117280306022312
B1543324231861N07150003WA0123601275002052002000
B1543334231869N07149988WA0123501274002056002000
F154333482419225117280306022312
B1543344231874N07149968WA0123701274002061002000
F1543344824192251172803060212
B1543354231874N07149945WA0123901274002064002000
F154335482419225117280306022312
B1543364231869N07149921WA0124001276002068002000
B1543374231861N07149899WA0124001277002071002000
B1543384231849N07149879WA0124201278002071002000
B1543394231833N07149863WA0124201278002064002000
B1543404231815N07149852WA0124501278002058002000
B1543414231796N07149847WA0124501279002053002000
B1543424231777N07149848WA0124801280002046002000
B1543434231758N07149853WA0125301284002046002000
B1543444231741N07149863WA0125901288002044002000
B1543454231726N07149875WA0125701291002041002000
B1543464231712N07149892WA0126201295002041002000
B1543474231702N07149910WA0126701300002041002000
B1543484231693N07149929WA0127001305002042002000
B1543494231687N07149948WA0127101308002047002000
B1543504231685N07149967WA0127601310002051001000
B1543514231685N07149986WA0127601311002049001000
B1543524231689N07150003WA0127601313002047001000
B1543534231696N07150016WA0127901313002044001000
B1543544231706N07150026WA0127601314002041001000
B1543554231718N07150031WA0127801315002042001000
B1543564231730N07150031WA0127901316002046001000
F1543562419225117280306022312
B1543574231742N07150028WA0128001316002047001000
F154357482419225117280306022312
B1543584231754N07150021WA0128001317002051001000
B1543594231764N07150008WA0128101318002051001000
B1544004231772N07149991WA0128501319002051001000
B1544014231777N07149972WA0128701320002056001000
B1544024231778N07149950WA0128501321002059001000
B1544034231776N07149928WA0128501322002064001000
B1544044231769N07149906WA0128601323002063001000
B1544054231759N07149886WA0128601323002054001000
B1544064231746N07149868WA0128801323002044001000
B1544074231731N07149852WA0129101323002034002000
B1544084231715N07149839WA0129301325002030002000
B1544094231697N07149829WA0129501327002032002000
B1544104231679N07149823WA0129801331002037002000
B1544114231661N07149819WA0130501334002044002000
B1544124231644N07149818WA0130401337002049002000
B1544134231627N07149821WA0130701340002052002000
B1544144231612N07149828WA0130801343002054002000
B1544154231599N07149839WA0131301345002054002000
B1544164231588N07149855WA0131001347002055002000
B1544174231580N07149872WA0131601348002057001000
B1544184231576N07149890WA0131501349002059001000
B1544194231575N07149907WA0131801351002061001000
B1544204231579N07149923WA0131901354002061001000
B1544214231586N07149936WA0131801355002061001000
F1544212419225117280306022312
B1544224231596N07149943WA0131901356002059001000
B1544234231607N07149945WA0131801355002061001000
F15442319225117280306022312
B1544244231619N07149942WA0131701355002061001000
B1544254231630N07149932WA0131801354002061001000
F1544254819225117280306022312
B1544264231639N07149918WA0131901354002062001000
B1544274231646N07149898WA0132201355002061002000
B1544284231649N07149877WA0132601358002059002000
F154428482419225117280306022312
B1544294231647N07149854WA0132801362002061002000
B1544304231641N07149832WA0133301365002064002000
B1544314231632N07149812WA0133201367002071001000
F1544314824195117280306022312
B1544324231618N07149796WA0133101367002078001000
B1544334231602N07149784WA0133201367002080001000
B1544344231585N07149777WA0133301366002080002000
B1544354231566N07149777WA0133401367002076002000
F154435482419225117280306022312
B1544364231549N07149781WA0133601369002073002000
B1544374231534N07149791WA0133801371002071002000
B1544384231522N07149807WA0134001373002068002000
B1544394231515N07149825WA0133901375002062002000
B1544404231511N07149844WA0134001375002061002000
B1544414231512N07149864WA0134501377002059001000
B1544424231516N07149882WA0134901380002059001000
B1544434231522N07149896WA0135101384002061001000
B1544444231531N07149907WA0135501388002061001000
F15444424192217280306022312
B1544454231541N07149912WA0135601392002061001000
F1544454824192217280306022312
B1544464231551N07149914WA0135801394002061001000
F154446482419225117280306022312
B1544474231562N07149911WA0135801395002061001000
B1544484231572N07149904WA0135701395002061001000
B1544494231581N07149891WA0135801395002061001000
B1544504231587N07149876WA0135801395002061001000
B1544514231591N07149857WA0135601395002057001000
B1544524231591N07149836WA0135401393002051001000
B1544534231588N07149813WA0135301391002040001000
B1544544231582N07149790WA0135301389002030001000
B1544554231572N07149768WA0135601389002021001000
B1544564231561N07149747WA0135801391002018001000
B1544574231548N07149729WA0136001394002021001000
B1544584231534N07149713WA0136201397002027001000
B1544594231519N07149701WA0136301399002032001000
B1545004231504N07149690WA0136301400002034001000
B1545014231488N07149680WA0136701402002032001000
B1545024231472N07149671WA0136801403002030001000
B1545034231456N07149661WA0136901406002030001000
B1545044231440N07149652WA0136901408001034001000
B1545054231424N07149642WA0137101409001040001000
B1545064231409N07149632WA0137101410001049001000
B1545074231394N07149622WA0137101411001057001000
B1545084231378N07149612WA0137201412001066001000
B1545094231363N07149602WA0137101412001073001000
B1545104231347N07149593WA0137001412001073001000
B1545114231331N07149585WA0137101412001068001000
B1545124231314N07149577WA0137001412001063001000
B1545134231297N07149570WA0136901412001059001000
B1545144231280N07149564WA0137101411001061001000
B1545154231263N07149558WA0137101411001068001000
B1545164231246N07149553WA0137301413001075001000
B1545174231228N07149548WA0137501415001080001000
B1545184231210N07149542WA0137301416001085001000
B1545194231193N07149536WA0137501416001089001000
B1545204231176N07149529WA0137501416001090001000
B1545214231158N07149523WA0137501416001089001000
B1545224231140N07149517WA0137501416001085001000
B1545234231123N07149510WA0137501417001078001000
B1545244231105N07149503WA0137501417001073001000
B1545254231088N07149495WA0137601417001069001000
B1545264231072N07149485WA0137501417001068001000
B1545274231057N07149473WA0137401417001071001000
B1545284231043N07149459WA0137401415001069001000
B1545294231030N07149443WA0137401414001064001000
B1545304231020N07149425WA0137101412001054001000
B1545314231012N07149404WA0137101410002042001000
B1545324231007N07149382WA0136901409002032001000
B1545334231005N07149360WA0136701407002023001000
B1545344231007N07149339WA0136401406002016001000
B1545354231011N07149320WA0136301405001011001000
B1545364231019N07149304WA0136201403001006001000
B1545374231028N07149293WA0135701401002003001000
B1545384231039N07149286WA0135901399002001001000
B1545394231051N07149285WA0135401396002000001000
B1545404231062N07149288WA0135501394002000001000
B1545414231074N07149295WA0135501392002000001000
B1545424231085N07149305WA0135401392002003001000
B1545434231095N07149315WA0135601393002013001000
B1545444231104N07149327WA0135701395002023001000
B1545454231113N07149338WA0135901397002032001000
B1545464231120N07149351WA0135901398002035001000
B1545474231127N07149364WA0135901399002030001000
B1545484231133N07149378WA0135601399002023001000
B1545494231139N07149392WA0135501399002016001000
B1545504231144N07149408WA0135201397002014001000
B1545514231150N07149424WA0134901394002018001000
B1545524231155N07149440WA0134501391002020001000
B1545534231161N07149457WA0134601388001021001000
B1545544231168N07149474WA0134301385001020001000
B1545554231174N07149492WA0134301383001013001000
B1545564231181N07149509WA0134501382001009001000
B1545574231188N07149526WA0134901384001007001000
B1545584231195N07149544WA0135401388001009001000
B1545594231202N07149559WA0136101395001014001000
B1546004231209N07149573WA0136701402002023001000
B1546014231215N07149585WA0137201410002032001000
B1546024231221N07149595WA0137601415002039001000
B1546034231228N07149603WA0137601418002042001000
B1546044231235N07149611WA0137501420002041001000
B1546054231242N07149618WA0137201419001041001000
B1546064231249N07149626WA0137001416001039001000
B1546074231258N07149634WA0136601412001041001000
B1546084231267N07149642WA0136401408001041001000
B1546094231276N07149651WA0136201406001041001000
B1546104231286N07149660WA0136101405001037001000
B1546114231296N07149669WA0135801404001032001000
B1546124231306N07149676WA0135801402001030001000
B1546134231317N07149682WA0135601401001025001000
B1546144231327N07149687WA0135501400001021001000
B1546154231337N07149691WA0135301398001016001000
B1546164231348N07149696WA0134701396001011001000
B1546174231359N07149700WA0134501393001006001000
B1546184231370N07149704WA0134101388001003001000
B1546194231382N07149709WA0133901383001001001000
B1546204231395N07149713WA0133901380001000001000
B1546214231409N07149716WA0133801379001001001000
B1546224231423N07149719WA0134001380001006001000
B1546234231438N07149722WA0134201381001015001000
B1546244231452N07149724WA0134401383001025001000
B1546254231467N07149725WA0134601386001035001000
B1546264231482N07149726WA0134701388001044001000
B1546274231497N07149727WA0134801390001049001000
B1546284231511N07149727WA0134801390001051001000
B1546294231526N07149727WA0134901390001051001000
B1546304231540N07149726WA0135201391001051001000
B1546314231553N07149725WA0135301393001052001000
B1546324231567N07149723WA0135401395001054001000
B1546334231580N07149720WA0135401397001057001000
B1546344231593N07149717WA0135301397001062001000
B1546354231605N07149715WA0135101396001061001000
B1546364231618N07149712WA0134801393001057001000
B1546374231631N07149708WA0134301389001051001000
B1546384231645N07149704WA0133701385001037001000
B1546394231659N07149700WA0133401379001027001000
B1546404231673N07149696WA0132901375001020001000
B1546414231688N07149692WA0132701371001013001000
B1546424231703N07149688WA0132401369001009001000
B1546434231719N07149685WA0131901365001007001000
B1546444231735N07149682WA0131701361001004001000
B1546454231751N07149679WA0131601358001004001000
B1546464231767N07149675WA0131501356001003001000
B1546474231784N07149671WA0131501354001004001000
B1546484231800N07149667WA0131501355001009001000
B1546494231816N07149663WA0131501355001013001000
B1546504231832N07149658WA0131301356001016001000
B1546514231847N07149654WA0131101355001014001000
B1546524231862N07149649WA0130701352001011001000
B1546534231878N07149643WA0130501349001007001000
B1546544231894N07149638WA0130301346001006001000
B1546554231910N07149632WA0130001344001004001000
B1546564231926N07149625WA0129801342001003001000
B1546574231942N07149619WA0129501340001001001000
B1546584231958N07149611WA0129301337001000001000
B1546594231975N07149604WA0129001334001000001000
B1547004231991N07149597WA0128701331001000001000
B1547014232008N07149591WA0128601329001000001000
B1547024232025N07149585WA0128401327001000001000
B1547034232042N07149580WA0128201326001000001000
B1547044232059N07149575WA0128101324001000001000
B1547054232076N07149569WA0128101322001000001000
